:04000000F4EF00F029
:10000800FACF64F0FBCF65F0E9CF66F050EF0DF062
:10001800D8CF09F0E8CF0AF0E0CF0BF0FACF0CF018
:10002800FBCF0DF0E9CF0EF0EACF0FF0E1CF10F0E3
:10003800E2CF11F0D9CF12F0DACF13F0F3CF14F0EA
:10004800F4CF15F0F6CF16F0F7CF17F0F8CF18F079
:10005800F5CF19F0000E1A6EF29C9EAA8ED071ECA4
:100068002DF01A6EC8EC2DF00009D8A40FD0302856
:10007800D8B481D03050010D000EF324D96E030E90
:10008800F420DA6E1AC0DFFF302A75D00D0E1A1868
:10009800D8B463D00A0E1A18D8B45FD07F0E1A18D5
:1000A800D8B404D0080E1A18D8A41FD00001E15102
:1000B800D8B41BD00001E12903EC2DF00001E107C1
:1000C8000001E151010D000EF324D96E020EF42057
:1000D800DA6E000EDF6E3E0E4FEC2DF0000E026E53
:1000E800020E036EC8EC2AF046D00001E129D8B40C
:1000F8001BD00001E051D8A43ED01A5043EC2DF09B
:100108000009D8B438D01A504FEC2DF00001E15155
:10011800010D000EF324D96E020EF420DA6E1AC017
:10012800DFFF0001E12B27D0000E016E020E026EE8
:10013800000E046E0368FDEC2BF0000E0001E16F69
:10014800820E026EFB0E036EC8EC2AF0570E046E88
:10015800FF0E056E0DEC2AF00ED00001E151D8B467
:100168000AD0820E026EFB0E036EC8EC2AF0010E56
:100178000001E06F00D09E9A0FD09EA00BD03B2AC2
:10018800030E3B18D8A404D08B948B92CD9000D04A
:100198009E9002D000F000D0F28C19C0F5FF18C074
:1001A800F8FF17C0F7FF16C0F6FF15C0F4FF14C01C
:1001B800F3FF13C0DAFF12C0D9FF11C0E2FF10C06D
:1001C800E1FF0FC0EAFF0EC0E9FF0DC0FBFF0CC046
:1001D800FAFF0BC0E0FF0AC0E8FF09C0D8FF100013
:1001E80005EF24F0000E00017E6F000E7F6F000EF9
:1001F800806F000E816F010E000172150001766F8D
:10020800000E000173150001776F000E00017415D0
:100218000001786F000E000175150001796F1F0E3F
:10022800D89000017637773778377937E82EF8D7BE
:100238000001765100017E270001775100017F23DC
:1002480000017851000180230001795100018123C8
:10025800020E000172150001766F000E0001731581
:100268000001776F000E000174150001786F000E11
:10027800000175150001796F1D0ED89000017637C1
:10028800773778377937E82EF8D7000176510001AB
:100298007E270001775100017F230001785100017A
:1002A80080230001795100018123040E0001721599
:1002B8000001766F000E000173150001776F000EC4
:1002C800000174150001786F000E0001751500011A
:1002D800796F1B0ED89000017637773778377937E2
:1002E800E82EF8D70001765100017E2700017751EA
:1002F80000017F230001785100018023000179511A
:1003080000018123080E000172150001766F000EAE
:10031800000173150001776F000E000174150001CC
:10032800786F000E000175150001796F190ED890CD
:1003380000017637773778377937E82EF8D7000114
:10034800765100017E270001775100017F230001CB
:100358007851000180230001795100018123100E9A
:10036800000172150001766F000E0001731500017F
:10037800776F000E000174150001786F000E000100
:1003880075150001796F170ED89000017637773709
:1003980078377937E82EF8D70001765100017E27A3
:1003A8000001775100017F2300017851000180236B
:1003B8000001795100018123200E0001721500010E
:1003C800766F000E000173150001776F000E0001B3
:1003D80074150001786F000E000175150001796F22
:1003E800150ED89000017637773778377937E82EA9
:1003F800F8D70001765100017E27000177510001EE
:100408007F23000178510001802300017951000108
:100418008123400E000172150001766F000E000165
:1004280073150001776F000E000174150001786FD5
:10043800000E000175150001796F130ED8900001A8
:100448007637773778377937E82EF8D7000176513D
:1004580000017E270001775100017F2300017851B8
:10046800000180230001795100018123800E0001E1
:1004780072150001766F000E000173150001776F89
:10048800000E000174150001786F000E000175154B
:100498000001796F110ED8900001763777377837D9
:1004A8007937E82EF8D70001765100017E27000140
:1004B800775100017F23000178510001802300015A
:1004C800795100018123000E000172150001766F39
:1004D800010E000173150001776F000E00017415FD
:1004E8000001786F000E000175150001796F0F0E7D
:1004F800D89000017637773778377937E82EF8D7EC
:100508000001765100017E270001775100017F2309
:1005180000017851000180230001795100018123F5
:10052800000E000172150001766F020E00017315AE
:100538000001776F000E000174150001786F000E3E
:10054800000175150001796F0D0ED89000017637FE
:10055800773778377937E82EF8D7000176510001D8
:100568007E270001775100017F23000178510001A7
:1005780080230001795100018123000E00017215CA
:100588000001766F040E000173150001776F000EED
:10059800000174150001786F000E00017515000147
:1005A800796F0B0ED890000176377737783779371F
:1005B800E82EF8D70001765100017E270001775117
:1005C80000017F2300017851000180230001795147
:1005D80000018123000E000172150001766F080EDC
:1005E800000173150001776F000E000174150001FA
:1005F800786F000E000175150001796F090ED8900B
:1006080000017637773778377937E82EF8D7000141
:10061800765100017E270001775100017F230001F8
:100628007851000180230001795100018123000ED7
:10063800000172150001766F100E0001731500019C
:10064800776F000E000174150001786F000E00012D
:1006580075150001796F070ED89000017637773746
:1006680078377937E82EF8D70001765100017E27D0
:100678000001775100017F23000178510001802398
:100688000001795100018123000E0001721500015B
:10069800766F200E000173150001776F000E0001C0
:1006A80074150001786F000E000175150001796F4F
:1006B800050ED89000017637773778377937E82EE6
:1006C800F8D70001765100017E270001775100011B
:1006D8007F23000178510001802300017951000136
:1006E8008123000E000172150001766F400E000193
:1006F80073150001776F000E000174150001786F03
:10070800000E000175150001796F030ED8900001E5
:100718007637773778377937E82EF8D7000176516A
:1007280000017E270001775100017F2300017851E5
:10073800000180230001795100018123000E00018E
:1007480072150001766F800E000173150001776F36
:10075800000E000174150001786F000E0001751578
:100768000001796FD8900001763500017A6F000199
:10077800773500017B6F0001783500017C6F00013F
:10078800793500017D6F00017A5100017E27000153
:100798007B5100017F2300017C510001802300016F
:1007A8007D510001812372C076F073C077F074C068
:1007B80078F075C079F00001D890793378337733C1
:1007C8007633000E0001761500017A6F800E000165
:1007D800771500017B6F000E0001781500017C6F12
:1007E800000E0001791500017D6F00017A510001AA
:1007F8007E2700017B5100017F2300017C5100010D
:10080800802300017D510001812372C076F073C0FE
:1008180077F074C078F075C079F0040E06D0000146
:10082800D8907933783377337633E82EF8D7000EBB
:100838000001761500017A6F400E0001771500015E
:100848007B6F000E0001781500017C6F000E00011F
:10085800791500017D6F00017A5100017E270001A2
:100868007B5100017F2300017C510001802300019E
:100878007D510001812372C076F073C077F074C097
:1008880078F075C079F0060E06D00001D89079335B
:10089800783377337633E82EF8D7000E00017615D3
:1008A80000017A6F200E0001771500017B6F000EA2
:1008B8000001781500017C6F000E00017915000118
:1008C8007D6F00017A5100017E2700017B510001F4
:1008D8007F2300017C510001802300017D5100012C
:1008E800812372C076F073C077F074C078F075C059
:1008F80079F0080E06D00001D89079337833773331
:100908007633E82EF8D7000E0001761500017A6FCD
:10091800100E0001771500017B6F000E000178159D
:1009280000017C6F000E0001791500017D6F000148
:100938007A5100017E2700017B5100017F230001CD
:100948007C510001802300017D510001812372C088
:1009580076F073C077F074C078F075C079F00A0E3D
:1009680006D00001D8907933783377337633E82E80
:10097800F8D7000E0001761500017A6F080E000105
:10098800771500017B6F000E0001781500017C6F60
:10099800000E0001791500017D6F00017A510001F8
:1009A8007E2700017B5100017F2300017C5100015B
:1009B800802300017D510001812372C076F073C04D
:1009C80077F074C078F075C079F00C0E06D000018D
:1009D800D8907933783377337633E82EF8D7000E0A
:1009E8000001761500017A6F040E000177150001E9
:1009F8007B6F000E0001781500017C6F000E00016E
:100A0800791500017D6F00017A5100017E270001F0
:100A18007B5100017F2300017C51000180230001EC
:100A28007D510001812372C076F073C077F074C0E5
:100A380078F075C079F00E0E06D00001D8907933A1
:100A4800783377337633E82EF8D7000E0001761521
:100A580000017A6F020E0001771500017B6F000E0E
:100A68000001781500017C6F000E00017915000166
:100A78007D6F00017A5100017E2700017B51000142
:100A88007F2300017C510001802300017D5100017A
:100A9800812372C076F073C077F074C078F075C0A7
:100AA80079F0100E06D00001D89079337833773377
:100AB8007633E82EF8D7000E0001761500017A6F1C
:100AC800010E0001771500017B6F000E00017815FB
:100AD80000017C6F000E0001791500017D6F000197
:100AE8007A5100017E2700017B5100017F2300011C
:100AF8007C510001802300017D510001812372C0D7
:100B080076F073C077F074C078F075C079F0120E83
:100B180006D00001D8907933783377337633E82ECE
:100B2800F8D7800E0001761500017A6F000E0001DB
:100B3800771500017B6F000E0001781500017C6FAE
:100B4800000E0001791500017D6F00017A51000146
:100B58007E2700017B5100017F2300017C510001A9
:100B6800802300017D510001812372C076F073C09B
:100B780077F074C078F075C079F0140E06D00001D3
:100B8800D8907933783377337633E82EF8D7400E18
:100B98000001761500017A6F000E0001771500013B
:100BA8007B6F000E0001781500017C6F000E0001BC
:100BB800791500017D6F00017A5100017E2700013F
:100BC8007B5100017F2300017C510001802300013B
:100BD8007D510001812372C076F073C077F074C034
:100BE80078F075C079F0160E06D00001D8907933E8
:100BF800783377337633E82EF8D7200E0001761550
:100C080000017A6F000E0001771500017B6F000E5E
:100C18000001781500017C6F000E000179150001B4
:100C28007D6F00017A5100017E2700017B51000190
:100C38007F2300017C510001802300017D510001C8
:100C4800812372C076F073C077F074C078F075C0F5
:100C580079F0180E06D00001D890793378337733BD
:100C68007633E82EF8D7100E0001761500017A6F5A
:100C7800000E0001771500017B6F000E000178154A
:100C880000017C6F000E0001791500017D6F0001E5
:100C98007A5100017E2700017B5100017F2300016A
:100CA8007C510001802300017D510001812372C025
:100CB80076F073C077F074C078F075C079F01A0ECA
:100CC80006D00001D8907933783377337633E82E1D
:100CD800F8D7080E0001761500017A6F000E0001A2
:100CE800771500017B6F000E0001781500017C6FFD
:100CF800000E0001791500017D6F00017A51000195
:100D08007E2700017B5100017F2300017C510001F7
:100D1800802300017D510001812372C076F073C0E9
:100D280077F074C078F075C079F01C0E06D0000119
:100D3800D8907933783377337633E82EF8D7040EA2
:100D48000001761500017A6F000E00017715000189
:100D58007B6F000E0001781500017C6F000E00010A
:100D6800791500017D6F00017A5100017E2700018D
:100D78007B5100017F2300017C5100018023000189
:100D88007D510001812372C076F073C077F074C082
:100D980078F075C079F01E0E06D00001D89079332E
:100DA800783377337633E82EF8D7020E00017615BC
:100DB80000017A6F000E0001771500017B6F000EAD
:100DC8000001781500017C6F000E00017915000103
:100DD8007D6F00017A5100017E2700017B510001DF
:100DE8007F2300017C510001802300017D51000117
:100DF8008123000E000172150001766F000E0001BC
:100E080073150001776F000E000174150001786FEB
:100E1800800E000175150001796F200E06D00001C3
:100E2800D8907933783377337633E82EF8D70001C2
:100E3800765100017E270001775100017F230001D0
:100E480078510001802300017951000181237EC07F
:100E580072F07FC073F080C074F081C075F012002A
:100E68001200010E0401C36F000E0401CA6F000EC8
:100E7800CB6F000ECC6F000ECD6F000E0401C46F57
:100E8800000E0401C56F000E0401C66F000EC76F87
:100E9800000EC86F000EC96F000E0401C26F900EDD
:100EA8000001726F040E0001736F000E0001756F70
:100EB800320E746F6EEC2AF0000E0001756F020E90
:100EC8000001766FCD0E0001776FFF0E0001786F7D
:100ED800CDEC25F00009D8B47ED0000E0001756F66
:100EE800020E0001766F310E0001776FFB0E0001D4
:100EF800786F66EC27F00009D8B412D05E0E0001B6
:100F08007A6FFB0E00017B6F010E00017C6F0C0EE7
:100F180000017D6F080E00017E6F74EC2CF04AD042
:100F2800000E0001756F020E0001766F400E000181
:100F3800776FFB0E0001786F66EC27F00009D8B4D4
:100F480012D06A0E00017A6FFB0E00017B6F010E52
:100F580000017C6F0C0E00017D6F080E00017E6F92
:100F680074EC2CF027D0000E0001756F020E000102
:100F7800766F4F0E0001776FFB0E0001786F66ECFD
:100F880027F00009D8B412D0760E00017A6FFB0E54
:100F980000017B6F010E00017C6F0C0E00017D6F5C
:100FA800080E00017E6F74EC2CF004D0000E0401D2
:100FB800C36F00D00401C3510401D8B426EF0CF06C
:100FC800320E0001756FFD0E0001766FA5EC29F059
:100FD800120026EF0CF0000E0001756F020E0001E2
:100FE800766FD30E0001776FFF0E0001786FCDEC9E
:100FF80025F00009D8B471D1000E0001756F020EFA
:101008000001766F6D0E0001776FFA0E0001786FA0
:1010180066EC27F00009D8B412D0A10E00017A6F4F
:10102800FA0E00017B6F020E00017C6F100E0001AA
:101038007D6F080E00017E6F74EC2CF03FD1000E1E
:101048000001756F020E0001766F470E0001776F81
:10105800FA0E0001786F66EC27F00009D8B412D0B8
:10106800910E00017A6FFA0E00017B6F020E0001EB
:101078007C6F100E00017D6F080E00017E6F74EC0E
:101088002CF01CD1000E0001756F020E0001766F66
:101098007F0E0001776FFA0E0001786F66EC27F07B
:1010A8000009D8B412D0C10E00017A6FFA0E0001FF
:1010B8007B6F020E00017C6F100E00017D6F080E21
:1010C80000017E6F74EC2CF0F9D0000E0001756FF2
:1010D800020E0001766F5A0E0001776FFA0E0001BA
:1010E800786F66EC27F00009D8B412D0B10E000171
:1010F8007A6FFA0E00017B6F020E00017C6F100EF2
:1011080000017D6F080E00017E6F74EC2CF0D6D0C4
:10111800000E0001756F020E0001766F0B0E0001C4
:10112800776FFA0E0001786F66EC27F00009D8B4E3
:1011380012D0E10E00017A6FFA0E00017B6F020EE9
:1011480000017C6F100E00017D6F080E00017E6F9C
:1011580074EC2CF0B3D0000E0001756F020E000184
:10116800766FCC0E0001776FF90E0001786F66EC90
:1011780027F00009D8B412D0D10E00017A6FFA0E08
:1011880000017B6F020E00017C6F100E00017D6F65
:10119800080E00017E6F74EC2CF090D0000E000158
:1011A800756F020E0001766F1F0E0001776FFA0E41
:1011B8000001786F66EC27F00009D8B412D0010E50
:1011C80000017A6FFB0E00017B6F020E00017C6F3D
:1011D800100E00017D6F080E00017E6F74EC2CF07C
:1011E8006DD0000E0001756F020E0001766FE10EE2
:1011F8000001776FF90E0001786F66EC27F000099F
:10120800D8B412D0F10E00017A6FFA0E00017B6F8C
:10121800020E00017C6F100E00017D6F080E0001A8
:101228007E6F74EC2CF04AD0000E0001756F020E30
:101238000001766F330E0001776FFA0E0001786FA8
:1012480066EC27F00009D8B412D0210E00017A6F9D
:10125800FB0E00017B6F020E00017C6F100E000177
:101268007D6F080E00017E6F74EC2CF027D0000E05
:101278000001756F020E0001766FF60E0001776FA0
:10128800F90E0001786F66EC27F00009D8B412D087
:10129800F10E00017A6FFA0E00017B6F030E000158
:1012A8007C6F100E00017D6F080E00017E6F74ECDC
:1012B8002CF004D0000E0401C36F00D00401C35108
:1012C8000401D8B4BFD24F0E0001756FFD0E0001A6
:1012D800766FA5EC29F01200B5D2000E0001756FEB
:1012E800020E0001766FEB0E0001776FFF0E000112
:1012F800786FCDEC25F00009D8B4B4D1000E000108
:101308007E6F020E00017F6F020E0001806FC60E15
:101318000001816F040E0001826FF7EC0FF00009E5
:10132800D8A497D0C6C4C5F4000E00017E6F020E83
:1013380000017F6F010E0001806FC60E0001816FF2
:10134800040E0001826FF7EC0FF00009D8A478D0E2
:10135800C6C4C4F4900E0001886F040E0001896FA2
:10136800250E00018A6FFF0E00018B6FC4C48CF03C
:1013780000018D6B08EC14F0900E0001756F040EDF
:101388000001766FA5EC29F0900E0001886F040E1D
:101398000001896F140E00018A6FFF0E00018B6F28
:1013A800C5C48CF000018D6B08EC14F0900E0001A0
:1013B800756F040E0001766FA5EC29F0C5C476F0B0
:1013C8000401C451B1EC1EF076C0CAF477C0CBF466
:1013D80078C0CCF479C0CDF4CAC487F0CBC488F007
:1013E800CCC489F0CDC48AF0000E00018B6F17ECD5
:1013F80027F0900E0001886F040E0001896FD20E4D
:1014080000018A6FFD0E00018B6FCAC48CF0CBC43B
:101418008DF0CCC48EF0CDC48FF008EC14F0900E93
:101428000001756F040E0001766FA5EC29F0820E9D
:101438000001736FFB0E0001746F9BEC2AF002D25F
:10144800960E0001756FFC0E0001766FA5EC29F071
:10145800F9D1000E00017E6F020E00017F6F010EB0
:101468000001806FCA0E0001816F040E0001826FB7
:10147800F7EC0FF00009D8A48BD0CAC487F0CBC40E
:1014880088F0CCC489F0CDC48AF0000E00018B6FBF
:1014980017EC27F0900E0001886F040E0001896F89
:1014A800E00E00018A6FFE0E00018B6FCAC48CF03B
:1014B800CBC48DF0CCC48EF0CDC48FF008EC14F002
:1014C800900E0001756F040E0001766FA5EC29F0EF
:1014D800CAC476F0CBC477F0CCC478F0CDC479F028
:1014E800C40E00017A6F040E00017B6FC50E000167
:1014F8007C6F040E00017D6F76EC25F00009D8B4EE
:1015080035D0900E0001886F040E0001896F290EF6
:1015180000018A6FFF0E00018B6FC4C48CF00001BC
:101528008D6B08EC14F0900E0001756F040E00012D
:10153800766FA5EC29F0900E0001886F040E00016B
:10154800896F180E00018A6FFF0E00018B6FC5C4EA
:101558008CF000018D6B08EC14F0900E0001756F93
:10156800040E0001766FA5EC29F008D0150E0001D5
:10157800756FFC0E0001766FA5EC29F0820E000154
:10158800736FFB0E0001746F9BEC2AF012005AD1A6
:10159800820E0001736FFB0E0001746F9BEC2AF042
:1015A800130E0001756FFD0E0001766FA5EC29F092
:1015B800820E0001736FFB0E0001746F9BEC2AF022
:1015C800C00E0001756FFF0E0001766FA5EC29F0C3
:1015D800590E0001756FFE0E0001766FA5EC29F01B
:1015E8008F0E0001756FFF0E0001766FA5EC29F0D4
:1015F800E90E0001756FFD0E0001766FA5EC29F06C
:10160800820E0001736FFB0E0001746F9BEC2AF0D1
:10161800B70E0001756FFF0E0001766FA5EC29F07B
:10162800CE0E0001756FFE0E0001766FA5EC29F055
:10163800910E0001756FFF0E0001766FA5EC29F081
:10164800030E0001756FFF0E0001766FA5EC29F0FF
:10165800820E0001736FFB0E0001746F9BEC2AF081
:101668001200F0D0000E0001756F020E0001766FB7
:10167800820E0001776FFF0E0001786FCDEC25F028
:101688000009D8B4C5D0000E0001816F020E000118
:10169800826F18EC1BF00009D8B471D0000E00015D
:1016A8007E6F020E00017F6F010E0001806FC60E73
:1016B8000001816F040E0001826FF7EC0FF0000942
:1016C800D8A45DD0820E0001736FFB0E0001746F09
:1016D8009BEC2AF0880E0001736FFD0E0001746FF9
:1016E8009BEC2AF0000E0401C26F1BD02E0E26ECD4
:1016F8002DF00401C22B140E0401C26512D0820E13
:101708000001736FFB0E0001746F9BEC2AF0C50E8D
:101718000001756FFB0E0001766FA5EC29F0120031
:1017280000D00001E605D8A4E1D7900E0001886F2B
:10173800040E0001896FBA0E00018A6FFD0E0001C8
:101748008B6FC6C48CF0C7C48DF0C8C48EF0C9C4F2
:101758008FF0E2C090F0E3C091F0E4C092F0E5C0F1
:1017680093F008EC14F0000E0001E66F900E0001F3
:10177800756F040E0001766FA5EC29F000D0820E7B
:101788000001736FFB0E0001746F9BEC2AF0F20EE0
:101798000001756FFB0E0001766FA5EC29F0820E33
:1017A8000001736FFB0E0001746F9BEC2AF0C00EF2
:1017B8000001756FFF0E0001766FA5EC29F0470E4A
:1017C8000001756FFF0E0001766FA5EC29F0820EFF
:1017D8000001736FFB0E0001746F9BEC2AF0B70ECB
:1017E8000001756FFF0E0001766FA5EC29F0670EFA
:1017F8000001756FFF0E0001766FA5EC29F0820ECF
:101808000001736FFB0E0001746F9BEC2AF01AD075
:10181800B40E0001756FF90E0001766FA5EC29F082
:10182800170E0001756FFE0E0001766FA5EC29F00A
:10183800820E0001736FFB0E0001746F9BEC2AF09F
:10184800120000D00401C3510401D8A411D0B40E71
:101858000001736FF90E0001746F9BEC2AF0820E81
:101868000001736FFB0E0001746F9BEC2AF000D02F
:10187800000E0001726F020E0001736FE70E000187
:10188800746FFF0E0001756F36EC29F00009D8A4BB
:1018980005D00401C3510401D8A41200820E00012E
:1018A800736FFB0E0001746F9BEC2AF0850E00012C
:1018B800756FFB0E0001766FA5EC29F0820E000112
:1018C800736FFB0E0001746F9BEC2AF0360E00015B
:1018D800756FFF0E0001766FA5EC29F0E70E000189
:1018E800756FFF0E0001766FA40E0001776FFF0E73
:1018F8000001786F8AEC21F0820E0001736FFB0EF5
:101908000001746F9BEC2AF0750E0001756FFF0ED5
:101918000001766FA5EC29F0310E0001756FFB0E02
:101928000001766F820E0001776FFE0E0001786F5E
:101938008AEC21F0400E0001756FFB0E0001766FF6
:10194800950E0001776FFE0E0001786F8AEC21F08A
:101958004F0E0001756FFB0E0001766FA80E000197
:10196800776FFE0E0001786F8AEC21F06D0E000192
:10197800756FFA0E0001766F2E0E0001776FFE0E5E
:101988000001786F8AEC21F0470E0001756FFA0E9E
:101998000001766F000E0001776FFE0E0001786F70
:1019A8008AEC21F07F0E0001756FFA0E0001766F48
:1019B800BB0E0001776FFE0E0001786F8AEC21F0F4
:1019C8005A0E0001756FFA0E0001766F6E0E000157
:1019D800776FFE0E0001786F8AEC21F00B0E000184
:1019E800756FFA0E0001766FB60E0001776FFC0E68
:1019F8000001786F8AEC21F0CC0E0001756FF90EAA
:101A08000001766F360E0001776FFC0E0001786FCB
:101A18008AEC21F01F0E0001756FFA0E0001766F37
:101A2800D50E0001776FFC0E0001786F8AEC21F06B
:101A3800E10E0001756FF90E0001766F560E000178
:101A4800776FFC0E0001786F8AEC21F0330E0001ED
:101A5800756FFA0E0001766FF40E0001776FFC0EB9
:101A68000001786F8AEC21F0F60E0001756FF90E0F
:101A78000001766F760E0001776FFC0E0001786F1B
:101A88008AEC21F0820E0001736FFB0E0001746F67
:101A98009BEC2AF012001200EACF67F0E1CF68F061
:101AA800E2CF69F0D9CF6AF0DACF6BF0F3CF6CF000
:101AB800F4CF6DF0F6CF6EF0F7CF6FF0F8CF70F08F
:101AC800F5CF71F0F29EF2A067D0CFEC2DF0296E21
:101AD80032502918D8B45DD0D58EF28A130E426ED2
:101AE800000E0001E66FD6CF2AF02B6AD7502B26BE
:101AF800480E336049D03350D8B441D0FE0E0001AF
:101B0800606FFF0E0001616F33500001626F636BFD
:101B1800D8900001623763370001605100016227E5
:101B28000001615100016323000E00016225D96E96
:101B3800040E00016321DA6E2AC0DEFF2BC0DDFF30
:101B4800090E2A5C520E2B58D8B006D0380E2A5CE3
:101B58004A0E2B58D8B00CD0510E2A5CC30E2B5805
:101B6800D8B00AD0C80E2A5CAF0E2B58D8A004D023
:101B78007D98F296F28406D0EBEC2DF003D0EBECD6
:101B88002DF000D0332A02D07D98F29629C032F089
:101B980001D000F0F29009D2F2A421D0F29AD59E99
:101BA800000E1B6E040E1C6EE20E1D6E000E1E6EE5
:101BB800010E1F6EDAEC15F00001E66F0001E65128
:101BC800D8A407D0CFEC2DF0326EF2907D88F28643
:101BD80000D0000E336E0D0E426EF294E6D19EA236
:101BE800D1D13C2A370E4018D8A40CD141503C5CC6
:101BF800D8A003D1000E3C6E3750010D940EF3248B
:101C0800D96E010EF420DA6E630EDE18D8B4B3D0A4
:101C18003950D8B4F2D03750010D940EF324D96E50
:101C2800010EF420DA6EDF50D8A43FD03604D8A4D1
:101C380025D03804D8A407D077D0080ECB6E76D03C
:101C4800000ECC6EDAD0020E3818D8A404D074D0A6
:101C58003ED0382AD2D0030E3818D8A402D064D087
:101C6800ECD7040E3818D8A404D08B9A180E51D08B
:101C780016D0CA947BD0000E396EBFD0020E36182B
:101C8800D8A4F7D73804D8A403D08B8A0B0ED6D79C
:101C9800020E3818D8A4EDD78B9A1D0E3AD0010E33
:101CA800386E372AAAD062D0A8D03750010D940ECA
:101CB800F324D96E010EF420DA6EDE04D8A42ED0F7
:101CC8003604D8A416D03804D8A404D03CD0180EB2
:101CD800CB6EBFD7020E3818D8A431D08B9AADD7A7
:101CE8002ED0F5D7B6D732D0080ECB6E35D0A8D7C0
:101CF80084D0020E3618D8A4BCD73804D8A403D090
:101D08008B8A1D0E9BD7020E3818D8A404D08B9A44
:101D18000B0ECB6EC4D7CA9429D06FD03604D8A482
:101D280020D03804D8A404D08B8A87D7382A88D7FB
:101D3800020E3818D8A403D08B9AC9D78AD7030EB5
:101D48003818D8A403D08B8AC2D783D7040E381882
:101D5800D8A48FD78B9AC8D7010E386E372A70D778
:101D68004CD0020E3618D8A484D783D7010E0001B0
:101D7800ED6F81D742D03804D8A416D03604D8A441
:101D880003D08B8A080E06D0020E3618D8A404D0C9
:101D98008B9A0B0ECB6E05D0CA94010E0001ED6F25
:101DA80000D0000ECC6E55D7020E3818D8A41CD01F
:101DB8003604D8A403D08B9AFA0E05D0020E361832
:101DC800D8A403D0BB0ECB6E05D0CA94010E000177
:101DD800ED6F00D0382A3A063A50D8B40ED0010E2A
:101DE800386E000E376E09D0F0EC2DF0A192000E7F
:101DF8003D6EB180CA943FD700D03950D8B4C0D016
:101E0800CA84BED041503C5CD8A0BAD0000E3C6E0B
:101E1800070E3F18D8A40DD0200E3E6E000E00010C
:101E2800DE6F8B96080E3F6E040E416E4B0ECB6E26
:101E3800A7D0080E3F18D8B404D00A0E3F18D8A46B
:101E480011D0010E0001DE6F010E416E2C50010B06
:101E5800316ED8902F322E322D322C32260ECB6E88
:101E6800090E7AD0090E3F18D8A417D0000E000129
:101E7800DE6F8B96010E416E3150D8B402D0710ED0
:101E880001D0260ECB6E00D03E063E50D8A402D01C
:101E98000B0E62D00A0E60D073D00B0E3F18D8A478
:101EA80007D0010E0001DE6F260ECB6E0C0E54D04B
:101EB8000C0E3F18D8A411D0000E0001DE6F8B96CF
:101EC8003550D8A403D00D0E3F6E57D00B0E416E7F
:101ED800F20ECB6E0E0E40D053D00E0E3F18D8B473
:101EE80004D0120E3F18D8A409D0010E0001DE6FED
:101EF800040E416E960ECB6E0F0E2ED00F0E3F18AD
:101F0800D8A40AD0000E0001DE6F8B96010E416E38
:101F1800950ECB6E100E20D0100E3F18D8A409D005
:101F2800010E0001DE6F010E416E260ECB6E110E02
:101F380013D0110E3F18D8A411D0000E0001DE6F87
:101F48008B961A0E416EF60ECB6E34063450D8B40A
:101F580002D0120E01D00D0E3F6E12D00D0E3F189A
:101F6800D8A405D00AD0010E0001ED6F09D0000EEB
:101F78000001DE6F8B96000E3F6ECA94F4D700D036
:101F88009E9213D0A1A20FD0B190060E3D6005D04D
:101F9800F0EC2DF0B1803D2A04D0010E0001ED6F68
:101FA80000D0A19202D000F000D0F28E71C0F5FFEF
:101FB80070C0F8FF6FC0F7FF6EC0F6FF6DC0F4FF8A
:101FC8006CC0F3FF6BC0DAFF6AC0D9FF69C0E2FFDB
:101FD80068C0E1FF67C0EAFF66C0E9FF65C0FBFFB4
:101FE80064C0FAFF1100000E00018C6F000E0001A2
:101FF8008E6F000E8F6F000E906F000E916F000EA7
:1020080000018A6F010E0001886F000E00018B6FBE
:10201800000E0001896F27D07EC0D9FF7FC0DAFF8C
:10202800300EDE18D8A419D000018B2B00017E4B8E
:102038007F2B7EC0D9FF7FC0DAFF780EDE18D8B4B8
:1020480008D07EC0D9FF7FC0DAFF580EDE18D8A4AA
:1020580004D0010E0001896F00D000018B2B000114
:102068007E4B7F2B00D07EC0D9FF7FC0DAFFDF50C8
:10207800D8A4D2D700018B51010DF35000017E5F27
:10208800F45000017F5B01D03BD07EC0D9FF7FC0F8
:10209800DAFF3D0EDE18D8B411D07EC0D9FF7FC05C
:1020A800DAFF2C0EDE18D8B409D07EC0D9FF7FC065
:1020B800DAFFDF50D8B402D023D000D07EC0D9FFD9
:1020C8007FC0DAFFDF50D8A403D0010E12001DD064
:1020D8007EC0D9FF7FC0DAFF3D0EDE18D8A408D035
:1020E8007EC0D9FF7FC0DAFF2C0EDE18D8B40DD021
:1020F800000180510001885DD8B007D00001882B0D
:1021080000017E4B7F2BC1D700D07EC0D9FF7FC096
:10211800DAFFDF50D8A402D0010E120000017E4B76
:102128007F2B7EC0D9FF7FC0DAFF200EDE18D8B41F
:1021380016D07EC0D9FF7FC0DAFF3D0EDE18D8A4C6
:1021480003D0020E120019D07EC0D9FF7FC0DAFF7B
:102158002D0EDE18D8A407D0010E00018A6F0001E9
:102168007E4B7F2B0AD07EC0D9FF7FC0DAFFDF50BD
:10217800D8A403D0030E120000D000018951000139
:10218800D8B452D060D050D08EC072F08FC073F0E7
:1021980090C074F091C075F00A0E0001766F000EC1
:1021A800776F000E786F000E796FF9EC28F072C027
:1021B8008EF073C08FF074C090F075C091F07EC03F
:1021C800D9FF7FC0DAFFDF500001836FD00E000116
:1021D80083250001846F0001856BFF0E85230001B4
:1021E800866B000185BF8607000186510001876F55
:1021F8000001845100018E270001855100018F23C1
:1022080000018651000190230001875100019123AC
:1022180000018C2B200E00018C6502D0040E1200E8
:1022280000017E4B7F2B00D07EC0D9FF7FC0DAFF34
:102238002F0EDF64C6D07EC0D9FF7FC0DAFF390E0B
:10224800DF64A2D7BED0000E00018A6F04D000015F
:102258007E4B7F2B00D07EC0D9FF7FC0DAFF780E7F
:10226800DE18D8B47DD07EC0D9FF7FC0DAFF580E03
:10227800DE18D8B475D0EBD773D072D00001040E35
:10228800D8908E378F3790379137E82EF9D77EC0A0
:10229800D9FF7FC0DAFFDF5000018D6F00018D513B
:1022A80017EC2DF00009D8B429D08D0E0001726FFB
:1022B800000E0001736FC2EC2CF0A90E00018D25F1
:1022C8000001836F0001846BFF0E84230001856B7E
:1022D800000184BF8507000185510001866F000158
:1022E800835100018E270001845100018F230001D2
:1022F8008551000190230001865127D07EC0D9FF67
:102308007FC0DAFFDF500001836FD00E0001832504
:102318000001846F0001856BFF0E85230001866B29
:10232800000185BF8607000186510001876F000103
:10233800845100018E270001855100018F2300017F
:10234800865100019023000187510001912300D09C
:1023580000018C2B200E00018C6502D0040E1200A7
:1023680000017E4B7F2B00D07EC0D9FF7FC0DAFFF3
:102378002F0EDF6408D07EC0D9FF7FC0DAFF390E88
:10238800DF647CD700D07EC0D9FF7FC0DAFF400E63
:10239800DF6408D07EC0D9FF7FC0DAFF460EDF6455
:1023A8006DD700D07EC0D9FF7FC0DAFF600EDF6432
:1023B80008D07EC0D9FF7FC0DAFF660EDF645ED723
:1023C80000D000018A510001D8B40AD00001911F41
:1023D800901F8F1F8E6D000E8F239023912300D0A6
:1023E80081C0D9FF82C0DAFF8EC0DEFF8FC0DEFF5A
:1023F80090C0DEFF91C0DEFF000E12001200010E39
:102408000001D36FA10E0001726F000E0001736FFF
:10241800000E0001756F320E746F6EEC2AF03EEC00
:1024280023F00009D8B4120001D01200A10E000157
:10243800886F000E0001896FA20E00018A6FFD0EE1
:1024480000018B6FE9C08CF0EAC08DF0EBC08EF014
:10245800ECC08FF008EC14F0A10E0001736F000EB1
:102468000001746F9BEC2AF0500E0001726FC30ECE
:10247800736F000E746F000E756F1FEC2BF0000E5B
:102488000001726F030E0001736FF70E0001746F85
:10249800FF0E0001756F1DEC25F00009D8A404D0CB
:1024A800000E0001D36F00D0000E0001726F030E02
:1024B8000001736F30C074F00001756B6EEC2AF088
:1024C800000E306E0001D3510001D8B428D09A0E06
:1024D8000001736FFF0E0001746F9BEC2AF0500E21
:1024E8000001726FC30E736F000E746F000E756F6C
:1024F8001FEC2BF0000E0001726F030E0001736FCA
:10250800F70E0001746FFF0E0001756F1DEC25F0CA
:102518000009D8A404D0000E0001D36F00D0000138
:10252800D3510001D8B428D0440E0001736FFE0EB9
:102538000001746F9BEC2AF0500E0001726FC30EFD
:10254800736F000E746F000E756F1FEC2BF0000E8A
:102558000001726F030E0001736FF70E0001746FB4
:10256800FF0E0001756F1DEC25F00009D8A404D0FA
:10257800000E0001D36F00D0000E0001726F030E31
:102588000001736F30C074F00001756B6EEC2AF0B7
:10259800000E306E0001D3510001D8B428D0AE0E21
:1025A8000001736FFF0E0001746F9BEC2AF0500E50
:1025B8000001726FC30E736F000E746F000E756F9B
:1025C8001FEC2BF0000E0001726F030E0001736FF9
:1025D800F70E0001746FFF0E0001756F1DEC25F0FA
:1025E8000009D8A404D0000E0001D36F00D0000E5B
:1025F8000001726F030E0001736F30C074F00001A8
:10260800756B6EEC2AF0000E306E0001D35100019C
:10261800D8B428D0C70E0001736FFF0E0001746F85
:102628009BEC2AF0500E0001726FC30E736F000E00
:10263800746F000E756F1FEC2BF0000E0001726FA7
:10264800030E0001736FF70E0001746FFF0E000197
:10265800756F1DEC25F00009D8A404D0000E000108
:10266800D36F00D0000E0001726F030E0001736F6C
:1026780030C074F00001756B6EEC2AF0000E306EFD
:102688000001D3510001D8B428D0C70E0001736FE0
:10269800FF0E0001746F9BEC2AF0500E0001726F60
:1026A800C30E736F000E746F000E756F1FEC2BF066
:1026B800000E0001726F030E0001736FF70E000128
:1026C800746FFF0E0001756F1DEC25F00009D8A48A
:1026D80004D0000E0001D36F00D0000E0001726F0D
:1026E800030E0001736F30C074F00001756B6EEC5F
:1026F8002AF0000E306E0001D3510001D8B43ED04C
:10270800DE0E0001736FFF0E0001746F9BEC2AF060
:10271800500E0001726FC30E736F000E746F000EBF
:10272800756F1FEC2BF0A10E0001886F000E0001E1
:10273800896F6C0E00018A6FFD0E00018B6FE9C076
:102748008CF0EAC08DF0EBC08EF0ECC08FF008EC96
:1027580014F0000E0001726F030E0001736FA10EDA
:102768000001746F000E0001756F1DEC25F0000963
:10277800D8A404D0000E0001D36F00D0000E0001D1
:10278800726F030E0001736F30C074F00001756B37
:102798006EEC2AF0000E306ED90E0001736FFF0E3A
:1027A8000001746F9BEC2AF0500E0001726FC30E8B
:1027B800736F000E746F000E756F1FEC2BF0000E18
:1027C8000001726F030E0001736FF30E0001746F46
:1027D800FF0E0001756F1DEC25F00009D8A404D088
:1027E800000E0001D36F00D0000E0001726F030EBF
:1027F8000001736F30C074F00001756B6EEC2AF045
:10280800000E306E120012008C0E0001996F000E3F
:1028180000019A6FB3D1250E0001A019D8B40AD0CF
:1028280088C0D9FF89C0DAFFA0C0DFFF0001884B4C
:10283800892BA4D1000E00019F6F0BD0AFD10001EE
:102848009F8907D025D000D000019F8F21D096D135
:102858001FD08AC0F6FF8BC0F7FF00018A4B8B2B75
:102868000800F5CFA0F00001A051000AD8B496D115
:10287800580AD8B4E9D73C0AD8B40AD00D0AD8B453
:1028880007D0050AD8B4DBD7140AD8B4DDD776D177
:1028980000019FBF35D000019FA90ED099C0D9FF74
:1028A8009AC0DAFFDECF9BF0DECF9CF0DECF9DF042
:1028B800DECF9EF0040E0FD099C0D9FF9AC0DAFF80
:1028C800DECF9BF0DDCF9CF00001000E9CBFFF0E19
:1028D8009D6F9E6F020E00019927000E9A2300D06B
:1028E80000019EAF89D0030E00019F1300019E1FB7
:1028F8009D1F9C1F9B6D000E9C239D239E237CD0B7
:1029080000019FA90ED099C0D9FF9AC0DAFFDECF87
:102918009BF0DECF9CF0DECF9DF0DECF9EF0040E64
:1029280010D099C0D9FF9AC0DAFFDECF94F0DDCF7E
:1029380095F094C09BF095C09CF000019D6B9E6B38
:10294800020E00019927000E9A2356D0010E0001AD
:10295800A06F0A0E0001A019D8B458D001D056D0E3
:102968000001A051040D630EF324F66EF90EF42055
:10297800F76E0900F55000019B5D0900F550000154
:102988009C590900F55000019D590900F5500001B6
:102998009E59D8A03BD001D039D00001A02BD9D75F
:1029A80035D0010E0001A06F080E0001A019D8B49F
:1029B8002DD001D02BD00001A051040D8B0EF32493
:1029C800F66EF90EF420F76E0900F55000019B5DD4
:1029D8000900F55000019C590900F55000019D5966
:1029E8000900F55000019E59D8A010D001D00ED092
:1029F8000001A02BD9D70AD000019F51800B000AF3
:102A0800D8B4A4D7800AD8B4CCD700D09FC094F04B
:102A1800030E00019417D8B40AD088C0D9FF89C022
:102A2800DAFF2D0EDF6E0001884B892B00D00001E4
:102A3800A0510001976F986B97BF980792D07DD0EF
:102A480097C094F098C095F00001D89094379537C6
:102A58000001D89094379537630E00019425F66EDF
:102A6800F90E9521F76E0900F5CF76F00900F5CF3C
:102A780077F00900F5CF78F00A00F5CF79F09BC020
:102A880072F09CC073F09DC074F09EC075F0A2EC0B
:102A980023F072C07FF073C080F074C081F075C0FD
:102AA80082F00A0E0001836F000E846F000E856F9E
:102AB800000E866F23EC26F000017F51300F0001D5
:102AC800A06F45D09BC072F09CC073F09DC074F09D
:102AD8009EC075F097C094F098C095F00001D8900A
:102AE800943795370001D890943795378B0E0001AD
:102AF8009425F66EF90E9521F76E0900F5CF76F05C
:102B08000900F5CF77F00900F5CF78F00A00F5CF86
:102B180079F0A2EC23F0000172510F0B0001966FBF
:102B280000019651010DF20EF324F66EFE0EF4200C
:102B3800F76E0800F5CFA0F00AD000019F51800B76
:102B4800000AD8B47DD7800AD8B4BCD700D088C0D2
:102B5800D9FF89C0DAFFA0C0DFFF0001884B892BAD
:102B680000D000019707D8A0980700019729E5E150
:102B780000019829D8B402D0E0D700D08AC0F6FF67
:102B88008BC0F7FF00018A4B8B2B0800F5CFA0F014
:102B98000001A051D8B402D03ED600D088C0D9FFD9
:102BA80089C0DAFF000EDF6E12001200000E266EDA
:102BB800480E286E000E226E000E236E000E246E44
:102BC800000E256E000E276E470E276401D041D0F7
:102BD8002750020DF3501B24D96EF4501C20DA6ED6
:102BE800C80EDE5CAF0EDE58D8A011D02750020DFB
:102BF800F3501B24D96EF4501C20DA6E510EDE5CA3
:102C0800C30EDE58D8B003D0020E120020D02750D1
:102C1800020DF3501B24D96EF4501C20DA6EA00E5E
:102C2800DE5C0F0EDE58D8A012D02750020DF350EC
:102C38001B24D96EF4501C20DA6E890EDE5C130E4C
:102C4800DE58D8B004D027C028F003D000D0272AF7
:102C5800BBD72850206E216A201E211E204A212A17
:102C6800480E2026000E212221BE06D0215006E162
:102C7800480E205CD8B002D0000E1200282A285036
:102C8800020DF3501B24D96EF4501C20DA6E9D0EF1
:102C9800DE5C030EDE58D8A067D02850020DF35032
:102CA8001B24D96EF4501C20DA6EE30EDE5C040E91
:102CB800DE58D8B059D02850020DF3501B24D96ED5
:102CC800F4501C20DA6E010EDB5004E17D0EDE5C50
:102CD800D8A069D02850020DF3501B24D96EF450A7
:102CE8001C20DA6E590EDE5C020EDE58D8B05BD0BE
:102CF8002850020DF3501B24D96EF4501C20DA6EB4
:102D0800010EDB5004E17D0EDE5CD8A04CD02850CB
:102D1800020DF3501B24D96EF4501C20DA6E590EA4
:102D2800DE5C020EDE58D8B03ED02850020DF350BB
:102D38001B24D96EF4501C20DA6EC80EDE5CAF0E70
:102D4800DE58D8A030D02850020DF3501B24D96E7D
:102D5800F4501C20DA6E510EDE5CC30EDE58D8B07B
:102D680022D0020E12001FD02850020DF3501B244F
:102D7800D96EF4501C20DA6ED60EDE5C060EDE58D4
:102D8800D8A00ED02850020DF3501B24D96EF45051
:102D98001C20DA6EBF0EDE5C0A0EDE58D8A003D007
:102DA800000E120000D0282A28C027F0470E2764FA
:102DB80001D0CAD02850020DF3501B24D96EF4500C
:102DC8001C20DA6E010EDB5004E17D0EDE5CD8A01B
:102DD80024D02850020DF3501B24D96EF4501C2027
:102DE800DA6E590EDE5C020EDE58D8B016D02650C8
:102DF800D8A402D0010E40D0000E266ED8902236FC
:102E08002336243625361F50D8A49BD0010E2226FF
:102E1800000E23222422252294D02850020DF3509C
:102E28001B24D96EF4501C20DA6EBC0EDE5C020E38
:102E3800DE58D8A026D02850020DF3501B24D96E96
:102E4800F4501C20DA6EB70EDE5C030EDE58D8B0E4
:102E580018D02650D8B412D0D8902236233624362B
:102E680025361F50D8B407D0010E2226000E232283
:102E78002422252200D0000E266E63D0000E1200F8
:102E880060D02850020DF3501B24D96EF4501C203A
:102E9800DA6EDE50DE10D8A412D02604D8A40FD0E3
:102EA8001DC0D9FF1EC0DAFF22C0DEFF23C0DEFF2F
:102EB80024C0DEFF25C0DEFF1FD0120042D02850FC
:102EC800020DF3501B24D96EF4501C20DA6E380E14
:102ED800DE5C4A0EDE58D8A012D02850020DF350FE
:102EE8001B24D96EF4501C20DA6E090EDE5C520EDB
:102EF800DE58D8B004D0D4D7010E120022D0285002
:102F0800020DF3501B24D96EF4501C20DA6EC80E43
:102F1800DE5CAF0EDE58D8A011D02850020DF35059
:102F28001B24D96EF4501C20DA6E510EDE5CC30EE1
:102F3800DE58D8B003D0020E120003D0000E1200E3
:102F480000D0282A272A32D7000E120012000001CA
:102F58007F6F21D15E0E00017A6FFB0E00017B6F3F
:102F6800010E00017C6F0C0E00017D6F080E000140
:102F78007E6F74EC2CF012006A0E00017A6FFB0E63
:102F880000017B6F010E00017C6F0C0E00017D6F4C
:102F9800080E00017E6F74EC2CF01200760E000112
:102FA8007A6FFB0E00017B6F010E00017C6F0C0E27
:102FB80000017D6F080E00017E6F74EC2CF012008A
:102FC8000001D8510001D8B415D0910E00017A6FD4
:102FD800FA0E00017B6F020E00017C6F100E0001DB
:102FE8007D6F080E00017E6F74EC2CF0000E00015E
:102FF800D86F1200A10E00017A6FFA0E00017B6FE4
:10300800020E00017C6F100E00017D6F080E00019A
:103018007E6F74EC2CF0010E0001D86F12000001D5
:10302800D9510001D8B415D0B10E00017A6FFA0E4B
:1030380000017B6F020E00017C6F100E00017D6F96
:10304800080E00017E6F74EC2CF0000E0001D96FA1
:103058001200C10E00017A6FFA0E00017B6F020E9A
:1030680000017C6F100E00017D6F080E00017E6F5D
:1030780074EC2CF0010E0001D96F12000001DA5136
:103088000001D8B415D0E10E00017A6FFA0E0001E4
:103098007B6F020E00017C6F100E00017D6F080E21
:1030A80000017E6F74EC2CF0000E0001DA6F120044
:1030B800D10E00017A6FFA0E00017B6F020E00013B
:1030C8007C6F100E00017D6F080E00017E6F74EC9E
:1030D8002CF0010E0001DA6F12000001DB51000133
:1030E800D8B415D0010E00017A6FFB0E00017B6F7A
:1030F800020E00017C6F100E00017D6F080E0001AA
:103108007E6F74EC2CF0000E0001DB6F1200F10EE4
:1031180000017A6FFA0E00017B6F020E00017C6FCE
:10312800100E00017D6F080E00017E6F74EC2CF00C
:10313800010E0001DB6F12000001DC510001D8B460
:1031480015D0210E00017A6FFB0E00017B6F020E75
:1031580000017C6F100E00017D6F080E00017E6F6C
:1031680074EC2CF0000E0001DC6F1200110E00014F
:103178007A6FFB0E00017B6F020E00017C6F100E50
:1031880000017D6F080E00017E6F74EC2CF0010EBB
:103198000001DC6F120000017F51000AD8B4DAD6B2
:1031A800010AD8B4E9D6030AD8B4F8D6010AD8B4C3
:1031B80007D7070AD8B433D7010AD8B45FD7030AA8
:1031C800D8B48BD7010AD8B4B7D70F0AD8B412002D
:1031D800010AD8B41200030AD8B41200010AD8B4FC
:1031E8001200070AD8B41200010AD8B41200030A60
:1031F800120012007CC080F00001816B826B00011C
:103208007B350001803701E3818100018051000195
:10321800856F7FC080F00001816B826B00017E3575
:103228000001803701E38181000180510001846F32
:10323800000185510001D8B411D00001845100016A
:10324800855DD8B012D000018551000800018425A1
:103258000001806F180E0001806507D07DC07AF0EC
:103268007EC07BF07FC07CF0120000018451000119
:10327800D8B411D0000185510001845DD8B012D0B6
:10328800000184510008000185250001806F180E97
:103298000001806507D07AC07AF07BC07BF07CC0E3
:1032A8007CF01200060E0001836F00017CAF03D092
:1032B8000001838F00D000017FAF02D00001838D11
:1032C80000017B8FFF0E00017A17FF0E00017B17AC
:1032D800000E00017C1700017E8FFF0E00017D1794
:1032E800FF0E00017E17000E00017F1700018451B8
:1032F8000001855DD8B028D00001D8907D377E3791
:103308007F37000184070001855100018419D8B472
:1033180013D00001830783C080F0070E00018017D7
:10332800D8B40AD0E9D708D00001D8907C337B33D1
:103338007A330001852B00D00001845100018519E2
:10334800D8B430D0F1D72ED0000185510001845D6A
:10335800D8B028D00001D8907A377B377C37000165
:1033680085070001855100018419D8B413D00001E4
:10337800830783C080F0070E00018017D8B40AD0F5
:10338800E9D708D00001D8907F337E337D33000120
:10339800842B00D00001845100018519D8B402D0D3
:1033A800F1D700D0000183AF12D0FF0E00017A1BC5
:1033B800FF0E00017B1BFF0E00017C1B010E0001AC
:1033C8007A27000E00017B23000E00017C230001F8
:1033D80083AD13D0FF0E00017D1BFF0E00017E1B85
:1033E800FF0E00017F1B010E00017D27000E00016A
:1033F8007E23000E00017F2300D0000E0001836FA2
:1034080000017A5100017D2700017B5100017E23D4
:1034180000017C5100017F2300017FAF16D0FF0E11
:1034280000017D1BFF0E00017E1BFF0E00017F1BAC
:10343800010E00017D27000E00017E23000E000111
:103448007F23010E0001836F00D07DC072F07EC023
:1034580073F07FC074F085C075F083C076F0F4EC2B
:103468001FF072C07AF073C07BF074C07CF0120059
:103478001200ABC0D9FFACC0DAFF020EDE18D8A428
:103488001ED00001AD51010168190FE10001AE51D4
:10349800010169190AE10001AF5101016A1905E149
:1034A8000001B05101016B19D8A4B1D08B824AEC4C
:1034B8002BF0ABEC17F08B84D6EC2DF0A8D097EC62
:1034C8002DF00009D8B46CD0ADC068F1AEC069F178
:1034D800AFC06AF1B0C06BF198EC2BF00009D8B41A
:1034E80024D0000E0001B26F090E0001B26501D0B0
:1034F80040D08B84500E0001726FC30E736F000EA4
:10350800746F000E756F1FEC2BF08B94500E00013A
:10351800726FC30E736F000E746F000E756F1FEC21
:103528002BF00001B22BE0D724D0000E0001B26FBF
:10353800090E0001B26501D01CD08B82500E00012B
:10354800726FC30E736F000E746F000E756F1FECF1
:103558002BF08B92500E0001726FC30E736F000E2A
:10356800746F000E756F1FEC2BF00001B22BE0D7C3
:1035780000D0ADC076F0AEC077F0AFC078F0B0C084
:1035880079F0E70E00017A6F000E00017B6FE80EFC
:1035980000017C6F000E00017D6F76EC25F037D0BE
:1035A8000001AD51010168192EE10001AE51010180
:1035B800691929E10001AF5101016A1924E10001EB
:1035C800B05101016B19D8A41ED08B844AEC2BF0A2
:1035D800ABEC17F0ADC076F0AEC077F0AFC078F0C6
:1035E800B0C079F0E70E00017A6F000E00017B6F22
:1035F800E80E00017C6F000E00017D6F76EC25F06F
:10360800D6EC2DF004D08B82D6EC2DF000D0ABC0D8
:10361800D9FFACC0DAFF000EDF6EB3EC2DF0326ECE
:10362800F2907D88F2861200000E0101656F000E8F
:103638000101666FC80E0101646F000E0001726F10
:10364800010E0001736F000E0001756F640E746F38
:103658006EEC2AF032D001016551010DF3500001E2
:103668008125D96EF45000018221DA6E2F0EDF64B5
:103678000FD001016551010DF35000018125D96E6C
:10368800F45000018221DA6E390EDF6410D000D0C8
:1036980001016551010DF35000018125D96EF450E7
:1036A80000018221DA6E2D0EDE18D8A403D065C180
:1036B80064F111D00101652B00D001016551010DA4
:1036C800F35000018125D96EF45000018221DA6E91
:1036D800DF50D8A4C0D7630E0101646502D0000E84
:1036E8001200000E0101666F19D001016651010D2B
:1036F800F35000018125D96EF45000018221DA6E61
:1037080001016651010D000EF324E16E010EF42053
:10371800E26EDFCFE7FF0101662B00D001016451A3
:103728000101665DD8A0E1D701016451010D000EC9
:10373800F324D96E010EF420DA6E3D0EDF6E64C1FB
:1037480066F1620E0101666501D032D00101665151
:10375800010DF35000018125D96EF450000182213A
:10376800DA6E010166510001836F846B010E00015E
:103778008327000E8423000E00018325E16E010ECD
:1037880000018421E26EDFCFE7FF01016651010DE0
:10379800F35000018125D96EF45000018221DA6EC0
:1037A800DF50D8B405D001D003D00101662BC9D7AA
:1037B800000E00017A6F010E00017B6F81C07CF062
:1037C80082C07DF0640E00017E6F000E00017F6FE5
:1037D800AEEC27F0010E120012000001956F000EEA
:1037E80000018D6F000E8E6F000E8F6F000E906FB0
:1037F80095C072F00001736B1CEC2CF00001725143
:103808000001916F010E000195250001726F000102
:10381800736B000E73231CEC2CF000017251000135
:10382800926F020E000195250001726F0001736B03
:10383800000E73231CEC2CF0000172510001936FF1
:10384800030E000195250001726F0001736B000ED5
:1038580073231CEC2CF0000172510001946F93C08B
:1038680079F000017A6B7B6B7C6B7BC07CF07AC053
:103878007BF079C07AF00001796B92C07DF000018D
:103888007E6B7F6B806B7EC080F07DC07FF0000117
:103898007E6B7D6B91C081F00001826B836B846BC2
:1038A80081C084F00001836B826B816B00017D51C4
:1038B800000181250001856F00017E5100018221F0
:1038C8000001866F00017F51000183210001876F8D
:1038D80000018051000184210001886F00017951A5
:1038E800000185250001896F00017A5100018621B8
:1038F80000018A6F00017B510001872100018B6F55
:1039080000017C510001882100018C6F0001945155
:103918000001892500018D6F000E00018A21000138
:103928008E6F000E00018B2100018F6F000E0001C9
:103938008C210001906F8DC075F08EC076F08FC01D
:1039480077F090C078F0120012008EC092F000015B
:10395800936B946B00018D350001923701E39381DD
:10396800000192510001956F00019551D8A40AD029
:10397800000E00018C6F000E00018D6F000E00011B
:103988008E6F120091C092F00001936B946B00014E
:1039980090350001923701E39381000192510001B3
:1039A8009A6F00019A51D8A40AD0000E00018C6FBA
:1039B800000E00018D6F000E00018E6F12000001D5
:1039C8009A517B0F000195278EC09AF00001915102
:1039D80000019A1B800E00019A1700018D8F0001CB
:1039E800908FFF0E00018F17FF0E00019017000E39
:1039F80000019117000E0001966F000E0001976FED
:103A0800000E0001986F070E0001996F00D00001A9
:103A18008CA10DD000018F51000196270001905113
:103A280000019723000191510001982300D0000163
:103A3800D8908E338D338C330001D8908F379037E0
:103A480091370001992FE3D700D0090E0001996F33
:103A580000D000018CA10DD000018F5100019627E4
:103A68000001905100019723000191510001982312
:103A780000D00001D8908E338D338C330001D8905C
:103A88009833973396330001992FE3D700D096C027
:103A980072F097C073F098C074F095C075F09AC032
:103AA80076F0F4EC1FF072C08CF073C08DF074C027
:103AB8008EF0120012007FC083F00001846B856BCA
:103AC80000017E350001833701E3848100018351C1
:103AD80000018A6F00018A51D8A40AD0000E0001A3
:103AE8007D6F000E00017E6F000E00017F6F1200D7
:103AF80082C083F00001846B856B00018135000171
:103B0800833701E384810001835100018B6F000139
:103B18008B51D8A40AD0000E00017D6F000E000161
:103B28007E6F000E00017F6F1200000E0001876F8C
:103B3800000E0001886F000E0001896F00018B5193
:103B4800890F00018A5F7FC08BF00001825100015C
:103B58008B1B800E00018B1700017E8FFF0E00016A
:103B68007D17FF0E00017E17000E00017F17000170
:103B7800818FFF0E00018017FF0E00018117000ED4
:103B880000018217180E0001866F00D00001D8903E
:103B98008737883789370001805100017D5D000132
:103BA800815100017E590001825100017F59D8A03E
:103BB8000ED00001805100017D5F0001815100019C
:103BC8007E5B0001825100017F5B0001878100015B
:103BD800D8907D377E377F370001862FD7D700D022
:103BE80087C072F088C073F089C074F08AC075F01D
:103BF8008BC076F0F4EC1FF072C07DF073C07EF0DD
:103C080074C07FF01200120088C08AF000018B6B2C
:103C18008C6B0001873500018A3701E38B81000135
:103C28008A510001946F00019451D8A40AD0000E63
:103C38000001866F000E876F000E886F000E896F77
:103C48001200170E00018A6F86C08BF087C08CF0B7
:103C580088C08DF000018A2900018E6F05D000010F
:103C6800D8908D338C338B3300018E2FF8D7000119
:103C78008B5100018F6F0001878FFF0E000186179F
:103C8800FF0E00018717000E0001881700018651FA
:103C98000001906F000187510001916F0001885168
:103CA8000001926F0001936B8E0E0001945F00017A
:103CB80094AF1BD000019451800A8F0FD8B00BD05D
:103CC800000E0001866F000E876F000E886F000ED1
:103CD800896F120000D00001D8909333923391334A
:103CE80090330001943FF7D71FD0170E0001946559
:103CF80014D0000E0001866F000E876F000E886FCB
:103D0800000E896F120009D00001D89090379137C2
:103D1800923793370001940700D0000194510001B5
:103D2800D8B402D0F1D700D000018F510001D8B427
:103D38000AD00001931F921F911F906D000E9123CE
:103D48009223932300D090C086F091C087F092C050
:103D580088F093C089F01200120000019E6F0001E4
:103D68009E51C2EC24F000017A6F00017A510001E3
:103D78008E6F8F6B906B916B00019E51FF0AC2ECA6
:103D880024F000017A6F00017A510001926F936B61
:103D9800946B956B00017651C2EC24F000017A6FA8
:103DA80000017A510001966F976B986B996B00012F
:103DB8007651FF0AC2EC24F000017A6F00017A51B3
:103DC80000019A6F9B6B9C6B9D6B96C07BF097C0B4
:103DD8007CF098C07DF000017A6B92C07EF093C0B1
:103DE8007FF094C080F095C081F07FC081F07EC0E4
:103DF80080F000017F6B7E6B8EC082F08FC083F0F5
:103E080090C084F091C085F082C085F00001846B79
:103E1800836B826B00017E51000182250001866F51
:103E280000017F51000183210001876F000180514B
:103E3800000184210001886F000181510001852162
:103E48000001896F00017A510001862500018A6FFF
:103E580000017B510001872100018B6F00017C511B
:103E68000001882100018C6F00017D51000189212A
:103E780000018D6F00019A5100018A250001766FBB
:103E880000019B5100018B210001776F00019C51BB
:103E980000018C210001786F00019D5100018D21E6
:103EA8000001796F12001200000E0001D46FFFECC0
:103EB8002DF0BBEC2BF06FEC29F0000E0001D46F55
:103EC800090E0001D46501D01DD08B828B94500E51
:103ED8000001726FC30E736F000E746F000E756F62
:103EE8001FEC2BF08B928B84500E0001726FC30E67
:103EF800736F000E746F000E756F1FEC2BF00001CE
:103F0800D42BDED78B9466EC24F09BC0D5F09CC0F4
:103F1800D6F09DC0D7F0D5C072F0D6C073F0D7C028
:103F280074F0CD0E0001756F6C0E0001766F400EB7
:103F38000001776F73EC22F00001D8A014D0000EB6
:103F48000001726FF00E0001736F410E0001746F73
:103F5800D5C075F0D6C076F0D7C077F073EC22F0F4
:103F68000001D8B002D000F000D00001E651D8B46A
:103F780011D0E60E0001AB6F000E0001AC6FE2C07D
:103F8800ADF0E3C0AEF0E4C0AFF0E5C0B0F03DEC9A
:103F98001AF000D00001E051D8B4E7D735EC07F0AB
:103FA800000E0001726F020E0001736FE1C074F021
:103FB8000001756B6EEC2AF0000E0001E16F820EB5
:103FC8000001736FFB0E0001746F9BEC2AF03E0E2C
:103FD80026EC2DF0000E0001E06FC7D7F4EF00F0DB
:103FE800000175510001D8B408D0000172510001D8
:103FF800731100017411D8A413D0000E0001726F60
:10400800000E0001736F000E0001746F120008D0DB
:104018000001752B0001D89074337333723300D0CC
:10402800000E000172150001776F000E0001731574
:104038000001786FFE0E000174150001796F000110
:1040480077510001781100017911D8B413D0E0D765
:1040580011D00001752B010E00017227000E00011E
:104068007323000E000174230001D8907433733356
:10407800723300D0000E000172150001776F000E38
:10408800000173150001786FFF0E0001741500011F
:10409800796F000177510001781100017911D8B4C6
:1040A8000AD0D7D708D0000175070001D890723719
:1040B8007337743700D0000173BF05D0020E0001BA
:1040C8007561F1D700D0000175B103D00001739F6D
:1040D80000D00001D89075330001755100017413A8
:1040E800000176510001D8B403D00001748F00D0CC
:1040F80072C072F073C073F074C074F012001200D2
:10410800000E0001A96F9EEC2DF00001A9870001A7
:10411800A9890001A993000E0001726F900E736FB8
:10412800D00E746F030E756F9CC076F09DC077F04B
:104138009EC078F09FC079F0A2EC23F0FF0E00013A
:1041480072250001AA6FFF0E000173210001AB6FF9
:10415800FF0E000174210001AC6FFF0E00017521F4
:104168000001AD6FAAC0A0F0ABC0A1F0ACC0A2F036
:10417800ADC0A3F0030E06D00001D890A333A2333C
:10418800A133A033E82EF8D7FF0E0001A0250001C7
:10419800AA6FFF0E0001A1210001AB6FFF0E000105
:1041A800A2210001AC6FFF0E0001A3210001AD6F39
:1041B800AAC07AF0ABC07BF0ACC07CF0ADC07DF09B
:1041C8007BEC28F07AC095F07BC096F07CC097F025
:1041D800DAEC29F095C0A4F096C0A5F097C0A6F037
:1041E800A4C086F0A5C087F0A6C088F008EC1EF031
:1041F80086C0A7F087C0A8F0B886A7C072F0A8C08C
:1042080073F00001A951BBEC28F09E9A9D8AF28CAC
:104218001200000E0001961500019B6F000E0001B0
:10422800971500019C6F000E0001981500019D6F05
:10423800FF0E0001991500019E6F190E06D00001AE
:10424800D8909E339D339C339B33E82EF8D70001DA
:104258009B510001A36F98C0A4F097C0A5F096C029
:10426800A6F09AC072F00001736BA3C074F0DDEC85
:104278002BF0010E00019A250001726F0001736B8B
:10428800000E7323A4C074F0DDEC2BF0020E0001C5
:104298009A250001726F0001736B000E7323A5C08D
:1042A80074F0DDEC2BF0030E00019A250001726F0B
:1042B8000001736B000E7323A6C074F0DDEC2BF0C5
:1042C80000019A51F1EC1BF075C09FF076C0A0F088
:1042D80077C0A1F078C0A2F00001965100019F19A3
:1042E80012E1000197510001A0190DE10001985158
:1042F8000001A11908E1000199510001A219D8A4EF
:1043080002D0010E1200000E12001200000E000171
:104318007F6F0ED075C0F6FF76C0F7FF0800F55026
:1043280026EC2DF00001754B762B00017F2B00D079
:1043380075C0F6FF76C0F7FF0800F5500009D8B43D
:1043480005D01D0E00017F65E5D700D0000E0001E5
:104358007E6F06D02D0E26EC2DF000017E2B00D0AE
:1043680000017F510001796F7A6B0001791F7A1F74
:10437800794B7A2B1F0E00017927000E7A23000152
:104388007E5100017B6F7C6B0001795100017B5DE0
:1043980000017C51800A00017D6F00017A51800A7A
:1043A80000017D59D8A0D6D7000E00017F6F0ED02E
:1043B80077C0F6FF78C0F7FF0800F55026EC2DF01F
:1043C8000001774B782B00017F2B00D077C0F6FFD8
:1043D80078C0F7FF0800F5500009D8B405D0310EB1
:1043E80000017F65E5D700D0FB0E0001736FFF0E5B
:1043F8000001746F9BEC2AF012000001ED05D8A4AF
:104408001200370E406E020E0001746502D01200D1
:10441800120074C036F000017405D8A402D0020E50
:1044280006D0020E00017419D8A41200040E416EC1
:1044380002D0120000D0000E0001ED6F76C03AF0F5
:10444800010E396E000E376E010E386E130E000124
:10445800756502D012001200000E0001796F20D09D
:1044680000017951010D72C077F073C078F0F350F4
:1044780000017727F4500001782377C0F6FF78C051
:10448800F7FF00017951010D940EF324D96E010E46
:10449800F420DA6E0800F5CFDFFF0001792B00D099
:1044A800000175510001795DD8A0DAD70001795172
:1044B800010D940EF324D96E010EF420DA6E630E0A
:1044C800DF6E000ECC6E00017405D8A402D0FA0E7F
:1044D80001D0BB0ECB6E00D0CA84120012000001BE
:1044E80074AF1ED072C078F073C079F074C07AF0DF
:1044F8000001781F791F7A1F782B000E79237A2301
:10450800000E000178250001726F000E000179216C
:104518000001736F800E00017A210001746F00D0D2
:10452800000177AF1ED075C078F076C079F077C0FB
:104538007AF00001781F791F7A1F782B000E7923F3
:104548007A23000E000178250001756F000E000126
:1045580079210001766F800E00017A210001776FC2
:1045680000D0000E0001721B000E0001731B800EAC
:104578000001741B000E0001751B000E0001761B64
:10458800800E0001771B000175510001725D00016A
:104598007651000173590001775100017459D8B060
:1045A80002D0D8901200D880120012003AEC2CF0F9
:1045B80021EE2DF02C0EEBCFDBFFE806FCE22DC13F
:1045C80067F12EC168F12FC169F130C16AF131C1BB
:1045D8006BF132C16CF133C16DF134C16EF135C18B
:1045E8006FF136C170F137C171F138C172F139C15B
:1045F80073F13AC174F13BC175F13CC176F13DC12B
:1046080077F13EC178F13FC179F140C17AF141C1FA
:104618007BF142C17CF143C17DF144C17EF145C1CA
:104628007FF146C180F147C181F148C182F149C19A
:1046380083F14AC184F14BC185F14CC186F14DC16A
:1046480087F14EC188F14FC189F150C18AF151C13A
:104658008BF152C18CF153C18DF154C18EF155C10A
:104668008FF156C190F157C191F158C192F159C1DA
:1046780093F11200000E00017B6F0BD0A9EC2CF017
:1046880000017B2B040E00017B6503D0000E120095
:1046980000D0BAEC2DF00009D8A4F0D7500E0001D4
:1046A800726FC30E736F000E746F000E756F1FEC80
:1046B8002BF0E30E0001736FFF0E0001746F9BEC8B
:1046C8002AF0500E0001726FC30E736F000E746FE4
:1046D800000E756F1FEC2BF0000E0001726F030EB9
:1046E8000001736FEF0E0001746FFF0E0001756F0C
:1046F8001DEC25F00009D8B410D0000E0001726F2F
:10470800030E0001736F30C074F00001756B6EEC1E
:104718002AF0000E306E010E1200000E0001726FBA
:10472800030E0001736F30C074F00001756B6EECFE
:104738002AF0000E306E000E12001200000E00016A
:104748007A6F000E7B6F000E7C6F000E7D6F00018C
:104758007651000177110001781100017911D8B460
:1047680047D0010E00017E6F09D00001D89076373E
:1047780077377837793700017E2B00D0000179BF71
:1047880002D0F3D700D00001D8907A377B377C3736
:104798007D37000176510001725D000177510001FB
:1047A80073590001785100017459000179510001D1
:1047B8007559D8A013D0000176510001725F00012D
:1047C80077510001735B000178510001745B0001AF
:1047D80079510001755B00017A8100D00001D89001
:1047E800793378337733763300017E2FCCD700D0F6
:1047F8007AC072F07BC073F07CC074F07DC075F035
:10480800120004EE00F0900EEE6AE806FDE103EEF9
:1048180000F010EEFFF0EE6AE550E150FCE1E250E6
:10482800FAE102EE00F010EEFFF0EE6AE550E1501A
:10483800FCE1E250FAE101EE67F0410EEE6AE806AB
:10484800FDE100EED5F0140EEE6AE806FDE100EE9B
:104858002CF0120EEE6AE806FDE1200EF66E590EF7
:10486800F76E000EF86E01EEA8F010EE32F00900B7
:10487800F5CFEEFFE550E150FAE1F50EF66E5B0E6E
:10488800F76E000EF86E00EEE9F010EE05F0090084
:10489800F5CFEEFFE550E150FAE1F00EF66E5B0E53
:1048A800F76E000EF86E00EE3EF010EE05F009000F
:1048B800F5CFEEFFE550E150FAE1000EF86E000189
:1048C80058EF1FF0F5EC2DF0050E0001726F000E89
:1048D800736F000E746F000E756F1FEC2BF0A10E36
:1048E80000017B6F000E00017C6F000E75EC26F056
:1048F8000009D8B42FD0000E0001806F800E00018F
:10490800816F440E0001826FA1C07AF0A2C07BF0D3
:10491800D8EC2CF07AC07DF07BC07EF07CC07FF0B4
:104928005FEC1DF07DC08CF07EC08DF07FC08EF0F6
:10493800330E00018F6F110E0001906F420E0001BF
:10494800916FA9EC1CF08CC09EF08DC09FF08EC0BA
:10495800A0F00AD0000E00019E6F000E00019F6FAC
:10496800000E0001A06F00D0FDEC2DF09EC09BF062
:104978009FC09CF0A0C09DF0120012000001756F4E
:10498800000E0001746F75C072F0010E00017217FD
:10499800000E72B1800E726F00017251000174270F
:1049A80075C072F0020E00017217050E0001736FD8
:1049B8000001D89072370001732FFAD700017251A5
:1049C8000001742775C072F0040E0001721700010F
:1049D800D89072370001D89072370001D89072359C
:1049E8000001742775C072F0080E000172170001EB
:1049F800D8907235000174270001D8907531080BE2
:104A08000001742700017539E8461F0B040B0001EB
:104A1800742700017539E842070B020B000174275F
:104A280000017545010B0001742700017451120043
:104A38001200000E0001776F4BD072C0D9FF73C00F
:104A4800DAFFDF500001766F74C0F6FF75C0F7FF1C
:104A5800000EF86E0F0EF76403D00800F55005D06D
:104A6800F6CFE9FFF7CFEAFFEF5000017619D8A497
:104A780026D0010E0001776F0001744B752B74C0AE
:104A8800F6FF75C0F7FF000EF86E0F0EF76403D03F
:104A98000800F55005D0F6CFE9FFF7CFEAFFEF5051
:104AA8000009D8A402D0010E120072C0D9FF73C049
:104AB800DAFFDF50D8A408D0000E120005D000019C
:104AC8007705F8D7120000D00001724B732B00D085
:104AD80072C0D9FF73C0DAFFDF50D8A4AED7000E7A
:104AE8001200120000017651C2EC24F0FF0A000106
:104AF800846F00017751C2EC24F00001826F00013D
:104B0800825100018419D8B402D0000E12000001AD
:104B18007851C2EC24F0FF0A0001846F000E0001F6
:104B2800761500017E6F000E0001771500017F6F7A
:104B3800000E000178150001806FFF0E0001791545
:104B48000001816F190E06D00001D890813380339F
:104B58007F337E33E82EF8D700017E51C2EC24F073
:104B68000001836F0001835100018419D8B402D079
:104B7800000E12007CC0D9FF7DC0DAFF82C0DFFFC3
:104B88007AC0D9FF7BC0DAFF83C0DFFF010E1200B5
:104B98001200000E0001796F48D075C0D9FF76C0A9
:104BA800DAFFDF5000017A6F77C0F6FF78C0F7FFB1
:104BB8000800F5CF7BF07A0E0001726F000E00013D
:104BC800736FC2EC2CF07B0E0001726F000E0001B7
:104BD800736FC2EC2CF000017B5100017A19D8A444
:104BE8001BD0010E0001796F0001774B782B77C03D
:104BF800F6FF78C0F7FF0800F5500009D8A402D0E6
:104C0800010E120075C0D9FF76C0DAFFDF50D8A4B4
:104C180008D0000E120005D000017905F8D712005F
:104C280000D00001754B762B00D075C0D9FF76C037
:104C3800DAFFDF50D8A4B1D7000E1200120000012D
:104C48008351000184110001851100018611D8B437
:104C58003FD0010E0001876F09D00001D89083373B
:104C68008437853786370001872B00D0000186BF3F
:104C780002D0F3D700D00001835100017F5D00010D
:104C880084510001805900018551000181590001BA
:104C9800865100018259D8A011D00001835100012A
:104CA8007F5F000184510001805B00018551000194
:104CB800815B000186510001825B00D00001D89021
:104CC80086338533843383330001872FD4D700D0CC
:104CD8007FC07FF080C080F081C081F082C082F008
:104CE80012000001806F010E00017F6F0C0E0001A1
:104CF80080650AD07BC0D9FF7CC0DAFF000EDE6E6B
:104D0800000EDD6E000E1200010E0001806501D05C
:104D180009D0000180510001D8A404D0000E000180
:104D28007F6F00D000017F45E846FC0BC212C19896
:104D3800C19AC280320E0001726F000E736F000EAE
:104D4800746F000E756F1FEC2BF0C28200D0C2B2D8
:104D5800FED7C290C350C4CF7DF000017E6B7DC0EA
:104D68007EF000017D6B00017D27000E7E237BC055
:104D7800D9FF7CC0DAFF7DC0DEFF7EC0DDFF010EFB
:104D880012001200000E0001836F8E0E0001826F68
:104D980000017DAF16D000017D1F7C1F7B1F7A6D3F
:104DA800000E7B237C237D23010E0001836F09D035
:104DB8000001D8907D337C337B337A330001822B1A
:104DC80000D0000E00017A1500017E6F000E000170
:104DD8007B1500017F6F000E00017C150001806FBC
:104DE800FF0E00017D150001816F00017E51000159
:104DF8007F110001801100018111D8A4D9D77AC090
:104E080072F07BC073F07CC074F082C075F083C010
:104E180076F0F4EC1FF072C07AF073C07BF074C0C7
:104E28007CF012001200000E00018C6F00D086EC9E
:104E38002DF00009D8A4FBD77D98F296F29C87C084
:104E480082F088C083F089C084F08AC085F08BC066
:104E580086F0F3EC27F01CD00001DE51D8B413D053
:104E6800090E00018C6102D08B860AD0110E000158
:104E78008C6102D08B9604D0000E00018C6F00D09C
:104E880000018C2B05D08B96000E00018C6F00D092
:104E98000001ED51D8B4E0D73E50D8A400F0F28C10
:104EA800400E0001726F1F0E736F000E746F000EBC
:104EB800756F1FEC2BF0B3EC2DF0326EF2907D88FD
:104EC800F286120032D075C0D9FF76C0DAFFDF5003
:104ED8000001796F77C0F6FF78C0F7FF0800F5CFBB
:104EE8007AF0790E0001726F000E0001736FC2EC48
:104EF8002CF07A0E0001726F000E0001736FC2EC85
:104F08002CF000017A5100017919D8A405D00001CC
:104F18007A510001D8A402D0000E12000001754B8E
:104F2800762B0001774B782B00D075C0D9FF76C05F
:104F3800DAFFDF50D8A4C7D777C0F6FF78C0F7FFED
:104F48000800F5500009D8A402D0010E1200000E86
:104F580012001200000E0001806F7CC072F07DC04C
:104F680073F07EC074F00001756B6EEC2AF07FC0A0
:104F780080F0000180510001D8B422D001D020D0A7
:104F88007CC0D9FF7DC0DAFF200EDF6E00017C4BAC
:104F98007D2B00018007EDD713D07AC0D9FF7BC0E5
:104FA800DAFF7CC0E1FF7DC0E2FFDFCFE7FF000151
:104FB8007A4B7B2B00017C4B7D2B00017E0700D0B8
:104FC8007AC0D9FF7BC0DAFFDF50D8B412000001E5
:104FD8007E510001D8B41200E0D71200120000017F
:104FE800ED05D8A4120000018251000183110001CF
:104FF800841100018511D8B4120001D01200420EAC
:10500800406E000E0001ED6F010E0001DF6F000E13
:105018000001DD6F070E3F6E82C072F083C073F02F
:1050280084C074F085C075F0F6EC00F072C02CF006
:1050380073C02DF074C02EF075C02FF0000186519A
:105048000001D8B403D0010E356E00D086C034F00C
:10505800000ECC6E940ECB6E040E416E010E000154
:10506800DE6FCA8412001200000E0001A76F000E46
:10507800A86F000EA96F000EAA6F01012DA112D012
:10508800000E00017B6F0101005157EC2CF0000964
:10509800D8A408D0010E0001A727000EA823A92331
:1050A800AA2300D001012DA318D001C196F002C196
:1050B80097F003C198F004C199F0010E00019A6FAE
:1050C8000DEC21F00009D8A408D0020E0001A72792
:1050D800000EA823A923AA2300D0A7C000F1A8C0C6
:1050E80001F1A9C002F1AAC003F1120012008E0E4C
:1050F8000001826F09D00001D8907D337C337B3367
:105108007A330001822B00D0000E00017A150001CD
:105118007E6F000E00017B1500017F6F000E0001FD
:105128007C150001806FFF0E00017D150001816F65
:1051380000017E5100017F110001801100018111E1
:10514800D8A4D9D77AC072F07BC073F07CC074F051
:1051580082C075F0000E0001766FF4EC1FF072C08B
:105168007AF073C07BF074C07CF01200120000016A
:10517800746F000EAC6E000EAB6E000174A102D00D
:10518800AC8800D0000174A303D0AC8CAB8C00D0E9
:10519800000174A502D0AC8E00D0000174A702D023
:1051A800AB8802D0AB8A00D0000174A902D0AC84CD
:1051B80000D0000174AB02D0AB8600D0000174AD02
:1051C80003D09E9A9D8A02D09D9A00D0000174AFA8
:1051D80003D09E989D8801D09D9872C0AFFF0001B2
:1051E8007351B06EAC8AAB8E1200000E00017A6F5C
:1051F800000E7B6F000E7C6F000E7D6F00D00001EB
:1052080072A111D00001765100017A27000177516F
:1052180000017B230001785100017C2300017951B2
:1052280000017D2300D00001D89076377737783792
:1052380079370001D89075337433733372330001B2
:105248007251000173110001741100017511D8A485
:10525800D6D77AC072F07BC073F07CC074F07DC082
:1052680075F0120023D072C0D9FF73C0DAFFDF5087
:105278000001766F74C0F6FF75C0F7FF0800F5509F
:1052880000017619D8A409D074C0F6FF75C0F7FFDD
:105298000800F5500009D8A402D0000E1200000141
:1052A800724B732B0001744B752B00D072C0D9FF61
:1052B80073C0DAFFDF50D8A4D6D774C0F6FF75C024
:1052C800F7FF0800F5500009D8A402D0010E12001B
:1052D800000E12001200000E0001726F020E000193
:1052E800736F000E0001756F74696EEC2AF09F9A57
:1052F800F180F1849F829F90A282D08EF28CF28EF0
:10530800DAEC22F066EC2DF074EC2BF0000E0001C4
:105318009C6FC20E9D6F010E9E6F000E9F6F84ECF6
:1053280020F0820E0001736FFB0E0001746F9BEC7E
:105338002AF03E0E26EC2DF0F4EC2AF07CEC2DF051
:10534800120017D075C0F6FF76C0F7FF000EF86E92
:105358000F0EF76403D00800F55005D0F6CFE9FF2B
:10536800F7CFEAFFEF5026EC2DF00001754B762BB6
:1053780000D075C0F6FF76C0F7FF000EF86E0F0E6E
:10538800F76403D00800F55005D0F6CFE9FFF7CF52
:10539800EAFFEF500009D8A4D5D7FB0E0001736FC0
:1053A800FF0E0001746F9BEC2AF01200000E000142
:1053B8007D6F000E00017E6F3F0E00017F6F95C06C
:1053C8007AF096C07BF097C07CF0FEEC18F07AC0BB
:1053D80086F07BC087F07CC088F008EC1EF086C0A1
:1053E80098F087C099F088C09AF089C09BF098C05F
:1053F8007AF099C07BF09AC07CF09BC07DF0C6EC37
:1054080026F07AC095F07BC096F07CC097F0120029
:10541800120016D004C0F6FF05C0F7FF000EF86EA4
:105428000F0EF76403D00800F55005D0F6CFE9FF5A
:10543800F7CFEAFFEF504FEC2DF0044A052A00D0D1
:1054480004C0F6FF05C0F7FF000EF86E0F0EF764F4
:1054580003D00800F55005D0F6CFE9FFF7CFEAFFF3
:10546800EF500009D8A4D6D7FB0E026EFF0E036ECC
:10547800C8EC2AF01200000E0001796F000E00013E
:10548800796F12D000017951020DF3500001722595
:10549800D96EF45000017321DA6E000EDE6E000E34
:1054A800DD6E0001792B00D0000179510001766F83
:1054B800776B000174510001765D00017751800A15
:1054C8000001786F00017551800A00017859D8A051
:1054D800D9D71200000E0001796F000E0001796F14
:1054E80010D000017951010DF35000017225D96ED9
:1054F800F45000017321DA6E000EDF6E0001792B83
:1055080000D0000179510001766F776B000174516A
:105518000001765D00017751800A0001786F000173
:105528007551800A00017859D8A0DBD7120017D02E
:1055380073C0F6FF74C0F7FF000EF86E0F0EF76425
:1055480003D00800F55005D0F6CFE9FFF7CFEAFF02
:10555800EF5026EC2DF00001734B742B00D073C074
:10556800F6FF74C0F7FF000EF86E0F0EF76403D055
:105578000800F55005D0F6CFE9FFF7CFEAFFEF5066
:105588000009D8A4D5D7120016D002C0F6FF03C070
:10559800F7FF000EF86E0F0EF76403D00800F55001
:1055A80005D0F6CFE9FFF7CFEAFFEF504FEC2DF02B
:1055B800024A032A00D002C0F6FF03C0F7FF000E1C
:1055C800F86E0F0EF76403D00800F55005D0F6CF3B
:1055D800E9FFF7CFEAFFEF500009D8A4D6D71200A9
:1055E800000E0001726F020E0001736F000E0001C1
:1055F800756F74696EEC2AF0000E0001E16F000E01
:105608000001726F030E0001736F000E0001756FC9
:1056180074696EEC2AF0000E306E8998A9EC2CF0B3
:105628008986899835EC2DF00009D8A4120003EC7E
:1056380012F012001200000E0001776F000E786F52
:10564800000E796F000E7A6F08D000F0020E00018C
:105658007727000E782379237A23000172510001FD
:10566800775D000173510001785900017451000100
:10567800795900017A51800A0001766F000175514D
:10568800800A00017659D8A0E0D71200000E000168
:105698007B6F8B98050E0001726F000E736F000E02
:1056A800746F000E756F1FEC2BF081B004D0080EDC
:1056B80000017B2700D081B204D0040E00017B27B3
:1056C80000D081B404D0020E00017B2700D081B63F
:1056D80002D000017B2B8B8800017B511200120045
:1056E8007D88B3EC2DF0326E8FEC2DF0000E0001AA
:1056F800726F040E0001736F000E0001756F480E83
:10570800746F3FEC2AF0000E0001E26F000EE36FA9
:10571800000EE46F000EE56FD59EE6EC2DF0F29AD0
:10572800F294F290F286120021EE67F001EE00F09A
:105738002C0EDBCFEBFFE806FCE2030E01012D6F18
:10574800000E2E6F000E2F6F000E306F38EC28F011
:1057580001010051010101110101021101010311AF
:10576800D8A402D0010E1200000E12001200000E82
:10577800896E000E8A6E000E8B6E928092829294D1
:1057880092969298929A94809492949494969498DB
:10579800949A949C948E938093829384938693880E
:1057A800938A010E7E6E000E7F6EF19E0F0E7C6E48
:1057B8001200000EF2BE010E0001756F0001735158
:1057C800030BAA6E72C0A9FF74C0A8FFA69EA69C70
:1057D800A684F29E5BEC2DF0A68200D0A6B2FED77E
:1057E800A694000175510001D8B41200F28E12007F
:1057F8001200000E086E000E086E0CD00850010D45
:10580800F3500124D96EF4500220DA6E000EDF6ED8
:10581800082A00D00850056E066A0350055C065039
:10582800800A076E0450800A0758D8A0E7D71200EC
:10583800000EF2BE010E0001746FA69EA69C000128
:105848007351030BAA6E72C0A9FFF29EA68000D006
:10585800A6B0FED700F000F0000174510001D8A4F2
:10586800F28EA8CF72F00001736B1200000EEEECFE
:105878002CF0000175510101006F010EF1EC1BF0D5
:1058880075C001F176C002F177C003F178C004F168
:1058980021EE00F000EE96F02C0EDBCFEBFFE806D1
:1058A800FCE21200120000017D6F7BC072F0000163
:1058B800736B7DC074F0DDEC2BF000017B51EEECD6
:1058C8002CF00001755100017C6F00017D51000131
:1058D8007C19D8A402D0010E1200000E120012008A
:1058E8007D98F296F29C7AC072F07BC073F07CC00F
:1058F80074F07DC075F07EC076F001EC22F000D027
:105908000001ED51D8B4FCD7F28CB3EC2DF0326E17
:10591800F2907D88F2861200486F6D65204175749B
:105928006F6D6174696F6E00000000000000000078
:10593800000000000000000000000000000000005F
:10594800000000000000000000008994500E0001D3
:10595800726FC30E736F000E746F000E756F1FECBD
:105968002BF08984500E0001726FC30E736F000E06
:10597800746F000E756F1FEC2BF0120072C0D9FF08
:1059880073C0DAFF400EDF64120072C0D9FF73C023
:10599800DAFF5B0EDF60120072C0D9FF73C0DAFF56
:1059A800200EDF26120012007AC072F07BC073F05E
:1059B8000001746B8E0E0001756F000E0001766F8A
:1059C800F4EC1FF072C07AF073C07BF074C07CF006
:1059D800120012000001796F79C072F00001736B38
:1059E8001CEC2CF00001725100017A6F00017A5111
:1059F8000001756F766B776B786B12001200026E80
:105A08000D0E4FEC2DF0000E036E05D0200E4FEC5E
:105A18002DF0032A00D00250035CD8A0F7D70D0E52
:105A28004FEC2DF012000001726F400E00017265FC
:105A380006D05B0E0001726102D0010E1200000E4A
:105A4800120012000001726F000172510001D8B4F7
:105A5800120072C0ADFF00D0ACB21200FDD7120028
:105A6800120001016705D8B407D0010E0101676F64
:105A780098EC2BF0000E1200010E12001200016EBD
:105A88001F0E016405D07F0E016002D0010E1200C6
:105A9800000E12001200016E0150D8B4120001C0AD
:105AA800ADFF00D0ACB21200FDD712001200550EA7
:105AB800A76EAA0EA76EA68200D0A6B2FED700F0E7
:105AC80000F01200C1EC2DF0C08EC086C088C08ADC
:105AD800C050F80B0409C06E1200ABA204D0AB98FA
