:04000000B0EF01F06C
:10000800FACF60F0FBCF61F0E9CF62F01BEF59F057
:10001800D8CF10F0E8CF11F0E0CF12F0FACF13F0FC
:10002800FBCF14F0E9CF15F0EACF16F0E1CF17F0C7
:10003800E2CF18F0D9CF19F0DACF1AF0F3CF1BF0CE
:10004800F4CF1CF0F6CF1DF0F7CF1EF0F8CF1FF05D
:10005800F5CF20F0000E246EF29C9EAA86D0BAEC52
:1000680065F0246E60EC66F00009D8A412D0630E27
:100078004C5CD8B078D04C50010D0501500EF324DB
:10008800D96E0501050EF420DA6E24C0DFFF4C2A74
:100098006AD024500D0AD8B455D024500A0AD8B4CE
:1000A80051D024507F0AD8B404D02450080AD8A4C8
:1000B80023D00301D151D8B41FD00301D12950EC6A
:1000C80065F00301D1070301D151010D0401B60EFA
:1000D800F324D96E0401040EF420DA6E000EDF6EEC
:1000E8003E0EB8EC64F00401040E0C6E0401B60E6A
:1000F8000B6E63EC65F037D0430E0301D15DD8B0C9
:100108001CD00301D0672FD0245084EC65F000097F
:10011800D8B429D0245028EC65F00301D151010D41
:100128000401B60EF324D96E0401040EF420DA6E2D
:1001380024C0DFFF0301D12B16D09D9A010E0301C5
:10014800CE6F11D00301D151D8B40DD00301D067BF
:100158000AD09D9AE90E0D6E0F0E0C6EA1EC64F09C
:10016800010E0301D06F9E9AD3D09EA00BD0532AC4
:10017800020E536405D08B948B92CD90000E536E73
:100188009E90C6D0F2A43CD0F29AD59E000E0301F0
:10019800CF6F030E50640CD00301030E026E0301EF
:1001A800E70E016E010E036E2CEC3FF00301EB6FBE
:1001B8000601060E026E0601000E016E000E046EA8
:1001C800500E036E70EC62F0000E506E0301EB6788
:1001D80013D08B82E80E016E030E026E000E036EC2
:1001E800000E046ED5EC62F0F2EC65F05AEC66F0A5
:1001F8004F6EF29092EC66F00D0E566EF29488D027
:10020800F2A07FD0000E0301EC6F000E0301ED6F2A
:10021800000E0301EE6F000E0301EF6F5AEC66F05B
:10022800216E21504F18D8B467D0D58EF28A130E9C
:10023800566E000E0301EB6FD6CF22F0236AD7501B
:100248002326890E225C130E2358D8B009D0A00E9D
:10025800225C0F0E2358D8A003D0010E0301CF6FE4
:100268000301CF51D8B443D0500E505CD8B03AD027
:100278005050020D0601000EF324D96E0601060E39
:10028800F420DA6E22C0DEFF23C0DDFF502A090EFB
:10029800225C520E2358D8B00ED0280E225C230EB2
:1002A8002358D8A008D095EC66F08F0E026E01682E
:1002B800C4EC65F01ED0510E225CC30E2358D8B092
:1002C8000ED0C80E225CAF0E2358D8A008D095ECEB
:1002D80066F08F0E026E0168C4EC65F00AD07AEC05
:1002E80066F007D07AEC66F095EC66F002D07AEC0E
:1002F80066F021C04FF001D000F05AEC66F0F290A1
:1003080007D0F20E0F6E500E0E6E4EEC63F000F03A
:10031800F28C20C0F5FF1FC0F8FF1EC0F7FF1DC0FC
:10032800F6FF1CC0F4FF1BC0F3FF1AC0DAFF19C0A8
:10033800D9FF18C0E2FF17C0E1FF16C0EAFF15C0D9
:10034800E9FF14C0FBFF13C0FAFF12C0E0FF11C0A1
:10035800E8FF10C0D8FF1000C4EF5AF0010E0201E8
:100368008F6F000E0201866F000E0201876F000E6C
:100378000201886F000E0201896F000E0201926F60
:10038800000E0201936F000E0201946F000E02012D
:10039800956F000E0201966F000E0201976F000E16
:1003A8000201796F000E02017A6F000E02017B6F65
:1003B800000E02017C6F000E02018D6F000E02011B
:1003C800846F000E0201906F000E0201856F000E0F
:1003D80002017D6F000E02017E6F000E02017F6F29
:1003E800000E0201806F000E02016E6F000E020106
:1003F8008A6F0201020E00016F6F0201000E0001F8
:100408006E6F000E0001716F640E0001706F5DEC7D
:1004180061F00201020E00016F6F0201640E00011B
:100428006E6F000E0001716F0A0E0001706F5DECB7
:1004380061F00201020E00016F6F02016F0E0001F0
:100448006E6F000E0001716F0A0E0001706F5DEC97
:1004580061F00001E1C072F00001E0C071F0FF0E30
:100468000001746F9B0E0001736FE6EC5DF00009EC
:10047800D8B427D0000E0201996F580E0201996571
:1004880001D012000201995126EC3DF0FF0E000147
:100498007A6FB60E0001796F88EC63F0020199510A
:1004A800EAEC4EF0E90E00017A6F0F0E0001796F49
:1004B80088EC63F00201992B580E02019965E2D786
:1004C80012000001E1C072F00001E0C071F0FF0EFF
:1004D8000001746FBC0E0001736FB2EC48F00009A4
:1004E800D8B485D0000E526E0001E1C072F0000150
:1004F800E0C071F0E80E0001746F760E0001736FB2
:10050800E6EC5DF00009D8B412D0E80E0001776F70
:10051800CF0E0001766F010E0001786F0C0E0001FE
:10052800796F070E00017A6FB5EC62F057D00001C1
:10053800E1C072F00001E0C071F0E80E0001746FD4
:10054800850E0001736FE6EC5DF00009D8B412D097
:10055800E80E0001776FDB0E0001766F010E0001D7
:10056800786F0C0E0001796F070E00017A6FB5ECF9
:1005780062F034D00001E1C072F00001E0C071F017
:10058800E80E0001746F940E0001736FE6EC5DF0E5
:100598000009D8B412D0E80E0001776FE70E000109
:1005A800766F010E0001786F0C0E0001796F070E4F
:1005B80000017A6FB5EC62F011D0E80E00017A6F95
:1005C800C10E0001796F88EC63F0E90E00017A6FC3
:1005D8000F0E0001796F88EC63F01200F70E00012E
:1005E8007C6F010E00017B6F4CEC62F01200000181
:1005F800E1C072F00001E0C071F0FF0E0001746FFD
:10060800C20E0001736FB2EC48F00009D8B48ED165
:10061800000E526E0001E1C072F00001E0C071F0FE
:10062800E70E0001746F5C0E0001736FE6EC5DF07D
:100638000009D8B413D0E70E0001776FE60E000169
:10064800766F020E0001786F100E0001796F070EA9
:1006580000017A6FB5EC62F0010E23D00001E1C011
:1006680072F00001E0C071F0E70E0001746F360E01
:100678000001736FE6EC5DF00009D8B415D0E70E01
:100688000001776FD60E0001766F020E0001786FB9
:10069800100E0001796F070E00017A6FB5EC62F059
:1006A800000E0001EF6F39D10001E1C072F00001C6
:1006B800E0C071F0E70E0001746F6E0E0001736FF9
:1006C800E6EC5DF00009D8B413D0E80E0001776FAE
:1006D800060E0001766F020E0001786F100E000101
:1006E800796F070E00017A6FB5EC62F0010E23D026
:1006F8000001E1C072F00001E0C071F0E70E0001F6
:10070800746F490E0001736FE6EC5DF00009D8B410
:1007180015D0E70E0001776FF60E0001766F020E16
:100728000001786F100E0001796F070E00017A6FD3
:10073800B5EC62F0000E02019E6FEFD00001E1C03F
:1007480072F00001E0C071F0E60E0001746FFA0E5D
:100758000001736FE6EC5DF00009D8B413D0E80E21
:100768000001776F260E0001766F020E0001786F88
:10077800100E0001796F070E00017A6FB5EC62F078
:10078800010E23D00001E1C072F00001E0C071F059
:10079800E60E0001746FBB0E0001736FE6EC5DF0AE
:1007A8000009D8B415D0E80E0001776F160E0001C5
:1007B800766F020E0001786F100E0001796F070E38
:1007C80000017A6FB5EC62F0000E02019F6FA5D0B0
:1007D8000001E1C072F00001E0C071F0E70E000115
:1007E800746F0E0E0001736FE6EC5DF00009D8B46B
:1007F80013D0E80E0001776F460E0001766F020EE7
:100808000001786F100E0001796F070E00017A6FF2
:10081800B5EC62F0010E23D00001E1C072F00001D6
:10082800E0C071F0E60E0001746FD00E0001736F26
:10083800E6EC5DF00009D8B415D0E80E0001776F3A
:10084800360E0001766F020E0001786F100E00015F
:10085800796F070E00017A6FB5EC62F0000E0201A5
:10086800A06F5BD00001E1C072F00001E0C071F040
:10087800E70E0001746F220E0001736FE6EC5DF065
:100888000009D8B413D0E80E0001776F660E000196
:10089800766F020E0001786F100E0001796F070E57
:1008A80000017A6FB5EC62F0010E23D00001E1C0BF
:1008B80072F00001E0C071F0E60E0001746FE50E01
:1008C8000001736FE6EC5DF00009D8B415D0E80EAE
:1008D8000001776F560E0001766F030E0001786FE6
:1008E800100E0001796F070E00017A6FB5EC62F007
:1008F800000E0201A16F11D0E80E00017A6FC10E3F
:100908000001796F88EC63F0E90E00017A6F0F0E31
:100918000001796F88EC63F01200F70E00017C6F1C
:100928001E0E00017B6F4CEC62F012000001E1C06A
:1009380072F00001E0C071F0FE0E0001746F210E2C
:100948000001736FB2EC48F00009D8B40ED1000E64
:10095800526E0001E1C083F00001E0C082F00201A4
:10096800020E0001856F0201000E0001846F7F0EE8
:100978000001866FF30E0001876F33EC4BF000C265
:100988008BF20201020E00016F6F02018B0E000153
:100998006E6FF5EC63F001C283F2020102515F0A47
:1009A800D8A4D1D08BC264F2E70E0001726FC50ED5
:1009B8000001716F0201020E0001746F0201640EE2
:1009C8000001736FB2EC48F00009D8B4B3D002014B
:1009D8008B5175EC65F00009D8B404D0300E0201D3
:1009E8008B5F06D0610E02018B5F0A0E02018B2716
:1009F80083C264F2E80E0001726FFC0E0001716F91
:100A08000201020E0001746F0201640E0001736F8F
:100A1800B2EC48F00009D8B484D0300E0201835FEC
:100A2800020183070001E1C072F00001E0C071F02B
:100A3800FB0E0001746F9D0E0001736FB2EC48F05D
:100A48000009D8B402D0000E12D00001E1C072F043
:100A58000001E0C071F0FA0E0001746F990E0001F8
:100A6800736FB2EC48F00009D8B404D0010E02014B
:100A7800826F09D0F20E00017C6FC90E00017B6FF6
:100A88004CEC62F0120002018B51780D210E00012E
:100A9800E36FDF0EE46FF3500001E327F450000129
:100AA800E42302018351180DF3500001E327F450A9
:100AB8000001E423020182510C0DF3500001E325EB
:100AC8000001766FF4500001E4210001776F030EF6
:100AD8000001786F0C0E0001796F070E00017A6F24
:100AE800B5EC62F002018B51050D000E0001E36FB9
:100AF800050EE46FF3500001E327F4500001E423EE
:100B080002018351010DF3500001E325D96EF45021
:100B18000001E421DA6E02018251D7EC65F0DF6E44
:100B28001BD0F90E00017C6F720E00017B6F4CEC3C
:100B380062F01200F80E00017C6F680E00017B6FF6
:100B48004CEC62F01200F30E00017C6FD00E000135
:100B58007B6F4CEC62F01200F70E00017C6F3B0ECD
:100B680000017B6F4CEC62F012000001E1C072F0F2
:100B78000001E0C071F0FF0E0001746FE90E000182
:100B8800736FB2EC48F00009D8B43CD20001E1C060
:100B98007BF00001E0C07AF0010E00017C6F0201D9
:100BA800020E00017E6F0201940E00017D6FF8ECC9
:100BB8003AF00009D8A4EFD0000E0201945D010EAE
:100BC80002019559000E02019659000E020197592B
:100BD800D8A011D0F60E00017C6F0B0E00017B6FC0
:100BE8004CEC62F0E90E00017A6F0F0E0001796F8C
:100BF80088EC63F0120094C293F20001E1C07BF02C
:100C08000001E0C07AF0000E00017C6F0201020EC4
:100C180000017E6F0201940E00017D6FF8EC3AF03E
:100C28000009D8A4A7D0000E0201945D010E0201AC
:100C38009559000E02019659000E02019759D8A045
:100C480011D0F60E00017C6F2A0E00017B6F4CEC70
:100C580062F0E90E00017A6F0F0E0001796F88ECDF
:100C680063F0120094C292F20201020E0001BD6FFD
:100C78000201000E0001BC6FFB0E0001BF6F4D0E9C
:100C88000001BE6F0201000192C2C0F00001C16BF9
:100C9800F1EC1CF00201020E00017C6F0201000E53
:100CA80000017B6FA4EC63F00201020E0001BD6F2E
:100CB8000201000E0001BC6FFB0E0001BF6F380E71
:100CC8000001BE6F0201000193C2C0F00001C16BB8
:100CD800F1EC1CF00201020E00017C6F0201000E13
:100CE80000017B6FA4EC63F093C272F00201925191
:100CF80072EC4DF072C086F273C087F274C088F24D
:100D080075C089F286C283F087C284F088C285F0F4
:100D180089C286F0000E0001876FA3EC5CF0020127
:100D2800020E0001BD6F0201000E0001BC6FF90E3A
:100D38000001BF6FA20E0001BE6F86C2C0F087C25D
:100D4800C1F088C2C2F089C2C3F0F1EC1CF0020104
:100D5800020E00017C6F0201000E00017B6FA4EC03
:100D680063F0E90E00017A6F0F0E0001796F88ECCD
:100D780063F01200F50E00017C6FEB0E00017B6F33
:100D88004CEC62F0E90E00017A6F0F0E0001796FEA
:100D980088EC63F012000001E1C07BF00001E0C0C4
:100DA8007AF0000E00017C6F0201020E00017E6FD6
:100DB8000201860E00017D6FF8EC3AF00009D8A414
:100DC800A7D086C283F087C284F088C285F089C222
:100DD80086F0000E0001876FA3EC5CF00201020EA2
:100DE8000001BD6F0201000E0001BC6FFC0E000186
:100DF800BF6F460E0001BE6F86C2C0F087C2C1F049
:100E080088C2C2F089C2C3F0F1EC1CF00201020EE4
:100E180000017C6F0201000E00017B6FA4EC63F0FF
:100E280086C272F087C273F088C274F089C275F006
:100E38000201020E0001776F0201920E0001766F27
:100E48000201020E0001796F0201930E0001786F12
:100E58004BEC5CF00009D8B441D00201020E00014D
:100E6800BD6F0201000E0001BC6FFB0E0001BF6FD9
:100E7800510E0001BE6F0201000192C2C0F00001D4
:100E8800C16BF1EC1CF00201020E00017C6F020143
:100E9800000E00017B6FA4EC63F00201020E00015A
:100EA800BD6F0201000E0001BC6FF00E0001BF6FA4
:100EB800BD0E0001BE6F0201000193C2C0F0000127
:100EC800C16BF1EC1CF00201020E00017C6F020103
:100ED800000E00017B6FA4EC63F011D0F50E000149
:100EE8007C6F090E00017B6F4CEC62F0E90E00018B
:100EF8007A6F0F0E0001796F88EC63F01200E90E2B
:100F080000017A6F0F0E0001796F88EC63F0120010
:100F18000001E1C06FF00001E0C06EF0FF0E0001BB
:100F2800716FE70E0001706F5EEC53F00009D8A4F2
:100F380010D0E90E00017A6F0F0E0001796F88EC6E
:100F480063F0F60E00017C6FC50E00017B6F4CEC60
:100F580062F0E90E00017A6F0F0E0001796F88ECDC
:100F680063F0FF0E00017C6F940E00017B6F4CEC68
:100F780062F0FC0E00017C6F1E0E00017B6F4CECD2
:100F880062F0FF0E00017C6F3B0E00017B6F4CECA2
:100F980062F0FA0E00017C6F5A0E00017B6F4CEC78
:100FA80062F0E90E00017A6F0F0E0001796F88EC8C
:100FB80063F0FF0E00017C6F6C0E00017B6F4CEC40
:100FC80062F0FD0E00017C6F060E00017B6F4CEC99
:100FD80062F0FF0E00017C6F3D0E00017B6F4CEC50
:100FE80062F0FD0E00017C6F5E0E00017B6F4CEC21
:100FF80062F0E90E00017A6F0F0E0001796F88EC3C
:1010080063F012000001E1C072F00001E0C071F06D
:10101800FE0E0001746FB20E0001736FB2EC48F05F
:101028000009D8B4F3D20001E1C08AF00001E0C0A1
:1010380089F07DEC45F002018A6F02018A51D8B42B
:101048008CD202018A51020AD8A402D00001E22BF4
:101058000001E1C07BF00001E0C07AF0000E000161
:101068007C6F0201020E00017E6F0201940E0001E6
:101078007D6FF8EC3AF00009D8A46FD20D0E00018C
:10108800E36FE46BE56BE66B0001E3510201945DED
:101098000001E451020195590001E55102019659F8
:1010A8000001E65102019759D8B03ED2020197518A
:1010B800941195119611D8B437D20001E1C072F09D
:1010C8000001E0C071F0FC0E0001746F7E0E00019B
:1010D800736FB2EC48F00009D8A425D1FE0E0001C8
:1010E800E36FFF0EE46F020194C2E5F0020195C2BE
:1010F800E6F0D8900001E537E6370001E35100013A
:10110800E5270001E4510001E623E30E0001E76F43
:10111800020EE86F0001E5510001E7270001E651E2
:101128000001E823010E0001E725D96E000E000139
:10113800E821DA6EDF500001726FFE0E0001E96FE0
:10114800FF0EEA6F020194C2EBF0020195C2ECF0C7
:10115800D8900001EB37EC370001E9510001EB278B
:101168000001EA510001EC230201E30E0001EB2526
:10117800D96E0201020E0001EC21DA6EDF5072EC2A
:101188004DF072C079F273C07AF274C07BF275C008
:101198007CF202017929D8B47B297A117C11D8B460
:1011A800B1D079C283F07AC284F07BC285F07CC268
:1011B80086F0000E0001876FA3EC5CF00201020EBE
:1011C8000001BD6F0201000E0001BC6FFB0E0001A3
:1011D800BF6F620E0001BE6F79C2C0F07AC2C1F063
:1011E8007BC2C2F07CC2C3F0F1EC1CF00201020E1B
:1011F80000017C6F0201000E00017B6FA4EC63F01C
:101208000201020E0001BD6F0201000E0001BC6F59
:10121800F00E0001BF6FA20E0001BE6FFE0E0001AE
:10122800E36FFF0EE46F020194C2E5F0020195C27C
:10123800E6F0D8900001E537E6370001E3510001F8
:10124800E5270001E4510001E6230201E30E000155
:10125800E525D96E0201020E0001E621DA6EDF50A3
:101268000001E76F0001E7510001C06F0001C16B89
:10127800FE0E0001E86FFF0EE96F020194C2EAF06A
:10128800020195C2EBF0D8900001EA37EB37000174
:10129800E8510001EA270001E9510001EB23E30EC0
:1012A8000001EC6F020EED6F0001EA510001EC271E
:1012B8000001EB510001ED23010E0001EC25D96E70
:1012C800000E0001ED21DA6EDF500001EE6F000123
:1012D800EE510001C26F0001C36BF1EC1CF002017A
:1012E800020E00017C6F0201000E00017B6FA4EC6E
:1012F80063F0E90E00017A6F0F0E0001796F88EC38
:1013080063F01200E90E00017A6F0F0E0001796F89
:1013180088EC63F0EF0E00017C6F5F0E00017B6FBD
:101328004CEC62F012007FEC5EF00009D8B41200B9
:10133800E7C372F0E8C373F0E9C374F0EAC375F069
:101348000201020E0001776F0201920E0001766F12
:101358000201020E0001796F0201930E0001786FFD
:101368004BEC5CF0FE0E0001E36FFF0EE46F020130
:1013780094C2E5F0020195C2E6F0D8900001E53785
:10138800E6370001E3510001E5270001E4510001BF
:10139800E6230201E30E0001E525D96E0201020EE3
:1013A8000001E621DA6E020192C2DFFFFE0E0001A3
:1013B800E36FFF0EE46F020194C2E5F0020195C2EB
:1013C800E6F0D8900001E537E6370001E351000167
:1013D800E5270001E4510001E623E30E0001E76F71
:1013E800020EE86F0001E5510001E7270001E65110
:1013F8000001E823010E0001E725D96E000E000167
:10140800E821DA6E020193C2DFFF34EC5EF0E90EE8
:1014180000017A6F0F0E0001796F88EC63F002010A
:10142800020E0001BD6F0201000E0001BC6FEF0E3D
:101438000001BF6FBD0E0001BE6F94C2C0F095C21F
:10144800C1F096C2C2F097C2C3F0E7C3C4F0E8C3C4
:10145800C5F0E9C3C6F0EAC3C7F0F1EC1CF002011D
:10146800020E00017C6F0201000E00017B6FA4ECEC
:1014780063F00201020E0001BD6F0201000E0001BF
:10148800BC6FF00E0001BF6FA20E0001BE6F02011B
:10149800000192C2C0F00001C16B0201000193C2B9
:1014A800C2F00001C36BF1EC1CF00201020E000156
:1014B8007C6F0201000E00017B6FA4EC63F0E90E63
:1014C80000017A6F0F0E0001796F88EC63F0000E4F
:1014D8000201996F090E0201996501D012008B84EF
:1014E800500E00016E6FC30E00016F6F000E0001F9
:1014F800706F000E0001716FA1EC60F08B94500EBC
:1015080000016E6FC30E00016F6F000E0001706F57
:10151800000E0001716FA1EC60F00201992B090E19
:1015280002019965DCD71200E90E00017A6F0F0EEF
:101538000001796F88EC63F0F30E00017C6F870E71
:1015480000017B6F4CEC62F0E90E00017A6F0F0E20
:101558000001796F88EC63F01200E90E00017A6FE0
:101568000F0E0001796F88EC63F0F40E00017C6FB8
:101578003A0E00017B6F4CEC62F0E90E00017A6FC5
:101588000F0E0001796F88EC63F0FF0E00017C6F8D
:10159800940E00017B6F4CEC62F0FD0E00017C6F35
:1015A8006F0E00017B6F4CEC62F0FC0E00017C6F4B
:1015B8006E0E00017B6F4CEC62F0E90E00017A6F51
:1015C8000F0E0001796F88EC63F0FF0E00017C6F4D
:1015D8006C0E00017B6F4CEC62F0FD0E00017C6F1D
:1015E800DB0E00017B6F4CEC62F0FD0E00017C6F9E
:1015F800180E00017B6F4CEC62F0E90E00017A6F67
:101608000F0E0001796F88EC63F012000001E1C051
:1016180072F00001E0C071F0FF0E0001746FA90EB6
:101628000001736FB2EC48F00009D8A412D0000191
:10163800E1C072F00001E0C071F0FF0E0001746FAC
:10164800750E0001736FB2EC48F00009D8B414EFBE
:1016580013F0000E0201816F0001E1C072F0000179
:10166800E0C071F0FF0E0001746FA90E0001736FE6
:10167800B2EC48F00009D8B404D0010E0201856F1D
:1016880017D0000E0201856F0001E1C072F0000161
:10169800E0C071F0FD0E0001746F880E0001736FD9
:1016A800B2EC48F00009D8B403D0010E0201816FF2
:1016B8000001E1C072F00001E0C071F0FF0E00010E
:1016C800746F9E0E0001736FB2EC48F00009D8B435
:1016D80059D27FEC5EF00009D8B41200E90E00017F
:1016E8007A6F0F0E0001796F88EC63F0E7C372F030
:1016F800E8C373F0E9C374F0EAC375F00201020E9F
:101708000001776F0201920E0001766F0201020E4E
:101718000001796F0201930E0001786F4BEC5CF0C9
:10172800010E0201906F000E0201986FA9D1000E00
:1017380002018F6F000E0201996F02019951D8A41E
:1017480047D002019851020D000E0001E36F040E0C
:10175800E46FF3500001E327F4500001E423020191
:101768009951020DF3500001E325D96EF4500001A0
:10177800E421DA6EDF50D8A428D002019851020D76
:10178800000E0001E36F040EE46FF3500001E3273D
:10179800F4500001E42302019951020DF3500001B5
:1017A800E327F4500001E423010E0001E325D96E7C
:1017B800000E0001E421DA6EDF50D8A406D099C2E9
:1017C80090F2010E02018F6F03D00201992BB5D759
:1017D80002018505D8A4C3D002018F6715D0F30E86
:1017E80000017A6FF40E0001796F88EC63F0020152
:1017F8009851EAEC4EF0E90E00017A6F0F0E0001E5
:10180800796F88EC63F03AD102019051D8B450D086
:10181800000E0201996F46D002019851020D000E88
:101828000001E36F040EE46FF3500001E327F45066
:101838000001E42302019951020DF3500001E32550
:10184800D96EF4500001E421DA6E02019251DF6290
:1018580027D002019851020D000E0001E36F040E1B
:10186800E46FF3500001E327F4500001E423020180
:101878009951020DF3500001E327F4500001E423CD
:10188800010E0001E325D96E000E0001E421DA6E95
:1018980002019351DF6204D0000E02018F6F08D05D
:1018A8000201992B020190510201995DD8A0B4D789
:1018B80002018F6715D0F40E00017A6FA30E0001A4
:1018C800796F88EC63F002019851EAEC4EF0E90E6A
:1018D80000017A6F0F0E0001796F88EC63F0CED0AB
:1018E80002019851020D000E0001E36F040EE46F2F
:1018F800F3500001E327F4500001E4230201905162
:10190800020DF3500001E325D96EF4500001E421E3
:10191800DA6E020192C2DFFF02019851020D000E39
:101928000001E36F040EE46FF3500001E327F45065
:101938000001E42302019051020DF3500001E32756
:10194800F4500001E423010E0001E325D96E000ED6
:101958000001E421DA6E020193C2DFFF8FD0020199
:101968009051D8B48BD0000E0201996F81D002013A
:101978009851020D000E0001E36F040EE46FF3505E
:101988000001E327F4500001E42302019951020DFC
:10199800F3500001E325D96EF4500001E421DA6E1A
:1019A80002019251DF6262D002019851020D000ECD
:1019B8000001E36F040EE46FF3500001E327F450D5
:1019C8000001E42302019951020DF3500001E327BD
:1019D800F4500001E423010E0001E325D96E000E46
:1019E8000001E421DA6E02019351DF623FD0020167
:1019F8009851020D000E0001E36F040EE46FF350DE
:101A08000001E327F4500001E42302019951020D7B
:101A1800F3500001E325D96EF4500001E421DA6E99
:101A2800000EDF6E02019851020D000E0001E36FF7
:101A3800040EE46FF3500001E327F4500001E4239F
:101A480002019951020DF3500001E327F4500001FF
:101A5800E423010E0001E325D96E000E0001E42104
:101A6800DA6E000EDF6E99C28CF208D00201992B53
:101A7800020190510201995DD8A079D70201982BF3
:101A8800580E0201986553D634EC5EF0000E020140
:101A9800996F2CD002018505D8A402D08B8401D07F
:101AA8008B82500E00016E6FC30E00016F6F000E27
:101AB8000001706F000E0001716FA1EC60F002016F
:101AC8008505D8A402D08B9401D08B92500E0001CA
:101AD8006E6FC30E00016F6F000E0001706F000E75
:101AE8000001716FA1EC60F00201992B090E02014F
:101AF8009965D0D702018505D8A419D00201020E34
:101B08000001BD6F0201000E0001BC6FF10E000163
:101B1800BF6FAA0E0001BE6FE7C3C0F0E8C3C1F0F3
:101B2800E9C3C2F0EAC3C3F0F1EC1CF018D002011B
:101B3800020E0001BD6F0201000E0001BC6FEC0E29
:101B48000001BF6F100E0001BE6FE7C3C0F0E8C30D
:101B5800C1F0E9C3C2F0EAC3C3F0F1EC1CF0020122
:101B6800020E00017C6F0201000E00017B6FA4ECE5
:101B780063F0E90E00017A6F0F0E0001796F88ECAF
:101B880063F0120002018105D8B45DD20001E1C002
:101B98008AF00001E0C089F07DEC45F002018A6F0F
:101BA80002018A6711D0F30E00017C6F3D0E00011F
:101BB8007B6F4CEC62F0E90E00017A6F0F0E0001AA
:101BC800796F88EC63F0120002018A51020AD8A4E6
:101BD80002D00001E22BE90E00017A6F0F0E00011E
:101BE800796F88EC63F00001E1C07BF00001E0C090
:101BF8007AF0000E00017C6F0201020E00017E6F78
:101C08000201940E00017D6FF8EC3AF00009D8A4A7
:101C180003D094C291F211D0EF0E00017C6FEB0E4D
:101C280000017B6F4CEC62F0E90E00017A6F0F0E39
:101C38000001796F88EC63F0120002019151D8B469
:101C480004D0030E0201916511D0F30E00017C6FE0
:101C5800620E00017B6F4CEC62F0E90E00017A6FB6
:101C68000F0E0001796F88EC63F012000001E1C0EB
:101C78006FF00001E0C06EF0010E0001706F02010C
:101C8800020E0001726F02016F0E0001716FB0EC5D
:101C980056F00009D8B411D0F20E00017C6FA10EE5
:101CA80000017B6F4CEC62F0E90E00017A6F0F0EB9
:101CB8000001796F88EC63F012000201020E000146
:101CC8006F6F02016F0E00016E6FDDEC61F00201B3
:101CD8009105D8B405D002019151020AD8A429D19E
:101CE80002017051D8B405D002017051200AD8A45D
:101CF8000FD1000E0201706F02019105D8A411D016
:101D0800E90E0001726F070E0001716F0201020EE9
:101D18000001746F02016F0E0001736FB2EC48F09E
:101D280015D002019151020AD8A416D0E90E00017B
:101D3800726F0B0E0001716F0201020E0001746FC9
:101D480002016F0E0001736FB2EC48F00009D8A4CD
:101D580003D0000E02018F6F02018F6711D0F60EBB
:101D680000017C6FA60E00017B6F4CEC62F0E90E5F
:101D780000017A6F0F0E0001796F88EC63F0120092
:101D880002019105D8A415D002016F51640AD8A4A4
:101D980002D0000E20D002016F51650AD8A402D0EB
:101DA800010E19D002016F51660AD8A41200020E62
:101DB80012D002019151020AD8A445D102016F51F3
:101DC800620AD8A402D0030E06D002016F51640A39
:101DD800D8A404D0040E02018E6F35D102016F51D0
:101DE800680AD8A412000401040E00016F6F0401F0
:101DF800B60E00016E6F03010001D1C370F000013F
:101E0800716B5DEC61F0000E0301D16F000E0301F0
:101E1800D06FFE0E00017A6F130E0001796F88EC07
:101E280063F0E90E00017A6F0F0E0001796F88ECFC
:101E380063F03E0EBFEC63F0000E02018D6FE0EC24
:101E480065F09E9A9D8A25D0E00E00016E6F930E74
:101E580000016F6F040E0001706F000E0001716FBA
:101E6800A1EC60F002018D2B190E02018D6511D0D5
:101E7800E90E00017A6F0F0E0001796F88EC63F0AC
:101E8800ED0E00017C6FA30E00017B6F4CEC62F03D
:101E980012000301D051D8B4D7D79D9A010E020180
:101EA8008F6F300E0401B66504D0330E0401B66599
:101EB8000BD0ED0E00017C6FD50E00017B6F4CEC52
:101EC80062F0000E02018F6F0401B651D00F0201BB
:101ED800846F02018451040F02018E6F0401040E05
:101EE80000016F6F0401B60E00016E6F030100015F
:101EF800D1C370F00001716B5DEC61F0000E03015D
:101F0800D16F000E0301D06F02018F679CD01200C1
:101F1800F10E00017C6F520E00017B6F4CEC62F0F9
:101F2800E90E00017A6F0F0E0001796F88EC63F0FB
:101F3800120002019151030AD8A485D00201705100
:101F4800D8B470D002016F51D8B46CD0020171516D
:101F5800D8B405D002017151200AD8A463D070C248
:101F680064F2000E0201706FE70E0001726FC50E79
:101F78000001716F0201020E0001746F02016F0E01
:101F88000001736FB2EC48F00009D8A403D0000E2A
:101F980002018F6FE80E0001726FFC0E0001716F75
:101FA8000201020E0001746F0201640E0001736FDA
:101FB800B2EC48F00009D8A403D0000E02018F6FDC
:101FC80002018F6711D0F20E00017C6F270E00010D
:101FD8007B6F4CEC62F0E90E00017A6F0F0E000186
:101FE800796F88EC63F0120002016F5175EC65F0AF
:101FF8000009D8B404D0300E02016F5F06D0610E1C
:1020080002016F5F0A0E02016F2702016F51050D71
:10201800F350080F02018E6F02016451CF0F0201C5
:102028008E2711D0F00E00017C6F750E00017B6FBA
:102038004CEC62F0E90E00017A6F0F0E0001796F27
:1020480088EC63F0120002018551D8B4B6D17FEC58
:102058005EF00009D8B41200E90E00017A6F0F0E85
:102068000001796F88EC63F0E7C372F0E8C373F09E
:10207800E9C374F0EAC375F00201020E0001776F3C
:102088000201920E0001766F0201020E0001796FC3
:102098000201930E0001786F4BEC5CF0000E020118
:1020A8008F6F000E0201996F02019951D8A447D091
:1020B80002018E51020D000E0001E36F040EE46F61
:1020C800F3500001E327F4500001E4230201995181
:1020D800020DF3500001E325D96EF4500001E4210C
:1020E800DA6EDF50D8A428D002018E51020D000EFE
:1020F8000001E36F040EE46FF3500001E327F4508E
:102108000001E42302019951020DF3500001E32775
:10211800F4500001E423010E0001E325D96E000EFE
:102128000001E421DA6EDF50D8A406D099C290F2FB
:10213800010E02018F6F03D00201992BB5D702015E
:102148008F6709D0EF0E00017C6F8E0E00017B6F48
:102158004CEC62F0120002019051D8B450D0000E3D
:102168000201996F46D002018E51020D000E000146
:10217800E36F040EE46FF3500001E327F45000010D
:10218800E42302019951020DF3500001E325D96EB1
:10219800F4500001E421DA6E02019251DF6227D087
:1021A80002018E51020D000E0001E36F040EE46F70
:1021B800F3500001E327F4500001E4230201995190
:1021C800020DF3500001E327F4500001E423010E4F
:1021D8000001E325D96E000E0001E421DA6E020148
:1021E8009351DF6204D0000E02018F6F08D0020104
:1021F800992B020190510201995DD8A0B4D7020130
:102208008F6709D0F00E00017C6F190E00017B6FFB
:102218004CEC62F0120002018E51020D000E00011A
:10222800E36F040EE46FF3500001E327F45000015C
:10223800E42302019051020DF3500001E325D96E09
:10224800F4500001E421DA6E020192C2DFFF0201BC
:102258008E51020D000E0001E36F040EE46FF3507F
:102268000001E327F4500001E42302019051020D1C
:10227800F3500001E327F4500001E423010E0001AC
:10228800E325D96E000E0001E421DA6E020193C243
:10229800DFFF34EC5EF002018451D8B42BD0020188
:1022A800020E0001BD6F0201000E0001BC6FE90EB5
:1022B8000001BF6F920E0001BE6FE7C3C0F0E8C314
:1022C800C1F0E9C3C2F0EAC3C3F00201000191C240
:1022D800C4F00001C56B020100016FC2C6F0000125
:1022E800C76B0201000184C2C8F00001C96BF1ECA0
:1022F8001CF024D00201020E0001BD6F0201000E85
:102308000001BC6FEB0E0001BF6F6F0E0001BE6FC6
:10231800E7C3C0F0E8C3C1F0E9C3C2F0EAC3C3F041
:102328000201000191C2C4F00001C56B0201000165
:102338006FC2C6F00001C76BF1EC1CF00201020E7F
:1023480000017C6F0201000E00017B6FA4EC63F0BA
:10235800E90E00017A6F0F0E0001796F88EC63F0C7
:10236800000E0201996F090E0201996501D0120051
:102378008B84500E00016E6FC30E00016F6F000E4C
:102388000001706F000E0001716FA1EC60F08B947A
:10239800500E00016E6FC30E00016F6F000E00013A
:1023A800706F000E0001716FA1EC60F00201992BB3
:1023B800090E02019965DCD7120002018105D8A433
:1023C80050D0000E0201996F02019951D8A48FD004
:1023D800000E02018C6F3ED002018C51020D000EDE
:1023E8000001E36F040EE46FF3500001E327F4509B
:1023F8000001E42302019951020DF3500001E32585
:10240800D96EF4500001E421DA6E000EDF6E02018D
:102418008C51020D000E0001E36F040EE46FF350BF
:102428000001E327F4500001E42302019951020D51
:10243800F3500001E327F4500001E423010E0001EA
:10244800E325D96E000E0001E421DA6E000EDF6E7E
:1024580002018C2B580E02018C65BED70201992B04
:10246800B3D7000E0201996F02019951D8A43FD049
:1024780002018E51020D000E0001E36F040EE46F9D
:10248800F3500001E327F4500001E42302019951BD
:10249800020DF3500001E325D96EF4500001E42148
:1024A800DA6E000EDF6E02018E51020D000E000181
:1024B800E36F040EE46FF3500001E327F4500001CA
:1024C800E42302019951020DF3500001E327F4506F
:1024D8000001E423010E0001E325D96E000E00017E
:1024E800E421DA6E000EDF6E0201992BBDD734ECC1
:1024F8005EF002018105D8A411D00201020E00018C
:10250800BD6F0201000E0001BC6FE90E0001BF6F34
:10251800520E0001BE6FF1EC1CF043D00201845151
:10252800D8B423D00201020E0001BD6F0201000ED3
:102538000001BC6FEB0E0001BF6FA50E0001BE6F5E
:102548000201000191C2C0F00001C16B020100014B
:102558006FC2C2F00001C36B0201000184C2C4F063
:102568000001C56BF1EC1CF01CD00201020E000149
:10257800BD6F0201000E0001BC6FF10E0001BF6FBC
:10258800260E0001BE6F0201000191C2C0F00001D9
:10259800C16B020100016FC2C2F00001C36BF1EC14
:1025A8001CF00201020E00017C6F0201000E000106
:1025B8007B6FA4EC63F0E90E00017A6F0F0E000147
:1025C800796F88EC63F0000E0201996F090E020121
:1025D800996501D012008B82500E00016E6FC30EF8
:1025E80000016F6F000E0001706F000E0001716F27
:1025F800A1EC60F08B92500E00016E6FC30E0001CB
:102608006F6F000E0001706F000E0001716FA1EC7A
:1026180060F00201992B090E02019965DCD71200BE
:102628000001E1C072F00001E0C071F0FF0E00018E
:10263800746FC80E0001736FE6EC5DF00009D8B442
:102648009ED00401040E00016F6F0401B60E000154
:102658006E6F03010001D1C370F00001716B5DEC76
:1026680061F0000E0301D16F000E0301D06FF50E6B
:1026780000017A6FCB0E0001796F88EC63F0E90EE8
:1026880000017A6F0F0E0001796F88EC63F03E0E3F
:1026980031EC63F0000E02018D6FE0EC65F09E9A5C
:1026A8009D8A25D0E00E00016E6F930E00016F6FBA
:1026B800040E0001706F000E0001716FA1EC60F054
:1026C80002018D2B190E02018D6511D0E90E000152
:1026D8007A6F0F0E0001796F88EC63F0F60E000137
:1026E8007C6FE40E00017B6F4CEC62F0120003017A
:1026F800D051D8B4D7D79D9A0401B651590AD8B445
:1027080008D00401B651790AD8A412D00401B767D9
:102718000FD0FD0E00017C6F2A0E00017B6F4CEC80
:1027280062F0000E0201FB6F34EC5EF0FF00120055
:10273800E90E00017A6F0F0E0001796F88EC63F0E3
:10274800F60E00017C6FE40E00017B6F4CEC62F02A
:102758000401040E00016F6F0401B60E00016E6FD4
:1027680003010001D1C370F00001716B5DEC61F0F1
:10277800000E0301D16F000E0301D06F120000019B
:10278800E1C072F00001E0C071F0FF0E0001746F4B
:10279800460E0001736FE6EC5DF00009D8B4B7D1BE
:1027A8000401040E00016F6F0401B60E00016E6F84
:1027B80003010001D1C370F00001716B5DEC61F0A1
:1027C800000E0301D16F000E0301D06FEA0E000165
:1027D8007A6F100E0001796F88EC63F0E90E000142
:1027E8007A6F0F0E0001796F88EC63F03E0EBFEC34
:1027F80063F0000E02018D6FE0EC65F09E9A9D8AF1
:1028080025D0E00E00016E6F930E00016F6F040E6D
:102818000001706F000E0001716FA1EC60F0020101
:102828008D2B190E02018D6511D0E90E00017A6F0A
:102838000F0E0001796F88EC63F0F00E00017C6FD9
:10284800470E00017B6F4CEC62F012000301D0517F
:10285800D8B4D7D79D9A0401040E00016F6F040104
:10286800B60E00016E6FFF0E0001716FD80E0001E9
:10287800706FC8EC5FF00009D8B438D10401040EB9
:1028880000016F6F0401B60E00016E6F03010001B5
:10289800D1C370F00001716B5DEC61F0000E0301B3
:1028A800D16F000E0301D06FF90E00017A6F420E4E
:1028B8000001796F88EC63F0E90E00017A6F0F0E62
:1028C8000001796F88EC63F03E0E31EC63F0000E86
:1028D80002018D6FE0EC65F09E9A9D8A30D0E00E83
:1028E80000016E6F930E00016F6F040E0001706F90
:1028F800000E0001716FA1EC60F002018D2B030145
:10290800D15102016E19D8B403D0000E02018D6FA7
:10291800190E02018D6511D0E90E00017A6F0F0EB4
:102928000001796F88EC63F0F00E00017C6F470EB0
:1029380000017B6F4CEC62F01200D1C36EF2030110
:10294800D051D8B4CCD70401040E00018A6F040119
:10295800B60E0001896F7DEC45F002018A6F020115
:102968008A51D8B4B2D002018A51020AD8A402D03E
:102978000301D12B0401040E00017B6F0401B60E84
:1029880000017A6F010E00017C6F0201020E000146
:102998007E6F02017D0E00017D6FAFEC38F00009FB
:1029A800D8A493D002018051800A800F0BE1000E59
:1029B80002017F5D07E1000E02017E5D03E1010E69
:1029C80002017D5DD8A081D07DC2B2F47EC2B3F48D
:1029D8007FC2B4F480C2B5F4020E0001A76F000EE6
:1029E8000001A86F000E0001A96F000E0001AA6F78
:1029F8002DEC52F0A7C0E3F0A8C0E4F0A9C0E5F0C0
:102A0800AAC0E6F00001E651E311E411E511D8A4EB
:102A18004BD06BEC66F0F00E00017C6FFA0E0001F3
:102A28007B6F4CEC62F00201020E0001BD6F0201E7
:102A3800000E0001BC6FF70E0001BF6FC90E000148
:102A4800BE6FB2C4C0F0B3C4C1F0B4C4C2F0B5C460
:102A5800C3F0F1EC1CF00201020E00017C6F0201D0
:102A6800000E00017B6FA4EC63F0E90E00017A6FA1
:102A78000F0E0001796F88EC63F0FD0E00017C6F8A
:102A88002A0E00017B6F4CEC62F0000E0201FB6F16
:102A980034EC5EF0E90E00017A6F0F0E0001796FD9
:102AA80088EC63F0FF001200F00E00017C6FCE0E80
:102AB80000017B6F4CEC62F0E90E00017A6F0F0E9B
:102AC8000001796F88EC63F01200F40E00017C6F4E
:102AD800E70E00017B6F4CEC62F0E90E00017A6FA3
:102AE8000F0E0001796F88EC63F01200F80E0001F8
:102AF8007C6FB20E00017B6F4CEC62F0E90E0001B6
:102B08007A6F0F0E0001796F88EC63F012000001F4
:102B1800E1C072F00001E0C071F0FB0E0001746FBB
:102B28000C0E0001736FE6EC5DF00009D8B471D1AA
:102B38000401040E00016F6F0401B60E00016E6FF0
:102B480003010001D1C370F00001716B5DEC61F00D
:102B5800000E0301D16F000E0301D06FE90E0001D2
:102B68007A6F0F0E0001796F88EC63F0F30E0001A5
:102B78007A6F170E0001796F88EC63F0E90E000197
:102B88007A6F0F0E0001796F88EC63F03E0EBFEC90
:102B980063F0000E02018D6FE0EC65F09E9A9D8A4D
:102BA80025D0E00E00016E6F930E00016F6F040ECA
:102BB8000001706F000E0001716FA1EC60F002015E
:102BC8008D2B190E02018D6511D0E90E00017A6F67
:102BD8000F0E0001796F88EC63F0EB0E00017C6F3B
:102BE800360E00017B6F4CEC62F012000301D051ED
:102BF800D8B4D7D79D9A0401B651590AD8B408D089
:102C08000401B651790AD8A4F3D00401B767F0D00B
:102C18000401040E00016F6F0401B60E00016E6F0F
:102C280003010001D1C370F00001716B5DEC61F02C
:102C3800000E0301D16F000E0301D06FE90E0001F1
:102C48007A6F0F0E0001796F88EC63F0F40E0001C3
:102C58007A6F5D0E0001796F88EC63F0E90E000170
:102C68007A6F0F0E0001796F88EC63F03E0E31EC3D
:102C780063F0000E02018D6FE0EC65F09E9A9D8A6C
:102C880028D0E00E00016E6F930E00016F6F040EE6
:102C98000001706F000E0001716FA1EC60F002017D
:102CA8008D2B0301D15102016E19D8B403D0000E47
:102CB80002018D6F190E02018D6509D0EB0E00011E
:102CC8007C6F360E00017B6F4CEC62F01200D1C3B2
:102CD8006EF20301D051D8B4D4D79D9AE90E000101
:102CE8007A6F0F0E0001796F88EC63F0E90E00012E
:102CF8007A6F0F0E0001796F88EC63F00401B6510A
:102D0800D8B465D00401CA6762D00401040E00017A
:102D1800716F0401B60E0001706F28EC64F00009B1
:102D2800D8B444D0EB0E00017C6FDB0E00017B6F42
:102D38004CEC62F0E90E00017A6F0F0E0001796F1A
:102D480088EC63F00401040E0001836F0401B60EE1
:102D58000001826F0301030E0001856F0301D20E8B
:102D68000001846F150E0001866F000E0001876F49
:102D780033EC4BF0500E00016E6FC30E00016F6F05
:102D8800000E0001706F000E0001716FA1EC60F081
:102D9800000E60EC2BF00009D8B404D0010E03013A
:102DA800CD6F1200000E0301CD6F1200F10E00016D
:102DB8007C6FFE0E00017B6F4CEC62F0E90E0001A7
:102DC8007A6F0F0E0001796F88EC63F01200E90E3C
:102DD80000017C6F120E00017B6F4CEC62F0E90E73
:102DE80000017A6F0F0E0001796F88EC63F0120012
:102DF800EB0E00017C6F360E00017B6F4CEC62F02D
:102E0800E90E00017A6F0F0E0001796F88EC63F00C
:102E180012000001E1C072F00001E0C071F0FF0E85
:102E28000001746F7E0E0001736FE6EC5DF000091F
:102E3800D8B433D0E90E00017A6F0F0E0001796F14
:102E480088EC63F00201020E0001BD6F0201000E62
:102E58000001BC6FFC0E0001BF6F5A0E0001BE6F6F
:102E680048EC5DF097C0C0F098C0C1F099C0C2F0BE
:102E7800F1EC1CF00201020E00017C6F0201000E51
:102E880000017B6FA4EC63F0E90E00017A6F0F0E6E
:102E98000001796F88EC63F012000001E1C072F064
:102EA8000001E0C071F0F40E0001746F9B0E000188
:102EB800736FE6EC5DF00009D8B4D7D0E90E0001D5
:102EC8007A6F0F0E0001796F88EC63F00201020E31
:102ED8000001BD6F0201000E0001BC6FFB0E000176
:102EE800BF6FF50E0001BE6FE80E0001C16FF30E53
:102EF8000001C06FF1EC1CF00201020E00017C6FB2
:102F08000201000E00017B6FA4EC63F0E90E0001E2
:102F18007A6F0F0E0001796F88EC63F0F70E0001ED
:102F28007C6F580E00017B6F4CEC62F0E90E0001DB
:102F38007A6F0F0E0001796F88EC63F0F90E0001CB
:102F48007C6FB90E00017B6F4CEC62F00201020E3F
:102F580000017C6F0201A20E00017B6FA4EC63F0FC
:102F68000201020E00017C6F0201C00E00017B6F9E
:102F7800A4EC63F0E90E00017A6F0F0E0001796F7F
:102F880088EC63F00201020E0001BD6F0201000E21
:102F98000001BC6FFD0E0001BF6F8F0E0001BE6FF8
:102FA800E90E0001C16F020E0001C06FF1EC1CF0C8
:102FB8000201020E00017C6F0201000E00017B6F0E
:102FC800A4EC63F00201020E0001BD6F0201000EC5
:102FD8000001BC6FF70E0001BF6FFF0E0001BE6F4E
:102FE800E70E0001C16F800E0001C06FF1EC1CF00C
:102FF8000201020E0001796F0201000E0001786FD4
:103008003DEC65F0E90E00017C6F0F0E00017B6F4F
:103018004CEC62F00201020E0001BD6F0201000ECD
:103028000001BC6FFC0E0001BF6FE10E0001BE6F16
:10303800B2C4C0F0B3C4C1F0B4C4C2F0B5C4C3F0E4
:10304800F1EC1CF00201020E0001796F0201000E82
:103058000001786F3DEC65F0E90E00017A6F0F0E04
:103068000001796F88EC63F012000001E1C06FF095
:103078000001E0C06EF0FF0E0001716FE50E000167
:10308800706FC8EC5FF00009D8B4D8EF1CF0E90EF7
:1030980000017A6F0F0E0001796F88EC63F07C0EE7
:1030A80031EC63F0000E0201996F05D07E0E31EC11
:1030B80063F00201992B4F0E02019965F7D77C0E38
:1030C80031EC63F0E90E00017A6F0F0E0001796FA1
:1030D80088EC63F07C0E31EC63F0000E0201996F0E
:1030E80005D07E0E31EC63F00201992B210E02010E
:1030F8009965F7D7F80E00017A6F280E0001796FED
:1031080088EC63F0000E0201996F05D07E0E31EC59
:1031180063F00201992B210E02019965F7D77C0E05
:1031280031EC63F0E90E00017A6F0F0E0001796F40
:1031380088EC63F07C0E31EC63F0000E0201996FAD
:1031480005D07E0E31EC63F00201992B4F0E02017F
:103158009965F7D77C0E31EC63F0E90E00017A6FC0
:103168000F0E0001796F88EC63F0E90E00017A6FA9
:103178000F0E0001796F88EC63F0E90E00017A6F99
:103188000F0E0001796F88EC63F0FD0E00018A6F65
:103198004D0E0001896FC6EC52F0FF0E00017C6FE6
:1031A800E50E00017B6FFF0E00017E6F500E0001DF
:1031B8007D6FF6EC53F0FF0E00017C6FC80E000126
:1031C8007B6FF50E00017E6FAB0E00017D6FF6EC94
:1031D80053F0F40E00017C6F9B0E00017B6FF40E20
:1031E80000017E6F800E00017D6FF6EC53F0FF0E3C
:1031F80000017C6F460E00017B6FFB0E00017E6FA5
:10320800220E00017D6FF6EC53F0FB0E00017C6F7F
:103218000C0E00017B6FF50E00017E6F2A0E000177
:103228007D6FF6EC53F0E90E00017A6F0F0E000186
:10323800796F88EC63F0FB0E00018A6F770E00014E
:10324800896FC6EC52F0FF0E00017C6F7E0E000104
:103258007B6FF70E00017E6F910E00017D6FF6EC1B
:1032680053F0E90E00017A6F0F0E0001796F88ECB8
:1032780063F0FE0E00018A6F4A0E0001896FC6ECEA
:1032880052F0010E0201996F38D00201020E0001BE
:103298006F6F0201000E00016E6F000E0001716F6A
:1032A800320E0001706F5DEC61F00201020E000148
:1032B800BD6F0201000E0001BC6FFD0E0001BF6F63
:1032C800AF0E0001BE6F0201000199C2C0F00001FB
:1032D800C16BF1EC1CF00201020E00017C6F0201CF
:1032E800000E00017B6FF80E00017E6F4F0E00018B
:1032F8007D6FF6EC53F00201992B0C0E02019965D3
:10330800C4D7010E0201996F38D00201020E0001E4
:103318006F6F0201000E00016E6F000E0001716FE9
:10332800320E0001706F5DEC61F00201020E0001C7
:10333800BD6F0201000E0001BC6FFC0E0001BF6FE3
:10334800CE0E0001BE6F0201000199C2C0F000015B
:10335800C16BF1EC1CF00201020E00017C6F02014E
:10336800000E00017B6FF90E00017E6F5A0E0001FE
:103378007D6FF6EC53F00201992B0C0E0201996552
:10338800C4D7E90E00017A6F0F0E0001796F88EC3F
:1033980063F0FE0E00017C6F050E00017B6F4CECA4
:1033A80062F0FF0E00017C6F300E00017B6FE90EAA
:1033B80000017E6FD10E00017D6FF6EC53F0FE0E1A
:1033C80000017C6FF90E00017B6FEE0E00017E6F2D
:1033D8006A0E00017D6FF6EC53F0FF0E00017C6F62
:1033E8000F0E00017B6FEE0E00017E6FCC0E000108
:1033F8007D6FF6EC53F0FF0E00017C6F1A0E000192
:103408007B6FEE0E00017E6FFD0E00017D6FF6EC06
:1034180053F0FE0E00017C6FEE0E00017B6FEE0E86
:1034280000017E6F390E00017D6FF6EC53F0FF0E40
:1034380000017C6F040E00017B6FEE0E00017E6FB1
:103448009B0E00017D6FF6EC53F0FF0E00017C6FC0
:10345800250E00017B6FEF0E00017E6F2E0E00011E
:103468007D6FF6EC53F0E90E00017A6F0F0E000144
:10347800796F88EC63F0FD0E00017C6FF70E000198
:103488007B6F4CEC62F0FE0E00017C6FBF0E0001FA
:103498007B6FEA0E00017E6FC20E00017D6FF6ECB5
:1034A80053F0FE0E00017C6FD70E00017B6FFF0EFC
:1034B80000017E6FE10E00017D6FF6EC53F0FE0E09
:1034C80000017C6FCB0E00017B6FEA0E00017E6F5E
:1034D800FC0E00017D6FF6EC53F0E90E00017A6FE7
:1034E8000F0E0001796F88EC63F0FE0E00017C6F0F
:1034F800A50E00017B6FF20E00017E6FF00E000139
:103508007D6FF6EC53F0FD0E00017C6F7F0E00011D
:103518007B6FF10E00017E6F7E0E00017D6FF6EC71
:1035280053F0E90E00017A6F0F0E0001796F88ECF5
:1035380063F0FE0E00017C6F050E00017B6F4CEC02
:1035480062F0FE0E00017C6F640E00017B6FEC0ED2
:1035580000017E6FA90E00017D6FF6EC53F0FE0EA0
:1035680000017C6F7E0E00017B6FED0E00017E6F07
:103578000D0E00017D6FF6EC53F0FE0E00017C6F1E
:103588008B0E00017B6FED0E00017E6F3F0E000178
:103598007D6FF6EC53F0FE0E00017C6F570E0001B4
:1035A8007B6FEC0E00017E6F770E00017D6FF6ECED
:1035B80053F0FE0E00017C6F710E00017B6FEC0E64
:1035C80000017E6FDB0E00017D6FF6EC53F0FE0EFE
:1035D80000017C6F980E00017B6FED0E00017E6F7D
:1035E800710E00017D6FF6EC53F0E90E00017A6F61
:1035F8000F0E0001796F88EC63F0FD0E00017C6FFF
:10360800F70E00017B6F4CEC62F0FD0E00017C6F41
:10361800CD0E00017B6FEA0E00017E6F4C0E00019B
:103628007D6FF6EC53F0FE0E00017C6F2F0E00014B
:103638007B6FFF0E00017E6FE10E00017D6FF6ECDF
:1036480053F0FD0E00017C6FE90E00017B6FEA0E5E
:1036580000017E6F870E00017D6FF6EC53F0E90ED6
:1036680000017A6F0F0E0001796F88EC63F0F70E96
:1036780000017C6FE40E00017B6FF20E00017E6F8B
:10368800790E00017D6FF6EC53F0FF0E00017C6FA0
:10369800D30E00017B6FF20E00017E6F790E0001E0
:1036A8007D6FF6EC53F0E90E00017A6F0F0E000102
:1036B800796F88EC63F0FE0E00018A6F3D0E000101
:1036C800896FC6EC52F0FF0E00017C6FA20E00015C
:1036D8007B6FF40E00017E6FC50E00017D6FF6EC66
:1036E80053F0E80E00017C6F760E00017B6FFC0E34
:1036F80000017E6F820E00017D6FF6EC53F0E80E3C
:1037080000017C6F850E00017B6FFC0E00017E6F4F
:10371800950E00017D6FF6EC53F0E80E00017C6F0A
:10372800940E00017B6FFC0E00017E6FA80E000155
:103738007D6FF6EC53F0E70E00017C6F5C0E000124
:103748007B6FFA0E00017E6FF60E00017D6FF6ECBE
:1037580053F0E70E00017C6F360E00017B6FF90E07
:1037680000017E6FD00E00017D6FF6EC53F0E70E7E
:1037780000017C6F6E0E00017B6FFC0E00017E6FF6
:10378800BB0E00017D6FF6EC53F0E70E00017C6F75
:10379800490E00017B6FFC0E00017E6F320E0001A6
:1037A8007D6FF6EC53F0E60E00017C6FFA0E000117
:1037B8007B6FF60E00017E6F490E00017D6FF6ECFF
:1037C80053F0E60E00017C6FBB0E00017B6FF50E17
:1037D80000017E6F4B0E00017D6FF6EC53F0E70E93
:1037E80000017C6F0E0E00017B6FF60E00017E6FEC
:1037F800680E00017D6FF6EC53F0E60E00017C6F59
:10380800D00E00017B6FF50E00017E6F6B0E00017C
:103818007D6FF6EC53F0E70E00017C6F220E00017D
:103828007B6FF60E00017E6F870E00017D6FF6EC50
:1038380053F0E60E00017C6FE50E00017B6FF50E7C
:1038480000017E6F8B0E00017D6FF6EC53F0E90EE0
:1038580000017A6F0F0E0001796F88EC63F0F40EA7
:1038680000017C6F170E00017B6F4CEC62F0EC0ED0
:1038780000017C6F440E00017B6F4CEC62F0FB0E84
:1038880000017C6F8C0E00017B6FF90E00017E6FCA
:10389800E70E00017D6FF6EC53F0FA0E00017C6F25
:1038A800880E00017B6FF80E00017E6FCA0E0001C2
:1038B8007D6FF6EC53F0FB0E00017C6FA10E00014A
:1038C8007B6FF90E00017E6FFE0E00017D6FF6EC36
:1038D80053F0FA0E00017C6F9E0E00017B6FF80E0C
:1038E80000017E6FE20E00017D6FF6EC53F0FB0ED7
:1038F80000017C6FB60E00017B6FFA0E00017E6F2F
:10390800150E00017D6FF6EC53F0FA0E00017C6F86
:10391800B40E00017B6FF80E00017E6FFA0E0001F5
:103928007D6FF6EC53F0FB0E00017C6FCB0E0001AF
:103938007B6FFA0E00017E6F2C0E00017D6FF6EC96
:1039480053F0FA0E00017C6FCA0E00017B6FF90E6E
:1039580000017E6F120E00017D6FF6EC53F0FB0E36
:1039680000017C6FE00E00017B6FFA0E00017E6F94
:10397800430E00017D6FF6EC53F0FA0E00017C6FE8
:10398800E00E00017B6FF90E00017E6F2A0E000128
:103998007D6FF6EC53F0E90E00017A6F0F0E00010F
:1039A800796F88EC63F01200E80E00017C6FC10E9D
:1039B80000017B6F4CEC62F0F80E00017C6F1A0E70
:1039C80000017B6F4CEC62F0E90E00017A6F0F0E7C
:1039D8000001796F88EC63F012000001000E01010C
:1039E800146F0001C00E0101136FCAEF24F001012A
:1039F8002451250AD8B40CD0BCC0D9FFBDC0DAFF09
:103A0800010124C1DFFF0001BC4BBD2BCAEF24F02C
:103A1800000E01011D6F000E01011C6F000E010157
:103A28001F6F000E01011E6F05D001011E850001E8
:103A3800BE4BBF2B0001BEC0F6FF0001BFC0F7FFA1
:103A4800F86A0800F550300AD8B4EFD70001BEC0B4
:103A5800F6FF0001BFC0F7FFF86A0800F550FDEC5B
:103A680064F0D8A013D1000E01011D6F000E0101F2
:103A78001C6F1CC17CF01DC17DF0000E00017F6F22
:103A88000A0E00017E6FDAEC63F000017CC01CF1C5
:103A980000017DC01DF1D00E0001CA6FFF0ECB6F73
:103AA8000001BEC0F6FF0001BFC0F7FFF86A0800BA
:103AB800F5500001CC6FCD6B0001CA510001CC2735
:103AC8000001CB510001CD230001CC5101011C277D
:103AD8000001CD5101011D230001BE4BBF2B000188
:103AE800BEC0F6FF0001BFC0F7FFF86A0800F55036
:103AF800FDEC64F0D8A0CAD0BCD701011E89C6D09D
:103B080001011F85F3D001011E8FF0D013C1D9FF29
:103B180014C1DAFF0101DECF20F10101DDCF21F16F
:103B2800020E01011327000E010114230101215186
:103B38002011D8A406D0FF0E0101216F860E0101C5
:103B4800206F000E0101236F000E0101226F03D0C8
:103B58000101224B232B010120C1CAF0010121C11F
:103B6800CBF0010122510001CA27010123510001B4
:103B7800CB23CAC0F6FFCBC0F7FF000EF86E0F0EBE
:103B8800F76403D00800F55005D0F6CFE9FFF7CF6A
:103B9800EAFFEF500009D8A4DBD701011C5101014D
:103BA800225D01011D5101012359D8B00AD001013C
:103BB80021EE22F0DE5001011C5FDD5001011D5B8A
:103BC80010D0000E01011D6F000E01011C6F09D0FD
:103BD800BCC0D9FFBDC0DAFF200EDF6E0001BC4BB0
:103BE800BD2B01011C07D8A01D0701011C29D8B451
:103BF8001D29D8B41FD0ECD7010120C1F6FF01015F
:103C080021C1F7FF000EF86EBCC0D9FFBDC0DAFFB6
:103C18000F0EF76403D00800F55005D0F6CFE9FF82
:103C2800F7CFEAFFEF50DF6E0101204B212B000197
:103C3800BC4BBD2B01012207D8A023070101222973
:103C4800D8B42329D8B4CAEF24F0D6D713C1D9FFE2
:103C580014C1DAFFDF500101246F020E010113279E
:103C6800000E010114230101010E0101216F010160
:103C7800240E0101206F000E0101236F010E0101C6
:103C8800226F8BD7C00E01011E1330D00001BEC0B9
:103C9800F6FF0001BFC0F7FF0001BE4BBF2BF86A5B
:103CA80008000101F5CF24F101012451000AD8B41C
:103CB800DCEF24F0580AD8B426D73B0AD8B4C6D7C4
:103CC800070AD8B413D0020AD8B41AD70F0AD8B43E
:103CD8000DD0050AD8B411D71F0AD8B417D7060AC9
:103CE800D8B4D0D70D0AD8B40ED7BDD7070E010166
:103CF8001F15D8B4F5D3000E0101166F060E010189
:103D0800156F13C1D9FF14C1DAFF0101DECF19F114
:103D18000101DECF1AF10101DDCF1BF1030E010114
:103D28001327000E0101142301011B51800A800F83
:103D380007E1000E01011A5D03E1000E0101195DA2
:103D4800D8B011D019C16EF01AC16FF01BC170F054
:103D58005AEC64F06EC019F16FC01AF170C01BF113
:103D6800030E01011E13000E0101186F000E010160
:103D7800176F7F0E01011B1501011A11010119119D
:103D8800D8B4AAD0820E0001CA6FFF0ECB6F010112
:103D980019C1CCF001011AC1CDF001011BC1CEF04F
:103DA80001011CC1CFF0100E06D00001D890CF330E
:103DB800CE33CD33CC33E82EF8D70001CC510001F7
:103DC800CA250101176F000E0001CB210101186FF0
:103DD80001011707D8A0180717C17CF018C17DF09A
:103DE800000E00017F6F030E00017E6FDAEC63F0B6
:103DF80000017CC017F100017DC018F117C174F0F3
:103E080018C175F0000E0001776F0A0E0001766F79
:103E1800AAEC58F0000174C017F1000175C018F140
:103E280001011851800AF36E800EF35C000ED8B4BD
:103E3800175DD8B004D001011707D8A018070101F1
:103E48001751000830EC33F097C010F198C011F109
:103E580099C012F110C188F011C189F012C18AF01D
:103E680019C18BF01AC18CF01BC18DF02FEC4EF0EC
:103E780088C010F189C011F18AC012F110C16EF02A
:103E880011C16FF012C170F0000E0001716F800E49
:103E98000001726F3F0E0001736FF3EC59F0D8B058
:103EA80005D001011707D8A0180716D010C16EF069
:103EB80011C16FF012C170F0000E0001716F200E79
:103EC8000001726F410E0001736FF3EC59F0D8A036
:103ED80003D00101174B182B01011651800AF36E0C
:103EE800800EF35C0D0ED8B4155DD8B018D019C18A
:103EF800A1F01AC1A2F01BC1A3F0010115512EECCB
:103F080041F097C0A4F098C0A5F099C0A6F03DEC88
:103F180044F0A1C019F1A2C01AF1A3C01BF101011C
:103F28001851800AF36E800EF35C0A0ED8B4175D40
:103F3800D8B029D07F0E01011B1501011A1101010A
:103F48001911D8B46FD019C1ADF01AC1AEF01BC1A8
:103F5800AFF0B4EC4CF0ADC0CAF0AEC0CBF0AFC01F
:103F6800CCF0B0C0CDF00001CD51CA11CB11CC11AD
:103F7800D8A458D001011851800A800F020ED8B475
:103F8800175DD8A04FD010C16EF011C16FF012C1EB
:103F980070F0700E0001716F890E0001726F400E93
:103FA8000001736FF3EC59F0D8B003D00101F70E9C
:103FB80002D00101F80E01011727FF0E0101182395
:103FC8000101175130EC33F097C010F198C011F18E
:103FD80099C012F119C16EF01AC16FF01BC170F0CF
:103FE80010C171F011C172F012C173F0C2EC47F048
:103FF8006EC003F16FC004F170C005F171C006F125
:1040080003C120F104C121F105C122F106C123F148
:10401800000E0101196F000E01011A6F000E010157
:104028001B6F34D019C1ADF01AC1AEF01BC1AFF08F
:10403800B4EC4CF0ADC020F1AEC021F1AFC022F11C
:10404800B0C023F119C1ADF01AC1AEF01BC1AFF079
:1040580020C176F021C177F022C178F023C179F030
:1040680089EC5FF076C0B0F077C0B1F078C0B2F0FC
:1040780013EC63F0ADC019F1AEC01AF1AFC01BF17B
:10408800000E0101186F000E0101176F010E0101EA
:10409800246F010124510A0AD8B421D00101245106
:1040A800040D8B0EF324F66EDE0EF420F76EF86A1C
:1040B800000EF8220900F5500101205D0900F550B5
:1040C800010121590900F550010122590900F55053
:1040D80001012359D8A003D00101242BDAD701010B
:1040E80024C1CAF00001CB6BCABFCB07010115512F
:1040F8000001CA27010116510001CB230101175104
:104108000001CA27010118510001CB230001CA513F
:1041180001011C5F0001CB5101011D5B010116511A
:104128001511D8B404D001011C07D8A01D07030E2F
:1041380001011E150001CA6F000E01011F150001C3
:10414800CB6F0001CB51CA11D8B404D001011C07B0
:10415800D8A01D0701011EA53FD0030E01011E15A1
:104168000001CA6F000E01011F150001CB6F00018D
:10417800CB51CA11D8B417D0BCC0D9FFBDC0DAFF23
:104188002D0EDF6E0001BC4BBD2B0DD0BCC0D9FF7E
:10419800BDC0DAFF300EDF6E0001BC4BBD2B010144
:1041A8001C07D8A01D0701011D51800AF36E800E5F
:1041B800F35C010ED8B41C5DD8A085D0E7D7BCC08D
:1041C800D9FFBDC0DAFF200EDF6E0001BC4BBD2B4E
:1041D80001011C07D8A01D0701011D51800AF36EBB
:1041E800800EF35C010ED8B41C5DD8B0E8D7030E7E
:1041F80001011E150001CA6F000E01011F15000103
:10420800CB6F0001CB51CA11D8B45DD0BCC0D9FF67
:10421800BDC0DAFF2D0E53D020C16EF021C16FF062
:1042280022C170F023C171F001012451040D8B0EDD
:10423800F324F66EDE0EF420F76EF86A000EF8220C
:1042480009000001F5CF72F009000001F5CF73F005
:1042580009000001F5CF74F00A000001F5CF75F0F0
:1042680089EC59F06EC008F16FC009F170C00AF10D
:1042780071C00BF108C17BF009C17CF00AC17DF067
:104288000BC17EF00A0E00017F6F000E0001806FE7
:10429800000E0001816F000E0001826FF6EC5CF0E9
:1042A8007BC008F17CC009F17DC00AF17EC00BF12A
:1042B80001010851300FBCC0D9FFBDC0DAFFDF6E65
:1042C8000001BC4BBD2B0101240701012429D8B4EE
:1042D8000ED0A2D7BCC0D9FFBDC0DAFF300EDF6E4A
:1042E8000001BC4BBD2B01011707D8A0180701011D
:1042F8001851800AF36E800EF35C010ED8B4175D76
:10430800D8B0E8D701011651800A800F090ED8B439
:10431800155DD8A004D0080E0101246F02D015C184
:1043280024F1010124510101155F000E010124BF90
:10433800FF0E0101165B01012451D8B409D0BCC09D
:10434800D9FFBDC0DAFF2E0EDF6E0001BC4BBD2BBE
:104358000101245130EC33F097C000F198C001F10D
:1043680099C002F119C18BF01AC18CF01BC18DF0F4
:1043780000C188F001C189F002C18AF02FEC4EF02B
:1043880088C0ADF089C0AEF08AC0AFF0B4EC4CF094
:10439800ADC020F1AEC021F1AFC022F1B0C023F111
:1043A80085D020C16EF021C16FF022C170F023C109
:1043B80071F001012451040D8B0EF324F66EDE0E0C
:1043C800F420F76EF86A000EF82209000001F5CF14
:1043D80072F009000001F5CF73F009000001F5CF74
:1043E80074F00A000001F5CF75F089EC59F06EC041
:1043F8000CF16FC00DF170C00EF171C00FF10CC15E
:104408007BF00DC17CF00EC17DF00FC17EF00A0E6D
:1044180000017F6F000E0001806F000E0001816FA8
:10442800000E0001826FF6EC5CF07BC00CF17CC0E2
:104438000DF17DC00EF17EC00FF101010C51300F5E
:10444800BCC0D9FFBDC0DAFFDF6E0001BC4BBD2B7D
:1044580020C17BF021C17CF022C17DF023C17EF018
:1044680001012451040D8B0EF324F66EDE0EF420A8
:10447800F76EF86A000EF82209000001F5CF7FF008
:1044880009000001F5CF80F009000001F5CF81F0A7
:104498000A000001F5CF82F0F6EC5CF07BC020F159
:1044A8007CC021F17DC022F17EC023F101012407E7
:1044B80001012429D8B40ED074D7BCC0D9FFBDC01F
:1044C800DAFF300EDF6E0001BC4BBD2B0101150772
:1044D800D8A01607010116511511D8B457D2EDD737
:1044E800C00E01011E150001CA6F000E01011F1543
:1044F8000001CB6F0001CB51CA11D8A453D00101E0
:104508001EA912D013C1D9FF14C1DAFF0101DECFF1
:1045180020F10101DECF21F10101DECF22F10101FD
:10452800DECF23F1040E14D013C1D9FF14C1DAFF72
:104538000101DECF20F10101DDCF21F10101000EE3
:10454800010121BFFF0E0101226F0101236F020E3D
:1045580001011327000E0101142301012351800AD0
:10456800800F0BE1000E0101225D07E1000E010141
:10457800215D03E1000E0101205DD8B093D0030E48
:1045880001011E130101231F0101221F0101211F27
:104598000101206D000E01012123010122230101E7
:1045A800232380D001011EA912D013C1D9FF14C141
:1045B800DAFF0101DECF20F10101DECF21F1010197
:1045C800DECF22F10101DECF23F1040E13D013C197
:1045D800D9FF14C1DAFFDECFCAF0DDCFCBF001017D
:1045E800CAC020F10101CBC021F10101226B0101F8
:1045F800236B020E01011327000E0101142352D070
:10460800010E0101246F010124510A0AD8B456D0C1
:1046180001012451040D8B0EF324F66EDE0EF420F6
:10462800F76EF86A000EF8220900F5500101205DC6
:104638000900F550010121590900F55001012259DD
:104648000900F55001012359D8A038D00101242BC5
:10465800DAD7010E0101246F01012451080AD8B4E8
:104668002DD001012451040D010EF324F66EDF0E46
:10467800F420F76EF86A000EF8220900F5500101DF
:10468800205D0900F550010121590900F55001018B
:1046980022590900F55001012359D8A00FD0010172
:1046A800242BDAD701011E51C00B000AD8B4A8D7B1
:1046B800800AD8B4CED7400AD8B4A2D701011D5178
:1046C8001C11D8B413D0030E01011E150001CA6FC6
:1046D800000E01011F150001CB6F0001CB51CA115B
:1046E800D8B404D001011C07D8A01D07800E010111
:1046F80024BF7F0E0001CA6F01011C510101245D16
:1047080001011D51800A0001CA59D8B00BD001011E
:10471800245101011C5F000E010124BFFF0E01019D
:104728001D5B06D0000E01011D6F000E01011C6FFC
:1047380001011EA52CD0030E01011E150001CA6F30
:10474800000E01011F150001CB6F0001CB51CA11EA
:10475800D8B409D0BCC0D9FFBDC0DAFF2D0EDF6EBA
:104768000001BC4BBD2B010101011D511C11D8B426
:104778003DD0BCC0D9FFBDC0DAFF300EDF6E0001EE
:10478800BC4BBD2B01011C07D8A01D07EDD70101AB
:104798001D511C11D8B412D0BCC0D9FFBDC0DAFF5E
:1047A800200EDF6E0001BC4BBD2B01011C07D8A0F9
:1047B8001D0701011D511C11D8A4EED7030E0101DC
:1047C8001E150001CA6F000E01011F150001CB6FF5
:1047D8000001CB51CA11D8B409D0BCC0D9FFBDC0A3
:1047E800DAFF2D0EDF6E0001BC4BBD2B01012451F9
:1047F8000101156F0101166B010115BF1607BCD029
:10480800010115C1CAF0010116C1CBF00001D89011
:10481800CA37CB370001D890CA37CB378B0E000187
:10482800CA25F66EDE0ECB21F76EF86A000EF82266
:1048380009000001F5CF72F009000001F5CF73F00F
:1048480009000001F5CF74F00A000001F5CF75F0FA
:1048580020C16EF021C16FF022C170F023C171F048
:1048680089EC59F06EC07BF06FC07CF070C07DF0B1
:1048780071C07EF00A0E00017F6F000E0001806F8C
:10488800000E0001816F000E0001826FF6EC5CF0F3
:104898007BC0CCF07CC0CDF07DC0CEF07EC0CFF028
:1048A8000001CC51300F0101246F5CD020C16EF0A3
:1048B80021C16FF022C170F023C171F0010115C14F
:1048C800CAF0010116C1CBF00001D890CA37CB3726
:1048D8000001D890CA37CB37010E0001CA25F66E01
:1048E800DF0ECB21F76EF86A000EF82209000001EE
:1048F800F5CF72F009000001F5CF73F0090000014F
:10490800F5CF74F00A000001F5CF75F089EC59F085
:104918006EC0CCF06FC0CDF070C0CEF071C0CFF0DB
:104928000001CC510F0B0101076F01010751010D67
:104938003C0EF324F66EFD0EF420F76EF86A000EB6
:10494800F82208000101F5CF24F10CD001011E5115
:10495800C00B000AD8B454D7800AD8B4A7D7400AE5
:10496800D8B44ED7BCC0D9FFBDC0DAFF010124C1FD
:10497800DFFF0001BC4BBD2B01011507D8A01607AE
:1049880001011529D8B41629D8A4E0D70001BEC062
:10499800F6FF0001BFC0F7FF0001BE4BBF2BF86A4E
:1049A80008000101F5CF24F101012467FBEF1CF099
:1049B800BCC0D9FFBDC0DAFF000EDF6E1200000ECA
:1049C80000017A6F000E00017B6F000E00017C6F02
:1049D800000E00017D6F010E00016E150001726F5F
:1049E800000E00016F150001736F000E00017015B5
:1049F8000001746F000E000171150001756F1F0E24
:104A0800D89000017237733774377537E82EF8D7A6
:104A18000001725100017A270001735100017B23C4
:104A28000001745100017C230001755100017D23B0
:104A3800020E00016E150001726F000E00016F1565
:104A48000001736F000E000170150001746F000EF5
:104A5800000171150001756F1D0ED89000017237A5
:104A6800733774377537E82EF8D700017251000193
:104A78007A270001735100017B2300017451000162
:104A88007C230001755100017D23040E00016E1581
:104A98000001726F000E00016F150001736F000EA8
:104AA800000170150001746F000E000171150001FE
:104AB800756F1B0ED89000017237733774377537CE
:104AC800E82EF8D70001725100017A2700017351CE
:104AD80000017B230001745100017C230001755102
:104AE80000017D23080E00016E150001726F000E93
:104AF80000016F150001736F000E000170150001B1
:104B0800746F000E000171150001756F190ED890B1
:104B180000017237733774377537E82EF8D70001FC
:104B2800725100017A270001735100017B230001B3
:104B3800745100017C230001755100017D23100E82
:104B480000016E150001726F000E00016F15000163
:104B5800736F000E000170150001746F000E0001E4
:104B680071150001756F170ED890000172377337F1
:104B780074377537E82EF8D70001725100017A278B
:104B88000001735100017B230001745100017C2353
:104B98000001755100017D23200E00016E150001F2
:104BA800726F000E00016F150001736F000E000197
:104BB80070150001746F000E000171150001756F0A
:104BC800150ED89000017237733774377537E82E91
:104BD800F8D70001725100017A27000173510001D2
:104BE8007B230001745100017C23000175510001F1
:104BF8007D23400E00016E150001726F000E00014A
:104C08006F150001736F000E000170150001746FBD
:104C1800000E000171150001756F130ED890000188
:104C28007237733774377537E82EF8D70001725129
:104C380000017A270001735100017B2300017451A0
:104C480000017C230001755100017D23800E0001C5
:104C58006E150001726F000E00016F150001736F71
:104C6800000E000170150001746F000E000171152F
:104C78000001756F110ED8900001723773377437C1
:104C88007537E82EF8D70001725100017A27000124
:104C9800735100017B230001745100017C23000142
:104CA800755100017D23000E00016E150001726F21
:104CB800010E00016F150001736F000E00017015E1
:104CC8000001746F000E000171150001756F0F0E61
:104CD800D89000017237733774377537E82EF8D7D4
:104CE8000001725100017A270001735100017B23F2
:104CF8000001745100017C230001755100017D23DE
:104D0800000E00016E150001726F020E00016F1592
:104D18000001736F000E000170150001746F000E22
:104D2800000171150001756F0D0ED89000017237E2
:104D3800733774377537E82EF8D7000172510001C0
:104D48007A270001735100017B230001745100018F
:104D58007C230001755100017D23000E00016E15B2
:104D68000001726F040E00016F150001736F000ED1
:104D7800000170150001746F000E0001711500012B
:104D8800756F0B0ED890000172377337743775370B
:104D9800E82EF8D70001725100017A2700017351FB
:104DA80000017B230001745100017C23000175512F
:104DB80000017D23000E00016E150001726F080EC0
:104DC80000016F150001736F000E000170150001DE
:104DD800746F000E000171150001756F090ED890EF
:104DE80000017237733774377537E82EF8D700012A
:104DF800725100017A270001735100017B230001E1
:104E0800745100017C230001755100017D23000EBF
:104E180000016E150001726F100E00016F15000180
:104E2800736F000E000170150001746F000E000111
:104E380071150001756F070ED8900001723773372E
:104E480074377537E82EF8D70001725100017A27B8
:104E58000001735100017B230001745100017C2380
:104E68000001755100017D23000E00016E1500013F
:104E7800726F200E00016F150001736F000E0001A4
:104E880070150001746F000E000171150001756F37
:104E9800050ED89000017237733774377537E82ECE
:104EA800F8D70001725100017A27000173510001FF
:104EB8007B230001745100017C230001755100011E
:104EC8007D23000E00016E150001726F400E000177
:104ED8006F150001736F000E000170150001746FEB
:104EE800000E000171150001756F030ED8900001C6
:104EF8007237733774377537E82EF8D70001725157
:104F080000017A270001735100017B2300017451CD
:104F180000017C230001755100017D23000E000172
:104F28006E150001726F800E00016F150001736F1E
:104F3800000E000170150001746F000E000171155C
:104F48000001756FD890000172350001766F00017D
:104F580073350001776F000174350001786F000127
:104F680075350001796F0001765100017A2700013B
:104F7800775100017B230001785100017C23000157
:104F8800795100017D2300016EC072F000016FC0ED
:104F980073F0000170C074F0000171C075F0000179
:104FA800D8907533743373337233000E0001721561
:104FB8000001766F800E000173150001776F000EF7
:104FC800000174150001786F000E000175150001CD
:104FD800796F0001765100017A27000177510001AD
:104FE8007B230001785100017C23000179510001E5
:104FF8007D2300016EC072F000016FC073F00001E4
:1050080070C074F0000171C075F0040E06D0000184
:10501800D8907533743373337233E82EF8D7000E93
:10502800000172150001766F400E00017315000132
:10503800776F000E000174150001786F000E0001F3
:1050480075150001796F0001765100017A2700017A
:10505800775100017B230001785100017C23000176
:10506800795100017D2300016EC072F000016FC00C
:1050780073F0000170C074F0000171C075F0060E85
:1050880006D00001D8907533743373337233E82E29
:10509800F8D7000E000172150001766F200E00018E
:1050A80073150001776F000E000174150001786F09
:1050B800000E000175150001796F0001765100019D
:1050C8007A270001775100017B2300017851000104
:1050D8007C230001795100017D2300016EC072F02C
:1050E80000016FC073F0000170C074F0000171C05E
:1050F80075F0080E06D00001D890753374337333F9
:105108007233E82EF8D7000E000172150001766F91
:10511800100E000173150001776F000E0001741561
:105128000001786F000E000175150001796F00010C
:10513800765100017A270001775100017B23000195
:10514800785100017C230001795100017D23000181
:105158006EC072F000016FC073F0000170C074F08F
:10516800000171C075F00A0E06D00001D8907533A1
:10517800743373337233E82EF8D7000E00017215BA
:105188000001766F080E000173150001776F000E9D
:10519800000174150001786F000E000175150001FB
:1051A800796F0001765100017A27000177510001DB
:1051B8007B230001785100017C2300017951000113
:1051C8007D2300016EC072F000016FC073F0000112
:1051D80070C074F0000171C075F00C0E06D00001AB
:1051E800D8907533743373337233E82EF8D7000EC2
:1051F800000172150001766F040E0001731500019D
:10520800776F000E000174150001786F000E000121
:1052180075150001796F0001765100017A270001A8
:10522800775100017B230001785100017C230001A4
:10523800795100017D2300016EC072F000016FC03A
:1052480073F0000170C074F0000171C075F00E0EAB
:1052580006D00001D8907533743373337233E82E57
:10526800F8D7000E000172150001766F020E0001DA
:1052780073150001776F000E000174150001786F37
:10528800000E000175150001796F000176510001CB
:105298007A270001775100017B2300017851000132
:1052A8007C230001795100017D2300016EC072F05A
:1052B80000016FC073F0000170C074F0000171C08C
:1052C80075F0100E06D00001D8907533743373331F
:1052D8007233E82EF8D7000E000172150001766FC0
:1052E800010E000173150001776F000E000174159F
:1052F8000001786F000E000175150001796F00013B
:10530800765100017A270001775100017B230001C3
:10531800785100017C230001795100017D230001AF
:105328006EC072F000016FC073F0000170C074F0BD
:10533800000171C075F0120E06D00001D8907533C7
:10534800743373337233E82EF8D7800E0001721568
:105358000001766F000E000173150001776F000ED3
:10536800000174150001786F000E00017515000129
:10537800796F0001765100017A2700017751000109
:105388007B230001785100017C2300017951000141
:105398007D2300016EC072F000016FC073F0000140
:1053A80070C074F0000171C075F0140E06D00001D1
:1053B800D8907533743373337233E82EF8D7400EB0
:1053C800000172150001766F000E000173150001CF
:1053D800776F000E000174150001786F000E000150
:1053E80075150001796F0001765100017A270001D7
:1053F800775100017B230001785100017C230001D3
:10540800795100017D2300016EC072F000016FC068
:1054180073F0000170C074F0000171C075F0160ED1
:1054280006D00001D8907533743373337233E82E85
:10543800F8D7200E000172150001766F000E0001EA
:1054480073150001776F000E000174150001786F65
:10545800000E000175150001796F000176510001F9
:105468007A270001775100017B2300017851000160
:105478007C230001795100017D2300016EC072F088
:1054880000016FC073F0000170C074F0000171C0BA
:1054980075F0180E06D00001D89075337433733345
:1054A8007233E82EF8D7100E000172150001766FDE
:1054B800000E000173150001776F000E00017415CE
:1054C8000001786F000E000175150001796F000169
:1054D800765100017A270001775100017B230001F2
:1054E800785100017C230001795100017D230001DE
:1054F8006EC072F000016FC073F0000170C074F0EC
:10550800000171C075F01A0E06D00001D8907533ED
:10551800743373337233E82EF8D7080E000172150E
:105528000001766F000E000173150001776F000E01
:10553800000174150001786F000E00017515000157
:10554800796F0001765100017A2700017751000137
:105558007B230001785100017C230001795100016F
:105568007D2300016EC072F000016FC073F000016E
:1055780070C074F0000171C075F01C0E06D00001F7
:10558800D8907533743373337233E82EF8D7040E1A
:10559800000172150001766F000E000173150001FD
:1055A800776F000E000174150001786F000E00017E
:1055B80075150001796F0001765100017A27000105
:1055C800775100017B230001785100017C23000101
:1055D800795100017D2300016EC072F000016FC097
:1055E80073F0000170C074F0000171C075F01E0EF8
:1055F80006D00001D8907533743373337233E82EB4
:10560800F8D7020E000172150001766F000E000136
:1056180073150001776F000E000174150001786F93
:10562800000E000175150001796F00017651000127
:105638007A270001775100017B230001785100018E
:105648007C230001795100017D23000E00016E15B5
:105658000001726F000E00016F150001736F000EDC
:10566800000170150001746F800E000171150001B2
:10567800756F200E06D00001D890753374337333DC
:105688007233E82EF8D70001725100017A27000121
:10569800735100017B230001745100017C23000138
:1056A800755100017D237AC06EF07BC06FF07CC01D
:1056B80070F07DC071F012000101DC6F010E010174
:1056C800DE6F000E0101DF6F000E0101DD6F010EBC
:1056D8000101DB6F0101010E00016F6F0101A90ECD
:1056E80000016E6F000E0001716F320E0001706FC5
:1056F8005DEC61F00101010E00016F6F0101940E74
:1057080000016E6F000E0001716F150E0001706FC1
:105718005DEC61F00101010E00016F6F0101580E8F
:1057280000016E6F000E0001716F1E0E0001706F98
:105738005DEC61F00101010E00016F6F0101760E51
:1057480000016E6F000E0001716F1E0E0001706F78
:105758005DEC61F066EC4AF00009D8A402D0000EB6
:1057680012000501050E00016F6F0501500E0001C2
:105778006E6F00014CC070F00001716B5DEC61F060
:10578800000E4C6EE0EC65F09E9A9D8AFF0E0001BB
:105798007A6FFC0E0001796F88EC63F0500E0001FF
:1057A8006E6FC30E00016F6F000E0001706F000E68
:1057B8000001716FA1EC60F09D9A000E0101DF6F8E
:1057C80088D00101DB05D8A43FD00101DF51010DCC
:1057D8000501500EF324D96E0501050EF420DA6E8A
:1057E800DF500A0AD8B40ED00101DF51010D0501BE
:1057F800500EF324D96E0501050EF420DA6E0D0E55
:10580800DF6204D0000E0101DB6F61D01D0E0101C3
:10581800DF5DD8B05CD00101DF51010D0501500EEC
:10582800F324D96E0501050EF420DA6E0101DF516B
:10583800010D0101580EF324E16E0101010EF4205F
:10584800E26EDFCFE7FF43D00101DF51010D050113
:10585800500EF324D96E0501050EF420DA6EDF50E0
:105868000A0AD8B42FD00101DF51010D0501500EED
:10587800F324D96E0501050EF420DA6EDF500D0A07
:10588800D8B420D01D0E0101DD5DD8B018D00101BB
:10589800DF51010D0501500EF324D96E0501050EE7
:1058A800F420DA6E0101DD51010D0101760EF324B9
:1058B800E16E0101010EF420E26EDFCFE7FF010186
:1058C800DD2B05D0020E0101DD6501D006D00101F6
:1058D800DF2B3B0E0101DF6574D701015851D8B4A5
:1058E80003D00101766704D0000E0101DE6F50D0AD
:1058F8000201020E00016F6F0201A20E00016E6F1D
:10590800000E0001716F1E0E0001706F5DEC61F0FA
:105918000201020E00016F6F0201C00E00016E6FDE
:10592800000E0001716F1E0E0001706F5DEC61F0DA
:105938000101010E0001836F0101580E0001826F01
:105948000201020E0001856F0201A20E0001846FA0
:105958001E0E0001866F000E0001876F33EC4BF0BE
:105968000101010E0001836F0101760E0001826FB3
:105978000201020E0001856F0201C00E0001846F52
:105988001E0E0001866F000E0001876F33EC4BF08E
:105998000501050E00016F6F0501500E00016E6FC5
:1059A80000014CC070F00001716B5DEC61F0000EFD
:1059B8004C6E0101DC51D8B45CD00101DE51D8B481
:1059C800D4D00101010E0001BD6F0101A90E000133
:1059D800BC6FF80E0001BF6F9A0E0001BE6FB2C413
:1059E800C0F0B3C4C1F0B4C4C2F0B5C4C3F0F1ECA4
:1059F8001CF0E0EC65F09E9A9D8A0101010E000101
:105A0800796F0101A90E0001786F3DEC65F0500E29
:105A180000016E6FC30E00016F6F000E0001706F02
:105A2800000E0001716FA1EC60F09D9A0101010E5A
:105A38000001BD6F0101A90E0001BC6FFF0E00013E
:105A4800BF6FF50E0001BE6FF1EC1CF00501050EED
:105A580000016F6F0501500E00016E6F0101010E0C
:105A68000001716F0101A90E0001706F5EEC53F027
:105A780076D00101DE51D8B478D00301E66772D040
:105A88000301030E0001836F0301D20E0001826F30
:105A98000101010E0001856F0101940E0001846F60
:105AA800150E0001866F000E0001876F33EC4BF076
:105AB8000101010E0001BD6F0101A90E0001BC6FBB
:105AC800FF0E0001BF6F8D0E0001BE6F0101010EB8
:105AD8000001C16F0101940E0001C06FF1EC1CF0D0
