:04000000A3EF00F07A
:10000800FACF7BF0FBCF7CF0E9CF7DF0FCEF0BF073
:10001800D8CF02F0E8CF03F0E0CF04F0FACF05F034
:10002800FBCF06F0E9CF07F0EACF08F0E1CF09F0FF
:10003800E2CF0AF0D9CF0BF0DACF0CF0F3CF0DF006
:10004800F4CF0EF0F6CF0FF0F7CF10F0F8CF11F095
:10005800F5CF12F0000E136EF29E9EAA3FD04AEC26
:100068001EF0136E9CEC1EF00009D8A40FD0472890
:10007800D8B432D04750010D000EF324D96E020EC9
:10008800F420DA6E13C0DFFF472A26D0135028EC7D
:100098001EF00009D8B420D00D0E1318D8B416D00D
:1000A8000A0E1318D8B412D04928D8B415D048501D
:1000B800D8A412D04950010D000EF324D96E030EB6
:1000C800F420DA6E13C0DFFF492A06D04950D8B4AD
:1000D80003D0010E486E00D09E9A0DD09EA00BD082
:1000E8004A2A030E4A18D8A404D08B948B92CD9038
:1000F80000D09E9000D0F28E12C0F5FF11C0F8FF1C
:1001080010C0F7FF0FC0F6FF0EC0F4FF0DC0F3FFDD
:100118000CC0DAFF0BC0D9FF0AC0E2FF09C0E1FF3B
:1001280008C0EAFF07C0E9FF06C0FBFF05C0FAFFE9
:1001380004C0E0FF03C0E8FF02C0D8FF1000EBEFE7
:0201480017F0AE
:1010000000010000000A00000064000000E8030086
:101010000010270000A086010040420F0080969833
:101020000000E1F50500CA9A3B312E305F4457308D
:10103000610042544E616D653D486F6D652041759C
:10104000746F6D6174696F6E20256C640D00534E72
:101050002C486F6D65204175746F6D6174696F6E9A
:1010600020256C640D0053532C20486F6D65204182
:1010700075746F6D6174696F6E0D0053592C30304B
:1010800031300D00537E2C300D002D2D2D0D0044E0
:101090002C300D0024242400434D4400454E4400D0
:1010A000414F4B000000010E0401326F000E0001A1
:1010B0008C6F040E00018D6F000E00018F6F320ED9
:1010C0008E6F5AEC1BF002EC16F00009D8B4120037
:1010D00001D01200000E0101CE6F040E0101CF6F8E
:1010E0004E0E0101D06F100E0101D16FC2C1D2F1BD
:1010F000C3C1D3F1C4C1D4F1C5C1D5F103EC0FF024
:10110000000E00018D6F040E00018E6F87EC1BF046
:10111000500E00018C6FC30E8D6F000E8E6F000E8F
:101120008F6FC2EC1AF0000E00018C6F020E0001EE
:101130008D6FA00E00018E6F100E00018F6F8FEC6F
:1011400018F00009D8A404D0000E0401326F00D0BA
:10115000000E00018C6F020E00018D6F47C08EF0F3
:1011600000018F6B5AEC1BF0000E476E04013251E8
:101170000401D8B428D0660E00018D6F100E000156
:101180008E6F87EC1BF0500E00018C6FC30E8D6FBD
:10119000000E8E6F000E8F6FC2EC1AF0000E000171
:1011A0008C6F020E00018D6FA00E00018E6F100E6D
:1011B00000018F6F8FEC18F00009D8A404D0000E46
:1011C0000401326F00D0000E00018C6F020E00018E
:1011D0008D6F47C08EF000018F6B5AEC1BF0000E34
:1011E000476E040132510401D8B428D07B0E0001AF
:1011F0008D6F100E00018E6F87EC1BF0500E0001FA
:101200008C6FC30E8D6F000E8E6F000E8F6FC2EC51
:101210001AF0000E00018C6F020E00018D6FA00EFF
:1012200000018E6F100E00018F6F8FEC18F0000917
:10123000D8A404D0000E0401326F00D0000E0001CB
:101240008C6F020E00018D6F47C08EF000018F6B16
:101250005AEC1BF0000E476E040132510401D8B461
:1012600028D0840E00018D6F100E00018E6F87EC68
:101270001BF0500E00018C6FC30E8D6F000E8E6F31
:10128000000E8F6FC2EC1AF0000E00018C6F020E80
:1012900000018D6FA00E00018E6F100E00018F6F88
:1012A0008FEC18F00009D8A404D0000E0401326FAE
:1012B00000D0000E00018C6F020E00018D6F47C040
:1012C0008EF000018F6B5AEC1BF0000E476E04018C
:1012D00032510401D8B428D0840E00018D6F100E55
:1012E00000018E6F87EC1BF0500E00018C6FC30E57
:1012F0008D6F000E8E6F000E8F6FC2EC1AF0000E15
:1013000000018C6F020E00018D6FA00E00018E6F28
:10131000100E00018F6F8FEC18F00009D8A404D0D4
:10132000000E0401326F00D0000E00018C6F020E1F
:1013300000018D6F47C08EF000018F6B5AEC1BF0DF
:10134000000E476E040132510401D8B43ED08F0E16
:1013500000018D6F100E00018E6F87EC1BF0500E98
:1013600000018C6FC30E8D6F000E8E6F000E8F6F9D
:10137000C2EC1AF0000E0101CE6F040E0101CF6F16
:10138000320E0101D06F100E0101D16FC2C1D2F136
:10139000C3C1D3F1C4C1D4F1C5C1D5F103EC0FF081
:1013A000000E00018C6F020E00018D6F000E000117
:1013B0008E6F040E00018F6F8FEC18F00009D8A417
:1013C00004D0000E0401326F00D0000E00018C6FBB
:1013D000020E00018D6F47C08EF000018F6B5AEC3A
:1013E0001BF0000E476E8A0E00018D6F100E00017B
:1013F0008E6F87EC1BF0500E00018C6FC30E8D6F4B
:10140000000E8E6F000E8F6FC2EC1AF0000E0001FE
:101410008C6F020E00018D6F9C0E00018E6F100EFE
:1014200000018F6F8FEC18F00009D8A404D0000ED3
:101430000401326F00D0000E00018C6F020E00011B
:101440008D6F47C08EF000018F6B5AEC1BF0000EC1
:10145000476E12001200000E1F6E480E216E000E25
:101460001B6E000E1C6E000E1D6E000E1E6E000E1A
:10147000206E470E206401D041D02050020DF35061
:101480001424D96EF4501520DA6EC80EDE5CAF0E4F
:10149000DE58D8A011D02050020DF3501424D96E7C
:1014A000F4501520DA6E510EDE5CC30EDE58D8B053
:1014B00003D0020E120020D02050020DF35014244D
:1014C000D96EF4501520DA6EA00EDE5C0F0EDE58D9
:1014D000D8A012D02050020DF3501424D96EF4502D
:1014E0001520DA6E890EDE5C130EDE58D8B004D0FB
:1014F00020C021F003D000D0202ABBD72150196E84
:101500001A6A191E1A1E194A1A2A480E1926000E9E
:101510001A221ABE06D01A5006E1480E195CD8B03D
:1015200002D0000E1200212A2150020DF350142483
:10153000D96EF4501520DA6E9D0EDE5C030EDE5877
:10154000D8A067D02150020DF3501424D96EF45066
:101550001520DA6EE30EDE5C040EDE58D8B059D0EA
:101560002150020DF3501424D96EF4501520DA6E78
:10157000010EDB5004E17D0EDE5CD8A069D0215065
:10158000020DF3501424D96EF4501520DA6E590E62
:10159000DE5C020EDE58D8B05BD02150020DF35055
:1015A0001424D96EF4501520DA6E010EDB5004E1DC
:1015B0007D0EDE5CD8A04CD02150020DF3501424D7
:1015C000D96EF4501520DA6E590EDE5C020EDE582C
:1015D000D8B03ED02150020DF3501424D96EF450EF
:1015E0001520DA6EC80EDE5CAF0EDE58D8A030D003
:1015F0002150020DF3501424D96EF4501520DA6EE8
:10160000510EDE5CC30EDE58D8B022D0020E12009E
:101610001FD02150020DF3501424D96EF450152020
:10162000DA6ED60EDE5C060EDE58D8A00ED0215043
:10163000020DF3501424D96EF4501520DA6EBF0E4B
:10164000DE5C0A0EDE58D8A003D0000E120000D0D7
:10165000212A21C020F0470E206401D0CAD0215099
:10166000020DF3501424D96EF4501520DA6E010ED9
:10167000DB5004E17D0EDE5CD8A024D02150020DA9
:10168000F3501424D96EF4501520DA6E590EDE5C36
:10169000020EDE58D8B016D01F50D8A402D0010ECA
:1016A00040D0000E1F6ED8901B361C361D361E36DD
:1016B0001850D8A49BD0010E1B26000E1C221D2200
:1016C0001E2294D02150020DF3501424D96EF450F0
:1016D0001520DA6EBC0EDE5C020EDE58D8A026D0D5
:1016E0002150020DF3501424D96EF4501520DA6EF7
:1016F000B70EDE5C030EDE58D8B018D01F50D8B439
:1017000012D0D8901B361C361D361E361850D8B451
:1017100007D0010E1B26000E1C221D221E2200D007
:10172000000E1F6E63D0000E120060D02150020D1B
:10173000F3501424D96EF4501520DA6EDE50DE100A
:10174000D8A412D01F04D8A40FD016C0D9FF17C038
:10175000DAFF1BC0DEFF1CC0DEFF1DC0DEFF1EC0A7
:10176000DEFF1FD0120042D02150020DF35014248E
:10177000D96EF4501520DA6E380EDE5C4A0EDE5853
:10178000D8A012D02150020DF3501424D96EF45079
:101790001520DA6E090EDE5C520EDE58D8B004D089
:1017A000D4D7010E120022D02150020DF350142480
:1017B000D96EF4501520DA6EC80EDE5CAF0EDE581E
:1017C000D8A011D02150020DF3501424D96EF4503A
:1017D0001520DA6E510EDE5CC30EDE58D8B003D091
:1017E000020E120003D0000E120000D0212A202A7F
:1017F00032D7000E12001200EACF7EF0E1CF7FF068
:10180000E2CF80F0D9CF81F0DACF82F0F3CF83F04E
:10181000F4CF84F0F6CF85F0F7CF86F0F8CF87F0DD
:10182000F5CF88F0F29EF2A070D0A3EC1EF000017C
:10183000896F0001BB5100018919D8B464D0D58EDD
:10184000F28AD6CF8AF000018B6BD75000018B272C
:10185000480E0001BC6153D00001BC51D8B449D03E
:10186000090E00018A5D520E00018B59D8B008D0D4
:10187000380E00018A5D4A0E00018B59D8B010D095
:10188000510E00018A5DC30E00018B59D8B00AD0F9
:10189000C80E00018A5DAF0E00018B59D8A002D09E
:1018A000F29603D0C7EC1EF000D0FE0E0001776F59
:1018B000FF0E0001786F0001BC510001796F7A6B57
:1018C000D890000179377A370001775100017927E4
:1018D0000001785100017A23000E00017925D96EAC
:1018E000010E00017A21DA6E8AC0DEFF8BC0DDFFB7
:1018F00003D0C7EC1EF000D00001BC2B01D0F29643
:1019000089C0BBF001D000F0F290F2A42CD0F29A82
:10191000D59E000E146E010E156EC30E166E000ECF
:10192000176E010E186E2BEC0AF00001C76F000154
:10193000C751D8B411D0C70E0001716F000E00015D
:10194000726FC3C073F0C4C074F0C5C075F0C6C078
:1019500076F0E5EC12F002D0F28600D0000E000125
:10196000BC6FF29400D09EA2E2D09D920001C12BE8
:10197000010E0001C165DBD0000E0001C16F000146
:10198000BD51010D9F0EF324D96E000EF420DA6EC6
:10199000630EDE18D8B498D00001BF51D8B4C0D0BF
:1019A0000001BD51010D9F0EF324D96E000EF420ED
:1019B000DA6EDF50D8A42CD00001BE05D8A407D021
:1019C00087D0080ECB6E86D0000ECC6EA9D0020E4A
:1019D0000001BE19D8A405D059D02BD00001BE2BD0
:1019E0009FD0030E0001BE19D8A402D071D0E9D750
:1019F000040E0001BE19D8A462D08B9A180ECB6ECB
:101A0000010E0001BE6F0001BD2B8AD058D088D0D6
:101A10000001BD51010D9F0EF324D96E000EF4207C
:101A2000DA6EDE04D8A427D00001BE05D8A404D005
:101A30000FD0180ECB6ED2D7020E0001BE19D8A45B
:101A400002D08B9ABED7030E0001BE19D8A403D0D2
:101A50008B8AEFD7C3D7040E0001BE19D8A42FD0AC
:101A60008B9A080ECB6E010E0001BE6F0001BD2BDC
:101A7000ABD725D055D00001BE05D8A402D028D0C0
:101A8000A0D7020E0001BE19D8A403D08B9AD1D7DB
:101A9000A5D7030E0001BE19D8A403D0D9D7C9D742
:101AA0009DD7040E0001BE19D8A409D08B9A080E48
:101AB000CB6E010E0001BE6F0001BD2B85D7010E5C
:101AC0000001BE6F29D02CD00001BE05D8A405D0DE
:101AD0008B8A77D70001BE2B77D7020E0001BE1983
:101AE000D8A412D08B9AF00ECB6E0001BE2B000151
:101AF000C0070001C051D8B413D0010E0001BE6F61
:101B0000000E0001BD6F0CD0D1EC1EF0A192000EB2
:101B10000001C26FB180CA94000E0001BF6F00D0F7
:101B20009E920001BF51D8B402D09D8200D0A1A2E4
:101B30000DD0060E0001C26106D0D1EC1EF0B180BE
:101B40000001C22B03D0010E4B6E00D0F28E88C074
:101B5000F5FF87C0F8FF86C0F7FF85C0F6FF84C099
:101B6000F4FF83C0F3FF82C0DAFF81C0D9FF80C0D9
:101B7000E2FF7FC0E1FF7EC0EAFF7DC0E9FF7CC0DD
:101B8000FBFF7BC0FAFF110096C09AF000019B6B2F
:101B90009C6B0001953500019A3701E39B810001A0
:101BA0009A510101C86F99C09AF000019B6B9C6B20
:101BB0000001983500019A3701E39B8100019A5199
:101BC0000101C76F0101C8510101D8B411D0010151
:101BD000C7510101C85DD8B012D00101C851000839
:101BE0000101C72500019A6F180E00019A6507D000
:101BF00097C094F098C095F099C096F0120001013A
:101C0000C7510101D8B411D00101C8510101C75D0C
:101C1000D8B012D00101C75100080101C825000148
:101C20009A6F180E00019A6507D094C094F095C081
:101C300095F096C096F01200060E0101C66F0001E5
:101C400096AF03D00101C68F00D0000199AF02D03A
:101C50000101C68D0001958FFF0E00019417FF0E44
:101C600000019517000E000196170001988FFF0ED6
:101C700000019717FF0E00019817000E0001991739
:101C80000101C7510101C85DD8B028D00001D8902A
:101C90009737983799370101C7070101C8510101EA
:101CA000C719D8B413D00101C607C6C19AF0070EF0
:101CB00000019A17D8B40AD0E9D708D00001D8900B
:101CC0009633953394330101C82B00D00101C751DD
:101CD0000101C819D8B430D0F1D72ED00101C851B4
:101CE0000101C75DD8B028D00001D890943795374E
:101CF00096370101C8070101C8510101C719D8B4BD
:101D000013D00101C607C6C19AF0070E00019A1749
:101D1000D8B40AD0E9D708D00001D89099339833C5
:101D200097330101C72B00D00101C7510101C81928
:101D3000D8B402D0F1D700D00101C6AF12D0FF0E47
:101D40000001941BFF0E0001951BFF0E0001961B66
:101D5000010E00019427000E00019523000E0001E2
:101D600096230101C6AD13D0FF0E0001971BFF0E95
:101D70000001981BFF0E0001991B010E000197271F
:101D8000000E00019823000E0001992300D0000EE0
:101D90000101C66F00019451000197270001955180
:101DA000000198230001965100019923000199AF89
:101DB00016D0FF0E0001971BFF0E0001981BFF0EAF
:101DC0000001991B010E00019727000E00019823C6
:101DD000000E00019923010E0101C66F00D097C0CB
:101DE0008CF098C08DF099C08EF0C8C18FF0C6C13C
:101DF00090F088EC13F08CC094F08DC095F08EC0FC
:101E000096F012001200D20E0101D86F010E0101EE
:101E1000D96F03D1250E0101DF19D8B40AD0CEC184
:101E2000D9FFCFC1DAFFDFC1DFFF0101CE4BCF2BDE
:101E3000F4D0000E0101DA6F07D0FFD00101DA897A
:101E400003D01BD0EAD019D0D0C1F6FFD1C1F7FF23
:101E50000101D04BD12B0800F5CFDFF10101DF519B
:101E6000000AD8B4EAD0640AD8B407D00D0AD8B4AE
:101E700004D0050AD8B4E2D7D0D00101DAA90ED037
:101E8000D8C1D9FFD9C1DAFFDECFDBF1DECFDCF17B
:101E9000DECFDDF1DECFDEF1040E0FD0D8C1D9FFE9
:101EA000D9C1DAFFDECFDBF1DDCFDCF10101000EBD
:101EB000DCBFFF0EDD6FDE6F020E0101D827000EC2
:101EC000D92300D00101DEAF0DD0030E0101DA13DA
:101ED0000101DE1FDD1FDC1FDB6D000EDC23DD23B7
:101EE000DE2300D0010E0101DF6F0A0E0101DF19B0
:101EF000D8B422D001D020D00101DF51040D010E51
:101F0000F324F66E100EF420F76E0900F55001016F
:101F1000DB5D0900F5500101DC590900F5500101B4
:101F2000DD590900F5500101DE59D8A005D001D0D6
:101F300003D00101DF2BD9D7DAC19AF0030E0001DB
:101F40009A17D8B40AD0CEC1D9FFCFC1DAFF2D0E6F
:101F5000DF6E0101CE4BCF2B00D00101DF5101011B
:101F6000D66FD76BD6BFD7074BD0D6C19AF0D7C1A3
:101F70009BF00001D8909A379B370001D8909A3790
:101F80009B37010E00019A25F66E100E9B21F76E0D
:101F90000900F5CF90F00900F5CF91F00900F5CFD9
:101FA00092F00A00F5CF93F0DBC18CF0DCC18DF02C
:101FB000DDC18EF0DEC18FF0CAEC16F08CC0C6F128
:101FC0008DC0C7F18EC0C8F18FC0C9F10A0E0101E2
:101FD000CA6F000ECB6F000ECC6F000ECD6F3DECC4
:101FE00018F00101C651300F0101DF6FCEC1D9FFDA
:101FF000CFC1DAFFDFC1DFFF0101CE4BCF2B00D015
:102000000101D607D8A0D7070101D629AEE1010109
:10201000D729D8B402D0A9D700D0D0C1F6FFD1C1FA
:10202000F7FF0101D04BD12B0800F5CFDFF1010103
:10203000DF51D8B402D0EED600D0CEC1D9FFCFC187
:10204000DAFF000EDF6E1200120000019B6F000E1F
:102050000001936F000E946F000E956F000E966F47
:102060009BC08CF000018D6BBBEC1CF000018C510F
:102070000001976F010E00019B2500018C6F00018C
:102080008D6B000E8D23BBEC1CF000018C51000108
:10209000986F020E00019B2500018C6F00018D6B73
:1020A000000E8D23BBEC1CF000018C510001996FD8
:1020B000030E00019B2500018C6F00018D6B000E4B
:1020C0008D23BBEC1CF000018C5100019A6F99C06C
:1020D000C6F10101C76BC86BC96BC8C1C9F1C7C1E3
:1020E000C8F1C6C1C7F10101C66B98C0CAF10101B0
:1020F000CB6BCC6BCD6BCBC1CDF1CAC1CCF10101A7
:10210000CB6BCA6B97C0CEF10101CF6BD06BD16B9B
:10211000CEC1D1F10101D06BCF6BCE6B0101CA51A1
:102120000101CE250101D26F0101CB510101CF2167
:102130000101D36F0101CC510101D0210101D46F04
:102140000101CD510101D1210101D56F0101C6511C
:102150000101D2250101D66F0101C7510101D3212F
:102160000101D76F0101C8510101D4210101D86FCC
:102170000101C9510101D5210101D96F00019A5115
:102180000101D6250001936F000E0101D721000146
:10219000946F000E0101D8210001956F000E01011E
:1021A000D9210001966F93C08FF094C090F095C034
:1021B00091F096C092F012001200D1C1D5F1010148
:1021C000D66BD76B0101D0350101D53701E3D6813C
:1021D0000101D5510101D86F0101D851D8A40AD00D
:1021E000000E0101CF6F000E0101D06F000E010142
:1021F000D16F1200D4C1D5F10101D66BD76B0101AB
:10220000D3350101D53701E3D6810101D551010153
:10221000DD6F0101DD51D8A40AD0000E0101CF6F9E
:10222000000E0101D06F000E0101D16F12000101FB
:10223000DD517B0F0101D827D1C1DDF10101D4515E
:102240000101DD1B800E0101DD170101D08F0101AD
:10225000D38FFF0E0101D217FF0E0101D317000E1D
:102260000101D417000E0101D96F000E0101DA6FD0
:10227000000E0101DB6F070E0101DC6F00D00101D0
:10228000CFA10DD00101D2510101D9270101D351B4
:102290000101DA230101D4510101DB2300D0010146
:1022A000D890D133D033CF330101D890D237D33740
:1022B000D4370101DC2FE3D700D0090E0101DC6F18
:1022C00000D00101CFA10DD00101D2510101D927C8
:1022D0000101D3510101DA230101D4510101DB23B2
:1022E00000D00101D890D133D033CF330101D89041
:1022F000DB33DA33D9330101DC2FE3D700D0D9C186
:102300008CF0DAC18DF0DBC18EF0D8C18FF0DDC169
:1023100090F088EC13F08CC0CFF18DC0D0F18EC05E
:10232000D1F11200120099C0C6F10101C76BC86B50
:10233000000198350101C63701E3C7810101C6518B
:102340000101CD6F0101CD51D8A40AD0000E0001CA
:10235000976F000E0001986F000E0001996F120038
:102360009CC0C6F10101C76BC86B00019B35010120
:10237000C63701E3C7810101C6510101CE6F0101DA
:10238000CE51D8A40AD0000E0001976F000E0001B4
:10239000986F000E0001996F1200000E0101CA6FC4
:1023A000000E0101CB6F000E0101CC6F0101CE5177
:1023B000890F0101CD5F99C0CEF100019C5101014F
:1023C000CE1B800E0101CE170001988FFF0E000179
:1023D0009717FF0E00019817000E000199170001D2
:1023E0009B8FFF0E00019A17FF0E00019B17000E36
:1023F00000019C17180E0101C96F00D00101D8908F
:10240000CA37CB37CC3700019A510001975D0001E4
:102410009B510001985900019C5100019959D8A085
:102420000ED000019A510001975F00019B510001FD
:10243000985B00019C510001995B0101CA81000178
:10244000D8909737983799370101C92FD7D700D03F
:10245000CAC18CF0CBC18DF0CCC18EF0CDC18FF054
:10246000CEC190F088EC13F08CC097F08DC098F03E
:102470008EC099F012001200CBC1CDF10101CE6BDC
:10248000CF6B0101CA350101CD3701E3CE810101D6
:10249000CD510101D76F0101D751D8A40AD0000E48
:1024A0000101C96F000ECA6F000ECB6F000ECC6F1A
:1024B0001200170E0101CD6FC9C1CEF1CAC1CFF113
:1024C000CBC1D0F10101CD290101D16F05D00101AE
:1024D000D890D033CF33CE330101D12FF8D70101BB
:1024E000CE510101D26F0101CA8FFF0E0101C91740
:1024F000FF0E0101CA17000E0101CB170101C951DE
:102500000101D36F0101CA510101D46F0101CB5107
:102510000101D56F0101D66B8E0E0101D75F01015C
:10252000D7AF1BD00101D751800A8F0FD8B00BD085
:10253000000E0101C96F000ECA6F000ECB6F000EB6
:10254000CC6F120000D00101D890D633D533D433EC
:10255000D3330101D73FF7D71FD0170E0101D7653D
:1025600014D0000E0101C96F000ECA6F000ECB6FB0
:10257000000ECC6F120009D00101D890D337D437A8
:10258000D537D6370101D70700D00101D751010156
:10259000D8B402D0F1D700D00101D2510101D8B492
:1025A0000AD00101D61FD51FD41FD36D000ED4232E
:1025B000D523D62300D0D3C1C9F1D4C1CAF1D5C126
:1025C000CBF1D6C1CCF112001200000E466E71C0E4
:1025D000D9FF72C0DAFF020EDE18D8A41AD00001AB
:1025E00073510001B4190FE1000174510001B519D4
:1025F0000AE1000175510001B61905E100017651AB
:102600000001B719D8A47CD08B828B84B7EC1EF064
:1026100077D0AAEC1EF00009D8B44BD073C0B4F048
:1026200074C0B5F075C0B6F076C0B7F078EC1CF0A9
:102630000009D8B41FD0000E466E090E466401D0C2
:102640005FD08B84100E146E270E156E000E166E62
:10265000000E176E09EC1CF08B94100E146E270EF2
:10266000156E000E166E000E176E09EC1CF0462A51
:10267000E4D746D0000E466E090E466401D040D025
:102680008B82100E146E270E156E000E166E000E45
:10269000176E09EC1CF08B92100E146E270E156E3F
:1026A000000E166E000E176E09EC1CF0462AE4D7D9
:1026B00027D0000173510001B4191EE100017451CB
:1026C0000001B51919E1000175510001B61914E1B5
:1026D000000176510001B719D8A40ED0C80E196EAA
:1026E000000E1A6E0C0E1B6E080E1C6E0BEC1EF00C
:1026F0008B84B7EC1EF004D08B82B7EC1EF000D0B8
:1027000071C0D9FF72C0DAFF000EDF6EF2861200D0
:1027100000018F510001D8B408D000018C51000194
:102720008D1100018E11D8A413D0000E00018C6F02
:10273000000E00018D6F000E00018E6F120008D098
:1027400000018F2B0001D8908E338D338C3300D055
:10275000000E00018C150001916F000E00018D1517
:102760000001926FFE0E00018E150001936F0001B3
:1027700091510001921100019311D8B413D0E0D708
:1027800011D000018F2B010E00018C27000E0001DB
:102790008D23000E00018E230001D8908E338D33DF
:1027A0008C3300D0000E00018C150001916F000EDB
:1027B00000018D150001926FFF0E00018E150001C2
:1027C000936F000191510001921100019311D8B44F
:1027D0000AD0D7D708D000018F070001D8908C37D6
:1027E0008D378E3700D000018DBF05D0020E00015D
:1027F0008F61F1D700D000018FB103D000018D9F10
:1028000000D00001D8908F3300018F5100018E134A
:10281000000190510001D8B403D000018E8F00D088
:102820008CC08CF08DC08DF08EC08EF01200120026
:10283000000E0101EC6F72EC1EF00101EC8701014A
:10284000EC890101EC93000E00018C6F900E8D6FEE
:10285000D00E8E6F030E8F6FDFC190F0E0C191F04C
:10286000E1C192F0E2C193F0CAEC16F0FF0E000154
:102870008C250101ED6FFF0E00018D210101EE6F2E
:10288000FF0E00018E210101EF6FFF0E00018F216D
:102890000101F06FEDC1E3F1EEC1E4F1EFC1E5F14B
:1028A000F0C1E6F1030E06D00101D890E633E5331E
:1028B000E433E333E82EF8D7FF0E0101E3250101ED
:1028C000ED6FFF0E0101E4210101EE6FFF0E01012A
:1028D000E5210101EF6FFF0E0101E6210101F06F1B
:1028E000EDC194F0EEC195F0EFC196F0F0C197F014
:1028F000C6EC19F094C0D8F195C0D9F196C0DAF1C0
:10290000F8EC1AF0D8C1E7F1D9C1E8F1DAC1E9F180
:10291000E7C1C9F1E8C1CAF1E9C1CBF13CEC12F061
:10292000C9C1EAF1CAC1EBF1B886EAC18CF0EBC1CA
:102930008DF00101EC5146EC1AF09E9A9D8AF28CC2
:102940001200000E0101DA150101DF6F000E010116
:10295000DB150101E06F000E0101DC150101E16FE3
:10296000FF0E0101DD150101E26F190E06D0010114
:10297000D890E233E133E033DF33E82EF8D70101BA
:10298000DF510101E76FDCC1E8F1DBC1E9F1DAC138
:10299000EAF1DEC18CF000018D6BE7C18EF09BEC9B
:1029A0001CF0010E0101DE2500018C6F00018D6B12
:1029B000000E8D23E8C18EF09BEC1CF0020E01018D
:1029C000DE2500018C6F00018D6B000E8D23E9C1A7
:1029D0008EF09BEC1CF0030E0101DE2500018C6FD4
:1029E00000018D6B000E8D23EAC18EF09BEC1CF074
:1029F0000101DE5125EC10F08FC0E3F190C0E4F14D
:102A000091C0E5F192C0E6F10101DA510101E3194B
:102A100012E10101DB510101E4190DE10101DC5179
:102A20000101E51908E10101DD510101E619D8A410
:102A300002D0010E1200000E12001200376E000EBE
:102A40002F6E000E306E000E316E000E326E37C0EB
:102A500014F0156A7FEC1DF01450336E010E37240C
:102A6000146E156A000E15227FEC1DF01450346EA2
:102A7000020E3724146E156A000E15227FEC1DF02D
:102A80001450356E030E3724146E156A000E15228D
:102A90007FEC1DF01450366E35C01BF01C6A1D6AA9
:102AA0001E6A1DC01EF01CC01DF01BC01CF01B6A5E
:102AB00034C01FF0206A216A226A20C022F01FC0A1
:102AC00021F0206A1F6A33C023F0246A256A266A2F
:102AD00023C026F0256A246A236A1F502324276E08
:102AE00020502420286E21502520296E2250262097
:102AF0002A6E1B5027242B6E1C5028202C6E1D5034
:102B000029202D6E1E502A202E6E36502B242F6E1B
:102B1000000E2C20306E000E2D20316E000E2E2067
:102B2000326E2FC017F030C018F031C019F032C02B
:102B30001AF01200120000018EAF1ED08CC092F06D
:102B40008DC093F08EC094F00001921F931F941FCC
:102B5000922B000E93239423000E00019225000176
:102B60008C6F000E0001932100018D6F800E00011B
:102B7000942100018E6F00D0000191AF1ED08FC054
:102B800092F090C093F091C094F00001921F931FB7
:102B9000941F922B000E93239423000E0001922584
:102BA00000018F6F000E000193210001906F800ED5
:102BB000000194210001916F00D0000E00018C1BD8
:102BC000000E00018D1B800E00018E1B000E000107
:102BD0008F1B000E0001901B800E0001911B000155
:102BE0008F5100018C5D0001905100018D59000151
:102BF000915100018E59D8B002D0D8901200D880DF
:102C000012001200000E0001966F0BD066EC1DF052
:102C10000001962B040E0001966503D0000E1200F1
:102C200000D08EEC1EF00009D8A4F0D7500E0001A1
:102C30008C6FC30E8D6F000E8E6F000E8F6FC2EC07
:102C40001AF0940E00018D6F100E00018E6F87EC4C
:102C50001BF0500E00018C6FC30E8D6F000E8E6F37
:102C6000000E8F6FC2EC1AF0000E00018C6F020E86
:102C700000018D6F980E00018E6F100E00018F6F96
:102C80008FEC18F00009D8B410D0000E00018C6F42
:102C9000020E00018D6F47C08EF000018F6B5AEC61
:102CA0001BF0000E476E010E1200000E00018C6F2B
:102CB000020E00018D6F47C08EF000018F6B5AEC41
:102CC0001BF0000E476E000E12001200000E3814AA
:102CD0003D6E000E39143E6E000E3A143F6EFF0E2C
:102CE0003B14406E190E05D0D89040323F323E3230
:102CF0003D32E82EF9D73D500001646F3AC065F0CF
:102D000039C066F038C067F03CC014F0156A64C082
:102D100016F02FEC1DF0010E3C24146E156A000E07
:102D2000152265C016F02FEC1DF0020E3C24146E27
:102D3000156A000E152266C016F02FEC1DF0030E6A
:102D40003C24146E156A000E152267C016F02FEC95
:102D50001DF03C501EEC15F017C060F018C061F07B
:102D600019C062F01AC063F03850000160190FE119
:102D70003950000161190BE13A500001621907E175
:102D80003B5000016319D8A402D0010E1200000EBE
:102D900012001200000E0001946F000E956F000EDD
:102DA000966F000E976F0001905100019111000184
:102DB000921100019311D8B447D0010E0001986F11
:102DC00009D00001D890903791379237933700019E
:102DD000982B00D0000193BF02D0F3D700D00001A0
:102DE000D890943795379637973700019051000166
:102DF0008C5D0001915100018D590001925100013B
:102E00008E590001935100018F59D8A013D00001B1
:102E1000905100018C5F0001915100018D5B000118
:102E2000925100018E5B0001935100018F5B000104
:102E3000948100D00001D890933392339133903332
:102E40000001982FCCD700D094C08CF095C08DF0A5
:102E500096C08EF097C08FF01200000E00019E6F9A
:102E6000DBEC1EF013EC1DF0B4EC1BF0000E0001C7
:102E70009E6F090E00019E6501D01DD08B828B9440
:102E8000100E00018C6F270E8D6F000E8E6F000EDE
:102E90008F6FC2EC1AF08B928B84100E00018C6F36
:102EA000270E8D6F000E8E6F000E8F6FC2EC1AF022
:102EB00000019E2BDED78B948FEC17F0DEC1B8F0AB
:102EC000DFC1B9F0E0C1BAF0B8C08CF0B9C08DF084
:102ED000BAC08EF0CD0E00018F6F6C0E0001906FA6
:102EE000400E0001916F9BEC15F00001D8A013D0AB
:102EF000000E00018C6FF00E00018D6F410E00017D
:102F00008E6FB8C08FF0B9C090F0BAC091F09BEC52
:102F100015F00001D8A000F0FFD7A3EF00F0D6EC29
:102F20001EF0050E00018C6F000E8D6F000E8E6F6F
:102F3000000E8F6FC2EC1AF0E40E0001966F010EC6
:102F40000001976F000EE1EC18F00009D8B42FD003
:102F5000000E00019A6F800E00019B6F440E00016D
:102F60009C6FE4C194F0E5C195F098EC1DF094C01D
:102F700097F095C098F096C099F093EC11F097C037
:102F8000CFF198C0D0F199C0D1F1330E0101D26FC9
:102F9000110E0101D36F420E0101D46FDDEC10F070
:102FA000CFC1E1F1D0C1E2F1D1C1E3F10AD0000E0D
:102FB0000101E16F000E0101E26F000E0101E36FFC
:102FC00000D0D9EC1EF0E1C1DEF1E2C1DFF1E3C1D6
:102FD000E0F11200120003EE00F010EEFFF0EE6AD6
:102FE000E550E150FCE1E250FAE102EE00F010EEB3
:102FF000FFF0EE6AE550E150FCE1E250FAE101EE4B
:1030000000F0900EEE6AE806FDE100EE9FF0290E5A
:10301000EE6AE806FDE14A6A496A486A476A960E1E
:10302000F66E3A0EF76E000EF86E01EE90F010EEAE
:1030300036F00900F5CFEEFFE550E150FAE1620EFF
:10304000F66E3D0EF76E000EF86E00EEC8F010EE54
:103050000CF00900F5CFEEFFE550E150FAE1B80EB3
:10306000F66E3D0EF76E000EF86E0900F5CF4BF0D0
:10307000000EF86E00012DEF17F00101CA51010199
:10308000CB110101CC110101CD11D8B43FD0010EFB
:103090000001996F09D00101D890CA37CB37CC37DE
:1030A000CD370001992B00D00101CDBF02D0F3D75D
:1030B00000D00101CA510101C65D0101CB510101DE
:1030C000C7590101CC510101C8590101CD5101017C
:1030D000C959D8A011D00101CA510101C65F01012F
:1030E000CB510101C75B0101CC510101C85B01015A
:1030F000CD510101C95B00D00101D890CD33CC3353
:10310000CB33CA330001992FD4D700D0C6C1C6F142
:10311000C7C1C7F1C8C1C8F1C9C1C9F1120047D0C0
:1031200026D000018E4B8F2B00018C4B8D2B8EC037
:10313000F6FF8FC0F7FF000EF86E0F0EF76403D096
:103140000800F55005D0F6CFE9FFF7CFEAFFEF50C2
:103150000009D8A402D0010E12008CC0D9FF8DC086
:10316000DAFFDF50D8A403D0000E120000D08CC0CC
:10317000D9FF8DC0DAFFDF500001906F8EC0F6FFDF
:103180008FC0F7FF000EF86E0F0EF76403D0080033
:10319000F55005D0F6CFE9FFF7CFEAFFEF50000179
:1031A0009019D8B4BED700018C4B8D2B00D08CC0A9
:1031B000D9FF8DC0DAFFDF50D8A4D9D7000E120096
:1031C000120000019B6F010E00019A6F0C0E0001AE
:1031D0009B650AD096C0D9FF97C0DAFF000EDE6E5D
:1031E000000EDD6E000E1200010E00019B6501D085
:1031F00009D000019B510001D8A404D0000E0001A9
:103200009A6F00D000019A45E846FC0BC212C198A3
:10321000C19AC280320E00018C6F000E8D6F000EBD
:103220008E6F000E8F6FC2EC1AF0C28200D0C2B255
:10323000FED7C290C350C4CF98F00001996B98C0DC
:1032400099F00001986B00019827000E992396C011
:10325000D9FF97C0DAFF98C0DEFF99C0DDFF010EED
:1032600012001200000E00019D6F8E0E00019C6F77
:10327000000197AF16D00001971F961F951F946D00
:10328000000E952396239723010E00019D6F09D010
:103290000001D890973396339533943300019C2BDB
:1032A00000D0000E000194150001986F000E00017F
:1032B00095150001996F000E0001961500019A6F97
:1032C000FF0E0001971500019B6F0001985100014E
:1032D000991100019A1100019B11D8A4D9D794C06B
:1032E0008CF095C08DF096C08EF09CC08FF09DC084
:1032F00090F088EC13F08CC094F08DC095F08EC0E7
:1033000096F012001200000E0101F46F000EF56F2E
:10331000000EF66F000EF76F0101F0A112D0000E43
:103320000001956F0101EB51F6EC1CF00009D8A4E7
:1033300008D0010E0101F427000EF523F623F72330
:1033400000D00101F0A318D0ECC1DAF1EDC1DBF13E
:10335000EEC1DCF1EFC1DDF1010E0101DE6FA1EC88
:1033600014F00009D8A408D0020E0101F427000EC1
:10337000F523F623F72300D0F4C1EBF1F5C1ECF10E
:10338000F6C1EDF1F7C1EEF1120012008E0E000150
:103390009C6F09D00001D8909733963395339433BE
:1033A00000019C2B00D0000E000194150001986FC5
:1033B000000E000195150001996F000E0001961591
:1033C00000019A6FFF0E0001971500019B6F00012D
:1033D00098510001991100019A1100019B11D8A484
:1033E000D9D794C08CF095C08DF096C08EF09CC05B
:1033F0008FF0000E0001906F88EC13F08CC094F0F9
:103400008DC095F08EC096F0120012004B04D8A427
:103410003AD0000E4B6E17C0C0F0010E0001BF6F16
:10342000000E0001BD6F010E0001BE6F130E166489
:1034300002D0000E1200000E186E14D01850010DAC
:10344000F3501424D96EF4501520DA6E1850010D83
:103450009F0EF324E16E000EF420E26EDFCFE7FF53
:10346000182A00D01650185CD8A0E8D71850010DC3
:103470009F0EF324D96E000EF420DA6E630EDF6E19
:10348000CA84010E1200020E1200120000018E6F9B
:10349000000EAC6E000EAB6E00018EA102D0AC88A7
:1034A00000D000018EA303D0AC8CAB8C00D0000107
:1034B0008EA502D0AC8E00D000018EA702D0AB88C2
:1034C00002D0AB8A00D000018EA902D0AC8400D01B
:1034D00000018EAB02D0AB8600D000018EAD03D0D0
:1034E0009E9A9D8A02D09D9A00D000018EAF03D093
:1034F0009E989D8801D09D988CC0AFFF00018D5192
:10350000B06EAC8AAB8E1200000E416E000E426EA1
:10351000000E436E000E446E00016DA110D0000E2F
:103520001D6E00016851AEEC1DF00009D8A407D053
:10353000010E4126000E42224322442200D0000107
:103540006DA316D069C038F06AC039F06BC03AF08C
:103550006CC03BF0010E3C6E66EC16F00009D8A47E
:1035600007D0020E4126000E42224322442200D000
:1035700041C068F042C069F043C06AF044C06BF0DB
:1035800012001200000E0001916F000E926F000EEB
:10359000936F000E946F13D0000E0001956F3F0ED5
:1035A0000001956501D004D000F00001952BF7D7FC
:1035B000050E00019127000E92239323942300010E
:1035C0008C510001915D00018D5100019259000163
:1035D0008E510001935900019451800A0001906FAF
:1035E00000018F51800A00019059D8A0D5D7120050
:1035F000000E0001976F000E0001986F3F0E000152
:10360000996FD8C194F0D9C195F0DAC196F0C4ECA5
:103610000DF094C0C9F195C0CAF196C0CBF13CEC55
:1036200012F0C9C1DBF1CAC1DCF1CBC1DDF1CCC103
:10363000DEF1DBC194F0DCC195F0DDC196F0DEC1B6
:1036400097F032EC19F094C0D8F195C0D9F196C03A
:10365000DAF112001200000E0001936F000E00015B
:10366000936F12D000019351020DF35000018C258D
:10367000D96EF45000018D21DA6E000EDE6E000E60
:10368000DD6E0001932B00D0000193510001906F7B
:10369000916B00018E510001905D00019151800AF3
:1036A0000001926F00018F51800A00019259D8A049
:1036B000D9D71200000E0001936F000E0001936F26
:1036C00010D000019351010DF35000018C25D96EEB
:1036D000F45000018D21DA6E000EDF6E0001932B95
:1036E00000D0000193510001906F916B00018E5149
:1036F0000001905D00019151800A0001926F00016C
:103700008F51800A00019259D8A0DBD7120017D040
:103710008DC0F6FF8EC0F7FF000EF86E0F0EF76437
:1037200003D00800F55005D0F6CFE9FFF7CFEAFF48
:10373000EF50EDEC1DF000018D4B8E2B00D08DC0B5
:10374000F6FF8EC0F7FF000EF86E0F0EF76403D081
:103750000800F55005D0F6CFE9FFF7CFEAFFEF50AC
:103760000009D8A4D5D71200000E00018C6F030EFB
:1037700000018D6F000E00018F6F8E695AEC1BF0F7
:103780009F9AF180F1849F829F90A282D08EF28CCA
:10379000F28ED9EC1DF03FEC1EF030EC1CF0000E68
:1037A0000101DF6FC20EE06F010EE16F000EE26FEC
:1037B00018EC14F0DFEC1BF060EC1EF01200000EB1
:1037C00000018C6F030E00018D6F000E00018F6FE2
:1037D0008E695AEC1BF0000E496E000E00018C6FD2
:1037E000020E00018D6F000E00018F6F8E695AEC82
:1037F0001BF0000E476E899866EC1DF0898689984B
:103800001AEC1EF00009D8A4120053EC08F01200C4
:103810001200000E196E000E1A6E000E1B6E000EC6
:103820001C6E0FD0000E1D6E3F0E1D6401D003D024
:1038300000F01D2AF9D7050E1926000E1A221B22A8
:103840001C221450195C15501A5816501B581C5045
:10385000800A186E1750800A1858D8A0E3D71200B3
:103860007D8887EC1EF00001BB6F6AEC1EF0000E35
:1038700000018C6F010E00018D6F000E00018F6F33
:10388000480E8E6F2BEC1BF0000E0001C36F000E74
:10389000C46F000EC56F000EC66FC2EC1EF0F29A28
:1038A000F294D58EF290F286120020EEB3F001EE83
:1038B000EBF0040EDBCFEBFFE806FCE2030E0101A8
:1038C000F06F000EF16F000EF26F000EF36F83ECDD
:1038D00019F00101EB510101EC110101ED110101A0
:1038E000EE11D8A402D0010E1200000E1200120038
:1038F00020EEB3F000EE68F0040EDBCFEBFFE8063D
:10390000FCE2030E00016D6F000E6E6F000E6F6F14
:10391000000E706F84EC1AF000016851000169110B
:1039200000016A1100016B11D8A402D0010E12002F
:10393000000E12001200000EF2BE010E00018F6F89
:1039400000018D51030BAA6E8CC0A9FF8EC0A8FF89
:10395000A69EA69CA684F29E34EC1EF0A68200D001
:10396000A6B2FED7A69400018F510001D8B4120070
:10397000F28E12001200000EF2BE010E00018E6FD8
:10398000A69EA69C00018D51030BAA6E8CC0A9FFB8
:10399000F29EA68000D0A6B0FED700F000F0000195
:1039A0008E510001D8A4F28EA8CF8CF000018D6B4F
:1039B0001200000EC4EC1DF000018F510101DF6FF9
:1039C000010E25EC10F08FC0E0F190C0E1F191C044
:1039D000E2F192C0E3F121EEDFF001EEDAF0040E45
:1039E000DBCFEBFFE806FCE2120012000001976F4C
:1039F00095C08CF000018D6B97C08EF09BEC1CF095
:103A000000019551C4EC1DF000018F510001966F2B
:103A10000001975100019619D8A402D0010E12009E
:103A2000000E1200120092809282929492969298C6
:103A3000929A94809492949494969498949A949C44
:103A4000948E93809382938493869388938A010EB5
:103A50007E6E000E7F6EF19E0F0E7C6E1200000EC9
:103A6000F2BE010E176E1550030BAA6E14C0A9FF0B
:103A700016C0A8FFA69EA69CA684F29E55EC1EF03A
:103A8000A68200D0A6B2FED7A6941750D8B41200D2
:103A9000F28E12001200486F6D65204175746F6DD3
:103AA0006174696F6E0000000000000000000000FB
:103AB0000000000000000000000000000000000006
:103AC0000000000000000000010000008994500E7A
:103AD00000018C6FC30E8D6F000E8E6F000E8F6F06
:103AE000C2EC1AF08984500E00018C6FC30E8D6FEA
:103AF000000E8E6F000E8F6FC2EC1AF01200000ED7
:103B0000F2BE010E166EA69EA69C1550030BAA6E61
:103B100014C0A9FFF29EA68000D0A6B0FED700F088
:103B200000F01650D8A4F28EA8CF14F0156A120037
:103B300094C08CF095C08DF000018E6B8E0E00014C
:103B40008F6F000E0001906F88EC13F08CC094F022
:103B50008DC095F08EC096F0120012001F6E1DC031
:103B600014F0156A1FC016F02FEC1DF01D50FCEC70
:103B70001DF017501E6E1F501E18D8A402D0010E43
:103B80001200000E120012000001936F93C08CF01F
:103B900000018D6BBBEC1CF000018C510001946F97
:103BA0000001945100018F6F906B916B926B12002A
:103BB0001200D9EC1CF021EEE4F0040EEBCFDBFF99
:103BC000E806FCE2E4C1B3F0E5C1B4F0E6C1B5F04B
:103BD000E7C1B6F0E8C1B7F0120000018C6F000138
:103BE0008C510001D8A402D000F000D08CC0ADFFF1
:103BF00000D0ACA2FED712001B6E1BC014F0156AD9
:103C00007FEC1DF014501C6E1C50176E186A196A58
:103C10001A6A1200120000D019C014F01AC015F070
:103C20001BC016F01CC017F006EC1AF0020AD8B43C
:103C3000F3D712000001B305D8B407D0010E00017C
:103C4000B36F55EC1CF0000E1200010E12001200B2
:103C5000016E1F0E016405D07F0E016002D0010EBF
:103C60001200000E12001200550EA76EAA0EA76ECB
:103C7000A68200D0A6B2FED700F000F0120095ECAC
:103C80001EF0C08EC086C088C08AC050F80B0409E0
:103C9000C06E1200ABA204D0AB98AB88000E12002D
:103CA000AECF01F0015012001200550EA76EAA0E01
:103CB000A76EA68200D0A6B2FED700F000F01200D8
:103CC00080EC1EF09D8079EC1EF09D82BDEC1EF014
:103CD000A0821200D59CD59AD596D550F80B040930
:103CE000D56E12009D9A9D98AB9EAB98AB94AC9A02
:103CF0001200CA50870B7009CA6E030ECA12120056
:103D0000CD8ECD9C300ECD12CD96CD92120081A8D5
:103D100002D0010E1200000E1200120080A202D08A
:103D2000010E1200000E12001200000EC26E000EF4
:103D3000C16E000EC06E120080A202D0010E1200F1
:103D4000000E1200120081A802D0010E1200000E17
:103D50001200120082B002D0010E1200000E1200FA
:103D60001200030003030303000001000000000E23
:103D70004A6ECCEC1EF0CD801200B18E300EB11226
:103D8000B1921200000ED76E020ED66E1200000E17
:103D9000D76E020ED66E1200000ECF6E000ECE6EE3
:103DA0001200000EB36E000EB26E1200939A8A9A41
:0A3DB0001200938A120012000100B5
:020000040020DA
:08000000FFFFFFFFFFFFFFFF00
:020000040030CA
:0E000000FF061F1EFF8B81FF0FC00FE00F4099
:00000001FF
