:04000000E6EF00F037
:10000800FACF32F0FBCF33F0E9CF34F04DEF2AF0DE
:10001800D8CF0EF0E8CF0FF0E0CF10F0FACF11F004
:10002800FBCF12F0E9CF13F0EACF14F0E1CF15F0CF
:10003800E2CF16F0D9CF17F0DACF18F0F3CF19F0D6
:10004800F4CF1AF0F6CF1BF0F7CF1CF0F8CF1DF065
:10005800F5CF1EF0000E1F6EF29C9EAA7FD058ECC2
:100068005AF01F6EE6EC5AF00009D8A40FD0630EC0
:10007800446072D04450010D000EF324D96E040E72
:10008800F420DA6E1FC0DFFF442A66D00D0E1F1859
:10009800D8B44FD00A0E1F18D8B44BD07F0E1F18F3
:1000A800D8B404D0080E1F18D8A41FD00301EB51F0
:1000B800D8B41BD00301EB29F4EC59F00301EB078A
:1000C8000301EB51010D640EF324D96E040EF420E4
:1000D800DA6E000EDF6E3E0E28EC59F0640E0B6EE1
:1000E800040E0C6E08EC5AF037D0620E0301EB6177
:1000F8001BD00301EA51D8A42FD01F5036EC5AF078
:100108000009D8B429D01F5088EC59F00301EB51ED
:10011800010D640EF324D96E040EF420DA6E1FC0AC
:10012800DFFF0301EB2B18D09D9A010E0301E96F45
:1001380013D00301EB51D8B40FD00301EA51D8A46E
:100148000BD09D9A140E0C6EEE0E0D6E59EC59F0F4
:10015800010E0301EA6F00D09E9A10D09EA00CD029
:10016800532A020E536406D08B948B92CD90000EC6
:10017800536E00D09E9002D000F000D0F28C1EC0CA
:10018800F5FF1DC0F8FF1CC0F7FF1BC0F6FF1AC023
:10019800F4FF19C0F3FF18C0DAFF17C0D9FF16C063
:1001A800E2FF15C0E1FF14C0EAFF13C0E9FF12C067
:1001B800FBFF11C0FAFF10C0E0FF0FC0E8FF0EC040
:1001C800D8FF100028EF4EF0010E02017F6F000EDD
:1001D80002017A6F000E7B6F000E7C6F000E7D6F40
:1001E800000E0201856F000E0201866F000E0201EB
:1001F800876F000E886F000E896F000E8A6F000EE1
:1002080002016F6F000E706F000E716F000E726F3B
:10021800000E0201816F000E0201786F000E0201CC
:10022800836F000E0201796F000E0201736F000EDA
:10023800746F000E756F000E766F000E02016E6F00
:10024800000E02017E6F000E0001636F020E0001B6
:10025800646F000E0001666F640E656F5CEC56F00B
:10026800640E0001636F020E0001646F000E00014E
:10027800666F0A0E656F5CEC56F0E9C066F0EAC07E
:1002880067F09F0E0001686FFF0E0001696F7FEC39
:1002980053F00009D8B429D0000E02018C6F070E64
:1002A80002018C6502D01200120002018C5166EC2A
:1002B8003EF0BA0E00016E6FFF0E00016F6F0FEC7B
:1002C80059F002018C51FBEC4EF0140E00016E6FD8
:1002D800EE0E00016F6F0FEC59F002018C2B070E28
:1002E80002018C65E2D712001200E9C066F0EAC08C
:1002F80067F0C00E0001686FFF0E0001696F79ECAE
:1003080040F00009D8B47ED0E9C066F0EAC067F0D2
:10031800810E0001686FED0E0001696F7FEC53F0EC
:100328000009D8B412D0DA0E00016B6FED0E00018F
:100338006C6F010E00016D6F0C0E00016E6F080EE0
:1003480000016F6FDDEC57F054D0E9C066F0EAC0E9
:1003580067F0900E0001686FED0E0001696F7FEC89
:1003680053F00009D8B412D0E60E00016B6FED0E01
:1003780000016C6F010E00016D6F0C0E00016E6FB5
:10038800080E00016F6FDDEC57F033D0E9C066F05E
:10039800EAC067F09F0E0001686FED0E0001696FFB
:1003A8007FEC53F00009D8B412D0F20E00016B6F45
:1003B800ED0E00016C6F010E00016D6F0C0E000157
:1003C8006E6F080E00016F6FDDEC57F012D0CC0E87
:1003D80000016E6FED0E00016F6F0FEC59F0140EF7
:1003E80000016E6FEE0E00016F6F0FEC59F01200F6
:1003F80000D0D20E0001706FF90E0001716F9BECF6
:1004080057F01200E9C066F0EAC067F0C60E0001B6
:10041800686FFF0E0001696F79EC40F00009D8B4ED
:1004280065D1E9C066F0EAC067F0780E0001686F30
:10043800EC0E0001696F7FEC53F00009D8B412D0BC
:10044800F10E00016B6FEC0E00016C6F020E0001E3
:100458006D6F100E00016E6F080E00016F6FDDECFE
:1004680057F03BD1E9C066F0EAC067F0520E0001D0
:10047800686FEC0E0001696F7FEC53F00009D8B487
:1004880012D0E10E00016B6FEC0E00016C6F020ED2
:1004980000016D6F100E00016E6F080E00016F6F86
:1004A800DDEC57F01AD1E9C066F0EAC067F08A0EB1
:1004B8000001686FEC0E0001696F7FEC53F00009D2
:1004C800D8B412D0110E00016B6FED0E00016C6FE5
:1004D800020E00016D6F100E00016E6F080E000114
:1004E8006F6FDDEC57F0F9D0E9C066F0EAC067F04D
:1004F800650E0001686FEC0E0001696F7FEC53F028
:100508000009D8B412D0010E00016B6FED0E000186
:100518006C6F020E00016D6F100E00016E6F080EF9
:1005280000016F6FDDEC57F0D8D0E9C066F0EAC083
:1005380067F0160E0001686FEC0E0001696F7FEC22
:1005480053F00009D8B412D0310E00016B6FED0ED4
:1005580000016C6F020E00016D6F100E00016E6FCE
:10056800080E00016F6FDDEC57F0B7D0E9C066F0F8
:10057800EAC067F0D70E0001686FEB0E0001696FE3
:100588007FEC53F00009D8B412D0210E00016B6F34
:10059800ED0E00016C6F020E00016D6F100E000170
:1005A8006E6F080E00016F6FDDEC57F096D0E9C052
:1005B80066F0EAC067F02A0E0001686FEC0E0001D1
:1005C800696F7FEC53F00009D8B412D0510E0001C6
:1005D8006B6FED0E00016C6F020E00016D6F100E57
:1005E80000016E6F080E00016F6FDDEC57F075D0DB
:1005F800E9C066F0EAC067F0EC0E0001686FEB0E28
:100608000001696F7FEC53F00009D8B412D0410E95
:1006180000016B6FED0E00016C6F020E00016D6F33
:10062800100E00016E6F080E00016F6FDDEC57F0C1
:1006380054D0E9C066F0EAC067F03E0E0001686F6A
:10064800EC0E0001696F7FEC53F00009D8B412D0AA
:10065800710E00016B6FED0E00016C6F020E000150
:100668006D6F100E00016E6F080E00016F6FDDECEC
:1006780057F033D0E9C066F0EAC067F0010E000118
:10068800686FEC0E0001696F7FEC53F00009D8B475
:1006980012D0410E00016B6FED0E00016C6F030E5E
:1006A80000016D6F100E00016E6F080E00016F6F74
:1006B800DDEC57F012D0CC0E00016E6FED0E00018C
:1006C8006F6F0FEC59F0140E00016E6FEE0E000103
:1006D8006F6F0FEC59F0120000D0EF0E0001706F31
:1006E800F90E0001716F9BEC57F01200E9C066F03B
:1006F800EAC067F0E90E0001686FFF0E0001696F3C
:1007080079EC40F00009D8B400D2E9C06FF0EAC033
:1007180070F0010E0001716F870E0001726F020EFA
:100728000001736F55EC35F00009D8A4D1D002014F
:100738008A510201891104E102018805D8A011D06B
:10074800DC0E0001706FF80E0001716F9BEC57F022
:10075800140E00016E6FEE0E00016F6F0FEC59F072
:10076800120087C286F2E9C06FF0EAC070F0000E8E
:100778000001716F870E0001726F020E0001736F26
:1007880055EC35F00009D8A492D002018A51020133
:10079800891104E102018805D8A011D0FB0E0001DF
:1007A800706FF80E0001716F9BEC57F0140E00018A
:1007B8006E6FEE0E00016F6F0FEC59F0120087C2DA
:1007C80085F2000E0001B16F020E0001B26F440EF7
:1007D8000001B36FFC0E0001B46F85C2B5F00001D3
:1007E800B66B5EEC18F0000E0001706F020E00018F
:1007F800716F55EC58F0000E0001B16F020E000148
:10080800B26F2F0E0001B36FFC0E0001B46F86C2E9
:10081800B5F00001B66B5EEC18F0000E0001706FC9
:10082800020E0001716F55EC58F086C267F00201A4
:1008380085511FEC47F067C07AF268C07BF269C047
:100848007CF26AC07DF27AC278F07BC279F07CC211
:100858007AF07DC27BF0000E00017C6FE1EC52F073
:10086800000E0001B16F020E0001B26F7A0E000196
:10087800B36FFB0E0001B46F7AC2B5F07BC2B6F05D
:100888007CC2B7F07DC2B8F05EEC18F0000E000133
:10089800706F020E0001716F55EC58F0140E0001D4
:1008A8006E6FEE0E00016F6F0FEC59F01200BC0E68
:1008B8000001706FF80E0001716F9BEC57F0140E79
:1008C80000016E6FEE0E00016F6F0FEC59F0120011
:1008D800E9C06FF0EAC070F0000E0001716F7A0E87
:1008E8000001726F020E0001736F55EC35F00009BC
:1008F800D8A493D07AC278F07BC279F07CC27AF01F
:100908007DC27BF0000E00017C6FE1EC52F0000E1E
:100918000001B16F020E0001B26FD40E0001B36F77
:10092800FC0E0001B46F7AC2B5F07BC2B6F07CC28F
:10093800B7F07DC2B8F05EEC18F0000E0001706FE1
:10094800020E0001716F55EC58F07AC267F07BC255
:1009580068F07CC269F07DC26AF0850E00016B6F99
:10096800020E00016C6F860E00016D6F020E000111
:100978006E6F46EC51F00009D8B435D0000E000176
:10098800B16F020E0001B26F480E0001B36FFC0E8A
:100998000001B46F85C2B5F00001B66B5EEC18F0CB
:1009A800000E0001706F020E0001716F55EC58F0D7
:1009B800000E0001B16F020E0001B26F780E000147
:1009C800B36FF40E0001B46F86C2B5F00001B66BC8
:1009D8005EEC18F0000E0001706F020E0001716FDE
:1009E80055EC58F011D0DA0E0001706FF70E0001C7
:1009F800716F9BEC57F0140E00016E6FEE0E000144
:100A08006F6F0FEC59F01200140E00016E6FEE0EAE
:100A180000016F6F0FEC59F01200E9C063F0EAC0F3
:100A280064F0E70E0001656FFF0E0001666FC6EC0B
:100A380047F00009D8A410D0140E00016E6FEE0E16
:100A480000016F6F0FEC59F0960E0001706FF90EF0
:100A58000001716F9BEC57F0140E00016E6FEE0EE3
:100A680000016F6F0FEC59F0980E0001706FFF0EC8
:100A78000001716F9BEC57F0AC0E0001706FFC0E1B
:100A88000001716F9BEC57F03F0E0001706FFF0E75
:100A98000001716F9BEC57F0BF0E0001706FFB0EE9
:100AA8000001716F9BEC57F0140E00016E6FEE0E93
:100AB80000016F6F0FEC59F0700E0001706FFF0EA0
:100AC8000001716F9BEC57F0820E0001706FFD0EF4
:100AD8000001716F9BEC57F0410E0001706FFF0E23
:100AE8000001716F9BEC57F0DA0E0001706FFD0E7C
:100AF8000001716F9BEC57F0140E00016E6FEE0E43
:100B080000016F6F0FEC59F01200E9C066F0EAC0FF
:100B180067F0DA0E0001686FFE0E0001696F79EC6C
:100B280040F00009D8B4D2D2E9C072F0EAC073F03C
:100B380032EC3DF002017E6F02017E510201D8B411
:100B48006CD2020E02017E19D8A403D00001EB2B4F
:100B580000D0E9C06FF0EAC070F0000E0001716FBC
:100B6800870E0001726F020E0001736F55EC35F0AD
:100B78000009D8A452D202018A5102018911020146
:100B8800881104E10D0E0201875DD8B02CD2020154
:100B98008751020188110201891102018A11D8B412
:100BA80022D2E9C066F0EAC067F00C0E0001686F57
:100BB800FD0E0001696F79EC40F00009D8A423D13B
:100BC800FE0E0001EC6FFF0E0001ED6F87C2EEF024
:100BD80088C2EFF0D8900001EE37EF370001EC51F2
:100BE8000001EE270001ED510001EF23D50E0001B1
:100BF800F06F020E0001F16F050E0001F027000EE4
:100C0800F1230001EE510001F0270001EF5100012E
:100C1800F123010E0001F025D96E000E0001F1212B
:100C2800DA6EDF500001676FFE0E0001F26FFF0EF3
:100C38000001F36F87C2F4F088C2F5F0D890000184
:100C4800F437F5370001F2510001F4270001F351A0
:100C58000001F523DA0E0001F425D96E020E000119
:100C6800F521DA6EDF501FEC47F067C06FF268C0FD
:100C780070F269C071F26AC072F202016F2908E16C
:100C8800020171290201701102017211D8B4A9D0B0
:100C98006FC278F070C279F071C27AF072C27BF0DC
:100CA800000E00017C6FE1EC52F0000E0001B16F04
:100CB800020E0001B26F590E0001B36FFC0E000165
:100CC800B46F6FC2B5F070C2B6F071C2B7F072C23D
:100CD800B8F05EEC18F0000E0001706F020E000113
:100CE800716F55EC58F0000E0001B16F020E000153
:100CF800B26F5D0E0001B36FF40E0001B46FFE0E0B
:100D08000001EC6FFF0E0001ED6F87C2EEF088C2A4
:100D1800EFF0D8900001EE37EF370001EC510001F9
:100D2800EE270001ED510001EF23DA0E0001EE2558
:100D3800D96E020E0001EF21DA6EDF500001F06F6C
:100D48000001F0510001B56FB66BFE0E0001F16FA6
:100D5800FF0E0001F26F87C2F3F088C2F4F0D8905A
:100D68000001F337F4370001F1510001F3270001C6
:100D7800F2510001F423D50E0001F56F020E0001B7
:100D8800F66F050E0001F527000EF6230001F3515A
:100D98000001F5270001F4510001F623010E0001BE
:100DA800F525D96E000E0001F621DA6EDF5000013C
:100DB800F76F0001F7510001B76FB86B5EEC18F0E0
:100DC800000E0001706F020E0001716F55EC58F0B3
:100DD800140E00016E6FEE0E00016F6F0FEC59F0EC
:100DE8001200140E00016E6FEE0E00016F6F0FEC13
:100DF80059F0470E0001706FF30E0001716F9BEC04
:100E080057F012000AD1C9EC53F00009D8B4120007
:100E180001D01200ECC367F0EDC368F0EEC369F0CF
:100E2800EFC36AF0850E00016B6F020E00016C6F54
:100E3800860E00016D6F020E00016E6F46EC51F0D8
:100E4800FE0E0001EC6FFF0E0001ED6F87C2EEF0A1
:100E580088C2EFF0D8900001EE37EF370001EC516F
:100E68000001EE270001ED510001EF23DA0E000129
:100E7800EE25D96E020E0001EF21DA6E85C2DFFF82
:100E8800FE0E0001EC6FFF0E0001ED6F87C2EEF061
:100E980088C2EFF0D8900001EE37EF370001EC512F
:100EA8000001EE270001ED510001EF23D50E0001EE
:100EB800F06F020E0001F16F050E0001F027000E21
:100EC800F1230001EE510001F0270001EF5100016C
:100ED800F123010E0001F025D96E000E0001F12169
:100EE800DA6E86C2DFFF91EC52F0140E00016E6FCD
:100EF800EE0E00016F6F0FEC59F0000E0001B16F9C
:100F0800020E0001B26FA50E0001B36FF30E0001CF
:100F1800B46F87C2B5F088C2B6F089C2B7F08AC28A
:100F2800B8F0ECC3B9F0EDC3BAF0EEC3BBF0EFC351
:100F3800BCF05EEC18F0000E0001706F020E0001AC
:100F4800716F55EC58F0000E0001B16F020E0001F0
:100F5800B26F5D0E0001B36FF40E0001B46F85C26D
:100F6800B5F00001B66B86C2B7F00001B86B5EEC55
:100F780018F0000E0001706F020E0001716F55EC41
:100F880058F0140E00016E6FEE0E00016F6F0FEC3B
:100F980059F0000E02018C6F090E02018C6502D017
:100FA800120012008B84500E0001636FC30E646F31
:100FB800000E656F000E666FB5EC56F08B94500E00
:100FC8000001636FC30E646F000E656F000E666FDD
:100FD800B5EC56F002018C2B090E02018C65E2D7A4
:100FE800120012001AD0140E00016E6FEE0E0001EE
:100FF8006F6F0FEC59F09F0E0001706FF60E000135
:10100800716F9BEC57F0140E00016E6FEE0E00012D
:101018006F6F0FEC59F0120000D0140E00016E6FC4
:10102800EE0E00016F6F0FEC59F00B0E0001706FA0
:10103800F70E0001716F9BEC57F0140E00016E6FF4
:10104800EE0E00016F6F0FEC59F0980E0001706FF3
:10105800FF0E0001716F9BEC57F0EB0E0001706FF3
:10106800FD0E0001716F9BEC57F0FC0E0001706FD4
:10107800FC0E0001716F9BEC57F0140E00016E6FAF
:10108800EE0E00016F6F0FEC59F0700E0001706FDB
:10109800FF0E0001716F9BEC57F0490E0001706F55
:1010A800FE0E0001716F9BEC57F0940E0001706FFB
:1010B800FD0E0001716F9BEC57F0140E00016E6F6E
:1010C800EE0E00016F6F0FEC59F01200E9C066F0E8
:1010D800EAC067F0AD0E0001686FFF0E0001696F8E
:1010E80079EC40F00009D8A410D0E9C066F0EAC055
:1010F80067F0790E0001686FFF0E0001696F79ECE7
:1011080040F00009D8B46EEF10F0000E0201776FBE
:10111800E9C066F0EAC067F0AD0E0001686FFF0E27
:101128000001696F79EC40F00009D8B404D0010ED1
:101138000201796F16D0000E0201796FE9C066F0DE
:10114800EAC067F0040E0001686FFE0E0001696FC7
:1011580079EC40F00009D8B404D0010E0201776F91
:1011680000D0E9C066F0EAC067F0A20E0001686F1F
:10117800FF0E0001696F79EC40F00009D8B402D382
:10118800C9EC53F00009D8B4120001D01200140EB3
:1011980000016E6FEE0E00016F6F0FEC59F0ECC39B
:1011A80067F0EDC368F0EEC369F0EFC36AF0850E2F
:1011B80000016B6F020E00016C6F860E00016D6FEF
:1011C800020E00016E6F46EC51F0000E02018B6FAB
:1011D800070E02018B6501D05FD2000E02017F6FFE
:1011E800000E02018C6F020E02018C6501D049D0FD
:1011F80002018B51060DA10E0001EC6F020E0001D9
:10120800ED6FF3500001EC27F4500001ED230201CB
:101218008C51020DF3500001EC25D96EF4500001F9
:10122800ED21DA6EDF50D8A429D002018B51060DCA
:10123800A10E0001EC6F020E0001ED6FF3500001EA
:10124800EC27F4500001ED2302018C51020DF350FC
:101258000001EC27F4500001ED23010E0001EC25FC
:10126800D96E000E0001ED21DA6EDF50D8A406D049
:101278008CC283F2010E02017F6F03D002018C2B16
:10128800B2D702017905D8A4D0D002017F5102015A
:10129800D8A415D0E80E00016E6FF60E00016F6F2E
:1012A8000FEC59F002018B51FBEC4EF0140E0001CB
:1012B8006E6FEE0E00016F6F0FEC59F0EAD102016C
:1012C80083510201D8B458D0000E02018C6F4CD063
:1012D80002018B51060DA10E0001EC6F020E0001F8
:1012E800ED6FF3500001EC27F4500001ED230201EB
:1012F8008C51020DF3500001EC25D96EF450000119
:10130800ED21DA6E02018551DE18D8A42AD0020137
:101318008B51060DA10E0001EC6F020E0001ED6F5E
:10132800F3500001EC27F4500001ED2302018C5129
:10133800020DF3500001EC27F4500001ED23010EDB
:101348000001EC25D96E000E0001ED21DA6E0201D4
:101358008651DE18D8A405D0000E02017F6F0CD08C
:1013680000D002018C2B00D00201835102018C5D58
:10137800D8B002D0ADD700D002017F510201D8A465
:1013880015D0740E00016E6FF70E00016F6F0FEC31
:1013980059F002018B51FBEC4EF0140E00016E6FF8
:1013A800EE0E00016F6F0FEC59F073D102018B51F3
:1013B800060DA10E0001EC6F020E0001ED6FF35057
:1013C8000001EC27F4500001ED2302018351020DC6
:1013D800F3500001EC25D96EF4500001ED21DA6ECE
:1013E80085C2DFFF02018B51060DA10E0001EC6FD3
:1013F800020E0001ED6FF3500001EC27F4500001DC
:10140800ED2302018351020DF3500001EC27F45043
:101418000001ED23010E0001EC25D96E000E00013C
:10142800ED21DA6E86C2DFFF34D102018351020159
:10143800D8B42FD1000E02018C6F23D102018B5139
:10144800060DA10E0001EC6F020E0001ED6FF350C6
:101458000001EC27F4500001ED2302018C51020D2C
:10146800F3500001EC25D96EF4500001ED21DA6E3D
:1014780002018551DE18D8A401D102018B51060D55
:10148800A10E0001EC6F020E0001ED6FF350000198
:10149800EC27F4500001ED2302018C51020DF350AA
:1014A8000001EC27F4500001ED23010E0001EC25AA
:1014B800D96E000E0001ED21DA6E02018651DE18A8
:1014C800D8A4DCD002018B51060DA10E0001EC6FEF
:1014D800020E0001ED6FF3500001EC27F4500001FB
:1014E800ED2302018C51020DF3500001EC25D96E59
:1014F800F4500001ED21DA6E000EDF6E02018B510F
:10150800060DA10E0001EC6F020E0001ED6FF35005
:101518000001EC27F4500001ED2302018C51020D6B
:10152800F3500001EC27F4500001ED23010E0001F7
:10153800EC25D96E000E0001ED21DA6E000EDF6E8B
:101548008CC284F2010E0201846501D0A2D002018E
:101558008B51060D020184510001EC6FED6BD890A0
:101568000001EC37ED37020E0001EC27000EED23E9
:10157800A10E0001EE6F020E0001EF6F0001EC51A9
:101588000001EE270001ED510001EF23F3500001A7
:10159800EE25D96EF4500001EF21DA6E02018B516D
:1015A800060DA10E0001F06F020E0001F16FF3505D
:1015B8000001F027F4500001F12302018451020DCB
:1015C800F3500001F025E16EF4500001F121E26EC4
:1015D800DFCFE7FF02018B51060D020184510001A4
:1015E800EC6FED6BD8900001EC37ED37020E00017F
:1015F800EC27000EED23A10E0001EE6F020E000194
:10160800EF6F0001EC510001EE270001ED510001E0
:10161800EF23F3500001EE27F4500001EF23010EF1
:101628000001EE25D96E000E0001EF21DA6E0201ED
:101638008B51060DA10E0001F06F020E0001F16F33
:10164800F3500001F027F4500001F1230201845106
:10165800020DF3500001F027F4500001F123010EB0
:101668000001F025E16E000E0001F121E26EDFCFEE
:10167800E7FF0201842B66D70CD000D002018C2B27
:1016880000D00201835102018C5DD8B002D0D6D6B9
:1016980000D002018B2B9CD591EC52F0000E020178
:1016A8008C6F090E02018C6501D029D002017905E1
:1016B800D8A402D08B8402D08B8200D0500E0001B7
:1016C800636FC30E646F000E656F000E666FB5EC36
:1016D80056F002017905D8A402D08B9402D08B92DF
:1016E80000D0500E0001636FC30E646F000E656F6B
:1016F800000E666FB5EC56F002018C2BD2D70201B2
:101708007905D8A417D0000E0001B16F020E0001B0
:10171800B26F650E0001B36FF50E0001B46FECC334
:10172800B5F0EDC3B6F0EEC3B7F0EFC3B8F05EECBA
:1017380018F017D0000E0001B16F020E0001B26F51
:101748002B0E0001B36FF00E0001B46FECC3B5F0BF
:10175800EDC3B6F0EEC3B7F0EFC3B8F05EEC18F027
:1017680000D0000E0001706F020E0001716F55EC81
:1017780058F0140E00016E6FEE0E00016F6F0FEC43
:1017880059F0120002017705D8B4C5D1E9C072F04A
:10179800EAC073F032EC3DF002017E6F02017E5127
:1017A8000201D8A411D0550E0001706FF60E000189
:1017B800716F9BEC57F0140E00016E6FEE0E000176
:1017C8006F6F0FEC59F01200020E02017E19D8A4B7
:1017D80003D00001EB2B00D0140E00016E6FEE0E4B
:1017E80000016F6F0FEC59F0E9C06FF0EAC070F0BC
:1017F800000E0001716F870E0001726F020E00016A
:10180800736F55EC35F00009D8A403D087C282F273
:1018180011D0D30E0001706FF30E0001716F9BECB5
:1018280057F0140E00016E6FEE0E00016F6F0FEC93
:1018380059F01200020182510201D8B405D0020EFB
:101848000201826512D000D07A0E0001706FF60E88
:101858000001716F9BEC57F0140E00016E6FEE0ED5
:1018680000016F6F0FEC59F01200E9C063F0EAC095
:1018780064F0010E0001656F640E0001666F020ED0
:101888000001676F18EC4AF00009D8B412D0E00ED6
:101898000001706FF50E0001716F9BEC57F0140E8C
:1018A80000016E6FEE0E00016F6F0FEC59F0120021
:1018B80032D1640E0001636F020E0001646F79EC8F
:1018C80057F002016551D8B405D0200E0201651900
:1018D800D8A40FD1000E0201656F02018205D8A4B9
:1018E80015D00C0E0001666FEE0E0001676F640ED6
:1018F8000001686F020E0001696F79EC40F0000981
:10190800D8A419D0000E02017F6F15D0020E020173
:101918008219D8A410D0100E0001666FEE0E0001D7
:10192800676F640E0001686F020E0001696F79EC41
:1019380040F0E5D700D002017F510201D8A411D0B0
:10194800770E0001706FF90E0001716F9BEC57F074
:10195800140E00016E6FEE0E00016F6F0FEC59F060
:10196800120002018205D8A417D0640E020164197E
:10197800D8A402D0000E22D0650E02016419D8A4A2
:1019880002D0010E1BD0660E02016419D8A4120001
:10199800020E14D01200BFD0020E02018219D8A480
:1019A800BAD0620E02016419D8A402D0030E06D080
:1019B800640E02016419D8A404D0040E0201806FD9
:1019C800AAD0680E02016419D8A41200640E00019E
:1019D800636F040E0001646FEBC365F00001666B72
:1019E8005CEC56F0000E0301EB6F000E0301EA6F8A
:1019F800570E00016E6FFE0E00016F6F0FEC59F06D
:101A0800140E00016E6FEE0E00016F6F0FEC59F0AF
:101A18003E0EA8EC58F0000E0201816F89EC5AF0D6
:101A28009E9A9D8A23D0E00E0001636F930E646F27
:101A3800040E656F000E666FB5EC56F00201812B3F
:101A4800190E0201816512D0140E00016E6FEE0EA0
:101A580000016F6F0FEC59F08B0E0001706FF10EE3
:101A68000001716F9BEC57F0120000D00301EA519E
:101A7800D8B4D9D79D9A010E02017F6F300E0401A8
:101A8800646505D0330E040164650DD000D0BD0E29
:101A98000001706FF10E0001716F9BEC57F0000EA2
:101AA80002017F6F00D004016451D00F0201786FEA
:101AB80002017851040F0201806F640E0001636F08
:101AC800040E0001646FEBC365F00001666B5CEC0B
:101AD80056F0000E0301EB6F000E0301EA6F0201DE
:101AE8007F510201D8B4120016D0120014D012008F
:101AF80012D00D0E0001706FF50E0001716F9BEC96
:101B080057F0140E00016E6FEE0E00016F6F0FECB0
:101B180059F0120000D0020179510201D8B4B2D1B3
:101B2800C9EC53F00009D8B4120001D01200140E09
:101B380000016E6FEE0E00016F6F0FEC59F0ECC3F1
:101B480067F0EDC368F0EEC369F0EFC36AF0850E85
:101B580000016B6F020E00016C6F860E00016D6F45
:101B6800020E00016E6F46EC51F0000E02017F6F0D
:101B7800000E02018C6F020E02018C6501D049D063
:101B880002018051060DA10E0001EC6F020E00014A
:101B9800ED6FF3500001EC27F4500001ED23020132
:101BA8008C51020DF3500001EC25D96EF450000160
:101BB800ED21DA6EDF50D8A429D002018051060D3C
:101BC800A10E0001EC6F020E0001ED6FF350000151
:101BD800EC27F4500001ED2302018C51020DF35063
:101BE8000001EC27F4500001ED23010E0001EC2563
:101BF800D96E000E0001ED21DA6EDF50D8A406D0B0
:101C08008CC283F2010E02017F6F03D002018C2B7C
:101C1800B2D702017F510201D8A409D0760E000183
:101C2800706FF30E0001716F9BEC57F01200020108
:101C380083510201D8B458D0000E02018C6F4CD0E9
:101C480002018051060DA10E0001EC6F020E000189
:101C5800ED6FF3500001EC27F4500001ED23020171
:101C68008C51020DF3500001EC25D96EF45000019F
:101C7800ED21DA6E02018551DE18D8A42AD00201BE
:101C88008051060DA10E0001EC6F020E0001ED6FF0
:101C9800F3500001EC27F4500001ED2302018C51B0
:101CA800020DF3500001EC27F4500001ED23010E62
:101CB8000001EC25D96E000E0001ED21DA6E02015B
:101CC8008651DE18D8A405D0000E02017F6F0CD013
:101CD80000D002018C2B00D00201835102018C5DDF
:101CE800D8B002D0ADD700D002017F510201D8A4EC
:101CF80009D0010E0001706FF40E0001716F9BECAA
:101D080057F0120002018051060DA10E0001EC6F80
:101D1800020E0001ED6FF3500001EC27F4500001B2
:101D2800ED2302018351020DF3500001EC25D96E19
:101D3800F4500001ED21DA6E85C2DFFF0201805107
:101D4800060DA10E0001EC6F020E0001ED6FF350BD
:101D58000001EC27F4500001ED2302018351020D2C
:101D6800F3500001EC27F4500001ED23010E0001AF
:101D7800EC25D96E000E0001ED21DA6E86C2DFFF78
:101D880091EC52F0020178510201D8B423D0000E30
:101D98000001B16F020E0001B26F970E0001B36F20
:101DA800EE0E0001B46FECC3B5F0EDC3B6F0EEC3B0
:101DB800B7F0EFC3B8F082C2B9F00001BA6B64C2E1
:101DC800BBF00001BC6B78C2BDF00001BE6B5EECDD
:101DD80018F01FD0000E0001B16F020E0001B26FA3
:101DE8008A0E0001B36FEF0E0001B46FECC3B5F0BB
:101DF800EDC3B6F0EEC3B7F0EFC3B8F082C2B9F0E6
:101E08000001BA6B64C2BBF00001BC6B5EEC18F059
:101E180000D0000E0001706F020E0001716F55ECCA
:101E280058F0140E00016E6FEE0E00016F6F0FEC8C
:101E380059F0000E02018C6F090E02018C6502D068
:101E4800120012008B84500E0001636FC30E646F82
:101E5800000E656F000E666FB5EC56F08B94500E51
:101E68000001636FC30E646F000E656F000E666F2E
:101E7800B5EC56F002018C2B090E02018C65E2D7F5
:101E88001200120002017705D8A455D0000E0201F5
:101E98008C6F020E02018C6501D097D0000E0201F2
:101EA800846F070E0201846501D041D0020184517C
:101EB800060DA10E0001EC6F020E0001ED6FF3504C
:101EC8000001EC27F4500001ED2302018C51020DB2
:101ED800F3500001EC25D96EF4500001ED21DA6EC3
:101EE800000EDF6E02018451060DA10E0001EC6F99
:101EF800020E0001ED6FF3500001EC27F4500001D1
:101F0800ED2302018C51020DF3500001EC27F4502F
:101F18000001ED23010E0001EC25D96E000E000131
:101F2800ED21DA6E000EDF6E0201842BBAD70201B2
:101F38008C2BAFD74AD0000E02018C6F020E020123
:101F48008C6501D042D002018051060DA10E00011E
:101F5800EC6F020E0001ED6FF3500001EC27F45016
:101F68000001ED2302018C51020DF3500001EC2514
:101F7800D96EF4500001ED21DA6E000EDF6E020119
:101F88008051060DA10E0001EC6F020E0001ED6FED
:101F9800F3500001EC27F4500001ED2302018C51AD
:101FA800020DF3500001EC27F4500001ED23010E5F
:101FB8000001EC25D96E000E0001ED21DA6E000E4D
:101FC800DF6E02018C2BBAD700D091EC52F00201DF
:101FD8007705D8A40FD0000E0001B16F020E0001E2
:101FE800B26F570E0001B36FEE0E0001B46F5EECD6
:101FF80018F037D0020178510201D8B41BD0000E76
:102008000001B16F020E0001B26FC00E0001B36F84
:10201800EF0E0001B46F82C2B5F00001B66B64C266
:10202800B7F00001B86B78C2B9F00001BA6B5EEC8A
:1020380018F017D0000E0001B16F020E0001B26F48
:10204800E10E0001B36FF40E0001B46F82C2B5F067
:102058000001B66B64C2B7F00001B86B5EEC18F013
:1020680000D0000E0001706F020E0001716F55EC78
:1020780058F0140E00016E6FEE0E00016F6F0FEC3A
:1020880059F0000E02018C6F090E02018C6502D016
:10209800120012008B82500E0001636FC30E646F32
:1020A800000E656F000E666FB5EC56F08B92500E01
:1020B8000001636FC30E646F000E656F000E666FDC
:1020C800B5EC56F002018C2B090E02018C65E2D7A3
:1020D80012001200E9C066F0EAC067F0CC0E0001F9
:1020E800686FFF0E0001696F7FEC53F00009D8B4E8
:1020F80097D0640E0001636F040E0001646FEBC398
:1021080065F00001666B5CEC56F0000E0301EB6FA6
:10211800000E0301EA6F9C0E00016E6FF80E0001BD
:102128006F6F0FEC59F0140E00016E6FEE0E000188
:102138006F6F0FEC59F03E0E38EC58F0000E0201AC
:10214800816F89EC5AF09E9A9D8A23D0E00E000197
:10215800636F930E646F040E656F000E666FB5ECC7
:1021680056F00201812B190E0201816512D0140E5E
:1021780000016E6FEE0E00016F6F0FEC59F0B50E97
:102188000001706FF90E0001716F9BEC57F012009F
:1021980000D00301EA51D8B4D9D79D9A590E040149
:1021A8006419D8B409D0790E04016419D8A414D0DC
:1021B80004016551D8A410D0A60E0001706FFD0E61
:1021C8000001716F9BEC57F0000E0201F26F91EC69
:1021D80052F0FF00120011D0140E00016E6FEE0EC7
:1021E80000016F6F0FEC59F0B50E0001706FF90E1A
:1021F8000001716F9BEC57F000D0640E0001636F13
:10220800040E0001646FEBC365F00001666B5CECC3
:1022180056F0000E0301EB6F000E0301EA6F120087
:10222800E9C066F0EAC067F04A0E0001686FFF0E69
:102238000001696F7FEC53F00009D8B4A1D1640E96
:102248000001636F040E0001646FEBC365F00001C9
:10225800666B5CEC56F0000E0301EB6F000E030199
:10226800EA6F150E00016E6FEF0E00016F6F0FEC35
:1022780059F0140E00016E6FEE0E00016F6F0FEC37
:1022880059F03E0EA8EC58F0000E0201816F89EC5F
:102298005AF09E9A9D8A23D0E00E0001636F930E38
:1022A800646F040E656F000E666FB5EC56F00201A0
:1022B800812B190E0201816512D0140E00016E6F78
:1022C800EE0E00016F6F0FEC59F02F0E0001706FCA
:1022D800F40E0001716F9BEC57F0120000D003015F
:1022E800EA51D8B4D9D79D9A640E0001636F040EE1
:1022F8000001646FDC0E0001656FFF0E0001666F60
:1023080055EC55F00009D8B42AD1640E0001636F6A
:10231800040E0001646FEBC365F00001666B5CECB2
:1023280056F0000E0301EB6F000E0301EA6F320E48
:1023380000016E6FFB0E00016F6F0FEC59F0140E69
:1023480000016E6FEE0E00016F6F0FEC59F03E0E3C
:1023580038EC58F0000E0201816F89EC5AF09E9A11
:102368009D8A2FD0E00E0001636F930E646F040EF8
:10237800656F000E666FB5EC56F00201812B020105
:102388006E510301EB19D8B404D0000E0201816F1D
:1023980000D0190E0201816511D0140E00016E6F74
:1023A800EE0E00016F6F0FEC59F02F0E0001706FE9
:1023B800F40E0001716F9BEC57F01200EBC36EF244
:1023C80000D00301EA51D8B4CDD7640E0001726F72
:1023D800040E0001736F32EC3DF002017E6F0201C2
:1023E8007E510201D8B4AAD0020E02017E19D8A4E7
:1023F80003D00301EB2B00D0640E00016F6F040EB5
:102408000001706F010E0001716F730E0001726F91
:10241800020E0001736F12EC33F00009D8A48ED0BD
:10242800020176BF8BD002017651020175110201BB
:10243800741104E102017305D8A080D073C2D1F2EF
:1024480074C2D2F275C2D3F276C2D4F222EEA1F0EF
:1024580000EE99F0330EDBCFEBFFE806FCE2020E4C
:102468000001CD6F000ECE6F000ECF6F000ED06F43
:10247800C1EC4BF00001995100019A1100019B1128
:1024880000019C11D8A448D092EC3FF0B50E000191
:10249800706FF40E0001716F9BEC57F0000E000195
:1024A800B16F020E0001B26F7D0E0001B36FFA0E1C
:1024B8000001B46FD1C2B5F0D2C2B6F0D3C2B7F042
:1024C800D4C2B8F05EEC18F0000E0001706F020E76
:1024D8000001716F55EC58F0140E00016E6FEE0E8E
:1024E80000016F6F0FEC59F0A60E0001706FFD0E22
:1024F8000001716F9BEC57F0000E0201F26F91EC36
:1025080052F0140E00016E6FEE0E00016F6F0FECAB
:1025180059F0FF00120012D0890E0001706FF40EFE
:102528000001716F9BEC57F0140E00016E6FEE0EF8
:1025380000016F6F0FEC59F0120000D0B80E0001C7
:10254800706FF70E0001716F9BEC57F0140E0001CD
:102558006E6FEE0E00016F6F0FEC59F012001A0E3D
:102568000001706FFB0E0001716F9BEC57F0140EA9
:1025780000016E6FEE0E00016F6F0FEC59F0120044
:10258800E9C066F0EAC067F0030E0001686FFC0E50
:102598000001696F7FEC53F00009D8B45FD1640E75
:1025A8000001636F040E0001646FEBC365F0000166
:1025B800666B5CEC56F0000E0301EB6F000E030136
:1025C800EA6F140E00016E6FEE0E00016F6F0FECD4
:1025D80059F02F0E00016E6FF60E00016F6F0FECB1
:1025E80059F0140E00016E6FEE0E00016F6F0FECC4
:1025F80059F03E0EA8EC58F0000E0201816F89ECEC
:102608005AF09E9A9D8A23D0E00E0001636F930EC4
:10261800646F040E656F000E666FB5EC56F002012C
:10262800812B190E0201816512D0140E00016E6F04
:10263800EE0E00016F6F0FEC59F0510E0001706F34
:10264800EF0E0001716F9BEC57F0120000D00301F0
:10265800EA51D8B4D9D79D9A590E04016419D8B44F
:1026680009D0790E04016419D8A4E7D00401655192
:10267800D8A4E3D0640E0001636F040E0001646FF8
:10268800EBC365F00001666B5CEC56F0000E0301CD
:10269800EB6F000E0301EA6F140E00016E6FEE0E71
:1026A80000016F6F0FEC59F02E0E00016E6FF70EE0
:1026B80000016F6F0FEC59F0140E00016E6FEE0EF3
:1026C80000016F6F0FEC59F03E0E38EC58F0000E19
:1026D8000201816F89EC5AF09E9A9D8A27D0E00EFC
:1026E8000001636F930E646F040E656F000E666FD2
:1026F800B5EC56F00201812B02016E510301EB1972
:10270800D8B404D0000E0201816F00D0190E020166
:10271800816509D0510E0001706FEF0E0001716FD5
:102728009BEC57F01200EBC36EF200D00301EA51A4
:10273800D8B4D5D79D9A140E00016E6FEE0E000125
:102748006F6F0FEC59F0140E00016E6FEE0E000162
:102758006F6F0FEC59F004016451D8B45DD00401D7
:102768007851D8A459D0640E0001656F040E000199
:10277800666F8DEC58F00009D8B43DD0F60E000114
:10278800706FEF0E0001716F9BEC57F0140E000193
:102798006E6FEE0E00016F6F0FEC59F0640E0001C2
:1027A8006B6F040E00016C6FE60E00016D6F040E76
:1027B80000016E6F150E00016F6F000E0001706F43
:1027C80011EC54F0500E0001636FC30E646F000EDD
:1027D800656F000E666FB5EC56F0000E5AEC26F0E9
:1027E8000009D8B404D0010E0301E86F1200000EEE
:1027F8000301E86F12008F0E0001706FF50E0001E3
:10280800716F9BEC57F0140E00016E6FEE0E000115
:102818006F6F0FEC59F01200170E0001706FEE0E7B
:102828000001716F9BEC57F0140E00016E6FEE0EF5
:1028380000016F6F0FEC59F01200510E0001706F1C
:10284800EF0E0001716F9BEC57F0140E00016E6FD4
:10285800EE0E00016F6F0FEC59F01200E9C066F040
:10286800EAC067F0820E0001686FFF0E0001696F11
:102878007FEC53F00009D8B42FD0140E00016E6F0E
:10288800EE0E00016F6F0FEC59F0000E0001B16FF2
:10289800020E0001B26FE80E0001B36FFC0E0001DA
:1028A800B46F30EC53F08CC0B5F08DC0B6F08EC06C
:1028B800B7F05EEC18F0000E0001706F020E000118
:1028C800716F55EC58F0140E00016E6FEE0E00019A
:1028D8006F6F0FEC59F01200E9C066F0EAC067F0BC
:1028E8006C0E0001686FF70E0001696F7FEC53F002
:1028F8000009D8B4C3D0140E00016E6FEE0E0001AB
:102908006F6F0FEC59F0000E0001B16F020E00015D
:10291800B26F830E0001B36FFC0E0001B46FFE0EA0
:102928000001B56FED0E0001B66F5EEC18F0000EF9
:102938000001706F020E0001716F55EC58F0140E13
:1029480000016E6FEE0E00016F6F0FEC59F00C0E68
:102958000001706FFA0E0001716F9BEC57F0140EB6
:1029680000016E6FEE0E00016F6F0FEC59F0910EC3
:102978000001706FFB0E0001716F9BEC57F0C80EE1
:102988000001706F040E0001716F55EC58F0320EA3
:102998000001706F050E0001716F55EC58F0140EB0
:1029A80000016E6FEE0E00016F6F0FEC59F0000E14
:1029B8000001B16F020E0001B26F0B0E0001B36F80
:1029C800FE0E0001B46F070E0001B56FEE0E000198
:1029D800B66F5EEC18F0000E0001706F020E000179
:1029E800716F55EC58F0000E0001B16F020E000136
:1029F800B26FB30E0001B36FFA0E0001B46F9C0EF4
:102A08000001B56FEC0E0001B66F5EEC18F0000E19
:102A180000016D6F020E00016E6FE0EC59F0140EAC
:102A28000001706FEE0E0001716F9BEC57F0000E05
:102A38000001B16F020E0001B26F6F0E0001B36F9B
:102A4800FD0E0001B46FD1C2B5F0D2C2B6F0D3C248
:102A5800B7F0D4C2B8F05EEC18F0000E00016D6F4C
:102A6800020E00016E6FE0EC59F0140E00016E6F5B
:102A7800EE0E00016F6F0FEC59F01200E9C063F021
:102A8800EAC064F0E50E0001656FFF0E0001666F95
:102A980055EC55F00009D8B4F3D2140E00016E6F4E
:102AA800EE0E00016F6F0FEC59F0000E02018C6FF3
:102AB800210E02018C6501D006D07E0E38EC58F04C
:102AC80002018C2BF5D7DC0E00016E6FFA0E0001A7
:102AD8006F6F0FEC59F0000E02018C6F210E02018E
:102AE8008C6501D006D07E0E38EC58F002018C2B94
:102AF800F5D7140E00016E6FEE0E00016F6F0FEC2C
:102B080059F0140E00016E6FEE0E00016F6F0FEC9E
:102B180059F0C90E0001706FFD0E0001716F9BEC3A
:102B280057F0E50E0001706FFF0E0001716F540E33
:102B38000001726FFF0E0001736F89EC49F0CC0E33
:102B48000001706FFF0E0001716F7C0E0001726F43
:102B5800F80E0001736F89EC49F06C0E0001706F7C
:102B6800F70E0001716F510E0001726FF70E000130
:102B7800736F89EC49F04A0E0001706FFF0E000177
:102B8800716F190E0001726FFC0E0001736F89ECF2
:102B980049F0030E0001706FFC0E0001716FFB0E0F
:102BA8000001726FF70E0001736F89EC49F0140E83
:102BB80000016E6FEE0E00016F6F0FEC59F06E0E94
:102BC8000001706FFC0E0001716F9BEC57F0820ED4
:102BD8000001706FFF0E0001716F450E0001726FEA
:102BE800FA0E0001736F89EC49F0140E00016E6F44
:102BF800EE0E00016F6F0FEC59F0720E0001706F4E
:102C0800FE0E0001716F9BEC57F0010E02018C6FF4
:102C18000C0E02018C6501D030D0000E0001636FEC
:102C2800020E0001646F000E0001666F320E656FC0
:102C38005CEC56F0000E0001B16F020E0001B26F9D
:102C48002B0E0001B36FFE0E0001B46F8CC2B5F0FD
:102C58000001B66B5EEC18F0000E0001706F020EFA
:102C68000001716FE90E0001726FFA0E0001736FB7
:102C780089EC49F002018C2BCBD7010E02018C6F35
:102C88000C0E02018C6501D030D0000E0001636F7C
:102C9800020E0001646F000E0001666F320E656F50
:102CA8005CEC56F0000E0001B16F020E0001B26F2D
:102CB8005C0E0001B36FFD0E0001B46F8CC2B5F05D
:102CC8000001B66B5EEC18F0000E0001706F020E8A
:102CD8000001716F4A0E0001726FFB0E0001736FE5
:102CE80089EC49F002018C2BCBD7340E0001706FB0
:102CF800FF0E0001716FD60E0001726FEE0E00011B
:102D0800736F89EC49F0FD0E0001706FFE0E000133
:102D1800716F520E0001726FF20E0001736F89EC31
:102D280049F0130E0001706FFF0E0001716FB40EB1
:102D38000001726FF20E0001736F89EC49F01E0EEC
:102D48000001706FFF0E0001716FE50E0001726FD8
:102D5800F20E0001736F89EC49F0F20E0001706FFA
:102D6800FE0E0001716F210E0001726FF20E00015C
:102D7800736F89EC49F0080E0001706FFF0E0001B7
:102D8800716F830E0001726FF20E0001736F89EC90
:102D980049F0290E0001706FFF0E0001716F160EC9
:102DA8000001726FF30E0001736F89EC49F0CD0ECC
:102DB8000001706FFE0E0001716F080E0001726F46
:102DC800F60E0001736F89EC49F0FB0E0001706F7D
:102DD800FD0E0001716F390E0001726FF50E0001D2
:102DE800736F89EC49F08C0E0001706FFE0E0001C4
:102DF800716F910E0001726FF00E0001736F89EC14
:102E080049F0A60E0001706FFE0E0001716FF50EFD
:102E18000001726FF00E0001736F89EC49F0B30E78
:102E28000001706FFE0E0001716F270E0001726FB6
:102E3800F10E0001736F89EC49F07F0E0001706F8D
:102E4800FE0E0001716F5F0E0001726FF00E00013F
:102E5800736F89EC49F0990E0001706FFE0E000146
:102E6800716FC30E0001726FF00E0001736F89EC71
:102E780049F0C00E0001706FFE0E0001716F590E0F
:102E88000001726FF10E0001736F89EC49F0980E22
:102E98000001706FFA0E0001716FB80E0001726FB9
:102EA800F50E0001736F89EC49F0D70E0001706FC1
:102EB800FF0E0001716FB80E0001726FF50E000170
:102EC800736F89EC49F0140E00016E6FEE0E00016D
:102ED8006F6F0FEC59F0650E0001706FFE0E000168
:102EE800716F9BEC57F0A60E0001706FFF0E00018A
:102EF800716F960E0001726FF70E0001736F89EC07
:102F080049F0810E0001706FED0E0001716F100E17
:102F18000001726FFD0E0001736F89EC49F0900E8D
:102F28000001706FED0E0001716F230E0001726FCA
:102F3800FD0E0001736F89EC49F09F0E0001706F60
:102F4800ED0E0001716F360E0001726FFD0E00016B
:102F5800736F89EC49F0780E0001706FEC0E000178
:102F6800716FED0E0001726FFB0E0001736F89EC3B
:102F780049F0520E0001706FEC0E0001716FA80E3F
:102F88000001726FFB0E0001736F89EC49F08A0E25
:102F98000001706FEC0E0001716F490E0001726F35
:102FA800FD0E0001736F89EC49F0650E0001706F2A
:102FB800EC0E0001716FC00E0001726FFC0E000173
:102FC800736F89EC49F0160E0001706FEC0E00016A
:102FD800716F1A0E0001726FF90E0001736F89ECA0
:102FE80049F0D70E0001706FEB0E0001716F1C0ED7
:102FF8000001726FF80E0001736F89EC49F02A0E18
:103008000001706FEC0E0001716F390E0001726FD4
:10301800F90E0001736F89EC49F0EC0E0001706F36
:10302800EB0E0001716F3C0E0001726FF80E00018B
:10303800736F89EC49F03E0E0001706FEC0E0001D1
:10304800716F580E0001726FF90E0001736F89ECF1
:1030580049F0010E0001706FEC0E0001716F5C0EFB
:103068000001726FF80E0001736F89EC49F0140EBD
:1030780000016E6FEE0E00016F6F0FEC59F0120039
:10308800CC0E0001706FED0E0001716F9BEC57F0D4
:10309800CE0E0001706FFA0E0001716F9BEC57F0B5
:1030A800140E00016E6FEE0E00016F6F0FEC59F0F9
:1030B80012001200B50E0001CD6F000E0001CE6F98
:1030C80001EF20F0250E0001E219D8B40BD0B1C0F1
:1030D800D9FFB2C0DAFFE2C0DFFF0001B14BB22B6B
:1030E80001EF20F0000E0001DF6F000EDE6F000E12
:1030F8000001E16F000EE06F07D00001E0850001DC
:10310800B34BB42B01D00CD0B3C0F6FFB4C0F7FF5B
:10311800F86A0800F550300AD8B4EFD701D0F4D7D0
:10312800B3C0F6FFB4C0F7FFF86A0800F55071ECB9
:1031380059F0D8A010D1000E0001DF6F000EDE6F2D
:1031480000D0DEC071F0DFC072F0000E0001746FB5
:103158000A0E736F71EC58F071C0DEF072C0DFF0C8
:10316800D00E0001BF6FFF0E0001C06FB3C0F6FFA5
:10317800B4C0F7FFF86A0800F5500001C16FC26BD0
:103188000001BF510001C1270001C0510001C22345
:103198000001C1510001DE270001C2510001DF23F7
:1031A8000001B34BB42BB3C0F6FFB4C0F7FFF86A05
:1031B8000800F55071EC59F0D8A0CDD0C2D7CBD0CB
:1031C80013EF20F00001E089C6D00001E185F0D0BE
:1031D80000D00001E08FECD0CDC0D9FFCEC0DAFF1F
:1031E800DECFC9F0DDCFCAF0020E0001CD27000EF8
:1031F800CE230001C9510001CA11D8A407D08A0EF4
:103208000001C96FFF0E0001CA6F00D0000E000157
:10321800CC6F000ECB6F04D00001CB4BCC2B00D071
:103228000001CB510001C9250001BF6F0001CC513D
:103238000001CA210001C06FBFC0F6FFC0C0F7FF80
:10324800000EF86E0F0EF76403D00800F55005D095
:10325800F6CFE9FFF7CFEAFFEF500009D8B402D064
:10326800DBD700D00001DE510001CB5D0001DF514A
:103278000001CC59D8B009D00001CB510001DE5F64
:103288000001CC510001DF5B10D0000E0001DF6FA0
:10329800000EDE6F0AD0B1C0D9FFB2C0DAFF200E2F
:1032A800DF6E0001B14BB22B00D00001DE07D8A0C1
:1032B800DF070001DE29EFE10001DF29D8B41FD0C4
:1032C800EAD71DD0C9C0F6FFCAC0F7FF000EF86ED6
:1032D800B1C0D9FFB2C0DAFF0F0EF76403D00800FF
:1032E800F55005D0F6CFE9FFF7CFEAFFEF50DF6ED4
:1032F8000001C94BCA2B0001B14BB22B00D0000111
:10330800CB07D8A0CC070001CB29DCE10001CC29F0
:10331800D8B401EF20F0D6D701EF20F0CDC0D9FF07
:10332800CEC0DAFFDF500001E26F020E0001CD27A8
:10333800000ECE2300D0E20E0001C96F000E00017E
:10334800CA6F000E0001CC6F010ECB6F8BD7C00E79
:103358000001E0132DD0B3C0F6FFB4C0F7FF0001A1
:10336800B34BB42BF86A0800F5CFE2F00001E25144
:10337800000AD8B413EF20F0580AD8B42AD73B0A69
:10338800D8B4CCD7070AD8B413D0020AD8B41DD7FA
:103398000F0AD8B40DD0050AD8B414D71F0AD8B468
:1033A8001BD7060AD8B4D3D70D0AD8B412D7C3D7B7
:1033B800070E0001E115D8B4EDD3000E0001D06F5F
:1033C800060ECF6FCDC0D9FFCEC0DAFFDECFDBF05F
:1033D800DECFDCF0DDCFDDF0030E0001CD27000EDF
:1033E800CE230001DDAF12D0DBC063F0DCC064F097
:1033F800DDC065F041EC59F063C0DBF064C0DCF07F
:1034080065C0DDF0030E0001E01300D0000E0001DE
:10341800D66F000ED56F0001DB510001DC110001F1
:10342800DD11D8B49DD0820E0001BF6FFF0E0001E0
:10343800C06FDBC0C1F0DCC0C2F0DDC0C3F0DEC0CD
:10344800C4F0100E06D00001D890C433C333C23381
:10345800C133E82EF8D70001C1510001BF25000192
:10346800D56F000E0001C0210001D66F0001D507FD
:10347800D8A0D607D5C071F0D6C072F0000E0001F2
:10348800746F030E736F71EC58F071C0D5F072C091
:10349800D6F0D5C069F0D6C06AF0000E00016C6F96
:1034A8000A0E6B6F93EC4EF069C0D5F06AC0D6F087
:1034B8000001D6AF05D00001D507D8A0D60700D0A7
:1034C8000001D551000890EC30F08CC0D1F08DC0CF
:1034D800D2F08EC0D3F0D1C07DF0D2C07EF0D3C080
:1034E8007FF0DBC080F0DCC081F0DDC082F069ECE9
:1034F80044F07DC0D1F07EC0D2F07FC0D3F0D1C0FF
:1035080063F0D2C064F0D3C065F0000E0001666FAE
:10351800800E0001676F3F0E0001686F62EC4FF08C
:103528000001D8B005D00001D507D8A0D60718D01B
:10353800D1C063F0D2C064F0D3C065F0000E0001C2
:10354800666F200E0001676F410E0001686F62EC24
:103558004FF00001D8A004D00001D54BD62B00D0E5
:103568000001D0BF08D00001D0511EE10D0E0001AE
:10357800CF5DD8B019D0DBC096F0DCC097F0DDC0C5
:1035880098F00001CF5187EC3AF08CC099F08DC0CB
:103598009AF08EC09BF0F3EC3BF096C0DBF097C03E
:1035A800DCF098C0DDF000D00001D6BF08D00001E3
:1035B800D6512CE10A0E0001D55DD8B027D0000104
:1035C800DB510001DC110001DD11D8B47FD0DBC074
:1035D800A2F0DCC0A3F0DDC0A4F076EC46F0000158
:1035E800A2510001A3110001A4110001A511D8A442
:1035F8006DD00001D6BF6AD00001D65107E1020E96
:103608000001D55DD8B002D061D000D0D1C063F040
:10361800D2C064F0D3C065F0700E0001666F890EE9
:103628000001676F400E0001686F62EC4FF0000107
:10363800D8B003D00001F70E02D00001F80ED5274C
:10364800FF0ED62300D00001D55190EC30F08CC08D
:10365800D1F08DC0D2F08EC0D3F017D0DBC063F0AC
:10366800DCC064F0DDC065F0D1C066F0D2C067F0A0
:10367800D3C068F023EC42F063C0D7F064C0D8F040
:1036880065C0D9F066C0DAF017D0DBC063F0DCC0E3
:1036980064F0DDC065F0D1C066F0D2C067F0D3C079
:1036A80068F050EC41F063C0D7F064C0D8F065C052
:1036B800D9F066C0DAF000D0000E0001DB6F000E12
:1036C8000001DC6F000E0001DD6F34D0DBC0A2F01A
:1036D800DCC0A3F0DDC0A4F076EC46F0A2C0D7F0C1
:1036E800A3C0D8F0A4C0D9F0A5C0DAF0DBC0A2F01E
:1036F800DCC0A3F0DDC0A4F0D7C06BF0D8C06CF07C
:10370800D9C06DF0DAC06EF09AEC54F06BC0A5F039
:103718006CC0A6F06DC0A7F00AEC57F0A2C0DBF0B1
:10372800A3C0DCF0A4C0DDF0000E0001D66F000ECF
:10373800D56F00D0010E0001E26F0A0E0001E219F8
:10374800D8B425D001D023D00001E251040D270EB2
:10375800F324F66EEB0EF420F76EF86A000EF822EA
:103768000900F5500001D75D0900F5500001D8594E
:103778000900F5500001D9590900F5500001DA593E
:10378800D8A005D001D003D00001E22BD6D7E2C0E3
:10379800BFF00001C06BBFBFC0070001CF510001DF
:1037A800BF270001D0510001C0230001D5510001FD
:1037B800BF270001D6510001C0230001BF510001FD
:1037C800DE5F0001C0510001DF5B0001CF51000145
:1037D800D011D8B405D00001DE07D8A0DF0700D08B
:1037E800030E0001E0150001BF6F000E0001E11596
:1037F8000001C06F0001BF510001C011D8B405D04D
:103808000001DE07D8A0DF0700D00001E0A543D003
:10381800030E0001E0150001BF6F000E0001E11565
:103828000001C06F0001BF510001C011D8B418D009
:10383800B1C0D9FFB2C0DAFF2D0EDF6E0001B14B67
:10384800B22B0ED0B1C0D9FFB2C0DAFF300EDF6E96
:103858000001B14BB22B0001DE07D8A0DF0700D072
:103868000001DFBF8AD00001DF51ECE10001DE0575
:10387800D8A083D0E7D781D00ED0B1C0D9FFB2C0CD
:10388800DAFF200EDF6E0001B14BB22B0001DE071C
:10389800D8A0DF0700D00001DFBF07D00001DF514B
:1038A800ECE10001DE05D8B0E8D7030E0001E01511
:1038B8000001BF6F000E0001E1150001C06F00019B
:1038C800BF510001C011D8B458D0B1C0D9FFB2C09F
:1038D800DAFF2D0E50D00001B14BB22B4ED0D7C01D
:1038E80063F0D8C064F0D9C065F0DAC066F00001B2
:1038F800E251040D270EF324F66EEB0EF420F76E5A
:10390800F86A000EF8220900F5CF67F00900F5CF34
:1039180068F00900F5CF69F00A00F5CF6AF02EECDF
:1039280050F063C0D1F064C0D2F065C0D3F066C077
:10393800D4F0D1C070F0D2C071F0D3C072F0D4C04E
:1039480073F00A0E0001746F000E756F000E766F2B
:10395800000E776F9DEC51F070C0D1F071C0D2F0BD
:1039680072C0D3F073C0D4F00001D151300FB1C090
:10397800D9FFB2C0DAFFDF6EAED70001E20700015F
:10398800E229D8B410D0ABD70ED0B1C0D9FFB2C09D
:10399800DAFF300EDF6E0001B14BB22B0001D50704
:1039A800D8A0D60700D00001D6BF07D00001D65155
:1039B800ECE10001D505D8B0E8D70001D0BF0CD0A4
:1039C8000001D05105E1090E0001CF5DD8A004D057
:1039D800080E0001E26F03D0CFC0E2F000D0000172
:1039E800E2510001CF5F000E0001E2BFFF0E0001AF
:1039F800D05B0001E2510001D8B40AD0B1C0D9FFB0
:103A0800B2C0DAFF2E0EDF6E0001B14BB22B00D030
:103A18000001E25190EC30F08CC0C5F08DC0C6F0CA
:103A28008EC0C7F0DBC080F0DCC081F0DDC082F062
:103A3800C5C07DF0C6C07EF0C7C07FF069EC44F019
:103A48007DC0A2F07EC0A3F07FC0A4F076EC46F063
:103A5800A2C0D7F0A3C0D8F0A4C0D9F0A5C0DAF0AE
:103A68007BD0D7C063F0D8C064F0D9C065F0DAC0A5
:103A780066F00001E251040D270EF324F66EEB0EFA
:103A8800F420F76EF86A000EF8220900F5CF67F007
:103A98000900F5CF68F00900F5CF69F00A00F5CF05
:103AA8006AF02EEC50F063C0D1F064C0D2F065C06B
:103AB800D3F066C0D4F0D1C070F0D2C071F0D3C0DA
:103AC80072F0D4C073F00A0E0001746F000E756FA7
:103AD800000E766F000E776F9DEC51F070C0D1F03C
:103AE80071C0D2F072C0D3F073C0D4F00001D151CC
:103AF800300FB1C0D9FFB2C0DAFFDF6E0001B14BA1
:103B0800B22BD7C070F0D8C071F0D9C072F0DAC04B
:103B180073F00001E251040D270EF324F66EEB0E4C
:103B2800F420F76EF86A000EF8220900F5CF74F059
:103B38000900F5CF75F00900F5CF76F00A00F5CF4A
:103B480077F09DEC51F070C0D7F071C0D8F072C01A
:103B5800D9F073C0DAF000D00001E2070001E229D1
:103B6800D8B410D07ED70ED0B1C0D9FFB2C0DAFF1A
:103B7800300EDF6E0001B14BB22B0001CF07D8A089
:103B8800D00700D00001CF510001D011D8B435D2F0
:103B9800EBD733D2C00E0001E0150001BF6F000E55
:103BA8000001E1150001C06F0001BF510001C01103
:103BB800D8A435D00001E0A90ED0CDC0D9FFCEC021
:103BC800DAFFDECFD7F0DECFD8F0DECFD9F0DECF08
:103BD800DAF0040E0FD0CDC0D9FFCEC0DAFFDECFA9
:103BE800D7F0DDCFD8F00001000ED8BFFF0ED96F97
:103BF800DA6F020E0001CD27000ECE2300D000019F
:103C0800DAAF90D0030E0001E0130001DA1FD91FCC
:103C1800D81FD76D000ED823D923DA2383D000010B
:103C2800E0A90ED0CDC0D9FFCEC0DAFFDECFD7F0E5
:103C3800DECFD8F0DECFD9F0DECFDAF0040E10D028
:103C4800CDC0D9FFCEC0DAFFDECFBFF0DDCFC0F0E8
:103C5800BFC0D7F0C0C0D8F00001D96BDA6B020E34
:103C68000001CD27000ECE235DD000D0010E00014B
:103C7800E26F0A0E0001E219D8B461D001D05FD01A
:103C88000001E251040D270EF324F66EEB0EF4202A
:103C9800F76EF86A000EF8220900F5500001D75DAA
:103CA8000900F5500001D8590900F5500001D9590B
:103CB8000900F5500001DA59D8A041D001D03FD011
:103CC8000001E22BD6D73BD0010E0001E26F080EAF
:103CD8000001E219D8B433D001D031D00001E2514B
:103CE800040D9D0EF324F66EEB0EF420F76EF86AC1
:103CF800000EF8220900F5500001D75D0900F550C3
:103D08000001D8590900F5500001D9590900F550AA
:103D18000001DA59D8A013D001D011D00001E22B4C
:103D2800D6D70DD00001E051C00B000AD8B49ED7F9
:103D3800800AD8B4C9D7400AD8B498D700D00001AF
:103D4800DE510001DF11D8B415D0030E0001E015D3
:103D58000001BF6F000E0001E1150001C06F0001F6
:103D6800BF510001C011D8B405D00001DE07D8A0AA
:103D7800DF0700D0800E0001E2BF7F0E0001BF6F99
:103D88000001DE510001E25D0001DF51800A0001FF
:103D9800BF59D8B00BD00001E2510001DE5F000E20
:103DA8000001E2BFFF0E0001DF5B06D0000E00013C
:103DB800DF6F000EDE6F00D00001E0A535D0030EE6
:103DC8000001E0150001BF6F000E0001E1150001C0
:103DD800C06F0001BF510001C011D8B40AD0B1C0F2
:103DE800D9FFB2C0DAFF2D0EDF6E0001B14BB22B46
:103DF80000D00001DE510001DF11D8B44AD0B1C0B3
:103E0800D9FFB2C0DAFF300EDF6E0001B14BB22B22
:103E18000001DE07D8A0DF070001DE510001DF1135
:103E2800D8B437D0ECD735D00001DE510001DF110E
:103E3800D8B415D0B1C0D9FFB2C0DAFF200EDF6EFA
:103E48000001B14BB22B0001DE07D8A0DF0700014B
:103E5800DE510001DF11D8B402D0ECD700D0030E38
:103E68000001E0150001BF6F000E0001E11500011F
:103E7800C06F0001BF510001C011D8B40AD0B1C051
:103E8800D9FFB2C0DAFF2D0EDF6E0001B14BB22BA5
:103E980000D00001E2510001CF6FD06BCFBFD00737
:103EA8009FD087D000D0CFC0BFF0D0C0C0F00001F5
:103EB800D890BF37C0370001D890BF37C037270E1A
:103EC8000001BF25F66EEB0EC021F76EF86A000EF2
:103ED800F8220900F5CF67F00900F5CF68F009006E
:103EE800F5CF69F00A00F5CF6AF0D7C063F0D8C003
:103EF80064F0D9C065F0DAC066F02EEC50F063C00B
:103F080070F064C071F065C072F066C073F00A0E9C
:103F18000001746F000E756F000E766F000E776FDC
:103F28009DEC51F000017051300F0001E26F4ED04E
:103F3800D7C063F0D8C064F0D9C065F0DAC066F0C5
:103F4800CFC0BFF0D0C0C0F00001D890BF37C03795
:103F58000001D890BF37C0379D0E0001BF25F66E0F
:103F6800EB0EC021F76EF86A000EF8220900F5CFB3
:103F780067F00900F5CF68F00900F5CF69F00A008D
:103F8800F5CF6AF02EEC50F0000163510F0B0001E1
:103F9800C86F0001C851010DB80EF324F66EFD0E6E
:103FA800F420F76EF86A000EF8220800F5CFE2F068
:103FB8000DD00001E051C00B000AD8B474D7800AB4
:103FC800D8B4B6D7400AD8B46ED700D0B1C0D9FF9C
:103FD800B2C0DAFFE2C0DFFF0001B14BB22B00D064
:103FE8000001CF07D8A0D0070001CF29E2E10001E6
:103FF800D029D8B402D0DDD700D0B3C0F6FFB4C002
:10400800F7FF0001B34BB42BF86A0800F5CFE2F0D4
:104018000001E251D8B403D066EF18F000D0B1C067
:10402800D9FFB2C0DAFF000EDF6E12001200000ED8
:1040380000016F6F000E706F000E716F000E726FCF
:10404800010E000163150001676F000E0001641581
:104058000001686F000E000165150001696F000E10
:104068000001661500016A6F1F0ED89000016737BE
:10407800683769376A37E82EF8D7000167510001B9
:104088006F27000168510001702300016951000188
:10409800712300016A5100017223020E00016315A9
:1040A8000001676F000E000164150001686F000EC3
:1040B800000165150001696F000E00016615000119
:1040C8006A6F1D0ED89000016737683769376A37FD
:1040D800E82EF8D70001675100016F2700016851E9
:1040E80000017023000169510001712300016A5128
:1040F80000017223040E000163150001676F000EB2
:10410800000164150001686F000E000165150001CB
:10411800696F000E0001661500016A6F1B0ED890CA
:1041280000016737683769376A37E82EF8D7000122
:10413800675100016F2700016851000170230001D9
:1041480069510001712300016A5100017223080EB0
:10415800000163150001676F000E0001641500017E
:10416800686F000E000165150001696F000E0001FF
:10417800661500016A6F190ED89000016737683715
:1041880069376A37E82EF8D70001675100016F27B1
:104198000001685100017023000169510001712379
:1041A80000016A5100017223100E0001631500011D
:1041B800676F000E000164150001686F000E0001B2
:1041C80065150001696F000E0001661500016A6F30
:1041D800170ED89000016737683769376A37E82EB5
:1041E800F8D70001675100016F27000168510001ED
:1041F8007023000169510001712300016A51000117
:104208007223200E000163150001676F000E000184
:1042180064150001686F000E000165150001696FE3
:10422800000E0001661500016A6F150ED890000196
:104238006737683769376A37E82EF8D7000167515A
:1042480000016F27000168510001702300016951C6
:104258000001712300016A5100017223400E000120
:1042680063150001676F000E000164150001686F97
:10427800000E000165150001696F000E000166154A
:1042880000016A6F130ED8900001673768376937E5
:104298006A37E82EF8D70001675100016F2700013F
:1042A8006851000170230001695100017123000168
:1042B8006A5100017223800E000163150001676FC7
:1042C800000E000164150001686F000E00016515FD
:1042D8000001696F000E0001661500016A6F110E7A
:1042E800D89000016737683769376A37E82EF8D7FA
:1042F8000001675100016F27000168510001702318
:10430800000169510001712300016A510001722303
:10431800000E000163150001676F010E00016415AE
:104328000001686F000E000165150001696F000E3D
:104338000001661500016A6F0F0ED89000016737FB
:10434800683769376A37E82EF8D7000167510001E6
:104358006F270001685100017023000169510001B5
:10436800712300016A5100017223000E00016315D8
:104378000001676F020E000164150001686F000EEE
:10438800000165150001696F000E00016615000146
:104398006A6F0D0ED89000016737683769376A373A
:1043A800E82EF8D70001675100016F270001685116
:1043B80000017023000169510001712300016A5155
:1043C80000017223000E000163150001676F040EDF
:1043D800000164150001686F000E000165150001F9
:1043E800696F000E0001661500016A6F0B0ED89008
:1043F80000016737683769376A37E82EF8D7000150
:10440800675100016F270001685100017023000106
:1044180069510001712300016A5100017223000EE5
:10442800000163150001676F080E000164150001A3
:10443800686F000E000165150001696F000E00012C
:10444800661500016A6F090ED89000016737683752
:1044580069376A37E82EF8D70001675100016F27DE
:1044680000016851000170230001695100017123A6
:1044780000016A5100017223000E0001631500015A
:10448800676F100E000164150001686F000E0001CF
:1044980065150001696F000E0001661500016A6F5D
:1044A800070ED89000016737683769376A37E82EF2
:1044B800F8D70001675100016F270001685100011A
:1044C8007023000169510001712300016A51000144
:1044D8007223000E000163150001676F200E0001B2
:1044E80064150001686F000E000165150001696F11
:1044F800000E0001661500016A6F050ED8900001D4
:104508006737683769376A37E82EF8D70001675187
:1045180000016F27000168510001702300016951F3
:104528000001712300016A5100017223000E00018D
:1045380063150001676F400E000164150001686F84
:10454800000E000165150001696F000E0001661577
:1045580000016A6F030ED890000167376837693722
:104568006A37E82EF8D70001675100016F2700016C
:104578006851000170230001695100017123000195
:104588006A5100017223000E000163150001676F74
:10459800800E000164150001686F000E00016515AA
:1045A8000001696F000E0001661500016A6FD8905E
:1045B8000001673500016B6F0001683500016C6F01
:1045C8000001693500016D6F00016A3500016E6FE9
:1045D80000016B5100016F2700016C51000170232D
:1045E80000016D510001712300016E510001722319
:1045F80063C067F064C068F065C069F066C06AF0BF
:104608000001D8906A33693368336733000E0001BC
:10461800671500016B6F800E0001681500016C6F53
:10462800000E0001691500016D6F000E00016A158A
:1046380000016E6F00016B5100016F2700016C5182
:104648000001702300016D510001712300016E51BA
:104658000001722363C067F064C068F065C069F048
:1046680066C06AF0040E06D00001D8906A33693338
:1046780068336733E82EF8D7000E0001671500018C
:104688006B6F400E0001681500016C6F000E000191
:10469800691500016D6F000E00016A1500016E6F4B
:1046A80000016B5100016F2700016C51000170235C
:1046B80000016D510001712300016E510001722348
:1046C80063C067F064C068F065C069F066C06AF0EE
:1046D800060E06D00001D8906A3369336833673311
:1046E800E82EF8D7000E0001671500016B6F200E49
:1046F8000001681500016C6F000E000169150001CA
:104708006D6F000E00016A1500016E6F00016B519C
:1047180000016F2700016C510001702300016D51E9
:104728000001712300016E510001722363C067F01C
:1047380064C068F065C069F066C06AF0080E06D00B
:104748000001D8906A33693368336733E82EF8D7A5
:10475800000E0001671500016B6F100E000168154F
:1047680000016C6F000E0001691500016D6F000EED
:1047780000016A1500016E6F00016B5100016F277F
:1047880000016C510001702300016D51000171237B
:1047980000016E510001722363C067F064C068F0C5
:1047A80065C069F066C06AF00A0E06D00001D890AC
:1047B8006A33693368336733E82EF8D7000E00018F
:1047C800671500016B6F080E0001681500016C6F1A
:1047D800000E0001691500016D6F000E00016A15D9
:1047E80000016E6F00016B5100016F2700016C51D1
:1047F8000001702300016D510001712300016E5109
:104808000001722363C067F064C068F065C069F096
:1048180066C06AF00C0E06D00001D8906A3369337E
:1048280068336733E82EF8D7000E000167150001DA
:104838006B6F040E0001681500016C6F000E00011B
:10484800691500016D6F000E00016A1500016E6F99
:1048580000016B5100016F2700016C5100017023AA
:1048680000016D510001712300016E510001722396
:1048780063C067F064C068F065C069F066C06AF03C
:104888000E0E06D00001D8906A3369336833673357
:10489800E82EF8D7000E0001671500016B6F020EB5
:1048A8000001681500016C6F000E00016915000118
:1048B8006D6F000E00016A1500016E6F00016B51EB
:1048C80000016F2700016C510001702300016D5138
:1048D8000001712300016E510001722363C067F06B
:1048E80064C068F065C069F066C06AF0100E06D052
:1048F8000001D8906A33693368336733E82EF8D7F4
:10490800000E0001671500016B6F010E00016815AC
:1049180000016C6F000E0001691500016D6F000E3B
:1049280000016A1500016E6F00016B5100016F27CD
:1049380000016C510001702300016D5100017123C9
:1049480000016E510001722363C067F064C068F013
:1049580065C069F066C06AF0120E06D00001D890F2
:104968006A33693368336733E82EF8D7800E00015D
:10497800671500016B6F000E0001681500016C6F70
:10498800000E0001691500016D6F000E00016A1527
:1049980000016E6F00016B5100016F2700016C511F
:1049A8000001702300016D510001712300016E5157
:1049B8000001722363C067F064C068F065C069F0E5
:1049C80066C06AF0140E06D00001D8906A336933C5
:1049D80068336733E82EF8D7400E000167150001E9
:1049E8006B6F000E0001681500016C6F000E00016E
:1049F800691500016D6F000E00016A1500016E6FE8
:104A080000016B5100016F2700016C5100017023F8
:104A180000016D510001712300016E5100017223E4
:104A280063C067F064C068F065C069F066C06AF08A
:104A3800160E06D00001D8906A336933683367339D
:104A4800E82EF8D7200E0001671500016B6F000EE5
:104A58000001681500016C6F000E00016915000166
:104A68006D6F000E00016A1500016E6F00016B5139
:104A780000016F2700016C510001702300016D5186
:104A88000001712300016E510001722363C067F0B9
:104A980064C068F065C069F066C06AF0180E06D098
:104AA8000001D8906A33693368336733E82EF8D742
:104AB800100E0001671500016B6F000E00016815EC
:104AC80000016C6F000E0001691500016D6F000E8A
:104AD80000016A1500016E6F00016B5100016F271C
:104AE80000016C510001702300016D510001712318
:104AF80000016E510001722363C067F064C068F062
:104B080065C069F066C06AF01A0E06D00001D89038
:104B18006A33693368336733E82EF8D7080E000123
:104B2800671500016B6F000E0001681500016C6FBE
:104B3800000E0001691500016D6F000E00016A1575
:104B480000016E6F00016B5100016F2700016C516D
:104B58000001702300016D510001712300016E51A5
:104B68000001722363C067F064C068F065C069F033
:104B780066C06AF01C0E06D00001D8906A3369330B
:104B880068336733E82EF8D7040E00016715000173
:104B98006B6F000E0001681500016C6F000E0001BC
:104BA800691500016D6F000E00016A1500016E6F36
:104BB80000016B5100016F2700016C510001702347
:104BC80000016D510001712300016E510001722333
:104BD80063C067F064C068F065C069F066C06AF0D9
:104BE8001E0E06D00001D8906A33693368336733E4
:104BF800E82EF8D7020E0001671500016B6F000E52
:104C08000001681500016C6F000E000169150001B4
:104C18006D6F000E00016A1500016E6F00016B5187
:104C280000016F2700016C510001702300016D51D4
:104C38000001712300016E5100017223000E000172
:104C480063150001676F000E000164150001686FAD
:104C5800000E000165150001696F800E00016615E0
:104C680000016A6F200E06D00001D8906A336933BC
:104C780068336733E82EF8D70001675100016F27C2
:104C8800000168510001702300016951000171237E
:104C980000016A51000172236FC063F070C064F0B4
:104CA80071C065F072C066F0120012000101B76FA2
:104CB800010E0101B96F000E0101BA6F000E01016A
:104CC800B86F010E0101B66F840E0001636F010E0B
:104CD8000001646F000E0001666F320E656F5CECB8
:104CE80056F06F0E0001636F010E0001646F000E35
:104CF8000001666F150E656F5CEC56F0330E00010F
:104D0800636F010E0001646F000E0001666F1E0ED6
:104D1800656F5CEC56F0510E0001636F010E0001E7
:104D2800646F000E0001666F1E0E656F5CEC56F036
:104D38001FEC45F00009D8A402D0000E1200000EA6
:104D48000001636F040E0001646F44C065F0000148
:104D5800666B5CEC56F0000E446E89EC5AF09E9A35
:104D68009D8AFC0E00016E6FFF0E00016F6F0FEC45
:104D780059F0500E0001636FC30E646F000E656F2B
:104D8800000E666FB5EC56F09D9A000E0101BA6FE1
:104D98003B0E0101BA6501D07AD00101B605D8A44D
:104DA80037D00101BA51010D000EF324D96E040E5B
:104DB800F420DA6E0A0EDE18D8B40DD00101BA510B
:104DC800010D000EF324D96E040EF420DA6E0D0ED8
:104DD800DE18D8A404D0000E0101B66F55D01D0E00
:104DE8000101BA6151D00101BA51010D000EF3243D
:104DF800D96E040EF420DA6E0101BA51010D330E9A
:104E0800F324E16E010EF420E26EDFCFE7FF3CD021
:104E18000101BA51010D000EF324D96E040EF420DD
:104E2800DA6E0A0EDE18D8B429D00101BA51010D84
:104E3800000EF324D96E040EF420DA6E0D0EDE187F
:104E4800D8B41CD01D0E0101B86115D00101BA51AA
:104E5800010D000EF324D96E040EF420DA6E010160
:104E6800B851010D510EF324E16E010EF420E26EEB
:104E7800DFCFE7FF00D00101B82B06D0020E0101F9
:104E8800B86502D004D000D00101BA2B81D7010146
:104E980033510101D8B405D0010151510101D8A401
:104EA80004D0000E0101B96F42D0C80E0001636F33
:104EB800040E0001646F000E0001666F1E0E656F20
:104EC8005CEC56F0320E0001636F050E0001646F52
:104ED800000E0001666F1E0E656F5CEC56F0330E17
:104EE80000016B6F010E00016C6FC80E00016D6F41
:104EF800040E00016E6F1E0E00016F6F000E0001A0
:104F0800706F11EC54F0510E00016B6F010E00012F
:104F18006C6F320E00016D6F050E00016E6F1E0E74
:104F280000016F6F000E0001706F11EC54F0000E5D
:104F38000001636F040E0001646F44C065F0000156
:104F4800666B5CEC56F0000E446E0101B75101012E
:104F5800D8B456D00101B9510101D8B4BCD0840EDF
:104F68000001B16F010E0001B26F020E0001B36FB4
:104F7800FB0E0001B46FD1C2B5F0D2C2B6F0D3C2F5
:104F8800B7F0D4C2B8F05EEC18F089EC5AF09E9AEB
:104F98009D8A840E00016D6F010E00016E6FE0ECBA
:104FA80059F0500E0001636FC30E646F000E656FF9
:104FB800000E666FB5EC56F09D9A840E0001B16F35
:104FC800010E0001B26FF50E0001B36FFF0E000174
:104FD800B46F5EEC18F0000E0001636F040E000160
:104FE800646F840E0001656F010E0001666FC6ECE8
:104FF80047F00009D8A46FD0000E0101B96F6BD03B
:105008000101B9510101D8B466D00401FA51D8A4FC
:105018005ED0E60E00016B6F040E00016C6F6F0E20
:1050280000016D6F010E00016E6F150E00016F6FAC
:10503800000E0001706F11EC54F0840E0001B16F86
:10504800010E0001B26F910E0001B36FFF0E000157
:10505800B46F6F0E0001B56F010E0001B66F5EEC04
:1050680018F089EC5AF09E9A9D8A840E00016D6FA3
:10507800010E00016E6FE0EC59F0500E0001636FF5
:10508800C30E646F000E656F000E666FB5EC56F0C8
:105098009D9A840E0001B16F010E0001B26FF50EEA
:1050A8000001B36FFF0E0001B46F5EEC18F0000E44
:1050B8000001636F040E0001646F840E0001656FC8
:1050C800010E0001666FC6EC47F093D704D0000EBE
:1050D8000101B96F00D0000E0001636F040E0001DA
:1050E800646F44C065F00001666B5CEC56F0000E1E
:1050F800446E0101B9510101D8B42DD089EC5AF0A0
:105108009E9A9D8A670E00016E6FFF0E00016F6FF9
:105118000FEC59F0500E0001636FC30E646F000E60
:10512800656F000E666FB5EC56F09D9A000E000193
:10513800636F040E0001646F840E0001656F010E39
:105148000001666FC6EC47F00009D8A404D0000E31
:105158000101B96F00D0000E0001636F040E000159
:10516800646F44C065F00001666B5CEC56F0000E9D
:10517800446E0101B9510101D8B42DD089EC5AF01F
:105188009E9A9D8A980E00016E6FFC0E00016F6F4B
:105198000FEC59F0500E0001636FC30E646F000EE0
:1051A800656F000E666FB5EC56F09D9A000E000113
:1051B800636F040E0001646F840E0001656F010EB9
:1051C8000001666FC6EC47F00009D8A404D0000EB1
:1051D8000101B96F00D0000E0001636F040E0001D9
:1051E800646F44C065F00001666B5CEC56F0000E1D
:1051F800446E0101B9510101D8B42DD089EC5AF09F
:105208009E9A9D8A5E0E00016E6FFF0E00016F6F01
:105218000FEC59F0500E0001636FC30E646F000E5F
:10522800656F000E666FB5EC56F09D9A000E000192
:10523800636F040E0001646F840E0001656F010E38
:105248000001666FC6EC47F00009D8A404D0000E30
:105258000101B96F00D0000E0001636F040E000158
:10526800646F44C065F00001666B5CEC56F0000E9C
:10527800446E0101B9510101D8B42DD089EC5AF01E
:105288009E9A9D8AB40E00016E6FFF0E00016F6F2B
:105298000FEC59F0500E0001636FC30E646F000EDF
:1052A800656F000E666FB5EC56F09D9A000E000112
:1052B800636F040E0001646F840E0001656F010EB8
:1052C8000001666FC6EC47F00009D8A404D0000EB0
:1052D8000101B96F00D0000E0001636F040E0001D8
:1052E800646F44C065F00001666B5CEC56F0000E1C
:1052F800446E0101B9510101D8B46AD089EC5AF061
:105308009E9A9D8AF90E00016E6FFF0E00016F6F65
:105318000FEC59F0500E0001636FC30E646F000E5E
:10532800656F000E666FB5EC56F09D9A0101B75196
:105338000101D8B417D0840E0001B16F010E00012D
:10534800B26F290E0001B36FFA0E0001B46FD1C21B
:10535800B5F0D2C2B6F0D3C2B7F0D4C2B8F05EECA2
:1053680018F014D0840E0001B16F010E0001B26F65
:10537800E70E0001B36FFE0E0001B46F6F0E00015F
:10538800B56F010E0001B66F5EEC18F0000E00015B
:10539800666F040E0001676F840E0001686F010ECE
:1053A8000001696F79EC40F00009D8A411D002011E
:1053B800D1290AE10201D22907E10201D32904E136
:1053C8000201D429D8B404D0000E0101B96F00D06D
:1053D800000E0001636F040E0001646F44C065F0A5
:1053E8000001666B5CEC56F0000E446E89EC5AF0D6
:1053F8009E9A9D8AD20E00016E6FFF0E00016F6F9C
:105408000FEC59F0500E0001636FC30E646F000E6D
:10541800656F000E666FB5EC56F0840E0001B16F33
:10542800010E0001B26FF10E0001B36FFF0E000113
:10543800B46F5EEC18F09D9A000E0001636F040EC5
:105448000001646F840E0001656F010E0001666F34
:10545800C6EC47F00009D8A404D0000E0101B96FCA
:1054680000D0000E0001636F040E0001646F44C099
:1054780065F00001666B5CEC56F0000E446E0101AD
:10548800B9510101D8B402D0010E1200000E120069
:105498001200EACF35F0E1CF36F0E2CF37F0D9CFBE
:1054A80038F0DACF39F0F3CF3AF0F4CF3BF0F6CF5B
:1054B8003CF0F7CF3DF0F8CF3EF0F5CF3FF0F29E4D
:1054C800F2A08BD000F000F0000E0301F16F000E87
:1054D800F26F000EF36F000EF46FEDEC5AF000015E
:1054E800606F4D5000016019D8B471D0D58EF28A22
:1054F800130E596E000E0301F06FD6CF61F0000154
:10550800626BD75000016227640E0001F8615AD01F
:105518000001F851D8B44CD0650E0001F86148D0AC
:10552800FE0E2E6EFF0E2F6E0001F851306E316A9E
:10553800D890303631362E5030262F503122000E7A
:105548003024D96E060E3120DA6E61C0DEFF62C0EB
:10555800DDFF090E0001615D520E00016259D8B0ED
:105568000CD0380E0001615D4A0E00016259D8A0C6
:1055780004D07D98F296F2841ED0510E0001615D30
:10558800C30E00016259D8B010D0C80E0001615D89
:10559800AF0E00016259D8A008D07D98F2968F0E00
:1055A800216E206808EC5BF006D003EC5BF003D0BA
:1055B80003EC5BF000D0650E0001F86105D0000136
:1055C800F82B02D07D98F29660C04DF002D000F022
:1055D80000D0EDEC5AF0F29078D2F2A432D0F29AE0
:1055E800D59E030E0001F8650ED0000E206E060E43
:1055F800216EEC0E226E030E236E010E246E84ECD7
:1056080037F00301F06F000E206E060E216E000EBB
:10561800236E640E226EBCEC57F0000E0001F86F8A
:105628000301F051D8A409D0EDEC5AF0EDEC5AF092
:105638004D6EF2907D88F28600D00D0E596EF29470
:1056480044D29EA22FD2542A370E5818D8A458D123
:105658000001FE51545CD8A04DD1000E546E51503B
:10566800010D8D0EF324D96E020EF420DA6E630E4E
:10567800DE18D8B4F2D00001FB51D8B43BD1515058
:10568800010D8D0EF324D96E020EF420DA6EDF5070
:10569800D8A453D00001F905D8A430D00001FA05E8
:1056A800D8A406D09BEC5AF0A6D00001FA2BA6D0BD
:1056B800020E0001FA19D8A406D0A4EC5AF0B1D011
:1056C8000001FA2B17D1030E0001FA19D8A404D04F
:1056D8009BEC5AF090D0E9D7040E0001FA19D8A42F
:1056E80007D0A4EC5AF0180E75D01FD0512A02D159
:1056F800CA94ADD0000E0001FB6FFCD0020E000171
:10570800F919D8A417D00001FA05D8A405D09BEC44
:105718005AF0090E71D0C9D7020E0001FA19D8A49F
:10572800E7D7A4EC5AF01D0E55D0010E0001FA6F10
:10573800DDD7E0D0CA948BD0DDD05150010D8D0E4D
:10574800F324D96E020EF420DA6EDE04D8A449D010
:105758000001F905D8A428D00001FA05D8A404D07E
:105768009BEC5AF05ED0ACD7020E0001FA19D8A40F
:1057780004D0A4EC5AF03FD098D7030E0001FA19D0
:10578800D8A404D09BEC5AF04CD09AD7040E000150
:10579800FA19D8A4ADD7A4EC5AF04DD0010E0001E7
:1057A800FA6F4CD02BD0A6D0020E0001F919D8A45C
:1057B80015D00001FA05D8A405D09BEC5AF01D0EAF
:1057C8001BD073D7020E0001FA19D8A491D7A4EC04
:1057D8005AF0090ECB6EA9D789D78CD0CA9437D086
:1057E80089D00001F905D8A42CD00001FA05D8A465
:1057F80008D09BEC5AF0080ECB6E57D7000ECC6E33
:1058080079D0020E0001FA19D8A404D0A4EC5AF0F9
:1058180008D056D7030E0001FA19D8A405D09BEC7E
:105828005AF0180ECB6E4CD7040E0001FA19D8A402
:105838005FD7A4EC5AF0080ECB6EB0D7512ADED74A
:1058480059D0020E0001F919D8A452D751D7010E28
:105858000001FF6F4FD7FBD74DD00001FA05D8A440
:105868001AD00001F905D8A404D09BEC5AF0080E10
:1058780008D0020E0001F919D8A405D0A4EC5AF0FA
:10588800090ECB6E05D0CA94010E0001FF6F00D03F
:10589800000ECC6E15D7020E0001FA19D8A421D03B
:1058A8000001F905D8A404D0A4EC5AF0FA0E06D0E9
:1058B800020E0001F919D8A403D0920ECB6E05D0C0
:1058C800CA94010E0001FF6F00D00001FA2B5206A6
:1058D8005250D8B40FD0010E0001FA6F000E516E6D
:1058E80009D00DEC5BF0A192000E556EB180CA9400
:1058F80001D700D00001FB51D8B4D2D0CA84D0D08F
:105908000001FE51545CD8A0CBD0000E546E070E97
:105918000001FD19D8A40FD0200E0001FC6F000E65
:105928004C6E8B96080E0001FD6F040E0001FE6F91
:105938004B0ECB6EB5D0080E0001FD19D8B405D0BA
:105948000A0E0001FD19D8A411D0010E4C6E010EEB
:105958000001FE6F4050010B4A6ED890433242322C
:1059680041324032260ECB6E090E84D0090E00015A
:10597800FD19D8A419D0000E4C6E8B96010E0001AB
:10598800FE6F4A50D8B402D0710E01D0260ECB6EED
:1059980000D00001FC070001FC51D8A402D00B0E76
:1059A80069D00A0E67D07CD00B0E0001FD19D8A46F
:1059B80006D0010E4C6E260ECB6E0C0E5BD00C0E74
:1059C8000001FD19D8A412D0000E4C6E8B964F50D2
:1059D800D8A404D00D0E0001FD6F5FD00B0E00019E
:1059E800FE6FF20ECB6E0E0E45D05AD00E0E000191
:1059F800FD19D8B405D0120E0001FD19D8A409D09C
:105A0800010E4C6E040E0001FE6F960ECB6E0F0E4B
:105A180031D00F0E0001FD19D8A40AD0000E4C6E2B
:105A28008B96010E0001FE6F950ECB6E100E22D0E4
:105A3800100E0001FD19D8A409D0010E4C6E010EFC
:105A48000001FE6F260ECB6E110E14D0110E000150
:105A5800FD19D8A412D0000E4C6E8B961A0E0001B8
:105A6800FE6FF60ECB6E4E064E50D8B402D0120E14
:105A780001D00D0E0001FD6F13D00D0E0001FD19B0
:105A8800D8A405D00AD0010E0001FF6F09D0000E7E
:105A98004C6E8B96000E0001FD6FCA94F4D700D0AF
:105AA8009E9213D0A1A20FD0B190030E556005D0DD
:105AB8000DEC5BF0B180552A04D0010E0001FF6F98
:105AC80000D0A19202D000F000D0F28E3FC0F5FFC6
:105AD8003EC0F8FF3DC0F7FF3CC0F6FF3BC0F4FFF7
