:04000000F9EF00F024
:10000800FACF6BF0FBCF6CF0E9CF6DF0D1EF1EF0BB
:10001800D8CF09F0E8CF0AF0E0CF0BF0FACF0CF018
:10002800FBCF0DF0E9CF0EF0EACF0FF0E1CF10F0E3
:10003800E2CF11F0D9CF12F0DACF13F0F3CF14F0EA
:10004800F4CF15F0F6CF16F0F7CF17F0F8CF18F079
:10005800F5CF19F0000E1A6EF29C9EAA93D03AECD6
:100068004AF01A6EABEC4AF00009D8A40FD0272842
:10007800D8B486D02750010D000EF324D96E050E92
:10008800F420DA6E1AC0DFFF272A7AD00D0E1A186C
:10009800D8B463D00A0E1A18D8B45FD07F0E1A18D5
:1000A800D8B404D0080E1A18D8A41FD00001DC5107
:1000B800D8B41BD00001DC29C0EC49F00001DC07F2
:1000C8000001DC51010D000EF324D96E060EF42058
:1000D800DA6E000EDF6E3E0E18EC4AF0000E026E6D
:1000E800060E036E24EC47F04BD00001DC29D8B48F
:1000F8001BD00001DB51D8A443D01A500CEC4AF0B5
:100108000009D8B43DD01A5018EC4AF00001DC516F
:10011800010D000EF324D96E060EF420DA6E1AC013
:10012800DFFF0001DC2B2CD0000E016E060E026EE4
:10013800000E046E0368C4EC48F0000E0001DC6F8A
:10014800A70E026EF30E036E24EC47F0710E046ED8
:10015800FE0E056E69EC46F013D00001DC51D8B4F0
:100168000FD00001DB51D8A40BD09D9AA70E026EC8
:10017800F30E036E24EC47F0010E0001DB6F00D094
:100188009E9A0FD09EA00BD0392A030E3918D8A4F6
:1001980004D08B948B92CD9000D09E9002D000F02A
:1001A80000D0F28C19C0F5FF18C0F8FF17C0F7FF90
:1001B80016C0F6FF15C0F4FF14C0F3FF13C0DAFF32
:1001C80012C0D9FF11C0E2FF10C0E1FF0FC0EAFF63
:1001D8000EC0E9FF0DC0FBFF0CC0FAFF0BC0E0FF2B
:1001E8000AC0E8FF09C0D8FF1000EFEF3FF0010E8A
:1001F8000201896F000E0201856F000E866F000EE6
:10020800876F000E886F000E02018C6F000E0201CE
:100218008D6F000E02018E6F000E8F6F000E906FB3
:10022800000E916F000E02017E6F000E7F6F000EB0
:10023800806F000E816F000E0201826F000E0201B6
:10024800846F000E0201836F000E02017D6F0F0E96
:1002580000017C6F020E00017D6F000E00017F6FB0
:10026800640E7E6FCAEC46F0730E00017C6F020EBE
:1002780000017D6F000E00017F6F0A0E7E6FCAECD1
:1002880046F000C27FF001C280F0C00E0001816F0D
:10029800FF0E0001826F98EC3AF00009D8B483D0C1
:1002A80000C27FF001C280F02E0E0001816FF30EB4
:1002B8000001826F53EC43F00009D8B412D0690EE4
:1002C8000001846FF30E0001856F010E0001866F37
:1002D8000C0E0001876F080E0001886FA5EC48F02E
:1002E80054D000C27FF001C280F03D0E0001816F42
:1002F800F30E0001826F53EC43F00009D8B412D01A
:10030800750E0001846FF30E0001856F010E000168
:10031800866F0C0E0001876F080E0001886FA5EC30
:1003280048F033D000C27FF001C280F04C0E0001CB
:10033800816FF30E0001826F53EC43F00009D8B4CB
:1003480012D0810E0001846FF30E0001856F010E3B
:100358000001866F0C0E0001876F080E0001886F80
:10036800A5EC48F012D05B0E00017D6FF30E000182
:100378007E6FF7EC46F0A70E00017D6FF30E0001CB
:100388007E6FF7EC46F0120000D00201895102019D
:10039800D8B41200230E00017F6FFB0E0001806F9E
:1003A8009CEC45F0120000C27FF001C280F0C60E3E
:1003B8000001816FFF0E0001826F98EC3AF000098E
:1003C800D8B46AD100C27FF001C280F06A0E000181
:1003D800816FF20E0001826F53EC43F00009D8B42C
:1003E80012D09E0E0001846FF20E0001856F020E7E
:1003F8000001866F100E0001876F080E0001886FDC
:10040800A5EC48F03BD100C27FF001C280F0440E59
:100418000001816FF20E0001826F53EC43F0000976
:10042800D8B412D08E0E0001846FF20E0001856FD1
:10043800020E0001866F100E0001876F080E000182
:10044800886FA5EC48F01AD100C27FF001C280F095
:100458007C0E0001816FF20E0001826F53EC43F0B5
:100468000009D8B412D0BE0E0001846FF20E00014C
:10047800856F020E0001866F100E0001876F080E4F
:100488000001886FA5EC48F0F9D000C27FF001C2E6
:1004980080F0570E0001816FF20E0001826F53EC5D
:1004A80043F00009D8B412D0AE0E0001846FF20EEA
:1004B8000001856F020E0001866F100E0001876F24
:1004C800080E0001886FA5EC48F0D8D000C27FF074
:1004D80001C280F0080E0001816FF20E0001826FE8
:1004E80053EC43F00009D8B412D0DE0E0001846F3B
:1004F800F20E0001856F020E0001866F100E0001DA
:10050800876F080E0001886FA5EC48F0B7D000C2CD
:100518007FF001C280F0C90E0001816FF10E000169
:10052800826F53EC43F00009D8B412D0CE0E00010C
:10053800846FF20E0001856F020E0001866F100EA7
:100548000001876F080E0001886FA5EC48F096D06F
:1005580000C27FF001C280F01C0E0001816FF20E14
:100568000001826F53EC43F00009D8B412D0FE0E9C
:100578000001846FF20E0001856F020E0001866F84
:10058800100E0001876F080E0001886FA5EC48F077
:1005980075D000C27FF001C280F0DE0E0001816FCD
:1005A800F10E0001826F53EC43F00009D8B412D069
:1005B800EE0E0001846FF20E0001856F020E00013D
:1005C800866F100E0001876F080E0001886FA5EC7A
:1005D80048F054D000C27FF001C280F0300E000114
:1005E800816FF20E0001826F53EC43F00009D8B41A
:1005F80012D01E0E0001846FF30E0001856F020EEB
:100608000001866F100E0001876F080E0001886FC9
:10061800A5EC48F033D000C27FF001C280F0F30EA1
:100628000001816FF10E0001826F53EC43F0000965
:10063800D8B412D0EE0E0001846FF20E0001856F5F
:10064800030E0001866F100E0001876F080E00016F
:10065800886FA5EC48F012D05B0E00017D6FF30E99
:1006680000017E6FF7EC46F0A70E00017D6FF30ED8
:1006780000017E6FF7EC46F0120000D002018951AC
:100688000201D8B41200400E00017F6FFB0E00017A
:10069800806F9CEC45F0120000C27FF001C280F030
:1006A800EE0E0001816FFF0E0001826F98EC3AF0A8
:1006B8000009D8B4EFD100C288F001C289F0020E57
:1006C80000018A6F8E0E00018B6F020E00018C6F85
:1006D80031EC24F00009D8A4C9D0020191510201DB
:1006E800901104E102018F05D8A011D00E0E00016F
:1006F8007F6FFA0E0001806F9CEC45F0A70E000199
:100708007D6FF30E00017E6FF7EC46F012008EC28B
:100718008DF200C288F001C289F0010E00018A6FD3
:100728008E0E00018B6F020E00018C6F31EC24F0ED
:100738000009D8A492D0020191510201901104E15C
:1007480002018F05D8A011D02D0E00017F6FFA0E7F
:100758000001806F9CEC45F0A70E00017D6FF30E41
:1007680000017E6FF7EC46F012008EC28CF20F0E7D
:100778000001CA6F020E0001CB6FD10E0001CC6FD1
:10078800FC0E0001CD6F8CC2CEF00001CF6BF0ECF7
:1007980010F00F0E00017F6F020E0001806F9CECBD
:1007A80045F00F0E0001CA6F020E0001CB6FBC0EA0
:1007B8000001CC6FFC0E0001CD6F8DC2CEF00001A0
:1007C800CF6BF0EC10F00F0E00017F6F020E0001EE
:1007D800806F9CEC45F08DC280F002018C515DEC7D
:1007E80039F080C085F281C086F282C087F283C06A
:1007F80088F285C291F086C292F087C293F088C2CF
:1008080094F0000E0001956F04EC43F00F0E000108
:10081800CA6F020E0001CB6F4D0E0001CC6FFC0EAB
:100828000001CD6F85C2CEF086C2CFF087C2D0F06E
:1008380088C2D1F0F0EC10F00F0E00017F6F020EAD
:100848000001806F9CEC45F0A70E00017D6FF30E50
:1008580000017E6FF7EC46F01200EE0E00017F6F8C
:10086800F90E0001806F9CEC45F0120000C288F080
:1008780001C289F0010E00018A6F850E00018B6F9D
:10088800020E00018C6F31EC24F00009D8A48AD044
:1008980085C291F086C292F087C293F088C294F024
:1008A800000E0001956F04EC43F00F0E0001CA6FB3
:1008B800020E0001CB6F4D0E0001CC6FFD0E000142
:1008C800CD6F85C2CEF086C2CFF087C2D0F088C285
:1008D800D1F0F0EC10F00F0E00017F6F020E000156
:1008E800806F9CEC45F085C280F086C281F087C29B
:1008F80082F088C283F08C0E0001846F020E000122
:10090800856F8D0E0001866F020E0001876FB9ECAE
:1009180041F00009D8B435D00F0E0001CA6F020E9D
:100928000001CB6FD50E0001CC6FFC0E0001CD6F1E
:100938008CC2CEF00001CF6BF0EC10F00F0E00016E
:100948007F6F020E0001806F9CEC45F00F0E0001D6
:10095800CA6F020E0001CB6F990E0001CC6FF70E23
:100968000001CD6F8DC2CEF00001CF6BF0EC10F01E
:100978000F0E00017F6F020E0001806F9CEC45F0A6
:1009880008D02D0E00017F6FF90E0001806F9CECDE
:1009980045F0A70E00017D6FF30E00017E6FF7ECA6
:1009A80046F0120000C27CF001C27DF0EC0E00019E
:1009B8007E6FFF0E00017F6F60EC41F00009D8A444
:1009C80010D0A70E00017D6FF30E00017E6FF7ECCB
:1009D80046F0E70E00017F6FFA0E0001806F9CEC75
:1009E80045F0A70E00017D6FF30E00017E6FF7EC56
:1009F80046F0AC0E00017F6FFF0E0001806F9CEC8B
:100A080045F0250E00017F6FFD0E0001806F9CEC04
:100A180045F0630E00017F6FFF0E0001806F9CECB4
:100A280045F0910E00017F6FFC0E0001806F9CEC79
:100A380045F0A70E00017D6FF30E00017E6FF7EC05
:100A480046F08B0E00017F6FFF0E0001806F9CEC5B
:100A580045F0E80E00017F6FFD0E0001806F9CECF1
:100A680045F0650E00017F6FFF0E0001806F9CEC62
:100A780045F0400E00017F6FFE0E0001806F9CEC78
:100A880045F0A70E00017D6FF30E00017E6FF7ECB5
:100A980046F0120000C27FF001C280F0140E00017F
:100AA800816FFF0E0001826F98EC3AF00009D8B40C
:100AB800C8D200C28BF001C28CF05CEC31F00009A6
:100AC800D8B466D20201022B00C288F001C289F0B4
:100AD800010E00018A6F8E0E00018B6F020E00015D
:100AE8008C6F31EC24F00009D8A452D20201915144
:100AF8000201901102018F1104E1150E02018E5DB1
:100B0800D8B02CD202018E5102018F11020190112E
:100B180002019111D8B422D200C27FF001C280F044
:100B2800850E0001816FFD0E0001826F98EC3AF08E
:100B38000009D8A423D1FE0E0201036FFF0E0201A3
:100B4800046F8EC205F28FC206F2D89002010537F3
:100B5800063702010351020105270201045102016F
:100B68000623000E0201076F040E0201086F050E2E
:100B780002010727000E0823020105510201072779
:100B88000201065102010823010E02010725D96E50
:100B9800000E02010821DA6EDF500001806FFE0EA0
:100BA8000201096FFF0E02010A6F8EC20BF28FC29B
:100BB8000CF2D89002010B370C37020109510201DF
:100BC8000B2702010A5102010C23050E02010B2515
:100BD800D96E040E02010C21DA6EDF505DEC39F09B
:100BE80080C07EF281C07FF282C080F283C081F231
:100BF80002017E2908E10201802902017F11020118
:100C08008111D8B4A9D07EC291F07FC292F080C27F
:100C180093F081C294F0000E0001956F04EC43F04C
:100C28000F0E0001CA6F020E0001CB6FE60E000125
:100C3800CC6FFC0E0001CD6F7EC2CEF07FC2CFF02C
:100C480080C2D0F081C2D1F0F0EC10F00F0E00019C
:100C58007F6F020E0001806F9CEC45F00F0E0001C3
:100C6800CA6F020E0001CB6F7E0E0001CC6FF70E2B
:100C78000001CD6FFE0E0201036FFF0E0201046F2B
:100C88008EC205F28FC206F2D890020105370637E8
:100C98000201035102010527020104510201062342
:100CA800050E02010525D96E040E02010621DA6E31
:100CB800DF500201076F020107510001CE6FCF6BB1
:100CC800FE0E0201086FFF0E0201096F8EC20AF2C2
:100CD8008FC20BF2D89002010A370B370201085174
:100CE80002010A270201095102010B23000E020129
:100CF8000C6F040E02010D6F050E02010C27000E89
:100D08000D2302010A5102010C2702010B510201B5
:100D18000D23010E02010C25D96E000E02010D21D2
:100D2800DA6EDF5002010E6F02010E510001D06F22
:100D3800D16BF0EC10F00F0E00017F6F020E000176
:100D4800806F9CEC45F0A70E00017D6FF30E00014B
:100D58007E6FF7EC46F01200A70E00017D6FF30ED0
:100D680000017E6FF7EC46F0DF0E00017F6FF50E95
:100D78000001806F9CEC45F012000AD19DEC43F015
:100D88000009D8B4120001D01200DDC080F0DEC026
:100D980081F0DFC082F0E0C083F08C0E0001846F28
:100DA800020E0001856F8D0E0001866F020E000194
:100DB800876FB9EC41F0FE0E0201036FFF0E0201CE
:100DC800046F8EC205F28FC206F2D8900201053771
:100DD80006370201035102010527020104510201ED
:100DE8000623050E02010525D96E040E020106210F
:100DF800DA6E8CC2DFFFFE0E0201036FFF0E0201E6
:100E0800046F8EC205F28FC206F2D8900201053730
:100E180006370201035102010527020104510201AC
:100E28000623000E0201076F040E0201086F050E6B
:100E380002010727000E08230201055102010727B6
:100E48000201065102010823010E02010725D96E8D
:100E5800000E02010821DA6E8DC2DFFF1CEC48F09B
:100E6800A70E00017D6FF30E00017E6FF7EC46F0D0
:100E78000F0E0001CA6F020E0001CB6F0E0E0001AB
:100E8800CC6FF60E0001CD6F8EC2CEF08FC2CFF0C0
:100E980090C2D0F091C2D1F0DDC0D2F0DEC0D3F064
:100EA800DFC0D4F0E0C0D5F0F0EC10F00F0E000178
:100EB8007F6F020E0001806F9CEC45F00F0E000161
:100EC800CA6F020E0001CB6F7E0E0001CC6FF70EC9
:100ED8000001CD6F8CC2CEF00001CF6B8DC2D0F077
:100EE8000001D16BF0EC10F00F0E00017F6F020EC5
:100EF8000001806F9CEC45F0A70E00017D6FF30E9A
:100F080000017E6FF7EC46F0000E0201926F090EA9
:100F18000201926502D0120012008B84500E00016B
:100F28007C6FC30E7D6F000E7E6F000E7F6F7BECB3
:100F380047F08B94500E00017C6FC30E7D6F000E3E
:100F48007E6F000E7F6F7BEC47F00201922B090E3B
:100F580002019265E2D7120012001AD0A70E000112
:100F68007D6FF30E00017E6FF7EC46F09E0E0001D8
:100F78007F6FF80E0001806F9CEC45F0A70E000112
:100F88007D6FF30E00017E6FF7EC46F0120000D083
:100F9800A70E00017D6FF30E00017E6FF7EC46F09F
:100FA800E70E00017F6FF80E0001806F9CEC45F0A2
:100FB800A70E00017D6FF30E00017E6FF7EC46F07F
:100FC800AC0E00017F6FFF0E0001806F9CEC45F0B6
:100FD800510E00017F6FFE0E0001806F9CEC45F002
:100FE800750E00017F6FFD0E0001806F9CEC45F0CF
:100FF800A70E00017D6FF30E00017E6FF7EC46F03F
:101008008B0E00017F6FFF0E0001806F9CEC45F096
:10101800900E00017F6FFE0E0001806F9CEC45F082
:10102800FA0E00017F6FFD0E0001806F9CEC45F009
:10103800A70E00017D6FF30E00017E6FF7EC46F0FE
:10104800120000C27FF001C280F0B30E0001816F70
:10105800FF0E0001826F98EC3AF00009D8A410D076
:1010680000C27FF001C280F0940E0001816FFF0E74
:101078000001826F98EC3AF00009D8B4B0EF0CF098
:1010880000C27FF001C280F0B30E0001816FFF0E35
:101098000001826F98EC3AF00009D8B402D0010E32
:1010A80001D0000E02017D6F00D000C28BF001C29A
:1010B8008CF05CEC31F00009D8A411D0540E00017A
:1010C8007F6FF80E0001806F9CEC45F0A70E0001C1
:1010D8007D6FF30E00017E6FF7EC46F012000201FF
:1010E800022BA70E00017D6FF30E00017E6FF7EC57
:1010F80046F000C288F001C289F0010E00018A6F33
:101108008E0E00018B6F020E00018C6F31EC24F003
:101118000009D8A403D08EC28BF211D0540E00015E
:101128007F6FF80E0001806F9CEC45F0A70E000160
:101138007D6FF30E00017E6FF7EC46F0120002019E
:101148008B510201D8B405D0020E02018B6512D072
:1011580000D0790E00017F6FF80E0001806F9CECC3
:1011680045F0A70E00017D6FF30E00017E6FF7ECCE
:1011780046F0120000C27CF001C27DF0010E0001B1
:101188007E6F730E00017F6F020E0001806F4AECC4
:101198003CF00009D8B411D0A90E00017F6FFA0EF7
:1011A8000001806F9CEC45F0A70E00017D6FF30EE7
:1011B80000017E6FF7EC46F01200730E00017C6FA1
:1011C800020E00017D6F62EC48F002017451D8B440
:1011D80005D0200E02017419D8A4ADD3000E020167
:1011E800746F02018B05D8A415D09B0E00017F6F88
:1011F800F30E0001806F730E0001816F020E000173
:10120800826F98EC3AF00009D8A419D0000E0201B8
:10121800896F15D0020E02018B19D8A410D09F0E29
:1012280000017F6FF30E0001806F730E0001816F64
:10123800020E0001826F98EC3AF0E5D700D0020167
:1012480089510201D8A411D0C80E00017F6FFA0E8F
:101258000001806F9CEC45F0A70E00017D6FF30E36
:1012680000017E6FF7EC46F0120002018B05D8A44E
:1012780017D0640E02017319D8A402D0000EB9D099
:10128800650E02017319D8A402D0010EB2D0660E01
:1012980002017319D8A41200020EABD01200AED00E
:1012A800020E02018B19D8A4A9D0620E020173198B
:1012B800D8A402D0030E9DD0640E02017319D8A4DD
:1012C80002D0040E96D0680E02017319D8A4120039
:1012D800000E00017C6F060E00017D6FDCC07EF001
:1012E80000017F6BCAEC46F0000E0001DC6F000EB7
:1012F8000001DB6F9E0E00017D6FFE0E00017E6F08
:10130800F7EC46F0A70E00017D6FF30E00017E6F2B
:10131800F7EC46F03E0EE3EC49F0000E0201826F56
:1013280081EC4AF09E9A9D8A23D0E00E00017C6FE2
:10133800930E7D6F040E7E6F000E7F6F7BEC47F07F
:101348000201822B190E0201826512D0A70E00013C
:101358007D6FF30E00017E6FF7EC46F0550E00012D
:101368007F6FF40E0001806F9CEC45F0120000D0F6
:101378000001DB51D8B4D9D79D9A010E0201896FBB
:10138800300E0601006505D0330E060100650DD04C
:1013980000D0870E00017F6FF40E0001806F9CEC77
:1013A80045F0000E0201896F00D0000E00017C6F2D
:1013B800060E00017D6FDCC07EF000017F6BCAEC79
:1013C80046F0000E0001DC6F000E0001DB6F020129
:1013D80089510201D8B4120001D0120000C2D9FF0D
:1013E80001C2DAFFDF50D00F0201846F020184517D
:1013F800040F02018A6F02D0120000D002017D5151
:101408000201D8B4D3D19DEC43F00009D8B412003E
:1014180001D01200A70E00017D6FF30E00017E6F50
:10142800F7EC46F0DDC080F0DEC081F0DFC082F06E
:10143800E0C083F08C0E0001846F020E0001856FFE
:101448008D0E0001866F020E0001876FB9EC41F026
:10145800000E0201896F000E0201926F020E020156
:10146800926501D053D002018A51060D000E020187
:10147800036F040E0201046F2E0E02010327000EF3
:101488000423F35002010327F4500201042302014C
:101498009251020DF35002010325D96EF450020156
:1014A8000421DA6EDF50D8A42ED002018A51060D2D
:1014B800000E0201036F040E0201046F2E0E0201DA
:1014C8000327000E0423F35002010327F4500201FE
:1014D800042302019251020DF35002010327F45034
:1014E80002010423010E02010325D96E000E020138
:1014F8000421DA6EDF50D8A406D092C283F2010E1E
:101508000201896F03D00201922BA8D702018951E9
:101518000201D8A409D0020E00017F6FF80E000165
:10152800806F9CEC45F01200010E0201896F0201E8
:1015380083510201D8B462D0000E0201926F56D0D6
:1015480002018A51060D000E0201036F040E02010A
:10155800046F2E0E02010327000E0423F35002012C
:101568000327F4500201042302019251020DF350A3
:1015780002010325D96EF45002010421DA6E02013A
:101588008C51DE18D8A42FD002018A51060D000E06
:101598000201036F040E0201046F2E0E02010327DD
:1015A800000E0423F35002010327F4500201042320
:1015B80002019251020DF35002010327F450020177
:1015C8000423010E02010325D96E000E0201042135
:1015D800DA6E02018D51DE18D8A405D0000E020182
:1015E800896F0CD000D00201922B00D002018351E8
:1015F8000201925DD8B002D0A3D700D00201895170
:101608000201D8A409D0500E00017F6FF70E000127
:10161800806F9CEC45F0120002018A51060D000E05
:101628000201036F040E0201046F2E0E020103274C
:10163800000E0423F35002010327F450020104238F
:1016480002018351020DF35002010325D96EF450B3
:1016580002010421DA6E8CC2DFFF02018A51060DF5
:10166800000E0201036F040E0201046F2E0E020128
:101678000327000E0423F35002010327F45002014C
:10168800042302018351020DF35002010327F45091
:1016980002010423010E02010325D96E000E020186
:1016A8000421DA6E8DC2DFFF1CEC48F00201845180
:1016B8000201D8B423D00F0E0001CA6F020E000138
:1016C800CB6FAA0E0001CC6FF30E0001CD6FDDC009
:1016D800CEF0DEC0CFF0DFC0D0F0E0C0D1F08BC2DA
:1016E800D2F00001D36B73C2D4F00001D56B84C271
:1016F800D6F00001D76BF0EC10F01FD00F0E0001F0
:10170800CA6F020E0001CB6FE90E0001CC6FF30E19
:101718000001CD6FDDC0CEF0DEC0CFF0DFC0D0F06D
:10172800E0C0D1F08BC2D2F00001D36B73C2D4F009
:101738000001D56BF0EC10F000D00F0E00017F6FA8
:10174800020E0001806F9CEC45F0A70E00017D6F32
:10175800F30E00017E6FF7EC46F0000E0201926F67
:10176800090E0201926502D0120012008B84500EFD
:1017780000017C6FC30E7D6F000E7E6F000E7F6FC1
:101788007BEC47F08B94500E00017C6FC30E7D6F8D
:10179800000E7E6F000E7F6F7BEC47F00201922BEC
:1017A800090E02019265E2D712001200000E020132
:1017B800926F020E0201926501D04BD002018A514C
:1017C800060D000E0201036F040E0201046F2E0EB7
:1017D80002010327000E0423F35002010327F450EB
:1017E8000201042302019251020DF3500201032564
:1017F800D96EF45002010421DA6E000EDF6E020188
:101808008A51060D000E0201036F040E0201046FD7
:101818002E0E02010327000E0423F35002010327B2
:10182800F4500201042302019251020DF350020107
:101838000327F45002010423010E02010325D96E87
:10184800000E02010421DA6E000EDF6E0201922BF7
:10185800B0D71CEC48F0020184510201D8B41BD067
:101868000F0E0001CA6F020E0001CB6F1F0E0001A0
:10187800CC6FF40E0001CD6F8BC2CEF00001CF6BA0
:1018880073C2D0F00001D16B84C2D2F00001D36BD7
:10189800F0EC10F017D00F0E0001CA6F020E000115
:1018A800CB6FAA0E0001CC6FF70E0001CD6F8BC273
:1018B800CEF00001CF6B73C2D0F00001D16BF0EC19
:1018C80010F000D00F0E00017F6F020E0001806F34
:1018D8009CEC45F0A70E00017D6FF30E00017E6FB2
:1018E800F7EC46F0000E0201926F090E02019265B4
:1018F80002D0120012008B84500E00017C6FC30EC0
:101908007D6F000E7E6F000E7F6F7BEC47F08B942F
:10191800500E00017C6FC30E7D6F000E7E6F000EAF
:101928007F6F7BEC47F00201922B090E0201926552
:10193800E2D712001200D60E00017F6FF70E0001E9
:10194800806F9CEC45F0A70E00017D6FF30E00013F
:101958007E6FF7EC46F0120000C27FF001C280F003
:10196800CC0E0001816FFF0E0001826F53EC43F033
:101978000009D8B497D0000E00017C6F060E000154
:101988007D6FDCC07EF000017F6BCAEC46F0000E74
:101998000001DC6F000E0001DB6FCE0E00017D6FD1
:1019A800F90E00017E6FF7EC46F0A70E00017D6F7F
:1019B800F30E00017E6FF7EC46F03E0EE3EC49F0C3
:1019C800000E0201826F81EC4AF09E9A9D8A23D014
:1019D800E00E00017C6F930E7D6F040E7E6F000E8B
:1019E8007F6F7BEC47F00201822B190E02018265A2
:1019F80012D0A70E00017D6FF30E00017E6FF7EC89
:101A080046F0060E00017F6FFB0E0001806F9CEC14
:101A180045F0120000D00001DB51D8B4D9D79D9A07
:101A2800590E06010019D8B409D0790E060100191B
:101A3800D8A414D006010151D8A410D00C0E00016E
:101A48007F6FFE0E0001806F9CEC45F0000E0401D4
:101A58002D6F1CEC48F0FF00120011D0A70E0001FA
:101A68007D6FF30E00017E6FF7EC46F0060E000165
:101A78007F6FFB0E0001806F9CEC45F000D0000EDC
:101A880000017C6F060E00017D6FDCC07EF0000156
:101A98007F6BCAEC46F0000E0001DC6F000E0001FF
:101AA800DB6F120000C27FF001C280F09D0E0001C2
:101AB800816FFF0E0001826F53EC43F00009D8B428
:101AC8002FD0A70E00017D6FF30E00017E6FF7EC9B
:101AD80046F00F0E0001CA6F020E0001CB6F610EB7
:101AE8000001CC6FFD0E0001CD6F4FEC40F0A5C09A
:101AF800CEF0A6C0CFF0A7C0D0F0F0EC10F00F0EDB
:101B080000017F6F020E0001806F9CEC45F0A70E6C
:101B180000017D6FF30E00017E6FF7EC46F01200B6
:101B280000C27FF001C280F0250E0001816FF90E1E
:101B38000001826F53EC43F00009D8B493D0A70E8C
:101B480000017D6FF30E00017E6FF7EC46F00F0E7B
:101B58000001CA6F020E0001CB6F100E0001CC6F9E
:101B6800FD0E0001CD6F8D0E0001CE6FF30E00014A
:101B7800CF6FF0EC10F00F0E00017F6F020E000126
:101B8800806F9CEC45F0A70E00017D6FF30E0001FD
:101B98007E6FF7EC46F00F0E0001CA6F020E0001CF
:101BA800CB6F5D0E0001CC6FFB0E0001CD6FF0EC2A
:101BB80010F00F0E00017F6F020E0001806F9CEC89
:101BC80045F0A70E00017D6FF30E00017E6FF7EC64
:101BD80046F00F0E0001CA6F020E0001CB6F610EB6
:101BE8000001CC6FFE0E0001CD6F960E0001CE6F86
:101BF800F30E0001CF6FF0EC10F00F0E00017F6FB5
:101C0800020E0001806F9CEC45F00F0E0001CA6FB8
:101C1800020E0001CB6FCE0E0001CC6FFB0E00014F
:101C2800CD6FA30E0001CE6FF30E0001CF6FF0EC65
:101C380010F00F0E00017D6F020E00017E6FF7ECB1
:101C480046F0E10E00017F6FFF0E0001806F9CECF3
:101C580045F0A70E00017D6FF30E00017E6FF7ECD3
:101C680046F0120000C27CF001C27DF0EA0E0001CD
:101C78007E6FFF0E00017F6F28EC45F00009D8B495
:101C880091D2A70E00017D6FF30E00017E6FF7EC75
:101C980046F0000E0201926F210E0201926501D0FA
:101CA80006D07E0EE3EC49F00201922BF5D7F70E31
:101CB80000017D6FFB0E00017E6FF7EC46F0000E11
:101CC8000201926F210E0201926501D006D07E0EAC
:101CD800E3EC49F00201922BF5D7A70E00017D6FC6
:101CE800F30E00017E6FF7EC46F0A70E00017D6F42
:101CF800F30E00017E6FF7EC46F02F0E00017F6FA8
:101D0800FE0E0001806F9CEC45F0EA0E00017F6F2B
:101D1800FF0E0001806F780E0001816FFF0E000139
:101D2800826FBBEC3BF0CC0E00017F6FFF0E000111
:101D3800806FAE0E0001816FF90E0001826FBBEC5F
:101D48003BF0250E00017F6FF90E0001806F0A0E2F
:101D58000001816FF90E0001826FBBEC3BF0A70E0A
:101D680000017D6FF30E00017E6FF7EC46F0FB0E6D
:101D780000017F6FFC0E0001806F9CEC45F09D0E0A
:101D880000017F6FFF0E0001806F960E0001816FCA
:101D9800FB0E0001826FBBEC3BF0A70E00017D6FCC
:101DA800F30E00017E6FF7EC46F0B90E00017F6F6D
:101DB800FE0E0001806F9CEC45F0010E0201926F4F
:101DC800140E0201926501D030D00F0E00017C6F15
:101DD800020E00017D6F000E00017F6F320E7E6FD4
:101DE800CAEC46F00F0E0001CA6F020E0001CB6F5D
:101DF800810E0001CC6FFE0E0001CD6F92C2CEF0B5
:101E08000001CF6BF0EC10F00F0E00017F6F020E97
:101E18000001806F040E0001816FFC0E0001826FCB
:101E2800BBEC3BF00201922BCBD7010E0201926F63
:101E3800140E0201926501D030D00F0E00017C6FA4
:101E4800020E00017D6F000E00017F6F320E7E6F63
:101E5800CAEC46F00F0E0001CA6F020E0001CB6FEC
:101E6800D50E0001CC6FFD0E0001CD6F92C2CEF0F1
:101E78000001CF6BF0EC10F00F0E00017F6F020E27
:101E88000001806F350E0001816FFC0E0001826F2A
:101E9800BBEC3BF00201922BCBD72C0E00017F6FDD
:101EA800FF0E0001806FEA0E0001816FF40E000141
:101EB800826FBBEC3BF0420E00017F6FFF0E00010A
:101EC800806F4C0E0001816FF50E0001826FBBEC34
:101ED8003BF04D0E00017F6FFF0E0001806F7D0EFD
:101EE8000001816FF50E0001826FBBEC3BF0210E03
:101EF80000017F6FFF0E0001806FB90E0001816F36
:101F0800F40E0001826FBBEC3BF0370E00017F6FCF
:101F1800FF0E0001806F1B0E0001816FF50E00019E
:101F2800826FBBEC3BF0580E00017F6FFF0E000183
:101F3800806FAE0E0001816FF50E0001826FBBEC61
:101F48003BF0D30E00017F6FFE0E0001806F6A0E1A
:101F58000001816FF60E0001826FBBEC3BF0ED0EC5
:101F680000017F6FFE0E0001806FC60E0001816FB9
:101F7800F60E0001826FBBEC3BF0FA0E00017F6F9A
:101F8800FE0E0001806FF40E0001816FF60E000155
:101F9800826FBBEC3BF0C60E00017F6FFE0E0001A6
:101FA800806F3C0E0001816FF60E0001826FBBEC62
:101FB8003BF0E00E00017F6FFE0E0001806F980E6F
:101FC8000001816FF60E0001826FBBEC3BF0070E3B
:101FD80000017F6FFF0E0001806F220E0001816FEC
:101FE800F70E0001826FBBEC3BF0DC0E00017F6F47
:101FF800FF0E0001806F2C0E0001816FF80E0001AA
:10200800826FBBEC3BF0A70E00017D6FF30E000161
:102018007E6FF7EC46F0AC0E00017F6FFE0E0001FC
:10202800806F9CEC45F02E0E00017F6FF30E0001CF
:10203800806F890E0001816FFD0E0001826FBBEC7D
:102048003BF03D0E00017F6FF30E0001806F9C0E88
:102058000001816FFD0E0001826FBBEC3BF04C0E5E
:1020680000017F6FF30E0001806FAF0E0001816FDA
:10207800FD0E0001826FBBEC3BF06A0E00017F6F22
:10208800F20E0001806F7B0E0001816FFC0E0001D3
:10209800826FBBEC3BF0440E00017F6FF20E000133
:1020A800806F640E0001816FFC0E0001826FBBEC33
:1020B8003BF07C0E00017F6FF20E0001806FC20EB4
:1020C8000001816FFD0E0001826FBBEC3BF0570EE3
:1020D80000017F6FF20E0001806F390E0001816FE1
:1020E800FD0E0001826FBBEC3BF0080E00017F6F14
:1020F800F20E0001806F4C0E0001816FFA0E000194
:10210800826FBBEC3BF0C90E00017F6FF10E00013E
:10211800806F4E0E0001816FF90E0001826FBBECDB
:102128003BF01C0E00017F6FF20E0001806F6B0EFA
:102138000001816FFA0E0001826FBBEC3BF0DE0EEE
:1021480000017F6FF10E0001806F6E0E0001816F3C
:10215800F90E0001826FBBEC3BF0300E00017F6F7F
:10216800F20E0001806F8A0E0001816FFA0E0001E5
:10217800826FBBEC3BF0F30E00017F6FF10E0001A4
:10218800806F8E0E0001816FF90E0001826FBBEC2B
:102198003BF0A70E00017D6FF30E00017E6FF7EC98
:1021A80046F012005B0E00017F6FF30E0001806F96
:1021B8009CEC45F0E90E00017F6FFB0E0001806F7B
:1021C8009CEC45F0A70E00017D6FF30E00017E6FB9
:1021D800F7EC46F012001200CE0E01010E6F000E51
:1021E80001010F6F78EF18F0250E01012319D8B4FB
:1021F8000BD0CAC0D9FFCBC0DAFF23C1DFFF000173
:10220800CA4BCB2B78EF18F0000E0101206F000E9F
:102218001F6F000E0101226F000E216F07D0010110
:1022280021850001CC4BCD2B01D00CD0CCC0F6FFC2
:10223800CDC0F7FFF86A0800F550300AD8B4EFD7D8
:1022480001D0F4D7CCC0F6FFCDC0F7FFF86A08007C
:10225800F55068EC49F0D8A00DD1000E0101206FAF
:10226800000E1F6F00D01FC18AF020C18BF0000E36
:1022780000018D6F0A0E8C6F00EC49F08AC01FF1C7
:102288008BC020F1D00E0101006FFF0E0101016F1C
:10229800CCC0F6FFCDC0F7FFF86A0800F550010181
:1022A800026F036B01010051010102270101015175
:1022B800010103230101025101011F2701010351FB
:1022C800010120230001CC4BCD2BCCC0F6FFCDC0A3
:1022D800F7FFF86A0800F55068EC49F0D8A0CAD0B2
:1022E800C2D7C8D08AEF18F001012189C3D00101F3
:1022F8002285EAD000D00101218FE6D00EC1D9FF96
:102308000FC1DAFFDECF0AF1DDCF0BF1020E0101BA
:102318000E27000E0F2301010A5101010B11D8A449
:1023280007D0A50E01010A6FFF0E01010B6F00D047
:10233800000E01010D6F000E0C6F04D001010C4B53
:102348000D2B00D001010C5101010A250101006F7C
:1023580001010D5101010B210101016F00C1F6FFBF
:1023680001C1F7FF000EF86E0F0EF76403D00800E6
:10237800F55005D0F6CFE9FFF7CFEAFFEF50000997
:10238800D8B402D0DBD700D001011F5101010C5D88
:102398000101205101010D59D8B009D001010C519A
:1023A80001011F5F01010D510101205B10D0000EDA
:1023B8000101206F000E1F6F0AD0CAC0D9FFCBC021
:1023C800DAFF200EDF6E0001CA4BCB2B00D00101D3
:1023D8001F07D8A0200701011F29EFE101012029CB
:1023E800D8B41FD0EAD71DD00AC1F6FF0BC1F7FF3A
:1023F800000EF86ECAC0D9FFCBC0DAFF0F0EF76423
:1024080003D00800F55005D0F6CFE9FFF7CFEAFF73
:10241800EF50DF6E01010A4B0B2B0001CA4BCB2B8F
:1024280000D001010C07D8A00D0701010C29DCE13F
:1024380001010D29D8B478EF18F0D6D778EF18F045
:102448000EC1D9FF0FC1DAFFDF500101236F020E61
:1024580001010E27000E0F2300D0230E01010A6F81
:10246800010E01010B6F000E01010D6F010E0C6FC3
:102478008BD72AD0CCC0F6FFCDC0F7FF0001CC4BDC
:10248800CD2BF86A0800F5CF23F101012351000A8A
:10249800D8B48AEF18F0580AD8B42DD73B0AD8B464
:1024A800CFD7070AD8B410D0020AD8B420D70F0A59
:1024B800D8B40AD0050AD8B417D71F0AD8B41ED77B
:1024C8000B0AD8B418D7C9D7070E01012215D8B4FA
:1024D800EDD3000E0101116F060E106F0EC1D9FF6A
:1024E8000FC1DAFFDECF1CF1DECF1DF1DDCF1EF10B
:1024F800030E01010E27000E0F2301011EAF12D09B
:102508001CC17CF01DC17DF01EC17EF050EC49F06D
:102518007CC01CF17DC01DF17EC01EF1030E0101BF
:10252800211300D0000E0101176F000E166F010174
:102538001C5101011D1101011E11D8B49DD0820E3C
:102548000101006FFF0E0101016F1CC102F11DC1E5
:1025580003F11EC104F11FC105F1100E06D00101DF
:10256800D8900533043303330233E82EF8D701013A
:102578000251010100250101166F000E0101012120
:102588000101176F01011607D8A0170716C18AF0B5
:1025980017C18BF0000E00018D6F030E8C6F00ECDD
:1025A80049F08AC016F18BC017F116C182F017C125
:1025B80083F0000E0001856F0A0E846F59EC3EF01F
:1025C80082C016F183C017F1010117AF05D00101D0
:1025D8001607D8A0170700D0010116510008AFEC64
:1025E80021F0A5C012F1A6C013F1A7C014F112C1C1
:1025F80096F013C197F014C198F01CC199F01DC151
:102608009AF01EC19BF055EC37F096C012F197C0B6
:1026180013F198C014F112C17CF013C17DF014C1FC
:102628007EF0000E00017F6F800E0001806F3F0E6C
:102638000001816FC1EC3EF00001D8B005D0010166
:102648001607D8A0170718D012C17CF013C17DF067
:1026580014C17EF0000E00017F6F200E0001806F14
:10266800410E0001816FC1EC3EF00001D8A004D0FA
:102678000101164B172B00D0010111BF08D0010131
:1026880011511EE10D0E0101105DD8B019D01CC109
:10269800AFF01DC1B0F01EC1B1F00101105151ECF5
:1026A8002CF0A5C0B2F0A6C0B3F0A7C0B4F0BDEC42
:1026B8002DF0AFC01CF1B0C01DF1B1C01EF100D0AB
:1026C800010117BF08D0010117512CE10A0E0101C1
:1026D800165DD8B027D001011C5101011D1101015F
:1026E8001E11D8B47FD01CC1BBF01DC1BCF01EC1E7
:1026F800BDF0B4EC38F00001BB510001BC11000181
:10270800BD110001BE11D8A46DD0010117BF6AD058
:102718000101175107E1020E0101165DD8B002D080
:1027280061D000D012C17CF013C17DF014C17EF0DD
:10273800700E00017F6F890E0001806F400E00014E
:10274800816FC1EC3EF00001D8B003D00101F70E53
:1027580002D00101F80E1627FF0E172300D0010141
:102768001651AFEC21F0A5C012F1A6C013F1A7C015
:1027780014F117D01CC17CF01DC17DF01EC17EF084
:1027880012C17FF013C180F014C181F00CEC35F058
:102798007CC018F17DC019F17EC01AF17FC01BF111
:1027A80017D01CC17CF01DC17DF01EC17EF012C186
:1027B8007FF013C180F014C181F039EC34F07CC093
:1027C80018F17DC019F17EC01AF17FC01BF100D04D
:1027D800000E01011C6F000E01011D6F000E0101AA
:1027E8001E6F34D01CC1BBF01DC1BCF01EC1BDF0B2
:1027F800B4EC38F0BBC018F1BCC019F1BDC01AF177
:10280800BEC01BF11CC1BBF01DC1BCF01EC1BDF098
:1028180018C184F019C185F01AC186F01BC187F070
:102828006DEC44F084C0BEF085C0BFF086C0C0F037
:10283800D0EC47F0BBC01CF1BCC01DF1BDC01EF1FF
:10284800000E0101176F000E166F00D0010E010176
:10285800236F0A0E01012319D8B425D001D023D043
:1028680001012351040D190EF324F66EF10EF42024
:10287800F76EF86A000EF8220900F5500101185D9C
:102888000900F550010119590900F55001011A59BB
:102898000900F55001011B59D8A005D001D003D07B
:1028A8000101232BD6D723C100F10101016B00BF21
:1028B8000107010110510101002701011151010116
:1028C80001230101165101010027010117510101DE
:1028D80001230101005101011F5F010101510101A3
:1028E800205B0101105101011111D8B405D001017B
:1028F8001F07D8A0200700D0030E010121150101F0
:10290800006F000E010122150101016F0101005144
:1029180001010111D8B405D001011F07D8A0200773
:1029280000D0010121A543D0030E010121150101A9
:10293800006F000E010122150101016F0101005114
:1029480001010111D8B418D0CAC0D9FFCBC0DAFF31
:102958002D0EDF6E0001CA4BCB2B0ED0CAC0D9FF9B
:10296800CBC0DAFF300EDF6E0001CA4BCB2B010162
:102978001F07D8A0200700D0010120BF8AD001017D
:102988002051ECE101011F05D8A083D0E7D781D001
:102998000ED0CAC0D9FFCBC0DAFF200EDF6E00010F
:1029A800CA4BCB2B01011F07D8A0200700D001017B
:1029B80020BF07D001012051ECE101011F05D8B06B
:1029C800E8D7030E010121150101006F000E010176
:1029D80022150101016F0101005101010111D8B453
:1029E80058D0CAC0D9FFCBC0DAFF2D0E50D0000195
:1029F800CA4BCB2B4ED018C17CF019C17DF01AC13F
:102A08007EF01BC17FF001012351040D190EF32440
:102A1800F66EF10EF420F76EF86A000EF82209003F
:102A2800F5CF80F00900F5CF81F00900F5CF82F0ED
:102A38000A00F5CF83F08CEC3FF07CC012F17DC02A
:102A480013F17EC014F17FC015F112C189F013C1D2
:102A58008AF014C18BF015C18CF00A0E00018D6F3D
:102A6800000E8E6F000E8F6F000E906F10EC42F00C
:102A780089C012F18AC013F18BC014F18CC015F112
:102A880001011251300FCAC0D9FFCBC0DAFFDF6E87
:102A9800AED70101230701012329D8B410D0ABD741
:102AA8000ED0CAC0D9FFCBC0DAFF300EDF6E0001EE
:102AB800CA4BCB2B01011607D8A0170700D001017C
:102AC80017BF07D001011751ECE101011605D8B075
:102AD800E8D7010111BF0CD00101115105E1090E20
:102AE8000101105DD8A004D0080E0101236F03D0A6
:102AF80010C123F100D0010123510101105F000E24
:102B0800010123BFFF0E0101115B010123510101E6
:102B1800D8B40AD0CAC0D9FFCBC0DAFF2E0EDF6EF8
:102B28000001CA4BCB2B00D001012351AFEC21F09F
:102B3800A5C006F1A6C007F1A7C008F11CC199F00D
:102B48001DC19AF01EC19BF006C196F007C197F00F
:102B580008C198F055EC37F096C0BBF097C0BCF0B0
:102B680098C0BDF0B4EC38F0BBC018F1BCC019F186
:102B7800BDC01AF1BEC01BF17BD018C17CF019C1D1
:102B88007DF01AC17EF01BC17FF001012351040DB5
:102B9800190EF324F66EF10EF420F76EF86A000EA3
:102BA800F8220900F5CF80F00900F5CF81F009007F
:102BB800F5CF82F00A00F5CF83F08CEC3FF07CC0B3
:102BC80012F17DC013F17EC014F17FC015F112C15E
:102BD80089F013C18AF014C18BF015C18CF00A0E6C
:102BE80000018D6F000E8E6F000E8F6F000E906FBC
:102BF80010EC42F089C012F18AC013F18BC014F1B5
:102C08008CC015F101011251300FCAC0D9FFCBC0D9
:102C1800DAFFDF6E0001CA4BCB2B18C189F019C14E
:102C28008AF01AC18BF01BC18CF001012351040DED
:102C3800190EF324F66EF10EF420F76EF86A000E02
:102C4800F8220900F5CF8DF00900F5CF8EF00900C4
:102C5800F5CF8FF00A00F5CF90F010EC42F089C064
:102C680018F18AC019F18BC01AF18CC01BF100D081
:102C78000101230701012329D8B410D07ED70ED033
:102C8800CAC0D9FFCBC0DAFF300EDF6E0001CA4BD5
:102C9800CB2B01011007D8A0110700D0010110515A
:102CA80001011111D8B420D2EBD71ED2010121BFE6
:102CB80035D0010121A90ED00EC1D9FF0FC1DAFF0D
:102CC800DECF18F1DECF19F1DECF1AF1DECF1BF11E
:102CD800040E0FD00EC1D9FF0FC1DAFFDECF18F1F5
:102CE800DDCF19F10101000E19BFFF0E1A6F1B6F1E
:102CF800020E01010E27000E0F2300D001011BAFA9
:102D08008FD0030E0101211301011B1F1A1F191F68
:102D1800186D000E19231A231B2382D0010121A943
:102D28000ED00EC1D9FF0FC1DAFFDECF18F1DECF0A
:102D380019F1DECF1AF1DECF1BF1040E10D00EC14F
:102D4800D9FF0FC1DAFFDECF00F1DDCF01F100C1FD
:102D580018F101C119F101011A6B1B6B020E010177
:102D68000E27000E0F235CD0010E0101236F0A0EFF
:102D780001012319D8B45ED001D05CD001012351E0
:102D8800040D190EF324F66EF10EF420F76EF86AAE
:102D9800000EF8220900F5500101185D0900F550F0
:102DA800010119590900F55001011A590900F55096
:102DB80001011B59D8A03ED001D03CD00101232BE2
:102DC800D6D738D0010E0101236F080E010123194F
:102DD800D8B430D001D02ED001012351040D8F0E6C
:102DE800F324F66EF10EF420F76EF86A000EF8225E
:102DF8000900F5500101185D0900F5500101195944
:102E08000900F55001011A590900F55001011B5933
:102E1800D8A010D001D00ED00101232BD6D70AD0CC
:102E280001012151800B000AD8B49ED7800AD8B47A
:102E3800C9D700D001011F5101012011D8B415D004
:102E4800030E010121150101006F000E0101221579
:102E58000101016F0101005101010111D8B405D030
:102E680001011F07D8A0200700D0800E010123BF51
:102E78007F0E0101006F01011F510101235D010156
:102E88002051800A01010059D8B00BD0010123510B
:102E980001011F5F000E010123BFFF0E0101205B2E
:102EA80006D0000E0101206F000E1F6F00D0010137
:102EB80021A535D0030E010121150101006F000E77
:102EC800010122150101016F0101005101010111E8
:102ED800D8B40AD0CAC0D9FFCBC0DAFF2D0EDF6E36
:102EE8000001CA4BCB2B00D001011F510101201159
:102EF800D8B44AD0CAC0D9FFCBC0DAFF300EDF6ED3
:102F08000001CA4BCB2B01011F07D8A020070101E4
:102F18001F5101012011D8B437D0ECD735D00101A9
:102F28001F5101012011D8B415D0CAC0D9FFCBC098
:102F3800DAFF200EDF6E0001CA4BCB2B01011F0701
:102F4800D8A0200701011F5101012011D8B402D0D7
:102F5800ECD700D0030E010121150101006F000E0E
:102F6800010122150101016F010100510101011147
:102F7800D8B40AD0CAC0D9FFCBC0DAFF2D0EDF6E95
:102F88000001CA4BCB2B00D0010123510101106F66
:102F9800116B10BF11079BD086D010C100F111C171
:102FA80001F10101D890003701370101D8900037AD
:102FB8000137190E01010025F66EF10E0121F76E99
:102FC800F86A000EF8220900F5CF80F00900F5CF65
:102FD80081F00900F5CF82F00A00F5CF83F018C11F
:102FE8007CF019C17DF01AC17EF01BC17FF08CEC1A
:102FF8003FF07CC089F07DC08AF07EC08BF07FC036
:103008008CF00A0E00018D6F000E8E6F000E8F6F10
:10301800000E906F10EC42F000018951300F010151
:10302800236F4BD018C17CF019C17DF01AC17EF016
:103038001BC17FF010C100F111C101F10101D8904D
:10304800003701370101D890003701378F0E010191
:103058000025F66EF10E0121F76EF86A000EF822CF
:103068000900F5CF80F00900F5CF81F00900F5CF10
:1030780082F00A00F5CF83F08CEC3FF000017C5120
:103088000F0B0101096F01010951010D1E0EF324F7
:10309800F66EFE0EF420F76EF86A000EF8220800AD
:1030A800F5CF23F10AD001012151800B000AD8B4D1
:1030B80074D7800AD8B4B6D700D0CAC0D9FFCBC05D
:1030C800DAFF23C1DFFF0001CA4BCB2B00D001017F
:1030D8001007D8A0110701011029E5E10101112904
:1030E800D8B402D0E0D700D0CCC0F6FFCDC0F7FFEF
:1030F8000001CC4BCD2BF86A0800F5CF23F1010174
:103108002351D8B403D0F8EF10F000D0CAC0D9FFCB
:10311800CBC0DAFF000EDF6E12001200000E0001B5
:10312800886F000E896F000E8A6F000E8B6F010E7C
:1031380000017C150001806F000E00017D15000163
:10314800816F000E00017E150001826F000E0001E4
:103158007F150001836F1F0ED890000180378137DB
:1031680082378337E82EF8D700018051000188277D
:1031780000018151000189230001825100018A2345
:103188000001835100018B23020E00017C15000110
:10319800806F000E00017D150001816F000E000197
:1031A8007E150001826F000E00017F150001836FFC
:1031B8001D0ED89000018037813782378337E82E7B
:1031C800F8D70001805100018827000181510001D2
:1031D80089230001825100018A23000183510001E3
:1031E8008B23040E00017C150001806F000E000186
:1031F8007D150001816F000E00017E150001826FB0
:10320800000E00017F150001836F1B0ED89000018E
:103218008037813782378337E82EF8D7000180510D
:103228000001882700018151000189230001825192
:1032380000018A230001835100018B23080E00013D
:103248007C150001806F000E00017D150001816F63
:10325800000E00017E150001826F000E00017F152F
:103268000001836F190ED8900001803781378237AB
:103278008337E82EF8D70001805100018827000124
:103288008151000189230001825100018A23000134
:10329800835100018B23100E00017C150001806F03
:1032A800000E00017D150001816F000E00017E15E2
:1032B8000001826F000E00017F150001836F170E59
:1032C800D89000018037813782378337E82EF8D7C6
:1032D80000018051000188270001815100018923E4
:1032E8000001825100018A230001835100018B23D0
:1032F800200E00017C150001806F000E00017D1575
:103308000001816F000E00017E150001826F000E22
:1033180000017F150001836F150ED89000018037DA
:10332800813782378337E82EF8D7000180510001B2
:103338008827000181510001892300018251000181
:103348008A230001835100018B23400E00017C1564
:103358000001806F000E00017D150001816F000ED5
:1033680000017E150001826F000E00017F1500012B
:10337800836F130ED89000018037813782378337E7
:10338800E82EF8D7000180510001882700018151FB
:10339800000189230001825100018A230001835121
:1033A80000018B23800E00017C150001806F000E48
:1033B80000017D150001816F000E00017E150001DE
:1033C800826F000E00017F150001836F110ED890E7
:1033D80000018037813782378337E82EF8D700011C
:1033E80080510001882700018151000189230001D3
:1033F800825100018A230001835100018B23000EB2
:1034080000017C150001806F010E00017D1500018F
:10341800816F000E00017E150001826F000E000111
:103428007F150001836F0F0ED89000018037813718
:1034380082378337E82EF8D70001805100018827AA
:1034480000018151000189230001825100018A2372
:103458000001835100018B23000E00017C1500013F
:10346800806F020E00017D150001816F000E0001C2
:103478007E150001826F000E00017F150001836F29
:103488000D0ED89000018037813782378337E82EB8
:10349800F8D70001805100018827000181510001FF
:1034A80089230001825100018A2300018351000110
:1034B8008B23000E00017C150001806F040E0001B3
:1034C8007D150001816F000E00017E150001826FDD
:1034D800000E00017F150001836F0B0ED8900001CC
:1034E8008037813782378337E82EF8D7000180513B
:1034F80000018827000181510001892300018251C0
:1035080000018A230001835100018B23000E000172
:103518007C150001806F080E00017D150001816F88
:10352800000E00017E150001826F000E00017F155C
:103538000001836F090ED8900001803781378237E8
:103548008337E82EF8D70001805100018827000151
:103558008151000189230001825100018A23000161
:10356800835100018B23000E00017C150001806F40
:10357800100E00017D150001816F000E00017E15FF
:103588000001826F000E00017F150001836F070E96
:10359800D89000018037813782378337E82EF8D7F3
:1035A8000001805100018827000181510001892311
:1035B8000001825100018A230001835100018B23FD
:1035C800000E00017C150001806F200E00017D15A2
:1035D8000001816F000E00017E150001826F000E50
:1035E80000017F150001836F050ED8900001803718
:1035F800813782378337E82EF8D7000180510001E0
:1036080088270001815100018923000182510001AE
:103618008A230001835100018B23000E00017C15D1
:103628000001806F400E00017D150001816F000EC2
:1036380000017E150001826F000E00017F15000158
:10364800836F030ED8900001803781378237833724
:10365800E82EF8D700018051000188270001815128
:10366800000189230001825100018A23000183514E
:1036780000018B23000E00017C150001806F800E75
:1036880000017D150001816F000E00017E1500010B
:10369800826F000E00017F150001836FD890000132
:1036A80080350001846F000181350001856F0001BC
:1036B80082350001866F000183350001876F0001A4
:1036C80084510001882700018551000189230001E8
:1036D800865100018A230001875100018B237CC099
:1036E80080F07DC081F07EC082F07FC083F0000151
:1036F800D8908333823381338033000E00018015E4
:103708000001846F800E000181150001856F000E95
:10371800000182150001866F000E0001831500016B
:10372800876F00018451000188270001855100013D
:1037380089230001865100018A2300018751000175
:103748008B237CC080F07DC081F07EC082F07FC07A
:1037580083F0040E06D00001D8908333823381337E
:103768008033E82EF8D7000E000180150001846F21
:10377800400E000181150001856F000E00018215C1
:103788000001866F000E000183150001876F00019C
:103798008451000188270001855100018923000117
:1037A800865100018A230001875100018B237CC0C8
:1037B80080F07DC081F07EC082F07FC083F0060E6D
:1037C80006D00001D8908333823381338033E82ECA
:1037D800F8D7000E000180150001846F200E00014B
:1037E80081150001856F000E000182150001866FAA
:1037F800000E000183150001876F0001845100014C
:1038080088270001855100018923000186510001A4
:103818008A230001875100018B237CC080F07DC082
:1038280081F07EC082F07FC083F0080E06D00001D0
:10383800D8908333823381338033E82EF8D7000E53
:10384800000180150001846F100E00018115000130
:10385800856F000E000182150001866F000E0001C1
:1038680083150001876F000184510001882700013A
:103878008551000189230001865100018A23000136
:10388800875100018B237CC080F07DC081F07EC011
:1038980082F07FC083F00A0E06D00001D8908333EF
:1038A800823381338033E82EF8D7000E000180156B
:1038B8000001846F080E000181150001856F000E5C
:1038C800000182150001866F000E000183150001BA
:1038D800876F00018451000188270001855100018C
:1038E80089230001865100018A23000187510001C4
:1038F8008B237CC080F07DC081F07EC082F07FC0C9
:1039080083F00C0E06D00001D890833382338133C4
:103918008033E82EF8D7000E000180150001846F6F
:10392800040E000181150001856F000E000182154B
:103938000001866F000E000183150001876F0001EA
:103948008451000188270001855100018923000165
:10395800865100018A230001875100018B237CC016
:1039680080F07DC081F07EC082F07FC083F00E0EB3
:1039780006D00001D8908333823381338033E82E18
:10398800F8D7000E000180150001846F020E0001B7
:1039980081150001856F000E000182150001866FF8
:1039A800000E000183150001876F0001845100019A
:1039B80088270001855100018923000186510001F3
:1039C8008A230001875100018B237CC080F07DC0D1
:1039D80081F07EC082F07FC083F0100E06D0000117
:1039E800D8908333823381338033E82EF8D7000EA2
:1039F800000180150001846F010E0001811500018E
:103A0800856F000E000182150001866F000E00010F
:103A180083150001876F0001845100018827000188
:103A28008551000189230001865100018A23000184
:103A3800875100018B237CC080F07DC081F07EC05F
:103A480082F07FC083F0120E06D00001D890833335
:103A5800823381338033E82EF8D7800E0001801539
:103A68000001846F000E000181150001856F000EB2
:103A7800000182150001866F000E00018315000108
:103A8800876F0001845100018827000185510001DA
:103A980089230001865100018A2300018751000112
:103AA8008B237CC080F07DC081F07EC082F07FC017
:103AB80083F0140E06D00001D8908333823381330B
:103AC8008033E82EF8D7400E000180150001846F7E
:103AD800000E000181150001856F000E000182159E
:103AE8000001866F000E000183150001876F000139
:103AF80084510001882700018551000189230001B4
:103B0800865100018A230001875100018B237CC064
:103B180080F07DC081F07EC082F07FC083F0160EF9
:103B280006D00001D8908333823381338033E82E66
:103B3800F8D7200E000180150001846F000E0001E7
:103B480081150001856F000E000182150001866F46
:103B5800000E000183150001876F000184510001E8
:103B68008827000185510001892300018651000141
:103B78008A230001875100018B237CC080F07DC01F
:103B880081F07EC082F07FC083F0180E06D000015D
:103B9800D8908333823381338033E82EF8D7100EE0
:103BA800000180150001846F000E000181150001DD
:103BB800856F000E000182150001866F000E00015E
:103BC80083150001876F00018451000188270001D7
:103BD8008551000189230001865100018A230001D3
:103BE800875100018B237CC080F07DC081F07EC0AE
:103BF80082F07FC083F01A0E06D00001D89083337C
:103C0800823381338033E82EF8D7080E00018015FF
:103C18000001846F000E000181150001856F000E00
:103C2800000182150001866F000E00018315000156
:103C3800876F000184510001882700018551000128
:103C480089230001865100018A2300018751000160
:103C58008B237CC080F07DC081F07EC082F07FC065
:103C680083F01C0E06D00001D89083338233813351
:103C78008033E82EF8D7040E000180150001846F08
:103C8800000E000181150001856F000E00018215EC
:103C98000001866F000E000183150001876F000187
:103CA8008451000188270001855100018923000102
:103CB800865100018A230001875100018B237CC0B3
:103CC80080F07DC081F07EC082F07FC083F01E0E40
:103CD80006D00001D8908333823381338033E82EB5
:103CE800F8D7020E000180150001846F000E000154
:103CF80081150001856F000E000182150001866F95
:103D0800000E000183150001876F00018451000136
:103D1800882700018551000189230001865100018F
:103D28008A230001875100018B23000E00017C15B6
:103D38000001806F000E00017D150001816F000EEB
:103D480000017E150001826F800E00017F150001C1
:103D5800836F200E06D00001D890833382338133DD
:103D68008033E82EF8D70001805100018827000130
:103D78008151000189230001825100018A23000139
:103D8800835100018B2388C07CF089C07DF08AC0F4
:103D98007EF08BC07FF012001200EACF6EF0E1CF08
:103DA8006FF0E2CF70F0D9CF71F0DACF72F0F3CFC5
:103DB80073F0F4CF74F0F6CF75F0F7CF76F0F8CF54
:103DC80077F0F5CF78F0F29EF2A08FD000F000F0F7
:103DD800000E0201CB6F000ECC6F000ECD6F000EEF
:103DE800CE6FB2EC4AF00001796F2F5000017919BB
:103DF800D8B475D0D58EF28A130E446E000E000129
:103E0800E16FD6CF7AF000017B6BD75000017B279A
:103E1800640E30605FD03050D8B454D0650E306036
:103E280051D0FE0E0001676FFF0E0001686F305021
:103E38000001696F6A6BD890000169376A37000121
:103E48006751000169270001685100016A23000ECB
:103E580000016925D96E070E00016A21DA6E7AC061
:103E6800DEFF7BC0DDFF090E00017A5D520E000106
:103E78007B59D8B00CD0380E00017A5D4A0E00018B
:103E88007B59D8A004D07D98F296F2841ED0510EAA
:103E980000017A5DC30E00017B59D8B010D0C80E5E
:103EA80000017A5DAF0E00017B59D8A008D07D983B
:103EB800F2968F0E1C6E1B68CDEC4AF006D0C8EC4B
:103EC8004AF003D0C8EC4AF000D0650E306004D048
:103ED800302A02D07D98F29679C02FF002D000F0F7
:103EE80000D0B2EC4AF0F29018D2F2A430D0F29A94
:103EF800D59E030E30640ED0000E1B6E070E1C6E8E
:103F0800DD0E1D6E000E1E6E010E1F6E8FEC2AF068
:103F18000001E16F000E1B6E070E1C6E000E1E6E78
:103F2800640E1D6E84EC48F0000E306E0001E15105
:103F3800D8A409D0B2EC4AF0B2EC4AF02F6EF29055
:103F48007D88F28600D00D0E446EF294E6D19EA2D2
:103F5800D1D13A2A370E4218D8A40CD143503A5C32
:103F6800D8A003D1000E3A6E3550010DCF0EF324C0
:103F7800D96E020EF420DA6E630EDE18D8B4B3D010
:103F88003750D8B4F2D03550010DCF0EF324D96E86
:103F9800020EF420DA6EDF50D8A43FD03404D8A43F
:103FA80025D03604D8A407D077D0080ECB6E76D0AB
:103FB800000ECC6EDAD0020E3618D8A404D074D015
:103FC8003ED0362AD2D0030E3618D8A402D064D0F8
:103FD800ECD7040E3618D8A404D08B9A180E51D0FA
:103FE80016D0CA947BD0000E376EBFD0020E34189C
:103FF800D8A4F7D73604D8A403D08B8A0B0ED6D70B
:10400800020E3618D8A4EDD78B9A1D0E3AD0010EA1
:10401800366E352AAAD062D0A8D03550010DCF0E01
:10402800F324D96E020EF420DA6EDE04D8A42ED062
:104038003404D8A416D03604D8A404D03CD0180E22
:10404800CB6EBFD7020E3618D8A431D08B9AADD715
:104058002ED0F5D7B6D732D0080ECB6E35D0A8D72C
:1040680084D0020E3418D8A4BCD73604D8A403D000
:104078008B8A1D0E9BD7020E3618D8A404D08B9AB3
:104088000B0ECB6EC4D7CA9429D06FD03404D8A4F1
:1040980020D03604D8A404D08B8A87D7362A88D76C
:1040A800020E3618D8A403D08B9AC9D78AD7030E24
:1040B8003618D8A403D08B8AC2D783D7040E3618F3
:1040C800D8A48FD78B9AC8D7010E366E352A70D7E9
:1040D8004CD0020E3418D8A484D783D7010E00011F
:1040E800E36F81D742D03604D8A416D03404D8A4BC
:1040F80003D08B8A080E06D0020E3418D8A404D038
:104108008B9A0B0ECB6E05D0CA94010E0001E36F9B
:1041180000D0000ECC6E55D7020E3618D8A41CD08D
:104128003404D8A403D08B9AFA0E05D0020E3418A2
:10413800D8A403D0950ECB6E05D0CA94010E000109
:10414800E36F00D0362A38063850D8B40ED0010EA6
:10415800366E000E356E09D0D2EC4AF0A192000EF0
:104168003B6EB180CA943FD700D03750D8B4C0D086
:10417800CA84BED043503A5CD8A0BAD0000E3A6E7A
:10418800070E4118D8A40DD0200E406E000E000175
:10419800DA6F8B96080E416E040E436E4B0ECB6E93
:1041A800A7D0080E4118D8B404D00A0E4118D8A4D4
:1041B80011D0010E0001DA6F010E436E2350010B7E
:1041C8002D6ED8902632253224322332260ECB6E1D
:1041D800090E7AD0090E4118D8A417D0000E000194
:1041E800DA6F8B96010E436E2D50D8B402D0710E43
:1041F80001D0260ECB6E00D040064050D8A402D085
:104208000B0E62D00A0E60D073D00B0E4118D8A4E2
:1042180007D0010E0001DA6F260ECB6E0C0E54D0BB
:104228000C0E4118D8A411D0000E0001DA6F8B963D
:104238003250D8A403D00D0E416E57D00B0E436EEA
:10424800F20ECB6E0E0E40D053D00E0E4118D8B4DD
:1042580004D0120E4118D8A409D0010E0001DA6F5B
:10426800040E436E960ECB6E0F0E2ED00F0E411815
:10427800D8A40AD0000E0001DA6F8B96010E436EA7
:10428800950ECB6E100E20D0100E4118D8A409D070
:10429800010E0001DA6F010E436E260ECB6E110E71
:1042A80013D0110E4118D8A411D0000E0001DA6FF6
:1042B8008B961A0E436EF60ECB6E31063150D8B47B
:1042C80002D0120E01D00D0E416E12D00D0E411803
:1042D800D8A405D00AD0010E0001E36F09D0000E62
:1042E8000001DA6F8B96000E416ECA94F4D700D0A5
:1042F8009E9213D0A1A20FD0B190040E3B6005D0BE
:10430800D2EC4AF0B1803B2A04D0010E0001E36FE1
:1043180000D0A19202D000F000D0F28E78C0F5FF54
:1043280077C0F8FF76C0F7FF75C0F6FF74C0F4FFDA
:1043380073C0F3FF72C0DAFF71C0D9FF70C0E2FF2B
:104348006FC0E1FF6EC0EAFF6DC0E9FF6CC0FBFF04
:104358006BC0FAFF11000001AB6F0001ABAF3FD19A
:104368000001AB6D0001AB51800A120FD8A0B6D086
:10437800000E00018D6F030E8C6F000E0001856F1B
:104388000A0E846F000E00017F6F640E7E6F0001BD
:10439800AB5100017C6F7D6B7CBF7D0706EC41F063
:1043A8007CC082F07DC083F059EC3EF0090E00011C
:1043B800822500018A6F000E0001832100018B6FA6
:1043C80000EC49F0410E00018A25F66EF10E00015D
:1043D8008B21F76EF86A000EF8220900F5CF99F0E4
:1043E8000900F5CF9AF00A00F5CF9BF0000E000106
:1043F800856F640E846F0001AB510001826F836B7F
:1044080082BF830759EC3EF0120E0001822500019D
:104418008A6F000E0001832100018B6F000E0001DE
:104428008D6F030E8C6F00EC49F0410E00018A2558
:10443800F66EF10E00018B21F76EF86A000EF82275
:104448000900F5CF96F00900F5CF97F00A00F5CFEF
:1044580098F055EC37F096C0A8F097C0A9F098C02E
:10446800AAF0A8C096F0A9C097F0AAC098F0000ECC
:1044780000018D6F030E8C6F000E00017F6F0A0E16
:104488007E6F0001AB5100017C6F7D6B7CBF7D07A7
:1044980006EC41F07CC08AF07DC08BF000EC49F05E
:1044A800410E00018A25F66EF10E00018B21F76E90
:1044B800F86A000EF8220900F5CF99F00900F5CF47
:1044C8009AF00A00F5CF9BF055EC37F096C0A5F0AE
:1044D80097C0A6F098C0A7F012006BD00001AB51AE
:1044E800800A750FD8A065D0000E0001856F0A0EEE
:1044F800846F0001AB510001826F836B82BF830719
:1045080059EC3EF0090E0001822500018A6F000E69
:104518000001832100018B6F000E00018D6F030ED7
:104528008C6F00EC49F0410E00018A25F66EF10E01
:1045380000018B21F76EF86A000EF8220900F5CF0A
:1045480096F00900F5CF97F00A00F5CF98F0000E25
:1045580000018D6F030E8C6F000E00017F6F0A0E35
:104568007E6F0001AB5100017C6F7D6B7CBF7D07C6
:1045780006EC41F07CC08AF07DC08BF000EC49F07D
:10458800410E00018A25F66EF10E00018B21F76EAF
:10459800F86A000EF8220900F5CF99F00900F5CF66
:1045A8009AF00A00F5CF9BF055EC37F08FD7120040
:1045B80000D00001AB51030D410EF324F66EF10E4D
:1045C800F420F76EF86A000EF8220900F5CFA5F07E
:1045D8000900F5CFA6F00A00F5CFA7F012000001F8
:1045E800AB51800A120FD8A0B6D0000E00018D6F13
:1045F800030E8C6F000E0001856F0A0E846F000E8B
:1046080000017F6F640E7E6F0001AB5100017C6F6B
:104618007D6B7CBF7D0706EC41F07CC082F07DC0DD
:1046280083F059EC3EF0090E0001822500018A6FE3
:10463800000E0001832100018B6F00EC49F0680E29
:1046480000018A25F66EF10E00018B21F76EF86ADB
:10465800000EF8220900F5CF99F00900F5CF9AF07D
:104668000A00F5CF9BF0000E0001856F640E846F81
:104678000001AB510001826F836B82BF830759EC45
:104688003EF0120E0001822500018A6F000E000123
:10469800832100018B6F000E00018D6F030E8C6F5C
:1046A80000EC49F0680E00018A25F66EF10E000153
:1046B8008B21F76EF86A000EF8220900F5CF96F004
:1046C8000900F5CF97F00A00F5CF98F055EC37F0D0
:1046D80096C0A8F097C0A9F098C0AAF0A8C096F014
:1046E800A9C097F0AAC098F0000E00018D6F030EC4
:1046F8008C6F000E00017F6F0A0E7E6F0001AB51B8
:1047080000017C6F7D6B7CBF7D0706EC41F07CC0AF
:104718008AF07DC08BF000EC49F0680E00018A2514
:10472800F66EF10E00018B21F76EF86A000EF82282
:104738000900F5CF99F00900F5CF9AF00A00F5CFF6
:104748009BF055EC37F096C0A5F097C0A6F098C03E
:10475800A7F012006BD00001AB51800A750FD8A0EA
:1047680065D0000E0001856F0A0E846F0001AB5101
:104778000001826F836B82BF830759EC3EF0090EFC
:104788000001822500018A6F000E000183210001CB
:104798008B6F000E00018D6F030E8C6F00EC49F0DB
:1047A800680E00018A25F66EF10E00018B21F76E66
:1047B800F86A000EF8220900F5CF96F00900F5CF47
:1047C80097F00A00F5CF98F0000E00018D6F030EE8
:1047D8008C6F000E00017F6F0A0E7E6F0001AB51D7
:1047E80000017C6F7D6B7CBF7D0706EC41F07CC0CF
:1047F8008AF07DC08BF000EC49F0680E00018A2534
:10480800F66EF10E00018B21F76EF86A000EF822A1
:104818000900F5CF99F00900F5CF9AF00A00F5CF15
:104828009BF055EC37F08FD7120000D00001AB5148
:10483800030D680EF324F66EF10EF420F76EF86A95
:10484800000EF8220900F5CFA5F00900F5CFA6F073
:104858000A00F5CFA7F012001200000E0001966FB3
:10486800000E0001986F000E996F000E9A6F000EEF
:104878009B6F000E0001936F010E0001926F000EF6
:104888000001946F000E0001956F38D088C0D9FFE1
:1048980089C0DAFF300EDE18D8A42AD00001942B84
:1048A8000001884B892B88C0D9FF89C0DAFF780EB0
:1048B800DE18D8B408D088C0D9FF89C0DAFF580EEE
:1048C800DE18D8A415D00001884B892B88C0D9FFE1
:1048D80089C0DAFF2F0EDF640BD088C0D9FF89C0EA
:1048E800DAFF3A0EDF6004D0010E0001956F00D0A8
:1048F8000001942B0001884B892B00D088C0D9FF78
:1049080089C0DAFFDF50D8A4C1D700019451010D46
:10491800F3500001885FF4500001895B01D03BD05F
:1049280088C0D9FF89C0DAFF3D0EDE18D8B411D08F
:1049380088C0D9FF89C0DAFF2C0EDE18D8B409D098
:1049480088C0D9FF89C0DAFFDF50D8B402D023D09D
:1049580000D088C0D9FF89C0DAFFDF50D8A403D0BF
:10496800010E12001DD088C0D9FF89C0DAFF3D0EA4
:10497800DE18D8A408D088C0D9FF89C0DAFF2C0E69
:10498800DE18D8B40DD000018A510001925DD8B06C
:1049980007D00001922B0001884B892BC1D700D08A
:1049A80088C0D9FF89C0DAFFDF50D8A402D0010E31
:1049B80012000001884B892B88C0D9FF89C0DAFF13
:1049C800200EDE18D8B41ED088C0D9FF89C0DAFFFF
:1049D8003D0EDE18D8B408D088C0D9FF89C0DAFFE8
:1049E8002C0EDE18D8A403D0020E120019D088C0ED
:1049F800D9FF89C0DAFF2D0EDE18D8A407D0010E22
:104A08000001936F0001884B892B0AD088C0D9FF19
:104A180089C0DAFFDF50D8A403D0030E120000D0FB
:104A2800000195510001D8B41CD1000E0001936F0C
:104A380004D00001884B892B00D088C0D9FF89C0D9
:104A4800DAFF780EDE18D8B408D188C0D9FF89C03B
:104A5800DAFF580EDE18D8B400D1EBD7FED0FDD05F
:104A680000D1000195510001D8A45BD088C0D9FFBE
:104A780089C0DAFF2F0EDF64F0D088C0D9FF89C063
:104A8800DAFF3A0EDF60E9D098C07CF099C07DF07B
:104A98009AC07EF09BC07FF00A0E0001806F000E66
:104AA800816F000E826F000E836FEBEC44F07CC0C8
:104AB80098F07DC099F07EC09AF07FC09BF088C0C6
:104AC800D9FF89C0DAFFDF5000018D6FD00E0001D9
:104AD8008D2500018E6F00018F6BFF0E8F23000163
:104AE800906B00018FBF9007000190510001916FFA
:104AF80000018E510001982700018F510001992370
:104B08000001905100019A230001915100019B235B
:104B18000001962B200E000196659FD0040E12000E
:104B28009CD088C0D9FF89C0DAFF2F0EDF6408D077
:104B380088C0D9FF89C0DAFF390EDF641FD000D0E2
:104B480088C0D9FF89C0DAFF400EDF6408D088C06A
:104B5800D9FF89C0DAFF460EDF6410D000D088C0C4
:104B6800D9FF89C0DAFF600EDF6477D088C0D9FF2B
:104B780089C0DAFF670EDF6070D000D00001040E34
:104B8800D890983799379A379B37E82EF9D788C045
:104B9800D9FF89C0DAFFDF500001976F00019751F4
:104BA800D4EC49F00009D8B429D0970E00017C6FE5
:104BB800000E00017D6F95EC49F0A90E00019725C4
:104BC80000018D6F00018E6BFF0E8E2300018F6B2D
:104BD80000018EBF8F0700018F510001906F000107
:104BE8008D510001982700018E5100019923000181
:104BF8008F5100019A230001905127D088C0D9FF16
:104C080089C0DAFFDF5000018D6FD00E00018D25BD
:104C180000018E6F00018F6BFF0E8F230001906BD8
:104C280000018FBF9007000190510001916F0001B2
:104C38008E510001982700018F510001992300012E
:104C4800905100019A230001915100019B2300D04B
:104C58000001962B5FD7120000D00001884B892BEA
:104C680000D088C0D9FF89C0DAFFDF50D8B41AD085
:104C780088C0D9FF89C0DAFF200EDE18D8B412D058
:104C880088C0D9FF89C0DAFF2C0EDE18D8B40AD044
:104C980088C0D9FF89C0DAFF3D0EDE18D8B402D02B
:104CA800E0D600D0000193510001D8B40AD0000129
:104CB8009B1F9A1F991F986D000E99239A239B2377
:104CC80000D08BC0D9FF8CC0DAFF98C0DEFF99C036
:104CD800DEFF9AC0DEFF9BC0DEFF000E120012004E
:104CE800010E0101606F2E0E00017C6F010E0001A4
:104CF8007D6F000E00017F6F320E7E6FCAEC46F0AA
:104D0800240E00017C6F010E00017D6F000E000172
:104D18007F6F0A0E7E6FCAEC46F028EC3FF0000960
:104D2800D8B4120001D012002E0E0001CA6F010E75
:104D38000001CB6F1D0E0001CC6FFC0E0001CD6F82
:104D48003CC0CEF03DC0CFF03EC0D0F03FC0D1F067
:104D5800F0EC10F02E0E00017D6F010E00017E6F49
:104D6800F7EC46F0500E00017C6FC30E7D6F000E0D
:104D78007E6F000E7F6F7BEC47F0000E00017C6FAA
:104D8800050E00017D6FFA0E00017E6FFF0E000117
:104D98007F6F60EC41F00009D8A404D0000E010137
:104DA800606F00D0000E00017C6F050E00017D6F62
:104DB80027C07EF000017F6BCAEC46F0000E276E1C
:104DC800010160510101D8B428D06E0E00017D6F39
:104DD800FF0E00017E6FF7EC46F0500E00017C6F6D
:104DE800C30E7D6F000E7E6F000E7F6F7BEC47F069
:104DF800000E00017C6F050E00017D6FFA0E0001A8
:104E08007E6FFF0E00017F6F60EC41F00009D8A4AF
:104E180004D0000E0101606F00D001016051010152
:104E2800D8B428D0A70E00017D6FFC0E00017E6F5C
:104E3800F7EC46F0500E00017C6FC30E7D6F000E3C
:104E48007E6F000E7F6F7BEC47F0000E00017C6FD9
:104E5800050E00017D6FFA0E00017E6FFF0E000146
:104E68007F6F60EC41F00009D8A404D0000E010166
:104E7800606F00D0000E00017C6F050E00017D6F91
:104E880027C07EF000017F6BCAEC46F0000E276E4B
:104E9800010160510101D8B428D0820E00017D6F54
:104EA800FF0E00017E6FF7EC46F0500E00017C6F9C
:104EB800C30E7D6F000E7E6F000E7F6F7BEC47F098
:104EC800000E00017C6F050E00017D6FFA0E0001D7
:104ED8007E6FFF0E00017F6F60EC41F00009D8A4DF
:104EE80004D0000E0101606F00D0000E00017C6F3D
:104EF800050E00017D6F27C07EF000017F6BCAECB4
:104F080046F0000E276E010160510101D8B428D087
:104F1800BA0E00017D6FFF0E00017E6FF7EC46F0C0
:104F2800500E00017C6FC30E7D6F000E7E6F000E69
:104F38007F6F7BEC47F0000E00017C6F050E0001CF
:104F48007D6FFA0E00017E6FFF0E00017F6F60EC2F
:104F580041F00009D8A404D0000E0101606F00D010
:104F6800000E00017C6F050E00017D6F27C07EF0EA
:104F780000017F6BCAEC46F0000E276E01016051FC
:104F88000101D8B428D0BA0E00017D6FFF0E0001D0
:104F98007E6FF7EC46F0500E00017C6FC30E7D6FFC
:104FA800000E7E6F000E7F6F7BEC47F0000E000155
:104FB8007C6F050E00017D6FFA0E00017E6FFF0EFB
:104FC80000017F6F60EC41F00009D8A404D0000E06
:104FD8000101606F00D0000E00017C6F050E00011A
:104FE8007D6F27C07EF000017F6BCAEC46F0000E93
:104FF800276E010160510101D8B43ED0D70E0001DF
:105008007D6FFF0E00017E6FF7EC46F0500E000139
:105018007C6FC30E7D6F000E7E6F000E7F6F7BEC82
:1050280047F02E0E0001CA6F010E0001CB6F7A0EF9
:105038000001CC6FFB0E0001CD6F3CC0CEF03DC02F
:10504800CFF03EC0D0F03FC0D1F0F0EC10F0000E31
:1050580000017C6F050E00017D6F2E0E00017E6F32
:10506800010E00017F6F60EC41F00009D8A404D064
:10507800000E0101606F00D0000E00017C6F050E6C
:1050880000017D6F27C07EF000017F6BCAEC46F0FF
:10509800000E276ED20E00017D6FFF0E00017E6F9D
:1050A800F7EC46F0500E00017C6FC30E7D6F000ECA
:1050B8007E6F000E7F6F7BEC47F0000E00017C6F67
:1050C800050E00017D6FF60E00017E6FFF0E0001D8
:1050D8007F6F60EC41F00009D8A404D0000E0101F4
:1050E800606F00D0000E00017C6F050E00017D6F1F
:1050F80027C07EF000017F6BCAEC46F0000E276ED9
:1051080012001200000E0201986F000E0201936F48
:10511800000E0201946F010E0201976F000E02014A
:10512800956FE1EC4AF03FEC48F064EC45F04FEC49
:1051380040F0A5C0E3F2A6C0E4F2A7C0E5F2E3C2DE
:105148007CF0E4C27DF0E5C27EF0CD0E00017F6FF9
:105158006C0E0001806F400E0001816FC1EC3EF0C3
:105168000001D8B002D0220E15D0000E00017C6FCD
:10517800F00E00017D6F410E00017E6FE3C27FF0EB
:10518800E4C280F0E5C281F0C1EC3EF00001D8B085
:1051980004D0620E0201976F00D002019705D8A4CF
:1051A80027D0000E0201986F090E0201986501D000
:1051B8001DD08B828B94500E00017C6FC30E7D6FC7
:1051C800000E7E6F000E7F6F7BEC47F08B928B8416
:1051D800500E00017C6FC30E7D6F000E7E6F000EB7
:1051E8007F6F7BEC47F00201982BDED78B9424D09D
:1051F800000E0201986F090E0201986501D01CD0BB
:105208008B82A00E00017C6F860E7D6F010E7E6F73
:10521800000E7F6F7BEC47F08B92A00E00017C6F35
:10522800860E7D6F010E7E6F000E7F6F7BEC47F060
:105238000201982BE0D700D0E1C093F2DBC094F2D2
:105248004FEC40F0A5C0E3F2A6C0E4F2A7C0E5F237
:10525800220E02019719D8A418D0E3C2BBF0E4C209
:10526800BCF0E5C2BDF0000E0001BE6F000E0001EB
:10527800BF6F3F0E0001C06FD0EC47F0BBC0E3F238
:10528800BCC0E4F2BDC0E5F21DD0620E0201971960
:10529800D8A418D0E3C2AFF0E4C2B0F0E5C2B1F0D0
:1052A800000E0001B26F000E0001B36F3F0E000147
:1052B800B46FBDEC2DF0AFC0E3F2B0C0E4F2B1C002
:1052C800E5F200D0E3C27CF0E4C27DF0E5C27EF0F6
:1052D800CD0E00017F6F6C0E0001806F400E000143
:1052E800816FC1EC3EF00001D8B002D0220E17D079
:1052F800000E00017C6FF00E00017D6F410E000171
:105308007E6FE3C27FF0E4C280F0E5C281F0C1ECB9
:105318003EF00001D8B002D0620E01D0010E0201A9
:10532800976F00D0020193510201D8B41BD000013D
:10533800DD510001DE110001DF110001E011D8B4D8
:1053480011D0E10E0001BD6F000E0001BE6FDDC07F
:10535800BFF0DEC0C0F0DFC0C1F0E0C0C2F0FCECBE
:105368002EF000D09DEC4AF00201966F0001D95151
:1053780002019619D8B424D0020196510201D8B47A
:105388001FD0E80E00017C6F030E7D6F000E7E6F4C
:10539800000E7F6F7BEC47F0AF0E00017F6FF10EC0
:1053A8000001806F9CEC45F0A70E00017D6FF30EA5
:1053B80000017E6FF7EC46F03E0EE3EC49F000D0BA
:1053C800020194510201D8B466D00201965102013B
:1053D800D8B461D0000E00017C6F030E00017D6F10
:1053E800000E00017F6F7E69CAEC46F0000E0001D6
:1053F800846F060E0001856F000E0001866F030E94
:105408000001876FDCC088F0000E0001896FE5ECB1
:1054180043F0DCC095F2000E00017C6F060E00011F
:105428007D6FDCC07EF000017F6BCAEC46F0000E99
:105438000001DC6F000E0001DB6F03010051030166
:10544800D8B40BD0000E0201006F030E0201016FE9
:1054580095C202F2FBEC00F000D0A70E00017D6FB0
:10546800F30E00017E6FF7EC46F03E0EE3EC49F0D8
:105478000001E151D8B404D0000E0001E16F00D062
:1054880096EC4AF02F6EF2907D88F28681EC4AF015
:105498009E9A9D8A00D096C2D9F00201CE5102018F
:1054A800CD1110E1880E0201CB5D130E0201CC591B
:1054B800D8B008D0010E0201CB27000ECC23CD2393
:1054C800CE23BAD6880E0201CB1908E1130E0201C9
:1054D800CC190201CD110201CE11D8A4ADD6010E0E
:1054E8000201CB27000ECC23CD23CE23000E0001D2
:1054F800DD6F000EDE6F000EDF6F000EE06F000E36
:105508000001E16F96EC4AF02F6EF2907D88F286EA
:1055180093D6F9EF00F0000E0001646F640E0001ED
:10552800666F000E0001606F000E616F000E626F03
:10553800000E636F000E0001656F630E0001656564
:1055480001D024D000016551020DF3501B24D96EFF
:10555800F4501C20DA6EA00EDE5C0F0EDE58D8A0C8
:1055680012D000016551020DF3501B24D96EF4507E
:105578001C20DA6E890EDE5C130EDE58D8B003D01C
:1055880065C066F003D00001652BD7D700016651CE
:10559800206E216A201E211E204A212A640E202600
:1055A800000E212221BE06D0215006E1320E205CD9
:1055B800D8B002D0000E12000001662B000166511F
:1055C800020DF3501B24D96EF4501C20DA6E9D0E88
:1055D800DE5C030EDE58D8A053D000016651020DE0
:1055E800F3501B24D96EF4501C20DA6EE30EDE5CF7
:1055F800040EDE58D8B044D00001662B0001665175
:10560800020DF3501B24D96EF4501C20DA6E010EE3
:10561800DB5004E17D0EDE5CD8A053D0000166515A
:10562800020DF3501B24D96EF4501C20DA6E590E6B
:10563800DE5C020EDE58D8B044D00001662B0001B3
:105648006651020DF3501B24D96EF4501C20DA6EFB
:10565800C80EDE5CAF0EDE58D8A033D0000166510C
:10566800020DF3501B24D96EF4501C20DA6E510E33
:10567800DE5CC30EDE58D8B024D0020E120021D052
:1056880000016651020DF3501B24D96EF4501C2002
:10569800DA6ED60EDE5C060EDE58D8A00FD00001FA
:1056A8006651020DF3501B24D96EF4501C20DA6E9B
:1056B800BF0EDE5C0A0EDE58D8A003D0000E120022
:1056C80000D00001662B66C065F0630E00016565B9
:1056D80001D0E0D000016651020DF3501B24D96EB1
:1056E800F4501C20DA6E010EDB5004E17D0EDE5C06
:1056F800D8A02AD000016651020DF3501B24D96EA0
:10570800F4501C20DA6E590EDE5C020EDE58D8B05A
:105718001BD0000164510001D8A402D0010E49D069
:10572800000E0001646F0001D8906037613762375E
:1057380063371F50D8A4A9D0010E00016027000EBE
:10574800612362236323A1D000016651020DF35047
:105758001B24D96EF4501C20DA6EBC0EDE5C020EDF
:10576800DE58D8A02CD000016651020DF3501B243E
:10577800D96EF4501C20DA6EB70EDE5C030EDE58CC
:10578800D8B01DD0000164510001D8B415D0000173
:10579800D89060376137623763371F50D8B408D064
:1057A800010E00016027000E61236223632300D0ED
:1057B800000E0001646F69D0000E120066D000016F
:1057C8006651020DF3501B24D96EF4501C20DA6E7A
:1057D800DE50DE10D8A413D000016405D8A40FD081
:1057E8001DC0D9FF1EC0DAFF60C0DEFF61C0DEFF4A
:1057F80062C0DEFF63C0DEFF21D0120046D0000188
:105808006651020DF3501B24D96EF4501C20DA6E39
:10581800380EDE5C4A0EDE58D8A013D0000166515F
:10582800020DF3501B24D96EF4501C20DA6E090EB9
:10583800DE5C520EDE58D8B004D0D2D7010E12006A
:1058480024D000016651020DF3501B24D96EF45088
:105858001C20DA6EC80EDE5CAF0EDE58D8A012D05F
:1058680000016651020DF3501B24D96EF4501C2020
:10587800DA6E510EDE5CC30EDE58D8B003D0020ECD
:10588800120003D0000E120000D00001662B0001A8
:10589800652B1BD7000E120012000001AE6F6D0EB3
:1058A8000001AE65C4D0000E00018D6F030E8C6F31
:1058B800000E0001856F0A0E846F000E00017F6FD5
:1058C800640E7E6FAEC07CF000017D6B06EC41F08B
:1058D8007CC082F07DC083F059EC3EF0090E0001D7
:1058E800822500018A6F000E0001832100018B6F61
:1058F80000EC49F0410E00018A25F66EF10E000118
:105908008B21F76EF86A000EF8220900F5CF99F09E
:105918000900F5CF9AF00A00F5CF9BF0000E0001C0
:10592800856F640E846FAEC082F00001836B59EC02
:105938003EF0120E0001822500018A6F000E000160
:10594800832100018B6F000E00018D6F030E8C6F99
:1059580000EC49F0410E00018A25F66EF10E0001B7
:105968008B21F76EF86A000EF8220900F5CF96F041
:105978000900F5CF97F00A00F5CF98F055EC37F00D
:1059880096C0ABF097C0ACF098C0ADF0000E000127
:105998008D6F030E8C6F000E00017F6F0A0E7E6FF5
:1059A800AEC07CF000017D6B06EC41F07CC08AF053
:1059B8007DC08BF000EC49F0410E00018A25F66E9F
:1059C800F10E00018B21F76EF86A000EF82209002B
:1059D800F5CF99F00900F5CF9AF00A00F5CF9BF0C2
:1059E800ABC096F0ACC097F0ADC098F055EC37F06E
:1059F80096C0A8F097C0A9F098C0AAF0A8C096F0E1
:105A0800A9C097F0AAC098F0000E0001996F000E87
:105A180000019A6F3F0E00019B6F55EC37F096C05E
:105A2800A5F097C0A6F098C0A7F012007AD00A0E89
:105A38000001AE6576D0000E00018D6F030E8C6FED
:105A4800000E00017F6F0A0E7E6FAEC07CF0000171
:105A58007D6B06EC41F07CC08AF07DC08BF000ECD9
:105A680049F0410E00018A25F66EF10E00018B21E6
:105A7800F76EF86A000EF8220900F5CF99F00900D0
:105A8800F5CF9AF00A00F5CF9BF0000E0001856F64
:105A98000A0E846FAEC082F00001836B59EC3EF0B1
:105AA800090E0001822500018A6F000E0001832182
:105AB80000018B6F000E00018D6F030E8C6F00ECE0
:105AC80049F0410E00018A25F66EF10E00018B2186
:105AD800F76EF86A000EF8220900F5CF96F0090073
