:04000000E5EF00F038
:10000800FACF29F0FBCF2AF0E9CF2BF01FEF29F028
:10001800D8CF05F0E8CF06F0E0CF07F0FACF08F028
:10002800FBCF09F0E9CF0AF0EACF0BF0E1CF0CF0F3
:10003800E2CF0DF0D9CF0EF0DACF0FF0F3CF10F0FA
:10004800F4CF11F0F6CF12F0F7CF13F0F8CF14F089
:10005800F5CF15F0000E166EF29C9EAA7FD086ECA6
:1000680054F0166E0DEC55F00009D8A40FD0630EAD
:100078003E6072D03E50010D140EF324D96E040E6A
:10008800F420DA6E16C0DFFF3E2A66D00D0E161871
:10009800D8B44FD00A0E1618D8B44BD07F0E161805
:1000A800D8B404D0080E1618D8A41FD00301EB51F9
:1000B800D8B41BD00301EB29F7EC53F00301EB078D
:1000C8000301EB51010D780EF324D96E040EF420D0
:1000D800DA6E000EDF6E3E0E4BEC54F0780E026EB8
:1000E800040E036E0BEC54F037D0620E0301EB6183
:1000F8001BD00301EA51D8A42FD0165064EC54F059
:100108000009D8B429D0165091EC54F00301EB51F2
:10011800010D780EF324D96E040EF420DA6E16C0A1
:10012800DFFF0301EB2B18D09D9A010E0301E96F45
:1001380013D00301EB51D8B40FD00301EA51D8A46E
:100148000BD09D9A510E036EF00E046E73EC53F0B3
:10015800010E0301EA6F00D09E9A0FD09EA00BD02B
:10016800492A030E4918D8A404D08B948B92CD90B9
:1001780000D09E9002D000F000D0F28C15C0F5FFA0
:1001880014C0F8FF13C0F7FF12C0F6FF11C0F4FF48
:1001980010C0F3FF0FC0DAFF0EC0D9FF0DC0E2FF99
:1001A8000CC0E1FF0BC0EAFF0AC0E9FF09C0FBFF72
:1001B80008C0FAFF07C0E0FF06C0E8FF05C0D8FF87
:1001C8001000DFEF49F0010E02018A6F000E0201F4
:1001D800866F000E876F000E886F000E896F000E05
:1001E80002018E6F000E02018F6F000E0201906FE8
:1001F800000E916F000E926F000E936F000E0201B9
:100208007C6F000E7D6F000E7E6F000E7F6F000EFC
:1002180002018C6F000E0201856F000E0201846FCF
:10022800000E02017A6F000E0201806F000E816FCE
:10023800000E826F000E836F000E02017B6F0C0EA2
:100248000001606F020E0001616F000E0001636F14
:10025800640E626FE6EC50F0700E0001606F020EE3
:100268000001616F000E0001636F0A0E626FE6EC19
:1002780050F0F2C063F0F3C064F0BA0E0001656F8D
:10028800FF0E0001666F6DEC3BF00009D8B483D017
:10029800F2C063F0F3C064F0D80E0001656FEF0E92
:1002A8000001666F08EC4EF00009D8B412D0130EA6
:1002B8000001686FF00E0001696F010E00016A6F9E
:1002C8000C0E00016B6F080E00016C6F67EC52F0AA
:1002D80054D0F2C063F0F3C064F0E70E0001656F1C
:1002E800EF0E0001666F08EC4EF00009D8B412D08A
:1002F8001F0E0001686FF00E0001696F010E00010A
:100308006A6F0C0E00016B6F080E00016C6F67ECD2
:1003180052F033D0F2C063F0F3C064F0F60E00017F
:10032800656FEF0E0001666F08EC4EF00009D8B457
:1003380012D02B0E0001686FF00E0001696F010EDC
:1003480000016A6F0C0E00016B6F080E00016C6FE4
:1003580067EC52F012D0050E0001626FF00E00013A
:10036800636F42EC53F0510E0001626FF00E000112
:10037800636F42EC53F0120000D002018A5102016F
:10038800D8B41200240E0001646FFA0E0001656FE4
:1003980025EC52F01200F2C063F0F3C064F0C00E16
:1003A8000001656FFF0E0001666F6DEC3BF0000900
:1003B800D8B46AD1F2C063F0F3C064F0140E00013F
:1003C800656FEF0E0001666F08EC4EF00009D8B4B7
:1003D80012D0480E0001686FEF0E0001696F020E1F
:1003E80000016A6F100E00016B6F080E00016C6F40
:1003F80067EC52F03BD1F2C063F0F3C064F0EE0E4C
:100408000001656FEE0E0001666F08EC4EF0000902
:10041800D8B412D0380E0001686FEF0E0001696F72
:10042800020E00016A6F100E00016B6F080E0001CA
:100438006C6F67EC52F01AD1F2C063F0F3C064F04D
:10044800260E0001656FEF0E0001666F08EC4EF096
:100458000009D8B412D0680E0001686FEF0E0001D1
:10046800696F020E00016A6F100E00016B6F080EB3
:1004780000016C6F67EC52F0F9D0F2C063F0F3C082
:1004880064F0010E0001656FEF0E0001666F08EC65
:100498004EF00009D8B412D0580E0001686FEF0E64
:1004A8000001696F020E00016A6F100E00016B6F88
:1004B800080E00016C6F67EC52F0D8D0F2C063F000
:1004C800F3C064F0B20E0001656FEE0E0001666FB6
:1004D80008EC4EF00009D8B412D0880E0001686FFD
:1004E800EF0E0001696F020E00016A6F100E000125
:1004F8006B6F080E00016C6F67EC52F0B7D0F2C05A
:1005080063F0F3C064F0730E0001656FEE0E000136
:10051800666F08EC4EF00009D8B412D0780E0001CE
:10052800686FEF0E0001696F020E00016A6F100E0E
:1005380000016B6F080E00016C6F67EC52F096D0EB
:10054800F2C063F0F3C064F0C60E0001656FEE0EF2
:100558000001666F08EC4EF00009D8B412D0A80E5E
:100568000001686FEF0E0001696F020E00016A6FEB
:10057800100E00016B6F080E00016C6F67EC52F0F3
:1005880075D0F2C063F0F3C064F0880E0001656FA7
:10059800EE0E0001666F08EC4EF00009D8B412D0D8
:1005A800980E0001686FEF0E0001696F020E0001DE
:1005B8006A6F100E00016B6F080E00016C6F67EC1C
:1005C80052F054D0F2C063F0F3C064F0DA0E0001C8
:1005D800656FEE0E0001666F08EC4EF00009D8B4A6
:1005E80012D0C80E0001686FEF0E0001696F020E8D
:1005F80000016A6F100E00016B6F080E00016C6F2E
:1006080067EC52F033D0F2C063F0F3C064F09D0E93
:100618000001656FEE0E0001666F08EC4EF00009F0
:10062800D8B412D0980E0001686FEF0E0001696F00
:10063800030E00016A6F100E00016B6F080E0001B7
:100648006C6F67EC52F012D0050E0001626FF00E6D
:100658000001636F42EC53F0510E0001626FF00E1F
:100668000001636F42EC53F0120000D002018A517E
:100678000201D8B41200410E0001646FFA0E0001A5
:10068800656F25EC52F01200F2C063F0F3C064F01D
:10069800E80E0001656FFF0E0001666F6DEC3BF020
:1006A8000009D8B4EFD1F2C06CF0F3C06DF0020EBF
:1006B80000016E6F900E00016F6F020E0001706FE7
:1006C800ACEC30F00009D8A4C9D002019351020162
:1006D800921104E102019105D8A011D00F0E00017A
:1006E800646FF90E0001656F25EC52F0510E0001A0
:1006F800626FF00E0001636F42EC53F0120090C27B
:100708008FF2F2C06CF0F3C06DF0010E00016E6F55
:10071800900E00016F6F020E0001706FACEC30F0AC
:100728000009D8A492D0020193510201921104E168
:1007380002019105D8A011D02E0E0001646FF90EA8
:100748000001656F25EC52F0510E0001626FF00E4A
:100758000001636F42EC53F0120090C28EF20C0E4F
:100768000001AE6F020E0001AF6F7A0E0001B06F8C
:10077800FC0E0001B16F8EC2B2F00001B36B27EC22
:1007880014F00C0E0001646F020E0001656FA3ECFB
:1007980052F00C0E0001AE6F020E0001AF6F650E35
:1007A8000001B06FFC0E0001B16F8FC2B2F0000102
:1007B800B36B27EC14F00C0E0001646F020E0001FD
:1007C800656FA3EC52F08FC264F002018E5113ECF6
:1007D80042F064C086F265C087F266C088F267C0DE
:1007E80089F286C275F087C276F088C277F089C22E
:1007F80078F0000E0001796FB9EC4DF00C0E000195
:10080800AE6F020E0001AF6FB10E0001B06FFB0EAC
:100818000001B16F86C2B2F087C2B3F088C2B4F0EB
:1008280089C2B5F027EC14F00C0E0001646F020EBB
:100838000001656FA3EC52F0510E0001626FF00EDB
:100848000001636F42EC53F01200EF0E0001646F79
:10085800F80E0001656F25EC52F01200F2C06CF042
:10086800F3C06DF0010E00016E6F860E00016F6F10
:10087800020E0001706FACEC30F00009D8A48AD0E9
:1008880086C275F087C276F088C277F089C278F0A0
:10089800000E0001796FB9EC4DF00C0E0001AE6F3F
:1008A800020E0001AF6F0A0E0001B06FFD0E0001CD
:1008B800B16F86C2B2F087C2B3F088C2B4F089C201
:1008C800B5F027EC14F00C0E0001646F020E000165
:1008D800656FA3EC52F086C264F087C265F088C2E7
:1008E80066F089C267F08E0E0001686F020E000183
:1008F800696F8F0E00016A6F020E00016B6F1EECAC
:100908004CF00009D8B435D00C0E0001AE6F020EC1
:100918000001AF6F7E0E0001B06FFC0E0001B16FD9
:100928008EC2B2F00001B36B27EC14F00C0E00017C
:10093800646F020E0001656FA3EC52F00C0E00010B
:10094800AE6F020E0001AF6F8D0E0001B06FF50E95
:100958000001B16F8FC2B2F00001B36B27EC14F045
:100968000C0E0001646F020E0001656FA3EC52F0DB
:1009780008D00D0E0001646FF80E0001656F25ECBC
:1009880052F0510E0001626FF00E0001636F42ECED
:1009980053F01200F2C060F0F3C061F0E60E0001FF
:1009A800626FFF0E0001636FBAEC42F00009D8A431
:1009B80010D0510E0001626FF00E0001636F42EC1F
:1009C80053F0E80E0001646FF90E0001656F25EC25
:1009D80052F0510E0001626FF00E0001636F42EC9D
:1009E80053F0A60E0001646FFF0E0001656F25EC41
:1009F80052F0E20E0001646FFC0E0001656F25ECF9
:100A080052F04D0E0001646FFF0E0001656F25EC7A
:100A180052F0230E0001646FFC0E0001656F25EC97
:100A280052F0510E0001626FF00E0001636F42EC4C
:100A380053F07E0E0001646FFF0E0001656F25EC18
:100A480052F0B80E0001646FFD0E0001656F25ECD1
:100A580052F04F0E0001646FFF0E0001656F25EC28
:100A680052F0100E0001646FFE0E0001656F25EC58
:100A780052F0510E0001626FF00E0001636F42ECFC
:100A880053F01200F2C063F0F3C064F0F30E0001FB
:100A9800656FFE0E0001666F6DEC3BF00009D8B47F
:100AA800C8D2F2C06FF0F3C070F086EC39F00009DC
:100AB800D8B466D20001F42BF2C06CF0F3C06DF02C
:100AC800010E00016E6F900E00016F6F020E0001A3
:100AD800706FACEC30F00009D8A452D202019351E7
:100AE800020192110201911104E10D0E0201905DC3
:100AF800D8B02CD202019051020191110201921139
:100B080002019311D8B422D2F2C063F0F3C064F0AA
:100B1800420E0001656FFD0E0001666F6DEC3BF043
:100B28000009D8A423D1FE0E0201006FFF0E0201B6
:100B3800016F90C202F291C203F2D890020102370B
:100B4800033702010051020102270201015102018B
:100B58000323D50E0201046F020E0201056F050E74
:100B680002010427000E0523020102510201042795
:100B78000201035102010523010E02010425D96E69
:100B8800000E02010521DA6EDF500001646FFE0ECF
:100B98000201066FFF0E0201076F90C208F291C2B0
:100BA80009F2D890020108370937020106510201FB
:100BB80008270201075102010923DA0E020108255C
:100BC800D96E020E02010921DA6EDF5013EC42F0F1
:100BD80064C07CF265C07DF266C07EF267C07FF2B9
:100BE80002017C2908E102017E2902017D1102012E
:100BF8007F11D8B4A9D07CC275F07DC276F07EC2D0
:100C080077F07FC278F0000E0001796FB9EC4DF0F3
:100C18000C0E0001AE6F020E0001AF6F8F0E0001C7
:100C2800B06FFC0E0001B16F7CC2B2F07DC2B3F0B0
:100C38007EC2B4F07FC2B5F027EC14F00C0E0001B0
:100C4800646F020E0001656FA3EC52F00C0E0001F8
:100C5800AE6F020E0001AF6F720E0001B06FF50E9D
:100C68000001B16FFE0E0201006FFF0E0201016F5D
:100C780090C202F291C203F2D89002010237033700
:100C8800020100510201022702010151020103235E
:100C9800DA0E02010225D96E020E02010321DA6E74
:100CA800DF500201046F020104510001B26FB36BFF
:100CB800FE0E0201056FFF0E0201066F90C207F2D9
:100CC80091C208F2D890020107370837020105518E
:100CD800020107270201065102010823D50E02016D
:100CE800096F020E02010A6F050E02010927000EA4
:100CF8000A230201075102010927020108510201D2
:100D08000A23010E02010925D96E000E02010A21EB
:100D1800DA6EDF5002010B6F02010B510001B46F54
:100D2800B56B27EC14F00C0E0001646F020E000185
:100D3800656FA3EC52F0510E0001626FF00E0001D6
:100D4800636F42EC53F01200510E0001626FF00E17
:100D58000001636F42EC53F0A50E0001646FF30EBF
:100D68000001656F25EC52F012000AD152EC4EF0EA
:100D78000009D8B4120001D01200ECC364F0EDC32E
:100D880065F0EEC366F0EFC367F08E0E0001686F82
:100D9800020E0001696F8F0E00016A6F020E0001DA
:100DA8006B6F1EEC4CF0FE0E0201006FFF0E02018D
:100DB800016F90C202F291C203F2D8900201023789
:100DC8000337020100510201022702010151020109
:100DD8000323DA0E02010225D96E020E0201032155
:100DE800DA6E8EC2DFFFFE0E0201006FFF0E0201F7
:100DF800016F90C202F291C203F2D8900201023749
:100E080003370201005102010227020101510201C8
:100E18000323D50E0201046F020E0201056F050EB1
:100E280002010427000E05230201025102010427D2
:100E38000201035102010523010E02010425D96EA6
:100E4800000E02010521DA6E8FC2DFFF69EC4DF05A
:100E5800510E0001626FF00E0001636F42EC53F017
:100E68000C0E0001AE6F020E0001AF6FD40E000130
:100E7800B06FF30E0001B16F90C2B2F091C2B3F03F
:100E880092C2B4F093C2B5F0ECC3B6F0EDC3B7F0BC
:100E9800EEC3B8F0EFC3B9F027EC14F00C0E000164
:100EA800646F020E0001656FA3EC52F00C0E000196
:100EB800AE6F020E0001AF6F720E0001B06FF50E3B
:100EC8000001B16F8EC2B2F00001B36B8FC2B4F0F3
:100ED8000001B56B27EC14F00C0E0001646F020ED4
:100EE8000001656FA3EC52F0510E0001626FF00E25
:100EF8000001636F42EC53F0000E0201946F090E7B
:100F08000201946502D0120012008B84500E000179
:100F1800606FC30E616F000E626F000E636F3FEC6F
:100F280051F08B94500E0001606FC30E616F000E7C
:100F3800626F000E636F3FEC51F00201942B090EB3
:100F480002019465E2D7120012001AD0510E000176
:100F5800626FF00E0001636F42EC53F0390E00012E
:100F6800646FF70E0001656F25EC52F0510E000119
:100F7800626FF00E0001636F42EC53F0120000D074
:100F8800510E0001626FF00E0001636F42EC53F0E6
:100F9800820E0001646FF70E0001656F25EC52F0B8
:100FA800510E0001626FF00E0001636F42EC53F0C6
:100FB800A60E0001646FFF0E0001656F25EC52F06C
:100FC800210E0001646FFE0E0001656F25EC52F0E2
:100FD800320E0001646FFD0E0001656F25EC52F0C2
:100FE800510E0001626FF00E0001636F42EC53F086
:100FF8007E0E0001646FFF0E0001656F25EC52F054
:101008006F0E0001646FFE0E0001656F25EC52F053
:10101800CA0E0001646FFD0E0001656F25EC52F0E9
:10102800510E0001626FF00E0001636F42EC53F045
:101038001200F2C063F0F3C064F0AD0E0001656FFA
:10104800FF0E0001666F6DEC3BF00009D8A410D0CC
:10105800F2C063F0F3C064F0870E0001656FFF0E05
:101068000001666F6DEC3BF00009D8B47FEF0CF01F
:10107800F2C063F0F3C064F0AD0E0001656FFF0EBF
:101088000001666F6DEC3BF00009D8B402D0010E88
:1010980001D0000E02017A6F00D0F2C06FF0F3C0E9
:1010A80070F086EC39F00009D8A411D0EF0E0001D9
:1010B800646FF60E0001656F25EC52F0510E0001C9
:1010C800626FF00E0001636F42EC53F012000001F2
:1010D800F42B510E0001626FF00E0001636F42ECB9
:1010E80053F0F2C06CF0F3C06DF0010E00016E6FAA
:1010F800900E00016F6F020E0001706FACEC30F0C3
:101108000009D8A403D090C28DF211D0EF0E0001CF
:10111800646FF60E0001656F25EC52F0510E000168
:10112800626FF00E0001636F42EC53F0120002018F
:101138008D510201D8B405D0020E02018D6512D07E
:1011480000D0140E0001646FF70E0001656F25ECE6
:1011580052F0510E0001626FF00E0001636F42EC15
:1011680053F01200F2C060F0F3C061F0010E00010C
:10117800626F700E0001636F020E0001646F0CEC69
:1011880045F00009D8B411D0AA0E0001646FF90E19
:101198000001656F25EC52F0510E0001626FF00EF0
:1011A8000001636F42EC53F01200700E0001606F93
:1011B800020E0001616F03EC52F002017151D8B4C4
:1011C80005D0200E02017119D8A484D3000E0201A3
:1011D800716F02018D05D8A415D0450E0001636F0B
:1011E800F00E0001646F700E0001656F020E0001C1
:1011F800666F6DEC3BF00009D8A419D0000E02010F
:101208008A6F15D0020E02018D19D8A410D0490E8C
:101218000001636FF00E0001646F700E0001656FCE
:10122800020E0001666F6DEC3BF0E5D700D00201BD
:101238008A510201D8A411D0C90E0001646FF90EB9
:101248000001656F25EC52F0510E0001626FF00E3F
:101258000001636F42EC53F0120002018D05D8A41F
:1012680017D0640E02017019D8A402D0000E22D043
:10127800650E02017019D8A402D0010E1BD0660EAB
:1012880002017019D8A41200020E14D01200ADD0B9
:10129800020E02018D19D8A4A8D0620E020170199D
:1012A800D8A402D0030E06D0640E02017019D8A487
:1012B80004D0040E02018B6F98D0680E02017019D9
:1012C800D8A41200780E0001606F040E0001616F4F
:1012D800EBC362F00001636BE6EC50F0000E030113
:1012E800EB6F000E0301EA6F7D0E0001626FFE0EC8
:1012F8000001636F42EC53F0510E0001626FF00E73
:101308000001636F42EC53F03E0E3DEC54F0000ECA
:1013180002018C6FC2EC54F09E9A9D8A23D0E00E95
:101328000001606F930E616F040E626F000E636FB1
:101338003FEC51F002018C2B190E02018C6512D082
:10134800510E0001626FF00E0001636F42EC53F022
:10135800E90E0001646FF10E0001656F25EC52F093
:10136800120000D00301EA51D8B4D9D79D9A010ED2
:1013780002018A6F300E0401786505D0330E04012E
:1013880078650DD000D01B0E0001646FF20E0001CD
:10139800656F25EC52F0000E02018A6F00D004013F
:1013A8007851D00F0201856F02018551040F0201A7
:1013B8008B6F780E0001606F040E0001616FEBC344
:1013C80062F00001636BE6EC50F0000E0301EB6F76
:1013D800000E0301EA6F02018A510201D8B412001B
:1013E80004D0120002D0120000D002017A5102018A
:1013F800D8B4B5D152EC4EF00009D8B4120001D0DF
:101408001200510E0001626FF00E0001636F42EC92
:1014180053F0ECC364F0EDC365F0EEC366F0EFC3C0
:1014280067F08E0E0001686F020E0001696F8F0E63
:1014380000016A6F020E00016B6F1EEC4CF0000E8B
:1014480002018A6F000E0201946F020E0201946578
:1014580001D049D002018B51060D950E0201006F93
:10146800020E0201016FF35002010027F45002013D
:10147800012302019451020DF35002010025D96E97
:10148800F45002010121DA6EDF50D8A429D00201FC
:101498008B51060D950E0201006F020E0201016FBD
:1014A800F35002010027F450020101230201945174
:1014B800020DF35002010027F45002010123010E2E
:1014C80002010025D96E000E02010121DA6EDF50FB
:1014D800D8A406D094C284F2010E02018A6F03D008
:1014E8000201942BB2D702018A510201D8A409D073
:1014F8004E0E0001646FF60E0001656F25EC52F088
:101508001200010E02018A6F020184510201D8B44F
:1015180058D0000E0201946F4CD002018B51060D79
:10152800950E0201006F020E0201016FF3500201D5
:101538000027F4500201012302019451020DF350D7
:1015480002010025D96EF45002010121DA6E020170
:101558008E51DE18D8A42AD002018B51060D950EA3
:101568000201006F020E0201016FF3500201002711
:10157800F4500201012302019451020DF3500201BB
:101588000027F45002010123010E02010025D96E43
:10159800000E02010121DA6E02018F51DE18D8A473
:1015A80005D0000E02018A6F0CD000D00201942BE6
:1015B80000D0020184510201945DD8B002D0ADD7A9
:1015C80000D002018A510201D8A409D0160E0001E8
:1015D800646FF50E0001656F25EC52F012000201F0
:1015E8008B51060D950E0201006F020E0201016F6C
:1015F800F35002010027F450020101230201845133
:10160800020DF35002010025D96EF45002010121A8
:10161800DA6E8EC2DFFF02018B51060D950E0201B4
:10162800006F020E0201016FF35002010027F4500F
:101638000201012302018451020DF3500201002727
:10164800F45002010123010E02010025D96E000E9B
:1016580002010121DA6E8FC2DFFF69EC4DF0020151
:1016680085510201D8B423D00C0E0001AE6F020ED2
:101678000001AF6F940E0001B06FF00E0001B16F62
:10168800ECC3B2F0EDC3B3F0EEC3B4F0EFC3B5F002
:101698008DC2B6F00001B76B70C2B8F00001B96B2B
:1016A80085C2BAF00001BB6B27EC14F01FD00C0EFA
:1016B8000001AE6F020E0001AF6F480E0001B06F5F
:1016C800F10E0001B16FECC3B2F0EDC3B3F0EEC39D
:1016D800B4F0EFC3B5F08DC2B6F00001B76B70C2BD
:1016E800B8F00001B96B27EC14F000D00C0E000123
:1016F800646F020E0001656FA3EC52F0510E0001F9
:10170800626FF00E0001636F42EC53F0000E0201AD
:10171800946F090E0201946502D0120012008B84A6
:10172800500E0001606FC30E616F000E626F000EF5
:10173800636F3FEC51F08B94500E0001606FC30E45
:10174800616F000E626F000E636F3FEC51F0020193
:10175800942B090E02019465E2D712001200000EC4
:101768000201946F020E0201946501D041D002017A
:101778008B51060D950E0201006F020E0201016FDA
:10178800F35002010027F450020101230201945191
:10179800020DF35002010025D96EF4500201012117
:1017A800DA6E000EDF6E02018B51060D950E0201F6
:1017B800006F020E0201016FF35002010027F4507E
:1017C8000201012302019451020DF3500201002786
:1017D800F45002010123010E02010025D96E000E0A
:1017E80002010121DA6E000EDF6E0201942BBAD7D6
:1017F80069EC4DF0020185510201D8B41BD00C0EE2
:101808000001AE6F020E0001AF6F7E0E0001B06FD7
:10181800F10E0001B16F8DC2B2F00001B36B70C25E
:10182800B4F00001B56B85C2B6F00001B76B27ECC8
:1018380014F017D00C0E0001AE6F020E0001AF6F4E
:10184800F60E0001B06FF50E0001B16F8DC2B2F057
:101858000001B36B70C2B4F00001B56B27EC14F053
:1018680000D00C0E0001646F020E0001656FA3EC3E
:1018780052F0510E0001626FF00E0001636F42ECEE
:1018880053F0000E0201946F090E0201946502D014
:10189800120012008B84500E0001606FC30E616F3E
:1018A800000E626F000E636F3FEC51F08B94500E88
:1018B8000001606FC30E616F000E626F000E636FF0
:1018C8003FEC51F00201942B090E02019465E2D716
:1018D80012001200220E0001646FF60E0001656FFF
:1018E80025EC52F0510E0001626FF00E0001636F9B
:1018F80042EC53F01200F2C063F0F3C064F0C60E7D
:101908000001656FFF0E0001666F08EC4EF00009DC
:10191800D8B497D0780E0001606F040E0001616F93
:10192800EBC362F00001636BE6EC50F0000E0301BC
:10193800EB6F000E0301EA6FCF0E0001626FF80E25
:101948000001636F42EC53F0510E0001626FF00E1C
:101958000001636F42EC53F03E0E1EEC54F0000E93
:1019680002018C6FC2EC54F09E9A9D8A23D0E00E3F
:101978000001606F930E616F040E626F000E636F5B
:101988003FEC51F002018C2B190E02018C6512D02C
:10199800510E0001626FF00E0001636F42EC53F0CC
:1019A800070E0001646FFA0E0001656F25EC52F016
:1019B800120000D00301EA51D8B4D9D79D9A590E24
:1019C80004017819D8B409D0790E04017819D8A47B
:1019D80014D004017951D8A410D0DC0E0001646F32
:1019E800FD0E0001656F25EC52F0000E0201F26F4A
:1019F80069EC4DF0FF00120011D0510E0001626F2A
:101A0800F00E0001636F42EC53F0070E0001646FA3
:101A1800FA0E0001656F25EC52F000D0780E000137
:101A2800606F040E0001616FEBC362F00001636B2D
:101A3800E6EC50F0000E0301EB6F000E0301EA6FB5
:101A48001200F2C063F0F3C064F0580E0001656F35
:101A5800FF0E0001666F08EC4EF00009D8B497D16C
:101A6800780E0001606F040E0001616FEBC362F035
:101A78000001636BE6EC50F0000E0301EB6F000E03
:101A88000301EA6FD30E0001626FF00E0001636F6D
:101A980042EC53F0510E0001626FF00E0001636FCB
:101AA80042EC53F03E0E3DEC54F0000E02018C6FF8
:101AB800C2EC54F09E9A9D8A23D0E00E0001606F1C
:101AC800930E616F040E626F000E636F3FEC51F06E
:101AD80002018C2B190E02018C6512D0510E0001E7
:101AE800626FF00E0001636F42EC53F0440E000188
:101AF800646FF50E0001656F25EC52F0120000D0FE
:101B08000301EA51D8B4D9D79D9A780E0001606FC5
:101B1800040E0001616FD60E0001626FFF0E000116
:101B2800636FDFEC4FF00009D8B420D1780E0001C4
:101B3800606F040E0001616FEBC362F00001636B1C
:101B4800E6EC50F0000E0301EB6F000E0301EA6FA4
:101B5800690E0001626FFB0E0001636F42EC53F0E7
:101B6800510E0001626FF00E0001636F42EC53F0FA
:101B78003E0E1EEC54F0000E02018C6FC2EC54F0C5
:101B88009E9A9D8A2FD0E00E0001606F930E616FC0
:101B9800040E626F000E636F3FEC51F002018C2B54
:101BA80002017B510301EB19D8B404D0000E0201E5
:101BB8008C6F00D0190E02018C6511D0510E0001F6
:101BC800626FF00E0001636F42EC53F0440E0001A7
:101BD800646FF50E0001656F25EC52F01200EBC33F
:101BE8007BF200D00301EA51D8B4CDD7780E0001BA
:101BF8006F6F040E0001706F86EC39F00009D8B4DD
:101C0800A4D00301EB2B780E00016C6F040E0001C9
:101C18006D6F010E00016E6F800E00016F6F020E76
:101C28000001706F69EC2EF00009D8A48ED0020173
:101C380083BF8BD0020183510201821102018111FD
:101C480004E102018005D8A080D080C2D1F281C20F
:101C5800D2F282C2D3F283C2D4F222EE95F000EE21
:101C680096F03F0EDBCFEBFFE806FCE2020E000128
:101C7800D66F000ED76F000ED86F000ED96FB5EC77
:101C880046F00001965100019711000198110001DA
:101C98009911D8A448D086EC3AF0CA0E0001646FB6
:101CA800F50E0001656F25EC52F00C0E0001AE6FC9
:101CB800020E0001AF6FCF0E0001B06FFA0E0001E7
:101CC800B16FD1C2B2F0D2C2B3F0D3C2B4F0D4C2B1
:101CD800B5F027EC14F00C0E0001646F020E000141
:101CE800656FA3EC52F0510E0001626FF00E000117
:101CF800636F42EC53F0DC0E0001646FFD0E0001CF
:101D0800656F25EC52F0000E0201F26F69EC4DF0A0
:101D1800510E0001626FF00E0001636F42EC53F048
:101D2800FF00120012D09E0E0001646FF50E000134
:101D3800656F25EC52F0510E0001626FF00E000144
:101D4800636F42EC53F0120000D0EB0E0001646F99
:101D5800F70E0001656F25EC52F0510E0001626F1D
:101D6800F00E0001636F42EC53F01200510E0001B7
:101D7800646FFB0E0001656F25EC52F0510E0001F7
:101D8800626FF00E0001636F42EC53F01200F2C074
:101D980063F0F3C064F0390E0001656FFC0E0001BA
:101DA800666F08EC4EF00009D8B45FD1780E0001D8
:101DB800606F040E0001616FEBC362F00001636B9A
:101DC800E6EC50F0000E0301EB6F000E0301EA6F22
:101DD800510E0001626FF00E0001636F42EC53F088
:101DE800C90E0001626FF60E0001636F42EC53F0FA
:101DF800510E0001626FF00E0001636F42EC53F068
:101E08003E0E3DEC54F0000E02018C6FC2EC54F013
:101E18009E9A9D8A23D0E00E0001606F930E616F39
:101E2800040E626F000E636F3FEC51F002018C2BC1
:101E3800190E02018C6512D0510E0001626FF00E6E
:101E48000001636F42EC53F00F0E0001646FF10E56
:101E58000001656F25EC52F0120000D00301EA5131
:101E6800D8B4D9D79D9A590E04017819D8B409D095
:101E7800790E04017819D8A4E7D004017951D8A4BF
:101E8800E3D0780E0001606F040E0001616FEBC3B0
:101E980062F00001636BE6EC50F0000E0301EB6F9B
:101EA800000E0301EA6F510E0001626FF00E00018F
:101EB800636F42EC53F0A50E0001626FF70E00014C
:101EC800636F42EC53F0510E0001626FF00E000197
:101ED800636F42EC53F03E0E1EEC54F0000E02010C
:101EE8008C6FC2EC54F09E9A9D8A27D0E00E0001B8
:101EF800606F930E616F040E626F000E636F3FECAC
:101F080051F002018C2B02017B510301EB19D8B46B
:101F180004D0000E02018C6F00D0190E02018C65EE
:101F280009D00F0E0001646FF10E0001656F25ECFA
:101F380052F01200EBC37BF200D00301EA51D8B48F
:101F4800D5D79D9A510E0001626FF00E0001636FA4
:101F580042EC53F0510E0001626FF00E0001636F06
:101F680042EC53F004017851D8B45DD004018C518F
:101F7800D8A459D0780E0001626F040E0001636F77
:101F8800DBEC52F00009D8B43DD0B40E0001646F08
:101F9800F10E0001656F25EC52F0510E0001626FE1
:101FA800F00E0001636F42EC53F0780E0001686F89
:101FB800040E0001696FDC0E00016A6F040E000157
:101FC8006B6F150E00016C6F000E00016D6FDFEC7A
:101FD8004EF0500E0001606FC30E616F000E626F0D
:101FE800000E636F3FEC51F0000E23EC22F0000965
:101FF800D8B404D0010E0301E86F1200000E0301EB
:10200800E86F1200780E0001646FF60E0001656F2C
:1020180025EC52F0510E0001626FF00E0001636F63
:1020280042EC53F01200540E0001646FF00E0001F0
:10203800656F25EC52F0510E0001626FF00E000141
:10204800636F42EC53F012000F0E0001646FF10E43
:102058000001656F25EC52F0510E0001626FF00E21
:102068000001636F42EC53F01200F2C063F0F3C05A
:1020780064F0900E0001656FFF0E0001666F08ECBA
:102088004EF00009D8B42FD0510E0001626FF00E47
:102098000001636F42EC53F00C0E0001AE6F020EAC
:1020A8000001AF6F1E0E0001B06FFD0E0001B16F91
:1020B8000DEC4BF089C0B2F08AC0B3F08BC0B4F01D
:1020C80027EC14F00C0E0001646F020E0001656F1E
:1020D800A3EC52F0510E0001626FF00E0001636F25
:1020E80042EC53F01200F2C063F0F3C064F0E30E68
:1020F8000001656FF70E0001666F08EC4EF00009ED
:10210800D8B4CBD0510E0001626FF00E0001636F9E
:1021180042EC53F00C0E0001AE6F020E0001AF6FDF
:10212800B90E0001B06FFC0E0001B16F370E00014F
:10213800B26FF00E0001B36F27EC14F00C0E000123
:10214800646F020E0001656FA3EC52F0510E00019E
:10215800626FF00E0001636F42EC53F05E0E0001F7
:10216800646FFA0E0001656F25EC52F0510E000104
:10217800626FF00E0001636F42EC53F0C80E00016D
:10218800646FFB0E0001656F25EC52F0000E000134
:10219800646F050E0001656FA3EC52F01E0E00017E
:1021A800646F050E0001656FA3EC52F0510E00013B
:1021B800626FF00E0001636F42EC53F00C0E0001E9
:1021C800AE6F020E0001AF6F310E0001B06FFE0E50
:1021D8000001B16F400E0001B26FF00E0001B36F45
:1021E80027EC14F00C0E0001646F020E0001656FFD
:1021F800A3EC52F00C0E0001AE6F020E0001AF6F9F
:10220800EA0E0001B06FFA0E0001B16F4D0E000129
:10221800B26FF00E0001B36F27EC14F00C0E000142
:10222800616F020E0001626FE3EC53F0DB0E0001F8
:10223800646FFF0E0001656F25EC52F0510E00012E
:10224800626FF00E0001636F42EC53F00C0E000158
:10225800AE6F020E0001AF6FA50E0001B06FFD0E4C
:102268000001B16FD1C2B2F0D2C2B3F0D3C2B4F0A0
:10227800D4C2B5F027EC14F00C0E0001616F020E09
:102288000001626FE3EC53F0510E0001626FF00E33
:102298000001636F42EC53F01200F2C060F0F3C02B
:1022A80061F0E40E0001626FFF0E0001636FDFEC66
:1022B8004FF00009D8B4ADD2510E0001626FF00E94
:1022C8000001636F42EC53F0000E0201946F210E7F
:1022D8000201946501D006D07E0E1EEC54F0020176
:1022E800942BF5D7130E0001626FFB0E0001636F8C
:1022F80042EC53F0000E0201946F210E0201946526
:1023080001D006D07E0E1EEC54F00201942BF5D7B6
:10231800510E0001626FF00E0001636F42EC53F042
:10232800510E0001626FF00E0001636F42EC53F032
:10233800FF0E0001646FFD0E0001656F25EC52F081
:10234800E40E0001646FFF0E0001656F620E00016C
:10235800666FFF0E0001676F7DEC44F0C60E00014A
:10236800646FFF0E0001656FAF0E0001666FF80E17
:102378000001676F7DEC44F0E30E0001646FF70E17
:102388000001656FC80E0001666FF70E0001676FE8
:102398007DEC44F0580E0001646FFF0E0001656F7C
:1023A8004F0E0001666FFC0E0001676F7DEC44F074
:1023B800390E0001646FFC0E0001656F2E0E0001DE
:1023C800666FF80E0001676F7DEC44F0510E000156
:1023D800626FF00E0001636F42EC53F0A40E00012F
:1023E800646FFC0E0001656F25EC52F0900E000141
:1023F800646FFF0E0001656F970E0001666FFA0E9D
:102408000001676F7DEC44F0510E0001626FF00E21
:102418000001636F42EC53F0980E0001646FFE0EEA
:102428000001656F25EC52F0010E0201946F0C0E4D
:102438000201946501D030D00C0E0001606F020ECD
:102448000001616F000E0001636F320E626FE6ECEF
:1024580050F00C0E0001AE6F020E0001AF6F510E6E
:102468000001B06FFE0E0001B16F94C2B2F000011E
:10247800B36B27EC14F00C0E0001646F020E000120
:10248800656F200E0001666FFB0E0001676F7DEC23
:1024980044F00201942BCBD7010E0201946F0C0E6D
:1024A8000201946501D030D00C0E0001606F020E5D
:1024B8000001616F000E0001636F320E626FE6EC7F
:1024C80050F00C0E0001AE6F020E0001AF6F920EBD
:1024D8000001B06FFD0E0001B16F94C2B2F00001AF
:1024E800B36B27EC14F00C0E0001646F020E0001B0
:1024F800656F810E0001666FFB0E0001676F7DEC52
:1025080044F00201942BCBD7160E0001646FFF0E26
:102518000001656FB00E0001666FF20E0001676F73
:102528007DEC44F02C0E0001646FFF0E0001656F16
:10253800120E0001666FF30E0001676F7DEC44F028
:10254800370E0001646FFF0E0001656F430E000136
:10255800666FF30E0001676F7DEC44F00B0E00010F
:10256800646FFF0E0001656F7F0E0001666FF20E4B
:102578000001676F7DEC44F0210E0001646FFF0ECF
:102588000001656FE10E0001666FF20E0001676FD2
:102598007DEC44F0420E0001646FFF0E0001656F90
:1025A800740E0001666FF30E0001676F7DEC44F056
:1025B800B20E0001646FFE0E0001656F300E00015F
:1025C800666FF40E0001676F7DEC44F0CC0E0001DD
:1025D800646FFE0E0001656F8C0E0001666FF40ECD
:1025E8000001676F7DEC44F0D90E0001646FFE0EA8
:1025F8000001656FBA0E0001666FF40E0001676F87
:102608007DEC44F0A50E0001646FFE0E0001656FBD
:10261800020E0001666FF40E0001676F7DEC44F056
:10262800BF0E0001646FFE0E0001656F5E0E0001B3
:10263800666FF40E0001676F7DEC44F0E60E000152
:10264800646FFE0E0001656FE80E0001666FF40E00
:102658000001676F7DEC44F0D10E0001646FFF0E3E
:102668000001656FA10E0001666FF60E0001676F2D
:102678007DEC44F0510E0001626FF00E0001636FB3
:1026880042EC53F08B0E0001646FFE0E0001656F83
:1026980025EC52F0D80E0001646FEF0E0001656F53
:1026A800460E0001666FFD0E0001676F7DEC44F079
:1026B800E70E0001646FEF0E0001656F590E00010F
:1026C800666FFD0E0001676F7DEC44F0F60E0001A9
:1026D800646FEF0E0001656F6C0E0001666FFD0EF2
:1026E8000001676F7DEC44F0140E0001646FEF0E7B
:1026F8000001656F0D0E0001666FFC0E0001676F2B
:102708007DEC44F0EE0E0001646FEE0E0001656F83
:10271800DF0E0001666FFB0E0001676F7DEC44F071
:10272800260E0001646FEF0E0001656F7F0E000139
:10273800666FFD0E0001676F7DEC44F0010E00012D
:10274800646FEF0E0001656FF60E0001666FFC0EF8
:102758000001676F7DEC44F0B20E0001646FEE0E6D
:102768000001656F4D0E0001666FF90E0001676F7D
:102778007DEC44F0730E0001646FEE0E0001656F8E
:102788004F0E0001666FF80E0001676F7DEC44F094
:10279800C60E0001646FEE0E0001656F6C0E00013D
:1027A800666FF90E0001676F7DEC44F0880E00013A
:1027B800646FEE0E0001656F6F0E0001666FF80E14
:1027C8000001676F7DEC44F0DA0E0001646FEE0ED5
:1027D8000001656F8B0E0001666FF90E0001676FCF
:1027E8007DEC44F09D0E0001646FEE0E0001656FF4
:1027F8008F0E0001666FF80E0001676F7DEC44F0E4
:10280800510E0001626FF00E0001636F42EC53F04D
:102818001200050E0001646FF00E0001656F25ECD3
:1028280052F0050E0001646FFB0E0001656F25EC88
:1028380052F0510E0001626FF00E0001636F42EC1E
:1028480053F012001200B20E0001CA6F000E000110
:10285800CB6FCAEF1BF0250E0001DF19D8B40BD0DF
:10286800AEC0D9FFAFC0DAFFDFC0DFFF0001AE4B5B
:10287800AF2BCAEF1BF0000E0001DC6F000EDB6F00
:10288800000E0001DE6F000EDD6F07D00001DD8550
:102898000001B04BB12B01D00CD0B0C0F6FFB1C0D5
:1028A800F7FFF86A0800F550300AD8B4EFD701D01E
:1028B800F4D7B0C0F6FFB1C0F7FFF86A0800F550CA
:1028C8008BEC53F0D8A010D1000E0001DC6F000E85
:1028D800DB6F00D0DBC06EF0DCC06FF0000E0001D3
:1028E800716F0A0E706FBFEC52F06EC0DBF06FC0F4
:1028F800DCF0D00E0001BC6FFF0E0001BD6FB0C050
:10290800F6FFB1C0F7FFF86A0800F5500001BE6F86
:10291800BF6B0001BC510001BE270001BD51000181
:10292800BF230001BE510001DB270001BF51000198
:10293800DC230001B04BB12BB0C0F6FFB1C0F7FFEC
:10294800F86A0800F5508BEC53F0D8A0CDD0C2D768
:10295800CBD0DCEF1BF00001DD89C6D00001DE859D
:10296800F0D000D00001DD8FECD0CAC0D9FFCBC0B9
:10297800DAFFDECFC6F0DDCFC7F0020E0001CA27AE
:10298800000ECB230001C6510001C711D8A407D0FF
:10299800980E0001C66FFF0E0001C76F00D0000E31
:1029A8000001C96F000EC86F04D00001C84BC92BC5
:1029B80000D00001C8510001C6250001BC6F00010C
:1029C800C9510001C7210001BD6FBCC0F6FFBDC0E1
:1029D800F7FF000EF86E0F0EF76403D00800F550ED
:1029E80005D0F6CFE9FFF7CFEAFFEF500009D8B4DA
:1029F80002D0DBD700D00001DB510001C85D000127
:102A0800DC510001C959D8B009D00001C8510001F2
:102A1800DB5F0001C9510001DC5B10D0000E000132
:102A2800DC6F000EDB6F0AD0AEC0D9FFAFC0DAFF93
:102A3800200EDF6E0001AE4BAF2B00D00001DB078C
:102A4800D8A0DC070001DB29EFE10001DC29D8B4BC
:102A58001FD0EAD71DD0C6C0F6FFC7C0F7FF000ECB
:102A6800F86EAEC0D9FFAFC0DAFF0F0EF76403D01F
:102A78000800F55005D0F6CFE9FFF7CFEAFFEF5091
:102A8800DF6E0001C64BC72B0001AE4BAF2B00D049
:102A98000001C807D8A0C9070001C829DCE1000166
:102AA800C929D8B4CAEF1BF0D6D7CAEF1BF0CAC0E1
:102AB800D9FFCBC0DAFFDF500001DF6F020E000143
:102AC800CA27000ECB2300D0DF0E0001C66F000E10
:102AD8000001C76F000E0001C96F010EC86F8BD7C8
:102AE800C00E0001DD132DD0B0C0F6FFB1C0F7FF56
:102AF8000001B04BB12BF86A0800F5CFDFF00001F8
:102B0800DF51000AD8B4DCEF1BF0580AD8B42AD732
:102B18003B0AD8B4CCD7070AD8B413D0020AD8B421
:102B28001DD70F0AD8B40DD0050AD8B414D71F0A78
:102B3800D8B41BD7060AD8B4D3D70D0AD8B412D73D
:102B4800C3D7070E0001DE15D8B4EDD3000E00017F
:102B5800CD6F060ECC6FCAC0D9FFCBC0DAFFDECF6F
:102B6800D8F0DECFD9F0DDCFDAF0030E0001CA27A6
:102B7800000ECB230001DAAF12D0D8C060F0D9C064
:102B880061F0DAC062F05BEC53F060C0D8F061C06D
:102B9800D9F062C0DAF0030E0001DD1300D0000E98
:102BA8000001D36F000ED26F0001D8510001D91176
:102BB8000001DA11D8B49DD0820E0001BC6FFF0E5F
:102BC8000001BD6FD8C0BEF0D9C0BFF0DAC0C0F0F8
:102BD800DBC0C1F0100E06D00001D890C133C0335D
:102BE800BF33BE33E82EF8D70001BE510001BC2523
:102BF8000001D26F000E0001BD210001D36F00015A
:102C0800D207D8A0D307D2C06EF0D3C06FF0000EA1
:102C18000001716F030E706FBFEC52F06EC0D2F0FE
:102C28006FC0D3F0D2C066F0D3C067F0000E0001C9
:102C3800696F0A0E686F10EC49F066C0D2F067C081
:102C4800D3F00001D3AF05D00001D207D8A0D30735
:102C580000D00001D2510008E7EC2BF089C0CEF07B
:102C68008AC0CFF08BC0D0F0CEC07AF0CFC07BF056
:102C7800D0C07CF0D8C07DF0D9C07EF0DAC07FF03B
:102C88005DEC3FF07AC0CEF07BC0CFF07CC0D0F0D6
:102C9800CEC060F0CFC061F0D0C062F0000E00017D
:102CA800636F800E0001646F3F0E0001656F78EC62
:102CB80049F00001D8B005D00001D207D8A0D30749
:102CC80018D0CEC060F0CFC061F0D0C062F0000E66
:102CD8000001636F200E0001646F410E0001656FF3
:102CE80078EC49F00001D8A004D00001D24BD32BD6
:102CF80000D00001CDBF08D00001CD511EE10D0E5E
:102D08000001CC5DD8B019D0D8C093F0D9C094F0E8
:102D1800DAC095F00001CC5171EC34F089C096F01E
:102D28008AC097F08BC098F01DEC37F093C0D8F0AC
:102D380094C0D9F095C0DAF000D00001D3BF08D014
:102D48000001D3512CE10A0E0001D25DD8B027D082
:102D58000001D8510001D9110001DA11D8B47FD08F
:102D6800D8C09FF0D9C0A0F0DAC0A1F06AEC41F059
:102D780000019F510001A0110001A1110001A21141
:102D8800D8A46DD00001D3BF6AD00001D35107E1A8
:102D9800020E0001D25DD8B002D061D000D0CEC002
:102DA80060F0CFC061F0D0C062F0700E0001636FB8
:102DB800890E0001646F400E0001656F78EC49F0E0
:102DC8000001D8B003D00001F70E02D00001F80EC0
:102DD800D227FF0ED32300D00001D251E7EC2BF00D
:102DE80089C0CEF08AC0CFF08BC0D0F017D0D8C041
:102DF80060F0D9C061F0DAC062F0CEC063F0CFC035
:102E080064F0D0C065F017EC3DF060C0D4F061C04C
:102E1800D5F062C0D6F063C0D7F017D0D8C060F044
:102E2800D9C061F0DAC062F0CEC063F0CFC064F000
:102E3800D0C065F044EC3CF060C0D4F061C0D5F07F
:102E480062C0D6F063C0D7F000D0000E0001D86F82
:102E5800000E0001D96F000E0001DA6F34D0D8C01F
:102E68009FF0D9C0A0F0DAC0A1F06AEC41F09FC091
:102E7800D4F0A0C0D5F0A1C0D6F0A2C0D7F0D8C079
:102E88009FF0D9C0A0F0DAC0A1F0D4C068F0D5C0D6
:102E980069F0D6C06AF0D7C06BF024EC4FF068C078
:102EA800A2F069C0A3F06AC0A4F094EC51F09FC0EE
:102EB800D8F0A0C0D9F0A1C0DAF0000E0001D36F9D
:102EC800000ED26F00D0010E0001DF6F0A0E000164
:102ED800DF19D8B425D001D023D00001DF51040D6B
:102EE800C30EF324F66EED0EF420F76EF86A000EAA
:102EF800F8220900F5500001D45D0900F5500001E1
:102F0800D5590900F5500001D6590900F5500001BE
:102F1800D759D8A005D001D003D00001DF2BD6D7D0
:102F2800DFC0BCF00001BD6BBCBFBD070001CC51C8
:102F38000001BC270001CD510001BD230001D25181
:102F48000001BC270001D3510001BD230001BC5181
:102F58000001DB5F0001BD510001DC5B0001CC51C9
:102F68000001CD11D8B405D00001DB07D8A0DC07DB
:102F780000D0030E0001DD150001BC6F000E00013A
:102F8800DE150001BD6F0001BC510001BD11D8B4B0
:102F980005D00001DB07D8A0DC0700D00001DDA5C3
:102FA80043D0030E0001DD150001BC6F000E0001C7
:102FB800DE150001BD6F0001BC510001BD11D8B480
:102FC80018D0AEC0D9FFAFC0DAFF2D0EDF6E0001FA
:102FD800AE4BAF2B0ED0AEC0D9FFAFC0DAFF300E6C
:102FE800DF6E0001AE4BAF2B0001DB07D8A0DC077A
:102FF80000D00001DCBF8AD00001DC51ECE1000107
:10300800DB05D8A083D0E7D781D00ED0AEC0D9FFDA
:10301800AFC0DAFF200EDF6E0001AE4BAF2B000110
:10302800DB07D8A0DC0700D00001DCBF07D0000117
:10303800DC51ECE10001DB05D8B0E8D7030E000154
:10304800DD150001BC6F000E0001DE150001BD6F2B
:103058000001BC510001BD11D8B458D0AEC0D9FF91
:10306800AFC0DAFF2D0E50D00001AE4BAF2B4ED0C3
:10307800D4C060F0D5C061F0D6C062F0D7C063F0AC
:103088000001DF51040DC30EF324F66EED0EF4209B
:10309800F76EF86A000EF8220900F5CF64F009000F
:1030A800F5CF65F00900F5CF66F00A00F5CF67F0B7
:1030B800AAEC4AF060C0CEF061C0CFF062C0D0F098
:1030C80063C0D1F0CEC06DF0CFC06EF0D0C06FF04D
:1030D800D1C070F00A0E0001716F000E726F000E01
:1030E800736F000E746F75EC4CF06DC0CEF06EC04F
:1030F800CFF06FC0D0F070C0D1F00001CE51300FCA
:10310800AEC0D9FFAFC0DAFFDF6EAED70001DF0770
:103118000001DF29D8B410D0ABD70ED0AEC0D9FF8C
:10312800AFC0DAFF300EDF6E0001AE4BAF2B0001EF
:10313800D207D8A0D30700D00001D3BF07D0000121
:10314800D351ECE10001D205D8B0E8D70001CDBFDA
:103158000CD00001CD5105E1090E0001CC5DD8A0CD
:1031680004D0080E0001DF6F03D0CCC0DFF000D020
:103178000001DF510001CC5F000E0001DFBFFF0E30
:103188000001CD5B0001DF510001D8B40AD0AEC008
:10319800D9FFAFC0DAFF2E0EDF6E0001AE4BAF2BAA
:1031A80000D00001DF51E7EC2BF089C0C2F08AC0E3
:1031B800C3F08BC0C4F0D8C07DF0D9C07EF0DAC0AF
:1031C8007FF0C2C07AF0C3C07BF0C4C07CF05DEC75
:1031D8003FF07AC09FF07BC0A0F07CC0A1F06AEC01
:1031E80041F09FC0D4F0A0C0D5F0A1C0D6F0A2C0D5
:1031F800D7F07BD0D4C060F0D5C061F0D6C062F003
:10320800D7C063F00001DF51040DC30EF324F66E3E
:10321800ED0EF420F76EF86A000EF8220900F5CFDB
:1032280064F00900F5CF65F00900F5CF66F00A00F3
:10323800F5CF67F0AAEC4AF060C0CEF061C0CFF0DD
:1032480062C0D0F063C0D1F0CEC06DF0CFC06EF0D8
:10325800D0C06FF0D1C070F00A0E0001716F000E7F
:10326800726F000E736F000E746F75EC4CF06DC0CA
:10327800CEF06EC0CFF06FC0D0F070C0D1F00001BA
:10328800CE51300FAEC0D9FFAFC0DAFFDF6E0001FC
:10329800AE4BAF2BD4C06DF0D5C06EF0D6C06FF07A
:1032A800D7C070F00001DF51040DC30EF324F66E91
:1032B800ED0EF420F76EF86A000EF8220900F5CF3B
:1032C80071F00900F5CF72F00900F5CF73F00A002C
:1032D800F5CF74F075EC4CF06DC0D4F06EC0D5F03D
:1032E8006FC0D6F070C0D7F000D00001DF07000132
:1032F800DF29D8B410D07ED70ED0AEC0D9FFAFC06A
:10330800DAFF300EDF6E0001AE4BAF2B0001CC07A9
:10331800D8A0CD0700D00001CC510001CD11D8B400
:1033280035D2EBD733D2C00E0001DD150001BC6FDA
:10333800000E0001DE150001BD6F0001BC51000147
:10334800BD11D8A435D00001DDA90ED0CAC0D9FF5F
:10335800CBC0DAFFDECFD4F0DECFD5F0DECFD6F0AB
:10336800DECFD7F0040E0FD0CAC0D9FFCBC0DAFF2A
:10337800DECFD4F0DDCFD5F00001000ED5BFFF0EB3
:10338800D66FD76F020E0001CA27000ECB2300D0DC
:103398000001D7AF90D0030E0001DD130001D71F45
:1033A800D61FD51FD46D000ED523D623D72383D09F
:1033B8000001DDA90ED0CAC0D9FFCBC0DAFFDECF2D
:1033C800D4F0DECFD5F0DECFD6F0DECFD7F0040EC6
:1033D80010D0CAC0D9FFCBC0DAFFDECFBCF0DDCF3A
:1033E800BDF0BCC0D4F0BDC0D5F00001D66BD76B22
:1033F800020E0001CA27000ECB235DD000D0010EBB
:103408000001DF6F0A0E0001DF19D8B461D001D0C6
:103418005FD00001DF51040DC30EF324F66EED0EEC
:10342800F420F76EF86A000EF8220900F550000142
:10343800D45D0900F5500001D5590900F550000187
:10344800D6590900F5500001D759D8A041D001D06C
:103458003FD00001DF2BD6D73BD0010E0001DF6F34
:10346800080E0001DF19D8B433D001D031D00001E3
:10347800DF51040D390EF324F66EEE0EF420F76ECC
:10348800F86A000EF8220900F5500001D45D090021
:10349800F5500001D5590900F5500001D659090029
:1034A800F5500001D759D8A013D001D011D0000190
:1034B800DF2BD6D70DD00001DD51C00B000AD8B4E0
:1034C8009ED7800AD8B4C9D7400AD8B498D700D0B4
:1034D8000001DB510001DC11D8B415D0030E000146
:1034E800DD150001BC6F000E0001DE150001BD6F87
:1034F8000001BC510001BD11D8B405D00001DB07A3
:10350800D8A0DC0700D0800E0001DFBF7F0E0001CD
:10351800BC6F0001DB510001DF5D0001DC51800A56
:103528000001BC59D8B00BD00001DF510001DB5FAE
:10353800000E0001DFBFFF0E0001DC5B06D0000EAD
:103548000001DC6F000EDB6F00D00001DDA535D077
:10355800030E0001DD150001BC6F000E0001DE1531
:103568000001BD6F0001BC510001BD11D8B40AD0E3
:10357800AEC0D9FFAFC0DAFF2D0EDF6E0001AE4B33
:10358800AF2B00D00001DB510001DC11D8B44AD0C8
:10359800AEC0D9FFAFC0DAFF300EDF6E0001AE4B10
:1035A800AF2B0001DB07D8A0DC070001DB510001CD
:1035B800DC11D8B437D0ECD735D00001DB5100018D
:1035C800DC11D8B415D0AEC0D9FFAFC0DAFF200ED9
:1035D800DF6E0001AE4BAF2B0001DB07D8A0DC0784
:1035E8000001DB510001DC11D8B402D0ECD700D0C7
:1035F800030E0001DD150001BC6F000E0001DE1591
:103608000001BD6F0001BC510001BD11D8B40AD042
:10361800AEC0D9FFAFC0DAFF2D0EDF6E0001AE4B92
:10362800AF2B00D00001DF510001CC6FCD6BCCBFB8
:10363800CD079FD087D000D0CCC0BCF0CDC0BDF0A6
:103648000001D890BC37BD370001D890BC37BD37D2
:10365800C30E0001BC25F66EED0EBD21F76EF86AAB
:10366800000EF8220900F5CF64F00900F5CF65F0E7
:103678000900F5CF66F00A00F5CF67F0D4C060F016
:10368800D5C061F0D6C062F0D7C063F0AAEC4AF0AA
:1036980060C06DF061C06EF062C06FF063C070F022
:1036A8000A0E0001716F000E726F000E736F000E2C
:1036B800746F75EC4CF000016D51300F0001DF6F35
:1036C8004ED0D4C060F0D5C061F0D6C062F0D7C08B
:1036D80063F0CCC0BCF0CDC0BDF00001D890BC37C1
:1036E800BD370001D890BC37BD37390E0001BC2565
:1036F800F66EEE0EBD21F76EF86A000EF82209008C
:10370800F5CF64F00900F5CF65F00900F5CF66F054
:103718000A00F5CF67F0AAEC4AF0000160510F0BE0
:103728000001C56F0001C551010DEE0EF324F66EC0
:10373800FD0EF420F76EF86A000EF8220800F5CFA7
:10374800DFF00DD00001DD51C00B000AD8B474D7EA
:10375800800AD8B4B6D7400AD8B46ED700D0AEC065
:10376800D9FFAFC0DAFFDFC0DFFF0001AE4BAF2BE0
:1037780000D00001CC07D8A0CD070001CC29E2E198
:103788000001CD29D8B402D0DDD700D0B0C0F6FFF3
:10379800B1C0F7FF0001B04BB12BF86A0800F5CFB4
:1037A800DFF00001DF51D8B403D02FEF14F000D0C0
:1037B800AEC0D9FFAFC0DAFF000EDF6E12001200F4
:1037C800000E00016C6F000E6D6F000E6E6F000E24
:1037D8006F6F010E000160150001646F000E00019B
:1037E80061150001656F000E000162150001666F2A
:1037F800000E000163150001676F1F0ED8900001CD
:103808006437653766376737E82EF8D700016451A3
:1038180000016C270001655100016D23000166510C
:1038280000016E230001675100016F23020E0001A1
:1038380060150001646F000E000161150001656FDD
:10384800000E000162150001666F000E000163158D
:103858000001676F1D0ED890000164376537663721
:103868006737E82EF8D70001645100016C27000182
:10387800655100016D230001665100016E230001AE
:10388800675100016F23040E000160150001646F89
:10389800000E000161150001656F000E0001621540
:1038A8000001666F000E000163150001676F1B0EB3
:1038B800D89000016437653766376737E82EF8D740
:1038C8000001645100016C270001655100016D235E
:1038D8000001665100016E230001675100016F234A
:1038E800080E000160150001646F000E00016115EB
:1038F8000001656F000E000162150001666F000E81
:10390800000163150001676F190ED8900001643734
:10391800653766376737E82EF8D70001645100012C
:103928006C270001655100016D23000166510001FB
:103938006E230001675100016F23100E000160150E
:103948000001646F000E000161150001656F000E33
:10395800000162150001666F000E00016315000189
:10396800676F170ED8900001643765376637673779
:10397800E82EF8D70001645100016C270001655159
:1039880000016D230001665100016E23000167519B
:1039980000016F23200E000160150001646F000E06
:1039A800000161150001656F000E0001621500013C
:1039B800666F000E000163150001676F150ED89041
:1039C80000016437653766376737E82EF8D7000196
:1039D800645100016C270001655100016D2300014D
:1039E800665100016E230001675100016F23400EEC
:1039F800000160150001646F000E000161150001EF
:103A0800656F000E000162150001666F000E00016F
:103A180063150001676F130ED8900001643765378E
:103A280066376737E82EF8D70001645100016C2724
:103A38000001655100016D230001665100016E23EC
:103A48000001675100016F23800E0001601500011D
:103A5800646F000E000161150001656F000E000122
:103A680062150001666F000E000163150001676FA3
:103A7800110ED89000016437653766376737E82E2E
:103A8800F8D70001645100016C270001655100015D
:103A98006D230001665100016E230001675100018A
:103AA8006F23000E000160150001646F010E000114
:103AB80061150001656F000E000162150001666F57
:103AC800000E000163150001676F0F0ED89000010A
:103AD8006437653766376737E82EF8D700016451D1
:103AE80000016C270001655100016D23000166513A
:103AF80000016E230001675100016F23000E0001D1
:103B080060150001646F020E000161150001656F08
:103B1800000E000162150001666F000E00016315BA
:103B28000001676F0D0ED89000016437653766375E
:103B38006737E82EF8D70001645100016C270001AF
:103B4800655100016D230001665100016E230001DB
:103B5800675100016F23000E000160150001646FBA
:103B6800040E000161150001656F000E0001621569
:103B78000001666F000E000163150001676F0B0EF0
:103B8800D89000016437653766376737E82EF8D76D
:103B98000001645100016C270001655100016D238B
:103BA8000001665100016E230001675100016F2377
:103BB800000E000160150001646F080E0001611518
:103BC8000001656F000E000162150001666F000EAE
:103BD800000163150001676F090ED8900001643772
:103BE800653766376737E82EF8D70001645100015A
:103BF8006C270001655100016D2300016651000129
:103C08006E230001675100016F23000E000160154B
:103C18000001646F100E000161150001656F000E50
:103C2800000162150001666F000E000163150001B6
:103C3800676F070ED89000016437653766376737B6
:103C4800E82EF8D70001645100016C270001655186
:103C580000016D230001665100016E2300016751C8
:103C680000016F23000E000160150001646F200E33
:103C7800000161150001656F000E00016215000169
:103C8800666F000E000163150001676F050ED8907E
:103C980000016437653766376737E82EF8D70001C3
:103CA800645100016C270001655100016D2300017A
:103CB800665100016E230001675100016F23000E59
:103CC800000160150001646F400E000161150001DC
:103CD800656F000E000162150001666F000E00019D
:103CE80063150001676F030ED890000164376537CC
:103CF80066376737E82EF8D70001645100016C2752
:103D08000001655100016D230001665100016E2319
:103D18000001675100016F23000E000160150001CA
:103D2800646F800E000161150001656F000E0001CF
:103D380062150001666F000E000163150001676FD0
:103D4800D890000164350001686F000165350001F5
:103D5800696F0001663500016A6F0001673500016F
:103D68006B6F0001685100016C2700016951000167
:103D78006D2300016A5100016E2300016B5100019F
:103D88006F2360C064F061C065F062C066F063C014
:103D980067F00001D8906733663365336433000EEB
:103DA800000164150001686F800E000165150001AF
:103DB800696F000E0001661500016A6F000E0001B0
:103DC800671500016B6F0001685100016C27000145
:103DD800695100016D2300016A5100016E23000141
:103DE8006B5100016F2360C064F061C065F062C070
:103DF80066F063C067F0040E06D00001D890673300
:103E0800663365336433E82EF8D7000E0001641575
:103E18000001686F400E000165150001696F000E12
:103E28000001661500016A6F000E000167150001A8
:103E38006B6F0001685100016C2700016951000196
:103E48006D2300016A5100016E2300016B510001CE
:103E58006F2360C064F061C065F062C066F063C043
:103E680067F0060E06D00001D890673366336533D5
:103E78006433E82EF8D7000E000164150001686F5E
:103E8800200E000165150001696F000E000166151E
:103E980000016A6F000E0001671500016B6F0001D9
:103EA800685100016C270001695100016D23000170
:103EB8006A5100016E2300016B5100016F2360C03D
:103EC80064F061C065F062C066F063C067F0080E18
:103ED80006D00001D8906733663365336433E82E23
:103EE800F8D7000E000164150001686F100E00017C
:103EF80065150001696F000E0001661500016A6F03
:103F0800000E0001671500016B6F00016851000188
:103F18006C270001695100016D2300016A510001FD
:103F28006E2300016B5100016F2360C064F061C013
:103F380065F062C066F063C067F00A0E06D0000143
:103F4800D8906733663365336433E82EF8D7000EAC
:103F5800000164150001686F080E00016515000175
:103F6800696F000E0001661500016A6F000E0001FE
:103F7800671500016B6F0001685100016C27000193
:103F8800695100016D2300016A5100016E2300018F
:103F98006B5100016F2360C064F061C065F062C0BE
:103FA80066F063C067F00C0E06D00001D890673346
:103FB800663365336433E82EF8D7000E00016415C4
:103FC8000001686F040E000165150001696F000E9D
:103FD8000001661500016A6F000E000167150001F7
:103FE8006B6F0001685100016C27000169510001E5
:103FF8006D2300016A5100016E2300016B5100011D
:104008006F2360C064F061C065F062C066F063C091
:1040180067F00E0E06D00001D8906733663365331B
:104028006433E82EF8D7000E000164150001686FAC
:10403800020E000165150001696F000E000166158A
:1040480000016A6F000E0001671500016B6F000127
:10405800685100016C270001695100016D230001BE
:104068006A5100016E2300016B5100016F2360C08B
:1040780064F061C065F062C066F063C067F0100E5E
:1040880006D00001D8906733663365336433E82E71
:10409800F8D7000E000164150001686F010E0001D9
:1040A80065150001696F000E0001661500016A6F51
:1040B800000E0001671500016B6F000168510001D7
:1040C8006C270001695100016D2300016A5100014C
:1040D8006E2300016B5100016F2360C064F061C062
:1040E80065F062C066F063C067F0120E06D000018A
:1040F800D8906733663365336433E82EF8D7800E7B
:10410800000164150001686F000E000165150001CB
:10411800696F000E0001661500016A6F000E00014C
:10412800671500016B6F0001685100016C270001E1
:10413800695100016D2300016A5100016E230001DD
:104148006B5100016F2360C064F061C065F062C00C
:1041580066F063C067F0140E06D00001D89067338C
:10416800663365336433E82EF8D7400E00016415D2
:104178000001686F000E000165150001696F000EEF
:104188000001661500016A6F000E00016715000145
:104198006B6F0001685100016C2700016951000133
:1041A8006D2300016A5100016E2300016B5100016B
:1041B8006F2360C064F061C065F062C066F063C0E0
:1041C80067F0160E06D00001D89067336633653362
:1041D8006433E82EF8D7200E000164150001686FDB
:1041E800000E000165150001696F000E00016615DB
:1041F80000016A6F000E0001671500016B6F000176
:10420800685100016C270001695100016D2300010C
:104218006A5100016E2300016B5100016F2360C0D9
:1042280064F061C065F062C066F063C067F0180EA4
:1042380006D00001D8906733663365336433E82EBF
:10424800F8D7100E000164150001686F000E000118
:1042580065150001696F000E0001661500016A6F9F
:10426800000E0001671500016B6F00016851000125
:104278006C270001695100016D2300016A5100019A
:104288006E2300016B5100016F2360C064F061C0B0
:1042980065F062C066F063C067F01A0E06D00001D0
:1042A800D8906733663365336433E82EF8D7080E41
:1042B800000164150001686F000E0001651500011A
:1042C800696F000E0001661500016A6F000E00019B
:1042D800671500016B6F0001685100016C27000130
:1042E800695100016D2300016A5100016E2300012C
:1042F8006B5100016F2360C064F061C065F062C05B
:1043080066F063C067F01C0E06D00001D8906733D2
:10431800663365336433E82EF8D7040E000164155C
:104328000001686F000E000165150001696F000E3D
:104338000001661500016A6F000E00016715000193
:104348006B6F0001685100016C2700016951000181
:104358006D2300016A5100016E2300016B510001B9
:104368006F2360C064F061C065F062C066F063C02E
:1043780067F01E0E06D00001D890673366336533A8
:104388006433E82EF8D7020E000164150001686F47
:10439800000E000165150001696F000E0001661529
:1043A80000016A6F000E0001671500016B6F0001C4
:1043B800685100016C270001695100016D2300015B
:1043C8006A5100016E2300016B5100016F23000E3A
:1043D800000160150001646F000E00016115000105
:1043E800656F000E000162150001666F800E000106
:1043F80063150001676F200E06D00001D89067335F
:10440800663365336433E82EF8D700016451000140
:104418006C270001655100016D2300016651000100
:104428006E230001675100016F236CC060F06DC0FE
:1044380061F06EC062F06FC063F0120012000101FB
:10444800B76F010E0101B96F000E0101BA6F000EBE
:104458000101B86F010E0101B66F840E0001606F93
:10446800010E0001616F000E0001636F320E626F72
:10447800E6EC50F06F0E0001606F010E0001616FF5
:10448800000E0001636F150E626FE6EC50F0330EFC
:104498000001606F010E0001616F000E0001636F83
:1044A8001E0E626FE6EC50F0510E0001606F010EB7
:1044B8000001616F000E0001636F1E0E626FE6EC73
:1044C80050F013EC40F00009D8A402D0000E1200FE
:1044D800140E0001606F040E0001616F3EC062F0AF
:1044E8000001636BE6EC50F0000E3E6EC2EC54F037
:1044F8009E9A9D8AFB0E0001626FFF0E0001636F9A
:1045080042EC53F0500E0001606FC30E616F000E55
:10451800626F000E636F3FEC51F09D9A000E01012F
:10452800BA6F3B0E0101BA6501D07AD00101B60518
:10453800D8A437D00101BA51010D140EF324D96E55
:10454800040EF420DA6E0A0EDE18D8B40DD001017C
:10455800BA51010D140EF324D96E040EF420DA6E4C
:104568000D0EDE18D8A404D0000E0101B66F55D088
:104578001D0E0101BA6151D00101BA51010D140E8D
:10458800F324D96E040EF420DA6E0101BA51010D3C
:10459800330EF324E16E010EF420E26EDFCFE7FF65
:1045A8003CD00101BA51010D140EF324D96E040E4A
:1045B800F420DA6E0A0EDE18D8B429D00101BA51F7
:1045C800010D140EF324D96E040EF420DA6E0D0ECC
:1045D800DE18D8B41CD01D0E0101B86115D0010138
:1045E800BA51010D140EF324D96E040EF420DA6EBC
:1045F8000101B851010D510EF324E16E010EF420B2
:10460800E26EDFCFE7FF00D00101B82B06D0020E23
:104618000101B86502D004D000D00101BA2B81D7BE
:10462800010133510101D8B405D0010151510101F3
:10463800D8A404D0000E0101B96F42D0000E0001C9
:10464800606F050E0001616F000E0001636F1E0EA2
:10465800626FE6EC50F01E0E0001606F050E00015F
:10466800616F000E0001636F1E0E626FE6EC50F082
:10467800330E0001686F010E0001696F000E000122
:104688006A6F050E00016B6F1E0E00016C6F000E45
:1046980000016D6FDFEC4EF0510E0001686F010EE6
:1046A8000001696F1E0E00016A6F050E00016B6F35
:1046B8001E0E00016C6F000E00016D6FDFEC4EF0F6
:1046C800140E0001606F040E0001616F3EC062F0BD
:1046D8000001636BE6EC50F0000E3E6E0101B7512D
:1046E8000101D8B456D00101B9510101D8B4BCD0E8
:1046F800840E0001AE6F010E0001AF6F390E00018C
:10470800B06FFB0E0001B16FD1C2B2F0D2C2B3F0EC
:10471800D3C2B4F0D4C2B5F027EC14F0C2EC54F014
:104728009E9A9D8A840E0001616F010E0001626FDE
:10473800E3EC53F0500E0001606FC30E616F000E82
:10474800626F000E636F3FEC51F09D9A840E00017A
:10475800AE6F010E0001AF6FF40E0001B06FFF0ED7
:104768000001B16F27EC14F0140E0001606F040E05
:104778000001616F840E0001626F010E0001636F1A
:10478800BAEC42F00009D8A46FD0000E0101B96F4D
:104798006BD00101B9510101D8B466D00401F051C0
:1047A800D8A45ED0DC0E0001686F040E0001696FAA
:1047B8006F0E00016A6F010E00016B6F150E00018C
:1047C8006C6F000E00016D6FDFEC4EF0840E00017F
:1047D800AE6F010E0001AF6F9F0E0001B06FFF0EAC
:1047E8000001B16F6F0E0001B26F010E0001B36FCF
:1047F80027EC14F0C2EC54F09E9A9D8A840E0001B6
:10480800616F010E0001626FE3EC53F0500E00017E
:10481800606FC30E616F000E626F000E636F3FEC36
:1048280051F09D9A840E0001AE6F010E0001AF6F2A
:10483800F40E0001B06FFF0E0001B16F27EC14F009
:10484800140E0001606F040E0001616F840E0001F8
:10485800626F010E0001636FBAEC42F093D704D087
:10486800000E0101B96F00D0140E0001606F040E34
:104878000001616F3EC062F00001636BE6EC50F02E
:10488800000E3E6E0101B9510101D8B42DD0C2EC21
:1048980054F09E9A9D8A750E0001626FFF0E00010A
:1048A800636F42EC53F0500E0001606FC30E616FEE
:1048B800000E626F000E636F3FEC51F09D9A140E6C
:1048C8000001606F040E0001616F840E0001626FC9
:1048D800010E0001636FBAEC42F00009D8A404D0BD
:1048E800000E0101B96F00D0140E0001606F040EB4
:1048F8000001616F3EC062F00001636BE6EC50F0AE
:10490800000E3E6E0101B9510101D8B42DD0C2ECA0
:1049180054F09E9A9D8ACE0E0001626FFC0E000133
:10492800636F42EC53F0500E0001606FC30E616F6D
:10493800000E626F000E636F3FEC51F09D9A140EEB
:104948000001606F040E0001616F840E0001626F48
:10495800010E0001636FBAEC42F00009D8A404D03C
:10496800000E0101B96F00D0140E0001606F040E33
:104978000001616F3EC062F00001636BE6EC50F02D
:10498800000E3E6E0101B9510101D8B42DD0C2EC20
:1049980054F09E9A9D8A6C0E0001626FFF0E000112
:1049A800636F42EC53F0500E0001606FC30E616FED
:1049B800000E626F000E636F3FEC51F09D9A140E6B
:1049C8000001606F040E0001616F840E0001626FC8
:1049D800010E0001636FBAEC42F00009D8A404D0BC
:1049E800000E0101B96F00D0140E0001606F040EB3
:1049F8000001616F3EC062F00001636BE6EC50F0AD
:104A0800000E3E6E0101B9510101D8B42DD0C2EC9F
:104A180054F09E9A9D8AB40E0001626FFF0E000149
:104A2800636F42EC53F0500E0001606FC30E616F6C
:104A3800000E626F000E636F3FEC51F09D9A140EEA
:104A48000001606F040E0001616F840E0001626F47
:104A5800010E0001636FBAEC42F00009D8A404D03B
:104A6800000E0101B96F00D0140E0001606F040E32
:104A78000001616F3EC062F00001636BE6EC50F02C
:104A8800000E3E6E0101B9510101D8B46AD0C2ECE2
:104A980054F09E9A9D8AF80E0001626FFF0E000185
:104AA800636F42EC53F0500E0001606FC30E616FEC
:104AB800000E626F000E636F3FEC51F09D9A01018A
:104AC800B7510101D8B417D0840E0001AE6F010EA2
:104AD8000001AF6F7B0E0001B06FFA0E0001B16FDD
:104AE800D1C2B2F0D2C2B3F0D3C2B4F0D4C2B5F0DE
:104AF80027EC14F014D0840E0001AE6F010E0001F3
:104B0800AF6F000E0001B06FFF0E0001B16F6F0EA6
:104B18000001B26F010E0001B36F27EC14F0140E00
:104B28000001636F040E0001646F840E0001656F5D
:104B3800010E0001666F6DEC3BF00009D8A411D09E
:104B48000201D1290AE10201D22907E10201D32990
:104B580004E10201D429D8B404D0000E0101B96FD0
:104B680000D0140E0001606F040E0001616F3EC09A
:104B780062F00001636BE6EC50F0000E3E6EC2EC92
:104B880054F09E9A9D8ACC0E0001626FFF0E0001C0
:104B9800636F42EC53F0500E0001606FC30E616FFB
:104BA800000E626F000E636F3FEC51F0840E00013F
:104BB800AE6F010E0001AF6FF00E0001B06FFF0E77
:104BC8000001B16F27EC14F09D9A140E0001606F7C
:104BD800040E0001616F840E0001626F010E000176
:104BE800636FBAEC42F00009D8A404D0000E0101AA
:104BF800B96F00D0140E0001606F040E0001616FE0
:104C08003EC062F00001636BE6EC50F0000E3E6EB1
:104C18000101B9510101D8B402D0010E1200000EF1
:104C280012001200000E0301E36F000E0301DD6F96
:104C3800000E0301DE6F010E0301E46F000E030195
:104C4800DF6F000E0001606F030E0001616F000E40
:104C58000001636F640E626FE6EC50F0640E0001B1
:104C6800606F030E0001616F000E0001636F640E38
:104C7800626FE6EC50F0C80E0001606F030E000191
:104C8800616F000E0001636F150E626FE6EC50F065
:104C980043EC55F0E0EC51F0E1EC3DF00DEC4BF05D
:104CA80089C0E5F38AC0E6F38BC0E7F3E5C360F09B
:104CB800E6C361F0E7C362F09A0E0001636FC90EA4
:104CC8000001646F400E0001656F78EC49F0000147
:104CD800D8B002D0220E15D0000E0001606F840EED
:104CE8000001616F410E0001626FE5C363F0E6C326
:104CF80064F0E7C365F078EC49F00001D8B004D05F
:104D0800620E0301E46F00D00301E405D8A427D0A4
:104D1800000E0301E36F090E0301E36501D01DD006
:104D28008B828B94500E0001606FC30E616F000E72
:104D3800626F000E636F3FEC51F08B928B84500EC4
:104D48000001606FC30E616F000E626F000E636F2B
:104D58003FEC51F00301E32BDED78B9424D0000EF7
:104D68000301E36F090E0301E36501D01CD08B82B8
:104D7800A00E0001606F860E616F010E626F000E5B
:104D8800636F3FEC51F08B92A00E0001606F860EAE
:104D9800616F010E626F000E636F3FEC51F003010B
:104DA800E32BE0D700D0FFEC54F00301E26F000ED4
:104DB8000301E06F3BD2F0C3DDF3EAC3DEF30DEC91
:104DC8004BF089C0E5F38AC0E6F38BC0E7F3220E07
:104DD8000301E419D8A418D0E5C39FF0E6C3A0F0F6
:104DE800E7C3A1F0000E0001A26F000E0001A36F3F
:104DF8003F0E0001A46F94EC51F09FC0E5F3A0C0F2
:104E0800E6F3A1C0E7F31DD0620E0301E419D8A4AC
:104E180018D0E5C393F0E6C394F0E7C395F0000E0D
:104E28000001966F000E0001976F3F0E0001986F0A
:104E38001DEC37F093C0E5F394C0E6F395C0E7F3B3
:104E480000D0E5C360F0E6C361F0E7C362F09A0EF4
:104E58000001636FC90E0001646F400E0001656FA9
:104E680078EC49F00001D8B002D0220E17D0000E1D
:104E78000001606F840E0001616F410E0001626FD6
:104E8800E5C363F0E6C364F0E7C365F078EC49F086
:104E98000001D8B002D0620E01D0010E0301E46F08
:104EA80000D00301E405D8B402D08B8200D00301FE
:104EB800E405D8A407D00301E105D8B403D0B0ECC9
:104EC80054F000D00301DD510301D8B41BD0030115
:104ED800EC510301ED110301EE110301EF11D8B4F8
:104EE80011D0F00E0001E66F030E0001E76FECC36E
:104EF800E8F0EDC3E9F0EEC3EAF0EFC3EBF05CECE9
:104F080038F000D0FFEC54F00301E26F0301E051E8
:104F18000301E219D8B497D00301E2510301D8B4D0
:104F280090D0780E0001606F040E0001616FEBC332
:104F380062F00001636BE6EC50F0000E0301EB6FCA
:104F4800400E0001606F420E616F0F0E626F000E1F
:104F5800636F3FEC51F0590E0001646FEE0E0001D3
:104F6800656F25EC52F0510E0001626FF00E0001E2
:104F7800636F42EC53F00301E851D8B441D0510EAD
:104F88000001626FF00E0001636F42EC53F0DC0E1B
:104F98000001686F040E0001696FC80E00016A6F96
:104FA800030E00016B6F150E00016C6F000E0001FF
:104FB8006D6FDFEC4EF0000E0001AE6F030E0001C6
:104FC800AF6F4D0E0001B06FF20E0001B16FC80E49
:104FD8000001B26F030E0001B36F27EC14F0000E4E
:104FE8000001646F030E0001656FA3EC52F0510ECF
:104FF8000001626FF00E0001636F42EC53F000D0C5
:105008000301E405D8B415D00301E105D8B411D0E3
:10501800990E0001646FFB0E0001656F25EC52F0DC
:10502800510E0001626FF00E0001636F42EC53F005
:1050380000D0C2EC54F09E9A9D8A3E0E1EEC54F0AD
:1050480002D09D9A00D00301DE510301D8B479D073
:105058000301E2510301D8B474D0640E0001606FFB
:10506800030E0001616F000E0001636F640E626F32
:10507800E6EC50F0780E0001686F040E0001696FCD
:10508800640E00016A6F030E00016B6FEBC36CF0D6
:10509800000E00016D6FDFEC4EF0EBC3DFF3780E0E
:1050A8000001606F040E0001616FEBC362F0000144
:1050B800636BE6EC50F0000E0301EB6F000E03018A
:1050C800EA6F030164510301D8B40BD0640E0001E8
:1050D800F26F030E0001F36FDFC3F4F0E7EC00F0AA
:1050E80000D0780E0001606F040E0001616FEBC301
:1050F80062F00001636BE6EC50F0000E0301EB6F09
:10510800000E0301EA6F510E0001626FF00E0001FC
:10511800636F42EC53F03E0E1EEC54F00301F05165
:10512800D8B404D0000E0301F06F00D0F8EC54F0AE
:10513800406EF2907D88F286C2EC54F09E9A9D8A69
:1051480000D00301F4510301F31110E1880E0301AB
:10515800F15D130E0301F259D8B008D0010E030116
:10516800F127000EF223F323F42327D0880E03013E
:10517800F11923E1130E0301F2190301F3110301DD
:10518800F411D8A41AD0010E0301F127000EF2235E
:10519800F323F423000E0301EC6F000EED6F000EF5
:1051A800EE6F000EEF6F000E0301F06FF8EC54F095
:1051B800406EF2907D88F28600D00301E951D8B4A0
:1051C80033D0780E0001606F040E0001616F000E8D
:1051D8000001636F640E626FE6EC50F0000E03018D
:1051E800EB6F510E0001626FF00E0001636F42EC2D
:1051F80053F0410E0001646FFE0E0001656F25EC4F
:1052080052F0510E0001626FF00E0001636F42EC24
:1052180053F03E0E3DEC54F0000E0301E96FC2EC72
:1052280054F09E9A9D8A00D0E2C3E0F3E4C3E1F310
:10523800C2D5E5EF00F0EACF2CF0E1CF2DF0E2CFB8
:105248002EF0D9CF2FF0DACF30F0F3CF31F0F4CF02
:1052580032F0F6CF33F0F7CF34F0F8CF35F0F5CFA2
:1052680036F0F29EF2A079D000F000F0000E0301B3
:10527800F16F000EF26F000EF36F000EF46F14EC76
:1052880055F0376E40503718D8B461D0D58EF28AB1
:10529800130E506E000E0301F06FD6CF38F0396A46
:1052A800D7503926640E41604DD04150D8B442D011
:1052B800650E41603FD0FE0E256EFF0E266E4150F2
:1052C800276E286AD8902736283625502726265054
:1052D8002822000E2724D96E060E2820DA6E38C040
:1052E800DEFF39C0DDFF090E385C520E3958D8B0E0
:1052F8000AD0380E385C4A0E3958D8A004D07D98A8
:10530800F296F2841AD0510E385CC30E3958D8B0D0
:105318000ED0C80E385CAF0E3958D8A008D07D988A
:10532800F2968F0E186E17682FEC55F006D02AECFF
:1053380055F003D02AEC55F000D0650E416004D03A
:10534800412A02D07D98F29637C040F002D000F092
:1053580000D014EC55F0F29018D2F2A430D0F29AA2
:10536800D59E030E41640ED0000E176E060E186E01
:10537800EC0E196E030E1A6E010E1B6EDBEC32F08A
:105388000301F06F000E176E060E186E000E1A6EEF
:10539800640E196E46EC52F0000E416E0301F05196
:1053A800D8A409D014EC55F014EC55F0406EF290E6
:1053B8007D88F28600D00D0E506EF294E6D19EA242
:1053C800D1D14A2A370E4E18D8A40CD14F504A5C76
:1053D800D8A003D1000E4A6E4550010D000EF324EB
:1053E800D96E040EF420DA6E630EDE18D8B4B3D08A
:1053F8004750D8B4F2D04550010D000EF324D96EB1
:10540800040EF420DA6EDF50D8A43FD04404D8A4A8
:1054180025D04604D8A407D077D0080ECB6E76D016
:10542800000ECC6EDAD0020E4618D8A404D074D080
:105438003ED0462AD2D0030E4618D8A402D064D053
:10544800ECD7040E4618D8A404D08B9A180E51D065
:1054580016D0CA947BD0000E476EBFD0020E4418F7
:10546800D8A4F7D74604D8A403D08B8A0B0ED6D776
:10547800020E4618D8A4EDD78B9A1D0E3AD0010E0D
:10548800466E452AAAD062D0A8D04550010D000E1C
:10549800F324D96E040EF420DA6EDE04D8A42ED0DC
:1054A8004404D8A416D04604D8A404D03CD0180E7E
:1054B800CB6EBFD7020E4618D8A431D08B9AADD781
:1054C8002ED0F5D7B6D732D0080ECB6E35D0A8D7A8
:1054D80084D0020E4418D8A4BCD74604D8A403D05C
:1054E8008B8A1D0E9BD7020E4618D8A404D08B9A1F
:1054F8000B0ECB6EC4D7CA9429D06FD04404D8A45D
:1055080020D04604D8A404D08B8A87D7462A88D7C7
:10551800020E4618D8A403D08B9AC9D78AD7030E8F
:105528004618D8A403D08B8AC2D783D7040E46184E
:10553800D8A48FD78B9AC8D7010E466E452A70D744
:105548004CD0020E4418D8A484D783D7010E00018A
:10555800FF6F81D742D04604D8A416D04404D8A4FB
:1055680003D08B8A080E06D0020E4418D8A404D0A3
:105578008B9A0B0ECB6E05D0CA94010E0001FF6FFB
:1055880000D0000ECC6E55D7020E4618D8A41CD0F9
:105598004404D8A403D08B9AFA0E05D0020E4418FE
:1055A800D8A403D0950ECB6E05D0CA94010E000185
:1055B800FF6F00D0462A48064850D8B40ED0010ED6
:1055C800466E000E456E09D034EC55F0A192000EDF
:1055D8004B6EB180CA943FD700D04750D8B4C0D0E2
:1055E800CA84BED04F504A5CD8A0BAD0000E4A6ECA
:1055F800070E4D18D8A40DD0200E4C6E000E0001D9
:10560800FB6F8B96080E4D6E040E4F6E4B0ECB6ED5
:10561800A7D0080E4D18D8B404D00A0E4D18D8A437
:1056280011D0010E0001FB6F010E4F6E3A50010BB5
:105638003F6ED8903D323C323B323A32260ECB6E2A
:10564800090E7AD0090E4D18D8A417D0000E000103
:10565800FB6F8B96010E4F6E3F50D8B402D0710E7F
:1056680001D0260ECB6E00D04C064C50D8A402D0E8
:105678000B0E62D00A0E60D073D00B0E4D18D8A452
:1056880007D0010E0001FB6F260ECB6E0C0E54D016
:105698000C0E4D18D8A411D0000E0001FB6F8B968C
:1056A8004350D8A403D00D0E4D6E57D00B0E4F6E3D
:1056B800F20ECB6E0E0E40D053D00E0E4D18D8B44D
:1056C80004D0120E4D18D8A409D0010E0001FB6FAA
:1056D800040E4F6E960ECB6E0F0E2ED00F0E4D1879
:1056E800D8A40AD0000E0001FB6F8B96010E4F6EF6
:1056F800950ECB6E100E20D0100E4D18D8A409D0E0
:10570800010E0001FB6F010E4F6E260ECB6E110EBF
:1057180013D0110E4D18D8A411D0000E0001FB6F44
:105728008B961A0E4F6EF60ECB6E42064250D8B4C8
:1057380002D0120E01D00D0E4D6E12D00D0E4D1866
:10574800D8A405D00AD0010E0001FF6F09D0000EC1
:105758000001FB6F8B96000E4D6ECA94F4D700D0F3
:105768009E9213D0A1A20FD0B190030E4B6005D02A
:1057780034EC55F0B1804B2A04D0010E0001FF6FC4
:1057880000D0A19202D000F000D0F28E36C0F5FF12
:1057980035C0F8FF34C0F7FF33C0F6FF32C0F4FF5E
:1057A80031C0F3FF30C0DAFF2FC0D9FF2EC0E2FFAF
:1057B8002DC0E1FF2CC0EAFF2BC0E9FF2AC0FBFF88
:1057C80029C0FAFF110000018F6F00018FAF3FD190
:1057D80000018F6D00018F51800A120FD8A0B6D03A
:1057E800000E0001716F030E706F000E0001696FEB
:1057F8000A0E686F000E0001636F640E626F00018D
:105808008F510001606F616B60BF6107C4EC4BF0A2
:1058180060C066F061C067F010EC49F0090E000145
:10582800662500016E6F000E0001672100016F6F91
:10583800BFEC52F0EB0E00016E25F66EED0E000186
:105848006F21F76EF86A000EF8220900F5CF7DF097
:105858000900F5CF7EF00A00F5CF7FF0000E0001B9
:10586800696F640E686F00018F510001666F676B86
:1058780066BF670710EC49F0120E000166250001AB
:105888006E6F000E0001672100016F6F000E0001AE
:10589800716F030E706FBFEC52F0EB0E00016E25B6
:1058A800F66EED0E00016F21F76EF86A000EF82211
:1058B8000900F5CF7AF00900F5CF7BF00A00F5CFA3
:1058C8007CF05DEC3FF07AC08CF07BC08DF07CC042
:1058D8008EF08CC07AF08DC07BF08EC07CF0000E0C
:1058E8000001716F030E706F000E0001636F0A0EE6
:1058F800626F00018F510001606F616B60BF6107CB
:10590800C4EC4BF060C06EF061C06FF0BFEC52F0B9
:10591800EB0E00016E25F66EED0E00016F21F76E9D
:10592800F86A000EF8220900F5CF7DF00900F5CFDE
:105938007EF00A00F5CF7FF05DEC3FF07AC089F089
:105948007BC08AF07CC08BF012006BD000018F51B5
:10595800800A750FD8A065D0000E0001696F0A0E85
:10596800686F00018F510001666F676B66BF67073C
:1059780010EC49F0090E0001662500016E6F000E5B
:105988000001672100016F6F000E0001716F030EA7
:10599800706FBFEC52F0EB0E00016E25F66EED0E47
:1059A80000016F21F76EF86A000EF8220900F5CFA2
:1059B8007AF00900F5CF7BF00A00F5CF7CF0000EF5
:1059C8000001716F030E706F000E0001636F0A0E05
:1059D800626F00018F510001606F616B60BF6107EA
:1059E800C4EC4BF060C06EF061C06FF0BFEC52F0D9
:1059F800EB0E00016E25F66EED0E00016F21F76EBD
:105A0800F86A000EF8220900F5CF7DF00900F5CFFD
:105A18007EF00A00F5CF7FF05DEC3FF08FD71200E3
:105A280000D000018F51030DEB0EF324F66EED0E3E
:105A3800F420F76EF86A000EF8220900F5CF89F015
:105A48000900F5CF8AF00A00F5CF8BF012000001AB
:105A58008F51800A120FD8A0B6D0000E0001716FC6
:105A6800030E706F000E0001696F0A0E686F000E5A
:105A78000001636F640E626F00018F510001606F57
:105A8800616B60BF6107C4EC4BF060C066F061C039
:105A980067F010EC49F0090E0001662500016E6FF1
:105AA800000E0001672100016F6FBFEC52F0120E6B
:105AB80000016E25F66EEE0E00016F21F76EF86A92
:105AC800000EF8220900F5CF7DF00900F5CF7EF031
:105AD8000A00F5CF7FF0000E0001696F640E686F51
