:04000000EBEF00F032
:10000800FACF32F0FBCF33F0E9CF34F0ABEF2EF07C
:10001800D8CF0EF0E8CF0FF0E0CF10F0FACF11F004
:10002800FBCF12F0E9CF13F0EACF14F0E1CF15F0CF
:10003800E2CF16F0D9CF17F0DACF18F0F3CF19F0D6
:10004800F4CF1AF0F6CF1BF0F7CF1CF0F8CF1DF065
:10005800F5CF1EF0000E1F6EF29C9EAA86D00DEC06
:1000680063F01F6E92EC63F00009D8A412D0630EFF
:10007800445CD8B078D04450010D0401000EF3243C
:10008800D96E0401040EF420DA6E1FC0DFFF442A83
:100098006AD01F500D0AD8B455D01F500A0AD8B4D8
:1000A80051D01F507F0AD8B404D01F50080AD8A4D2
:1000B80023D00301EB51D8B41FD00301EB29A3ECE3
:1000C80062F00301EB070301EB51010D0401640E1B
:1000D800F324D96E0401040EF420DA6E000EDF6EEC
:1000E8003E0E4EEC62F00401040E0C6E0401640E28
:1000F8000B6EB6EC62F037D0620E0301EB5DD8B040
:100108001CD00301EA672FD01F50D7EC62F000091A
:10011800D8B429D01F507BEC62F00301EB51010DDC
:100128000401640EF324D96E0401040EF420DA6E7F
:100138001FC0DFFF0301EB2B16D09D9A010E0301B0
:10014800E96F11D00301EB51D8B40DD00301EA6770
:100158000AD09D9AE90E0D6E210E0C6E37EC62F0F6
:10016800010E0301EA6F9E9A0ED09EA00BD0562A6C
:10017800020E566405D08B948B92CD90000E566E6D
:100188009E9001D000F0F28C1EC0F5FF1DC0F8FF54
:100198001CC0F7FF1BC0F6FF1AC0F4FF19C0F3FF1D
:1001A80018C0DAFF17C0D9FF16C0E2FF15C0E1FF7B
:1001B80014C0EAFF13C0E9FF12C0FBFF11C0FAFF29
:1001C80010C0E0FF0FC0E8FF0EC0D8FF1000C6EF58
:1001D80057F0010E02018F6F000E0201876F000EAB
:1001E8000201886F000E0201896F000E02018A6FFA
:1001F800000E0201926F000E0201936F000E0201C1
:10020800946F000E0201956F000E0201966F000EAA
:100218000201976F000E02017B6F000E02017C6FD6
:10022800000E02017D6F000E02017E6F000E0201BA
:100238008D6F000E0201846F000E0201906F000E98
:100248000201856F000E02017F6F000E0201806FB0
:10025800000E0201816F000E0201826F000E020182
:100268006F6F000E02018B6F0201020E0001646FB6
:100278000201000E0001636F000E0001666F640E3C
:100288000001656F3CEC5FF00201020E0001646F33
:100298000201640E0001636F000E0001666F0A0E12
:1002A8000001656F3CEC5FF00201020E0001646F13
:1002B8000201710E0001636F000E0001666F0A0EE5
:1002C8000001656F3CEC5FF00001EBC067F00001D6
:1002D800EAC066F0FF0E0001696F910E0001686FB9
:1002E8001AEC5CF00009D8B427D0000E0201996F0F
:1002F800580E0201996501D0120002019951C1EC12
:100308003CF0FF0E00016F6FAC0E00016E6F06EC43
:1003180061F00201995165EC4EF0E90E00016F6F32
:10032800210E00016E6F06EC61F00201992B580E48
:1003380002019965E2D712000001EBC067F00001E5
:10034800EAC066F0FF0E0001696FB20E0001686F27
:100358000AEC48F00009D8B483D00001EBC067F07C
:100368000001EAC066F0E80E0001696F880E00011E
:10037800686F1AEC5CF00009D8B412D0E80E0001DE
:100388006C6FE10E00016B6F010E00016D6F0C0EBA
:1003980000016E6F070E00016F6F8DEC60F057D093
:1003A8000001EBC067F00001EAC066F0E80E00014A
:1003B800696F970E0001686F1AEC5CF00009D8B4F9
:1003C80012D0E80E00016C6FED0E00016B6F010E8C
:1003D80000016D6F0C0E00016E6F070E00016F6F4C
:1003E8008DEC60F034D00001EBC067F00001EAC08A
:1003F80066F0E80E0001696FA60E0001686F1AEC3E
:100408005CF00009D8B412D0E80E00016C6FF90E48
:1004180000016B6F010E00016D6F0C0E00016E6F15
:10042800070E00016F6F8DEC60F011D0E80E00012F
:100438006F6FD30E00016E6F06EC61F0E90E0001DC
:100448006F6F210E00016E6F06EC61F01200F70E5F
:100458000001716F020E0001706FE0EC5FF0120096
:100468000001EBC067F00001EAC066F0FF0E000172
:10047800696FB80E0001686F0AEC48F00009D8B43B
:1004880078D10001EBC067F00001EAC066F0E70E22
:100498000001696F6E0E0001686F1AEC5CF00009CC
:1004A800D8B412D0E70E00016C6FF80E00016B6F24
:1004B800020E00016D6F100E00016E6F070E000135
:1004C8006F6F8DEC60F04CD10001EBC067F000015C
:1004D800EAC066F0E70E0001696F480E0001686F18
:1004E8001AEC5CF00009D8B412D0E70E00016C6F6A
:1004F800E80E00016B6F020E00016D6F100E000117
:100508006E6F070E00016F6F8DEC60F029D100014E
:10051800EBC067F00001EAC066F0E70E0001696F02
:10052800800E0001686F1AEC5CF00009D8B412D094
:10053800E80E00016C6F180E00016B6F020E0001CF
:100548006D6F100E00016E6F070E00016F6F8DEC5E
:1005580060F006D10001EBC067F00001EAC066F068
:10056800E70E0001696F5B0E0001686F1AEC5CF022
:100578000009D8B412D0E80E00016C6F080E000113
:100588006B6F020E00016D6F100E00016E6F070E8B
:1005980000016F6F8DEC60F0E3D00001EBC067F0F5
:1005A8000001EAC066F0E70E0001696F0C0E000159
:1005B800686F1AEC5CF00009D8B412D0E80E00019C
:1005C8006C6F380E00016B6F020E00016D6F100E1C
:1005D80000016E6F070E00016F6F8DEC60F0C0D0E8
:1005E8000001EBC067F00001EAC066F0E60E00010A
:1005F800696FCD0E0001686F1AEC5CF00009D8B481
:1006080012D0E80E00016C6F280E00016B6F020E0D
:1006180000016D6F100E00016E6F070E00016F6F05
:100628008DEC60F09DD00001EBC067F00001EAC0DE
:1006380066F0E70E0001696F200E0001686F1AEC82
:100648005CF00009D8B412D0E80E00016C6F580EA7
:1006580000016B6F020E00016D6F100E00016E6FCE
:10066800070E00016F6F8DEC60F07AD00001EBC0CF
:1006780067F00001EAC066F0E60E0001696FE20E5D
:100688000001686F1AEC5CF00009D8B412D0E80ECB
:1006980000016C6F480E00016B6F020E00016D6F58
:1006A800100E00016E6F070E00016F6F8DEC60F089
:1006B80057D00001EBC067F00001EAC066F0E70E12
:1006C8000001696F340E0001686F1AEC5CF00009D4
:1006D800D8B412D0E80E00016C6F780E00016B6F71
:1006E800020E00016D6F100E00016E6F070E000103
:1006F8006F6F8DEC60F034D00001EBC067F0000143
:10070800EAC066F0E60E0001696FF70E0001686F37
:100718001AEC5CF00009D8B412D0E80E00016C6F36
:10072800480E00016B6F030E00016D6F100E000183
:100738006E6F070E00016F6F8DEC60F011D0E80E40
:1007480000016F6FD30E00016E6F06EC61F0E90EC9
:1007580000016F6F210E00016E6F06EC61F0120050
:10076800F70E0001716F1F0E0001706FE0EC5FF073
:1007780012000001EBC067F00001EAC066F0FE0E4F
:100788000001696F170E0001686F0AEC48F0000954
:10079800D8B4EED00001EBC078F00001EAC077F0E1
:1007A8000201020E00017A6F0201000E0001796F4A
:1007B8007F0E00017B6FF30E00017C6FE1EC55F0BA
:1007C80000C286F20201020E0001646F0201860E69
:1007D8000001636F73EC61F001C270F20201025113
:1007E8005F0AD8A4B3D086C264F2E70E0001676F2F
:1007F800D70E0001666F0201020E0001696F020147
:10080800640E0001686F0AEC48F00009D8B495D06E
:1008180002018651C8EC62F00009D8B404D0300E49
:100828000201865F06D0610E0201865F0A0E020190
:10083800862770C264F2E90E0001676F0E0E000190
:10084800666F0201020E0001696F0201640E000169
:10085800686F0AEC48F00009D8B466D0300E02017F
:10086800705F020170070001EBC067F00001EAC089
:1008780066F0FF0E0001696FF40E0001686F0AEC64
:1008880048F00009D8B402D0000E12D00001EBC025
:1008980067F00001EAC066F0FF0E0001696FCE0E36
:1008A8000001686F0AEC48F00009D8B404D0010EC2
:1008B80002016E6F09D0F20E0001716FCA0E0001BD
:1008C800706FE0EC5FF0120002018651780D330E74
:1008D8000001ED6FDF0EEE6FF3500001ED27F450CD
:1008E8000001EE2302017051180DF3500001ED27AD
:1008F800F4500001EE2302016E510C0DF35000017B
:10090800ED2500016B6FF4500001EE2100016C6FC2
:10091800030E00016D6F0C0E00016E6F070E0001D3
:100928006F6F8DEC60F01BD0FA0E0001716F3F0EF7
:100938000001706FE0EC5FF01200F90E0001716FBA
:100948004E0E0001706FE0EC5FF01200F30E000134
:10095800716FD10E0001706FE0EC5FF01200F70EBE
:100968000001716F3C0E0001706FE0EC5FF0120047
:100978000001EBC067F00001EAC066F0FF0E00015D
:10098800696FE40E0001686F0AEC48F00009D8B4FA
:100998003CD20001EBC070F00001EAC06FF0010E1C
:1009A8000001716F0201020E0001736F0201940EC3
:1009B8000001726F93EC3AF00009D8A4EFD0000E52
:1009C8000201945D010E02019559000E020196592B
:1009D800000E02019759D8A011D0F60E0001716FD0
:1009E8000C0E0001706FE0EC5FF0E90E00016F6F14
:1009F800210E00016E6F06EC61F0120094C293F2B2
:100A08000001EBC070F00001EAC06FF0000E0001B9
:100A1800716F0201020E0001736F0201940E000152
:100A2800726F93EC3AF00009D8A4A7D0000E020127
:100A3800945D010E02019559000E02019659000EAF
:100A480002019759D8A011D0F60E0001716F2B0E34
:100A58000001706FE0EC5FF0E90E00016F6F210E8E
:100A680000016E6F06EC61F0120094C292F202016E
:100A7800020E0001B26F0201000E0001B16FFB0E01
:100A88000001B46FAC0E0001B36F0201000192C205
:100A9800B5F00001B66BCFEC1BF00201020E0001AD
:100AA800716F0201000E0001706F22EC61F002010B
:100AB800020E0001B26F0201000E0001B16FFB0EC1
:100AC8000001B46F970E0001B36F0201000193C2D9
:100AD800B5F00001B66BCFEC1BF00201020E00016D
:100AE800716F0201000E0001706F22EC61F093C279
:100AF80067F002019251EDEC4CF067C087F268C0D4
:100B080088F269C089F26AC08AF287C278F088C21E
:100B180079F089C27AF08AC27BF0000E00017C6FFE
:100B28002DEC5BF00201020E0001B26F0201000E13
:100B38000001B16FFA0E0001B46F6F0E0001B36FC0
:100B480087C2B5F088C2B6F089C2B7F08AC2B8F0D9
:100B5800CFEC1BF00201020E0001716F0201000EC2
:100B68000001706F22EC61F0E90E00016F6F210E39
:100B780000016E6F06EC61F01200F50E0001716F56
:100B8800EC0E0001706FE0EC5FF0E90E00016F6F92
:100B9800210E00016E6F06EC61F012000001EBC03F
:100BA80070F00001EAC06FF0000E0001716F0201E1
:100BB800020E0001736F0201870E0001726F93EC41
:100BC8003AF00009D8A4A7D087C278F088C279F093
:100BD80089C27AF08AC27BF0000E00017C6F2DEC8E
:100BE8005BF00201020E0001B26F0201000E00016B
:100BF800B16FFC0E0001B46F3C0E0001B36F87C2E9
:100C0800B5F088C2B6F089C2B7F08AC2B8F0CFECA6
:100C18001BF00201020E0001716F0201000E0001BB
:100C2800706F22EC61F087C267F088C268F089C2F1
:100C380069F08AC26AF00201020E00016C6F0201BB
:100C4800920E00016B6F0201020E00016E6F02012D
:100C5800930E00016D6F83EC5AF00009D8B441D0AF
:100C68000201020E0001B26F0201000E0001B16F15
:100C7800FB0E0001B46FB00E0001B36F020100015A
:100C880092C2B5F00001B66BCFEC1BF00201020E68
:100C98000001716F0201000E0001706F22EC61F01B
:100CA8000201020E0001B26F0201000E0001B16FD5
:100CB800F10E0001B46F110E0001B36F02010001C3
:100CC80093C2B5F00001B66BCFEC1BF00201020E27
:100CD8000001716F0201000E0001706F22EC61F0DB
:100CE80011D0F50E0001716F0A0E0001706FE0EC73
:100CF8005FF0E90E00016F6F210E00016E6F06ECC8
:100D080061F01200E90E00016F6F210E00016E6F95
:100D180006EC61F012000001EBC064F00001EAC0CB
:100D280063F0FF0E0001666FE20E0001656F68EC6C
:100D380050F00009D8A410D0E90E00016F6F210E01
:100D480000016E6F06EC61F0F60E0001716FC60EC1
:100D58000001706FE0EC5FF0E90E00016F6F210E8B
:100D680000016E6F06EC61F0FF0E0001716F8A0ED4
:100D78000001706FE0EC5FF0FC0E0001716F140E63
:100D88000001706FE0EC5FF0FF0E0001716F310E33
:100D98000001706FE0EC5FF0FB0E0001716F270E31
:100DA8000001706FE0EC5FF0E90E00016F6F210E3B
:100DB80000016E6F06EC61F0FF0E0001716F620EAC
:100DC8000001706FE0EC5FF0FC0E0001716FFC0E2B
:100DD8000001706FE0EC5FF0FF0E0001716F330EE1
:100DE8000001706FE0EC5FF0FD0E0001716F540EB2
:100DF8000001706FE0EC5FF0E90E00016F6F210EEB
:100E080000016E6F06EC61F012000001EBC067F0A4
:100E18000001EAC066F0FE0E0001696FA80E00012D
:100E2800686F0AEC48F00009D8B4F3D20001EBC0AF
:100E38007FF00001EAC07EF0D5EC44F002018B6F30
:100E480002018B51D8B48CD202018B51020AD8A46A
:100E580002D00001EC2B0001EBC070F00001EAC0E9
:100E68006FF0000E0001716F0201020E0001736F36
:100E78000201940E0001726F93EC3AF00009D8A4B5
:100E88006FD20D0E0001ED6FEE6BEF6BF06B000192
:100E9800ED510201945D0001EE51020195590001E6
:100EA800EF51020196590001F05102019759D8B04B
:100EB8003ED202019751941195119611D8B437D2A8
:100EC8000001EBC067F00001EAC066F0FC0E00010B
:100ED800696F740E0001686F0AEC48F00009D8A425
:100EE80025D1FE0E0001ED6FFF0EEE6F020194C2D8
:100EF800EFF0020195C2F0F0D8900001EF37F0371B
:100F08000001ED510001EF270001EE510001F0232F
:100F1800D10E0001F16F020EF26F0001EF510001D6
:100F2800F1270001F0510001F223010E0001F12523
:100F3800D96E000E0001F221DA6EDF500001676FF2
:100F4800FE0E0001F36FFF0EF46F020194C2F5F07C
:100F5800020195C2F6F0D8900001F537F637000186
:100F6800F3510001F5270001F4510001F6230201B5
:100F7800D10E0001F525D96E0201020E0001F621FD
:100F8800DA6EDF50EDEC4CF067C07BF268C07CF2A3
:100F980069C07DF26AC07EF202017B29D8B47D293E
:100FA8007C117E11D8B4B1D07BC278F07CC279F0C4
:100FB8007DC27AF07EC27BF0000E00017C6F2DECC2
:100FC8005BF00201020E0001B26F0201000E000187
:100FD800B16FFB0E0001B46FC10E0001B36F7BC28D
:100FE800B5F07CC2B6F07DC2B7F07EC2B8F0CFECE7
:100FF8001BF00201020E0001716F0201000E0001D8
:10100800706F22EC61F00201020E0001B26F020162
:10101800000E0001B16FF00E0001B46FF60E000172
:10102800B36FFE0E0001ED6FFF0EEE6F020194C26A
:10103800EFF0020195C2F0F0D8900001EF37F037D9
:101048000001ED510001EF270001EE510001F023EE
:101058000201D10E0001EF25D96E0201020E000136
:10106800F021DA6EDF500001F16F0001F15100014B
:10107800B56F0001B66BFE0E0001F26FFF0EF36F45
:10108800020194C2F4F0020195C2F5F0D890000173
:10109800F437F5370001F2510001F4270001F3514C
:1010A8000001F523D10E0001F66F020EF76F000163
:1010B800F4510001F6270001F5510001F723010E54
:1010C8000001F625D96E000E0001F721DA6EDF5017
:1010D8000001F86F0001F8510001B76F0001B86B0B
:1010E800CFEC1BF00201020E0001716F0201000E2D
:1010F8000001706F22EC61F0E90E00016F6F210EA4
:1011080000016E6F06EC61F01200E90E00016F6FCE
:10111800210E00016E6F06EC61F0EF0E0001716F99
:10112800B30E0001706FE0EC5FF0120068EC5CF049
:101138000009D8B41200ECC367F0EDC368F0EEC341
:1011480069F0EFC36AF00201020E00016C6F020140
:10115800920E00016B6F0201020E00016E6F020118
:10116800930E00016D6F83EC5AF0FE0E0001ED6FD7
:10117800FF0EEE6F020194C2EFF0020195C2F0F08B
:10118800D8900001EF37F0370001ED510001EF274B
:101198000001EE510001F0230201D10E0001EF25FC
:1011A800D96E0201020E0001F021DA6E020192C22C
:1011B800DFFFFE0E0001ED6FFF0EEE6F020194C21D
:1011C800EFF0020195C2F0F0D8900001EF37F03748
:1011D8000001ED510001EF270001EE510001F0235D
:1011E800D10E0001F16F020EF26F0001EF51000104
:1011F800F1270001F0510001F223010E0001F12551
:10120800D96E000E0001F221DA6E020193C2DFFFEF
:10121800CCEC59F0E90E00016F6F210E00016E6FE2
:1012280006EC61F00201020E0001B26F0201000E2D
:101238000001B16FF00E0001B46F110E0001B36F21
:1012480094C2B5F095C2B6F096C2B7F097C2B8F09E
:10125800ECC3B9F0EDC3BAF0EEC3BBF0EFC3BCF01A
:10126800CFEC1BF00201020E0001716F0201000EAB
:101278000001706F22EC61F00201020E0001B26FF2
:101288000201000E0001B16FF00E0001B46FF60EFE
:101298000001B36F0201000192C2B5F00001B66B04
:1012A8000201000193C2B7F00001B86BCFEC1BF04C
:1012B8000201020E0001716F0201000E0001706F41
:1012C80022EC61F0E90E00016F6F210E00016E6FD4
:1012D80006EC61F0000E0201996F090E0201996592
:1012E80001D012008B84500E0001636FC30E000101
:1012F800646F000E0001656F000E0001666F52EC0E
:101308005EF08B94500E0001636FC30E0001646F92
:10131800000E0001656F000E0001666F52EC5EF072
:101328000201992B090E02019965DCD71200E90E1A
:1013380000016F6F210E00016E6F06EC61F0F30E75
:101348000001716F880E0001706FE0EC5FF0E90E2C
:1013580000016F6F210E00016E6F06EC61F0120044
:10136800E90E00016F6F210E00016E6F06EC61F04F
:10137800F40E0001716F3B0E0001706FE0EC5FF03E
:10138800E90E00016F6F210E00016E6F06EC61F02F
:10139800FF0E0001716F8A0E0001706FE0EC5FF0C4
:1013A800FD0E0001716F650E0001706FE0EC5FF0DB
:1013B800FC0E0001716F640E0001706FE0EC5FF0CD
:1013C800E90E00016F6F210E00016E6F06EC61F0EF
:1013D800FF0E0001716F620E0001706FE0EC5FF0AC
:1013E800FD0E0001716FD10E0001706FE0EC5FF02F
:1013F800FD0E0001716F0E0E0001706FE0EC5FF0E2
:10140800E90E00016F6F210E00016E6F06EC61F0AE
:1014180012000001EBC067F00001EAC066F0FF0EA1
:101428000001696F9F0E0001686F0AEC48F000091F
:10143800D8A412D00001EBC067F00001EAC066F042
:10144800FF0E0001696F6B0E0001686F0AEC48F02F
:101458000009D8B42DEF12F0000E0201836F0001CD
:10146800EBC067F00001EAC066F0FF0E0001696F8B
:101478009F0E0001686F0AEC48F00009D8B404D048
:10148800010E0201856F17D0000E0201856F000161
:10149800EBC067F00001EAC066F0FD0E0001696F5D
:1014A8007E0E0001686F0AEC48F00009D8B403D03A
:1014B800010E0201836F0001EBC067F00001EAC072
:1014C80066F0FF0E0001696F940E0001686F0AEC68
:1014D80048F00009D8B459D268EC5CF00009D8B4D7
:1014E8001200E90E00016F6F210E00016E6F06EC0D
:1014F80061F0ECC367F0EDC368F0EEC369F0EFC3C9
:101508006AF00201020E00016C6F0201920E0001E6
:101518006B6F0201020E00016E6F0201930E000153
:101528006D6F83EC5AF0010E0201906F000E0201FC
:10153800986FA9D1000E02018F6F000E0201996FFA
:1015480002019951D8A447D002019851020D000E0A
:101558000001ED6F050EEE6FF3500001ED27F4501A
:101568000001EE2302019951020DF3500001ED250F
:10157800D96EF4500001EE21DA6EDF50D8A428D0DD
:1015880002019851020D000E0001ED6F050EEE6F7D
:10159800F3500001ED27F4500001EE2302019951A8
:1015A800020DF3500001ED27F4500001EE23010E67
:1015B8000001ED25D96E000E0001EE21DA6EDF5034
:1015C800D8A406D099C290F2010E02018F6F03D001
:1015D8000201992BB5D702018505D8A4C3D0020111
:1015E8008F6715D0F30E00016F6FF50E00016E6F57
:1015F80006EC61F00201985165EC4EF0E90E00012D
:101608006F6F210E00016E6F06EC61F03AD1020196
:101618009051D8B450D0000E0201996F46D0020103
:101628009851020D000E0001ED6F050EEE6FF3509C
:101638000001ED27F4500001EE2302019951020D3B
:10164800F3500001ED25D96EF4500001EE21DA6E59
:1016580002019251DF6227D002019851020D000E5B
:101668000001ED6F050EEE6FF3500001ED27F45009
:101678000001EE2302019951020DF3500001ED27FC
:10168800F4500001EE23010E0001ED25D96E000E85
:101698000001EE21DA6E02019351DF6204D0000EE0
:1016A80002018F6F08D00201992B020190510201AB
:1016B800995DD8A0B4D702018F6715D0F40E000148
:1016C8006F6FA40E00016E6F06EC61F00201985175
:1016D80065EC4EF0E90E00016F6F210E00016E6F90
:1016E80006EC61F0CED002019851020D000E000107
:1016F800ED6F050EEE6FF3500001ED27F450000179
:10170800EE2302019051020DF3500001ED25D96E30
:10171800F4500001EE21DA6E020192C2DFFF0201ED
:101728009851020D000E0001ED6F050EEE6FF3509B
:101738000001ED27F4500001EE2302019051020D43
:10174800F3500001ED27F4500001EE23010E0001D3
:10175800ED25D96E000E0001EE21DA6E020193C26A
:10176800DFFF8FD002019051D8B48BD0000E020158
:10177800996F81D002019851020D000E0001ED6FA2
:10178800050EEE6FF3500001ED27F4500001EE2333
:1017980002019951020DF3500001ED25D96EF45064
:1017A8000001EE21DA6E02019251DF6262D002017D
:1017B8009851020D000E0001ED6F050EEE6FF3500B
:1017C8000001ED27F4500001EE2302019951020DAA
:1017D800F3500001ED27F4500001EE23010E000143
:1017E800ED25D96E000E0001EE21DA6E020193514B
:1017F800DF623FD002019851020D000E0001ED6F2B
:10180800050EEE6FF3500001ED27F4500001EE23B2
:1018180002019951020DF3500001ED25D96EF450E3
:101828000001EE21DA6E000EDF6E02019851020D02
:10183800000E0001ED6F050EEE6FF3500001ED276D
:10184800F4500001EE2302019951020DF3500001FA
:10185800ED27F4500001EE23010E0001ED25D96EAD
:10186800000E0001EE21DA6E000EDF6E99C28CF2D6
:1018780008D00201992B020190510201995DD8A06C
:1018880079D70201982B580E0201986553D6CCECF3
:1018980059F0000E0201996F2CD002018505D8A4D9
:1018A80002D08B8401D08B82500E0001636FC30E6F
:1018B8000001646F000E0001656F000E0001666F85
:1018C80052EC5EF002018505D8A402D08B9401D0B9
:1018D8008B92500E0001636FC30E0001646F000EFF
:1018E8000001656F000E0001666F52EC5EF00201A8
:1018F800992B090E02019965D0D702018505D8A454
:1019080019D00201020E0001B26F0201000E00019F
:10191800B16FF10E0001B46FFE0E0001B36FECC39E
:10192800B5F0EDC3B6F0EEC3B7F0EFC3B8F0CFEC47
:101938001BF018D00201020E0001B26F0201000E66
:101948000001B16FEC0E0001B46F640E0001B36FBB
:10195800ECC3B5F0EDC3B6F0EEC3B7F0EFC3B8F023
:10196800CFEC1BF00201020E0001716F0201000EA4
:101978000001706F22EC61F0E90E00016F6F210E1B
:1019880000016E6F06EC61F0120002018305D8B405
:1019980073D20001EBC07FF00001EAC07EF0D5EC05
:1019A80044F002018B6F02018B6711D0F30E000126
:1019B800716F3E0E0001706FE0EC5FF0E90E000100
:1019C8006F6F210E00016E6F06EC61F012000201CC
:1019D8008B51020AD8A402D00001EC2BE90E0001B9
:1019E8006F6F210E00016E6F06EC61F00001EBC015
:1019F80070F00001EAC06FF0000E0001716F020183
:101A0800020E0001736F0201940E0001726F93ECD5
:101A18003AF00009D8A403D094C291F211D0F00E84
:101A28000001716F3F0E0001706FE0EC5FF0E90E8E
:101A380000016F6F210E00016E6F06EC61F012005D
:101A480002019151D8B404D0030E0201916511D05E
:101A5800F30E0001716F630E0001706FE0EC5FF030
:101A6800E90E00016F6F210E00016E6F06EC61F048
:101A780012000001EBC064F00001EAC063F0010E3F
:101A88000001656F0201020E0001676F0201710E0D
:101A98000001666F5EEC55F00009D8B411D0F20E63
:101AA8000001716FA20E0001706FE0EC5FF0E90EAB
:101AB80000016F6F210E00016E6F06EC61F01200DD
:101AC8000201020E0001646F0201710E0001636FD2
:101AD800BBEC5FF002019105D8B405D00201915129
:101AE800020AD8A429D102017251D8B405D0020142
:101AF8007251200AD8A40FD1000E0201726F0201A0
:101B08009105D8A411D0E90E0001676F190E0001E4
:101B1800666F0201020E0001696F0201710E000179
:101B2800686F0AEC48F015D002019151020AD8A456
:101B380016D0E90E0001676F1D0E0001666F0201E5
:101B4800020E0001696F0201710E0001686F0AEC54
:101B580048F00009D8A403D0000E02018F6F0201DB
:101B68008F6711D0F60E0001716FA70E0001706F1C
:101B7800E0EC5FF0E90E00016F6F210E00016E6F5F
:101B880006EC61F0120002019105D8A415D00201FB
:101B98007151640AD8A402D0000E20D002017151FC
:101BA800650AD8A402D0010E19D002017151660A43
:101BB800D8A41200020E12D002019151020AD8A430
:101BC8005BD102017151620AD8A402D0030E06D07B
:101BD80002017151640AD8A404D0040E02018E6F68
:101BE8004BD102017151680AD8A412000401040EF5
:101BF8000001646F0401640E0001636F03010001BA
:101C0800EBC365F00001666B3CEC5FF0000E03016E
:101C1800EB6F000E0301EA6FFE0E00016F6F090EF5
:101C280000016E6F06EC61F0E90E00016F6F210E86
:101C380000016E6F06EC61F03E0E3DEC61F0000EA7
:101C480002018D6F2AEC63F09E9A9D8A25D0E00EE2
:101C58000001636F930E0001646F040E0001656F4D
:101C6800000E0001666F52EC5EF002018D2B190E1A
:101C780002018D6511D0E90E00016F6F210E000180
:101C88006E6F06EC61F0ED0E0001716FF70E00014A
:101C9800706FE0EC5FF012000301EA51D8B4D7D7B7
:101CA8009D9A010E02018F6F300E0401646504D005
:101CB800330E040164650BD0EE0E0001716F290E1E
:101CC8000001706FE0EC5FF0000E02018F6F0401FD
:101CD8006451D00F0201846F02018451040F020184
:101CE8008E6F0401040E0001646F0401640E00018C
:101CF800636F03010001EBC365F00001666B3CEC08
:101D08005FF0000E0301EB6F000E0301EA6F0201A2
:101D18008F67B2D01200F10E0001716FA60E00019C
:101D2800706FE0EC5FF0E90E00016F6F210E0001AB
:101D38006E6F06EC61F0120002019151030AD8A4FB
:101D48009BD002017151660AD8B411D0E90E000186
:101D5800716F240E0001706FE0EC5FF0E90E000176
:101D68006F6F210E00016E6F06EC61F01200020128
:101D78007251D8B470D002017151D8B46CD002013C
:101D88007351D8B405D002017351200AD8A463D086
:101D980072C264F2000E0201726FE70E0001676FF3
:101DA800D70E0001666F0201020E0001696F020181
:101DB800710E0001686F0AEC48F00009D8A403D03E
:101DC800000E02018F6FE90E0001676F0E0E000111
:101DD800666F0201020E0001696F0201640E0001C4
:101DE800686F0AEC48F00009D8A403D0000E02017D
:101DF8008F6F02018F6711D0F20E0001716F510EC3
:101E08000001706FE0EC5FF0E90E00016F6F210ECA
:101E180000016E6F06EC61F0120002017151C8EC0E
:101E280062F00009D8B404D0300E0201715F06D008
:101E3800610E0201715F0A0E0201712702017151E0
:101E4800050DF350080F02018E6F02016451CF0F88
:101E580002018E2711D0F00E0001716FC90E00012A
:101E6800706FE0EC5FF0E90E00016F6F210E00016A
:101E78006E6F06EC61F0120002018551D8B4B6D13C
:101E880068EC5CF00009D8B41200E90E00016F6F2D
:101E9800210E00016E6F06EC61F0ECC367F0EDC334
:101EA80068F0EEC369F0EFC36AF00201020E0001A8
:101EB8006C6F0201920E00016B6F0201020E0001AD
:101EC8006E6F0201930E00016D6F83EC5AF0000EE5
:101ED80002018F6F000E0201996F02019951D8A477
:101EE80047D002018E51020D000E0001ED6F050E64
:101EF800EE6FF3500001ED27F4500001EE230201CC
:101F08009951020DF3500001ED25D96EF4500001EE
:101F1800EE21DA6EDF50D8A428D002018E51020DCE
:101F2800000E0001ED6F050EEE6FF3500001ED2776
:101F3800F4500001EE2302019951020DF350000103
:101F4800ED27F4500001EE23010E0001ED25D96EB6
:101F5800000E0001EE21DA6EDF50D8A406D099C237
:101F680090F2010E02018F6F03D00201992BB5D7B1
:101F780002018F6709D0EF0E0001716FE20E0001B8
:101F8800706FE0EC5FF0120002019051D8B450D0AD
:101F9800000E0201996F46D002018E51020D000E0B
:101FA8000001ED6F050EEE6FF3500001ED27F450C0
:101FB8000001EE2302019951020DF3500001ED25B5
:101FC800D96EF4500001EE21DA6E02019251DF62FF
:101FD80027D002018E51020D000E0001ED6F050E93
:101FE800EE6FF3500001ED27F4500001EE230201DB
:101FF8009951020DF3500001ED27F4500001EE2332
:10200800010E0001ED25D96E000E0001EE21DA6EF9
:1020180002019351DF6204D0000E02018F6F08D0D5
:102028000201992B020190510201995DD8A0B4D701
:1020380002018F6709D0F00E0001716F6D0E00016B
:10204800706FE0EC5FF0120002018E51020D000E7D
:102058000001ED6F050EEE6FF3500001ED27F4500F
:102068000001EE2302019051020DF3500001ED250D
:10207800D96EF4500001EE21DA6E020192C2DFFF40
:1020880002018E51020D000E0001ED6F050EEE6F7C
:10209800F3500001ED27F4500001EE2302019051A6
:1020A800020DF3500001ED27F4500001EE23010E5C
:1020B8000001ED25D96E000E0001EE21DA6E020155
:1020C80093C2DFFFCCEC59F002018451D8B42BD075
:1020D8000201020E0001B26F0201000E0001B16F91
:1020E800E90E0001B46FE60E0001B36FECC3B5F062
:1020F800EDC3B6F0EEC3B7F0EFC3B8F002010001CC
:1021080091C2B9F00001BA6B0201000171C2BBF0C3
:102118000001BC6B0201000184C2BDF00001BE6B6E
:10212800CFEC1BF024D00201020E0001B26F0201B5
:10213800000E0001B16FEB0E0001B46FC30E000179
:10214800B36FECC3B5F0EDC3B6F0EEC3B7F0EFC3B1
:10215800B8F00201000191C2B9F00001BA6B0201A6
:10216800000171C2BBF00001BC6BCFEC1BF0020197
:10217800020E0001716F0201000E0001706F22EC67
:1021880061F0E90E00016F6F210E00016E6F06EC21
:1021980061F0000E0201996F090E0201996501D0E4
:1021A80012008B84500E0001636FC30E0001646F30
:1021B800000E0001656F000E0001666F52EC5EF0C4
:1021C8008B94500E0001636FC30E0001646F000E04
:1021D8000001656F000E0001666F52EC5EF00201AF
:1021E800992B090E02019965DCD7120002018305BB
:1021F800D8A450D0000E0201996F02019951D8A4B9
:102208008FD0000E02018C6F3ED002018C51020D5E
:10221800000E0001ED6F050EEE6FF3500001ED2783
:10222800F4500001EE2302019951020DF350000110
:10223800ED25D96EF4500001EE21DA6E000EDF6E46
:1022480002018C51020D000E0001ED6F050EEE6FBC
:10225800F3500001ED27F4500001EE2302019951DB
:10226800020DF3500001ED27F4500001EE23010E9A
:102278000001ED25D96E000E0001EE21DA6E000E88
:10228800DF6E02018C2B580E02018C65BED702014D
:10229800992BB3D7000E0201996F02019951D8A466
:1022A8003FD002018E51020D000E0001ED6F050EA8
:1022B800EE6FF3500001ED27F4500001EE23020108
:1022C8009951020DF3500001ED25D96EF45000012B
:1022D800EE21DA6E000EDF6E02018E51020D000E45
:1022E8000001ED6F050EEE6FF3500001ED27F4507D
:1022F8000001EE2302019951020DF3500001ED2770
:10230800F4500001EE23010E0001ED25D96E000EF8
:102318000001EE21DA6E000EDF6E0201992BBDD7A7
:10232800CCEC59F002018305D8A411D00201020EA9
:102338000001B26F0201000E0001B16FE90E000149
:10234800B46FA60E0001B36FCFEC1BF043D00201AF
:102358008451D8B423D00201020E0001B26F0201E9
:10236800000E0001B16FEB0E0001B46FF90E000111
:10237800B36F0201000191C2B5F00001B66B020112
:10238800000171C2B7F00001B86B0201000184C2FC
:10239800B9F00001BA6BCFEC1BF01CD00201020EA1
:1023A8000001B26F0201000E0001B16FF10E0001D1
:1023B800B46F7A0E0001B36F0201000191C2B5F04B
:1023C8000001B66B0201000171C2B7F00001B86BE1
:1023D800CFEC1BF00201020E0001716F0201000E2A
:1023E8000001706F22EC61F0E90E00016F6F210EA1
:1023F80000016E6F06EC61F0000E0201996F090E84
:102408000201996501D012008B82500E0001636FA2
:10241800C30E0001646F000E0001656F000E00011D
:10242800666F52EC5EF08B92500E0001636FC30E24
:102438000001646F000E0001656F000E0001666FF9
:1024480052EC5EF00201992B090E02019965DCD766
:1024580012000001EBC067F00001EAC066F0FF0E51
:102468000001696FBE0E0001686F1AEC5CF000098C
:10247800D8B49ED00401040E0001646F0401640EF8
:102488000001636F03010001EBC365F00001666B97
:102498003CEC5FF0000E0301EB6F000E0301EA6FE6
:1024A800F50E00016F6FCC0E00016E6F06EC61F047
:1024B800E90E00016F6F210E00016E6F06EC61F0EE
:1024C8003E0EE9EC60F0000E02018D6F2AEC63F01D
:1024D8009E9A9D8A25D0E00E0001636F930E00013D
:1024E800646F040E0001656F000E0001666F52EC08
:1024F8005EF002018D2B190E02018D6511D0E90ED7
:1025080000016F6F210E00016E6F06EC61F0F60E90
:102518000001716FE50E0001706FE0EC5FF01200D2
:102528000301EA51D8B4D7D79D9A04016451590AD6
:10253800D8B408D004016451790AD8A412D004018F
:1025480065670FD0FD0E0001716F200E0001706FDE
:10255800E0EC5FF0000E0201E96FCCEC59F0FF00EF
:102568001200E90E00016F6F210E00016E6F06EC7C
:1025780061F0F60E0001716FE50E0001706FE0EC7E
:102588005FF00401040E0001646F0401640E000191
:10259800636F03010001EBC365F00001666B3CEC5F
:1025A8005FF0000E0301EB6F000E0301EA6F1200EB
:1025B8000001EBC067F00001EAC066F0FF0E000101
:1025C800696F3C0E0001686F1AEC5CF00009D8B422
:1025D800C0D10401040E0001646F0401640E0001FF
:1025E800636F03010001EBC365F00001666B3CEC0F
:1025F8005FF0000E0301EB6F000E0301EA6FEA0EB5
:1026080000016F6F640E00016E6F06EC61F0E90E59
:1026180000016F6F210E00016E6F06EC61F03E0E37
:102628003DEC61F0000E02018D6F2AEC63F09E9A7A
:102638009D8A25D0E00E0001636F930E0001646F40
:10264800040E0001656F000E0001666F52EC5EF02B
:1026580002018D2B190E02018D6511D0E90E0001C2
:102668006F6F210E00016E6F06EC61F0F00E000135
:10267800716F9B0E0001706FE0EC5FF012000301B8
:10268800EA51D8B4D7D79D9A0401040E0001646FAB
:102698000401640E0001636FFF0E0001666FD30E24
:1026A8000001656F72EC5DF00009D8B441D10401F6
:1026B800040E0001646F0401640E0001636F0301DE
:1026C8000001EBC365F00001666B3CEC5FF0000EA7
:1026D8000301EB6F000E0301EA6FFA0E00016F6F42
:1026E8000F0E00016E6F06EC61F0E90E00016F6FCE
:1026F800210E00016E6F06EC61F03E0EE9EC60F011
:10270800000E02018D6F2AEC63F09E9A9D8A30D0EC
:10271800E00E0001636F930E0001646F040E000168
:10272800656F000E0001666F52EC5EF002018D2BA2
:102738000301EB5102016F19D8B403D0000E020156
:102748008D6F190E02018D6511D0E90E00016F6FB2
:10275800210E00016E6F06EC61F0F00E0001716F42
:102768009B0E0001706FE0EC5FF01200EBC36FF29C
:102778000301EA51D8B4CCD70401040E00017F6FDD
:102788000401640E00017E6FD5EC44F002018B6FEA
:1027980002018B51D8B4BBD002018B51020AD8A4D4
:1027A80002D00301EB2B0401040E0001706F040139
:1027B800640E00016F6F010E0001716F0201020EBD
:1027C8000001736F02017F0E0001726F4AEC38F04E
:1027D8000009D8A49CD002018251800A800F0BE125
:1027E800000E0201815D07E1000E0201805D03E138
:1027F800010E02017F5DD8A08AD07FC2B2F580C2E7
:10280800B3F581C2B4F582C2B5F525EE00F011EE3C
:1028180000F0B60EDECFE6FFE82EFCD7020E01016F
:10282800B66F000E0101B76F000E0101B86F000E00
:102838000101B96F54EC54F000C1EDF001C1EEF0A4
:1028480002C1EFF003C1F0F00001F051ED11EE11FB
:10285800EF11D8A44BD0C7EC49F0F10E0001716F0D
:102868004E0E0001706FE0EC5FF00201020E0001F5
:10287800B26F0201000E0001B16FF70E0001B46FD4
:10288800CA0E0001B36FB2C5B5F0B3C5B6F0B4C592
:10289800B7F0B5C5B8F0CFEC1BF00201020E00018D
:1028A800716F0201000E0001706F22EC61F0E90EF9
:1028B80000016F6F210E00016E6F06EC61F0FD0ED6
:1028C8000001716F200E0001706FE0EC5FF0000EE8
:1028D8000201E96FCCEC59F0E90E00016F6F210E8F
:1028E80000016E6F06EC61F0FF001200F10E0001AE
:1028F800716F220E0001706FE0EC5FF0E90E0001CD
:102908006F6F210E00016E6F06EC61F01200F40E7D
:102918000001716FE80E0001706FE0EC5FF0E90EE6
:1029280000016F6F210E00016E6F06EC61F012005E
:10293800F90E0001716F7F0E0001706FE0EC5FF01F
:10294800E90E00016F6F210E00016E6F06EC61F059
:1029580012000001EBC067F00001EAC066F0FB0E50
:102968000001696F6B0E0001686F1AEC5CF00009DA
:10297800D8B471D10401040E0001646F0401640E1F
:102988000001636F03010001EBC365F00001666B92
:102998003CEC5FF0000E0301EB6F000E0301EA6FE1
:1029A800E90E00016F6F210E00016E6F06EC61F0F9
:1029B800F30E00016F6F180E00016E6F06EC61F0E8
:1029C800E90E00016F6F210E00016E6F06EC61F0D9
:1029D8003E0E3DEC61F0000E02018D6F2AEC63F0B3
:1029E8009E9A9D8A25D0E00E0001636F930E000128
:1029F800646F040E0001656F000E0001666F52ECF3
:102A08005EF002018D2B190E02018D6511D0E90EC1
:102A180000016F6F210E00016E6F06EC61F0EB0E86
:102A28000001716F8A0E0001706FE0EC5FF0120018
:102A38000301EA51D8B4D7D79D9A04016451590AC1
:102A4800D8B408D004016451790AD8A4F3D0040199
:102A58006567F0D00401040E0001646F0401640E80
:102A68000001636F03010001EBC365F00001666BB1
:102A78003CEC5FF0000E0301EB6F000E0301EA6F00
:102A8800E90E00016F6F210E00016E6F06EC61F018
:102A9800F40E00016F6F5E0E00016E6F06EC61F0C0
:102AA800E90E00016F6F210E00016E6F06EC61F0F8
:102AB8003E0EE9EC60F0000E02018D6F2AEC63F027
:102AC8009E9A9D8A28D0E00E0001636F930E000144
:102AD800646F040E0001656F000E0001666F52EC12
:102AE8005EF002018D2B0301EB5102016F19D8B47E
:102AF80003D0000E02018D6F190E02018D6509D0F9
:102B0800EB0E0001716F8A0E0001706FE0EC5FF050
:102B18001200EBC36FF20301EA51D8B4D4D79D9ADF
:102B2800E90E00016F6F210E00016E6F06EC61F077
:102B3800E90E00016F6F210E00016E6F06EC61F067
:102B480004016451D8B465D00401786762D00401E7
:102B5800040E0001666F0401640E0001656FA6ECA7
:102B680061F00009D8B444D0EC0E0001716F2F0E4B
:102B78000001706FE0EC5FF0E90E00016F6F210E4D
:102B880000016E6F06EC61F00401040E0001786F1D
:102B98000401640E0001776F0201020E00017A6FD2
:102BA8000201EA0E0001796F150E00017B6F000E1D
:102BB80000017C6FE1EC55F0500E0001636FC30E0D
:102BC8000001646F000E0001656F000E0001666F62
:102BD80052EC5EF0000E3EEC2AF00009D8B404D0A6
:102BE800010E0301E86F1200000E0301E86F1200E6
:102BF800F20E0001716F280E0001706FE0EC5FF0BB
:102C0800E90E00016F6F210E00016E6F06EC61F096
:102C18001200E90E0001716F660E0001706FE0ECA2
:102C28005FF0E90E00016F6F210E00016E6F06EC78
:102C380061F01200EB0E0001716F8A0E0001706FD7
:102C4800E0EC5FF0E90E00016F6F210E00016E6F7E
:102C580006EC61F012000001EBC067F00001EAC069
:102C680066F0FF0E0001696F740E0001686F1AECC0
:102C78005CF00009D8B433D0E90E00016F6F210E63
:102C880000016E6F06EC61F00201020E0001B26FE6
:102C98000201000E0001B16FFC0E0001B46F500E6E
:102CA8000001B36F7CEC5BF08CC0B5F08DC0B6F062
:102CB8008EC0B7F0CFEC1BF00201020E0001716F5D
:102CC8000201000E0001706F22EC61F0E90E0001B4
:102CD8006F6F210E00016E6F06EC61F012000001AB
:102CE800EBC067F00001EAC066F0F40E0001696FFE
:102CF8009C0E0001686F1AEC5CF00009D8B4D7D0BC
:102D0800E90E00016F6F210E00016E6F06EC61F095
:102D18000201020E0001B26F0201000E0001B16F44
:102D2800FB0E0001B46FEB0E0001B36FE90E00015A
:102D3800B66F050E0001B56FCFEC1BF00201020E55
:102D48000001716F0201000E0001706F22EC61F04A
:102D5800E90E00016F6F210E00016E6F06EC61F045
:102D6800F70E0001716F590E0001706FE0EC5FF013
:102D7800E90E00016F6F210E00016E6F06EC61F025
:102D8800FA0E0001716F860E0001706FE0EC5FF0C3
:102D98000201020E0001716F0201AE0E0001706F98
:102DA80022EC61F00401040E0001716F0401C80EE9
:102DB8000001706F22EC61F0E90E00016F6F210EC7
:102DC80000016E6F06EC61F00201020E0001B26FA5
:102DD8000201000E0001B16FFD0E0001B46F850EF7
:102DE8000001B36FE90E0001B66F140E0001B56F54
:102DF800CFEC1BF00201020E0001716F0201000E00
:102E08000001706F22EC61F00201020E0001B26F46
:102E18000201000E0001B16FF80E0001B46F000E40
:102E28000001B36FE70E0001B66F920E0001B56F97
:102E3800CFEC1BF00201020E00016E6F0201000EC2
:102E480000016D6F90EC62F0E90E0001716F210EC8
:102E58000001706FE0EC5FF00201020E0001B26F3A
:102E68000201000E0001B16FFC0E0001B46FD70E15
:102E78000001B36FB2C5B5F0B3C5B6F0B4C5B7F0CD
:102E8800B5C5B8F0CFEC1BF00201020E00016E6F61
:102E98000201000E00016D6F90EC62F0E90E000176
:102EA8006F6F210E00016E6F06EC61F012000001D9
:102EB800EBC064F00001EAC063F0FF0E0001666F2A
:102EC800E00E0001656F72EC5DF00009D8B4B6EF52
:102ED8001BF0E90E00016F6F210E00016E6F06EC0A
:102EE80061F0000E0201996F05D07E0EE9EC60F0EA
:102EF8000201992B210E02019965F7D7F80E0001FE
:102F08006F6F290E00016E6F06EC61F0000E020172
:102F1800996F05D07E0EE9EC60F00201992B210E25
:102F280002019965F7D7E90E00016F6F210E0001C4
:102F38006E6F06EC61F0E90E00016F6F210E000163
:102F48006E6F06EC61F0FD0E0001716F430E00011B
:102F5800706FE0EC5FF0FF0E0001716FE00E000192
:102F6800706FFF0E0001736F460E0001726F93ECD5
:102F780051F0FF0E0001716FBE0E0001706FF50E6B
:102F88000001736FAC0E0001726F93EC51F0F40EF8
:102F98000001716F9C0E0001706FF40E0001736FD9
:102FA800810E0001726F93EC51F0FF0E0001716FFA
:102FB8003C0E0001706FFB0E0001736F810E000163
:102FC800726F93EC51F0FB0E0001716F6B0E0001F4
:102FD800706FF50E0001736F2B0E0001726F93EC8A
:102FE80051F0E90E00016F6F210E00016E6F06ECC3
:102FF80061F0FB0E0001716FD60E0001706FE0ECFE
:103008005FF0FF0E0001716F740E0001706FF70E14
:103018000001736F920E0001726F93EC51F0E90E8C
:1030280000016F6F210E00016E6F06EC61F0FE0E5D
:103038000001716F400E0001706FE0EC5FF0010E4F
:103048000201996F38D00201020E0001646F02017B
:10305800000E0001636F000E0001666F320E000162
:10306800656F3CEC5FF00201020E0001B26F0201D5
:10307800000E0001B16FFD0E0001B46FA50E000136
:10308800B36F0201000199C2B5F00001B66BCFEC35
:103098001BF00201020E0001716F0201000E000117
:1030A800706FF90E0001736F350E0001726F93ECAB
:1030B80051F00201992B0C0E02019965C4D7010E3B
:1030C8000201996F38D00201020E0001646F0201FB
:1030D800000E0001636F000E0001666F320E0001E2
:1030E800656F3CEC5FF00201020E0001B26F020155
:1030F800000E0001B16FFC0E0001B46FC40E000198
:10310800B36F0201000199C2B5F00001B66BCFECB4
:103118001BF00201020E0001716F0201000E000196
:10312800706FFA0E0001736F270E0001726F93EC37
:1031380051F00201992B0C0E02019965C4D7E90ED2
:1031480000016F6F210E00016E6F06EC61F0FD0E3D
:103158000001716FFB0E0001706FE0EC5FF0FF0E75
:103168000001716F260E0001706FEA0E0001736F87
:10317800250E0001726F93EC51F0FE0E0001716F85
:10318800EF0E0001706FEE0E0001736FBE0E0001AE
:10319800726F93EC51F0FF0E0001716F050E000184
:1031A800706FEF0E0001736F200E0001726F93ECC9
:1031B80051F0FF0E0001716F100E0001706FEF0EDD
:1031C8000001736F510E0001726F93EC51F0FE0E07
:1031D8000001716FE40E0001706FEE0E0001736F55
:1031E8008D0E0001726F93EC51F0FE0E0001716FAD
:1031F800FA0E0001706FEE0E0001736FEF0E000102
:10320800726F93EC51F0FF0E0001716F1B0E0001FD
:10321800706FEF0E0001736F820E0001726F93ECF6
:1032280051F0E90E00016F6F210E00016E6F06EC80
:1032380061F0FD0E0001716FED0E0001706FE0ECA2
:103248005FF0FE0E0001716FB50E0001706FEB0E9E
:103258000001736F160E0001726F93EC51F0FE0EB1
:103268000001716FCD0E0001706FFF0E0001736FCA
:10327800DC0E0001726F93EC51F0FE0E0001716FCD
:10328800C10E0001706FEB0E0001736F500E00014C
:10329800726F93EC51F0E90E00016F6F210E00017F
:1032A8006E6F06EC61F0FE0E0001716F9B0E00015F
:1032B800706FF20E0001736FF10E0001726F93ECE4
:1032C80051F0FD0E0001716F750E0001706FF10E67
:1032D8000001736FD20E0001726F93EC51F0E90E8A
:1032E80000016F6F210E00016E6F06EC61F0FD0E9C
:1032F8000001716FFB0E0001706FE0EC5FF0FE0ED5
:103308000001716F5A0E0001706FEC0E0001736FAF
:10331800FD0E0001726F93EC51F0FE0E0001716F0B
:10332800740E0001706FED0E0001736F610E0001E5
:10333800726F93EC51F0FE0E0001716F810E000167
:10334800706FED0E0001736F930E0001726F93ECB6
:1033580051F0FE0E0001716F4D0E0001706FEC0E02
:103368000001736FCB0E0001726F93EC51F0FE0EEB
:103378000001716F670E0001706FED0E0001736F31
:103388002F0E0001726F93EC51F0FE0E0001716F69
:103398008E0E0001706FED0E0001736FC50E0001F7
:1033A800726F93EC51F0E90E00016F6F210E00016E
:1033B8006E6F06EC61F0FD0E0001716FED0E0001FD
:1033C800706FE0EC5FF0FD0E0001716FC30E00013D
:1033D800706FEA0E0001736FA00E0001726F93EC1C
:1033E80051F0FE0E0001716F250E0001706FFF0E87
:1033F8000001736FDC0E0001726F93EC51F0FD0E4B
:103408000001716FDF0E0001706FEA0E0001736F2B
:10341800DB0E0001726F93EC51F0E90E00016F6F43
:10342800210E00016E6F06EC61F0F70E0001716F5E
:10343800E50E0001706FF20E0001736F7A0E000145
:10344800726F93EC51F0FF0E0001716FC90E00010D
:10345800706FF20E0001736F7A0E0001726F93ECB9
:1034680051F0E90E00016F6F210E00016E6F06EC3E
:1034780061F0FE0E0001716F330E0001706FE0EC19
:103488005FF0FF0E0001716F980E0001706FF40E6F
:103498000001736FC60E0001726F93EC51F0E80ED5
:1034A8000001716F880E0001706FFC0E0001736FD0
:1034B800780E0001726F93EC51F0E80E0001716F05
:1034C800970E0001706FFC0E0001736F8B0E0001E8
:1034D800726F93EC51F0E80E0001716FA60E0001B7
:1034E800706FFC0E0001736F9E0E0001726F93ECFB
:1034F80051F0E70E0001716F6E0E0001706FFB0E48
:103508000001736F550E0001726F93EC51F0E70ED6
:103518000001716F480E0001706FFA0E0001736FA1
:103528009D0E0001726F93EC51F0E70E0001716F70
:10353800800E0001706FFC0E0001736FB10E000168
:10354800726F93EC51F0E70E0001716F5B0E000192
:10355800706FFC0E0001736F280E0001726F93EC00
:1035680051F0E70E0001716F0C0E0001706FF60E3E
:103578000001736F4A0E0001726F93EC51F0E60E72
:103588000001716FCD0E0001706FF50E0001736FB1
:103598004C0E0001726F93EC51F0E70E0001716F51
:1035A800200E0001706FF60E0001736F690E0001A6
:1035B800726F93EC51F0E60E0001716FE20E00019C
:1035C800706FF50E0001736F6C0E0001726F93EC53
:1035D80051F0E70E0001716F340E0001706FF60EA6
:1035E8000001736F880E0001726F93EC51F0E60EC4
:1035F8000001716FF70E0001706FF50E0001736F17
:103608008C0E0001726F93EC51F0E90E00016F6FA0
:10361800210E00016E6F06EC61F0F40E0001716F6F
:10362800180E0001706FE0EC5FF0EC0E0001716F96
:10363800980E0001706FE0EC5FF0F80E0001716FFA
:10364800B80E0001706FFA0E0001736FB40E00011E
:10365800726F93EC51F0F80E0001716F360E000195
:10366800706FF90E0001736F970E0001726F93EC83
:1036780051F0F80E0001716FD10E0001706FFA0E53
:103688000001736FCB0E0001726F93EC51F0F80ECE
:103698000001716F500E0001706FF90E0001736F19
:1036A800AF0E0001726F93EC51F0F80E0001716FCC
:1036B800EA0E0001706FFA0E0001736FE20E00014E
:1036C800726F93EC51F0F80E0001716F6A0E0001F1
:1036D800706FF90E0001736FC70E0001726F93ECE3
:1036E80051F0F90E0001716F030E0001706FFA0EB0
:1036F8000001736FF90E0001726F93EC51F0F80E30
:103708000001716F840E0001706FF90E0001736F74
:10371800DF0E0001726F93EC51F0F90E0001716F2A
:103728001C0E0001706FFB0E0001736F100E00017C
:10373800726F93EC51F0F80E0001716F9E0E00014C
:10374800706FF90E0001736FF70E0001726F93EC42
:1037580051F0E90E00016F6F210E00016E6F06EC4B
:1037680061F01200E80E0001716FD30E0001706F56
:10377800E0EC5FF0F80E0001716F1B0E0001706F36
:10378800E0EC5FF0E90E00016F6F210E00016E6F33
:1037980006EC61F012000001000E0001D96F000173
:1037A800B50E0001D86FA8EF23F00001E951250AF2
:1037B800D8B40CD0B1C0D9FFB2C0DAFF0001E9C05B
:1037C800DFFF0001B14BB22BA8EF23F0000E000180
:1037D800E26F000E0001E16F000E0001E46F000EC1
:1037E8000001E36F05D00001E3850001B34BB42B62
:1037F8000001B3C0F6FF0001B4C0F7FFF86A080083
:10380800F550300AD8B4EFD70001B3C0F6FF000175
:10381800B4C0F7FFF86A0800F55065EC62F0D8A06C
:1038280013D1000E0001E26F000E0001E16FE1C04C
:1038380071F0E2C072F0000E0001746F0A0E000110
:10384800736F58EC61F0000171C0E1F0000172C0C3
:10385800E2F0D00E0001BF6FFF0EC06F0001B3C0D1
:10386800F6FF0001B4C0F7FFF86A0800F550000140
:10387800C16FC26B0001BF510001C1270001C051D7
:103888000001C2230001C1510001E1270001C2511A
:103898000001E2230001B34BB42B0001B3C0F6FFD3
:1038A8000001B4C0F7FFF86A0800F55065EC62F053
:1038B800D8A0CAD0BCD70001E389C6D00001E485EE
:1038C800F3D00001E38FF0D0D8C0D9FFD9C0DAFF18
:1038D8000001DECFE5F00001DDCFE6F0020E0001C9
:1038E800D827000E0001D9230001E651E511D8A41C
:1038F80006D0FF0E0001E66F7C0E0001E56F000E9A
:103908000001E86F000E0001E76F03D00001E74BEC
:10391800E82B0001E5C0BFF00001E6C0C0F00001DF
:10392800E7510001BF270001E8510001C023BFC0D3
:10393800F6FFC0C0F7FF000EF86E0F0EF76403D055
:103948000800F55005D0F6CFE9FFF7CFEAFFEF50B2
:103958000009D8A4DBD70001E1510001E75D0001AF
:10396800E2510001E859D8B00AD0000120EEE7F092
:10397800DE500001E15FDD500001E25B10D0000E77
:103988000001E26F000E0001E16F09D0B1C0D9FF5C
:10399800B2C0DAFF200EDF6E0001B14BB22B00017E
:1039A800E107D8A0E2070001E129D8B4E229D8B498
:1039B8001FD0ECD70001E5C0F6FF0001E6C0F7FF15
:1039C800000EF86EB1C0D9FFB2C0DAFF0F0EF7646F
:1039D80003D00800F55005D0F6CFE9FFF7CFEAFF8E
:1039E800EF50DF6E0001E54BE62B0001B14BB22B27
:1039F8000001E707D8A0E8070001E729D8B4E829BB
:103A0800D8B4A8EF23F0D6D7D8C0D9FFD9C0DAFFE9
:103A1800DF500001E96F020E0001D827000E0001F7
:103A2800D9230001000E0001E66F0001E90E000134
:103A3800E56F000E0001E86F010E0001E76F8BD7FC
:103A4800C00E0001E31330D00001B3C0F6FF00013F
:103A5800B4C0F7FF0001B34BB42BF86A08000001AB
:103A6800F5CFE9F00001E951000AD8B4BAEF23F024
:103A7800580AD8B426D73B0AD8B4C6D7070AD8B448
:103A880013D0020AD8B41AD70F0AD8B40DD0050A31
:103A9800D8B411D71F0AD8B417D7060AD8B4D0D7C4
:103AA8000D0AD8B40ED7BDD7070E0001E415D8B457
:103AB800F5D3000E0001DB6F060E0001DA6FD8C0E7
:103AC800D9FFD9C0DAFF0001DECFDEF00001DECF7A
:103AD800DFF00001DDCFE0F0030E0001D827000E73
:103AE8000001D9230001E051800A800F07E1000E90
:103AF8000001DF5D03E1000E0001DE5DD8B011D0EA
:103B0800DEC063F0DFC064F0E0C065F0D8EC61F0BF
:103B180063C0DEF064C0DFF065C0E0F0030E0001B2
:103B2800E313000E0001DD6F000E0001DC6F7F0E55
:103B38000001E0150001DF110001DE11D8B4AAD0A0
:103B4800820E0001BF6FFF0EC06F0001DEC0C1F022
:103B58000001DFC0C2F00001E0C0C3F00001E1C015
:103B6800C4F0100E06D00001D890C433C333C2335A
:103B7800C133E82EF8D70001C1510001BF2500016B
:103B8800DC6F000E0001C0210001DD6F0001DC07C1
:103B9800D8A0DD07DCC071F0DDC072F0000E0001B6
:103BA800746F030E0001736F58EC61F0000171C06F
:103BB800DCF0000172C0DDF0DCC069F0DDC06AF045
:103BC800000E00016C6F0A0E00016B6F55EC57F088
:103BD800000169C0DCF000016AC0DDF00001DD51C0
:103BE800800AF36E800EF35C000ED8B4DC5DD8B0AA
:103BF80004D00001DC07D8A0DD070001DC51000873
:103C080069EC35F08CC0D5F08DC0D6F08EC0D7F0F9
:103C1800D5C07DF0D6C07EF0D7C07FF0DEC080F082
:103C2800DFC081F0E0C082F0AAEC4DF07DC0D5F095
:103C38007EC0D6F07FC0D7F0D5C063F0D6C064F0A0
:103C4800D7C065F0000E0001666F800E0001676F37
:103C58003F0E0001686F9BEC58F0D8B005D000010A
:103C6800DC07D8A0DD0716D0D5C063F0D6C064F055
:103C7800D7C065F0000E0001666F200E0001676F67
:103C8800410E0001686F9BEC58F0D8A003D00001EA
:103C9800DC4BDD2B0001DB51800AF36E800EF35CF8
:103CA8000D0ED8B4DA5DD8B018D0DEC096F0DFC0FB
:103CB80097F0E0C098F00001DA5194EC40F08CC025
:103CC80099F08DC09AF08EC09BF095EC43F096C0A9
:103CD800DEF097C0DFF098C0E0F00001DD51800A07
:103CE800F36E800EF35C0A0ED8B4DC5DD8B029D030
:103CF8007F0E0001E0150001DF110001DE11D8B4CC
:103D08006FD0DEC0A2F0DFC0A3F0E0C0A4F02FECBB
:103D18004CF0A2C0BFF0A3C0C0F0A4C0C1F0A5C0C1
:103D2800C2F00001C251BF11C011C111D8A458D0AE
:103D38000001DD51800A800F020ED8B4DC5DD8A0E6
:103D48004FD0D5C063F0D6C064F0D7C065F0700E10
:103D58000001666F890E0001676F400E0001686FF1
:103D68009BEC58F0D8B003D00001F70E02D0000148
:103D7800F80E0001DC27FF0E0001DD230001DC51F5
:103D880069EC35F08CC0D5F08DC0D6F08EC0D7F078
:103D9800DEC063F0DFC064F0E0C065F0D5C066F057
:103DA800D6C067F0D7C068F01AEC47F063C0C8F017
:103DB80064C0C9F065C0CAF066C0CBF0C8C0E5F001
:103DC800C9C0E6F0CAC0E7F0CBC0E8F0000E0001B9
:103DD800DE6F000E0001DF6F000E0001E06F34D0CF
:103DE800DEC0A2F0DFC0A3F0E0C0A4F02FEC4CF0DE
:103DF800A2C0E5F0A3C0E6F0A4C0E7F0A5C0E8F0D3
:103E0800DEC0A2F0DFC0A3F0E0C0A4F0E5C06BF014
:103E1800E6C06CF0E7C06DF0E8C06EF033EC5DF022
:103E28006BC0A5F06CC0A6F06DC0A7F0CBEC60F03D
:103E3800A2C0DEF0A3C0DFF0A4C0E0F0000E0001D5
:103E4800DD6F000E0001DC6F010E0001E96F00015B
:103E5800E9510A0AD8B421D00001E951040D9D0E98
:103E6800F324F66EDE0EF420F76EF86A000EF822E0
:103E78000900F5500001E55D0900F5500001E6591B
:103E88000900F5500001E7590900F5500001E8590B
:103E9800D8A003D00001E92BDAD70001E9C0BFF0B0
:103EA8000001C06BBFBFC0070001DA510001BF2786
:103EB8000001DB510001C0230001DC510001BF27D4
:103EC8000001DD510001C0230001BF510001E15F85
:103ED8000001C0510001E25B0001DB51DA11D8B4E6
:103EE80004D00001E107D8A0E207030E0001E315A2
:103EF8000001BF6F000E0001E4150001C06F000152
:103F0800C051BF11D8B404D00001E107D8A0E2071E
:103F18000001E3A53FD0030E0001E3150001BF6FC8
:103F2800000E0001E4150001C06F0001C051BF116F
:103F3800D8B417D0B1C0D9FFB2C0DAFF2D0EDF6EEA
:103F48000001B14BB22B0DD0B1C0D9FFB2C0DAFF1E
:103F5800300EDF6E0001B14BB22B0001E107D8A093
:103F6800E2070001E251800AF36E800EF35C010E55
:103F7800D8B4E15DD8A085D0E7D7B1C0D9FFB2C029
:103F8800DAFF200EDF6E0001B14BB22B0001E10712
:103F9800D8A0E2070001E251800AF36E800EF35CBC
:103FA800010ED8B4E15DD8B0E8D7030E0001E315DF
:103FB8000001BF6F000E0001E4150001C06F000191
:103FC800C051BF11D8B45DD0B1C0D9FFB2C0DAFFBB
:103FD8002D0E53D0E5C063F0E6C064F0E7C065F08D
:103FE800E8C066F00001E951040D9D0EF324F66E59
:103FF800DE0EF420F76EF86A000EF82209000001C0
:10400800F5CF67F009000001F5CF68F0090000015D
:10401800F5CF69F00A000001F5CF6AF031EC58F0ED
:1040280063C0CDF064C0CEF065C0CFF066C0D0F0FC
:10403800CDC070F0CEC071F0CFC072F0D0C073F0B8
:104048000A0E0001746F000E0001756F000E00016A
:10405800766F000E0001776FDBEC5AF070C0CDF080
:1040680071C0CEF072C0CFF073C0D0F00001CD5156
:10407800300FB1C0D9FFB2C0DAFFDF6E0001B14B1B
:10408800B22B0001E9070001E929D8B40ED0A2D764
:10409800B1C0D9FFB2C0DAFF300EDF6E0001B14BFC
:1040A800B22B0001DC07D8A0DD070001DD51800A32
:1040B800F36E800EF35C010ED8B4DC5DD8B0E8D79F
:1040C8000001DB51800A800F090ED8B4DA5DD8A050
:1040D80004D0080E0001E96F02D0DAC0E9F000014F
:1040E800E9510001DA5F000E0001E9BFFF0E00018F
:1040F800DB5B0001E951D8B409D0B1C0D9FFB2C027
:10410800DAFF2E0EDF6E0001B14BB22B0001E95130
:1041180069EC35F08CC0C5F08DC0C6F08EC0C7F014
:10412800DEC080F0DFC081F0E0C082F0C5C07DF065
:10413800C6C07EF0C7C07FF0AAEC4DF07DC0A2F0EB
:104148007EC0A3F07FC0A4F02FEC4CF0A2C0E5F035
:10415800A3C0E6F0A4C0E7F0A5C0E8F085D0E5C0AC
:1041680063F0E6C064F0E7C065F0E8C066F00001FF
:10417800E951040D9D0EF324F66EDE0EF420F76E61
:10418800F86A000EF82209000001F5CF67F009006F
:104198000001F5CF68F009000001F5CF69F00A00C9
:1041A8000001F5CF6AF031EC58F063C0D1F064C07B
:1041B800D2F065C0D3F066C0D4F0D1C070F0D2C0E0
:1041C80071F0D3C072F0D4C073F00A0E0001746F9E
:1041D800000E0001756F000E0001766F000E0001E1
:1041E800776FDBEC5AF070C0D1F071C0D2F072C0BA
:1041F800D3F073C0D4F00001D151300FB1C0D9FF52
:10420800B2C0DAFFDF6E0001B14BB22BE5C070F02F
:10421800E6C071F0E7C072F0E8C073F00001E95140
:10422800040D9D0EF324F66EDE0EF420F76EF86A88
:10423800000EF82209000001F5CF74F00900000112
:10424800F5CF75F009000001F5CF76F00A000001FE
:10425800F5CF77F0DBEC5AF070C0E5F071C0E6F00E
:1042680072C0E7F073C0E8F00001E9070001E9292E
:10427800D8B40ED074D7B1C0D9FFB2C0DAFF300EAF
:10428800DF6E0001B14BB22B0001DA07D8A0DB07C3
:104298000001DB51DA11D8B457D2EDD7C00E0001B6
:1042A800E3150001BF6F000E0001E4150001C06FA7
:1042B8000001C051BF11D8A453D00001E3A912D006
:1042C800D8C0D9FFD9C0DAFF0001DECFE5F0000180
:1042D800DECFE6F00001DECFE7F00001DECFE8F048
:1042E800040E14D0D8C0D9FFD9C0DAFF0001DECF40
:1042F800E5F00001DDCFE6F00001000E0001E6BFA9
:10430800FF0E0001E76F0001E86F020E0001D827D9
:10431800000E0001D9230001E851800A800F0BE14B
:10432800000E0001E75D07E1000E0001E65D03E114
:10433800000E0001E55DD8B093D0030E0001E31331
:104348000001E81F0001E71F0001E61F0001E56DFD
:10435800000E0001E6230001E7230001E82380D0D6
:104368000001E3A912D0D8C0D9FFD9C0DAFF0001F3
:10437800DECFE5F00001DECFE6F00001DECFE7F0AA
:104388000001DECFE8F0040E13D0D8C0D9FFD9C0A1
:10439800DAFFDECFBFF0DDCFC0F00001BFC0E5F02F
:1043A8000001C0C0E6F00001E76B0001E86B020EF7
:1043B8000001D827000E0001D92352D0010E0001B8
:1043C800E96F0001E9510A0AD8B456D00001E95151
:1043D800040D9D0EF324F66EDE0EF420F76EF86AD7
:1043E800000EF8220900F5500001E55D0900F550BE
:1043F8000001E6590900F5500001E7590900F55098
:104408000001E859D8A038D00001E92BDAD7010E0D
:104418000001E96F0001E951080AD8B42DD0000164
:10442800E951040D130EF324F66EDF0EF420F76E37
:10443800F86A000EF8220900F5500001E55D090050
:10444800F5500001E6590900F5500001E759090047
:10445800F5500001E859D8A00FD00001E92BDAD7B0
:104468000001E351C00B000AD8B4A8D7800AD8B419
:10447800CED7400AD8B4A2D70001E251E111D8B48E
:1044880013D0030E0001E3150001BF6F000E0001F9
:10449800E4150001C06F0001C051BF11D8B404D0A9
:1044A8000001E107D8A0E207800E0001E9BF7F0EF6
:1044B8000001BF6F0001E1510001E95D0001E25117
:1044C800800A0001BF59D8B00BD00001E9510001A2
:1044D800E15F000E0001E9BFFF0E0001E25B06D0BC
:1044E800000E0001E26F000E0001E16F0001E3A57C
:1044F8002CD0030E0001E3150001BF6F000E000170
:10450800E4150001C06F0001C051BF11D8B409D033
:10451800B1C0D9FFB2C0DAFF2D0EDF6E0001B14B7A
:10452800B22B00010001E251E111D8B43DD0B1C075
:10453800D9FFB2C0DAFF300EDF6E0001B14BB22BEB
:104548000001E107D8A0E207EDD70001E251E1112F
:10455800D8B412D0B1C0D9FFB2C0DAFF200EDF6ED6
:104568000001B14BB22B0001E107D8A0E20700011E
:10457800E251E111D8A4EED7030E0001E3150001C2
:10458800BF6F000E0001E4150001C06F0001C051AB
:10459800BF11D8B409D0B1C0D9FFB2C0DAFF2D0E0F
:1045A800DF6E0001B14BB22B0001E9510001DA6F57
:1045B8000001DB6B0001DABFDB07BCD00001DAC009
:1045C800BFF00001DBC0C0F00001D890BF37C03792
:1045D8000001D890BF37C0379D0E0001BF25F66E89
:1045E800DE0EC021F76EF86A000EF82209000001FD
:1045F800F5CF67F009000001F5CF68F00900000168
:10460800F5CF69F00A000001F5CF6AF0E5C063F064
:10461800E6C064F0E7C065F0E8C066F031EC58F039
:1046280063C070F064C071F065C072F066C073F06A
:104638000A0E0001746F000E0001756F000E000174
:10464800766F000E0001776FDBEC5AF070C0C1F096
:1046580071C0C2F072C0C3F073C0C4F00001C15190
:10466800300F0001E96F5CD0E5C063F0E6C064F08C
:10467800E7C065F0E8C066F00001DAC0BFF00001ED
:10468800DBC0C0F00001D890BF37C0370001D89018
:10469800BF37C037130E0001BF25F66EDF0EC021ED
:1046A800F76EF86A000EF82209000001F5CF67F0EE
:1046B80009000001F5CF68F009000001F5CF69F0A5
:1046C8000A000001F5CF6AF031EC58F063C0C1F080
:1046D80064C0C2F065C0C3F066C0C4F00001C15137
:1046E8000F0B0001CC6F0001CC51010D320EF324E9
:1046F800F66EFD0EF420F76EF86A000EF822080038
:104708000001F5CFE9F00CD00001E351C00B000A1D
:10471800D8B454D7800AD8B4A7D7400AD8B44ED74B
:10472800B1C0D9FFB2C0DAFF0001E9C0DFFF000164
:10473800B14BB22B0001DA07D8A0DB070001DA2958
:10474800D8B4DB29D8A4E0D70001B3C0F6FF000134
:10475800B4C0F7FF0001B34BB42BF86A080000019E
:10476800F5CFE9F00001E967D9EF1BF0B1C0D9FF37
:10477800B2C0DAFF000EDF6E1200000E00016F6F8C
:10478800000E0001706F000E0001716F000E000135
:10479800726F010E000163150001676F000E0001C2
:1047A80064150001686F000E000165150001696F4E
:1047B800000E0001661500016A6F1F0ED8900001F7
:1047C8006737683769376A37E82EF8D700016751C5
:1047D80000016F2700016851000170230001695131
:1047E8000001712300016A5100017223020E0001C9
:1047F80063150001676F000E000164150001686F02
:10480800000E000165150001696F000E00016615B4
:1048180000016A6F1D0ED890000167376837693745
:104828006A37E82EF8D70001675100016F270001A9
:1048380068510001702300016951000171230001D2
:104848006A5100017223040E000163150001676FAD
:10485800000E000164150001686F000E0001651567
:104868000001696F000E0001661500016A6F1B0EDA
:10487800D89000016737683769376A37E82EF8D764
:104888000001675100016F27000168510001702382
:10489800000169510001712300016A51000172236E
:1048A800080E000163150001676F000E0001641512
:1048B8000001686F000E000165150001696F000EA8
:1048C8000001661500016A6F190ED890000167375C
:1048D800683769376A37E82EF8D700016751000151
:1048E8006F27000168510001702300016951000120
:1048F800712300016A5100017223100E0001631533
:104908000001676F000E000164150001686F000E5A
:10491800000165150001696F000E000166150001B0
:104928006A6F170ED89000016737683769376A379A
:10493800E82EF8D70001675100016F270001685180
:1049480000017023000169510001712300016A51BF
:1049580000017223200E000163150001676F000E2D
:10496800000164150001686F000E00016515000163
:10497800696F000E0001661500016A6F150ED89068
:1049880000016737683769376A37E82EF8D70001BA
:10499800675100016F270001685100017023000171
:1049A80069510001712300016A5100017223400E10
:1049B800000163150001676F000E00016415000116
:1049C800686F000E000165150001696F000E000197
:1049D800661500016A6F130ED890000167376837B3
:1049E80069376A37E82EF8D70001675100016F2749
:1049F8000001685100017023000169510001712311
:104A080000016A5100017223800E00016315000144
:104A1800676F000E000164150001686F000E000149
:104A280065150001696F000E0001661500016A6FC7
:104A3800110ED89000016737683769376A37E82E52
:104A4800F8D70001675100016F2700016851000184
:104A58007023000169510001712300016A510001AE
:104A68007223000E000163150001676F010E00013B
:104A780064150001686F000E000165150001696F7B
:104A8800000E0001661500016A6F0F0ED890000134
:104A98006737683769376A37E82EF8D700016751F2
:104AA80000016F270001685100017023000169515E
:104AB8000001712300016A5100017223000E0001F8
:104AC80063150001676F020E000164150001686F2D
:104AD800000E000165150001696F000E00016615E2
:104AE80000016A6F0D0ED890000167376837693783
:104AF8006A37E82EF8D70001675100016F270001D7
:104B080068510001702300016951000171230001FF
:104B18006A5100017223000E000163150001676FDE
:104B2800040E000164150001686F000E0001651590
:104B38000001696F000E0001661500016A6F0B0E17
:104B4800D89000016737683769376A37E82EF8D791
:104B58000001675100016F270001685100017023AF
:104B6800000169510001712300016A51000172239B
:104B7800000E000163150001676F080E000164153F
:104B88000001686F000E000165150001696F000ED5
:104B98000001661500016A6F090ED8900001673799
:104BA800683769376A37E82EF8D70001675100017E
:104BB8006F2700016851000170230001695100014D
:104BC800712300016A5100017223000E0001631570
:104BD8000001676F100E000164150001686F000E78
:104BE800000165150001696F000E000166150001DE
:104BF8006A6F070ED89000016737683769376A37D8
:104C0800E82EF8D70001675100016F2700016851AD
:104C180000017023000169510001712300016A51EC
:104C280000017223000E000163150001676F200E5A
:104C3800000164150001686F000E00016515000190
:104C4800696F000E0001661500016A6F050ED890A5
:104C580000016737683769376A37E82EF8D70001E7
:104C6800675100016F27000168510001702300019E
:104C780069510001712300016A5100017223000E7D
:104C8800000163150001676F400E00016415000103
:104C9800686F000E000165150001696F000E0001C4
:104CA800661500016A6F030ED890000167376837F0
:104CB80069376A37E82EF8D70001675100016F2776
:104CC800000168510001702300016951000171233E
:104CD80000016A5100017223000E000163150001F2
:104CE800676F800E000164150001686F000E0001F7
:104CF80065150001696F000E0001661500016A6FF5
:104D0800D8900001673500016B6F0001683500011C
:104D18006C6F0001693500016D6F00016A35000193
:104D28006E6F00016B5100016F2700016C5100018B
:104D3800702300016D510001712300016E510001C3
:104D48007223000163C067F0000164C068F00001CD
:104D580065C069F0000166C06AF00001D8906A3346
:104D6800693368336733000E0001671500016B6F04
:104D7800800E0001681500016C6F000E00016915B6
:104D880000016D6F000E00016A1500016E6F0001D1
:104D98006B5100016F2700016C5100017023000165
:104DA8006D510001712300016E5100017223000151
:104DB80063C067F0000164C068F0000165C069F075
:104DC800000166C06AF0040E06D00001D8906A336C
:104DD800693368336733E82EF8D7000E000167158A
:104DE80000016B6F400E0001681500016C6F000E2A
:104DF8000001691500016D6F000E00016A150001C0
:104E08006E6F00016B5100016F2700016C510001AA
:104E1800702300016D510001712300016E510001E2
:104E28007223000163C067F0000164C068F00001EC
:104E380065C069F0000166C06AF0060E06D0000180
:104E4800D8906A33693368336733E82EF8D7000E91
:104E58000001671500016B6F200E00016815000145
:104E68006C6F000E0001691500016D6F000E0001E6
:104E78006A1500016E6F00016B5100016F27000178
:104E88006C510001702300016D5100017123000174
:104E98006E5100017223000163C067F0000164C015
:104EA80068F0000165C069F0000166C06AF0080E8C
:104EB80006D00001D8906A33693368336733E82E27
:104EC800F8D7000E0001671500016B6F100E000186
:104ED800681500016C6F000E0001691500016D6F07
:104EE800000E00016A1500016E6F00016B51000190
:104EF8006F2700016C510001702300016D51000102
:104F0800712300016E5100017223000163C067F034
:104F1800000164C068F0000165C069F0000166C066
:104F28006AF00A0E06D00001D8906A3369336833F4
:104F38006733E82EF8D7000E0001671500016B6F84
:104F4800080E0001681500016C6F000E000169155C
:104F580000016D6F000E00016A1500016E6F0001FF
:104F68006B5100016F2700016C5100017023000193
:104F78006D510001712300016E510001722300017F
:104F880063C067F0000164C068F0000165C069F0A3
:104F9800000166C06AF00C0E06D00001D8906A3392
:104FA800693368336733E82EF8D7000E00016715B8
:104FB80000016B6F040E0001681500016C6F000E94
:104FC8000001691500016D6F000E00016A150001EE
:104FD8006E6F00016B5100016F2700016C510001D9
:104FE800702300016D510001712300016E51000111
:104FF8007223000163C067F0000164C068F000011B
:1050080065C069F0000166C06AF00E0E06D00001A6
:10501800D8906A33693368336733E82EF8D7000EBF
:105028000001671500016B6F020E00016815000191
:105038006C6F000E0001691500016D6F000E000114
:105048006A1500016E6F00016B5100016F270001A6
:105058006C510001702300016D51000171230001A2
:105068006E5100017223000163C067F0000164C043
:1050780068F0000165C069F0000166C06AF0100EB2
:1050880006D00001D8906A33693368336733E82E55
:10509800F8D7000E0001671500016B6F010E0001C3
:1050A800681500016C6F000E0001691500016D6F35
:1050B800000E00016A1500016E6F00016B510001BE
:1050C8006F2700016C510001702300016D51000130
:1050D800712300016E5100017223000163C067F063
:1050E800000164C068F0000165C069F0000166C095
:1050F8006AF0120E06D00001D8906A33693368331B
:105108006733E82EF8D7800E0001671500016B6F32
:10511800000E0001681500016C6F000E0001691592
:1051280000016D6F000E00016A1500016E6F00012D
:105138006B5100016F2700016C51000170230001C1
:105148006D510001712300016E51000172230001AD
:1051580063C067F0000164C068F0000165C069F0D1
:10516800000166C06AF0140E06D00001D8906A33B8
:10517800693368336733E82EF8D7400E00016715A6
:1051880000016B6F000E0001681500016C6F000EC6
:105198000001691500016D6F000E00016A1500011C
:1051A8006E6F00016B5100016F2700016C51000107
:1051B800702300016D510001712300016E5100013F
:1051C8007223000163C067F0000164C068F0000149
:1051D80065C069F0000166C06AF0160E06D00001CD
:1051E800D8906A33693368336733E82EF8D7200ECE
:1051F8000001671500016B6F000E000168150001C2
:105208006C6F000E0001691500016D6F000E000142
:105218006A1500016E6F00016B5100016F270001D4
:105228006C510001702300016D51000171230001D0
:105238006E5100017223000163C067F0000164C071
:1052480068F0000165C069F0000166C06AF0180ED8
:1052580006D00001D8906A33693368336733E82E83
:10526800F8D7100E0001671500016B6F000E0001E2
:10527800681500016C6F000E0001691500016D6F63
:10528800000E00016A1500016E6F00016B510001EC
:105298006F2700016C510001702300016D5100015E
:1052A800712300016E5100017223000163C067F091
:1052B800000164C068F0000165C069F0000166C0C3
:1052C8006AF01A0E06D00001D8906A336933683341
:1052D8006733E82EF8D7080E0001671500016B6FD9
:1052E800000E0001681500016C6F000E00016915C1
:1052F80000016D6F000E00016A1500016E6F00015C
:105308006B5100016F2700016C51000170230001EF
:105318006D510001712300016E51000172230001DB
:1053280063C067F0000164C068F0000165C069F0FF
:10533800000166C06AF01C0E06D00001D8906A33DE
:10534800693368336733E82EF8D7040E0001671510
:1053580000016B6F000E0001681500016C6F000EF4
:105368000001691500016D6F000E00016A1500014A
:105378006E6F00016B5100016F2700016C51000135
:10538800702300016D510001712300016E5100016D
:105398007223000163C067F0000164C068F0000177
:1053A80065C069F0000166C06AF01E0E06D00001F3
:1053B800D8906A33693368336733E82EF8D7020E1A
:1053C8000001671500016B6F000E000168150001F0
:1053D8006C6F000E0001691500016D6F000E000171
:1053E8006A1500016E6F00016B5100016F27000103
:1053F8006C510001702300016D51000171230001FF
:105408006E5100017223000E000163150001676FE1
:10541800000E000164150001686F000E000165159B
:105428000001696F800E0001661500016A6F200E89
:1054380006D00001D8906A33693368336733E82EA1
:10544800F8D70001675100016F270001685100017A
:105458007023000169510001712300016A510001A4
:1054680072236FC063F070C064F071C065F072C0E1
:1054780066F012000101B76F010E0101B96F000E4D
:105488000101BA6F000E0101B86F010E0101B66F7C
:105498000101010E0001646F0101840E0001636FB8
:1054A800000E0001666F320E0001656F3CEC5FF084
:1054B8000101010E0001646F01016F0E0001636FAD
:1054C800000E0001666F150E0001656F3CEC5FF081
:1054D8000101010E0001646F0101330E0001636FC9
:1054E800000E0001666F1E0E0001656F3CEC5FF058
:1054F8000101010E0001646F0101510E0001636F8B
:10550800000E0001666F1E0E0001656F3CEC5FF037
:10551800A4EC4AF00009D8A402D0000E120004013D
:10552800040E0001646F0401000E0001636F0001A6
:1055380044C065F00001666B3CEC5FF0000E446E01
:105548002AEC63F09E9A9D8AFF0E00016F6FFB0E96
:1055580000016E6F06EC61F0500E0001636FC30E20
:105568000001646F000E0001656F000E0001666F98
:1055780052EC5EF09D9A000E0101BA6F88D00101CD
:10558800B605D8A43FD00101BA51010D0401000E9F
:10559800F324D96E0401040EF420DA6EDF500A0AEF
:1055A800D8B40ED00101BA51010D0401000EF32444
:1055B800D96E0401040EF420DA6E0D0EDF6204D0F9
:1055C800000E0101B66F61D01D0E0101BA5DD8B0A1
:1055D8005CD00101BA51010D0401000EF324D96E0B
:1055E8000401040EF420DA6E0101BA51010D010123
:1055F800330EF324E16E0101010EF420E26EDFCFD9
:10560800E7FF43D00101BA51010D0401000EF32454
:10561800D96E0401040EF420DA6EDF500A0AD8B4F9
:105628002FD00101BA51010D0401000EF324D96EE7
:105638000401040EF420DA6EDF500D0AD8B420D02D
:105648001D0E0101B85DD8B018D00101BA51010D85
:105658000401000EF324D96E0401040EF420DA6E5E
:105668000101B851010D0101510EF324E16E010150
:10567800010EF420E26EDFCFE7FF0101B82B05D061
:10568800020E0101B86501D006D00101BA2B3B0E0C
:105698000101BA6574D701013351D8B403D00101AF
:1056A800516704D0000E0101B96F50D00201020EFB
:1056B8000001646F0201AE0E0001636F000E00016D
:1056C800666F1E0E0001656F3CEC5FF00401040E6E
:1056D8000001646F0401C80E0001636F000E000131
:1056E800666F1E0E0001656F3CEC5FF00101010E54
:1056F8000001786F0101330E0001776F0201020E7D
:1057080000017A6F0201AE0E0001796F1E0E0001D2
:105718007B6F000E00017C6FE1EC55F00101010E7A
:105728000001786F0101510E0001776F0401040E2A
:1057380000017A6F0401C80E0001796F1E0E000186
:105748007B6F000E00017C6FE1EC55F00401040E44
:105758000001646F0401000E0001636F000144C082
:1057680065F00001666B3CEC5FF0000E446E0101D1
:10577800B751D8B45CD00101B951D8B4D4D0010123
:10578800010E0001B26F0101840E0001B16FF90E24
:105798000001B46F670E0001B36FB2C5B5F0B3C5B1
:1057A800B6F0B4C5B7F0B5C5B8F0CFEC1BF02AEC2D
:1057B80063F09E9A9D8A0101010E00016E6F01013E
:1057C800840E00016D6F90EC62F0500E0001636F63
:1057D800C30E0001646F000E0001656F000E00012A
:1057E800666F52EC5EF09D9A0101010E0001B26FE6
:1057F8000101840E0001B16FFF0E0001B46FF00EBD
:105808000001B36FCFEC1BF00401040E0001646FBC
:105818000401000E0001636F0101010E0001666FB3
:105828000101840E0001656F68EC50F076D001012B
:10583800B951D8B478D00201FE6772D00201020EC5
:105848000001786F0201EA0E0001776F0101010E75
:1058580000017A6F01016F0E0001796F150E0001CA
:105868007B6F000E00017C6FE1EC55F00101010E29
:105878000001B26F0101840E0001B16FFF0E00013B
:10588800B46F830E0001B36F0101010E0001B66F02
:1058980001016F0E0001B56FCFEC1BF02AEC63F02D
:1058A8009E9A9D8A0101010E00016E6F0101840E0E
:1058B80000016D6F90EC62F0500E0001636FC30E33
:1058C8000001646F000E0001656F000E0001666F35
:1058D80052EC5EF09D9A0101010E0001B26F0101C8
:1058E800840E0001B16FFF0E0001B46FF00E0001CD
:1058F800B36FCFEC1BF00401040E0001646F0401C8
:10590800000E0001636F0101010E0001666F0101C5
:10591800840E0001656F68EC50F00009D8A403D02C
:10592800000E0101B96F0401040E0001646F040147
:10593800000E0001636F000144C065F00001666B52
:105948003CEC5FF0000E446E0101B951D8B433D07D
:105958002AEC63F09E9A9D8AFF0E00016F6F590E24
:1059680000016E6F06EC61F0500E0001636FC30E0C
:105978000001646F000E0001656F000E0001666F84
:1059880052EC5EF09D9A0401040E0001646F04015C
:10599800000E0001636F0101010E0001666F010135
:1059A800840E0001656F68EC50F00009D8A403D09C
:1059B800000E0101B96F0401040E0001646F0401B7
:1059C800000E0001636F000144C065F00001666BC2
:1059D8003CEC5FF0000E446E0101B951D8B433D0ED
:1059E8002AEC63F09E9A9D8AFC0E00016F6F000EF0
:1059F80000016E6F06EC61F0500E0001636FC30E7C
:105A08000001646F000E0001656F000E0001666FF3
:105A180052EC5EF09D9A0401040E0001646F0401CB
:105A2800000E0001636F0101010E0001666F0101A4
:105A3800840E0001656F68EC50F00009D8A403D00B
:105A4800000E0101B96F0401040E0001646F040126
:105A5800000E0001636F000144C065F00001666B31
:105A68003CEC5FF0000E446E0101B951D8B433D05C
:105A78002AEC63F09E9A9D8AFF0E00016F6F500E0C
:105A880000016E6F06EC61F0500E0001636FC30EEB
:105A98000001646F000E0001656F000E0001666F63
:105AA80052EC5EF09D9A0401040E0001646F04013B
:105AB800000E0001636F0101010E0001666F010114
:105AC800840E0001656F68EC50F00009D8A403D07B
:105AD800000E0101B96F0401040E0001646F040196
