:04000000A6EF01F076
:10000800FACF60F0FBCF61F0E9CF62F07CEF54F0FB
:10001800D8CF10F0E8CF11F0E0CF12F0FACF13F0FC
:10002800FBCF14F0E9CF15F0EACF16F0E1CF17F0C7
:10003800E2CF18F0D9CF19F0DACF1AF0F3CF1BF0CE
:10004800F4CF1CF0F6CF1DF0F7CF1EF0F8CF1FF05D
:10005800F5CF20F0000E246EF29C9EAA7FD042ECD1
:1000680062F0246EEBEC62F00009D8A40FD0630EA6
:100078004C6072D04C50010D500EF324D96E050E11
:10008800F420DA6E24C0DFFF4C2A66D00D0E241847
:10009800D8B44FD00A0E2418D8B44BD07F0E2418E9
:1000A800D8B404D0080E2418D8A41FD00301D15105
:1000B800D8B41BD00301D129BFEC61F00301D107EB
:1000C8000301D151010DB60EF324D96E040EF420AC
:1000D800DA6E000EDF6E3E0ED7EC60F0B60E0B6ED9
:1000E800040E0C6EE6EC61F037D0430E0301D161CB
:1000F8001BD00301D051D8A42FD0245020EC62F09B
:100108000009D8B429D0245068EC61F00301D1511A
:10011800010DB60EF324D96E040EF420DA6E24C055
:10012800DFFF0301D12B18D09D9A010E0301CE6F7A
:1001380013D00301D151D8B40FD00301D051D8A4A2
:100148000BD09D9A0F0E0C6EE90E0D6E21EC61F02E
:10015800010E0301D06F00D09E9AD0D09EA00CD083
:10016800552A020E556406D08B948B92CD90000EC2
:10017800556E00D09E90C2D0F2A43BD0F29AD59E84
:10018800000E0301CF6F030E50640BD0E70E016E13
:10019800030E026E010E036E87EC3DF00301EB6F58
:1001A80000D0000E016E060E026E000E046E500E98
:1001B800036EC8EC5EF0000E506E0301EB51D8A43C
:1001C80014D08B82E80E016E030E026E000E036ED1
:1001D800000E046E6DEC5FF0A2EC62F0E4EC62F0ED
:1001E8004F6EF29023EC63F000D00D0E586EF2942F
:1001F80085D0F2A07BD0000E0301EC6F000EED6FEE
:10020800000EEE6F000EEF6FE4EC62F0216E4F50BF
:100218002118D8B465D0D58EF28A130E586E000E08
:100228000301EB6FD6CF22F0236AD7502326890E1D
:10023800225C130E2358D8B009D0A00E225C0F0EF2
:100248002358D8A003D0010E0301CF6F0301CF516B
:10025800D8B440D0500E506038D05050020D000E27
:10026800F324D96E060EF420DA6E22C0DEFF23C016
:10027800DDFF502A090E225C520E2358D8B00ED04A
:10028800280E225C230E2358D8A008D026EC63F051
:100298008F0E026E016810EC63F01FD0510E225CC5
:1002A800C30E2358D8B00ED0C80E225CAF0E235808
:1002B800D8A008D026EC63F08F0E026E016810EC0F
:1002C80063F00BD006EC63F008D006EC63F026EC84
:1002D80063F003D006EC63F000D021C04FF002D0E9
:1002E80000F000D0E4EC62F0F29008D0500E0E6EF0
:1002F800F20E0F6EABEC5FF000F000D0F28C20C075
:10030800F5FF1FC0F8FF1EC0F7FF1DC0F6FF1CC099
:10031800F4FF1BC0F3FF1AC0DAFF19C0D9FF18C0D9
:10032800E2FF17C0E1FF16C0EAFF15C0E9FF14C0DD
:10033800FBFF13C0FAFF12C0E0FF11C0E8FF10C0B6
:10034800D8FF10000DEF57F0010E02019B6F000E51
:100358000201926F000E936F000E946F000E956F5E
:10036800000E02019E6F000E02019F6F000E020137
:10037800A06F000EA16F000EA26F000EA36F000EFB
:100388000201856F000E866F000E876F000E886F62
:10039800000E0201996F000E0201906F000E02011B
:1003A8009C6F000E0201916F000E0201896F000E12
:1003B8008A6F000E8B6F000E8C6F000E02017A6F31
:1003C800000E0201966F0C0E00016E6F020E000106
:1003D8006F6F000E0001716F640E706FB0EC5DF00E
:1003E800700E00016E6F020E00016F6F000E0001AB
:1003F800716F0A0E706FB0EC5DF07B0E00016E6FCE
:10040800020E00016F6F000E0001716F0A0E706F0F
:10041800B0EC5DF0EFC071F0F0C072F09B0E00011F
:10042800736FFF0E0001746F76EC5AF00009D8B4B0
:1004380029D0000E0201A56F580E0201A56502D051
:10044800120012000201A55178EC3BF0B60E000133
:10045800796FFF0E00017A6FBEEC60F00201A551C2
:100468008CEC4AF00F0E0001796FE90E00017A6FEB
:10047800BEEC60F00201A52B580E0201A565E2D77B
:1004880012001200EFC071F0F0C072F0BC0E000153
:10049800736FFF0E0001746F7EEC44F00009D8B44E
:1004A80080D0000E546EEFC071F0F0C072F0760E7E
:1004B8000001736FE80E0001746F76EC5AF00009C2
:1004C800D8B412D0CF0E0001766FE80E0001776F16
:1004D800010E0001786F0C0E0001796F070E000104
:1004E8007A6F2FEC5FF054D0EFC071F0F0C072F06B
:1004F800850E0001736FE80E0001746F76EC5AF0F8
:100508000009D8B412D0DB0E0001766FE80E0001A6
:10051800776F010E0001786F0C0E0001796F070EDE
:1005280000017A6F2FEC5FF033D0EFC071F0F0C0AC
:1005380072F0940E0001736FE80E0001746F76EC90
:100548005AF00009D8B412D0E70E0001766FE80E11
:100558000001776F010E0001786F0C0E0001796FB2
:10056800070E00017A6F2FEC5FF012D0C10E000168
:10057800796FE80E00017A6FBEEC60F00F0E000193
:10058800796FE90E00017A6FBEEC60F0120000D0BE
:10059800010E00017B6FF70E00017C6F0EEC5FF01F
:1005A8001200EFC071F0F0C072F0C20E0001736F5C
:1005B800FF0E0001746F7EEC44F00009D8B47BD1C3
:1005C800000E546EEFC071F0F0C072F05C0E0001C6
:1005D800736FE70E0001746F76EC5AF00009D8B417
:1005E80013D0E60E0001766FE70E0001776F020E5A
:1005F8000001786F100E0001796F070E00017A6F05
:100608002FEC5FF0010E21D0EFC071F0F0C072F056
:10061800360E0001736FE70E0001746F76EC5AF026
:100628000009D8B415D0D60E0001766FE70E000188
:10063800776F020E0001786F100E0001796F070EB8
:1006480000017A6F2FEC5FF0000E0201A66F2AD12D
:10065800EFC071F0F0C072F06E0E0001736FE70E1C
:100668000001746F76EC5AF00009D8B413D0060E66
:100678000001766FE80E0001776F020E0001786FB7
:10068800100E0001796F070E00017A6F2FEC5FF0F2
:10069800010E21D0EFC071F0F0C072F0490E0001D8
:1006A800736FE70E0001746F76EC5AF00009D8B446
:1006B80015D0F60E0001766FE70E0001776F020E77
:1006C8000001786F100E0001796F070E00017A6F34
:1006D8002FEC5FF0000E0201A76FE4D0EFC071F0BD
:1006E800F0C072F0FA0E0001736FE60E0001746F2D
:1006F80076EC5AF00009D8B413D0260E0001766FB4
:10070800E80E0001776F020E0001786F100E0001ED
:10071800796F070E00017A6F2FEC5FF0010E21D080
:10072800EFC071F0F0C072F0BB0E0001736FE60EFF
:100738000001746F76EC5AF00009D8B415D0160E83
:100748000001766FE80E0001776F020E0001786FE6
:10075800100E0001796F070E00017A6F2FEC5FF021
:10076800000E0201A86F9ED0EFC071F0F0C072F0C9
:100778000E0E0001736FE70E0001746F76EC5AF0ED
:100788000009D8B413D0460E0001766FE80E0001B8
:10079800776F020E0001786F100E0001796F070E57
:1007A80000017A6F2FEC5FF0010E21D0EFC071F0DD
:1007B800F0C072F0D00E0001736FE60E0001746F86
:1007C80076EC5AF00009D8B415D0360E0001766FD1
:1007D800E80E0001776F020E0001786F100E00011D
:1007E800796F070E00017A6F2FEC5FF0000E02019F
:1007F800A96F58D0EFC071F0F0C072F0220E00015E
:10080800736FE70E0001746F76EC5AF00009D8B4E4
:1008180013D0660E0001766FE80E0001776F020EA6
:100828000001786F100E0001796F070E00017A6FD2
:100838002FEC5FF0010E21D0EFC071F0F0C072F024
:10084800E50E0001736FE60E0001746F76EC5AF046
:100858000009D8B415D0560E0001766FE80E0001D5
:10086800776F030E0001786F100E0001796F070E85
:1008780000017A6F2FEC5FF0000E0201AA6F12D010
:10088800C10E0001796FE80E00017A6FBEEC60F0CE
:100898000F0E0001796FE90E00017A6FBEEC60F06F
:1008A800120000D01E0E00017B6FF70E00017C6F56
:1008B8000EEC5FF01200EFC071F0F0C072F0210E84
:1008C8000001736FFE0E0001746F7EEC44F00009A6
:1008D800D8B407D1000E546EEFC082F0F0C083F098
:1008E8000C0E0001846F020E0001856F7F0E00015F
:1008F800866FF30E0001876FF2EC46F00CC297F298
:10090800970E00016E6F020E00016F6F95EC61F09B
:100918000DC28FF25F0E02010E19D8A4D0D097C273
:1009280070F2C50E0001716FE70E0001726F700E54
:100938000001736F020E0001746F7EEC44F0000931
:10094800D8B4B3D002019751F9EC61F00009D8B4DA
:1009580004D0300E0201975F07D0610E0201975F45
:100968000A0E0201972700D08FC270F2FC0E000118
:10097800716FE80E0001726F700E0001736F020E46
:100988000001746F7EEC44F00009D8B484D0300EB6
:1009980002018F5F02018F07EFC071F0F0C072F0A3
:1009A8009D0E0001736FFB0E0001746F7EEC44F026
:1009B8000009D8B402D0000E10D0EFC071F0F0C01A
:1009C80072F0990E0001736FFA0E0001746F7EECDD
:1009D80044F00009D8B404D0010E02018E6F0AD089
:1009E800C90E00017B6FF20E00017C6F0EEC5FF008
:1009F800120000D002019751780D210E0201006FFC
:100A0800DF0E0201016FF35002010027F4500201CA
:100A1800012302018F51180DF35002010027F450F1
:100A28000201012302018E510C0DF3500201002531
:100A38000001766FF450020101210001776F030E67
:100A48000001786F0C0E0001796F070E00017A6FB4
:100A58002FEC5FF000D002019751050D000E020146
:100A6800006F050E0201016FF35002010027F450D8
:100A78000201012302018F51010DF35002010025EB
:100A8800D96EF45002010121DA6E02018E5108EC90
:100A980062F0DF6E1DD0720E00017B6FF90E00014F
:100AA8007C6F0EEC5FF0120013D0680E00017B6FB4
:100AB800F80E00017C6F0EEC5FF0120009D0D00E2A
:100AC80000017B6FF30E00017C6F0EEC5FF01200EB
:100AD8003B0E00017B6FF70E00017C6F0EEC5FF0A0
:100AE8001200EFC071F0F0C072F0E90E0001736FF0
:100AF800FF0E0001746F7EEC44F00009D8B400D2F8
:100B0800EFC07AF0F0C07BF0010E00017C6FA00E00
:100B180000017D6F020E00017E6F49EC39F000097B
:100B2800D8A4D1D00201A3510201A21104E102010B
:100B3800A105D8A011D00B0E00017B6FF60E0001A5
:100B48007C6F0EEC5FF00F0E0001796FE90E00016B
:100B58007A6FBEEC60F01200A0C29FF2EFC07AF08C
:100B6800F0C07BF0000E00017C6FA00E00017D6FCD
:100B7800020E00017E6F49EC39F00009D8A492D02A
:100B88000201A3510201A21104E10201A105D8A0AA
:100B980011D02A0E00017B6FF60E00017C6F0EEC5F
:100BA8005FF00F0E0001796FE90E00017A6FBEEC5D
:100BB80060F01200A0C29EF20C0E0001BC6F020E83
:100BC8000001BD6F4D0E0001BE6FFB0E0001BF6F2F
:100BD8009EC2C0F00001C16B7AEC1CF00C0E000143
:100BE8007B6F020E00017C6F04EC60F00C0E0001BC
:100BF800BC6F020E0001BD6F380E0001BE6FFB0E08
:100C08000001BF6F9FC2C0F00001C16B7AEC1CF0FD
:100C18000C0E00017B6F020E00017C6F04EC60F08B
:100C28009FC272F002019E518AEC4CF072C092F29F
:100C380073C093F274C094F275C095F292C283F0B7
:100C480093C284F094C285F095C286F0000E00012C
:100C5800876F34EC59F00C0E0001BC6F020E0001D6
:100C6800BD6FA20E0001BE6FF90E0001BF6F92C2E8
:100C7800C0F093C2C1F094C2C2F095C2C3F07AEC3E
:100C88001CF00C0E00017B6F020E00017C6F04EC5F
:100C980060F00F0E0001796FE90E00017A6FBEEC6B
:100CA80060F01200EB0E00017B6FF50E00017C6F07
:100CB8000EEC5FF00F0E0001796FE90E00017A6FFC
:100CC800BEEC60F01200EFC07AF0F0C07BF0000ECE
:100CD80000017C6F920E00017D6F020E00017E6F95
:100CE80049EC39F00009D8A493D092C283F093C29A
:100CF80084F094C285F095C286F0000E0001876FDB
:100D080034EC59F00C0E0001BC6F020E0001BD6FEF
:100D1800460E0001BE6FFC0E0001BF6F92C2C0F00C
:100D280093C2C1F094C2C2F095C2C3F07AEC1CF031
:100D38000C0E00017B6F020E00017C6F04EC60F06A
:100D480092C272F093C273F094C274F095C275F0B7
:100D58009E0E0001766F020E0001776F9F0E000154
:100D6800786F020E0001796F8BEC58F00009D8B447
:100D780035D00C0E0001BC6F020E0001BD6F510E84
:100D88000001BE6FFB0E0001BF6F9EC2C0F00001E4
:100D9800C16B7AEC1CF00C0E00017B6F020E000197
:100DA8007C6F04EC60F00C0E0001BC6F020E0001B9
:100DB800BD6FBD0E0001BE6FF00E0001BF6F9FC278
:100DC800C0F00001C16B7AEC1CF00C0E00017B6FC7
:100DD800020E00017C6F04EC60F011D0090E0001D6
:100DE8007B6FF50E00017C6F0EEC5FF00F0E0001BB
:100DF800796FE90E00017A6FBEEC60F012000F0EF9
:100E08000001796FE90E00017A6FBEEC60F0120004
:100E1800EFC06EF0F0C06FF0E70E0001706FFF0ECC
:100E28000001716F72EC4EF00009D8A410D00F0EBB
:100E38000001796FE90E00017A6FBEEC60F0C50E13
:100E480000017B6FF60E00017C6F0EEC5FF00F0E59
:100E58000001796FE90E00017A6FBEEC60F0940E24
:100E680000017B6FFF0E00017C6F0EEC5FF01E0E21
:100E780000017B6FFC0E00017C6F0EEC5FF03B0EF7
:100E880000017B6FFF0E00017C6F0EEC5FF05A0EC5
:100E980000017B6FFA0E00017C6F0EEC5FF00F0E05
:100EA8000001796FE90E00017A6FBEEC60F06C0EFC
:100EB80000017B6FFF0E00017C6F0EEC5FF0060EE9
:100EC80000017B6FFD0E00017C6F0EEC5FF03D0EA4
:100ED80000017B6FFF0E00017C6F0EEC5FF05E0E71
:100EE80000017B6FFD0E00017C6F0EEC5FF00F0EB2
:100EF8000001796FE90E00017A6FBEEC60F0120014
:100F0800EFC071F0F0C072F0B20E0001736FFE0E08
:100F18000001746F7EEC44F00009D8B4D2D2EFC05F
:100F280089F0F0C08AF04AEC43F00201966F0201A2
:100F380096510201D8B46CD2020E02019619D8A4B7
:100F480003D00001F12B00D0EFC07AF0F0C07BF0A5
:100F5800000E00017C6FA00E00017D6F020E0001E3
:100F68007E6F49EC39F00009D8A452D20201A3518E
:100F78000201A2110201A11104E10D0E0201A05DFE
:100F8800D8B02CD20201A0510201A1110201A21174
:100F98000201A311D8B422D2EFC071F0F0C072F0F0
:100FA8007E0E0001736FFC0E0001746F7EEC44F03E
:100FB8000009D8A423D1FE0E0201006FFF0E020122
:100FC800016FA0C202F2A1C203F2D8900201023757
:100FD80003370201005102010227020101510201F7
:100FE8000323C90E0201046F020E0201056F050EEC
:100FF80002010427000E0523020102510201042701
:101008000201035102010523010E02010425D96ED4
:10101800000E02010521DA6EDF500001726FFE0E2C
:101028000201066FFF0E0201076FA0C208F2A1C2FB
:1010380009F2D89002010837093702010651020166
:1010480008270201075102010923CE0E02010825D3
:10105800D96E020E02010921DA6EDF508AEC4CF0DB
:1010680072C085F273C086F274C087F275C088F2C8
:101078000201852908E1020187290201861102017E
:101088008811D8B4A9D085C283F086C284F087C2FB
:1010980085F088C286F0000E0001876F34EC59F0A5
:1010A8000C0E0001BC6F020E0001BD6F620E000144
:1010B800BE6FFB0E0001BF6F85C2C0F086C2C1F0D3
:1010C80087C2C2F088C2C3F07AEC1CF00C0E000193
:1010D8007B6F020E00017C6F04EC60F00C0E0001C7
:1010E800BC6F020E0001BD6FA20E0001BE6FF00EB4
:1010F8000001BF6FFE0E0201006FFF0E0201016FBB
:10110800A0C202F2A1C203F2D8900201023703374B
:1011180002010051020102270201015102010323C9
:10112800CE0E02010225D96E020E02010321DA6EEB
:10113800DF500201046F020104510001C06FC16B4E
:10114800FE0E0201056FFF0E0201066FA0C207F234
:10115800A1C208F2D89002010737083702010551E9
:10116800020107270201065102010823C90E0201E4
:10117800096F020E02010A6F050E02010927000E0F
:101188000A2302010751020109270201085102013D
:101198000A23010E02010925D96E000E02010A2157
:1011A800DA6EDF5002010B6F02010B510001C26FB2
:1011B800C36B7AEC1CF00C0E00017B6F020E000171
:1011C8007C6F04EC60F00F0E0001796FE90E0001EE
:1011D8007A6FBEEC60F012000F0E0001796FE90E15
:1011E80000017A6FBEEC60F05F0E00017B6FEF0EBE
:1011F80000017C6F0EEC5FF012000AD1C0EC5AF0CF
:101208000009D8B4120001D01200E7C372F0E8C395
:1012180073F0E9C374F0EAC375F09E0E0001766FAF
:10122800020E0001776F9F0E0001786F020E000119
:10123800796F8BEC58F0FE0E0201006FFF0E020171
:10124800016FA0C202F2A1C203F2D89002010237D4
:101258000337020100510201022702010151020174
:101268000323CE0E02010225D96E020E02010321CC
:10127800DA6E9EC2DFFFFE0E0201006FFF0E020152
:10128800016FA0C202F2A1C203F2D8900201023794
:101298000337020100510201022702010151020134
:1012A8000323C90E0201046F020E0201056F050E29
:1012B80002010427000E052302010251020104273E
:1012C8000201035102010523010E02010425D96E12
:1012D800000E02010521DA6E9FC2DFFFCCEC5BF045
:1012E8000F0E0001796FE90E00017A6FBEEC60F015
:1012F8000C0E0001BC6F020E0001BD6FBD0E000197
:10130800BE6FEF0E0001BF6FA0C2C0F0A1C2C1F056
:10131800A2C2C2F0A3C2C3F0E7C3C4F0E8C3C5F0D9
:10132800E9C3C6F0EAC3C7F07AEC1CF00C0E000162
:101338007B6F020E00017C6F04EC60F00C0E000164
:10134800BC6F020E0001BD6FA20E0001BE6FF00E51
:101358000001BF6F9EC2C0F00001C16B9FC2C2F006
:101368000001C36B7AEC1CF00C0E00017B6F020EBF
:1013780000017C6F04EC60F00F0E0001796FE90E3C
:1013880000017A6FBEEC60F0000E0201A56F090E35
:101398000201A56502D0120012008B84500E0001D4
:1013A8006E6FC30E6F6F000E706F000E716FDCEC06
:1013B8005DF08B94500E00016E6FC30E6F6F000EC0
:1013C800706F000E716FDCEC5DF00201A52B090E49
:1013D8000201A565E2D7120012001AD00F0E000113
:1013E800796FE90E00017A6FBEEC60F0870E00019C
:1013F8007B6FF30E00017C6F0EEC5FF00F0E0001A7
:10140800796FE90E00017A6FBEEC60F0120000D02F
:101418000F0E0001796FE90E00017A6FBEEC60F0E3
:101428003A0E00017B6FF40E00017C6F0EEC5FF04A
:101438000F0E0001796FE90E00017A6FBEEC60F0C3
:10144800940E00017B6FFF0E00017C6F0EEC5FF0C5
:101458006F0E00017B6FFD0E00017C6F0EEC5FF0DC
:101468006E0E00017B6FFC0E00017C6F0EEC5FF0CE
:101478000F0E0001796FE90E00017A6FBEEC60F083
:101488006C0E00017B6FFF0E00017C6F0EEC5FF0AD
:10149800DB0E00017B6FFD0E00017C6F0EEC5FF030
:1014A800180E00017B6FFD0E00017C6F0EEC5FF0E3
:1014B8000F0E0001796FE90E00017A6FBEEC60F043
:1014C8001200EFC071F0F0C072F0A90E0001736F46
:1014D800FF0E0001746F7EEC44F00009D8A410D010
:1014E800EFC071F0F0C072F0750E0001736FFF0E5F
:1014F8000001746F7EEC44F00009D8B404EF13F0D7
:10150800000E02018D6FEFC071F0F0C072F0A90EED
:101518000001736FFF0E0001746F7EEC44F0000948
:10152800D8B404D0010E0201916F16D0000E02014A
:10153800916FEFC071F0F0C072F0880E0001736F08
:10154800FD0E0001746F7EEC44F00009D8B404D09D
:10155800010E02018D6F00D0EFC071F0F0C072F083
:101568009E0E0001736FFF0E0001746F7EEC44F055
:101578000009D8B402D3C0EC5AF00009D8B412005C
:1015880001D012000F0E0001796FE90E00017A6F89
:10159800BEEC60F0E7C372F0E8C373F0E9C374F01F
:1015A800EAC375F09E0E0001766F020E0001776F98
:1015B8009F0E0001786F020E0001796F8BEC58F0D6
:1015C800010E02019C6F000E0201A46F580E020169
:1015D800A46501D05CD2000E02019B6F000E0201CF
:1015E800A56F0201A5510201D8A44BD001D049D062
:1015F8000201A451020D000E0201006F040E020147
:10160800016FF35002010027F45002010123020187
:10161800A551020DF35002010025D96EF4500201C4
:101628000121DA6EDF50D8A429D00201A451020D9D
:10163800000E0201006F040E0201016FF350020157
:101648000027F450020101230201A551020DF350B5
:1016580002010027F45002010123010E02010025B6
:10166800D96E000E02010121DA6EDF50D8A406D02F
:10167800A5C29CF2010E02019B6F03D00201A52BAB
:10168800B0D702019105D8A4D0D002019B51020124
:10169800D8A415D0F40E0001796FF30E00017A6F0B
:1016A800BEEC60F00201A4518CEC4AF00F0E000170
:1016B800796FE90E00017A6FBEEC60F0E5D10201A6
:1016C8009C510201D8B458D0000E0201A56F4CD02D
:1016D8000201A451020D000E0201006F040E020166
:1016E800016FF35002010027F450020101230201A7
:1016F800A551020DF35002010025D96EF4500201E4
:101708000121DA6E02019E51DE18D8A42AD0020106
:10171800A451020D000E0201006F040E0201016FB8
:10172800F35002010027F450020101230201A551E0
:10173800020DF35002010027F45002010123010EAB
:1017480002010025D96E000E02010121DA6E0201A4
:101758009F51DE18D8A405D0000E02019B6F0CD053
:1017680000D00201A52B00D002019C510201A55D09
:10177800D8B002D0ADD700D002019B510201D8A445
:1017880015D0A30E0001796FF40E00017A6FBEEC3C
:1017980060F00201A4518CEC4AF00F0E0001796F41
:1017A800E90E00017A6FBEEC60F06ED10201A4511F
:1017B800020D000E0201006F040E0201016FF350CA
:1017C80002010027F4500201012302019C51020D7D
:1017D800F35002010025D96EF45002010121DA6E9E
:1017E8009EC2DFFF0201A451020D000E0201006F2C
:1017F800040E0201016FF35002010027F4500201A8
:10180800012302019C51020DF35002010027F450FC
:1018180002010123010E02010025D96E000E02010A
:101828000121DA6E9FC2DFFF2FD102019C51020114
:10183800D8B42AD1000E0201A56F1ED10201A4510D
:10184800020D000E0201006F040E0201016FF35039
:1018580002010027F450020101230201A551020DE3
:10186800F35002010025D96EF45002010121DA6E0D
:1018780002019E51DE18D8A4FCD00201A451020D29
:10188800000E0201006F040E0201016FF350020105
:101898000027F450020101230201A551020DF35063
:1018A80002010027F45002010123010E0201002564
:1018B800D96E000E02010121DA6E02019F51DE1875
:1018C800D8A4D7D00201A451020D000E0201006F66
:1018D800040E0201016FF35002010027F4500201C7
:1018E80001230201A551020DF35002010025D96E12
:1018F800F45002010121DA6E000EDF6E0201A451DC
:10190800020D000E0201006F040E0201016FF35078
:1019180002010027F450020101230201A551020D22
:10192800F35002010027F45002010123010E0201C5
:101938000025D96E000E02010121DA6E000EDF6E5D
:10194800A5C298F2A1D00201A451020D020198513A
:101958000201006F016BD890020100370137020EB7
:1019680002010027000E0123000E0201026F040E7F
:101978000201036F02010051020102270201015115
:1019880002010323F35002010225D96EF45002012B
:101998000321DA6E0201A451020D000E0201046F48
:1019A800040E0201056FF35002010427F4500201EE
:1019B800052302019851020DF35002010425E16E3E
:1019C800F45002010521E26EDFCFE7FF0201A451C6
:1019D800020D020198510201006F016BD8900201BB
:1019E80000370137020E02010027000E0123000E06
:1019F8000201026F040E0201036F0201005102018D
:101A080002270201015102010323F35002010227B8
:101A1800F45002010323010E02010225D96E000EC3
:101A280002010321DA6E0201A451020D000E020127
:101A3800046F040E0201056FF35002010427F450ED
:101A48000201052302019851020DF35002010427F7
:101A5800F45002010523010E02010425E16E000E77
:101A680002010521E26EDFCFE7FF0201982B0CD0BF
:101A780000D00201A52B00D002019C510201A55DF6
:101A8800D8B002D0DBD600D00201A42B9FD5CCEC75
:101A98005BF0000E0201A56F090E0201A56501D0D9
:101AA80029D002019105D8A402D08B8402D08B8260
:101AB80000D0500E00016E6FC30E6F6F000E706F76
:101AC800000E716FDCEC5DF002019105D8A402D024
:101AD8008B9402D08B9200D0500E00016E6FC30E13
:101AE8006F6F000E706F000E716FDCEC5DF002011D
:101AF800A52BD2D702019105D8A417D00C0E00014E
:101B0800BC6F020E0001BD6FAA0E0001BE6FF10E80
:101B18000001BF6FE7C3C0F0E8C3C1F0E9C3C2F07A
:101B2800EAC3C3F07AEC1CF017D00C0E0001BC6FAE
:101B3800020E0001BD6F100E0001BE6FEC0E000119
:101B4800BF6FE7C3C0F0E8C3C1F0E9C3C2F0EAC39E
:101B5800C3F07AEC1CF000D00C0E00017B6F020E73
:101B680000017C6F04EC60F00F0E0001796FE90E44
:101B780000017A6FBEEC60F0120002018D05D8B446
:101B88005AD2EFC089F0F0C08AF04AEC43F0020163
:101B9800966F020196510201D8A411D03D0E0001A2
:101BA8007B6FF30E00017C6F0EEC5FF00F0E0001EF
:101BB800796FE90E00017A6FBEEC60F01200020E38
:101BC80002019619D8A403D00001F12B00D00F0E02
:101BD8000001796FE90E00017A6FBEEC60F0EFC08A
:101BE8007AF0F0C07BF0000E00017C6FA00E0001BF
:101BF8007D6F020E00017E6F49EC39F00009D8A410
:101C080003D0A0C29DF211D0EB0E00017B6FEF0E46
:101C180000017C6F0EEC5FF00F0E0001796FE90E8A
:101C280000017A6FBEEC60F0120002019D510201C2
:101C3800D8B405D0030E02019D6512D000D0620E03
:101C480000017B6FF30E00017C6F0EEC5FF00F0E4E
:101C58000001796FE90E00017A6FBEEC60F01200A6
:101C6800EFC06EF0F0C06FF0010E0001706F7B0ED8
:101C78000001716F020E0001726FE8EC51F000096B
:101C8800D8B412D0A10E00017B6FF20E00017C6F58
:101C98000EEC5FF00F0E0001796FE90E00017A6F0C
:101CA800BEEC60F01200C7D17B0E00016E6F020E11
:101CB80000016F6FECEC5EF002019D05D8B405D011
:101CC800020E02019D19D8A42AD102017C51D8B470
:101CD80005D0200E02017C19D8A40FD1000E0201F4
:101CE8007C6F02019D05D8A415D0070E0001716F05
:101CF800E90E0001726F7B0E0001736F020E000186
:101D0800746F7EEC44F00009D8A419D0000E0201CB
:101D18009B6F15D0020E02019D19D8A410D00B0E8E
:101D28000001716FE90E0001726F7B0E0001736F85
:101D3800020E0001746F7EEC44F0E5D700D002017A
:101D48009B510201D8A411D0A60E00017B6FF60E9C
:101D580000017C6F0EEC5FF00F0E0001796FE90E49
:101D680000017A6FBEEC60F0120002019D05D8A454
:101D780017D0640E02017B19D8A402D0000E22D01D
:101D8800650E02017B19D8A402D0010E1BD0660E85
:101D980002017B19D8A41200020E14D012004BD1F4
:101DA800020E02019D19D8A446D1620E02017B19C8
:101DB800D8A402D0030E06D0640E02017B19D8A461
:101DC80004D0040E02019A6F36D1680E02017B1905
:101DD800D8A41200B60E00016E6F040E00016F6FDA
:101DE800D1C370F00001716BB0EC5DF0000E03011F
:101DF800D16F000E0301D06F130E0001796FFE0E34
:101E080000017A6FBEEC60F00F0E0001796FE90EE9
:101E180000017A6FBEEC60F03E0E57EC60F0000EE9
:101E28000201996F87EC62F09E9A9D8A23D0E00E9A
:101E380000016E6F930E6F6F040E706F000E716F5E
:101E4800DCEC5DF00201992B190E0201996512D0A4
:101E58000F0E0001796FE90E00017A6FBEEC60F099
:101E6800A30E00017B6FED0E00017C6F0EEC5FF09E
:101E7800120000D00301D051D8B4D9D79D9A010ED1
:101E880002019B6F300E0401B66505D0330E0401C4
:101E9800B6650DD000D0D50E00017B6FED0E0001A8
:101EA8007C6F0EEC5FF0000E02019B6F00D0040106
:101EB800B651D00F0201906F02019051040F020138
:101EC8009A6FB60E00016E6F040E00016F6FD1C3DA
:101ED80070F00001716BB0EC5DF0000E0301D16F82
:101EE800000E0301D06F02019B510201D8B4120009
:101EF800A2D01200A0D012009ED0520E00017B6F1B
:101F0800F10E00017C6F0EEC5FF00F0E0001796F8F
:101F1800E90E00017A6FBEEC60F012008CD0030E5F
:101F280002019D19D8A487D002017C51D8B471D080
:101F380002017B510201D8B46CD002017D51D8B4A2
:101F480005D0200E02017D19D8A463D07CC270F29E
:101F5800000E02017C6FC50E0001716FE70E0001D3
:101F6800726F7B0E0001736F020E0001746F7EECBE
:101F780044F00009D8A404D0000E02019B6F00D0E1
:101F8800FC0E0001716FE80E0001726F700E000107
:101F9800736F020E0001746F7EEC44F00009D8A440
:101FA80003D0000E02019B6F02019B510201D8A4CD
:101FB80011D0270E00017B6FF20E00017C6F0EEC32
:101FC8005FF00F0E0001796FE90E00017A6FBEEC29
:101FD80060F0120002017B51F9EC61F00009D8B4FD
:101FE80004D0300E02017B5F07D0610E02017B5FD7
:101FF8000A0E02017B2700D002017B51050DF35028
:10200800080F02019A6F02017051CF0F02019A273F
:1020180012D0750E00017B6FF00E00017C6F0EEC84
:102028005FF00F0E0001796FE90E00017A6FBEECC8
:1020380060F0120000D0020191510201D8B4B4D16D
:10204800C0EC5AF00009D8B4120001D012000F0EEB
:102058000001796FE90E00017A6FBEEC60F0E7C30A
:1020680072F0E8C373F0E9C374F0EAC375F09E0E2A
:102078000001766F020E0001776F9F0E0001786FE6
:10208800020E0001796F8BEC58F0000E02019B6F75
:10209800000E0201A56F0201A5510201D8A44BD080
:1020A80001D049D002019A51020D000E0201006FC1
:1020B800040E0201016FF35002010027F4500201DF
:1020C80001230201A551020DF35002010025D96E2A
:1020D800F45002010121DA6EDF50D8A429D00201A0
:1020E8009A51020D000E0201006F040E0201016FE9
:1020F800F35002010027F450020101230201A55107
:10210800020DF35002010027F45002010123010ED1
:1021180002010025D96E000E02010121DA6EDF509E
:10212800D8A406D0A5C29CF2010E02019B6F03D071
:102138000201A52BB0D702019B510201D8A409D0F6
:102148008E0E00017B6FEF0E00017C6F0EEC5FF0CE
:10215800120002019C510201D8B458D0000E0201AD
:10216800A56F4CD002019A51020D000E0201006FBA
:10217800040E0201016FF35002010027F45002011E
:1021880001230201A551020DF35002010025D96E69
:10219800F45002010121DA6E02019E51DE18D8A422
:1021A8002AD002019A51020D000E0201006F040E9E
:1021B8000201016FF35002010027F45002010123CC
:1021C8000201A551020DF35002010027F45002014B
:1021D8000123010E02010025D96E000E0201012122
:1021E800DA6E02019F51DE18D8A405D0000E020154
:1021F8009B6F0CD000D00201A52B00D002019C518E
:102208000201A55DD8B002D0ADD700D002019B5124
:102218000201D8A409D0190E00017B6FF00E00014D
:102228007C6F0EEC5FF0120002019A51020D000E55
:102238000201006F040E0201016FF3500201002732
:10224800F4500201012302019C51020DF3500201D6
:102258000025D96EF45002010121DA6E9EC2DFFF1B
:1022680002019A51020D000E0201006F040E0201D4
:10227800016FF35002010027F4500201012302010B
:102288009C51020DF35002010027F4500201012372
:10229800010E02010025D96E000E02010121DA6E3D
:1022A8009FC2DFFFCCEC5BF0020190510201D8B471
:1022B80023D00C0E0001BC6F020E0001BD6F920E00
:1022C8000001BE6FE90E0001BF6FE7C3C0F0E8C3AD
:1022D800C1F0E9C3C2F0EAC3C3F09DC2C4F0000173
:1022E800C56B7BC2C6F00001C76B90C2C8F0000185
:1022F800C96B7AEC1CF01FD00C0E0001BC6F020EEB
:102308000001BD6F6F0E0001BE6FEB0E0001BF6FC5
:10231800E7C3C0F0E8C3C1F0E9C3C2F0EAC3C3F041
:102328009DC2C4F00001C56B7BC2C6F00001C76B3B
:102338007AEC1CF000D00C0E00017B6F020E00013D
:102348007C6F04EC60F00F0E0001796FE90E00015C
:102358007A6FBEEC60F0000E0201A56F090E020153
:10236800A56502D0120012008B84500E00016E6F1A
:10237800C30E6F6F000E706F000E716FDCEC5DF0B6
:102388008B94500E00016E6FC30E6F6F000E706F4E
:10239800000E716FDCEC5DF00201A52B090E020145
:1023A800A565E2D71200120002018D05D8A457D006
:1023B800000E0201A56F0201A5510201D8A49BD00D
:1023C80001D099D0000E0201986F580E020198654D
:1023D80001D041D002019851020D000E0201006F98
:1023E800040E0201016FF35002010027F4500201AC
:1023F80001230201A551020DF35002010025D96EF7
:10240800F45002010121DA6E000EDF6E02019851CC
:10241800020D000E0201006F040E0201016FF3505D
:1024280002010027F450020101230201A551020D07
:10243800F35002010027F45002010123010E0201AA
:102448000025D96E000E02010121DA6E000EDF6E42
:102458000201982BBAD70201A52BADD74CD0000E9C
:102468000201A56F0201A5510201D8A444D001D0F0
:1024780042D002019A51020D000E0201006F040EB3
:102488000201016FF35002010027F45002010123F9
:102498000201A551020DF35002010025D96EF45036
:1024A80002010121DA6E000EDF6E02019A51020D5F
:1024B800000E0201006F040E0201016FF3500201C9
:1024C8000027F450020101230201A551020DF35027
:1024D80002010027F45002010123010E0201002528
:1024E800D96E000E02010121DA6E000EDF6E0201C4
:1024F800A52BB8D700D0CCEC5BF002018D05D8A491
:102508000FD00C0E0001BC6F020E0001BD6F520E01
:102518000001BE6FE90E0001BF6F7AEC1CF037D0E6
:10252800020190510201D8B41BD00C0E0001BC6FFF
:10253800020E0001BD6FA50E0001BE6FEB0E00017B
:10254800BF6F9DC2C0F00001C16B7BC2C2F0000129
:10255800C36B90C2C4F00001C56B7AEC1CF017D0B5
:102568000C0E0001BC6F020E0001BD6F260E0001AB
:10257800BE6FF10E0001BF6F9DC2C0F00001C16BBC
:102588007BC2C2F00001C36B7AEC1CF000D00C0EC9
:1025980000017B6F020E00017C6F04EC60F00F0EEF
:1025A8000001796FE90E00017A6FBEEC60F0000E51
:1025B8000201A56F090E0201A56502D012001200E2
:1025C8008B82500E00016E6FC30E6F6F000E706F1E
:1025D800000E716FDCEC5DF08B92500E00016E6F97
:1025E800C30E6F6F000E706F000E716FDCEC5DF044
:1025F8000201A52B090E0201A565E2D712001200FF
:10260800EFC071F0F0C072F0C80E0001736FFF0EDA
:102618000001746F76EC5AF00009D8B497D0B60E62
:1026280000016E6F040E00016F6FD1C370F00001DE
:10263800716BB0EC5DF0000E0301D16F000E030169
:10264800D06FCB0E0001796FF50E00017A6FBEECEA
:1026580060F00F0E0001796FE90E00017A6FBEEC91
:1026680060F03E0EE7EC5FF0000E0201996F87EC18
:1026780062F09E9A9D8A23D0E00E00016E6F930E41
:102688006F6F040E706F000E716FDCEC5DF002016D
:10269800992B190E0201996512D00F0E0001796F5E
:1026A800E90E00017A6FBEEC60F0E40E00017B6F6A
:1026B800F60E00017C6F0EEC5FF0120000D00301F3
:1026C800D051D8B4D9D79D9A590E0401B619D8B4A7
:1026D80009D0790E0401B619D8A414D00401B75151
:1026E800D8A410D02A0E00017B6FFD0E00017C6F6C
:1026F8000EEC5FF0000E0201E66FCCEC5BF0FF0021
:10270800120011D00F0E0001796FE90E00017A6FE7
:10271800BEEC60F0E40E00017B6FF60E00017C6FEA
:102728000EEC5FF000D0B60E00016E6F040E0001D3
:102738006F6FD1C370F00001716BB0EC5DF0000EEB
:102748000301D16F000E0301D06F1200EFC071F0CA
:10275800F0C072F0460E0001736FFF0E0001746F37
:1027680076EC5AF00009D8B498D1B60E00016E6F15
:10277800040E00016F6FD1C370F00001716BB0ECF3
:102788005DF0000E0301D16F000E0301D06F100E33
:102798000001796FEA0E00017A6FBEEC60F00F0E4F
:1027A8000001796FE90E00017A6FBEEC60F03E0E11
:1027B80057EC60F0000E0201996F87EC62F09E9A68
:1027C8009D8A23D0E00E00016E6F930E6F6F040E8A
:1027D800706F000E716FDCEC5DF00201992B190E21
:1027E8000201996512D00F0E0001796FE90E000100
:1027F8007A6FBEEC60F0470E00017B6FF00E0001AF
:102808007C6F0EEC5FF0120000D00301D051D8B4F9
:10281800D9D79D9AB60E00016E6F040E00016F6F36
:10282800D80E0001706FFF0E0001716F47EC5CF06D
:102838000009D8B421D1B60E00016E6F040E000154
:102848006F6FD1C370F00001716BB0EC5DF0000EDA
:102858000301D16F000E0301D06F420E0001796FA2
:10286800F90E00017A6FBEEC60F00F0E0001796F6F
:10287800E90E00017A6FBEEC60F03E0EE7EC5FF007
:10288800000E0201996F87EC62F09E9A9D8A2FD004
:10289800E00E00016E6F930E6F6F040E706F000EE6
:1028A800716FDCEC5DF00201992B02017A51030192
:1028B800D119D8B404D0000E0201996F00D0190EB6
:1028C8000201996511D00F0E0001796FE90E000120
:1028D8007A6FBEEC60F0470E00017B6FF00E0001CE
:1028E8007C6F0EEC5FF01200D1C37AF200D00301C6
:1028F800D051D8B4CDD7B60E0001896F040E0001AF
:102908008A6F4AEC43F00201966F02019651020168
:10291800D8B4A1D0020E02019619D8A403D003019D
:10292800D12B00D0B60E00017A6F040E00017B6F28
:10293800000E00017C6F890E00017D6F020E000100
:102948007E6F06EC37F00009D8A485D002018CBF51
:1029580082D002018C5102018B1102018A1104E11B
:1029680002018905D8A077D089C2B2F48AC2B3F42B
:102978008BC2B4F48CC2B5F4020E0001A46F000E31
:10298800A56F000EA66F000EA76FD4EC4DF00001E6
:10299800A4510001A5110001A6110001A711D8A496
:1029A80048D0F7EC62F0FA0E00017B6FF00E0001E0
:1029B8007C6F0EEC5FF00C0E0001BC6F020E000184
:1029C800BD6FC90E0001BE6FF70E0001BF6FB2C424
:1029D800C0F0B3C4C1F0B4C4C2F0B5C4C3F07AEC5B
:1029E8001CF00C0E00017B6F020E00017C6F04ECE2
:1029F80060F00F0E0001796FE90E00017A6FBEECEE
:102A080060F02A0E00017B6FFD0E00017C6F0EEC5A
:102A18005FF0000E0201E66FCCEC5BF00F0E0001D8
:102A2800796FE90E00017A6FBEEC60F0FF001200CA
:102A380012D0CE0E00017B6FF00E00017C6F0EEC01
:102A48005FF00F0E0001796FE90E00017A6FBEEC9E
:102A580060F0120000D0E70E00017B6FF40E000159
:102A68007C6F0EEC5FF00F0E0001796FE90E00012C
:102A78007A6FBEEC60F01200B20E00017B6FF80EA8
:102A880000017C6F0EEC5FF00F0E0001796FE90E0C
:102A980000017A6FBEEC60F01200EFC071F0F0C078
:102AA80072F00C0E0001736FFB0E0001746F76EC70
:102AB8005AF00009D8B45FD1B60E00016E6F040E4B
:102AC80000016F6FD1C370F00001716BB0EC5DF065
:102AD800000E0301D16F000E0301D06F0F0E00012D
:102AE800796FE90E00017A6FBEEC60F0170E0001F5
:102AF800796FF30E00017A6FBEEC60F00F0E0001E3
:102B0800796FE90E00017A6FBEEC60F03E0E57EC6B
:102B180060F0000E0201996F87EC62F09E9A9D8A20
:102B280023D0E00E00016E6F930E6F6F040E706F6E
:102B3800000E716FDCEC5DF00201992B190E020199
:102B4800996512D00F0E0001796FE90E00017A6FB6
:102B5800BEEC60F0360E00017B6FEB0E00017C6F5F
:102B68000EEC5FF0120000D00301D051D8B4D9D7D1
:102B78009D9A590E0401B619D8B409D0790E0401EA
:102B8800B619D8A4E7D00401B751D8A4E3D0B60E3B
:102B980000016E6F040E00016F6FD1C370F0000169
:102BA800716BB0EC5DF0000E0301D16F000E0301F4
:102BB800D06F0F0E0001796FE90E00017A6FBEEC3D
:102BC80060F05D0E0001796FF40E00017A6FBEECC3
:102BD80060F00F0E0001796FE90E00017A6FBEEC0C
:102BE80060F03E0EE7EC5FF0000E0201996F87EC93
:102BF80062F09E9A9D8A27D0E00E00016E6F930EB8
:102C08006F6F040E706F000E716FDCEC5DF00201E7
:102C1800992B02017A510301D119D8B404D0000EBE
:102C28000201996F00D0190E0201996509D0360E7C
:102C380000017B6FEB0E00017C6F0EEC5FF0120061
:102C4800D1C37AF200D00301D051D8B4D5D79D9A18
:102C58000F0E0001796FE90E00017A6FBEEC60F08B
:102C68000F0E0001796FE90E00017A6FBEEC60F07B
:102C78000401B651D8B45DD00401CA51D8A459D0C2
:102C8800B60E0001706F040E0001716F3CEC60F02D
:102C98000009D8B43DD0DB0E00017B6FEB0E0001BC
:102CA8007C6F0EEC5FF00F0E0001796FE90E0001EA
:102CB8007A6FBEEC60F0B60E0001826F040E000160
:102CC800836FD20E0001846F030E0001856F150E0D
:102CD8000001866F000E0001876FF2EC46F0500E7F
:102CE80000016E6FC30E6F6F000E706F000E716F74
:102CF800DCEC5DF0000E76EC2AF00009D8B404D0C4
:102D0800010E0301CD6F1200000E0301CD6F1200FA
:102D1800FE0E00017B6FF10E00017C6F0EEC5FF080
:102D28000F0E0001796FE90E00017A6FBEEC60F0BA
:102D38001200120E00017B6FE90E00017C6F0EEC91
:102D48005FF00F0E0001796FE90E00017A6FBEEC9B
:102D580060F01200360E00017B6FEB0E00017C6FF5
:102D68000EEC5FF00F0E0001796FE90E00017A6F2B
:102D7800BEEC60F01200EFC071F0F0C072F07E0E91
:102D88000001736FFF0E0001746F76EC5AF00009B2
:102D9800D8B42FD00F0E0001796FE90E00017A6FB9
:102DA800BEEC60F00C0E0001BC6F020E0001BD6F9E
:102DB8005A0E0001BE6FFC0E0001BF6F27EC5AF0DF
:102DC80097C0C0F098C0C1F099C0C2F07AEC1CF06E
:102DD8000C0E00017B6F020E00017C6F04EC60F0AA
:102DE8000F0E0001796FE90E00017A6FBEEC60F0FA
:102DF8001200EFC071F0F0C072F09B0E0001736F0B
:102E0800F40E0001746F76EC5AF00009D8B4C3D000
:102E18000F0E0001796FE90E00017A6FBEEC60F0C9
:102E28000C0E0001BC6F020E0001BD6FF50E000113
:102E3800BE6FFB0E0001BF6FF30E0001C06FE80EFE
:102E48000001C16F7AEC1CF00C0E00017B6F020EC2
:102E580000017C6F04EC60F00F0E0001796FE90E41
:102E680000017A6FBEEC60F0580E00017B6FF70E20
:102E780000017C6F0EEC5FF00F0E0001796FE90E18
:102E880000017A6FBEEC60F0B90E00017B6FF90E9D
:102E980000017C6F0EEC5FF0AB0E00017B6F020E41
:102EA80000017C6F04EC60F0B40E00017B6F050E2E
:102EB80000017C6F04EC60F00F0E0001796FE90EE1
:102EC80000017A6FBEEC60F00C0E0001BC6F020EC0
:102ED8000001BD6F8F0E0001BE6FFD0E0001BF6FB8
:102EE800020E0001C06FE90E0001C16F7AEC1CF000
:102EF8000C0E00017B6F020E00017C6F04EC60F089
:102F08000C0E0001BC6F020E0001BD6FFF0E000128
:102F1800BE6FF70E0001BF6F800E0001C06FE70E95
:102F28000001C16F7AEC1CF00C0E0001786F020EE4
:102F38000001796FABEC61F00F0E00017B6FE90EB9
:102F480000017C6F0EEC5FF00C0E0001BC6F020EEE
:102F58000001BD6FE10E0001BE6FFC0E0001BF6FE6
:102F6800B2C4C0F0B3C4C1F0B4C4C2F0B5C4C3F0B5
:102F78007AEC1CF00C0E0001786F020E0001796FDC
:102F8800ABEC61F00F0E0001796FE90E00017A6F6A
:102F9800BEEC60F01200EFC06EF0F0C06FF0E50E0E
:102FA8000001706FFF0E0001716F47EC5CF00009C3
:102FB800D8B460EF1CF00F0E0001796FE90E000124
:102FC8007A6FBEEC60F07C0EE7EC5FF0000E020159
:102FD800A56F4F0E0201A56501D006D07E0EE7EC65
:102FE8005FF00201A52BF5D77C0EE7EC5FF00F0E22
:102FF8000001796FE90E00017A6FBEEC60F07C0E7B
:10300800E7EC5FF0000E0201A56F210E0201A56535
:1030180001D006D07E0EE7EC5FF00201A52BF5D7B4
:10302800280E0001796FF80E00017A6FBEEC60F08F
:10303800000E0201A56F210E0201A56501D006D080
:103048007E0EE7EC5FF00201A52BF5D77C0EE7ECCE
:103058005FF00F0E0001796FE90E00017A6FBEEC88
:1030680060F07C0EE7EC5FF0000E0201A56F4F0EDA
:103078000201A56501D006D07E0EE7EC5FF00201E3
:10308800A52BF5D77C0EE7EC5FF00F0E0001796FEA
:10309800E90E00017A6FBEEC60F00F0E0001796F47
:1030A800E90E00017A6FBEEC60F00F0E0001796F37
:1030B800E90E00017A6FBEEC60F04D0E0001896FD9
:1030C800FD0E00018A6FA5EC4FF0E50E00017B6F45
:1030D800FF0E00017C6F500E00017D6FFF0E000196
:1030E8007E6F59EC51F0C80E00017B6FFF0E000196
:1030F8007C6FAB0E00017D6FF50E00017E6F59EC01
:1031080051F09B0E00017B6FF40E00017C6F800E66
:1031180000017D6FF40E00017E6F59EC51F0460EF0
:1031280000017B6FFF0E00017C6F220E00017D6F96
:10313800FB0E00017E6F59EC51F00C0E00017B6F05
:10314800FB0E00017C6F2A0E00017D6FF50E000159
:103158007E6F59EC51F00F0E0001796FE90E0001F6
:103168007A6FBEEC60F0770E0001896FFB0E0001EC
:103178008A6FA5EC4FF07E0E00017B6FFF0E0001F9
:103188007C6F910E00017D6FF70E00017E6F59EC88
:1031980051F00F0E0001796FE90E00017A6FBEEC55
:1031A80060F04A0E0001896FFE0E00018A6FA5ECDF
:1031B8004FF0010E0201A56F0C0E0201A56501D0AA
:1031C80030D00C0E00016E6F020E00016F6F000E02
:1031D8000001716F320E706FB0EC5DF00C0E0001E3
:1031E800BC6F020E0001BD6FAF0E0001BE6FFD0E79
:1031F8000001BF6FA5C2C0F00001C16B7AEC1CF0E2
:103208000C0E00017B6F020E00017C6F4F0E000157
:103218007D6FF80E00017E6F59EC51F00201A52B6D
:10322800CBD7010E0201A56F0C0E0201A56501D0D6
:1032380030D00C0E00016E6F020E00016F6F000E91
:103248000001716F320E706FB0EC5DF00C0E000172
:10325800BC6F020E0001BD6FCE0E0001BE6FFC0EEA
:103268000001BF6FA5C2C0F00001C16B7AEC1CF071
:103278000C0E00017B6F020E00017C6F5A0E0001DC
:103288007D6FF90E00017E6F59EC51F00201A52BFC
:10329800CBD70F0E0001796FE90E00017A6FBEECF3
:1032A80060F0050E00017B6FFE0E00017C6F0EECD6
:1032B8005FF0300E00017B6FFF0E00017C6FD10EB6
:1032C80000017D6FE90E00017E6F59EC51F0F90E97
:1032D80000017B6FFE0E00017C6F6A0E00017D6F9E
:1032E800EE0E00017E6F59EC51F00F0E00017B6F5E
:1032F800FF0E00017C6FCC0E00017D6FEE0E000109
:103308007E6F59EC51F01A0E00017B6FFF0E000121
:103318007C6FFD0E00017D6FEE0E00017E6F59EC93
:1033280051F0EE0E00017B6FFE0E00017C6F390E2E
:1033380000017D6FEE0E00017E6F59EC51F0040E16
:1033480000017B6FFF0E00017C6F9B0E00017D6FFB
:10335800EE0E00017E6F59EC51F0250E00017B6FD7
:10336800FF0E00017C6F2E0E00017D6FEF0E000135
:103378007E6F59EC51F00F0E0001796FE90E0001D4
:103388007A6FBEEC60F0F70E00017B6FFD0E000156
:103398007C6F0EEC5FF0BF0E00017B6FFE0E00012C
:1033A8007C6FC20E00017D6FEA0E00017E6F59EC42
:1033B80051F0D70E00017B6FFE0E00017C6FE10E0D
:1033C80000017D6FFF0E00017E6F59EC51F0CB0EAE
:1033D80000017B6FFE0E00017C6FFC0E00017D6F0B
:1033E800EA0E00017E6F59EC51F00F0E0001796F63
:1033F800E90E00017A6FBEEC60F0A50E00017B6F4C
:10340800FE0E00017C6FF00E00017D6FF20E0001D0
:103418007E6F59EC51F07F0E00017B6FFD0E0001AD
:103428007C6F7E0E00017D6FF10E00017E6F59ECFE
:1034380051F00F0E0001796FE90E00017A6FBEECB2
:1034480060F0050E00017B6FFE0E00017C6F0EEC34
:103458005FF0640E00017B6FFE0E00017C6FA90E09
:1034680000017D6FEC0E00017E6F59EC51F07E0E6D
:1034780000017B6FFE0E00017C6F0D0E00017D6F59
:10348800ED0E00017E6F59EC51F08B0E00017B6F41
:10349800FE0E00017C6F3F0E00017D6FED0E0001F6
:1034A8007E6F59EC51F0570E00017B6FFE0E000144
:1034B8007C6F770E00017D6FEC0E00017E6F59EC7A
:1034C80051F0710E00017B6FFE0E00017C6FDB0E68
:1034D80000017D6FEC0E00017E6F59EC51F0980EE3
:1034E80000017B6FFE0E00017C6F710E00017D6F85
:1034F800ED0E00017E6F59EC51F00F0E0001796F4F
:10350800E90E00017A6FBEEC60F0F70E00017B6FE8
:10351800FD0E00017C6F0EEC5FF0CD0E00017B6F9D
:10352800FD0E00017C6F4C0E00017D6FEA0E00015C
:103538007E6F59EC51F02F0E00017B6FFE0E0001DB
:103548007C6FE10E00017D6FFF0E00017E6F59EC6C
:1035580051F0E90E00017B6FFD0E00017C6F870EB4
:1035680000017D6FEA0E00017E6F59EC51F00F0EDD
:103578000001796FE90E00017A6FBEEC60F0E40E8D
:1035880000017B6FF70E00017C6F790E00017D6FE3
:10359800F20E00017E6F59EC51F0D30E00017B6FE3
:1035A800FF0E00017C6F790E00017D6FF20E0001A5
:1035B8007E6F59EC51F00F0E0001796FE90E000192
:1035C8007A6FBEEC60F03D0E0001896FFE0E0001BF
:1035D8008A6FA5EC4FF0A20E00017B6FFF0E000171
:1035E8007C6FC50E00017D6FF40E00017E6F59ECF3
:1035F80051F0760E00017B6FE80E00017C6F820EA1
:1036080000017D6FFC0E00017E6F59EC51F0850EB4
:1036180000017B6FE80E00017C6F950E00017D6F45
:10362800FC0E00017E6F59EC51F0940E00017B6F87
:10363800E80E00017C6FA80E00017D6FFC0E0001F2
:103648007E6F59EC51F05C0E00017B6FE70E0001B4
:103658007C6FF60E00017D6FFA0E00017E6F59EC4B
:1036680051F0360E00017B6FE70E00017C6FD00E23
:1036780000017D6FF90E00017E6F59EC51F06E0E5E
:1036880000017B6FE70E00017C6FBB0E00017D6FB0
:10369800FC0E00017E6F59EC51F0490E00017B6F62
:1036A800E70E00017C6F320E00017D6FFC0E0001F9
:1036B8007E6F59EC51F0FA0E00017B6FE60E0001A7
:1036C8007C6F490E00017D6FF60E00017E6F59EC8C
:1036D80051F0BB0E00017B6FE60E00017C6F4B0EB4
:1036E80000017D6FF50E00017E6F59EC51F00E0E52
:1036F80000017B6FE70E00017C6F680E00017D6F93
:10370800F60E00017E6F59EC51F0D00E00017B6F70
:10371800E60E00017C6F6B0E00017D6FF50E000157
:103728007E6F59EC51F0220E00017B6FE70E00010D
:103738007C6F870E00017D6FF60E00017E6F59ECDD
:1037480051F0E50E00017B6FE60E00017C6F8B0ED9
:1037580000017D6FF50E00017E6F59EC51F00F0EE0
:103768000001796FE90E00017A6FBEEC60F0170E68
:1037780000017B6FF40E00017C6F0EEC5FF0440ECD
:1037880000017B6FEC0E00017C6F0EEC5FF08C0E7D
:1037980000017B6FFB0E00017C6FE70E00017D6F5F
:1037A800F90E00017E6F59EC51F0880E00017B6F15
:1037B800FA0E00017C6FCA0E00017D6FF80E000141
:1037C8007E6F59EC51F0A10E00017B6FFB0E0001DA
:1037D8007C6FFE0E00017D6FF90E00017E6F59ECC3
:1037E80051F09E0E00017B6FFA0E00017C6FE20E15
:1037F80000017D6FF80E00017E6F59EC51F0B60E96
:1038080000017B6FFB0E00017C6F150E00017D6FC0
:10381800FA0E00017E6F59EC51F0B40E00017B6F77
:10382800FA0E00017C6FFA0E00017D6FF80E0001A0
:103838007E6F59EC51F0CB0E00017B6FFB0E00013F
:103848007C6F2C0E00017D6FFA0E00017E6F59EC23
:1038580051F0CA0E00017B6FFA0E00017C6F120E48
:1038680000017D6FF90E00017E6F59EC51F0E00EFA
:1038780000017B6FFB0E00017C6F430E00017D6F22
:10388800FA0E00017E6F59EC51F0E00E00017B6FDB
:10389800FA0E00017C6F2A0E00017D6FF90E0001FF
:1038A8007E6F59EC51F00F0E0001796FE90E00019F
:1038B8007A6FBEEC60F01200C10E00017B6FE80E5B
:1038C80000017C6F0EEC5FF01A0E00017B6FF80EA2
:1038D80000017C6F0EEC5FF00F0E0001796FE90EAE
:1038E80000017A6FBEEC60F012001200C00E0001F9
:1038F800D86F000E0001D96F1DEF24F0250E0001CE
:10390800ED19D8B40BD0BCC0D9FFBDC0DAFFEDC0EB
:10391800DFFF0001BC4BBD2B1DEF24F0000E0001A2
:10392800EA6F000EE96F000E0001EC6F000EEB6FFE
:1039380007D00001EB850001BE4BBF2B01D00CD096
:10394800BEC0F6FFBFC0F7FFF86A0800F550300A9E
:10395800D8B4EFD701D0F4D7BEC0F6FFBFC0F7FF89
:10396800F86A0800F55051EC61F0D8A010D1000EAB
:103978000001EA6F000EE96F00D0E9C07CF0EAC0F0
:103988007DF0000E00017F6F0A0E7E6F20EC60F064
:103998007CC0E9F07DC0EAF0D00E0001CA6FFF0ECE
:1039A8000001CB6FBEC0F6FFBFC0F7FFF86A080082
:1039B800F5500001CC6FCD6B0001CA510001CC2736
:1039C8000001CB510001CD230001CC510001E927B2
:1039D8000001CD510001EA230001BE4BBF2BBEC040
:1039E800F6FFBFC0F7FFF86A0800F55051EC61F028
:1039F800D8A0CDD0C2D7CBD02FEF24F00001EB89CF
:103A0800C6D00001EC85F0D000D00001EB8FECD0DF
:103A1800D8C0D9FFD9C0DAFFDECFD4F0DDCFD5F0DA
:103A2800020E0001D827000ED9230001D45100014D
:103A3800D511D8A407D0860E0001D46FFF0E00015F
:103A4800D56F00D0000E0001D76F000ED66F04D0DE
:103A58000001D64BD72B00D00001D6510001D42548
:103A68000001CA6F0001D7510001D5210001CB6FB9
:103A7800CAC0F6FFCBC0F7FF000EF86E0F0EF76452
:103A880003D00800F55005D0F6CFE9FFF7CFEAFFDD
:103A9800EF500009D8B402D0DBD700D00001E951BB
:103AA8000001D65D0001EA510001D759D8B009D00C
:103AB8000001D6510001E95F0001D7510001EA5B1E
:103AC80010D0000E0001EA6F000EE96F0AD0BCC0EA
:103AD800D9FFBDC0DAFF200EDF6E0001BC4BBD2B45
:103AE80000D00001E907D8A0EA070001E929EFE1C1
:103AF8000001EA29D8B41FD0EAD71DD0D4C0F6FFF8
:103B0800D5C0F7FF000EF86EBCC0D9FFBDC0DAFF04
:103B18000F0EF76403D00800F55005D0F6CFE9FF83
:103B2800F7CFEAFFEF50DF6E0001D44BD52B000131
:103B3800BC4BBD2B00D00001D607D8A0D707000189
:103B4800D629DCE10001D729D8B41DEF24F0D6D757
:103B58001DEF24F0D8C0D9FFD9C0DAFFDF5000012B
:103B6800ED6F020E0001D827000ED92300D0ED0E0C
:103B78000001D46F000E0001D56F000E0001D76F51
:103B8800010ED66F8BD7C00E0001EB132DD0BEC02F
:103B9800F6FFBFC0F7FF0001BE4BBF2BF86A080055
:103BA800F5CFEDF00001ED51000AD8B42FEF24F065
:103BB800580AD8B42AD73B0AD8B4CCD7070AD8B4FD
:103BC80013D0020AD8B41DD70F0AD8B40DD0050AED
:103BD800D8B414D71F0AD8B41BD7060AD8B4D3D779
:103BE8000D0AD8B412D7C3D7070E0001EC15D8B404
:103BF800EDD3000E0001DB6F060EDA6FD8C0D9FFD7
:103C0800D9C0DAFFDECFE6F0DECFE7F0DDCFE8F0AF
:103C1800030E0001D827000ED9230001E8AF12D007
:103C2800E6C06EF0E7C06FF0E8C070F009EC61F034
:103C38006EC0E6F06FC0E7F070C0E8F0030E000158
:103C4800EB1300D0000E0001E16F000EE06F0001E1
:103C5800E6510001E7110001E811D8B49DD0820EA9
:103C68000001CA6FFF0E0001CB6FE6C0CCF0E7C0C1
:103C7800CDF0E8C0CEF0E9C0CFF0100E06D00001BC
:103C8800D890CF33CE33CD33CC33E82EF8D70001DC
:103C9800CC510001CA250001E06F000E0001CB21C4
:103CA8000001E16F0001E007D8A0E107E0C07CF067
:103CB800E1C07DF0000E00017F6F030E7E6F20ECE7
:103CC80060F07CC0E0F07DC0E1F0E0C074F0E1C0DD
:103CD80075F0000E0001776F0A0E766F3EEC56F015
:103CE80074C0E0F075C0E1F00001E1AF05D000015B
:103CF800E007D8A0E10700D00001E051000884ECFB
:103D080034F097C0DCF098C0DDF099C0DEF0DCC07C
:103D180088F0DDC089F0DEC08AF0E6C08BF0E7C02D
:103D28008CF0E8C08DF028EC49F088C0DCF089C040
:103D3800DDF08AC0DEF0DCC06EF0DDC06FF0DEC002
:103D480070F0000E0001716F800E0001726F3F0E5F
:103D58000001736FA6EC56F00001D8B005D0000141
:103D6800E007D8A0E10718D0DCC06EF0DDC06FF026
:103D7800DEC070F0000E0001716F200E0001726F3E
:103D8800410E0001736FA6EC56F00001D8A004D0D4
:103D98000001E04BE12B00D00001DBBF08D000019F
:103DA800DB511EE10D0E0001DA5DD8B019D0E6C076
:103DB800A1F0E7C0A2F0E8C0A3F00001DA519FEC3F
:103DC80040F097C0A4F098C0A5F099C0A6F00BECFD
:103DD80042F0A1C0E6F0A2C0E7F0A3C0E8F000D02E
:103DE8000001E1BF08D00001E1512CE10A0E0001F9
:103DF800E05DD8B027D00001E6510001E7110001CD
:103E0800E811D8B47FD0E6C0ADF0E7C0AEF0E8C0A6
:103E1800AFF0E1EC4BF00001AD510001AE11000133
:103E2800AF110001B011D8A46DD00001E1BF6AD074
:103E38000001E15107E1020E0001E05DD8B002D0B7
:103E480061D000D0DCC06EF0DDC06FF0DEC070F075
:103E5800700E0001716F890E0001726F400E000133
:103E6800736FA6EC56F00001D8B003D00001F70E2E
:103E780002D00001F80EE027FF0EE12300D0000178
:103E8800E05184EC34F097C0DCF098C0DDF099C0C4
:103E9800DEF017D0E6C06EF0E7C06FF0E8C070F053
:103EA800DCC071F0DDC072F0DEC073F028EC46F0C3
:103EB8006EC0E2F06FC0E3F070C0E4F071C0E5F0EE
:103EC80017D0E6C06EF0E7C06FF0E8C070F0DCC055
:103ED80071F0DDC072F0DEC073F055EC45F06EC0D5
:103EE800E2F06FC0E3F070C0E4F071C0E5F000D01C
:103EF800000E0001E66F000E0001E76F000E0001E2
:103F0800E86F34D0E6C0ADF0E7C0AEF0E8C0AFF07F
:103F1800E1EC4BF0ADC0E2F0AEC0E3F0AFC0E4F0CE
:103F2800B0C0E5F0E6C0ADF0E7C0AEF0E8C0AFF075
:103F3800E2C076F0E3C077F0E4C078F0E5C079F04D
:103F48004EEC5BF076C0B0F077C0B1F078C0B2F05C
:103F580031EC5EF0ADC0E6F0AEC0E7F0AFC0E8F01F
:103F6800000E0001E16F000EE06F00D0010E0001AD
:103F7800ED6F0A0E0001ED19D8B425D001D023D079
:103F88000001ED51040D8B0EF324F66EDE0EF420C5
:103F9800F76EF86A000EF8220900F5500001E25D9C
:103FA8000900F5500001E3590900F5500001E459F2
:103FB8000900F5500001E559D8A005D001D003D07B
:103FC8000001ED2BD6D7EDC0CAF00001CB6BCABFFC
:103FD800CB070001DA510001CA270001DB510001BB
:103FE800CB230001E0510001CA270001E151000183
:103FF800CB230001CA510001E95F0001CB51000148
:10400800EA5B0001DA510001DB11D8B405D00001E8
:10401800E907D8A0EA0700D0030E0001EB1500015C
:10402800CA6F000E0001EC150001CB6F0001CA51E8
:104038000001CB11D8B405D00001E907D8A0EA07E0
:1040480000D00001EBA543D0030E0001EB150001E1
:10405800CA6F000E0001EC150001CB6F0001CA51B8
:104068000001CB11D8B418D0BCC0D9FFBDC0DAFF4D
:104078002D0EDF6E0001BC4BBD2B0ED0BCC0D9FF8E
:10408800BDC0DAFF300EDF6E0001BC4BBD2B000156
:10409800E907D8A0EA0700D00001EABF8AD00001EA
:1040A800EA51ECE10001E905D8A083D0E7D781D037
:1040B8000ED0BCC0D9FFBDC0DAFF200EDF6E0001F4
:1040C800BC4BBD2B0001E907D8A0EA0700D00001CE
:1040D800EABF07D00001EA51ECE10001E905D8B0D8
:1040E800E8D7030E0001EB150001CA6F000E0001AE
:1040F800EC150001CB6F0001CA510001CB11D8B4F7
:1041080058D0BCC0D9FFBDC0DAFF2D0E50D0000179
:10411800BC4BBD2B4ED0E2C06EF0E3C06FF0E4C0E4
:1041280070F0E5C071F00001ED51040D8B0EF32421
:10413800F66EDE0EF420F76EF86A000EF82209001B
:10414800F5CF72F00900F5CF73F00900F5CF74F0E0
:104158000A00F5CF75F073EC57F06EC0DCF06FC055
:10416800DDF070C0DEF071C0DFF0DCC07BF0DDC0D8
:104178007CF0DEC07DF0DFC07EF00A0E00017F6FAC
:10418800000E806F000E816F000E826FE2EC58F017
:104198007BC0DCF07CC0DDF07DC0DEF07EC0DFF0EF
:1041A8000001DC51300FBCC0D9FFBDC0DAFFDF6EA3
:1041B800AED70001ED070001ED29D8B410D0ABD778
:1041C8000ED0BCC0D9FFBDC0DAFF300EDF6E0001D3
:1041D800BC4BBD2B0001E007D8A0E10700D00001CF
:1041E800E1BF07D00001E151ECE10001E005D8B0E2
:1041F800E8D70001DBBF0CD00001DB5105E1090E57
:104208000001DA5DD8A004D0080E0001ED6F03D0DC
:10421800DAC0EDF000D00001ED510001DA5F000EC8
:104228000001EDBFFF0E0001DB5B0001ED51000155
:10423800D8B40AD0BCC0D9FFBDC0DAFF2E0EDF6EDD
:104248000001BC4BBD2B00D00001ED5184EC34F0D3
:1042580097C0D0F098C0D1F099C0D2F0E6C08BF0EA
:10426800E7C08CF0E8C08DF0D0C088F0D1C089F0EC
:10427800D2C08AF028EC49F088C0ADF089C0AEF011
:104288008AC0AFF0E1EC4BF0ADC0E2F0AEC0E3F0B5
:10429800AFC0E4F0B0C0E5F07BD0E2C06EF0E3C0A0
:1042A8006FF0E4C070F0E5C071F00001ED51040D4D
:1042B8008B0EF324F66EDE0EF420F76EF86A000E0D
:1042C800F8220900F5CF72F00900F5CF73F0090064
:1042D800F5CF74F00A00F5CF75F073EC57F06EC0A7
:1042E800DCF06FC0DDF070C0DEF071C0DFF0DCC064
:1042F8007BF0DDC07CF0DEC07DF0DFC07EF00A0E12
:1043080000017F6F000E806F000E816F000E826FBC
:10431800E2EC58F07BC0DCF07CC0DDF07DC0DEF064
:104328007EC0DFF00001DC51300FBCC0D9FFBDC03A
:10433800DAFFDF6E0001BC4BBD2BE2C07BF0E3C0AF
:104348007CF0E4C07DF0E5C07EF00001ED51040D85
:104358008B0EF324F66EDE0EF420F76EF86A000E6C
:10436800F8220900F5CF7FF00900F5CF80F00900A9
:10437800F5CF81F00A00F5CF82F0E2EC58F07BC06F
:10438800E2F07CC0E3F07DC0E4F07EC0E5F000D050
:104398000001ED070001ED29D8B410D07ED70ED06A
:1043A800BCC0D9FFBDC0DAFF300EDF6E0001BC4BC8
:1043B800BD2B0001DA07D8A0DB0700D00001DA51D5
:1043C8000001DB11D8B435D2EBD733D2C00E0001CF
:1043D800EB150001CA6F000E0001EC150001CB6F50
:1043E8000001CA510001CB11D8A435D00001EBA9B6
:1043F8000ED0D8C0D9FFD9C0DAFFDECFE2F0DECFC9
:10440800E3F0DECFE4F0DECFE5F0040E0FD0D8C045
:10441800D9FFD9C0DAFFDECFE2F0DDCFE3F000014B
:10442800000EE3BFFF0EE46FE56F020E0001D82710
:10443800000ED92300D00001E5AF90D0030E000193
:10444800EB130001E51FE41FE31FE26D000EE323F9
:10445800E423E52383D00001EBA90ED0D8C0D9FF0F
:10446800D9C0DAFFDECFE2F0DECFE3F0DECFE4F052
:10447800DECFE5F0040E10D0D8C0D9FFD9C0DAFFDE
:10448800DECFCAF0DDCFCBF0CAC0E2F0CBC0E3F09C
:104498000001E46BE56B020E0001D827000ED9235A
:1044A8005DD000D0010E0001ED6F0A0E0001ED197C
:1044B800D8B461D001D05FD00001ED51040D8B0E4E
:1044C800F324F66EDE0EF420F76EF86A000EF8227A
:1044D8000900F5500001E25D0900F5500001E359BB
:1044E8000900F5500001E4590900F5500001E559AB
:1044F800D8A041D001D03FD00001ED2BD6D73BD07A
:10450800010E0001ED6F080E0001ED19D8B433D08B
:1045180001D031D00001ED51040D010EF324F66EE7
:10452800DF0EF420F76EF86A000EF8220900F55045
:104538000001E25D0900F5500001E3590900F5505A
:104548000001E4590900F5500001E559D8A013D03D
:1045580001D011D00001ED2BD6D70DD00001EB51C1
:10456800C00B000AD8B49ED7800AD8B4C9D7400A6D
:10457800D8B498D700D00001E9510001EA11D8B4A5
:1045880015D0030E0001EB150001CA6F000E0001E3
:10459800EC150001CB6F0001CA510001CB11D8B452
:1045A80005D00001E907D8A0EA0700D0800E000175
:1045B800EDBF7F0E0001CA6F0001E9510001ED5DFA
:1045C8000001EA51800A0001CA59D8B00BD0000195
:1045D800ED510001E95F000E0001EDBFFF0E000183
:1045E800EA5B06D0000E0001EA6F000EE96F00D00A
:1045F8000001EBA535D0030E0001EB150001CA6FD1
:10460800000E0001EC150001CB6F0001CA5100013A
:10461800CB11D8B40AD0BCC0D9FFBDC0DAFF2D0E6B
:10462800DF6E0001BC4BBD2B00D00001E951000139
:10463800EA11D8B44AD0BCC0D9FFBDC0DAFF300EE9
:10464800DF6E0001BC4BBD2B0001E907D8A0EA07CB
:104658000001E9510001EA11D8B437D0ECD735D0C0
:104668000001E9510001EA11D8B415D0BCC0D9FF46
:10467800BDC0DAFF200EDF6E0001BC4BBD2B000170
:10468800E907D8A0EA070001E9510001EA11D8B406
:1046980002D0ECD700D0030E0001EB150001CA6F61
:1046A800000E0001EC150001CB6F0001CA5100019A
:1046B800CB11D8B40AD0BCC0D9FFBDC0DAFF2D0ECB
:1046C800DF6E0001BC4BBD2B00D00001ED51000195
:1046D800DA6FDB6BDABFDB079FD087D000D0DAC098
:1046E800CAF0DBC0CBF00001D890CA37CB37000145
:1046F800D890CA37CB378B0E0001CA25F66EDE0E6E
:10470800CB21F76EF86A000EF8220900F5CF72F097
:104718000900F5CF73F00900F5CF74F00A00F5CF62
:1047280075F0E2C06EF0E3C06FF0E4C070F0E5C071
:1047380071F073EC57F06EC07BF06FC07CF070C006
:104748007DF071C07EF00A0E00017F6F000E806F51
:10475800000E816F000E826FE2EC58F000017B5171
:10476800300F0001ED6F4ED0E2C06EF0E3C06FF085
:10477800E4C070F0E5C071F0DAC0CAF0DBC0CBF07D
:104788000001D890CA37CB370001D890CA37CB3749
:10479800010E0001CA25F66EDF0ECB21F76EF86A0E
:1047A800000EF8220900F5CF72F00900F5CF73F07A
:1047B8000900F5CF74F00A00F5CF75F073EC57F0E7
:1047C80000016E510F0B0001D36F0001D351010D91
:1047D8003C0EF324F66EFD0EF420F76EF86A000E18
:1047E800F8220800F5CFEDF00DD00001EB51C00B19
:1047F800000AD8B474D7800AD8B4B6D7400AD8B457
:104808006ED700D0BCC0D9FFBDC0DAFFEDC0DFFF56
:104818000001BC4BBD2B00D00001DA07D8A0DB0794
:104828000001DA29E2E10001DB29D8B402D0DDD7A2
:1048380000D0BEC0F6FFBFC0F7FF0001BE4BBF2BC4
:10484800F86A0800F5CFEDF00001ED51D8B403D0B7
:1048580082EF1CF000D0BCC0D9FFBDC0DAFF000E4B
:10486800DF6E12001200000E00017A6F000E7B6FDF
:10487800000E7C6F000E7D6F010E00016E150001A9
:10488800726F000E00016F150001736F000E0001BA
:1048980070150001746F000E000171150001756F2D
:1048A8001F0ED89000017237733774377537E82EAA
:1048B800F8D70001725100017A27000173510001F5
:1048C8007B230001745100017C2300017551000114
:1048D8007D23020E00016E150001726F000E0001AB
:1048E8006F150001736F000E000170150001746FE1
:1048F800000E000171150001756F1D0ED8900001A2
:104908007237733774377537E82EF8D7000172514C
:1049180000017A270001735100017B2300017451C3
:1049280000017C230001755100017D23040E000164
:104938006E150001726F000E00016F150001736F94
:10494800000E000170150001746F000E0001711552
:104958000001756F1B0ED8900001723773377437DA
:104968007537E82EF8D70001725100017A27000147
:10497800735100017B230001745100017C23000165
:10498800755100017D23080E00016E150001726F3C
:10499800000E00016F150001736F000E0001701505
:1049A8000001746F000E000171150001756F190E7A
:1049B800D89000017237733774377537E82EF8D7F7
:1049C8000001725100017A270001735100017B2315
:1049D8000001745100017C230001755100017D2301
:1049E800100E00016E150001726F000E00016F15A8
:1049F8000001736F000E000170150001746F000E46
:104A0800000171150001756F170ED89000017237FB
:104A1800733774377537E82EF8D7000172510001E3
:104A28007A270001735100017B23000174510001B2
:104A38007C230001755100017D23200E00016E15B5
:104A48000001726F000E00016F150001736F000EF8
:104A5800000170150001746F000E0001711500014E
:104A6800756F150ED8900001723773377437753724
:104A7800E82EF8D70001725100017A27000173511E
:104A880000017B230001745100017C230001755152
:104A980000017D23400E00016E150001726F000EAB
:104AA80000016F150001736F000E00017015000101
:104AB800746F000E000171150001756F130ED89008
:104AC80000017237733774377537E82EF8D700014D
:104AD800725100017A270001735100017B23000104
:104AE800745100017C230001755100017D23800E63
:104AF80000016E150001726F000E00016F150001B4
:104B0800736F000E000170150001746F000E000134
:104B180071150001756F110ED89000017237733747
:104B280074377537E82EF8D70001725100017A27DB
:104B38000001735100017B230001745100017C23A3
:104B48000001755100017D23000E00016E15000162
:104B5800726F010E00016F150001736F000E0001E6
:104B680070150001746F000E000171150001756F5A
:104B78000F0ED89000017237733774377537E82EE7
:104B8800F8D70001725100017A2700017351000122
:104B98007B230001745100017C2300017551000141
:104BA8007D23000E00016E150001726F020E0001D8
:104BB8006F150001736F000E000170150001746F0E
:104BC800000E000171150001756F0D0ED8900001DF
:104BD8007237733774377537E82EF8D7000172517A
:104BE80000017A270001735100017B2300017451F1
:104BF80000017C230001755100017D23000E000196
:104C08006E150001726F040E00016F150001736FBD
:104C1800000E000170150001746F000E000171157F
:104C28000001756F0B0ED890000172377337743717
:104C38007537E82EF8D70001725100017A27000174
:104C4800735100017B230001745100017C23000192
:104C5800755100017D23000E00016E150001726F71
:104C6800080E00016F150001736F000E000170152A
:104C78000001746F000E000171150001756F090EB7
:104C8800D89000017237733774377537E82EF8D724
:104C98000001725100017A270001735100017B2342
:104CA8000001745100017C230001755100017D232E
:104CB800000E00016E150001726F100E00016F15D5
:104CC8000001736F000E000170150001746F000E73
:104CD800000171150001756F070ED8900001723739
:104CE800733774377537E82EF8D700017251000111
:104CF8007A270001735100017B23000174510001E0
:104D08007C230001755100017D23000E00016E1502
:104D18000001726F200E00016F150001736F000E05
:104D2800000170150001746F000E0001711500017B
:104D3800756F050ED8900001723773377437753761
:104D4800E82EF8D70001725100017A27000173514B
:104D580000017B230001745100017C23000175517F
:104D680000017D23000E00016E150001726F400ED8
:104D780000016F150001736F000E0001701500012E
:104D8800746F000E000171150001756F030ED89045
:104D980000017237733774377537E82EF8D700017A
:104DA800725100017A270001735100017B23000131
:104DB800745100017C230001755100017D23000E10
:104DC80000016E150001726F800E00016F15000161
:104DD800736F000E000170150001746F000E000162
:104DE80071150001756FD890000172350001766F5A
:104DF800000173350001776F000174350001786F89
:104E0800000175350001796F0001765100017A279C
:104E18000001775100017B230001785100017C23B8
:104E28000001795100017D236EC072F06FC073F0EC
:104E380070C074F071C075F00001D8907533743388
:104E480073337233000E000172150001766F800E05
:104E5800000173150001776F000E00017415000141
:104E6800786F000E000175150001796F0001765109
:104E780000017A270001775100017B230001785156
:104E880000017C230001795100017D236EC072F07E
:104E98006FC073F070C074F071C075F0040E06D066
:104EA8000001D8907533743373337233E82EF8D712
:104EB800000E000172150001766F400E0001731597
:104EC8000001776F000E000174150001786F000E65
:104ED800000175150001796F0001765100017A27EC
:104EE8000001775100017B230001785100017C23E8
:104EF8000001795100017D236EC072F06FC073F01C
:104F080070C074F071C075F0060E06D00001D8901C
:104F18007533743373337233E82EF8D7000E0001FB
:104F280072150001766F200E000173150001776F6E
:104F3800000E000174150001786F000E0001751550
:104F48000001796F0001765100017A27000177513D
:104F580000017B230001785100017C230001795175
:104F680000017D236EC072F06FC073F070C074F0E2
:104F780071C075F0080E06D00001D89075337433EF
:104F880073337233E82EF8D7000E00017215000152
:104F9800766F100E000173150001776F000E000187
:104FA80074150001786F000E000175150001796F06
:104FB8000001765100017A270001775100017B2317
:104FC8000001785100017C230001795100017D2303
:104FD8006EC072F06FC073F070C074F071C075F07D
:104FE8000A0E06D00001D8907533743373337233C8
:104FF800E82EF8D7000E000172150001766F080E32
:10500800000173150001776F000E0001741500018F
:10501800786F000E000175150001796F0001765157
:1050280000017A270001775100017B2300017851A4
:1050380000017C230001795100017D236EC072F0CC
:105048006FC073F070C074F071C075F00C0E06D0AC
:105058000001D8907533743373337233E82EF8D760
:10506800000E000172150001766F040E0001731521
:105078000001776F000E000174150001786F000EB3
:10508800000175150001796F0001765100017A273A
:105098000001775100017B230001785100017C2336
:1050A8000001795100017D236EC072F06FC073F06A
:1050B80070C074F071C075F00E0E06D00001D89063
:1050C8007533743373337233E82EF8D7000E00014A
:1050D80072150001766F020E000173150001776FDB
:1050E800000E000174150001786F000E000175159F
:1050F8000001796F0001765100017A27000177518C
:1051080000017B230001785100017C2300017951C3
:1051180000017D236EC072F06FC073F070C074F030
:1051280071C075F0100E06D00001D8907533743335
:1051380073337233E82EF8D7000E000172150001A0
:10514800766F010E000173150001776F000E0001E4
:1051580074150001786F000E000175150001796F54
:105168000001765100017A270001775100017B2365
:105178000001785100017C230001795100017D2351
:105188006EC072F06FC073F070C074F071C075F0CB
:10519800120E06D00001D89075337433733372330E
:1051A800E82EF8D7800E000172150001766F000E08
:1051B800000173150001776F000E000174150001DE
:1051C800786F000E000175150001796F00017651A6
:1051D80000017A270001775100017B2300017851F3
:1051E80000017C230001795100017D236EC072F01B
:1051F8006FC073F070C074F071C075F0140E06D0F3
:105208000001D8907533743373337233E82EF8D7AE
:10521800400E000172150001766F000E0001731533
:105228000001776F000E000174150001786F000E01
:10523800000175150001796F0001765100017A2788
:105248000001775100017B230001785100017C2384
:105258000001795100017D236EC072F06FC073F0B8
:1052680070C074F071C075F0160E06D00001D890A9
:105278007533743373337233E82EF8D7200E000178
:1052880072150001766F000E000173150001776F2B
:10529800000E000174150001786F000E00017515ED
:1052A8000001796F0001765100017A2700017751DA
:1052B80000017B230001785100017C230001795112
:1052C80000017D236EC072F06FC073F070C074F07F
:1052D80071C075F0180E06D00001D890753374337C
:1052E80073337233E82EF8D7100E000172150001DF
:1052F800766F000E000173150001776F000E000134
:1053080074150001786F000E000175150001796FA2
:105318000001765100017A270001775100017B23B3
:105328000001785100017C230001795100017D239F
:105338006EC072F06FC073F070C074F071C075F019
:105348001A0E06D00001D890753374337333723354
:10535800E82EF8D7080E000172150001766F000ECE
:10536800000173150001776F000E0001741500012C
:10537800786F000E000175150001796F00017651F4
:1053880000017A270001775100017B230001785141
:1053980000017C230001795100017D236EC072F069
:1053A8006FC073F070C074F071C075F01C0E06D039
:1053B8000001D8907533743373337233E82EF8D7FD
:1053C800040E000172150001766F000E00017315BE
:1053D8000001776F000E000174150001786F000E50
:1053E800000175150001796F0001765100017A27D7
:1053F8000001775100017B230001785100017C23D3
:105408000001795100017D236EC072F06FC073F006
:1054180070C074F071C075F01E0E06D00001D890EF
:105428007533743373337233E82EF8D7020E0001E4
:1054380072150001766F000E000173150001776F79
:10544800000E000174150001786F000E000175153B
:105458000001796F0001765100017A270001775128
:1054680000017B230001785100017C230001795160
:1054780000017D23000E00016E150001726F000E01
:1054880000016F150001736F000E00017015000117
:10549800746F800E000171150001756F200E06D023
:1054A8000001D8907533743373337233E82EF8D70C
:1054B8000001725100017A270001735100017B231A
:1054C8000001745100017C230001755100017D2306
:1054D8007AC06EF07BC06FF07CC070F07DC071F058
:1054E800120012000101B76F010E0101B96F000E21
:1054F8000101BA6F000E0101B86F010E0101B66F0C
:10550800840E00016E6F010E00016F6F000E000126
:10551800716F320E706FB0EC5DF06F0E00016E6F40
:10552800010E00016F6F000E0001716F150E706F94
:10553800B0EC5DF0330E00016E6F010E00016F6F6D
:10554800000E0001716F1E0E706FB0EC5DF0510E11
:1055580000016E6F010E00016F6F000E0001716F88
:105568001E0E706FB0EC5DF0DEEC49F00009D8A4B7
:1055780002D0000E1200500E00016E6F050E0001E1
:105588006F6F4CC070F00001716BB0EC5DF0000EF5
:105598004C6E87EC62F09E9A9D8AFC0E0001796F32
:1055A800FF0E00017A6FBEEC60F0500E00016E6FC6
:1055B800C30E6F6F000E706F000E716FDCEC5DF044
:1055C8009D9A000E0101BA6F3B0E0101BA6501D028
:1055D8007AD00101B605D8A437D00101BA51010D1E
:1055E800500EF324D96E050EF420DA6E0A0EDE187A
:1055F800D8B40DD00101BA51010D500EF324D96E63
:10560800050EF420DA6E0D0EDE18D8A404D0000EB4
:105618000101B66F55D01D0E0101BA6151D00101CB
:10562800BA51010D500EF324D96E050EF420DA6E2E
:105638000101BA51010D330EF324E16E010EF4207D
:10564800E26EDFCFE7FF3CD00101BA51010D500EE9
:10565800F324D96E050EF420DA6E0A0EDE18D8B4DB
:1056680029D00101BA51010D500EF324D96E050E4F
:10567800F420DA6E0D0EDE18D8B41CD01D0E010110
:10568800B86115D00101BA51010D500EF324D96E3D
:10569800050EF420DA6E0101B851010D510EF32404
:1056A800E16E010EF420E26EDFCFE7FF00D00101CA
:1056B800B82B06D0020E0101B86502D004D000D084
:1056C8000101BA2B81D7010133510101D8B405D0AA
:1056D800010151510101D8A404D0000E0101B96F94
:1056E80042D0AB0E00016E6F020E00016F6F000E0C
:1056F8000001716F1E0E706FB0EC5DF0B40E00010A
:105708006E6F050E00016F6F000E0001716F1E0EA7
:10571800706FB0EC5DF0330E0001826F010E000176
:10572800836FAB0E0001846F020E0001856F1E0EA1
:105738000001866F000E0001876FF2EC46F0510EF3
:105748000001826F010E0001836FB40E0001846FA7
:10575800050E0001856F1E0E0001866F000E000108
:10576800876FF2EC46F0500E00016E6F050E0001D7
:105778006F6F4CC070F00001716BB0EC5DF0000E03
:105788004C6E0101B7510101D8B456D00101B9518D
:105798000101D8B4BCD0840E0001BC6F010E000119
:1057A800BD6F9A0E0001BE6FF80E0001BF6FB2C444
:1057B800C0F0B3C4C1F0B4C4C2F0B5C4C3F07AEC4D
:1057C8001CF087EC62F09E9A9D8A840E0001786F27
:1057D800010E0001796FABEC61F0500E00016E6FA5
:1057E800C30E6F6F000E706F000E716FDCEC5DF012
:1057F8009D9A840E0001BC6F010E0001BD6FF50E6D
:105808000001BE6FFF0E0001BF6F7AEC1CF0500E56
:1058180000016E6F050E00016F6F840E0001706F3E
:10582800010E0001716F72EC4EF00009D8A46FD020
:10583800000E0101B96F6BD00101B9510101D8B453
:1058480066D00301E651D8A45ED0D20E0001826F63
:10585800030E0001836F6F0E0001846F010E0001BB
:10586800856F150E0001866F000E0001876FF2EC40
:1058780046F0840E0001BC6F010E0001BD6F8D0E55
:105888000001BE6FFF0E0001BF6F6F0E0001C06FF9
:10589800010E0001C16F7AEC1CF087EC62F09E9A51
:1058A8009D8A840E0001786F010E0001796FABECC0
:1058B80061F0500E00016E6FC30E6F6F000E706FB7
:1058C800000E716FDCEC5DF09D9A840E0001BC6FD8
:1058D800010E0001BD6FF50E0001BE6FFF0E000145
:1058E800BF6F7AEC1CF0500E00016E6F050E0001C0
:1058F8006F6F840E0001706F010E0001716F72EC02
:105908004EF093D704D0000E0101B96F00D0500EAD
:1059180000016E6F050E00016F6F4CC070F0000142
:10592800716BB0EC5DF0000E4C6E0101B9510101D4
:10593800D8B42DD087EC62F09E9A9D8A630E000140
:10594800796FFF0E00017A6FBEEC60F0500E000117
:105958006E6FC30E6F6F000E706F000E716FDCEC10
:105968005DF09D9A500E00016E6F050E00016F6F7D
:10597800840E0001706F010E0001716F72EC4EF021
:105988000009D8A404D0000E0101B96F00D0500E50
:1059980000016E6F050E00016F6F4CC070F00001C2
:1059A800716BB0EC5DF0000E4C6E0101B951010154
:1059B800D8B42DD087EC62F09E9A9D8A0A0E000119
:1059C800796FFC0E00017A6FBEEC60F0500E00019A
:1059D8006E6FC30E6F6F000E706F000E716FDCEC90
:1059E8005DF09D9A500E00016E6F050E00016F6FFD
:1059F800840E0001706F010E0001716F72EC4EF0A1
:105A08000009D8A404D0000E0101B96F00D0500ECF
:105A180000016E6F050E00016F6F4CC070F0000141
:105A2800716BB0EC5DF0000E4C6E0101B9510101D3
:105A3800D8B42DD087EC62F09E9A9D8A5A0E000148
:105A4800796FFF0E00017A6FBEEC60F0500E000116
:105A58006E6FC30E6F6F000E706F000E716FDCEC0F
:105A68005DF09D9A500E00016E6F050E00016F6F7C
:105A7800840E0001706F010E0001716F72EC4EF020
:105A88000009D8A404D0000E0101B96F00D0500E4F
:105A980000016E6F050E00016F6F4CC070F00001C1
:105AA800716BB0EC5DF0000E4C6E0101B951010153
:105AB800D8B42DD087EC62F09E9A9D8AB00E000172
:105AC800796FFF0E00017A6FBEEC60F0500E000196
:105AD8006E6FC30E6F6F000E706F000E716FDCEC8F
