:04000000E6EF00F037
:10000800FACF32F0FBCF33F0E9CF34F026EF2AF005
:10001800D8CF0EF0E8CF0FF0E0CF10F0FACF11F004
:10002800FBCF12F0E9CF13F0EACF14F0E1CF15F0CF
:10003800E2CF16F0D9CF17F0DACF18F0F3CF19F0D6
:10004800F4CF1AF0F6CF1BF0F7CF1CF0F8CF1DF065
:10005800F5CF1EF0000E1F6EF29C9EAA7FD0C8EC52
:1000680059F01F6E44EC5AF00009D8A40FD0630E63
:10007800446072D04450010D000EF324D96E040E72
:10008800F420DA6E1FC0DFFF442A66D00D0E1F1859
:10009800D8B44FD00A0E1F18D8B44BD07F0E1F18F3
:1000A800D8B404D0080E1F18D8A41FD00301EB51F0
:1000B800D8B41BD00301EB2964EC59F00301EB071A
:1000C8000301EB51010D640EF324D96E040EF420E4
:1000D800DA6E000EDF6E3E0E98EC58F0640E0B6E72
:1000E800040E0C6E78EC59F037D0620E0301EB6108
:1000F8001BD00301EA51D8A42FD01F50A6EC59F009
:100108000009D8B429D01F50F8EC58F00301EB517E
:10011800010D640EF324D96E040EF420DA6E1FC0AC
:10012800DFFF0301EB2B18D09D9A010E0301E96F45
:1001380013D00301EB51D8B40FD00301EA51D8A46E
:100148000BD09D9A2A0E0C6EEE0E0D6EC9EC58F06F
:10015800010E0301EA6F00D09E9A10D09EA00CD029
:10016800532A020E536406D08B948B92CD90000EC6
:10017800536E00D09E9002D000F000D0F28C1EC0CA
:10018800F5FF1DC0F8FF1CC0F7FF1BC0F6FF1AC023
:10019800F4FF19C0F3FF18C0DAFF17C0D9FF16C063
:1001A800E2FF15C0E1FF14C0EAFF13C0E9FF12C067
:1001B800FBFF11C0FAFF10C0E0FF0FC0E8FF0EC040
:1001C800D8FF10009CEF4DF0010E02017E6F000E6B
:1001D80002017A6F000E7B6F000E7C6F000E7D6F40
:1001E800000E0201846F000E0201856F000E0201ED
:1001F800866F000E876F000E886F000E896F000EE5
:1002080002016F6F000E706F000E716F000E726F3B
:10021800000E0201806F000E0201786F000E0201CD
:10022800826F000E0201796F000E0201736F000EDB
:10023800746F000E756F000E766F000E02016E6F00
:10024800000E0001636F020E0001646F000E0001D2
:10025800666F640E656FCDEC55F0640E0001636F38
:10026800020E0001646F000E0001666F0A0E656FD2
:10027800CDEC55F0E9C066F0EAC067F0990E0001D0
:10028800686FFF0E0001696FF0EC52F00009D8B4F6
:1002980029D0000E02018B6F070E02018B6502D078
:1002A8001200120002018B51E3EC3CF0B40E000185
:1002B8006E6FFF0E00016F6F7FEC58F002018B51DB
:1002C8006CEC4EF02A0E00016E6FEE0E00016F6F9F
:1002D8007FEC58F002018B2B070E02018B65E2D7E9
:1002E80012001200E9C066F0EAC067F0BA0E000119
:1002F800686FFF0E0001696FF6EC3FF00009D8B493
:100308007ED0E9C066F0EAC067F0930E0001686F1E
:10031800ED0E0001696FF0EC52F00009D8B412D06C
:10032800EC0E00016B6FED0E00016C6F010E000109
:100338006D6F0C0E00016E6F080E00016F6F4DECB3
:1003480057F054D0E9C066F0EAC067F0A20E000189
:10035800686FED0E0001696FF0EC52F00009D8B437
:1003680012D0F80E00016B6FED0E00016C6F010EDC
:1003780000016D6F0C0E00016E6F080E00016F6FAB
:100388004DEC57F033D0E9C066F0EAC067F0B10E23
:100398000001686FED0E0001696FF0EC52F0000982
:1003A800D8B412D0040E00016B6FEE0E00016C6F12
:1003B800010E00016D6F0C0E00016E6F080E00013A
:1003C8006F6F4DEC57F012D0DE0E00016E6FED0E20
:1003D80000016F6F7FEC58F02A0E00016E6FEE0E71
:1003E80000016F6F7FEC58F0120000D0E80E00019A
:1003F800706FF90E0001716F0BEC57F01200E9C035
:1004080066F0EAC067F0C00E0001686FFF0E0001D9
:10041800696FF6EC3FF00009D8B465D1E9C066F021
:10042800EAC067F09C0E0001686FEC0E0001696F6E
:10043800F0EC52F00009D8B412D0030E00016B6F33
:10044800ED0E00016C6F020E00016D6F100E0001C1
:100458006E6F080E00016F6F4DEC57F03BD1E9C08D
:1004680066F0EAC067F0760E0001686FEC0E0001D6
:10047800696FF0EC52F00009D8B412D0F30E000105
:100488006B6FEC0E00016C6F020E00016D6F100EA9
:1004980000016E6F080E00016F6F4DEC57F01AD116
:1004A800E9C066F0EAC067F0AE0E0001686FEC0EB6
:1004B8000001696FF0EC52F00009D8B412D0230E95
:1004C80000016B6FED0E00016C6F020E00016D6F85
:1004D800100E00016E6F080E00016F6F4DEC57F0A3
:1004E800F9D0E9C066F0EAC067F0890E0001686FCC
:1004F800EC0E0001696FF0EC52F00009D8B412D08C
:10050800130E00016B6FED0E00016C6F020E0001FF
:100518006D6F100E00016E6F080E00016F6F4DECCD
:1005280057F0D8D0E9C066F0EAC067F03A0E00018B
:10053800686FEC0E0001696FF0EC52F00009D8B456
:1005480012D0430E00016B6FED0E00016C6F020EAE
:1005580000016D6F100E00016E6F080E00016F6FC5
:100568004DEC57F0B7D0E9C066F0EAC067F0FB0E73
:100578000001686FEB0E0001696FF0EC52F00009A2
:10058800D8B412D0330E00016B6FED0E00016C6F02
:10059800020E00016D6F100E00016E6F080E000153
:1005A8006F6F4DEC57F096D0E9C066F0EAC067F07F
:1005B8004E0E0001686FEC0E0001696FF0EC52F00E
:1005C8000009D8B412D0630E00016B6FED0E000164
:1005D8006C6F020E00016D6F100E00016E6F080E39
:1005E80000016F6F4DEC57F075D0E9C066F0EAC0B6
:1005F80067F0100E0001686FEC0E0001696FF0ECF7
:1006080052F00009D8B412D0530E00016B6FED0EF2
:1006180000016C6F020E00016D6F100E00016E6F0D
:10062800080E00016F6F4DEC57F054D0E9C066F02A
:10063800EAC067F0620E0001686FEC0E0001696F96
:10064800F0EC52F00009D8B412D0830E00016B6FA1
:10065800ED0E00016C6F020E00016D6F100E0001AF
:100668006E6F080E00016F6F4DEC57F033D0E9C084
:1006780066F0EAC067F0250E0001686FEC0E000115
:10068800696FF0EC52F00009D8B412D0530E000193
:100698006B6FED0E00016C6F030E00016D6F100E95
:1006A80000016E6F080E00016F6F4DEC57F012D00D
:1006B800DE0E00016E6FED0E00016F6F7FEC58F0DB
:1006C8002A0E00016E6FEE0E00016F6F7FEC58F07E
:1006D800120000D0050E0001706FFA0E0001716F54
:1006E8000BEC57F01200E9C066F0EAC067F0E80EBC
:1006F8000001686FFF0E0001696FF6EC3FF000091A
:10070800D8B400D2E9C06FF0EAC070F0020E000160
:10071800716F860E0001726F020E0001736F06EC96
:1007280035F00009D8A4D1D00201895102018811FD
:1007380004E102018705D8A011D0F20E0001706F04
:10074800F80E0001716F0BEC57F02A0E00016E6F66
:10075800EE0E00016F6F7FEC58F0120086C285F232
:10076800E9C06FF0EAC070F0010E0001716F860EEB
:100778000001726F020E0001736F06EC35F000097C
:10078800D8A492D0020189510201881104E1020122
:100798008705D8A011D0110E0001706FF90E000165
:1007A800716F0BEC57F02A0E00016E6FEE0E000110
:1007B8006F6F7FEC58F0120086C284F2000E0001C1
:1007C800B16F020E0001B26F3E0E0001B36FFC0E56
:1007D8000001B46F84C2B5F00001B66B37EC18F0B5
:1007E800000E0001706F020E0001716FC5EC57F02A
:1007F800000E0001B16F020E0001B26F290E000158
:10080800B36FFC0E0001B46F85C2B5F00001B66B82
:1008180037EC18F0000E0001706F020E0001716FC6
:10082800C5EC57F085C267F0020184519CEC46F094
:1008380067C07AF268C07BF269C07CF26AC07DF258
:100848007AC278F07BC279F07CC27AF07DC27BF004
:10085800000E00017C6F52EC52F0000E0001B16FE7
:10086800020E0001B26F750E0001B36FFB0E00019E
:10087800B46F7AC2B5F07BC2B6F07CC2B7F07DC265
:10088800B8F037EC18F0000E0001706F020E00018E
:10089800716FC5EC57F02A0E00016E6FEE0E000165
:1008A8006F6F7FEC58F01200D20E0001706FF80ED7
:1008B8000001716F0BEC57F02A0E00016E6FEE0EFF
:1008C80000016F6F7FEC58F01200E9C06FF0EAC0CA
:1008D80070F0010E0001716F7A0E0001726F020E46
:1008E8000001736F06EC35F00009D8A493D07AC2E2
:1008F80078F07BC279F07CC27AF07DC27BF0000E82
:1009080000017C6F52EC52F0000E0001B16F020E34
:100918000001B26FCE0E0001B36FFC0E0001B46F80
:100928007AC2B5F07BC2B6F07CC2B7F07DC2B8F02F
:1009380037EC18F0000E0001706F020E0001716FA5
:10094800C5EC57F07AC267F07BC268F07CC269F0E8
:100958007DC26AF0840E00016B6F020E00016C6F9D
:10096800850E00016D6F020E00016E6FB7EC50F03E
:100978000009D8B435D0000E0001B16F020E000195
:10098800B26F420E0001B36FFC0E0001B46F84C257
:10099800B5F00001B66B37EC18F0000E0001706F6F
:1009A800020E0001716FC5EC57F0000E0001B16F27
:1009B800020E0001B26F8E0E0001B36FF40E00013B
:1009C800B46F85C2B5F00001B66B37EC18F0000EB5
:1009D8000001706F020E0001716FC5EC57F011D065
:1009E800F00E0001706FF70E0001716F0BEC57F0FD
:1009F8002A0E00016E6FEE0E00016F6F7FEC58F04B
:100A080012002A0E00016E6FEE0E00016F6F7FEC70
:100A180058F01200E9C063F0EAC064F0E60E000185
:100A2800656FFF0E0001666F43EC47F00009D8A41C
:100A380010D02A0E00016E6FEE0E00016F6F7FEC72
:100A480058F0AC0E0001706FF90E0001716F0BECDD
:100A580057F02A0E00016E6FEE0E00016F6F7FECEB
:100A680058F0920E0001706FFF0E0001716F0BECD1
:100A780057F0A60E0001706FFC0E0001716F0BECB1
:100A880057F0390E0001706FFF0E0001716F0BEC0B
:100A980057F0E70E0001706FFB0E0001716F0BEC51
:100AA80057F02A0E00016E6FEE0E00016F6F7FEC9B
:100AB80058F06A0E0001706FFF0E0001716F0BECA9
:100AC80057F07C0E0001706FFD0E0001716F0BEC8A
:100AD80057F03B0E0001706FFF0E0001716F0BECB9
:100AE80057F0D40E0001706FFD0E0001716F0BEC12
:100AF80057F02A0E00016E6FEE0E00016F6F7FEC4B
:100B080058F01200E9C066F0EAC067F0D40E0001A0
:100B1800686FFE0E0001696FF6EC3FF00009D8B46B
:100B2800C8D2E9C072F0EAC073F00FEC3EF00009D9
:100B3800D8B466D20001EB2BE9C06FF0EAC070F0C0
:100B4800010E0001716F860E0001726F020E000126
:100B5800736F06EC35F00009D8A452D2020189510E
:100B6800020188110201871104E10D0E0201865D60
:100B7800D8B02CD2020186510201871102018811D6
:100B880002018911D8B422D2E9C066F0EAC067F040
:100B9800060E0001686FFD0E0001696FF6EC3FF06C
:100BA8000009D8A423D1FE0E0001EC6FFF0E00014E
:100BB800ED6F86C2EEF087C2EFF0D8900001EE37F5
:100BC800EF370001EC510001EE270001ED51000163
:100BD800EF23D40E0001F06F020E0001F16F050E35
:100BE8000001F027000EF1230001EE510001F0276B
:100BF8000001EF510001F123010E0001F025D96E2B
:100C0800000E0001F121DA6EDF500001676FFE0E61
:100C18000001F26FFF0E0001F36F86C2F4F087C285
:100C2800F5F0D8900001F437F5370001F2510001D2
:100C3800F4270001F3510001F523D90E0001F42532
:100C4800D96E020E0001F521DA6EDF509CEC46F0F9
:100C580067C06FF268C070F269C071F26AC072F260
:100C680002016F2908E102017129020170110201D4
:100C78007211D8B4A9D06FC278F070C279F071C27D
:100C88007AF072C27BF0000E00017C6F52EC52F0D9
:100C9800000E0001B16F020E0001B26F530E000189
:100CA800B36FFC0E0001B46F6FC2B5F070C2B6F03E
:100CB80071C2B7F072C2B8F037EC18F0000E00013C
:100CC800706F020E0001716FC5EC57F0000E000145
:100CD800B16F020E0001B26F730E0001B36FF40E14
:100CE8000001B46FFE0E0001EC6FFF0E0001ED6F06
:100CF80086C2EEF087C2EFF0D8900001EE37EF37EA
:100D08000001EC510001EE270001ED510001EF2335
:100D1800D90E0001EE25D96E020E0001EF21DA6E20
:100D2800DF500001F06F0001F0510001B56FB66BA4
:100D3800FE0E0001F16FFF0E0001F26F86C2F3F0A4
:100D480087C2F4F0D8900001F337F4370001F1516D
:100D58000001F3270001F2510001F423D40E000131
:100D6800F56F020E0001F66F050E0001F527000E63
:100D7800F6230001F3510001F5270001F4510001A9
:100D8800F623010E0001F525D96E000E0001F621AB
:100D9800DA6EDF500001F76F0001F7510001B76FFD
:100DA800B86B37EC18F0000E0001706F020E0001EE
:100DB800716FC5EC57F02A0E00016E6FEE0E000140
:100DC8006F6F7FEC58F012002A0E00016E6FEE0E66
:100DD80000016F6F7FEC58F05D0E0001706FF30E2D
:100DE8000001716F0BEC57F012000AD13AEC53F086
:100DF8000009D8B4120001D01200ECC367F0EDC3AB
:100E080068F0EEC369F0EFC36AF0840E00016B6FFF
:100E1800020E00016C6F850E00016D6F020E00015D
:100E28006E6FB7EC50F0FE0E0001EC6FFF0E000184
:100E3800ED6F86C2EEF087C2EFF0D8900001EE3772
:100E4800EF370001EC510001EE270001ED510001E0
:100E5800EF23D90E0001EE25D96E020E0001EF2115
:100E6800DA6E84C2DFFFFE0E0001EC6FFF0E000198
:100E7800ED6F86C2EEF087C2EFF0D8900001EE3732
:100E8800EF370001EC510001EE270001ED510001A0
:100E9800EF23D40E0001F06F020E0001F16F050E72
:100EA8000001F027000EF1230001EE510001F027A8
:100EB8000001EF510001F123010E0001F025D96E68
:100EC800000E0001F121DA6E85C2DFFF02EC52F05C
:100ED8002A0E00016E6FEE0E00016F6F7FEC58F066
:100EE800000E0001B16F020E0001B26FBB0E0001CF
:100EF800B36FF30E0001B46F86C2B5F087C2B6F0C7
:100F080088C2B7F089C2B8F0ECC3B9F0EDC3BAF043
:100F1800EEC3BBF0EFC3BCF037EC18F0000E0001D5
:100F2800706F020E0001716FC5EC57F0000E0001E2
:100F3800B16F020E0001B26F730E0001B36FF40EB1
:100F48000001B46F84C2B5F00001B66B85C2B7F07A
:100F58000001B86B37EC18F0000E0001706F020E3C
:100F68000001716FC5EC57F02A0E00016E6FEE0E8E
:100F780000016F6F7FEC58F0000E02018B6F090EB5
:100F880002018B6502D0120012008B84500E000102
:100F9800636FC30E646F000E656F000E666F26ECFC
:100FA80056F08B94500E0001636FC30E646F000EF1
:100FB800656F000E666F26EC56F002018B2B090E4A
:100FC80002018B65E2D7120012001AD02A0E000126
:100FD8006E6FEE0E00016F6F7FEC58F0B50E0001DA
:100FE800706FF60E0001716F0BEC57F02A0E0001BE
:100FF8006E6FEE0E00016F6F7FEC58F0120000D09C
:101008002A0E00016E6FEE0E00016F6F7FEC58F034
:10101800210E0001706FF70E0001716F0BEC57F095
:101028002A0E00016E6FEE0E00016F6F7FEC58F014
:10103800920E0001706FFF0E0001716F0BEC57F0FC
:10104800E50E0001706FFD0E0001716F0BEC57F09B
:10105800F60E0001706FFC0E0001716F0BEC57F07B
:101068002A0E00016E6FEE0E00016F6F7FEC58F0D4
:101078006A0E0001706FFF0E0001716F0BEC57F0E4
:10108800430E0001706FFE0E0001716F0BEC57F0FC
:101098008E0E0001706FFD0E0001716F0BEC57F0A2
:1010A8002A0E00016E6FEE0E00016F6F7FEC58F094
:1010B8001200E9C066F0EAC067F0A70E0001686F89
:1010C800FF0E0001696FF6EC3FF00009D8A410D0BC
:1010D800E9C066F0EAC067F0730E0001686FFF0EA2
:1010E8000001696FF6EC3FF00009D8B457EF10F033
:1010F800000E0201776FE9C066F0EAC067F0A70E3C
:101108000001686FFF0E0001696FF6EC3FF00009FF
:10111800D8B404D0010E0201796F16D0000E020176
:10112800796FE9C066F0EAC067F0FE0E0001686FEB
:10113800FD0E0001696FF6EC3FF00009D8B404D049
:10114800010E0201776F00D0E9C066F0EAC067F0CF
:101158009C0E0001686FFF0E0001696FF6EC3FF00E
:101168000009D8B402D33AEC53F00009D8B41200FD
:1011780001D012002A0E00016E6FEE0E00016F6F93
:101188007FEC58F0ECC367F0EDC368F0EEC369F08C
:10119800EFC36AF0840E00016B6F020E00016C6FE2
:1011A800850E00016D6F020E00016E6FB7EC50F0F6
:1011B800000E02018A6F070E02018A6501D05FD214
:1011C800000E02017E6F000E02018B6F020E0201FB
:1011D8008B6501D049D002018A51060DA00E00018D
:1011E800EC6F020E0001ED6FF3500001EC27F45094
:1011F8000001ED2302018B51020DF3500001EC2593
:10120800D96EF4500001ED21DA6EDF50D8A429D050
:1012180002018A51060DA00E0001EC6F020E0001BA
:10122800ED6FF3500001EC27F4500001ED230201AB
:101238008B51020DF3500001EC27F4500001ED230F
:10124800010E0001EC25D96E000E0001ED21DA6EC9
:10125800DF50D8A406D08BC282F2010E02017E6F45
:1012680003D002018B2BB2D702017905D8A4D0D0C4
:1012780002017E510201D8A415D0FE0E00016E6F46
:10128800F60E00016F6F7FEC58F002018A516CEC8A
:101298004EF02A0E00016E6FEE0E00016F6F7FECAC
:1012A80058F0EAD1020182510201D8B458D0000E98
:1012B80002018B6F4CD002018A51060DA00E00016D
:1012C800EC6F020E0001ED6FF3500001EC27F450B3
:1012D8000001ED2302018B51020DF3500001EC25B2
:1012E800D96EF4500001ED21DA6E02018451DE1846
:1012F800D8A42AD002018A51060DA00E0001EC6F75
:10130800020E0001ED6FF3500001EC27F4500001CC
:10131800ED2302018B51020DF3500001EC27F4502C
:101328000001ED23010E0001EC25D96E000E00012D
:10133800ED21DA6E02018551DE18D8A405D0000E21
:1013480002017E6F0CD000D002018B2B00D002016D
:10135800825102018B5DD8B002D0ADD700D0020116
:101368007E510201D8A415D08A0E00016E6FF70EC7
:1013780000016F6F7FEC58F002018A516CEC4EF05F
:101388002A0E00016E6FEE0E00016F6F7FEC58F0B1
:1013980073D102018A51060DA00E0001EC6F020EF6
:1013A8000001ED6FF3500001EC27F4500001ED232C
:1013B80002018251020DF3500001EC25D96EF45060
:1013C8000001ED21DA6E84C2DFFF02018A51060DA9
:1013D800A00E0001EC6F020E0001ED6FF35000014A
:1013E800EC27F4500001ED2302018251020DF35065
:1013F8000001EC27F4500001ED23010E0001EC255B
:10140800D96E000E0001ED21DA6E85C2DFFF34D1FE
:10141800020182510201D8B42FD1000E02018B6F54
:1014280023D102018A51060DA00E0001EC6F020EB5
:101438000001ED6FF3500001EC27F4500001ED239B
:1014480002018B51020DF3500001EC25D96EF450C6
:101458000001ED21DA6E02018451DE18D8A401D111
:1014680002018A51060DA00E0001EC6F020E000168
:10147800ED6FF3500001EC27F4500001ED23020159
:101488008B51020DF3500001EC27F4500001ED23BD
:10149800010E0001EC25D96E000E0001ED21DA6E77
:1014A80002018551DE18D8A4DCD002018A51060D4C
:1014B800A00E0001EC6F020E0001ED6FF350000169
:1014C800EC27F4500001ED2302018B51020DF3507B
:1014D8000001EC25D96EF4500001ED21DA6E000E02
:1014E800DF6E02018A51060DA00E0001EC6F020E9C
:1014F8000001ED6FF3500001EC27F4500001ED23DB
:1015080002018B51020DF3500001EC27F450000149
:10151800ED23010E0001EC25D96E000E0001ED212E
:10152800DA6E000EDF6E8BC283F2010E0201836554
:1015380001D0A2D002018A51060D02018351000197
:10154800EC6FED6BD8900001EC37ED37020E00011F
:10155800EC27000EED23A00E0001EE6F020E000135
:10156800EF6F0001EC510001EE270001ED51000181
:10157800EF23F3500001EE25D96EF4500001EF215E
:10158800DA6E02018A51060DA00E0001F06F020EFC
:101598000001F16FF3500001F027F4500001F1232E
:1015A80002018351020DF3500001F025E16EF45061
:1015B8000001F121E26EDFCFE7FF02018A51060D3B
:1015C800020183510001EC6FED6BD8900001EC37FC
:1015D800ED37020E0001EC27000EED23A00E0001EE
:1015E800EE6F020E0001EF6F0001EC510001EE27D3
:1015F8000001ED510001EF23F3500001EE27F450F4
:101608000001EF23010E0001EE25D96E000E000146
:10161800EF21DA6E02018A51060DA00E0001F06F6B
:10162800020E0001F16FF3500001F027F4500001A1
:10163800F12302018351020DF3500001F027F45009
:101648000001F123010E0001F025E16E000E0001FA
:10165800F121E26EDFCFE7FF0201832B66D70CD0C2
:1016680000D002018B2B00D00201825102018B5D58
:10167800D8B002D0D6D600D002018A2B9CD502EC75
:1016880052F0000E02018B6F090E02018B6501D02A
:1016980029D002017905D8A402D08B8402D08B828C
:1016A80000D0500E0001636FC30E646F000E656FAB
:1016B800000E666F26EC56F002017905D8A402D018
:1016C8008B9402D08B9200D0500E0001636FC30E32
:1016D800646F000E656F000E666F26EC56F002010F
:1016E8008B2BD2D702017905D8A417D0000E0001A0
:1016F800B16F020E0001B26F7B0E0001B36FF50EE1
:101708000001B46FECC3B5F0EDC3B6F0EEC3B7F0AB
:10171800EFC3B8F037EC18F017D0000E0001B16F26
:10172800020E0001B26F410E0001B36FF00E00010E
:10173800B46FECC3B5F0EDC3B6F0EEC3B7F0EFC3CA
:10174800B8F037EC18F000D0000E0001706F020EF0
:101758000001716FC5EC57F02A0E00016E6FEE0E96
:1017680000016F6F7FEC58F0120002017705D8B4C2
:10177800BBD1E9C072F0EAC073F00FEC3EF000098B
:10178800D8A411D06B0E0001706FF60E0001716FB6
:101798000BEC57F02A0E00016E6FEE0E00016F6F12
:1017A8007FEC58F012000001EB2B2A0E00016E6F3F
:1017B800EE0E00016F6F7FEC58F0E9C06FF0EAC0E1
:1017C80070F0000E0001716F860E0001726F020E3C
:1017D8000001736F06EC35F00009D8A403D086C267
:1017E80081F211D0E90E0001706FF30E0001716FE4
:1017F8000BEC57F02A0E00016E6FEE0E00016F6FB2
:101808007FEC58F01200020181510201D8B405D0D2
:10181800020E0201816512D000D0900E0001706F97
:10182800F60E0001716F0BEC57F02A0E00016E6F77
:10183800EE0E00016F6F7FEC58F01200E9C063F004
:10184800EAC064F0010E0001656F640E0001666F66
:10185800020E0001676F95EC49F00009D8B412D068
:10186800F60E0001706FF50E0001716F0BEC57F06A
:101878002A0E00016E6FEE0E00016F6F7FEC58F0BC
:10188800120032D1640E0001636F020E0001646F12
:10189800C7EC56F002016551D8B405D0200E0201FC
:1018A8006519D8A40FD1000E0201656F02018105E8
:1018B800D8A415D01E0E0001666FEE0E0001676FEA
:1018C800640E0001686F020E0001696FF6EC3FF0CC
:1018D8000009D8A419D0000E02017E6F15D0020E9F
:1018E80002018119D8A410D0220E0001666FEE0EF5
:1018F8000001676F640E0001686F020E0001696FD6
:10190800F6EC3FF0E5D700D002017E510201D8A4E1
:1019180011D08D0E0001706FF90E0001716F0BEC84
:1019280057F02A0E00016E6FEE0E00016F6F7FEC0C
:1019380058F0120002018105D8A417D0640E0201E4
:101948006419D8A402D0000E22D0650E02016419D1
:10195800D8A402D0010E1BD0660E02016419D8A4C7
:101968001200020E14D01200BFD0020E020181191B
:10197800D8A4BAD0620E02016419D8A402D0030E0A
:1019880006D0640E02016419D8A404D0040E020122
:101998007F6FAAD0680E02016419D8A41200640EE1
:1019A8000001636F040E0001646FEBC365F0000172
:1019B800666BCDEC55F0000E0301EB6F000E0301D2
:1019C800EA6F510E00016E6FFE0E00016F6F7FEC23
:1019D80058F02A0E00016E6FEE0E00016F6F7FEC5B
:1019E80058F03E0E18EC58F0000E0201806FF9EC2A
:1019F80059F09E9A9D8A23D0E00E0001636F930EE2
:101A0800646F040E656F000E666F26EC56F00201D7
:101A1800802B190E0201806512D02A0E00016E6F0C
:101A2800EE0E00016F6F7FEC58F0A10E0001706F91
:101A3800F10E0001716F0BEC57F0120000D003019A
:101A4800EA51D8B4D9D79D9A010E02017E6F300EA3
:101A58000401646505D0330E040164650DD000D01F
:101A6800D30E0001706FF10E0001716F0BEC57F08F
:101A7800000E02017E6F00D004016451D00F0201F4
:101A8800786F02017851040F02017F6F640E000124
:101A9800636F040E0001646FEBC365F00001666BB1
:101AA800CDEC55F0000E0301EB6F000E0301EA6F59
:101AB80002017E510201D8B4120016D0120014D0CF
:101AC800120012D0230E0001706FF50E0001716F25
:101AD8000BEC57F02A0E00016E6FEE0E00016F6FCF
:101AE8007FEC58F0120000D0020179510201D8B4FD
:101AF800B2D13AEC53F00009D8B4120001D0120068
:101B08002A0E00016E6FEE0E00016F6F7FEC58F029
:101B1800ECC367F0EDC368F0EEC369F0EFC36AF099
:101B2800840E00016B6F020E00016C6F850E0001C0
:101B38006D6F020E00016E6FB7EC50F0000E0201DF
:101B48007E6F000E02018B6F020E02018B6501D0C1
:101B580049D002017F51060DA00E0001EC6F020E64
:101B68000001ED6FF3500001EC27F4500001ED2364
:101B780002018B51020DF3500001EC25D96EF4508F
:101B88000001ED21DA6EDF50D8A429D002017F517F
:101B9800060DA00E0001EC6F020E0001ED6FF35070
:101BA8000001EC27F4500001ED2302018B51020DD6
:101BB800F3500001EC27F4500001ED23010E000161
:101BC800EC25D96E000E0001ED21DA6EDF50D8A4A5
:101BD80006D08BC282F2010E02017E6F03D0020191
:101BE8008B2BB2D702017E510201D8A409D08C0EEA
:101BF8000001706FF30E0001716F0BEC57F01200CB
:101C0800020182510201D8B458D0000E02018B6F34
:101C18004CD002017F51060DA00E0001EC6F020EA0
:101C28000001ED6FF3500001EC27F4500001ED23A3
:101C380002018B51020DF3500001EC25D96EF450CE
:101C48000001ED21DA6E02018451DE18D8A42AD0F1
:101C580002017F51060DA00E0001EC6F020E00017B
:101C6800ED6FF3500001EC27F4500001ED23020161
:101C78008B51020DF3500001EC27F4500001ED23C5
:101C8800010E0001EC25D96E000E0001ED21DA6E7F
:101C980002018551DE18D8A405D0000E02017E6F1E
:101CA8000CD000D002018B2B00D00201825102011E
:101CB8008B5DD8B002D0ADD700D002017E510201B1
:101CC800D8A409D0170E0001706FF40E0001716FCF
:101CD8000BEC57F0120002017F51060DA00E000117
:101CE800EC6F020E0001ED6FF3500001EC27F45089
:101CF8000001ED2302018251020DF3500001EC2591
:101D0800D96EF4500001ED21DA6E84C2DFFF0201C2
:101D18007F51060DA00E0001EC6F020E0001ED6F61
:101D2800F3500001EC27F4500001ED230201825129
:101D3800020DF3500001EC27F4500001ED23010ED1
:101D48000001EC25D96E000E0001ED21DA6E85C286
:101D5800DFFF02EC52F0020178510201D8B423D01F
:101D6800000E0001B16F020E0001B26FAD0E00014E
:101D7800B36FEE0E0001B46FECC3B5F0EDC3B6F06F
:101D8800EEC3B7F0EFC3B8F081C2B9F00001BA6B87
:101D980064C2BBF00001BC6B78C2BDF00001BE6B31
:101DA80037EC18F01FD0000E0001B16F020E0001D1
:101DB800B26FA00E0001B36FEF0E0001B46FECC359
:101DC800B5F0EDC3B6F0EEC3B7F0EFC3B8F081C21B
:101DD800B9F00001BA6B64C2BBF00001BC6B37EC10
:101DE80018F000D0000E0001706F020E0001716F34
:101DF800C5EC57F02A0E00016E6FEE0E00016F6FF2
:101E08007FEC58F0000E02018B6F090E02018B6502
:101E180002D0120012008B84500E0001636FC30EB3
:101E2800646F000E656F000E666F26EC56F08B949B
:101E3800500E0001636FC30E646F000E656F000ED5
:101E4800666F26EC56F002018B2B090E02018B659A
:101E5800E2D71200120002017705D8A455D0000E6F
:101E680002018B6F020E02018B6501D097D0000E24
:101E78000201836F070E0201836501D041D0020180
:101E88008351060DA00E0001EC6F020E0001ED6FEC
:101E9800F3500001EC27F4500001ED2302018B51AF
:101EA800020DF3500001EC25D96EF4500001ED212C
:101EB800DA6E000EDF6E02018351060DA00E0001DE
:101EC800EC6F020E0001ED6FF3500001EC27F450A7
:101ED8000001ED2302018B51020DF3500001EC27A4
:101EE800F4500001ED23010E0001EC25D96E000E1F
:101EF8000001ED21DA6E000EDF6E0201832BBAD7E6
:101F080002018B2BAFD74AD0000E02018B6F020E55
:101F180002018B6501D042D002017F51060DA00E4F
:101F28000001EC6F020E0001ED6FF3500001EC2789
:101F3800F4500001ED2302018B51020DF350000112
:101F4800EC25D96EF4500001ED21DA6E000EDF6E3B
:101F580002017F51060DA00E0001EC6F020E000178
:101F6800ED6FF3500001EC27F4500001ED2302015E
:101F78008B51020DF3500001EC27F4500001ED23C2
:101F8800010E0001EC25D96E000E0001ED21DA6E7C
:101F9800000EDF6E02018B2BBAD700D002EC52F094
:101FA80002017705D8A40FD0000E0001B16F020E10
:101FB8000001B26F6D0E0001B36FEE0E0001B46F39
:101FC80037EC18F037D0020178510201D8B41BD091
:101FD800000E0001B16F020E0001B26FD60E0001B3
:101FE800B36FEF0E0001B46F81C2B5F00001B66B9C
:101FF80064C2B7F00001B86B78C2B9F00001BA6BDF
:1020080037EC18F017D0000E0001B16F020E000176
:10201800B26FF70E0001B36FF40E0001B46F81C206
:10202800B5F00001B66B64C2B7F00001B86B37ECCD
:1020380018F000D0000E0001706F020E0001716FE1
:10204800C5EC57F02A0E00016E6FEE0E00016F6F9F
:102058007FEC58F0000E02018B6F090E02018B65B0
:1020680002D0120012008B82500E0001636FC30E63
:10207800646F000E656F000E666F26EC56F08B924B
:10208800500E0001636FC30E646F000E656F000E83
:10209800666F26EC56F002018B2B090E02018B6548
:1020A800E2D712001200E9C066F0EAC067F0C60E77
:1020B8000001686FFF0E0001696FF0EC52F0000933
:1020C800D8B497D0640E0001636F040E0001646FEA
:1020D800EBC365F00001666BCDEC55F0000E030113
:1020E800EB6F000E0301EA6FB20E00016E6FF80E7F
:1020F80000016F6F7FEC58F02A0E00016E6FEE0E34
:1021080000016F6F7FEC58F03E0EA8EC57F0000E00
:102118000201806FF9EC59F09E9A9D8A23D0E00E57
:102128000001636F930E646F040E656F000E666F97
:1021380026EC56F00201802B190E0201806512D0A0
:102148002A0E00016E6FEE0E00016F6F7FEC58F0E3
:10215800CB0E0001706FF90E0001716F0BEC57F098
:10216800120000D00301EA51D8B4D9D79D9A590E6C
:1021780004016419D8B409D0790E04016419D8A4EB
:1021880014D004016551D8A410D0A00E0001706FBE
:10219800FD0E0001716F0BEC57F0000E0201F16F9C
:1021A80002EC52F0FF00120011D02A0E00016E6FEF
:1021B800EE0E00016F6F7FEC58F0CB0E0001706FD0
:1021C800F90E0001716F0BEC57F000D0640E00019E
:1021D800636F040E0001646FEBC365F00001666B6A
:1021E800CDEC55F0000E0301EB6F000E0301EA6F12
:1021F8001200E9C066F0EAC067F0440E0001686F9B
:10220800FF0E0001696FF0EC52F00009D8B497D1C5
:10221800640E0001636F040E0001646FEBC365F088
:102228000001666BCDEC55F0000E0301EB6F000E5C
:102238000301EA6F2B0E00016E6FEF0E00016F6F46
:102248007FEC58F02A0E00016E6FEE0E00016F6FE2
:102258007FEC58F03E0E18EC58F0000E0201806F2B
:10226800F9EC59F09E9A9D8A23D0E00E0001636F25
:10227800930E646F040E656F000E666F26EC56F0C1
:102288000201802B190E0201806512D02A0E00016E
:102298006E6FEE0E00016F6F7FEC58F0450E000177
:1022A800706FF40E0001716F0BEC57F0120000D044
:1022B8000301EA51D8B4D9D79D9A640E0001636F1F
:1022C800040E0001646FD60E0001656FFF0E000159
:1022D800666FC6EC54F00009D8B420D1640E000132
:1022E800636F040E0001646FEBC365F00001666B59
:1022F800CDEC55F0000E0301EB6F000E0301EA6F01
:102308002D0E00016E6FFB0E00016F6F7FEC58F011
:102318002A0E00016E6FEE0E00016F6F7FEC58F011
:102328003E0EA8EC57F0000E0201806FF9EC59F050
:102338009E9A9D8A2FD0E00E0001636F930E646F02
:10234800040E656F000E666F26EC56F00201802BB6
:1023580002016E510301EB19D8B404D0000E02013A
:10236800806F00D0190E0201806511D02A0E00017D
:102378006E6FEE0E00016F6F7FEC58F0450E000196
:10238800706FF40E0001716F0BEC57F01200EBC385
:102398006EF200D00301EA51D8B4CDD7640E000123
:1023A800726F040E0001736F0FEC3EF00009D8B491
:1023B800A4D00301EB2B640E00016F6F040E000123
:1023C800706F010E0001716F730E0001726F020EC3
:1023D8000001736FC3EC32F00009D8A48ED002015B
:1023E80076BF8BD00201765102017511020174117A
:1023F80004E102017305D8A080D073C2D0F274C280
:10240800D1F275C2D2F276C2D3F222EEA0F000EE7B
:1024180099F0330EDBCFEBFFE806FCE2020E000179
:10242800CD6F000ECE6F000ECF6F000ED06F3EEC5A
:102438004BF00001995100019A1100019B11000114
:102448009C11D8A448D00FEC3FF0CB0E0001706F60
:10245800F40E0001716F0BEC57F0000E0001B16F24
:10246800020E0001B26F930E0001B36FFA0E000165
:10247800B46FD0C2B5F0D1C2B6F0D2C2B7F0D3C2F1
:10248800B8F037EC18F0000E0001706F020E000172
:10249800716FC5EC57F02A0E00016E6FEE0E000149
:1024A8006F6F7FEC58F0A00E0001706FFD0E0001F9
:1024B800716F0BEC57F0000E0201F16F02EC52F055
:1024C8002A0E00016E6FEE0E00016F6F7FEC58F060
:1024D800FF00120012D09F0E0001706FF40E000171
:1024E800716F0BEC57F02A0E00016E6FEE0E0001B3
:1024F8006F6F7FEC58F0120000D0CE0E0001706FA5
:10250800F70E0001716F0BEC57F02A0E00016E6F89
:10251800EE0E00016F6F7FEC58F01200150E0001EF
:10252800706FFB0E0001716F0BEC57F02A0E000163
:102538006E6FEE0E00016F6F7FEC58F01200E9C06D
:1025480066F0EAC067F0FD0E0001686FFB0E00013F
:10255800696FF0EC52F00009D8B45FD1640E000145
:10256800636F040E0001646FEBC365F00001666BD6
:10257800CDEC55F0000E0301EB6F000E0301EA6F7E
:102588002A0E00016E6FEE0E00016F6F7FEC58F09F
:10259800450E00016E6FF60E00016F6F7FEC58F06C
:1025A8002A0E00016E6FEE0E00016F6F7FEC58F07F
:1025B8003E0E18EC58F0000E0201806FF9EC59F04D
:1025C8009E9A9D8A23D0E00E0001636F930E646F7C
:1025D800040E656F000E666F26EC56F00201802B24
:1025E800190E0201806512D02A0E00016E6FEE0EE0
:1025F80000016F6F7FEC58F0670E0001706FEF0EEF
:102608000001716F0BEC57F0120000D00301EA5182
:10261800D8B4D9D79D9A590E04016419D8B409D0F1
:10262800790E04016419D8A4E7D004016551D8A42F
:10263800E3D0640E0001636F040E0001646FEBC306
:1026480065F00001666BCDEC55F0000E0301EB6FF1
:10265800000E0301EA6F2A0E00016E6FEE0E0001F4
:102668006F6F7FEC58F0440E00016E6FF70E00019B
:102678006F6F7FEC58F02A0E00016E6FEE0E0001AE
:102688006F6F7FEC58F03E0EA8EC57F0000E020179
:10269800806FF9EC59F09E9A9D8A27D0E00E0001D0
:1026A800636F930E646F040E656F000E666F26EC01
:1026B80056F00201802B02016E510301EB19D8B4C8
:1026C80004D0000E0201806F00D0190E020180654F
:1026D80009D0670E0001706FEF0E0001716F0BECEF
:1026E80057F01200EBC36EF200D00301EA51D8B4E0
:1026F800D5D79D9A2A0E00016E6FEE0E00016F6FFE
:102708007FEC58F02A0E00016E6FEE0E00016F6F1D
:102718007FEC58F004016451D8B45DD004017851BD
:10272800D8A459D0640E0001656F040E0001666FCD
:10273800FDEC57F00009D8B43DD00C0E0001706FC5
:10274800F00E0001716F0BEC57F02A0E00016E6F4E
:10275800EE0E00016F6F7FEC58F0640E00016B6F96
:10276800040E00016C6FE60E00016D6F040E00018F
:102778006E6F150E00016F6F000E0001706F82EC16
:1027880053F0500E0001636FC30E646F000E656F47
:10279800000E666F26EC56F0000E33EC26F00009AA
:1027A800D8B404D0010E0301E86F1200000E030133
:1027B800E86F1200A50E0001706FF50E0001716F31
:1027C8000BEC57F02A0E00016E6FEE0E00016F6FD2
:1027D8007FEC58F012002D0E0001706FEE0E000114
:1027E800716F0BEC57F02A0E00016E6FEE0E0001B0
:1027F8006F6F7FEC58F01200670E0001706FEF0EDC
:102808000001716F0BEC57F02A0E00016E6FEE0E8F
:1028180000016F6F7FEC58F01200E9C066F0EAC063
:1028280067F07C0E0001686FFF0E0001696FF0EC25
:1028380052F00009D8B42FD02A0E00016E6FEE0EA8
:1028480000016F6F7FEC58F0000E0001B16F020EAF
:102858000001B26FE20E0001B36FFC0E0001B46F0D
:10286800A1EC52F08CC0B5F08DC0B6F08EC0B7F0B8
:1028780037EC18F0000E0001706F020E0001716F46
:10288800C5EC57F02A0E00016E6FEE0E00016F6F57
:102898007FEC58F01200E9C066F0EAC067F0820EDB
:1028A8000001686FF70E0001696FF0EC52F0000943
:1028B800D8B4CBD02A0E00016E6FEE0E00016F6FF8
:1028C8007FEC58F0000E0001B16F020E0001B26FEC
:1028D8007D0E0001B36FFC0E0001B46F100E0001F5
:1028E800B56FEE0E0001B66F37EC18F0000E000160
:1028F800706F020E0001716FC5EC57F02A0E0001CF
:102908006E6FEE0E00016F6F7FEC58F0220E000123
:10291800706FFA0E0001716F0BEC57F02A0E000170
:102928006E6FEE0E00016F6F7FEC58F08C0E000199
:10293800706FFB0E0001716F0BEC57F0C80E0001B1
:10294800706F040E0001716FC5EC57F0320E000174
:10295800706F050E0001716FC5EC57F02A0E00016B
:102968006E6FEE0E00016F6F7FEC58F0000E0001E5
:10297800B16F020E0001B26F050E0001B36FFE0EBB
:102988000001B46F190E0001B56FEE0E0001B66FAD
:1029980037EC18F0000E0001706F020E0001716F25
:1029A800C5EC57F0000E0001B16F020E0001B26FC6
:1029B800AE0E0001B36FFA0E0001B46F260E0001CF
:1029C800B56FEE0E0001B66F37EC18F0000E00017F
:1029D8006D6F020E00016E6F50EC59F0DB0E0001B6
:1029E800706FFF0E0001716F0BEC57F02A0E00019B
:1029F8006E6FEE0E00016F6F7FEC58F0000E000155
:102A0800B16F020E0001B26F690E0001B36FFD0EC7
:102A18000001B46FD0C2B5F0D1C2B6F0D2C2B7F0DF
:102A2800D3C2B8F037EC18F0000E00016D6F020E3B
:102A380000016E6F50EC59F02A0E00016E6FEE0E19
:102A480000016F6F7FEC58F01200E9C063F0EAC034
:102A580064F0E40E0001656FFF0E0001666FC6ECBE
:102A680054F00009D8B4E5D22A0E00016E6FEE0EBC
:102A780000016F6F7FEC58F0000E02018B6F210E82
:102A880002018B6501D006D07E0EA8EC57F002013A
:102A98008B2BF5D7D70E00016E6FFA0E00016F6F02
:102AA8007FEC58F0000E02018B6F210E02018B653E
:102AB80001D006D07E0EA8EC57F002018B2BF5D77B
:102AC8002A0E00016E6FEE0E00016F6F7FEC58F05A
:102AD8002A0E00016E6FEE0E00016F6F7FEC58F04A
:102AE800C30E0001706FFD0E0001716F0BEC57F003
:102AF800E40E0001706FFF0E0001716F4E0E0001B1
:102B0800726FFF0E0001736F06EC49F0C60E0001EC
:102B1800706FFF0E0001716F920E0001726FF80E58
:102B28000001736F06EC49F0820E0001706FF70E1A
:102B38000001716F670E0001726FF70E0001736F6D
:102B480006EC49F0440E0001706FFF0E0001716F32
:102B5800130E0001726FFC0E0001736F06EC49F052
:102B6800FD0E0001706FFB0E0001716F110E000168
:102B7800726FF80E0001736F06EC49F02A0E00011F
:102B88006E6FEE0E00016F6F7FEC58F0680E00015B
:102B9800706FFC0E0001716F0BEC57F07C0E00019A
:102BA800706FFF0E0001716F5B0E0001726FFA0EFD
:102BB8000001736F06EC49F02A0E00016E6FEE0EED
:102BC80000016F6F7FEC58F06C0E0001706FFE0E05
:102BD8000001716F0BEC57F0010E02018B6F0C0EA8
:102BE80002018B6501D030D0000E0001636F020E28
:102BF8000001646F000E0001666F320E656FCDEC48
:102C080055F0000E0001B16F020E0001B26F250EE3
:102C18000001B36FFE0E0001B46F8BC2B5F0000166
:102C2800B66B37EC18F0000E0001706F020E000151
:102C3800716FE40E0001726FFA0E0001736F06ECFB
:102C480049F002018B2BCBD7010E02018B6F0C0EC2
:102C580002018B6501D030D0000E0001636F020EB7
:102C68000001646F000E0001666F320E656FCDECD7
:102C780055F0000E0001B16F020E0001B26F560E42
:102C88000001B36FFD0E0001B46F8BC2B5F00001F7
:102C9800B66B37EC18F0000E0001706F020E0001E1
:102CA800716F450E0001726FFB0E0001736F06EC29
:102CB80049F002018B2BCBD72E0E0001706FFF0E4F
:102CC8000001716FEC0E0001726FEE0E0001736F60
:102CD80006EC49F0F70E0001706FFE0E0001716FEF
:102CE800680E0001726FF20E0001736F06EC49F076
:102CF8000D0E0001706FFF0E0001716FCA0E00010A
:102D0800726FF20E0001736F06EC49F0180E0001A5
:102D1800706FFF0E0001716FFB0E0001726FF20EF3
:102D28000001736F06EC49F0EC0E0001706FFE0EA7
:102D38000001716F370E0001726FF20E0001736FA0
:102D480006EC49F0020E0001706FFF0E0001716F72
:102D5800990E0001726FF20E0001736F06EC49F0D4
:102D6800230E0001706FFF0E0001716F2C0E000121
:102D7800726FF30E0001736F06EC49F0C70E000185
:102D8800706FFE0E0001716F1E0E0001726FF60E5D
:102D98000001736F06EC49F0F50E0001706FFD0E2F
:102DA8000001716F4F0E0001726FF50E0001736F15
:102DB80006EC49F0860E0001706FFE0E0001716F7F
:102DC800A70E0001726FF00E0001736F06EC49F058
:102DD800A00E0001706FFE0E0001716F0B0E000156
:102DE800726FF10E0001736F06EC49F0AD0E000131
:102DF800706FFE0E0001716F3D0E0001726FF10ED3
:102E08000001736F06EC49F0790E0001706FFE0E39
:102E18000001716F750E0001726FF00E0001736F83
:102E280006EC49F0930E0001706FFE0E0001716F01
:102E3800D90E0001726FF00E0001736F06EC49F0B5
:102E4800BA0E0001706FFE0E0001716F6F0E000167
:102E5800726FF10E0001736F06EC49F0D10E00019C
:102E6800706FFF0E0001716FCE0E0001726FF50ECC
:102E78000001736F06EC49F02A0E00016E6FEE0E2A
:102E880000016F6F7FEC58F05F0E0001706FFE0E4F
:102E98000001716F0BEC57F0A00E0001706FFF0E70
:102EA8000001716FAC0E0001726FF70E0001736FB5
:102EB80006EC49F0930E0001706FED0E0001716F82
:102EC8000A0E0001726FFD0E0001736F06EC49F0E7
:102ED800A20E0001706FED0E0001716F1D0E000152
:102EE800726FFD0E0001736F06EC49F0B10E000120
:102EF800706FED0E0001716F300E0001726FFD0EE4
:102F08000001736F06EC49F09C0E0001706FEC0E27
:102F18000001716FD10E0001726FFB0E0001736F1B
:102F280006EC49F0760E0001706FEC0E0001716F2F
:102F3800A30E0001726FFB0E0001736F06EC49F0DF
:102F4800AE0E0001706FEC0E0001716F430E0001B0
:102F5800726FFD0E0001736F06EC49F0890E0001D7
:102F6800706FEC0E0001716FBA0E0001726FFC0EEB
:102F78000001736F06EC49F03A0E0001706FEC0E19
:102F88000001716F300E0001726FF90E0001736F4E
:102F980006EC49F0FB0E0001706FEB0E0001716F3B
:102FA800320E0001726FF80E0001736F06EC49F0E3
:102FB8004E0E0001706FEC0E0001716F4F0E000194
:102FC800726FF90E0001736F06EC49F0100E0001E4
:102FD800706FEC0E0001716F520E0001726FF80EE7
:102FE8000001736F06EC49F0620E0001706FEC0E81
:102FF8000001716F6E0E0001726FF90E0001736FA0
:1030080006EC49F0250E0001706FEC0E0001716F9F
:10301800720E0001726FF80E0001736F06EC49F032
:103028002A0E00016E6FEE0E00016F6F7FEC58F0F4
:103038001200DE0E0001706FED0E0001716F0BECD7
:1030480057F0C90E0001706FFA0E0001716F0BEC9A
:1030580057F02A0E00016E6FEE0E00016F6F7FECC5
:1030680058F012001200B50E0001CD6F000E0001DD
:10307800CE6FDAEF1FF0250E0001E219D8B40BD09D
:10308800B1C0D9FFB2C0DAFFE2C0DFFF0001B14B27
:10309800B22BDAEF1FF0000E0001DF6F000EDE6FBB
:1030A800000E0001E16F000EE06F07D00001E0851F
:1030B8000001B34BB42B01D00CD0B3C0F6FFB4C0A1
:1030C800F7FFF86A0800F550300AD8B4EFD701D0F6
:1030D800F4D7B3C0F6FFB4C0F7FFF86A0800F5509C
:1030E800E1EC58F0D8A010D1000E0001DF6F000EFF
:1030F800DE6F00D0DEC071F0DFC072F0000E00019C
:10310800746F0A0E736FE1EC57F071C0DEF072C095
:10311800DFF0D00E0001BF6FFF0E0001C06FB3C01B
:10312800F6FFB4C0F7FFF86A0800F5500001C16F58
:10313800C26B0001BF510001C1270001C05100014D
:10314800C2230001C1510001DE270001C251000164
:10315800DF230001B34BB42BB3C0F6FFB4C0F7FFB5
:10316800F86A0800F550E1EC58F0D8A0CDD0C2D7E5
:10317800CBD0ECEF1FF00001E089C6D00001E1855B
:10318800F0D000D00001E08FECD0CDC0D9FFCEC088
:10319800DAFFDECFC9F0DDCFCAF0020E0001CD277D
:1031A800000ECE230001C9510001CA11D8A407D0CE
:1031B800840E0001C96FFF0E0001CA6F00D0000E17
:1031C8000001CC6F000ECB6F04D00001CB4BCC2B91
:1031D80000D00001CB510001C9250001BF6F0001DB
:1031E800CC510001CA210001C06FBFC0F6FFC0C0AA
:1031F800F7FF000EF86E0F0EF76403D00800F550C5
:1032080005D0F6CFE9FFF7CFEAFFEF500009D8B4B1
:1032180002D0DBD700D00001DE510001CB5D0001F8
:10322800DF510001CC59D8B009D00001CB510001C1
:10323800DE5F0001CC510001DF5B10D0000E000101
:10324800DF6F000EDE6F0AD0B1C0D9FFB2C0DAFF5F
:10325800200EDF6E0001B14BB22B00D00001DE075B
:10326800D8A0DF070001DE29EFE10001DF29D8B48B
:103278001FD0EAD71DD0C9C0F6FFCAC0F7FF000E9D
:10328800F86EB1C0D9FFB2C0DAFF0F0EF76403D0F1
:103298000800F55005D0F6CFE9FFF7CFEAFFEF5069
:1032A800DF6E0001C94BCA2B0001B14BB22B00D015
:1032B8000001CB07D8A0CC070001CB29DCE1000135
:1032C800CC29D8B4DAEF1FF0D6D7DAEF1FF0CDC08B
:1032D800D9FFCEC0DAFFDF500001E26F020E000115
:1032E800CD27000ECE2300D0E20E0001C96F000EDC
:1032F8000001CA6F000E0001CC6F010ECB6F8BD797
:10330800C00E0001E0132DD0B3C0F6FFB4C0F7FF24
:103318000001B34BB42BF86A0800F5CFE2F00001C6
:10332800E251000AD8B4ECEF1FF0580AD8B42AD7F3
:103338003B0AD8B4CCD7070AD8B413D0020AD8B4F9
:103348001DD70F0AD8B40DD0050AD8B414D71F0A50
:10335800D8B41BD7060AD8B4D3D70D0AD8B412D715
:10336800C3D7070E0001E115D8B4EDD3000E000154
:10337800D06F060ECF6FCDC0D9FFCEC0DAFFDECF3B
:10338800DBF0DECFDCF0DDCFDDF0030E0001CD2772
:10339800000ECE230001DDAF12D0DBC063F0DCC02D
:1033A80064F0DDC065F0B1EC58F063C0DBF064C0D8
:1033B800DCF065C0DDF0030E0001E01300D0000E64
:1033C8000001D66F000ED56F0001DB510001DC1142
:1033D8000001DD11D8B49DD0820E0001BF6FFF0E31
:1033E8000001C06FDBC0C1F0DCC0C2F0DDC0C3F0BB
:1033F800DEC0C4F0100E06D00001D890C433C33329
:10340800C233C133E82EF8D70001C1510001BF25EE
:103418000001D56F000E0001C0210001D66F000128
:10342800D507D8A0D607D5C071F0D6C072F0000E67
:103438000001746F030E736FE1EC57F071C0D5F0A3
:1034480072C0D6F0D5C069F0D6C06AF0000E00018F
:103458006C6F0A0E6B6F04EC4EF069C0D5F06AC051
:10346800D6F00001D6AF05D00001D507D8A0D60701
:1034780000D00001D551000841EC30F08CC0D1F0EB
:103488008DC0D2F08EC0D3F0D1C07DF0D2C07EF016
:10349800D3C07FF0DBC080F0DCC081F0DDC082F0FB
:1034A800E6EC43F07DC0D1F07EC0D2F07FC0D3F00F
:1034B800D1C063F0D2C064F0D3C065F0000E000143
:1034C800666F800E0001676F3F0E0001686FD3ECD6
:1034D8004EF00001D8B005D00001D507D8A0D60716
:1034E80018D0D1C063F0D2C064F0D3C065F0000E2C
:1034F8000001666F200E0001676F410E0001686FC2
:10350800D3EC4EF00001D8A004D00001D54BD62B47
:1035180000D00001D0BF08D00001D0511EE10D0E2F
:103528000001CF5DD8B019D0DBC096F0DCC097F0B1
:10353800DDC098F00001CF5138EC3AF08CC099F01A
:103548008DC09AF08EC09BF0A4EC3BF096C0DBF0E7
:1035580097C0DCF098C0DDF000D00001D6BF08D0DD
:103568000001D6512CE10A0E0001D55DD8B027D054
:103578000001DB510001DC110001DD11D8B47FD05E
:10358800DBC0A2F0DCC0A3F0DDC0A4F0F3EC45F092
:103598000001A2510001A3110001A4110001A5110D
:1035A800D8A46DD00001D6BF6AD00001D65107E17A
:1035B800020E0001D55DD8B002D061D000D0D1C0D4
:1035C80063F0D2C064F0D3C065F0700E0001666F7E
:1035D800890E0001676F400E0001686FD3EC4EF052
:1035E8000001D8B003D00001F70E02D00001F80E98
:1035F800D527FF0ED62300D00001D55141EC30F07D
:103608008CC0D1F08DC0D2F08EC0D3F017D0DBC003
:1036180063F0DCC064F0DDC065F0D1C066F0D2C0F4
:1036280067F0D3C068F0A0EC41F063C0D7F064C085
:10363800D8F065C0D9F066C0DAF017D0DBC063F007
:10364800DCC064F0DDC065F0D1C066F0D2C067F0C0
:10365800D3C068F0CDEC40F063C0D7F064C0D8F0B8
:1036680065C0D9F066C0DAF000D0000E0001DB6F4B
:10367800000E0001DC6F000E0001DD6F34D0DBC0EE
:10368800A2F0DCC0A3F0DDC0A4F0F3EC45F0A2C0CA
:10369800D7F0A3C0D8F0A4C0D9F0A5C0DAF0DBC039
:1036A800A2F0DCC0A3F0DDC0A4F0D7C06BF0D8C096
:1036B8006CF0D9C06DF0DAC06EF00BEC54F06BC052
:1036C800A5F06CC0A6F06DC0A7F07BEC56F0A2C0C8
:1036D800DBF0A3C0DCF0A4C0DDF0000E0001D66F63
:1036E800000ED56F00D0010E0001E26F0A0E000136
:1036F800E219D8B425D001D023D00001E251040D3D
:103708004B0EF324F66EEB0EF420F76EF86A000EFB
:10371800F8220900F5500001D75D0900F5500001B5
:10372800D8590900F5500001D9590900F550000190
:10373800DA59D8A005D001D003D00001E22BD6D7A2
:10374800E2C0BFF00001C06BBFBFC0070001CF518E
:103758000001BF270001D0510001C0230001D5514D
:103768000001BF270001D6510001C0230001BF514D
:103778000001DE5F0001C0510001DF5B0001CF5195
:103788000001D011D8B405D00001DE07D8A0DF07AA
:1037980000D0030E0001E0150001BF6F000E00010C
:1037A800E1150001C06F0001BF510001C011D8B47C
:1037B80005D00001DE07D8A0DF0700D00001E0A592
:1037C80043D0030E0001E0150001BF6F000E000199
:1037D800E1150001C06F0001BF510001C011D8B44C
:1037E80018D0B1C0D9FFB2C0DAFF2D0EDF6E0001CC
:1037F800B14BB22B0ED0B1C0D9FFB2C0DAFF300E38
:10380800DF6E0001B14BB22B0001DE07D8A0DF0745
:1038180000D00001DFBF8AD00001DF51ECE10001D8
:10382800DE05D8A083D0E7D781D00ED0B1C0D9FFAC
:10383800B2C0DAFF200EDF6E0001B14BB22B0001DF
:10384800DE07D8A0DF0700D00001DFBF07D00001E6
:10385800DF51ECE10001DE05D8B0E8D7030E000126
:10386800E0150001BF6F000E0001E1150001C06FF7
:103878000001BF510001C011D8B458D0B1C0D9FF60
:10388800B2C0DAFF2D0E50D00001B14BB22B4ED092
:10389800D7C063F0D8C064F0D9C065F0DAC066F06C
:1038A8000001E251040D4B0EF324F66EEB0EF420EA
:1038B800F76EF86A000EF8220900F5CF67F00900E4
:1038C800F5CF68F00900F5CF69F00A00F5CF6AF086
:1038D8009FEC4FF063C0D1F064C0D2F065C0D3F064
:1038E80066C0D4F0D1C070F0D2C071F0D3C072F00D
:1038F800D4C073F00A0E0001746F000E756F000ECD
:10390800766F000E776F0EEC51F070C0D1F071C079
:10391800D2F072C0D3F073C0D4F00001D151300F8F
:10392800B1C0D9FFB2C0DAFFDF6EAED70001E2073F
:103938000001E229D8B410D0ABD70ED0B1C0D9FF5E
:10394800B2C0DAFF300EDF6E0001B14BB22B0001BE
:10395800D507D8A0D60700D00001D6BF07D00001F0
:10396800D651ECE10001D505D8B0E8D70001D0BFA9
:103978000CD00001D05105E1090E0001CF5DD8A09F
:1039880004D0080E0001E26F03D0CFC0E2F000D0EF
:103998000001E2510001CF5F000E0001E2BFFF0EFF
:1039A8000001D05B0001E2510001D8B40AD0B1C0D7
:1039B800D9FFB2C0DAFF2E0EDF6E0001B14BB22B79
:1039C80000D00001E25141EC30F08CC0C5F08DC050
:1039D800C6F08EC0C7F0DBC080F0DCC081F0DDC06F
:1039E80082F0C5C07DF0C6C07EF0C7C07FF0E6ECAF
:1039F80043F07DC0A2F07EC0A3F07FC0A4F0F3EC3A
:103A080045F0A2C0D7F0A3C0D8F0A4C0D9F0A5C093
:103A1800DAF07BD0D7C063F0D8C064F0D9C065F0C5
:103A2800DAC066F00001E251040D4B0EF324F66E85
:103A3800EB0EF420F76EF86A000EF8220900F5CFB5
:103A480067F00900F5CF68F00900F5CF69F00A00C2
:103A5800F5CF6AF09FEC4FF063C0D1F064C0D2F0AC
:103A680065C0D3F066C0D4F0D1C070F0D2C071F098
:103A7800D3C072F0D4C073F00A0E0001746F000E48
:103A8800756F000E766F000E776F0EEC51F070C0F8
:103A9800D1F071C0D2F072C0D3F073C0D4F000017D
:103AA800D151300FB1C0D9FFB2C0DAFFDF6E0001CB
:103AB800B14BB22BD7C070F0D8C071F0D9C072F03A
:103AC800DAC073F00001E251040D4B0EF324F66ED8
:103AD800EB0EF420F76EF86A000EF8220900F5CF15
:103AE80074F00900F5CF75F00900F5CF76F00A00FB
:103AF800F5CF77F00EEC51F070C0D7F071C0D8F068
:103B080072C0D9F073C0DAF000D00001E2070001FA
:103B1800E229D8B410D07ED70ED0B1C0D9FFB2C038
:103B2800DAFF300EDF6E0001B14BB22B0001CF0778
:103B3800D8A0D00700D00001CF510001D011D8B4CF
:103B480035D2EBD733D2C00E0001E0150001BF6FAC
:103B5800000E0001E1150001C06F0001BF51000116
:103B6800C011D8A435D00001E0A90ED0CDC0D9FF2E
:103B7800CEC0DAFFDECFD7F0DECFD8F0DECFD9F077
:103B8800DECFDAF0040E0FD0CDC0D9FFCEC0DAFFF9
:103B9800DECFD7F0DDCFD8F00001000ED8BFFF0E82
:103BA800D96FDA6F020E0001CD27000ECE2300D0A8
:103BB8000001DAAF90D0030E0001E0130001DA1F14
:103BC800D91FD81FD76D000ED823D923DA2383D065
:103BD8000001E0A90ED0CDC0D9FFCEC0DAFFDECFFC
:103BE800D7F0DECFD8F0DECFD9F0DECFDAF0040E92
:103BF80010D0CDC0D9FFCEC0DAFFDECFBFF0DDCF09
:103C0800C0F0BFC0D7F0C0C0D8F00001D96BDA6BE4
:103C1800020E0001CD27000ECE235DD000D0010E8C
:103C28000001E26F0A0E0001E219D8B461D001D098
:103C38005FD00001E251040D4B0EF324F66EEB0E3B
:103C4800F420F76EF86A000EF8220900F55000011A
:103C5800D75D0900F5500001D8590900F550000159
:103C6800D9590900F5500001DA59D8A041D001D03E
:103C78003FD00001E22BD6D73BD0010E0001E26F06
:103C8800080E0001E219D8B433D001D031D00001B8
:103C9800E251040DC10EF324F66EEB0EF420F76E1C
:103CA800F86A000EF8220900F5500001D75D0900F6
:103CB800F5500001D8590900F5500001D9590900FB
:103CC800F5500001DA59D8A013D001D011D0000165
:103CD800E22BD6D70DD00001E051C00B000AD8B4B2
:103CE8009ED7800AD8B4C9D7400AD8B498D700D08C
:103CF8000001DE510001DF11D8B415D0030E000118
:103D0800E0150001BF6F000E0001E1150001C06F52
:103D18000001BF510001C011D8B405D00001DE0771
:103D2800D8A0DF0700D0800E0001E2BF7F0E00019F
:103D3800BF6F0001DE510001E25D0001DF51800A22
:103D48000001BF59D8B00BD00001E2510001DE5F7D
:103D5800000E0001E2BFFF0E0001DF5B06D0000E7F
:103D68000001DF6F000EDE6F00D00001E0A535D046
:103D7800030E0001E0150001BF6F000E0001E11500
:103D88000001C06F0001BF510001C011D8B40AD0B2
:103D9800B1C0D9FFB2C0DAFF2D0EDF6E0001B14B02
:103DA800B22B00D00001DE510001DF11D8B44AD097
:103DB800B1C0D9FFB2C0DAFF300EDF6E0001B14BDF
:103DC800B22B0001DE07D8A0DF070001DE51000199
:103DD800DF11D8B437D0ECD735D00001DE5100015F
:103DE800DF11D8B415D0B1C0D9FFB2C0DAFF200EA8
:103DF800DF6E0001B14BB22B0001DE07D8A0DF0750
:103E08000001DE510001DF11D8B402D0ECD700D098
:103E1800030E0001E0150001BF6F000E0001E1155F
:103E28000001C06F0001BF510001C011D8B40AD011
:103E3800B1C0D9FFB2C0DAFF2D0EDF6E0001B14B61
:103E4800B22B00D00001E2510001CF6FD06BCFBF81
:103E5800D0079FD087D000D0CFC0BFF0D0C0C0F06F
:103E68000001D890BF37C0370001D890BF37C0379E
:103E78004B0E0001BF25F66EEB0EC021F76EF86AF7
:103E8800000EF8220900F5CF67F00900F5CF68F0B9
:103E98000900F5CF69F00A00F5CF6AF0D7C063F0E2
:103EA800D8C064F0D9C065F0DAC066F09FEC4FF076
:103EB80063C070F064C071F065C072F066C073F0E2
:103EC8000A0E0001746F000E756F000E766F000EFB
:103ED800776F0EEC51F000017051300F0001E26F66
:103EE8004ED0D7C063F0D8C064F0D9C065F0DAC04E
:103EF80066F0CFC0BFF0D0C0C0F00001D890BF3787
:103F0800C0370001D890BF37C037C10E0001BF25A8
:103F1800F66EEB0EC021F76EF86A000EF822090063
:103F2800F5CF67F00900F5CF68F00900F5CF69F023
:103F38000A00F5CF6AF09FEC4FF0000163510F0BB8
:103F48000001C86F0001C851010DB20EF324F66ECE
:103F5800FD0EF420F76EF86A000EF8220800F5CF7F
:103F6800E2F00DD00001E051C00B000AD8B474D7BC
:103F7800800AD8B4B6D7400AD8B46ED700D0B1C03A
:103F8800D9FFB2C0DAFFE2C0DFFF0001B14BB22BAC
:103F980000D00001CF07D8A0D0070001CF29E2E167
:103FA8000001D029D8B402D0DDD700D0B3C0F6FFC5
:103FB800B4C0F7FF0001B34BB42BF86A0800F5CF83
:103FC800E2F00001E251D8B403D03FEF18F000D07E
:103FD800B1C0D9FFB2C0DAFF000EDF6E12001200C6
:103FE800000E00016F6F000E706F000E716F000EF3
:103FF800726F010E000163150001676F000E00016A
:1040080064150001686F000E000165150001696FF5
:10401800000E0001661500016A6F1F0ED89000019E
:104028006737683769376A37E82EF8D7000167516C
:1040380000016F27000168510001702300016951D8
:104048000001712300016A5100017223020E000170
:1040580063150001676F000E000164150001686FA9
:10406800000E000165150001696F000E000166155C
:1040780000016A6F1D0ED8900001673768376937ED
:104088006A37E82EF8D70001675100016F27000151
:10409800685100017023000169510001712300017A
:1040A8006A5100017223040E000163150001676F55
:1040B800000E000164150001686F000E000165150F
:1040C8000001696F000E0001661500016A6F1B0E82
:1040D800D89000016737683769376A37E82EF8D70C
:1040E8000001675100016F2700016851000170232A
:1040F800000169510001712300016A510001722316
:10410800080E000163150001676F000E00016415B9
:104118000001686F000E000165150001696F000E4F
:104128000001661500016A6F190ED8900001673703
:10413800683769376A37E82EF8D7000167510001F8
:104148006F270001685100017023000169510001C7
:10415800712300016A5100017223100E00016315DA
:104168000001676F000E000164150001686F000E02
:10417800000165150001696F000E00016615000158
:104188006A6F170ED89000016737683769376A3742
:10419800E82EF8D70001675100016F270001685128
:1041A80000017023000169510001712300016A5167
:1041B80000017223200E000163150001676F000ED5
:1041C800000164150001686F000E0001651500010B
:1041D800696F000E0001661500016A6F150ED89010
:1041E80000016737683769376A37E82EF8D7000162
:1041F800675100016F270001685100017023000119
:1042080069510001712300016A5100017223400EB7
:10421800000163150001676F000E000164150001BD
:10422800686F000E000165150001696F000E00013E
:10423800661500016A6F130ED8900001673768375A
:1042480069376A37E82EF8D70001675100016F27F0
:1042580000016851000170230001695100017123B8
:1042680000016A5100017223800E000163150001EC
:10427800676F000E000164150001686F000E0001F1
:1042880065150001696F000E0001661500016A6F6F
:10429800110ED89000016737683769376A37E82EFA
:1042A800F8D70001675100016F270001685100012C
:1042B8007023000169510001712300016A51000156
:1042C8007223000E000163150001676F010E0001E3
:1042D80064150001686F000E000165150001696F23
:1042E800000E0001661500016A6F0F0ED8900001DC
:1042F8006737683769376A37E82EF8D7000167519A
:1043080000016F2700016851000170230001695105
:104318000001712300016A5100017223000E00019F
:1043280063150001676F020E000164150001686FD4
:10433800000E000165150001696F000E0001661589
:1043480000016A6F0D0ED89000016737683769372A
:104358006A37E82EF8D70001675100016F2700017E
:1043680068510001702300016951000171230001A7
:104378006A5100017223000E000163150001676F86
:10438800040E000164150001686F000E0001651538
:104398000001696F000E0001661500016A6F0B0EBF
:1043A800D89000016737683769376A37E82EF8D739
:1043B8000001675100016F27000168510001702357
:1043C800000169510001712300016A510001722343
:1043D800000E000163150001676F080E00016415E7
:1043E8000001686F000E000165150001696F000E7D
:1043F8000001661500016A6F090ED8900001673741
:10440800683769376A37E82EF8D700016751000125
:104418006F270001685100017023000169510001F4
:10442800712300016A5100017223000E0001631517
:104438000001676F100E000164150001686F000E1F
:10444800000165150001696F000E00016615000185
:104458006A6F070ED89000016737683769376A377F
:10446800E82EF8D70001675100016F270001685155
:1044780000017023000169510001712300016A5194
:1044880000017223000E000163150001676F200E02
:10449800000164150001686F000E00016515000138
:1044A800696F000E0001661500016A6F050ED8904D
:1044B80000016737683769376A37E82EF8D700018F
:1044C800675100016F270001685100017023000146
:1044D80069510001712300016A5100017223000E25
:1044E800000163150001676F400E000164150001AB
:1044F800686F000E000165150001696F000E00016C
:10450800661500016A6F030ED89000016737683797
:1045180069376A37E82EF8D70001675100016F271D
:1045280000016851000170230001695100017123E5
:1045380000016A5100017223000E00016315000199
:10454800676F800E000164150001686F000E00019E
:1045580065150001696F000E0001661500016A6F9C
:10456800D8900001673500016B6F000168350001C4
:104578006C6F0001693500016D6F00016A3500013B
:104588006E6F00016B5100016F2700016C51000133
:10459800702300016D510001712300016E5100016B
:1045A800722363C067F064C068F065C069F066C0D4
:1045B8006AF00001D8906A33693368336733000EB4
:1045C8000001671500016B6F800E0001681500017E
:1045D8006C6F000E0001691500016D6F000E00017F
:1045E8006A1500016E6F00016B5100016F27000111
:1045F8006C510001702300016D510001712300010D
:104608006E510001722363C067F064C068F065C032
:1046180069F066C06AF0040E06D00001D8906A33CB
:10462800693368336733E82EF8D7000E0001671541
:1046380000016B6F400E0001681500016C6F000EE1
:104648000001691500016D6F000E00016A15000177
:104658006E6F00016B5100016F2700016C51000162
:10466800702300016D510001712300016E5100019A
:10467800722363C067F064C068F065C069F066C003
:104688006AF0060E06D00001D8906A3369336833A1
:104698006733E82EF8D7000E0001671500016B6F2D
:1046A800200E0001681500016C6F000E00016915ED
:1046B80000016D6F000E00016A1500016E6F0001A8
:1046C8006B5100016F2700016C510001702300013C
:1046D8006D510001712300016E510001722363C006
:1046E80067F064C068F065C069F066C06AF0080EDB
:1046F80006D00001D8906A33693368336733E82EEF
:10470800F8D7000E0001671500016B6F100E00014D
:10471800681500016C6F000E0001691500016D6FCE
:10472800000E00016A1500016E6F00016B51000157
:104738006F2700016C510001702300016D510001C9
:10474800712300016E510001722363C067F064C0D9
:1047580068F065C069F066C06AF00A0E06D000010C
:10476800D8906A33693368336733E82EF8D7000E78
:104778000001671500016B6F080E00016815000144
:104788006C6F000E0001691500016D6F000E0001CD
:104798006A1500016E6F00016B5100016F2700015F
:1047A8006C510001702300016D510001712300015B
:1047B8006E510001722363C067F064C068F065C081
:1047C80069F066C06AF00C0E06D00001D8906A3312
:1047D800693368336733E82EF8D7000E0001671590
:1047E80000016B6F040E0001681500016C6F000E6C
:1047F8000001691500016D6F000E00016A150001C6
:104808006E6F00016B5100016F2700016C510001B0
:10481800702300016D510001712300016E510001E8
:10482800722363C067F064C068F065C069F066C051
:104838006AF00E0E06D00001D8906A3369336833E7
:104848006733E82EF8D7000E0001671500016B6F7B
:10485800020E0001681500016C6F000E0001691559
:1048680000016D6F000E00016A1500016E6F0001F6
:104878006B5100016F2700016C510001702300018A
:104888006D510001712300016E510001722363C054
:1048980067F064C068F065C069F066C06AF0100E21
:1048A80006D00001D8906A33693368336733E82E3D
:1048B800F8D7000E0001671500016B6F010E0001AB
:1048C800681500016C6F000E0001691500016D6F1D
:1048D800000E00016A1500016E6F00016B510001A6
:1048E8006F2700016C510001702300016D51000118
:1048F800712300016E510001722363C067F064C028
:1049080068F065C069F066C06AF0120E06D0000152
:10491800D8906A33693368336733E82EF8D7800E46
:104928000001671500016B6F000E0001681500019A
:104938006C6F000E0001691500016D6F000E00011B
:104948006A1500016E6F00016B5100016F270001AD
:104958006C510001702300016D51000171230001A9
:104968006E510001722363C067F064C068F065C0CF
:1049780069F066C06AF0140E06D00001D8906A3358
:10498800693368336733E82EF8D7400E000167159E
:1049980000016B6F000E0001681500016C6F000EBE
:1049A8000001691500016D6F000E00016A15000114
:1049B8006E6F00016B5100016F2700016C510001FF
:1049C800702300016D510001712300016E51000137
:1049D800722363C067F064C068F065C069F066C0A0
:1049E8006AF0160E06D00001D8906A33693368332E
:1049F8006733E82EF8D7200E0001671500016B6FAA
:104A0800000E0001681500016C6F000E00016915A9
:104A180000016D6F000E00016A1500016E6F000144
:104A28006B5100016F2700016C51000170230001D8
:104A38006D510001712300016E510001722363C0A2
:104A480067F064C068F065C069F066C06AF0180E67
:104A580006D00001D8906A33693368336733E82E8B
:104A6800F8D7100E0001671500016B6F000E0001EA
:104A7800681500016C6F000E0001691500016D6F6B
:104A8800000E00016A1500016E6F00016B510001F4
:104A98006F2700016C510001702300016D51000166
:104AA800712300016E510001722363C067F064C076
:104AB80068F065C069F066C06AF01A0E06D0000199
:104AC800D8906A33693368336733E82EF8D7080E0D
:104AD8000001671500016B6F000E000168150001E9
:104AE8006C6F000E0001691500016D6F000E00016A
:104AF8006A1500016E6F00016B5100016F270001FC
:104B08006C510001702300016D51000171230001F7
:104B18006E510001722363C067F064C068F065C01D
:104B280069F066C06AF01C0E06D00001D8906A339E
:104B3800693368336733E82EF8D7040E0001671528
:104B480000016B6F000E0001681500016C6F000E0C
:104B58000001691500016D6F000E00016A15000162
:104B68006E6F00016B5100016F2700016C5100014D
:104B7800702300016D510001712300016E51000185
:104B8800722363C067F064C068F065C069F066C0EE
:104B98006AF01E0E06D00001D8906A336933683374
:104BA8006733E82EF8D7020E0001671500016B6F16
:104BB800000E0001681500016C6F000E00016915F8
:104BC80000016D6F000E00016A1500016E6F000193
:104BD8006B5100016F2700016C5100017023000127
:104BE8006D510001712300016E5100017223000E06
:104BF800000163150001676F000E000164150001D4
:104C0800686F000E000165150001696F800E0001D4
:104C1800661500016A6F200E06D00001D8906A332D
:104C2800693368336733E82EF8D70001675100010C
:104C38006F270001685100017023000169510001CC
:104C4800712300016A51000172236FC063F070C0C4
:104C580064F071C065F072C066F0120012000101C4
:104C6800B76F010E0101B96F000E0101BA6F000E96
:104C78000101B86F010E0101B66F840E0001636F68
:104C8800010E0001646F000E0001666F320E656F41
:104C9800CDEC55F06F0E0001636F010E0001646FDB
:104CA800000E0001666F150E656FCDEC55F0330EE2
:104CB8000001636F010E0001646F000E0001666F52
:104CC8001E0E656FCDEC55F0510E0001636F010E9D
:104CD8000001646F000E0001666F1E0E656FCDEC5B
:104CE80055F09CEC44F00009D8A402D0000E120044
:104CF800000E0001636F040E0001646F44C065F08C
:104D08000001666BCDEC55F0000E446EF9EC59F0DD
:104D18009E9A9D8AFB0E00016E6FFF0E00016F6F59
:104D28007FEC58F0500E0001636FC30E646F000EE5
:104D3800656F000E666F26EC56F09D9A000E010115
:104D4800BA6F3B0E0101BA6501D07AD00101B605F0
:104D5800D8A437D00101BA51010D000EF324D96E41
:104D6800040EF420DA6E0A0EDE18D8B40DD0010154
:104D7800BA51010D000EF324D96E040EF420DA6E38
:104D88000D0EDE18D8A404D0000E0101B66F55D060
:104D98001D0E0101BA6151D00101BA51010D000E79
:104DA800F324D96E040EF420DA6E0101BA51010D14
:104DB800330EF324E16E010EF420E26EDFCFE7FF3D
:104DC8003CD00101BA51010D000EF324D96E040E36
:104DD800F420DA6E0A0EDE18D8B429D00101BA51CF
:104DE800010D000EF324D96E040EF420DA6E0D0EB8
:104DF800DE18D8B41CD01D0E0101B86115D0010110
:104E0800BA51010D000EF324D96E040EF420DA6EA7
:104E18000101B851010D510EF324E16E010EF42089
:104E2800E26EDFCFE7FF00D00101B82B06D0020EFB
:104E38000101B86502D004D000D00101BA2B81D796
:104E4800010133510101D8B405D0010151510101CB
:104E5800D8A404D0000E0101B96F42D0C80E0001D9
:104E6800636F040E0001646F000E0001666F1E0E72
:104E7800656FCDEC55F0320E0001636F050E000131
:104E8800646F000E0001666F1E0E656FCDEC55F065
:104E9800330E00016B6F010E00016C6FC80E00012C
:104EA8006D6F040E00016E6F1E0E00016F6F000E15
:104EB8000001706F82EC53F0510E00016B6F010E10
:104EC80000016C6F320E00016D6F050E00016E6FF0
:104ED8001E0E00016F6F000E0001706F82EC53F020
:104EE800000E0001636F040E0001646F44C065F09A
:104EF8000001666BCDEC55F0000E446E0101B75110
:104F08000101D8B456D00101B9510101D8B4BCD0BF
:104F1800840E0001B16F010E0001B26FFD0E000199
:104F2800B36FFA0E0001B46FD0C2B5F0D1C2B6F0BB
:104F3800D2C2B7F0D3C2B8F037EC18F0F9EC59F098
:104F48009E9A9D8A840E00016D6F010E00016E6F9E
:104F580050EC59F0500E0001636FC30E646F000EE1
:104F6800656F000E666F26EC56F09D9A840E000160
:104F7800B16F010E0001B26FF40E0001B36FFF0EA6
:104F88000001B46F37EC18F0000E0001636F040ED7
:104F98000001646F840E0001656F010E0001666FE9
:104FA80043EC47F00009D8A46FD0000E0101B96F97
:104FB8006BD00101B9510101D8B466D00401FA518E
:104FC800D8A45ED0E60E00016B6F040E00016C6F72
:104FD8006F0E00016D6F010E00016E6F150E00015E
:104FE8006F6F000E0001706F82EC53F0840E0001A9
:104FF800B16F010E0001B26F8B0E0001B36FFF0E8F
:105008000001B46F6F0E0001B56F010E0001B66F9D
:1050180037EC18F0F9EC59F09E9A9D8A840E00013D
:105028006D6F010E00016E6F50EC59F0500E0001CB
:10503800636FC30E646F000E656F000E666F26EC1B
:1050480056F09D9A840E0001B16F010E0001B26FF7
:10505800F40E0001B36FFF0E0001B46F37EC18F0C7
:10506800000E0001636F040E0001646F840E0001DE
:10507800656F010E0001666F43EC47F093D704D0CB
:10508800000E0101B96F00D0000E0001636F040E1D
:105098000001646F44C065F00001666BCDEC55F00B
:1050A800000E446E0101B9510101D8B42DD0F9ECBC
:1050B80059F09E9A9D8A610E00016E6FFF0E0001E5
:1050C8006F6F7FEC58F0500E0001636FC30E646F72
:1050D800000E656F000E666F26EC56F09D9A000E66
:1050E8000001636F040E0001646F840E0001656F98
:1050F800010E0001666F43EC47F00009D8A404D004
:10510800000E0101B96F00D0000E0001636F040E9C
:105118000001646F44C065F00001666BCDEC55F08A
:10512800000E446E0101B9510101D8B42DD0F9EC3B
:1051380059F09E9A9D8A920E00016E6FFC0E000136
:105148006F6F7FEC58F0500E0001636FC30E646FF1
:10515800000E656F000E666F26EC56F09D9A000EE5
:105168000001636F040E0001646F840E0001656F17
:10517800010E0001666F43EC47F00009D8A404D083
:10518800000E0101B96F00D0000E0001636F040E1C
:105198000001646F44C065F00001666BCDEC55F00A
:1051A800000E446E0101B9510101D8B42DD0F9ECBB
:1051B80059F09E9A9D8A580E00016E6FFF0E0001ED
:1051C8006F6F7FEC58F0500E0001636FC30E646F71
:1051D800000E656F000E666F26EC56F09D9A000E65
:1051E8000001636F040E0001646F840E0001656F97
:1051F800010E0001666F43EC47F00009D8A404D003
:10520800000E0101B96F00D0000E0001636F040E9B
:105218000001646F44C065F00001666BCDEC55F089
:10522800000E446E0101B9510101D8B42DD0F9EC3A
:1052380059F09E9A9D8AAE0E00016E6FFF0E000116
:105248006F6F7FEC58F0500E0001636FC30E646FF0
:10525800000E656F000E666F26EC56F09D9A000EE4
:105268000001636F040E0001646F840E0001656F16
:10527800010E0001666F43EC47F00009D8A404D082
:10528800000E0101B96F00D0000E0001636F040E1B
:105298000001646F44C065F00001666BCDEC55F009
:1052A800000E446E0101B9510101D8B46AD0F9EC7D
:1052B80059F09E9A9D8AF80E00016E6FFF0E00014C
:1052C8006F6F7FEC58F0500E0001636FC30E646F70
:1052D800000E656F000E666F26EC56F09D9A010170
:1052E800B7510101D8B417D0840E0001B16F010E77
:1052F8000001B26F3F0E0001B36FFA0E0001B46FE8
:10530800D0C2B5F0D1C2B6F0D2C2B7F0D3C2B8F0AD
:1053180037EC18F014D0840E0001B16F010E0001B3
:10532800B26FE10E0001B36FFE0E0001B46F6F0E95
:105338000001B56F010E0001B66F37EC18F0000ED2
:105348000001666F040E0001676F840E0001686F2C
:10535800010E0001696FF6EC3FF00009D8A411D0E6
:105368000201D0290AE10201D12907E10201D2296B
:1053780004E10201D329D8B404D0000E0101B96FA9
:1053880000D0000E0001636F040E0001646F44C07A
:1053980065F00001666BCDEC55F0000E446EF9EC3B
:1053A80059F09E9A9D8ACC0E00016E6FFF0E000187
:1053B8006F6F7FEC58F0500E0001636FC30E646F7F
:1053C800000E656F000E666F26EC56F0840E000125
:1053D800B16F010E0001B26FF00E0001B36FFF0E46
:1053E8000001B46F37EC18F09D9A000E0001636F4E
:1053F800040E0001646F840E0001656F010E000148
:10540800666F43EC47F00009D8A404D0000E0101F0
:10541800B96F00D0000E0001636F040E0001646FC5
:1054280044C065F00001666BCDEC55F0000E446E8B
:105438000101B9510101D8B402D0010E1200000EC9
:1054480012001200EACF35F0E1CF36F0E2CF37F0A4
:10545800D9CF38F0DACF39F0F3CF3AF0F4CF3BF0C8
:10546800F6CF3CF0F7CF3DF0F8CF3EF0F5CF3FF068
:10547800F29EF2A08BD000F000F0000E0301F16F55
:10548800000EF26F000EF36F000EF46F4BEC5AF043
:105498000001606F4D5000016019D8B471D0D58EED
:1054A800F28A130E596E000E0301F06FD6CF61F029
:1054B8000001626BD75000016227640E0001F86199
:1054C8005AD00001F851D8B44CD0650E0001F861EB
:1054D80048D0FE0E2E6EFF0E2F6E0001F851306E72
:1054E800316AD890303631362E5030262F5031223E
:1054F800000E3024D96E060E3120DA6E61C0DEFF50
:1055080062C0DDFF090E0001615D520E00016259A3
:10551800D8B00CD0380E0001615D4A0E0001625906
:10552800D8A004D07D98F296F2841ED0510E0001C6
:10553800615DC30E00016259D8B010D0C80E0001D9
:10554800615DAF0E00016259D8A008D07D98F2962F
:105558008F0E216E206866EC5AF006D061EC5AF086
:1055680003D061EC5AF000D0650E0001F86105D057
:105578000001F82B02D07D98F29660C04DF002D061
:1055880000F000D04BEC5AF0F29050D2F2A432D096
:10559800F29AD59E030E0001F8650ED0000E206E1B
:1055A800060E216EEC0E226E030E236E010E246E83
:1055B80035EC37F00301F06F000E206E060E216EF9
:1055C800000E236E640E226E2CEC57F0000E0001C4
:1055D800F86F0301F051D8A409D04BEC5AF04BEC0A
:1055E8005AF04D6EF2907D88F28600D00D0E596EFD
:1055F800F2941CD29EA207D2542A370E5818D8A467
:1056080030D10001FE51545CD8A025D1000E546E53
:105618005150010D8C0EF324D96E020EF420DA6E6F
:10562800630EDE18D8B4CDD00001FB51D8B413D125
:105638005150010D8C0EF324D96E020EF420DA6E4F
:10564800DF50D8A44AD00001F905D8A42BD0000116
:10565800FA05D8A407D088D0080ECB6E87D0000EE4
:10566800CC6EF9D0020E0001FA19D8A405D086D064
:1056780048D00001FA2BEFD0030E0001FA19D8A484
:1056880002D072D0E9D7040E0001FA19D8A404D0C8
:105698008B9A180E5CD01AD0CA948ED0000E0001D6
:1056A800FB6FD9D0020E0001F919D8A4F5D7000173
:1056B800FA05D8A403D08B8A0B0ECFD7020E0001AF
:1056C800FA19D8A4E9D78B9A1D0E41D0010E000112
:1056D800FA6F512AC0D070D0BED05150010D8C0E37
:1056E800F324D96E020EF420DA6EDE04D8A434D086
:1056F8000001F905D8A418D00001FA05D8A404D0EF
:1057080045D0180ECB6EB5D7020E0001FA19D8A4F1
:1057180038D08B9AA1D735D0F4D7ABD73AD0080E6A
:10572800CB6E3ED09CD797D0020E0001F919D8A4B1
:10573800B3D70001FA05D8A403D08B8A1D0E8DD7E4
:10574800020E0001FA19D8A404D08B9A0B0ECB6E66
:10575800BDD7CA9431D07FD00001F905D8A426D08E
:105768000001FA05D8A405D08B8A76D70001FA2B58
:1057780076D7020E0001FA19D8A403D08B9AC1D7A4
:1057880078D7030E0001FA19D8A403D08B8AB9D7A9
:1057980070D7040E0001FA19D8A47ED78B9ABFD708
:1057A800010E0001FA6F512A5AD755D0020E000196
:1057B800F919D8A471D770D7010E0001FF6F6ED701
:1057C8004AD00001FA05D8A418D00001F905D8A4D8
:1057D80003D08B8A080E07D0020E0001F919D8A44D
:1057E80004D08B9A0B0ECB6E05D0CA94010E000123
:1057F800FF6F00D0000ECC6E3CD7020E0001FA19E4
:10580800D8A420D00001F905D8A403D08B9AFA0EA9
:1058180006D0020E0001F919D8A403D0950ECB6E5C
:1058280005D0CA94010E0001FF6F00D00001FA2BC9
:1058380052065250D8B40FD0010E0001FA6F000E74
:10584800516E09D06BEC5AF0A192000E556EB180E2
:10585800CA9424D700D00001FB51D8B4D2D0CA844E
:10586800D0D00001FE51545CD8A0CBD0000E546EAD
:10587800070E0001FD19D8A40FD0200E0001FC6FFF
:10588800000E4C6E8B96080E0001FD6F040E000191
:10589800FE6F4B0ECB6EB5D0080E0001FD19D8B4C3
:1058A80005D00A0E0001FD19D8A411D0010E4C6EC6
:1058B800010E0001FE6F4050010B4A6ED890433232
:1058C800423241324032260ECB6E090E84D0090E88
:1058D8000001FD19D8A419D0000E4C6E8B96010E4C
:1058E8000001FE6F4A50D8B402D0710E01D0260EC6
:1058F800CB6E00D00001FC070001FC51D8A402D0F7
:105908000B0E69D00A0E67D07CD00B0E0001FD1972
:10591800D8A406D0010E4C6E260ECB6E0C0E5BD0B2
:105928000C0E0001FD19D8A412D0000E4C6E8B96F7
:105938004F50D8A404D00D0E0001FD6F5FD00B0EA0
:105948000001FE6FF20ECB6E0E0E45D05AD00E0E31
:105958000001FD19D8B405D0120E0001FD19D8A414
:1059680009D0010E4C6E040E0001FE6F960ECB6E30
:105978000F0E31D00F0E0001FD19D8A40AD0000E69
:105988004C6E8B96010E0001FE6F950ECB6E100EBD
:1059980022D0100E0001FD19D8A409D0010E4C6EBA
:1059A800010E0001FE6F260ECB6E110E14D0110EE3
:1059B8000001FD19D8A412D0000E4C6E8B961A0E59
:1059C8000001FE6FF60ECB6E4E064E50D8B402D0D4
:1059D800120E01D00D0E0001FD6F13D00D0E000147
:1059E800FD19D8A405D00AD0010E0001FF6F09D017
:1059F800000E4C6E8B96000E0001FD6FCA94F4D712
:105A080000D09E9213D0A1A20FD0B190030E556082
:105A180005D06BEC5AF0B180552A04D0010E000174
:105A2800FF6F00D0A19202D000F000D0F28E3FC0EC
:105A3800F5FF3EC0F8FF3DC0F7FF3CC0F6FF3BC096
:105A4800F4FF3AC0F3FF39C0DAFF38C0D9FF37C0D6
:105A5800E2FF36C0E1FF35C0EAFF34C0E9FF33C0DA
:105A6800FBFF32C0FAFF1100000E0301E36F000EC6
:105A78000301DD6F000E0301DE6F010E0301E46F09
:105A8800000E0301DF6F000E0001636F030E0001BB
:105A9800646F000E0001666F640E656FCDEC55F003
:105AA800640E0001636F030E0001646F000E0001B5
:105AB800666F640E656FCDEC55F0C80E0001636F1C
:105AC800030E0001646F000E0001666F150E656F0E
:105AD800CDEC55F076EC5AF0E9EC56F06AEC42F071
