:04000000F9EF00F024
:10000800FACF6BF0FBCF6CF0E9CF6DF096EF1EF0F6
:10001800D8CF09F0E8CF0AF0E0CF0BF0FACF0CF018
:10002800FBCF0DF0E9CF0EF0EACF0FF0E1CF10F0E3
:10003800E2CF11F0D9CF12F0DACF13F0F3CF14F0EA
:10004800F4CF15F0F6CF16F0F7CF17F0F8CF18F079
:10005800F5CF19F0000E1A6EF29C9EAA93D007EC09
:100068004AF01A6E78EC4AF00009D8A40FD0262876
:10007800D8B486D02650010D000EF324D96E050E93
:10008800F420DA6E1AC0DFFF262A7AD00D0E1A186D
:10009800D8B463D00A0E1A18D8B45FD07F0E1A18D5
:1000A800D8B404D0080E1A18D8A41FD00001E05103
:1000B800D8B41BD00001E0298DEC49F00001E0071D
:1000C8000001E051010D000EF324D96E060EF42054
:1000D800DA6E000EDF6E3E0EE5EC49F0000E026EA1
:1000E800060E036EF1EC46F04BD00001E029D8B4BF
:1000F8001BD00001DF51D8A443D01A50D9EC49F0E5
:100108000009D8B43DD01A50E5EC49F00001E0519F
:10011800010D000EF324D96E060EF420DA6E1AC013
:10012800DFFF0001E02B2CD0000E016E060E026EE0
:10013800000E046E036891EC48F0000E0001E06FB9
:10014800D10E026EF30E036EF1EC46F0770E046EDC
:10015800FE0E056E36EC46F013D00001E051D8B41F
:100168000FD00001DF51D8A40BD09D9AD10E026E9A
:10017800F30E036EF1EC46F0010E0001DF6F00D0C4
:100188009E9A0FD09EA00BD0382A030E3818D8A4F8
:1001980004D08B948B92CD9000D09E9002D000F02A
:1001A80000D0F28C19C0F5FF18C0F8FF17C0F7FF90
:1001B80016C0F6FF15C0F4FF14C0F3FF13C0DAFF32
:1001C80012C0D9FF11C0E2FF10C0E1FF0FC0EAFF63
:1001D8000EC0E9FF0DC0FBFF0CC0FAFF0BC0E0FF2B
:1001E8000AC0E8FF09C0D8FF1000B1EF3FF0010EC8
:1001F8000201896F000E0201856F000E866F000EE6
:10020800876F000E886F000E02018C6F000E0201CE
:100218008D6F000E02018E6F000E8F6F000E906FB3
:10022800000E916F000E02017E6F000E7F6F000EB0
:10023800806F000E816F000E0201826F000E0201B6
:10024800846F000E0201836F000E02017D6F0F0E96
:100258000001796F020E00017A6F000E00017C6FB9
:10026800640E7B6F97EC46F0730E0001796F020EF7
:1002780000017A6F000E00017C6F0A0E7B6F97EC0D
:1002880046F000C27CF001C27DF0C60E00017E6F10
:10029800FF0E00017F6F5AEC3AF00009D8B483D002
:1002A80000C27CF001C27DF05C0E00017E6FF30E8F
:1002B80000017F6F15EC43F00009D8B412D0970EF7
:1002C8000001816FF30E0001826F010E0001836F40
:1002D8000C0E0001846F080E0001856F72EC48F067
:1002E80054D000C27CF001C27DF06B0E00017E6F1D
:1002F800F30E00017F6F15EC43F00009D8B412D05B
:10030800A30E0001816FF30E0001826F010E000140
:10031800836F0C0E0001846F080E0001856F72EC6C
:1003280048F033D000C27CF001C27DF07A0E0001A3
:100338007E6FF30E00017F6F15EC43F00009D8B40F
:1003480012D0AF0E0001816FF30E0001826F010E13
:100358000001836F0C0E0001846F080E0001856F89
:1003680072EC48F012D0890E00017A6FF30E00018A
:100378007B6FC4EC46F0D10E00017A6FF30E0001DA
:100388007B6FC4EC46F0120000D0020189510201D3
:10039800D8B412002A0E00017C6FFB0E00017D6F9D
:1003A80069EC45F0120000C27CF001C27DF0CC0E71
:1003B80000017E6FFF0E00017F6F5AEC3AF00009D2
:1003C800D8B46AD100C27CF001C27DF0980E000159
:1003D8007E6FF20E00017F6F15EC43F00009D8B470
:1003E80012D0CC0E0001816FF20E0001826F020E56
:1003F8000001836F100E0001846F080E0001856FE5
:1004080072EC48F03BD100C27CF001C27DF0720E64
:1004180000017E6FF20E00017F6F15EC43F00009BA
:10042800D8B412D0BC0E0001816FF20E0001826FA9
:10043800020E0001836F100E0001846F080E000188
:10044800856F72EC48F01AD100C27CF001C27DF0D1
:10045800AA0E00017E6FF20E00017F6F15EC43F0CB
:100468000009D8B412D0EC0E0001816FF20E000121
:10047800826F020E0001836F100E0001846F080E58
:100488000001856F72EC48F0F9D000C27CF001C21F
:100498007DF0850E00017E6FF20E00017F6F15EC76
:1004A80043F00009D8B412D0DC0E0001816FF20EBF
:1004B8000001826F020E0001836F100E0001846F2D
:1004C800080E0001856F72EC48F0D8D000C27CF0AD
:1004D80001C27DF0360E00017E6FF20E00017F6FC3
:1004E80015EC43F00009D8B412D00C0E0001816F4E
:1004F800F30E0001826F020E0001836F100E0001DF
:10050800846F080E0001856F72EC48F0B7D000C206
:100518007CF001C27DF0F70E00017E6FF10E000144
:100528007F6F15EC43F00009D8B412D0FC0E00011F
:10053800816FF20E0001826F020E0001836F100EB0
:100548000001846F080E0001856F72EC48F096D0A8
:1005580000C27CF001C27DF04A0E00017E6FF20EEF
:1005680000017F6F15EC43F00009D8B412D02C0EAF
:100578000001816FF30E0001826F020E0001836F8C
:10058800100E0001846F080E0001856F72EC48F0B0
:1005980075D000C27CF001C27DF00C0E00017E6FA8
:1005A800F20E00017F6F15EC43F00009D8B412D0A9
:1005B8001C0E0001816FF30E0001826F020E000114
:1005C800836F100E0001846F080E0001856F72ECB6
:1005D80048F054D000C27CF001C27DF05E0E0001EC
:1005E8007E6FF20E00017F6F15EC43F00009D8B45E
:1005F80012D04C0E0001816FF30E0001826F020EC3
:100608000001836F100E0001846F080E0001856FD2
:1006180072EC48F033D000C27CF001C27DF0210EAC
:1006280000017E6FF20E00017F6F15EC43F00009A8
:10063800D8B412D01C0E0001816FF30E0001826F36
:10064800030E0001836F100E0001846F080E000175
:10065800856F72EC48F012D0890E00017A6FF30EA4
:1006680000017B6FC4EC46F0D10E00017A6FF30EE7
:1006780000017B6FC4EC46F0120000D002018951E2
:100688000201D8B41200470E00017C6FFB0E000176
:100698007D6F69EC45F0120000C27CF001C27DF06C
:1006A800EF0E00017E6FFF0E00017F6F5AEC3AF0EB
:1006B8000009D8B4E0D100C285F001C286F0020E6C
:1006C8000001876F8E0E0001886F020E0001896F8E
:1006D800ECEC23F00009D8A4C9D002019151020121
:1006E800901104E102018F05D8A011D0150E000168
:1006F8007C6FFA0E00017D6F69EC45F0D10E0001A8
:100708007A6FF30E00017B6FC4EC46F012008EC2C4
:100718008DF200C285F001C286F0010E0001876FDC
:100728008E0E0001886F020E0001896FECEC23F039
:100738000009D8A492D0020191510201901104E15C
:1007480002018F05D8A011D0340E00017C6FFA0E7B
:1007580000017D6F69EC45F0D10E00017A6FF30E50
:1007680000017B6FC4EC46F012008EC28CF20F0EB3
:100778000001C76F020E0001C86FD70E0001C96FD4
:10078800FC0E0001CA6F8CC2CBF00001CC6BB5EC3B
:1007980010F00F0E00017C6F020E00017D6F69ECF6
:1007A80045F00F0E0001C76F020E0001C86FC20EA0
:1007B8000001C96FFC0E0001CA6F8DC2CBF00001A9
:1007C800CC6BB5EC10F00F0E00017C6F020E00012F
:1007D8007D6F69EC45F08DC27DF002018C511FECF4
:1007E80039F07DC085F27EC086F27FC087F280C076
:1007F80088F285C28EF086C28FF087C290F088C2D8
:1008080091F0000E0001926FC6EC42F00F0E00014D
:10081800C76F020E0001C86F530E0001C96FFC0EAE
:100828000001CA6F85C2CBF086C2CCF087C2CDF07A
:1008380088C2CEF0B5EC10F00F0E00017C6F020EEE
:1008480000017D6F69EC45F0D10E00017A6FF30E5F
:1008580000017B6FC4EC46F01200F50E00017C6FBE
:10086800F90E00017D6F69EC45F0120000C285F0B9
:1008780001C286F0010E0001876F850E0001886FA6
:10088800020E0001896FECEC23F00009D8A48AD08D
:1008980085C28EF086C28FF087C290F088C291F030
:1008A800000E0001926FC6EC42F00F0E0001C76FF8
:1008B800020E0001C86F530E0001C96FFD0E000142
:1008C800CA6F85C2CBF086C2CCF087C2CDF088C291
:1008D800CEF0B5EC10F00F0E00017C6F020E000197
:1008E8007D6F69EC45F085C27DF086C27EF087C2D7
:1008F8007FF088C280F08C0E0001816F020E00012B
:10090800826F8D0E0001836F020E0001846F7BECF5
:1009180041F00009D8B435D00F0E0001C76F020EA0
:100928000001C86FDB0E0001C96FFC0E0001CA6F21
:100938008CC2CBF00001CC6BB5EC10F00F0E0001AF
:100948007C6F020E00017D6F69EC45F00F0E00010F
:10095800C76F020E0001C86FC30E0001C96FF70E02
:100968000001CA6F8DC2CBF00001CC6BB5EC10F062
:100978000F0E00017C6F020E00017D6F69EC45F0DF
:1009880008D0340E00017C6FF90E00017D6F69EC10
:1009980045F0D10E00017A6FF30E00017B6FC4ECB5
:1009A80046F01200D10E00017A6FF30E00017B6F42
:1009B800C4EC46F0EE0E00017C6FFA0E00017D6F6C
:1009C80069EC45F0D10E00017A6FF30E00017B6FE0
:1009D800C4EC46F0B20E00017C6FFF0E00017D6F83
:1009E80069EC45F02B0E00017C6FFD0E00017D6F58
:1009F80069EC45F0690E00017C6FFF0E00017D6F08
:100A080069EC45F0970E00017C6FFC0E00017D6FCC
:100A180069EC45F0D10E00017A6FF30E00017B6F8F
:100A2800C4EC46F0910E00017C6FFF0E00017D6F53
:100A380069EC45F0EE0E00017C6FFD0E00017D6F44
:100A480069EC45F06B0E00017C6FFF0E00017D6FB5
:100A580069EC45F0460E00017C6FFE0E00017D6FCB
:100A680069EC45F0D10E00017A6FF30E00017B6F3F
:100A7800C4EC46F0120000C27CF001C27DF01A0EF0
:100A880000017E6FFF0E00017F6F5AEC3AF00009FB
:100A9800D8B4C8D200C288F001C289F01EEC31F087
:100AA8000009D8B466D20201022B00C285F001C247
:100AB80086F0010E0001876F8E0E0001886F020E0E
:100AC8000001896FECEC23F00009D8A452D202018E
:100AD80091510201901102018F1104E1150E0201DA
:100AE8008E5DD8B02CD202018E5102018F11020105
:100AF800901102019111D8B422D200C27CF001C237
:100B08007DF08B0E00017E6FFD0E00017F6F5AECA9
:100B18003AF00009D8A423D1FE0E0201036FFF0E9C
:100B28000201046F8EC205F28FC206F2D89002014C
:100B38000537063702010351020105270201045156
:100B480002010623000E0201076F040E0201086F5E
:100B5800050E02010727000E0823020105510201B4
:100B680007270201065102010823010E0201072589
:100B7800D96E000E02010821DA6EDF5000017D6F88
:100B8800FE0E0201096FFF0E02010A6F8EC20BF200
:100B98008FC20CF2D89002010B370C3702010951B1
:100BA80002010B2702010A5102010C23050E020162
:100BB8000B25D96E040E02010C21DA6EDF501FECF2
:100BC80039F07DC07EF27EC07FF27FC080F280C0A7
:100BD80081F202017E2908E10201802902017F11C8
:100BE80002018111D8B4A9D07EC28EF07FC28FF0E5
:100BF80080C290F081C291F0000E0001926FC6ECA5
:100C080042F00F0E0001C76F020E0001C86FEC0E14
:100C18000001C96FFC0E0001CA6F7EC2CBF07FC213
:100C2800CCF080C2CDF081C2CEF0B5EC10F00F0E42
:100C380000017C6F020E00017D6F69EC45F00F0E1C
:100C48000001C76F020E0001C86FA80E0001C96F2E
:100C5800F70E0001CA6FFE0E0201036FFF0E0201BC
:100C6800046F8EC205F28FC206F2D89002010537D2
:100C7800063702010351020105270201045102014E
:100C88000623050E02010525D96E040E0201062170
:100C9800DA6EDF500201076F020107510001CB6FC6
:100CA800CC6BFE0E0201086FFF0E0201096F8EC2A7
:100CB8000AF28FC20BF2D89002010A370B370201F1
:100CC800085102010A270201095102010B23000EF3
:100CD80002010C6F040E02010D6F050E02010C27B4
:100CE800000E0D2302010A5102010C2702010B51CB
:100CF80002010D23010E02010C25D96E000E02011E
:100D08000D21DA6EDF5002010E6F02010E51000153
:100D1800CD6FCE6BB5EC10F00F0E00017C6F020E9C
:100D280000017D6F69EC45F0D10E00017A6FF30E7A
:100D380000017B6FC4EC46F01200D10E00017A6FFF
:100D4800F30E00017B6FC4EC46F0090E00017C6FC6
:100D5800F60E00017D6F69EC45F012000AD15FECD8
:100D680043F00009D8B4120001D01200E1C07DF0B0
:100D7800E2C07EF0E3C07FF0E4C080F08C0E00019A
:100D8800816F020E0001826F8D0E0001836F020ECB
:100D98000001846F7BEC41F0FE0E0201036FFF0E31
:100DA8000201046F8EC205F28FC206F2D8900201CA
:100DB80005370637020103510201052702010451D4
:100DC80002010623050E02010525D96E040E020153
:100DD8000621DA6E8CC2DFFFFE0E0201036FFF0EE2
:100DE8000201046F8EC205F28FC206F2D89002018A
:100DF8000537063702010351020105270201045194
:100E080002010623000E0201076F040E0201086F9B
:100E1800050E02010727000E0823020105510201F1
:100E280007270201065102010823010E02010725C6
:100E3800D96E000E02010821DA6E8DC2DFFFE9ECDF
:100E480047F0D10E00017A6FF30E00017B6FC4ECFE
:100E580046F00F0E0001C76F020E0001C86F380E72
:100E68000001C96FF60E0001CA6F8EC2CBF08FC2A7
:100E7800CCF090C2CDF091C2CEF0E1C0CFF0E2C08C
:100E8800D0F0E3C0D1F0E4C0D2F0B5EC10F00F0E12
:100E980000017C6F020E00017D6F69EC45F00F0EBA
:100EA8000001C76F020E0001C86FA80E0001C96FCC
:100EB800F70E0001CA6F8CC2CBF00001CC6B8DC25B
:100EC800CDF00001CE6BB5EC10F00F0E00017C6F79
:100ED800020E00017D6F69EC45F0D10E00017A6FBA
:100EE800F30E00017B6FC4EC46F0000E0201926F16
:100EF800090E0201926502D0120012008B84500E76
:100F08000001796FC30E7A6F000E7B6F000E7C6F45
:100F180048EC47F08B94500E0001796FC30E7A6F3E
:100F2800000E7B6F000E7C6F48EC47F00201922B9D
:100F3800090E02019265E2D7120012001AD0D10EF2
:100F480000017A6FF30E00017B6FC4EC46F0C80E07
:100F580000017C6FF80E00017D6F69EC45F0D10E41
:100F680000017A6FF30E00017B6FC4EC46F01200AB
:100F780000D0D10E00017A6FF30E00017B6FC4EC34
:100F880046F0110E00017C6FF90E00017D6F69ECCF
:100F980045F0D10E00017A6FF30E00017B6FC4ECAF
:100FA80046F0B20E00017C6FFF0E00017D6F69EC08
:100FB80045F0570E00017C6FFE0E00017D6F69EC55
:100FC80045F07B0E00017C6FFD0E00017D6F69EC22
:100FD80045F0D10E00017A6FF30E00017B6FC4EC6F
:100FE80046F0910E00017C6FFF0E00017D6F69ECE9
:100FF80045F0960E00017C6FFE0E00017D6F69ECD6
:1010080045F0000E00017C6FFE0E00017D6F69EC5B
:1010180045F0D10E00017A6FF30E00017B6FC4EC2E
:1010280046F0120000C27CF001C27DF0B90E00014A
:101038007E6FFF0E00017F6F5AEC3AF00009D8A4CA
:1010480010D000C27CF001C27DF09A0E00017E6FC4
:10105800FF0E00017F6F5AEC3AF00009D8B4A1EFF7
:101068000CF000C27CF001C27DF0B90E00017E6F69
:10107800FF0E00017F6F5AEC3AF00009D8B402D095
:10108800010E01D0000E02017D6F00D000C288F071
:1010980001C289F01EEC31F00009D8A411D07E0EEF
:1010A80000017C6FF80E00017D6F69EC45F0D10EF0
:1010B80000017A6FF30E00017B6FC4EC46F012005A
:1010C8000201022BD10E00017A6FF30E00017B6F33
:1010D800C4EC46F000C285F001C286F0010E0001A2
:1010E800876F8E0E0001886F020E0001896FECEC8D
:1010F80023F00009D8A403D08EC28BF211D07E0E43
:1011080000017C6FF80E00017D6F69EC45F0D10E8F
:1011180000017A6FF30E00017B6FC4EC46F01200F9
:1011280002018B510201D8B405D0020E02018B6571
:1011380012D000D0A30E00017C6FF80E00017D6F65
:1011480069EC45F0D10E00017A6FF30E00017B6F58
:10115800C4EC46F0120000C279F001C27AF0010E28
:1011680000017B6F730E00017C6F020E00017D6F22
:101178000CEC3CF00009D8B411D0B00E00017C6F23
:10118800FA0E00017D6F69EC45F0D10E00017A6F0F
:10119800F30E00017B6FC4EC46F01200730E0001E1
:1011A800796F020E00017A6F2FEC48F0020174513A
:1011B800D8B405D0200E02017419D8A4ADD3000EFE
:1011C8000201746F02018B05D8A415D0C90E000165
:1011D8007C6FF30E00017D6F730E00017E6F020EAF
:1011E80000017F6F5AEC3AF00009D8A419D0000E1C
:1011F8000201896F15D0020E02018B19D8A410D0F4
:10120800CD0E00017C6FF30E00017D6F730E00019F
:101218007E6F020E00017F6F5AEC3AF0E5D700D0DE
:10122800020189510201D8A411D0CF0E00017C6FB0
:10123800FA0E00017D6F69EC45F0D10E00017A6F5E
:10124800F30E00017B6FC4EC46F0120002018B051F
:10125800D8A417D0640E02017319D8A402D0000EC6
:10126800B9D0650E02017319D8A402D0010EB2D00C
:10127800660E02017319D8A41200020EABD0120038
:10128800AED0020E02018B19D8A4A9D0620E0201B9
:101298007319D8A402D0030E9DD0640E02017319ED
:1012A800D8A402D0040E96D0680E02017319D8A4EF
:1012B8001200000E0001796F060E00017A6FE0C07F
:1012C8007BF000017C6B97EC46F0000E0001E06FAC
:1012D800000E0001DF6FA40E00017A6FFE0E000100
:1012E8007B6FC4EC46F0D10E00017A6FF30E00015B
:1012F8007B6FC4EC46F03E0EB0EC49F0000E0201E4
:10130800826F4EEC4AF09E9A9D8A23D0E00E00012F
:10131800796F930E7A6F040E7B6F000E7C6F48EC2A
:1013280047F00201822B190E0201826512D0D10EFC
:1013380000017A6FF30E00017B6FC4EC46F07F0E5C
:1013480000017C6FF40E00017D6F69EC45F012001E
:1013580000D00001DF51D8B4D9D79D9A010E0201FF
:10136800896F300E0601006505D0330E0601006551
:101378000DD000D0B10E00017C6FF40E00017D6F1E
:1013880069EC45F0000E0201896F00D0000E0001E3
:10139800796F060E00017A6FE0C07BF000017C6B6C
:1013A80097EC46F0000E0001E06F000E0001DF6FC1
:1013B800020189510201D8B4120001D0120000C202
:1013C800D9FF01C2DAFFDF50D00F0201846F02019A
:1013D8008451040F02018A6F02D0120000D002016A
:1013E8007D510201D8B4D3D15FEC43F00009D8B4E1
:1013F800120001D01200D10E00017A6FF30E000125
:101408007B6FC4EC46F0E1C07DF0E2C07EF0E3C043
:101418007FF0E4C080F08C0E0001816F020E0001A5
:10142800826F8D0E0001836F020E0001846F7BECCA
:1014380041F0000E0201896F000E0201926F020E48
:101448000201926501D053D002018A51060D000EA7
:101458000201036F040E0201046F2E0E020103271E
:10146800000E0423F35002010327F4500201042361
:1014780002019251020DF35002010325D96EF45076
:1014880002010421DA6EDF50D8A42ED002018A515D
:10149800060D000E0201036F040E0201046F2E0EEA
:1014A80002010327000E0423F35002010327F4501E
:1014B8000201042302019251020DF3500201032795
:1014C800F45002010423010E02010325D96E000E17
:1014D80002010421DA6EDF50D8A406D092C283F24A
:1014E800010E0201896F03D00201922BA8D70201D5
:1014F80089510201D8A409D02C0E00017C6FF80E86
:1015080000017D6F69EC45F01200010E0201896F40
:10151800020183510201D8B462D0000E0201926F19
:1015280056D002018A51060D000E0201036F040E07
:101538000201046F2E0E02010327000E0423F3504C
:1015480002010327F4500201042302019251020D03
:10155800F35002010325D96EF45002010421DA6E1A
:1015680002018C51DE18D8A42FD002018A51060D31
:10157800000E0201036F040E0201046F2E0E020119
:101588000327000E0423F35002010327F45002013D
:10159800042302019251020DF35002010327F45073
:1015A80002010423010E02010325D96E000E020177
:1015B8000421DA6E02018D51DE18D8A405D0000E80
:1015C8000201896F0CD000D00201922B00D00201D9
:1015D80083510201925DD8B002D0A3D700D0020196
:1015E80089510201D8A409D07A0E00017C6FF70E48
:1015F80000017D6F69EC45F0120002018A51060D69
:10160800000E0201036F040E0201046F2E0E020188
:101618000327000E0423F35002010327F4500201AC
:10162800042302018351020DF35002010325D96EF0
:10163800F45002010421DA6E8CC2DFFF02018A51E4
:10164800060D000E0201036F040E0201046F2E0E38
:1016580002010327000E0423F35002010327F4506C
:101668000201042302018351020DF35002010327F2
:10167800F45002010423010E02010325D96E000E65
:1016880002010421DA6E8DC2DFFFE9EC47F00201A6
:1016980084510201D8B423D00F0E0001C76F020E87
:1016A8000001C86FD40E0001C96FF30E0001CA6FA4
:1016B800E1C0CBF0E2C0CCF0E3C0CDF0E4C0CEF0A6
:1016C8008BC2CFF00001D06B73C2D1F00001D26B96
:1016D80084C2D3F00001D46BB5EC10F01FD00F0E0C
:1016E8000001C76F020E0001C86F130E0001C96F19
:1016F800F40E0001CA6FE1C0CBF0E2C0CCF0E3C049
:10170800CDF0E4C0CEF08BC2CFF00001D06B73C235
:10171800D1F00001D26BB5EC10F000D00F0E000133
:101728007C6F020E00017D6F69EC45F0D10E00015F
:101738007A6FF30E00017B6FC4EC46F0000E0201D5
:10174800926F090E0201926502D0120012008B847A
:10175800500E0001796FC30E7A6F000E7B6F000E7A
:101768007C6F48EC47F08B94500E0001796FC30EE4
:101778007A6F000E7B6F000E7C6F48EC47F0020119
:10178800922B090E02019265E2D712001200000E98
:101798000201926F020E0201926501D04BD0020144
:1017A8008A51060D000E0201036F040E0201046F38
:1017B8002E0E02010327000E0423F3500201032713
:1017C800F4500201042302019251020DF350020168
:1017D8000325D96EF45002010421DA6E000EDF6E83
:1017E80002018A51060D000E0201036F040E020168
:1017F800046F2E0E02010327000E0423F35002018A
:101808000327F4500201042302019251020DF35000
:1018180002010327F45002010423010E02010325EB
:10182800D96E000E02010421DA6E000EDF6E02018D
:10183800922BB0D7E9EC47F0020184510201D8B4E9
:101848001BD00F0E0001C76F020E0001C86F490EB2
:101858000001C96FF40E0001CA6F8BC2CBF0000102
:10186800CC6B73C2CDF00001CE6B84C2CFF0000107
:10187800D06BB5EC10F017D00F0E0001C76F020E39
:101888000001C86FD40E0001C96FF70E0001CA6FBE
:101898008BC2CBF00001CC6B73C2CDF00001CE6BD4
:1018A800B5EC10F000D00F0E00017C6F020E0001A5
:1018B8007D6F69EC45F0D10E00017A6FF30E0001DF
:1018C8007B6FC4EC46F0000E0201926F090E020114
:1018D800926502D0120012008B84500E0001796FBD
:1018E800C30E7A6F000E7B6F000E7C6F48EC47F0DA
:1018F8008B94500E0001796FC30E7A6F000E7B6FC8
:10190800000E7C6F48EC47F00201922B090E020191
:101918009265E2D712001200000E00017C6FF80EEB
:1019280000017D6F69EC45F0D10E00017A6FF30E6E
:1019380000017B6FC4EC46F0120000C27CF001C2CB
:101948007DF0D20E00017E6FFF0E00017F6F15EC57
:1019580043F00009D8B497D0000E0001796F060E45
:1019680000017A6FE0C07BF000017C6B97EC46F0D9
:10197800000E0001E06F000E0001DF6FD50E0001C0
:101988007A6FF90E00017B6FC4EC46F0D10E0001AE
:101998007A6FF30E00017B6FC4EC46F03E0EB0EC9C
:1019A80049F0000E0201826F4EEC4AF09E9A9D8A21
:1019B80023D0E00E0001796F930E7A6F040E7B6FCF
:1019C800000E7C6F48EC47F00201822B190E0201D1
:1019D800826512D0D10E00017A6FF30E00017B6F81
:1019E800C4EC46F00D0E00017C6FFB0E00017D6F0C
:1019F80069EC45F0120000D00001DF51D8B4D9D706
:101A08009D9A590E06010019D8B409D0790E06011D
:101A18000019D8A414D006010151D8A410D0120E70
:101A280000017C6FFE0E00017D6F69EC45F0000E31
:101A380004012D6FE9EC47F0FF00120011D0D10E20
:101A480000017A6FF30E00017B6FC4EC46F00D0EB7
:101A580000017C6FFB0E00017D6F69EC45F000D042
:101A6800000E0001796F060E00017A6FE0C07BF06E
:101A780000017C6B97EC46F0000E0001E06F000E51
:101A88000001DF6F120000C27CF001C27DF0A30EDE
:101A980000017E6FFF0E00017F6F15EC43F0000917
:101AA800D8B42FD0D10E00017A6FF30E00017B6FEE
:101AB800C4EC46F00F0E0001C76F020E0001C86F9C
:101AC800670E0001C96FFD0E0001CA6F11EC40F0EE
:101AD800A2C0CBF0A3C0CCF0A4C0CDF0B5EC10F000
:101AE8000F0E00017C6F020E00017D6F69EC45F05E
:101AF800D10E00017A6FF30E00017B6FC4EC46F043
:101B0800120000C27CF001C27DF0020E00017E6F5F
:101B1800FC0E00017F6F15EC43F00009D8B467D0C4
:101B2800D10E00017A6FF30E00017B6FC4EC46F012
:101B38000F0E0001C76F020E0001C86F160E0001DC
:101B4800C96FFD0E0001CA6FBB0E0001CB6FF30E0B
:101B58000001CC6FB5EC10F00F0E00017C6F020E87
:101B680000017D6F69EC45F0D10E00017A6FF30E2C
:101B780000017B6FC4EC46F00F0E0001C76F020E28
:101B88000001C86F670E0001C96FFE0E0001CA6F21
:101B9800C40E0001CB6FF30E0001CC6FB5EC10F052
:101BA8000F0E00017C6F020E00017D6F69EC45F09D
:101BB8000F0E0001C76F020E0001C86F640E00010E
:101BC800C96FFB0E0001CA6FB5EC10F00F0E0001D3
:101BD8007C6F020E00017D6F69EC45F0D10E0001AB
:101BE8007A6FF30E00017B6FC4EC46F0120000C25E
:101BF80079F001C27AF0EB0E00017B6FFF0E000155
:101C08007C6F2DEC45F00009D8B491D2D10E0001BB
:101C18007A6FF30E00017B6FC4EC46F0000E0201F0
:101C2800926F210E0201926501D006D07E0EB0ECB3
:101C380049F00201922BF5D7E30E00017A6FFB0EF3
:101C480000017B6FC4EC46F0000E0201926F210E7A
:101C58000201926501D006D07E0EB0EC49F0020177
:101C6800922BF5D7D10E00017A6FF30E00017B6F2E
:101C7800C4EC46F0D10E00017A6FF30E00017B6FC1
:101C8800C4EC46F0350E00017C6FFE0E00017D6F3E
:101C980069EC45F0EB0E00017C6FFF0E00017D6FD3
:101CA8007E0E00017E6FFF0E00017F6F7DEC3BF022
:101CB800D20E00017C6FFF0E00017D6FB50E000192
:101CC8007E6FF90E00017F6F7DEC3BF0020E000184
:101CD8007C6FFC0E00017D6FF00E00017E6FFB0E25
:101CE80000017F6F7DEC3BF0D10E00017A6FF30E9F
:101CF80000017B6FC4EC46F0010E00017C6FFD0E05
:101D080000017D6F69EC45F0A30E00017C6FFF0EAA
:101D180000017D6F9D0E00017E6FFB0E00017F6F3D
:101D28007DEC3BF0D10E00017A6FF30E00017B6F62
:101D3800C4EC46F0BF0E00017C6FFE0E00017D6F03
:101D480069EC45F0010E0201926F140E02019265D2
:101D580001D030D00F0E0001796F020E00017A6FAA
:101D6800000E00017C6F320E7B6F97EC46F00F0E71
:101D78000001C76F020E0001C86F870E0001C96F0E
:101D8800FE0E0001CA6F92C2CBF00001CC6BB5EC1D
:101D980010F00F0E00017C6F020E00017D6F0A0E1D
:101DA80000017E6FFC0E00017F6F7DEC3BF00201AD
:101DB800922BCBD7010E0201926F140E020192658D
:101DC80001D030D00F0E0001796F020E00017A6F3A
:101DD800000E00017C6F320E7B6F97EC46F00F0E01
:101DE8000001C76F020E0001C86FDB0E0001C96F4A
:101DF800FD0E0001CA6F92C2CBF00001CC6BB5ECAE
:101E080010F00F0E00017C6F020E00017D6F3B0E7B
:101E180000017E6FFC0E00017F6F7DEC3BF002013C
:101E2800922BCBD7320E00017C6FFF0E00017D6F25
:101E3800140E00017E6FF50E00017F6F7DEC3BF004
:101E4800480E00017C6FFF0E00017D6F760E0001C9
:101E58007E6FF50E00017F6F7DEC3BF0530E0001A5
:101E68007C6FFF0E00017D6FA70E00017E6FF50EDF
:101E780000017F6F7DEC3BF0270E00017C6FFF0EA9
:101E880000017D6FE30E00017E6FF40E00017F6F8D
:101E98007DEC3BF03D0E00017C6FFF0E00017D6F75
:101EA800450E00017E6FF50E00017F6F7DEC3BF063
:101EB8005E0E00017C6FFF0E00017D6FD80E0001E1
:101EC8007E6FF50E00017F6F7DEC3BF0D90E0001AF
:101ED8007C6FFE0E00017D6F940E00017E6FF60E82
:101EE80000017F6F7DEC3BF0F30E00017C6FFE0E6E
:101EF80000017D6FF00E00017E6FF60E00017F6F0E
:101F08007DEC3BF0000E00017C6FFF0E00017D6F41
:101F18001E0E00017E6FF70E00017F6F7DEC3BF017
:101F2800CC0E00017C6FFE0E00017D6F660E000175
:101F38007E6FF60E00017F6F7DEC3BF0E60E000130
:101F48007C6FFE0E00017D6FC20E00017E6FF60EE3
:101F580000017F6F7DEC3BF00D0E00017C6FFF0EE2
:101F680000017D6F4C0E00017E6FF70E00017F6F40
:101F78007DEC3BF0E20E00017C6FFF0E00017D6FEF
:101F8800560E00017E6FF80E00017F6F7DEC3BF06E
:101F9800D10E00017A6FF30E00017B6FC4EC46F09E
:101FA800B20E00017C6FFE0E00017D6F69EC45F0FA
:101FB8005C0E00017C6FF30E00017D6F8F0E000137
:101FC8007E6FFD0E00017F6F7DEC3BF06B0E000114
:101FD8007C6FF30E00017D6FA20E00017E6FFD0E77
:101FE80000017F6F7DEC3BF07A0E00017C6FF30EF1
:101FF80000017D6FB50E00017E6FFD0E00017F6F41
:102008007DEC3BF0980E00017C6FF20E00017D6FB5
:10201800810E00017E6FFC0E00017F6F7DEC3BF0AE
:10202800720E00017C6FF20E00017D6F6A0E0001D6
:102038007E6FFC0E00017F6F7DEC3BF0AA0E000165
:102048007C6FF20E00017D6FC80E00017E6FFD0EE1
:1020580000017F6F7DEC3BF0850E00017C6FF20E76
:1020680000017D6F3F0E00017E6FFD0E00017F6F46
:102078007DEC3BF0360E00017C6FF20E00017D6FA7
:10208800530E00017E6FFA0E00017F6F7DEC3BF06E
:10209800F70E00017C6FF10E00017D6F550E0001F7
:1020A8007E6FF90E00017F6F7DEC3BF04A0E000158
:1020B8007C6FF20E00017D6F720E00017E6FFA0ECA
:1020C80000017F6F7DEC3BF00C0E00017C6FF20E7F
:1020D80000017D6F750E00017E6FF90E00017F6FA4
:1020E8007DEC3BF05E0E00017C6FF20E00017D6F0F
:1020F800910E00017E6FFA0E00017F6F7DEC3BF0C0
:10210800210E00017C6FF20E00017D6F950E00011B
:102118007E6FF90E00017F6F7DEC3BF0D10E000160
:102128007A6FF30E00017B6FC4EC46F01200890E43
:1021380000017C6FF30E00017D6F69EC45F0D50E50
:1021480000017C6FFB0E00017D6F69EC45F0D10E3C
:1021580000017A6FF30E00017B6FC4EC46F01200A9
:102168001200CB0E0101086F000E0101096F3DEF4F
:1021780018F0250E01011D19D8B40BD0C7C0D9FF1E
:10218800C8C0DAFF1DC1DFFF0001C74BC82B3DEFF8
:1021980018F0000E01011A6F000E196F000E0101F0
:1021A8001C6F000E1B6F07D001011B850001C94B76
:1021B800CA2B01D00CD0C9C0F6FFCAC0F7FFF86A15
:1021C8000800F550300AD8B4EFD701D0F4D7C9C009
:1021D800F6FFCAC0F7FFF86A0800F55035EC49F079
:1021E800D8A00DD1000E01011A6F000E196F00D092
:1021F80019C187F01AC188F0000E00018A6F0A0E13
:10220800896FCDEC48F087C019F188C01AF1D00E5B
:102218000001D56FFF0E0001D66FC9C0F6FFCAC016
:10222800F7FFF86A0800F5500001D76FD86B000176
:10223800D5510001D7270001D6510001D82300014C
:10224800D751010119270001D85101011A230001B2
:10225800C94BCA2BC9C0F6FFCAC0F7FFF86A080005
:10226800F55035EC49F0D8A0CAD0C2D7C8D04FEF46
:1022780018F001011B89C3D001011C85EAD000D0E8
:1022880001011B8FE6D008C1D9FF09C1DAFFDECFF3
:1022980004F1DDCF05F1020E01010827000E092324
:1022A8000101045101010511D8A407D0AB0E0101A9
:1022B800046FFF0E0101056F00D0000E0101076FCA
:1022C800000E066F04D00101064B072B00D0010158
:1022D8000651010104250001D56F010107510101D3
:1022E80005210001D66FD5C0F6FFD6C0F7FF000E56
:1022F800F86E0F0EF76403D00800F55005D0F6CF3E
:10230800E9FFF7CFEAFFEF500009D8B402D0DBD7D6
:1023180000D0010119510101065D01011A510101A5
:102328000759D8B009D0010106510101195F01010F
:10233800075101011A5B10D0000E01011A6F000E3F
:10234800196F0AD0C7C0D9FFC8C0DAFF200EDF6EE8
:102358000001C74BC82B00D001011907D8A01A07E4
:1023680001011929EFE101011A29D8B41FD0EAD7D0
:102378001DD004C1F6FF05C1F7FF000EF86EC7C0F7
:10238800D9FFC8C0DAFF0F0EF76403D00800F55074
:1023980005D0F6CFE9FFF7CFEAFFEF50DF6E010176
:1023A800044B052B0001C74BC82B00D001010607C1
:1023B800D8A0070701010629DCE101010729D8B4E3
:1023C8003DEF18F0D6D73DEF18F008C1D9FF09C185
:1023D800DAFFDF5001011D6F020E01010827000E10
:1023E800092300D01D0E0101046F010E0101056FC4
:1023F800000E0101076F010E066F8BD72AD0C9C0E6
:10240800F6FFCAC0F7FF0001C94BCA2BF86A0800DB
:10241800F5CF1DF101011D51000AD8B44FEF18F096
:10242800580AD8B42DD73B0AD8B4CFD7070AD8B49E
:1024380010D0020AD8B420D70F0AD8B40AD0050A97
:10244800D8B417D71F0AD8B41ED70B0AD8B418D7D0
:10245800C9D7070E01011C15D8B4EDD3000E010130
:102468000B6F060E0A6F08C1D9FF09C1DAFFDECF6C
:1024780016F1DECF17F1DDCF18F1030E01010827A1
:10248800000E0923010118AF12D016C179F017C147
:102498007AF018C17BF01DEC49F079C016F17AC0CA
:1024A80017F17BC018F1030E01011B1300D0000EB9
:1024B8000101116F000E106F010116510101171172
:1024C80001011811D8B49DD0820E0001D56FFF0EFE
:1024D8000001D66F16C1D7F017C1D8F018C1D9F0CE
:1024E80019C1DAF0100E06D00001D890DA33D933CA
:1024F800D833D733E82EF8D70001D7510001D525B6
:102508000101106F000E0001D6210101116F0101B8
:102518001007D8A0110710C187F011C188F0000E6C
:1025280000018A6F030E896FCDEC48F087C010F167
:1025380088C011F110C17FF011C180F0000E0001B8
:10254800826F0A0E816F1BEC3EF07FC010F180C0D5
:1025580011F1010111AF05D001011007D8A0110731
:1025680000D00101105100086AEC21F0A2C00CF162
:10257800A3C00DF1A4C00EF10CC193F00DC194F0ED
:102588000EC195F016C196F017C197F018C198F0D2
:1025980017EC37F093C00CF194C00DF195C00EF113
:1025A8000CC179F00DC17AF00EC17BF0000E00016C
:1025B8007C6F800E00017D6F3F0E00017E6F83EC03
:1025C8003EF00001D8B005D001011007D8A01107CE
:1025D80018D00CC179F00DC17AF00EC17BF0000E55
:1025E80000017C6F200E00017D6F410E00017E6F9F
:1025F80083EC3EF00001D8A004D00101104B112B50
:1026080000D001010BBF08D001010B511EE10D0ED6
:1026180001010A5DD8B019D016C1ACF017C1ADF0F0
:1026280018C1AEF001010A5114EC2CF0A2C0AFF0B1
:10263800A3C0B0F0A4C0B1F080EC2DF0ACC016F18E
:10264800ADC017F1AEC018F100D0010111BF08D01C
:10265800010111512CE10A0E0101105DD8B027D0FB
:10266800010116510101171101011811D8B47FD0C9
:1026780016C1B8F017C1B9F018C1BAF076EC38F045
:102688000001B8510001B9110001BA110001BB11D4
:10269800D8A46DD0010111BF6AD00101115107E121
:1026A800020E0101105DD8B002D061D000D00CC17B
:1026B80079F00DC17AF00EC17BF0700E00017C6FCD
:1026C800890E00017D6F400E00017E6F83EC3EF0A5
:1026D8000001D8B003D00101F70E02D00101F80EB5
:1026E8001027FF0E112300D0010110516AEC21F0D0
:1026F800A2C00CF1A3C00DF1A4C00EF117D016C1F1
:1027080079F017C17AF018C17BF00CC17CF00DC1CB
:102718007DF00EC17EF0CEEC34F079C012F17AC0B3
:1027280013F17BC014F17CC015F117D016C179F0F4
:1027380017C17AF018C17BF00CC17CF00DC17DF097
:102748000EC17EF0FBEC33F079C012F17AC013F1C0
:102758007BC014F17CC015F100D0000E0101166F8A
:10276800000E0101176F000E0101186F34D016C159
:10277800B8F017C1B9F018C1BAF076EC38F0B8C0A3
:1027880012F1B9C013F1BAC014F1BBC015F116C1EA
:10279800B8F017C1B9F018C1BAF012C181F013C16D
:1027A80082F014C183F015C184F072EC44F081C04A
:1027B800BBF082C0BCF083C0BDF09DEC47F0B8C050
:1027C80016F1B9C017F1BAC018F1000E0101116F66
:1027D800000E106F00D0010E01011D6F0A0E0101DD
:1027E8001D19D8B425D001D023D001011D51040DE5
:1027F800610EF324F66EF10EF420F76EF86A000EFF
:10280800F8220900F5500101125D0900F550010197
:1028180013590900F550010114590900F550010137
:102828001559D8A005D001D003D001011D2BD6D74A
:102838001DC1D5F00001D66BD5BFD60701010A51DD
:102848000001D52701010B510001D62301011051C8
:102858000001D527010111510001D6230001D551EE
:102868000101195F0001D65101011A5B01010A51EA
:1028780001010B11D8B405D001011907D8A01A0716
:1028880000D0030E01011B150001D56F000E0101D8
:102898001C150001D66F0001D5510001D611D8B41E
:1028A80005D001011907D8A01A0700D001011BA5FE
:1028B80043D0030E01011B150001D56F000E010165
:1028C8001C150001D66F0001D5510001D611D8B4EE
:1028D80018D0C7C0D9FFC8C0DAFF2D0EDF6E0001BF
:1028E800C74BC82B0ED0C7C0D9FFC8C0DAFF300EFF
:1028F800DF6E0001C74BC82B01011907D8A01A07C2
:1029080000D001011ABF8AD001011A51ECE101017E
:102918001905D8A083D0E7D781D00ED0C7C0D9FF7A
:10292800C8C0DAFF200EDF6E0001C74BC82B0101BB
:102938001907D8A01A0700D001011ABF07D0010152
:102948001A51ECE101011905D8B0E8D7030E0101CD
:102958001B150001D56F000E01011C150001D66F73
:102968000001D5510001D611D8B458D0C7C0D9FF3D
:10297800C8C0DAFF2D0E50D00001C74BC82B4ED06F
:1029880012C179F013C17AF014C17BF015C17CF043
:1029980001011D51040D610EF324F66EF10EF420B1
:1029A800F76EF86A000EF8220900F5CF7DF00900ED
:1029B800F5CF7EF00900F5CF7FF00A00F5CF80F063
:1029C8004EEC3FF079C00CF17AC00DF17BC00EF1EE
:1029D8007CC00FF10CC186F00DC187F00EC188F0E4
:1029E8000FC189F00A0E00018A6F000E8B6F000E6E
:1029F8008C6F000E8D6FD2EC41F086C00CF187C051
:102A08000DF188C00EF189C00FF101010C51300F92
:102A1800C7C0D9FFC8C0DAFFDF6EAED701011D07F6
:102A280001011D29D8B410D0ABD70ED0C7C0D9FF2B
:102A3800C8C0DAFF300EDF6E0001C74BC82B01019A
:102A48001007D8A0110700D0010111BF07D001015C
:102A58001151ECE101011005D8B0E8D701010BBF15
:102A68000CD001010B5105E1090E01010A5DD8A046
:102A780004D0080E01011D6F03D00AC11DF100D05A
:102A880001011D5101010A5F000E01011DBFFF0E6A
:102A980001010B5B01011D510101D8B40AD0C7C067
:102AA800D9FFC8C0DAFF2E0EDF6E0001C74BC82B56
:102AB80000D001011D516AEC21F0A2C000F1A3C0B1
:102AC80001F1A4C002F116C196F017C197F018C120
:102AD80098F000C193F001C194F002C195F017EC91
:102AE80037F093C0B8F094C0B9F095C0BAF076EC5E
:102AF80038F0B8C012F1B9C013F1BAC014F1BBC0B4
:102B080015F17BD012C179F013C17AF014C17BF0B2
:102B180015C17CF001011D51040D610EF324F66E00
:102B2800F10EF420F76EF86A000EF8220900F5CFCE
:102B38007DF00900F5CF7EF00900F5CF7FF00A009F
:102B4800F5CF80F04EEC3FF079C00CF17AC00DF172
:102B58007BC00EF17CC00FF10CC186F00DC187F06F
:102B68000EC188F00FC189F00A0E00018A6F000EAD
:102B78008B6F000E8C6F000E8D6FD2EC41F086C00B
:102B88000CF187C00DF188C00EF189C00FF1010169
:102B98000C51300FC7C0D9FFC8C0DAFFDF6E000183
:102BA800C74BC82B12C186F013C187F014C188F037
:102BB80015C189F001011D51040D610EF324F66E53
:102BC800F10EF420F76EF86A000EF8220900F5CF2E
:102BD8008AF00900F5CF8BF00900F5CF8CF00A00D8
:102BE800F5CF8DF0D2EC41F086C012F187C013F119
:102BF80088C014F189C015F100D001011D07010139
:102C08001D29D8B410D07ED70ED0C7C0D9FFC8C0F0
:102C1800DAFF300EDF6E0001C74BC82B01010A072F
:102C2800D8A00B0700D001010A5101010B11D8B43B
:102C380020D2EBD71ED201011BBF35D001011BA941
:102C48000ED008C1D9FF09C1DAFFDECF12F1DECFFD
:102C580013F1DECF14F1DECF15F1040E0FD008C149
:102C6800D9FF09C1DAFFDECF12F1DDCF13F101017F
:102C7800000E13BFFF0E146F156F020E0101082717
:102C8800000E092300D0010115AF8FD0030E0101FA
:102C98001B130101151F141F131F126D000E1323A0
:102CA8001423152382D001011BA90ED008C1D9FF16
:102CB80009C1DAFFDECF12F1DECF13F1DECF14F156
:102CC800DECF15F1040E10D008C1D9FF09C1DAFF13
:102CD800DECFD5F0DDCFD6F0D5C012F1D6C013F1D6
:102CE8000101146B156B020E01010827000E092360
:102CF8005CD0010E01011D6F0A0E01011D19D8B427
:102D08005ED001D05CD001011D51040D610EF32489
:102D1800F66EF10EF420F76EF86A000EF82209003C
:102D2800F5500101125D0900F55001011359090020
:102D3800F550010114590900F55001011559D8A0A1
:102D48003ED001D03CD001011D2BD6D738D0010E82
:102D580001011D6F080E01011D19D8B430D001D032
:102D68002ED001011D51040DD70EF324F66EF10E7D
:102D7800F420F76EF86A000EF8220900F5500101F8
:102D8800125D0900F550010113590900F5500101C0
:102D980014590900F55001011559D8A010D001D0D7
:102DA8000ED001011D2BD6D70AD001011B51800B73
:102DB800000AD8B49ED7800AD8B4C9D700D0010178
:102DC800195101011A11D8B415D0030E01011B15B0
:102DD8000001D56F000E01011C150001D66F00011E
:102DE800D5510001D611D8B405D001011907D8A0D2
:102DF8001A0700D0800E01011DBF7F0E0001D56F9C
:102E08000101195101011D5D01011A51800A0001DA
:102E1800D559D8B00BD001011D510101195F000E21
:102E280001011DBFFF0E01011A5B06D0000E010152
:102E38001A6F000E196F00D001011BA535D0030EC3
:102E480001011B150001D56F000E01011C150001C1
:102E5800D66F0001D5510001D611D8B40AD0C7C029
:102E6800D9FFC8C0DAFF2D0EDF6E0001C74BC82B93
:102E780000D00101195101011A11D8B44AD0C7C0B4
:102E8800D9FFC8C0DAFF300EDF6E0001C74BC82B70
:102E980001011907D8A01A070101195101011A11D6
:102EA800D8B437D0ECD735D00101195101011A1126
:102EB800D8B415D0C7C0D9FFC8C0DAFF200EDF6E5E
:102EC8000001C74BC82B01011907D8A01A07010137
:102ED800195101011A11D8B402D0ECD700D0030E51
:102EE80001011B150001D56F000E01011C15000121
:102EF800D66F0001D5510001D611D8B40AD0C7C089
:102F0800D9FFC8C0DAFF2D0EDF6E0001C74BC82BF2
:102F180000D001011D5101010A6F0B6B0ABF0B079D
:102F28009BD086D00AC1D5F00BC1D6F00001D8904D
:102F3800D537D6370001D890D537D637610E00017E
:102F4800D525F66EF10ED621F76EF86A000EF82236
:102F58000900F5CF7DF00900F5CF7EF00900F5CF27
:102F68007FF00A00F5CF80F012C179F013C17AF032
:102F780014C17BF015C17CF04EEC3FF079C086F0AF
:102F88007AC087F07BC088F07CC089F00A0E000107
:102F98008A6F000E8B6F000E8C6F000E8D6FD2EC57
:102FA80041F000018651300F01011D6F4BD012C155
:102FB80079F013C17AF014C17BF015C17CF00AC115
:102FC800D5F00BC1D6F00001D890D537D63700011F
:102FD800D890D537D637D70E0001D525F66EF10E25
:102FE800D621F76EF86A000EF8220900F5CF7DF0B9
:102FF8000900F5CF7EF00900F5CF7FF00A00F5CF84
:1030080080F04EEC3FF0000179510F0B0101036F86
:1030180001010351010D240EF324F66EFE0EF42077
:10302800F76EF86A000EF8220800F5CF1DF10AD0F5
:1030380001011B51800B000AD8B474D7800AD8B498
:10304800B6D700D0C7C0D9FFC8C0DAFF1DC1DFFF9F
:103058000001C74BC82B00D001010A07D8A00B07F5
:1030680001010A29E5E101010B29D8B402D0E0D712
:1030780000D0C9C0F6FFCAC0F7FF0001C94BCA2B70
:10308800F86A0800F5CF1DF101011D51D8B403D02D
:10309800BDEF10F000D0C7C0D9FFC8C0DAFF000EDE
:1030A800DF6E12001200000E0001856F000E866FA1
:1030B800000E876F000E886F010E00017915000160
:1030C8007D6F000E00017A1500017E6F000E000171
:1030D8007B1500017F6F000E00017C150001806FD9
:1030E8001F0ED89000017D377E377F378037E82E56
:1030F800F8D700017D510001852700017E510001AC
:10310800862300017F5100018723000180510001BF
:103118008823020E0001791500017D6F000E000161
:103128007A1500017E6F000E00017B1500017F6F8C
:10313800000E00017C150001806F1D0ED890000163
:103148007D377E377F378037E82EF8D700017D51ED
:103158000001852700017E510001862300017F516F
:10316800000187230001805100018823040E00011B
:10317800791500017D6F000E00017A1500017E6F40
:10318800000E00017B1500017F6F000E00017C1509
:103198000001806F1B0ED89000017D377E377F3786
:1031A8008037E82EF8D700017D51000185270001FE
:1031B8007E510001862300017F5100018723000111
:1031C800805100018823080E0001791500017D6FE8
:1031D800000E00017A1500017E6F000E00017B15BC
:1031E80000017F6F000E00017C150001806F190E31
:1031F800D89000017D377E377F378037E82EF8D7A3
:1032080000017D510001852700017E5100018623C0
:1032180000017F51000187230001805100018823AC
:10322800100E0001791500017D6F000E00017A155E
:1032380000017E6F000E00017B1500017F6F000EFC
:1032480000017C150001806F170ED89000017D37B2
:103258007E377F378037E82EF8D700017D5100018F
:10326800852700017E510001862300017F5100015E
:1032780087230001805100018823200E0001791561
:1032880000017D6F000E00017A1500017E6F000EAF
:1032980000017B1500017F6F000E00017C15000105
:1032A800806F150ED89000017D377E377F378037C5
:1032B800E82EF8D700017D510001852700017E51D5
:1032C8000001862300017F510001872300018051FE
:1032D80000018823400E0001791500017D6F000E62
:1032E80000017A1500017E6F000E00017B150001B8
:1032F8007F6F000E00017C150001806F130ED890BF
:1033080000017D377E377F378037E82EF8D70001F8
:103318007D510001852700017E51000186230001AF
:103328007F51000187230001805100018823800E0E
:103338000001791500017D6F000E00017A1500016A
:103348007E6F000E00017B1500017F6F000E0001EB
:103358007C150001806F110ED89000017D377E37F3
:103368007F378037E82EF8D700017D510001852787
:1033780000017E510001862300017F51000187234F
:103388000001805100018823000E00017915000119
:103398007D6F010E00017A1500017E6F000E00019D
:1033A8007B1500017F6F000E00017C150001806F06
:1033B8000F0ED89000017D377E377F378037E82E93
:1033C800F8D700017D510001852700017E510001D9
:1033D800862300017F5100018723000180510001ED
:1033E8008823000E0001791500017D6F020E00018F
:1033F8007A1500017E6F000E00017B1500017F6FBA
:10340800000E00017C150001806F0D0ED8900001A0
:103418007D377E377F378037E82EF8D700017D511A
:103428000001852700017E510001862300017F519C
:10343800000187230001805100018823000E00014C
:10344800791500017D6F040E00017A1500017E6F69
:10345800000E00017B1500017F6F000E00017C1536
:103468000001806F0B0ED89000017D377E377F37C3
:103478008037E82EF8D700017D510001852700012B
:103488007E510001862300017F510001872300013E
:10349800805100018823000E0001791500017D6F1D
:1034A800080E00017A1500017E6F000E00017B15E1
:1034B80000017F6F000E00017C150001806F090E6E
:1034C800D89000017D377E377F378037E82EF8D7D0
:1034D80000017D510001852700017E5100018623EE
:1034E80000017F51000187230001805100018823DA
:1034F800000E0001791500017D6F100E00017A158C
:1035080000017E6F000E00017B1500017F6F000E29
:1035180000017C150001806F070ED89000017D37EF
:103528007E377F378037E82EF8D700017D510001BC
:10353800852700017E510001862300017F5100018B
:1035480087230001805100018823000E00017915AE
:1035580000017D6F200E00017A1500017E6F000EBC
:1035680000017B1500017F6F000E00017C15000132
:10357800806F050ED89000017D377E377F37803702
:10358800E82EF8D700017D510001852700017E5102
:103598000001862300017F5100018723000180512B
:1035A80000018823000E0001791500017D6F400E8F
:1035B80000017A1500017E6F000E00017B150001E5
:1035C8007F6F000E00017C150001806F030ED890FC
:1035D80000017D377E377F378037E82EF8D7000126
:1035E8007D510001852700017E51000186230001DD
:1035F8007F51000187230001805100018823000EBC
:103608000001791500017D6F800E00017A15000117
:103618007E6F000E00017B1500017F6F000E000118
:103628007C150001806FD89000017D350001816F05
:1036380000017E350001826F00017F350001836F34
:10364800000180350001846F000181510001852748
:103658000001825100018623000183510001872364
:10366800000184510001882379C07DF07AC07EF082
:103678007BC07FF07CC080F00001D89080337F331E
:103688007E337D33000E00017D150001816F800EB1
:1036980000017E150001826F000E00017F150001F8
:1036A800836F000E000180150001846F00018151B5
:1036B8000001852700018251000186230001835102
:1036C80000018723000184510001882379C07DF01F
:1036D8007AC07EF07BC07FF07CC080F0040E06D0FC
:1036E8000001D89080337F337E337D33E82EF8D7BE
:1036F800000E00017D150001816F400E00017E154E
:103708000001826F000E00017F150001836F000E1B
:10371800000180150001846F000181510001852797
:103728000001825100018623000183510001872393
:10373800000184510001882379C07DF07AC07EF0B1
:103748007BC07FF07CC080F0060E06D00001D890C8
:1037580080337F337E337D33E82EF8D7000E0001A7
:103768007D150001816F200E00017E150001826F1A
:10377800000E00017F150001836F000E0001801507
:103788000001846F000181510001852700018251E9
:103798000001862300018351000187230001845121
:1037A8000001882379C07DF07AC07EF07BC07FF06D
:1037B8007CC080F0080E06D00001D89080337F339B
:1037C8007E337D33E82EF8D7000E00017D15000109
:1037D800816F100E00017E150001826F000E00013E
:1037E8007F150001836F000E000180150001846FB2
:1037F80000018151000185270001825100018623C3
:1038080000018351000187230001845100018823AE
:1038180079C07DF07AC07EF07BC07FF07CC080F0FC
:103828000A0E06D00001D89080337F337E337D3373
:10383800E82EF8D7000E00017D150001816F080EF3
:1038480000017E150001826F000E00017F15000146
:10385800836F000E000180150001846F0001815103
:103868000001852700018251000186230001835150
:1038780000018723000184510001882379C07DF06D
:103888007AC07EF07BC07FF07CC080F00C0E06D042
:103898000001D89080337F337E337D33E82EF8D70C
:1038A800000E00017D150001816F040E00017E15D8
:1038B8000001826F000E00017F150001836F000E6A
:1038C800000180150001846F0001815100018527E6
:1038D80000018251000186230001835100018723E2
:1038E800000184510001882379C07DF07AC07EF000
:1038F8007BC07FF07CC080F00E0E06D00001D8900F
:1039080080337F337E337D33E82EF8D7000E0001F5
:103918007D150001816F020E00017E150001826F86
:10392800000E00017F150001836F000E0001801555
:103938000001846F00018151000185270001825137
:10394800000186230001835100018723000184516F
:103958000001882379C07DF07AC07EF07BC07FF0BB
:103968007CC080F0100E06D00001D89080337F33E1
:103978007E337D33E82EF8D7000E00017D15000157
:10398800816F010E00017E150001826F000E00019B
:103998007F150001836F000E000180150001846F00
:1039A8000001815100018527000182510001862311
:1039B80000018351000187230001845100018823FD
:1039C80079C07DF07AC07EF07BC07FF07CC080F04B
:1039D800120E06D00001D89080337F337E337D33BA
:1039E800E82EF8D7800E00017D150001816F000ECA
:1039F80000017E150001826F000E00017F15000195
:103A0800836F000E000180150001846F0001815151
:103A1800000185270001825100018623000183519E
:103A280000018723000184510001882379C07DF0BB
:103A38007AC07EF07BC07FF07CC080F0140E06D088
:103A48000001D89080337F337E337D33E82EF8D75A
:103A5800400E00017D150001816F000E00017E15EA
:103A68000001826F000E00017F150001836F000EB8
:103A7800000180150001846F000181510001852734
:103A88000001825100018623000183510001872330
:103A9800000184510001882379C07DF07AC07EF04E
:103AA8007BC07FF07CC080F0160E06D00001D89055
:103AB80080337F337E337D33E82EF8D7200E000124
:103AC8007D150001816F000E00017E150001826FD7
:103AD800000E00017F150001836F000E00018015A4
:103AE8000001846F00018151000185270001825186
:103AF80000018623000183510001872300018451BE
:103B08000001882379C07DF07AC07EF07BC07FF009
:103B18007CC080F0180E06D00001D89080337F3327
:103B28007E337D33E82EF8D7100E00017D15000195
:103B3800816F000E00017E150001826F000E0001EA
:103B48007F150001836F000E000180150001846F4E
:103B5800000181510001852700018251000186235F
:103B6800000183510001872300018451000188234B
:103B780079C07DF07AC07EF07BC07FF07CC080F099
:103B88001A0E06D00001D89080337F337E337D3300
:103B9800E82EF8D7080E00017D150001816F000E90
:103BA80000017E150001826F000E00017F150001E3
:103BB800836F000E000180150001846F00018151A0
:103BC80000018527000182510001862300018351ED
:103BD80000018723000184510001882379C07DF00A
:103BE8007AC07EF07BC07FF07CC080F01C0E06D0CF
:103BF8000001D89080337F337E337D33E82EF8D7A9
:103C0800040E00017D150001816F000E00017E1574
:103C18000001826F000E00017F150001836F000E06
:103C2800000180150001846F000181510001852782
:103C3800000182510001862300018351000187237E
:103C4800000184510001882379C07DF07AC07EF09C
:103C58007BC07FF07CC080F01E0E06D00001D8909B
:103C680080337F337E337D33E82EF8D7020E000190
:103C78007D150001816F000E00017E150001826F25
:103C8800000E00017F150001836F000E00018015F2
:103C98000001846F000181510001852700018251D4
:103CA800000186230001835100018723000184510C
:103CB80000018823000E0001791500017D6F000EB8
:103CC80000017A1500017E6F000E00017B150001CE
:103CD8007F6F800E00017C150001806F200E06D0DA
:103CE8000001D89080337F337E337D33E82EF8D7B8
:103CF80000017D510001852700017E5100018623C6
:103D080000017F51000187230001805100018823B1
:103D180085C079F086C07AF087C07BF088C07CF0D7
:103D280012001200EACF6EF0E1CF6FF0E2CF70F030
:103D3800D9CF71F0DACF72F0F3CF73F0F4CF74F01B
:103D4800F6CF75F0F7CF76F0F8CF77F0F5CF78F0BB
:103D5800F29EF2A083D000F000F0000E0201CA6FBC
:103D6800000ECB6F000ECC6F000ECD6F7FEC4AF0CB
:103D7800236E2E502318D8B46BD0D58EF28A130E2A
:103D8800446E000E0001E56FD6CF24F0256AD750A7
:103D98002526640E2F6057D02F50D8B44CD0650E0E
:103DA8002F6049D0FE0E0001676FFF0E0001686F9B
:103DB8002F500001696F6A6BD890000169376A3724
:103DC80000016751000169270001685100016A2359
:103DD800000E00016925D96E070E00016A21DA6E0E
:103DE80024C0DEFF25C0DDFF090E245C520E2558D5
:103DF800D8B00AD0380E245C4A0E2558D8A004D072
:103E08007D98F296F2841AD0510E245CC30E255880
:103E1800D8B00ED0C80E245CAF0E2558D8A008D054
:103E28007D98F2968F0E1C6E1B689AEC4AF006D0AD
:103E380095EC4AF003D095EC4AF000D0650E2F605F
:103E480004D02F2A02D07D98F29623C02EF002D0FB
:103E580000F000D07FEC4AF0F2901AD2F2A430D0F1
:103E6800F29AD59E030E2F640ED0000E1B6E070E1D
:103E78001C6EE10E1D6E000E1E6E010E1F6E41ECD3
:103E880028F00001E56F000E1B6E070E1C6E000E79
:103E98001E6E640E1D6E51EC48F0000E2F6E000170
:103EA800E551D8A409D07FEC4AF07FEC4AF02E6E99
:103EB800F2907D88F28600D00D0E446EF294E8D11F
:103EC8009EA2D3D1392A370E4218D8A40CD1435018
:103ED800395CD8A003D1000E396E3450010DCE0ED6
:103EE800F324D96E020EF420DA6E630EDE18D8B40D
:103EF800B3D03650D8B4F2D03450010DCE0EF324DE
:103F0800D96E020EF420DA6EDF50D8A43FD0330405
:103F1800D8A425D03504D8A407D077D0080ECB6E06
:103F280076D0000ECC6EDAD0020E3518D8A404D0A4
:103F380074D03ED0352AD2D0030E3518D8A402D07A
:103F480064D0ECD7040E3518D8A404D08B9A180E78
:103F580051D016D0CA947BD0000E366EBFD0020E58
:103F68003318D8A4F7D73504D8A403D08B8A0B0EFE
:103F7800D6D7020E3518D8A4EDD78B9A1D0E3AD095
:103F8800010E356E342AAAD062D0A8D03450010D63
:103F9800CE0EF324D96E020EF420DA6EDE04D8A415
:103FA8002ED03304D8A416D03504D8A404D03CD0DD
:103FB800180ECB6EBFD7020E3518D8A431D08B9A05
:103FC800ADD72ED0F5D7B6D732D0080ECB6E35D0B8
:103FD800A8D784D0020E3318D8A4BCD73504D8A4E7
:103FE80003D08B8A1D0E9BD7020E3518D8A404D097
:103FF8008B9A0B0ECB6EC4D7CA9429D06FD03304DA
:10400800D8A420D03504D8A404D08B8A87D7352AE1
:1040180088D7020E3518D8A403D08B9AC9D78AD767
:10402800030E3518D8A403D08B8AC2D783D7040EC1
:104038003518D8A48FD78B9AC8D7010E356E342A75
:1040480070D74CD0020E3318D8A484D783D7010E6A
:104058000001E66F81D742D03504D8A416D03304C6
:10406800D8A403D08B8A080E06D0020E3318D8A421
:1040780004D08B9A0B0ECB6E05D0CA94010E0001AA
:10408800E66F00D0000ECC6E55D7020E3518D8A4B6
:104098001CD03304D8A403D08B9AFA0E05D0020E94
:1040A8003318D8A403D0950ECB6E05D0CA94010E50
:1040B8000001E66F00D0352A37063750D8B40ED045
:1040C800010E356E000E346E09D09FEC4AF0A192B5
:1040D800000E3A6EB180CA943FD700D03650D8B49B
:1040E800C2D0CA84C0D04350395CD8A0BCD0000E1E
:1040F800396E070E4118D8A40DD0200E406E000E60
:104108000001DE6F8B96080E416E040E436E4B0E57
:10411800CB6EA9D0080E4118D8B404D00A0E4118A5
:10412800D8A413D0010E0001DE6F010E436E020108
:10413800E251010B2C6E0201D890E533E433E333EE
:10414800E233260ECB6E090E7AD0090E4118D8A498
:1041580017D0000E0001DE6F8B96010E436E2C50B7
:10416800D8B402D0710E01D0260ECB6E00D0400616
:104178004050D8A402D00B0E62D00A0E60D073D083
:104188000B0E4118D8A407D0010E0001DE6F260ED1
:10419800CB6E0C0E54D00C0E4118D8A411D0000EC2
:1041A8000001DE6F8B963150D8A403D00D0E416EFE
:1041B80057D00B0E436EF20ECB6E0E0E40D053D07E
:1041C8000E0E4118D8B404D0120E4118D8A409D044
:1041D800010E0001DE6F040E436E960ECB6E0F0EBD
:1041E8002ED00F0E4118D8A40AD0000E0001DE6FA1
:1041F8008B96010E436E950ECB6E100E20D0100ECE
:104208004118D8A409D0010E0001DE6F010E436EDB
:10421800260ECB6E110E13D0110E4118D8A411D052
:10422800000E0001DE6F8B961A0E436EF60ECB6EF3
:1042380030063050D8B402D0120E01D00D0E416EA7
:1042480012D00D0E4118D8A405D00AD0010E0001D5
:10425800E66F09D0000E0001DE6F8B96000E416EEE
:10426800CA94F4D700D09E9213D0A1A20FD0B190D7
:10427800040E3A6005D09FEC4AF0B1803A2A04D087
:10428800010E0001E66F00D0A19202D000F000D02C
:10429800F28E78C0F5FF77C0F8FF76C0F7FF75C0DB
:1042A800F6FF74C0F4FF73C0F3FF72C0DAFF71C089
:1042B800D9FF70C0E2FF6FC0E1FF6EC0EAFF6DC0BA
:1042C800E9FF6CC0FBFF6BC0FAFF11000001A86F8B
:1042D8000001A8AF3FD10001A86D0001A851800AD4
:1042E800120FD8A0B6D0000E00018A6F030E896F96
:1042F800000E0001826F0A0E816F000E00017C6FB4
:10430800640E7B6F0001A8510001796F7A6B79BF49
:104318007A07C8EC40F079C07FF07AC080F01BECD7
:104328003EF0090E00017F250001876F000E000195
:1043380080210001886FCDEC48F0890E00018725A7
:10434800F66EF10E00018821F76EF86A000EF82269
:104358000900F5CF96F00900F5CF97F00A00F5CFE0
:1043680098F0000E0001826F640E816F0001A85161
:1043780000017F6F806B7FBF80071BEC3EF0120E41
:1043880000017F250001876F000E000180210001D8
:10439800886F000E00018A6F030E896FCDEC48F01C
:1043A800890E00018725F66EF10E00018821F76E4F
:1043B800F86A000EF8220900F5CF93F00900F5CF4E
:1043C80094F00A00F5CF95F017EC37F093C0A5F0FC
:1043D80094C0A6F095C0A7F0A5C093F0A6C094F02D
:1043E800A7C095F0000E00018A6F030E896F000EBA
:1043F80000017C6F0A0E7B6F0001A8510001796FE4
:104408007A6B79BF7A07C8EC40F079C087F07AC038
:1044180088F0CDEC48F0890E00018725F66EF10E84
:1044280000018821F76EF86A000EF8220900F5CF1E
:1044380096F00900F5CF97F00A00F5CF98F017EC41
:1044480037F093C0A2F094C0A3F095C0A4F0120076
:104458006BD00001A851800A750FD8A065D0000E56
:104468000001826F0A0E816F0001A85100017F6F61
:10447800806B7FBF80071BEC3EF0090E00017F2593
:104488000001876F000E000180210001886F000E77
:1044980000018A6F030E896FCDEC48F0890E000188
:1044A8008725F66EF10E00018821F76EF86A000E76
:1044B800F8220900F5CF93F00900F5CF94F00A002F
:1044C800F5CF95F0000E00018A6F030E896F000E7C
:1044D80000017C6F0A0E7B6F0001A8510001796F03
:1044E8007A6B79BF7A07C8EC40F079C087F07AC058
:1044F80088F0CDEC48F0890E00018725F66EF10EA4
:1045080000018821F76EF86A000EF8220900F5CF3D
:1045180096F00900F5CF97F00A00F5CF98F017EC60
:1045280037F08FD7120000D00001A851030D890E73
:10453800F324F66EF10EF420F76EF86A000EF822F6
:104548000900F5CFA2F00900F5CFA3F00A00F5CFD6
:10455800A4F012000001A851800A120FD8A0B6D00A
:10456800000E00018A6F030E896F000E0001826F32
:104578000A0E816F000E00017C6F640E7B6F0001D4
:10458800A8510001796F7A6B79BF7A07C8EC40F0BF
:1045980079C07FF07AC080F01BEC3EF0090E000174
:1045A8007F250001876F000E000180210001886FC0
:1045B800CDEC48F0B00E00018725F66EF10E000133
:1045C8008821F76EF86A000EF8220900F5CF96F0F8
:1045D8000900F5CF97F00A00F5CF98F0000E00011A
:1045E800826F640E816F0001A85100017F6F806B9C
:1045F8007FBF80071BEC3EF0120E00017F250001F3
:10460800876F000E000180210001886F000E0001F5
:104618008A6F030E896FCDEC48F0B00E0001872534
:10462800F66EF10E00018821F76EF86A000EF82286
:104638000900F5CF93F00900F5CF94F00A00F5CF03
:1046480095F017EC37F093C0A5F094C0A6F095C08C
:10465800A7F0A5C093F0A6C094F0A7C095F0000EEF
:1046680000018A6F030E896F000E00017C6F0A0E2D
:104678007B6F0001A8510001796F7A6B79BF7A07C7
:10468800C8EC40F079C087F07AC088F0CDEC48F0EB
:10469800B00E00018725F66EF10E00018821F76E35
:1046A800F86A000EF8220900F5CF96F00900F5CF58
:1046B80097F00A00F5CF98F017EC37F093C0A2F006
:1046C80094C0A3F095C0A4F012006BD00001A851CB
:1046D800800A750FD8A065D0000E0001826F0A0EFF
:1046E800816F0001A85100017F6F806B7FBF800739
:1046F8001BEC3EF0090E00017F250001876F000EBC
:10470800000180210001886F000E00018A6F030EEE
:10471800896FCDEC48F0B00E00018725F66EF10EDA
:1047280000018821F76EF86A000EF8220900F5CF1B
:1047380093F00900F5CF94F00A00F5CF95F0000E3C
:1047480000018A6F030E896F000E00017C6F0A0E4C
:104758007B6F0001A8510001796F7A6B79BF7A07E6
:10476800C8EC40F079C087F07AC088F0CDEC48F00A
:10477800B00E00018725F66EF10E00018821F76E54
:10478800F86A000EF8220900F5CF96F00900F5CF77
:1047980097F00A00F5CF98F017EC37F08FD7120092
:1047A80000D00001A851030DB00EF324F66EF10EEF
:1047B800F420F76EF86A000EF8220900F5CFA2F08F
:1047C8000900F5CFA3F00A00F5CFA4F012001200FB
:1047D800000E0001936F000E0001956F000E966F9A
:1047E800000E976F000E986F000E0001906F010E7B
:1047F80000018F6F000E0001916F000E0001926F93
:1048080038D085C0D9FF86C0DAFF300EDE18D8A4AC
:104818002AD00001912B0001854B862B85C0D9FF3A
:1048280086C0DAFF780EDE18D8B408D085C0D9FF64
:1048380086C0DAFF580EDE18D8A415D00001854BC3
:10484800862B85C0D9FF86C0DAFF2F0EDF640BD018
:1048580085C0D9FF86C0DAFF3A0EDF6004D0010EAA
:104868000001926F00D00001912B0001854B862B2F
:1048780000D085C0D9FF86C0DAFFDF50D8A4C1D7E1
:1048880000019151010DF3500001855FF4500001C2
:10489800865B01D03BD085C0D9FF86C0DAFF3D0ECC
:1048A800DE18D8B411D085C0D9FF86C0DAFF2C0E27
:1048B800DE18D8B409D085C0D9FF86C0DAFFDF502A
:1048C800D8B402D023D000D085C0D9FF86C0DAFF83
:1048D800DF50D8A403D0010E12001DD085C0D9FF27
:1048E80086C0DAFF3D0EDE18D8A408D085C0D9FFEF
:1048F80086C0DAFF2C0EDE18D8B40DD0000187511F
:1049080000018F5DD8B007D000018F2B0001854BC7
:10491800862BC1D700D085C0D9FF86C0DAFFDF500B
:10492800D8A402D0010E12000001854B862B85C049
:10493800D9FF86C0DAFF200EDE18D8B41ED085C095
:10494800D9FF86C0DAFF3D0EDE18D8B408D085C07E
:10495800D9FF86C0DAFF2C0EDE18D8A403D0020EC9
:10496800120019D085C0D9FF86C0DAFF2D0EDE18D7
:10497800D8A407D0010E0001906F0001854B862B4B
:104988000AD085C0D9FF86C0DAFFDF50D8A403D08B
:10499800030E120000D0000192510001D8B41CD1BE
:1049A800000E0001906F04D00001854B862B00D0CB
:1049B80085C0D9FF86C0DAFF780EDE18D8B408D1D2
:1049C80085C0D9FF86C0DAFF580EDE18D8B400D1EA
:1049D800EBD7FED0FDD000D1000192510001D8A440
:1049E8005BD085C0D9FF86C0DAFF2F0EDF64F0D018
:1049F80085C0D9FF86C0DAFF3A0EDF60E9D095C0DE
:104A080079F096C07AF097C07BF098C07CF00A0ED7
:104A180000017D6F000E7E6F000E7F6F000E806FAD
:104A2800F0EC44F079C095F07AC096F07BC097F02E
:104A38007CC098F085C0D9FF86C0DAFFDF5000013E
:104A48008A6FD00E00018A2500018B6F00018C6BE4
:104A5800FF0E8C2300018D6B00018CBF8D070001B8
:104A68008D5100018E6F00018B51000195270001C7
:104A78008C510001962300018D51000197230001FC
:104A88008E51000198230001932B200E000193659D
:104A98009FD0040E12009CD085C0D9FF86C0DAFFD3
:104AA8002F0EDF6408D085C0D9FF86C0DAFF390E23
:104AB800DF641FD000D085C0D9FF86C0DAFF400E62
:104AC800DF6408D085C0D9FF86C0DAFF460EDF64F0
:104AD80010D000D085C0D9FF86C0DAFF600EDF6431
:104AE80077D085C0D9FF86C0DAFF670EDF6070D047
:104AF80000D00001040ED89095379637973798372D
:104B0800E82EF9D785C0D9FF86C0DAFFDF5000014B
:104B1800946F00019451A1EC49F00009D8B429D050
:104B2800940E0001796F000E00017A6F62EC49F073
:104B3800A90E0001942500018A6F00018B6BFF0EFE
:104B48008B2300018C6B00018BBF8C0700018C51FB
:104B580000018D6F00018A510001952700018B51DA
:104B68000001962300018C510001972300018D510B
:104B780027D085C0D9FF86C0DAFFDF5000018A6FD1
:104B8800D00E00018A2500018B6F00018C6BFF0E8F
:104B98008C2300018D6B00018CBF8D0700018D51A6
:104BA80000018E6F00018B510001952700018C5187
:104BB8000001962300018D510001972300018E51B9
:104BC8000001982300D00001932B5FD7120000D07A
:104BD8000001854B862B00D085C0D9FF86C0DAFF3F
:104BE800DF50D8B41AD085C0D9FF86C0DAFF200EAE
:104BF800DE18D8B412D085C0D9FF86C0DAFF2C0ED3
:104C0800DE18D8B40AD085C0D9FF86C0DAFF3D0EB9
:104C1800DE18D8B402D0E0D600D0000190510001CF
:104C2800D8B40AD00001981F971F961F956D000EE3
:104C380096239723982300D088C0D9FF89C0DAFF2C
:104C480095C0DEFF96C0DEFF97C0DEFF98C0DEFF8E
:104C5800000E12001200010E01015A6F280E000109
:104C6800796F010E00017A6F000E00017C6F320E21
:104C78007B6F97EC46F01E0E0001796F010E000164
:104C88007A6F000E00017C6F0A0E7B6F97EC46F07E
:104C9800EAEC3EF00009D8B4120001D01200280E48
:104CA8000001C76F010E0001C86F230E0001C96F14
:104CB800FC0E0001CA6F3CC0CBF03DC0CCF03EC03A
:104CC800CDF03FC0CEF0B5EC10F0280E00017A6FA1
:104CD800010E00017B6FC4EC46F0500E0001796FA5
:104CE800C30E7A6F000E7B6F000E7C6F48EC47F0A6
:104CF800000E0001796F050E00017A6FFB0E0001AE
:104D08007B6FFF0E00017C6F22EC41F00009D8A4F4
:104D180004D0000E01015A6F00D0000E0001796F17
:104D2800050E00017A6F26C07BF000017C6B97ECC2
:104D380046F0000E266E01015A510101D8B428D060
:104D4800740E00017A6FFF0E00017B6FC4EC46F011
:104D5800500E0001796FC30E7A6F000E7B6F000E44
:104D68007C6F48EC47F0000E0001796F050E0001DA
:104D78007A6FFB0E00017B6FFF0E00017C6F22EC47
:104D880041F00009D8A404D0000E01015A6F00D0E8
:104D980001015A510101D8B428D0AD0E00017A6F33
:104DA800FC0E00017B6FC4EC46F0500E0001796FD9
:104DB800C30E7A6F000E7B6F000E7C6F48EC47F0D5
:104DC800000E0001796F050E00017A6FFB0E0001DD
:104DD8007B6FFF0E00017C6F22EC41F00009D8A424
:104DE80004D0000E01015A6F00D0000E0001796F47
:104DF800050E00017A6F26C07BF000017C6B97ECF2
:104E080046F0000E266E01015A510101D8B428D08F
:104E1800880E00017A6FFF0E00017B6FC4EC46F02C
:104E2800500E0001796FC30E7A6F000E7B6F000E73
:104E38007C6F48EC47F0000E0001796F050E000109
:104E48007A6FFB0E00017B6FFF0E00017C6F22EC76
:104E580041F00009D8A404D0000E01015A6F00D017
:104E6800000E0001796F050E00017A6F26C07BF0F5
:104E780000017C6B97EC46F0000E266E01015A513A
:104E88000101D8B428D0C00E00017A6FFF0E0001CE
:104E98007B6FC4EC46F0500E0001796FC30E7A6F39
:104EA800000E7B6F000E7C6F48EC47F0000E00018F
:104EB800796F050E00017A6FFB0E00017B6FFF0E04
:104EC80000017C6F22EC41F00009D8A404D0000E48
:104ED80001015A6F00D0000E0001796F050E000124
:104EE8007A6F26C07BF000017C6B97EC46F0000ED1
:104EF800266E01015A510101D8B428D0C00E000114
:104F08007A6FFF0E00017B6FC4EC46F0500E000173
:104F1800796FC30E7A6F000E7B6F000E7C6F48ECC2
:104F280047F0000E0001796F050E00017A6FFB0E45
:104F380000017B6FFF0E00017C6F22EC41F000093D
:104F4800D8A404D0000E01015A6F00D0000E000151
:104F5800796F050E00017A6F26C07BF000017C6B2B
:104F680097EC46F0000E266E01015A510101D8B4A3
:104F78003ED0DD0E00017A6FFF0E00017B6FC4EC9E
:104F880046F0500E0001796FC30E7A6F000E7B6FEA
:104F9800000E7C6F48EC47F0280E0001C76F010E29
:104FA8000001C86F810E0001C96FFB0E0001CA6FB6
:104FB8003CC0CBF03DC0CCF03EC0CDF03FC0CEF001
:104FC800B5EC10F0000E0001796F050E00017A6F44
:104FD800280E00017B6F010E00017C6F22EC41F06E
:104FE8000009D8A404D0000E01015A6F00D0000EA9
:104FF8000001796F050E00017A6F26C07BF0000171
:105008007C6B97EC46F0000E266ED80E00017A6F86
:10501800FF0E00017B6FC4EC46F0500E0001796F63
:10502800C30E7A6F000E7B6F000E7C6F48EC47F062
:10503800000E0001796F050E00017A6FF70E00016E
:105048007B6FFF0E00017C6F22EC41F00009D8A4B1
:1050580004D0000E01015A6F00D0000E0001796FD4
:10506800050E00017A6F26C07BF000017C6B97EC7F
:1050780046F0000E266E12001200000E0001646F4A
:10508800640E0001666F000E0001606F000E616F14
:10509800000E626F000E636F000E0001656F630EF5
:1050A8000001656501D046D000016551020DF3503D
:1050B8001B24D96EF4501C20DA6EC80EDE5CAF0ECD
:1050C800DE58D8A012D000016551020DF3501B2400
:1050D800D96EF4501C20DA6E510EDE5CC30EDE5819
:1050E800D8B003D0020E120022D000016551020D83
:1050F800F3501B24D96EF4501C20DA6EA00EDE5C2F
:105108000F0EDE58D8A013D000016551020DF350E0
:105118001B24D96EF4501C20DA6E890EDE5C130E47
:10512800DE58D8B004D065C066F004D000D00001C5
:10513800652BB5D700016651206E216A201E211EFD
:10514800204A212A640E2026000E212221BE06D0E4
:10515800215006E1320E205CD8B002D0000E1200B9
:105168000001662B00016651020DF3501B24D96E15
:10517800F4501C20DA6E9D0EDE5C030EDE58D8A0BB
:105188006ED000016651020DF3501B24D96EF45005
:105198001C20DA6EE30EDE5C040EDE58D8B05FD059
:1051A80000016651020DF3501B24D96EF4501C20E7
:1051B800DA6E010EDB5004E17D0EDE5CD8A070D003
:1051C80000016651020DF3501B24D96EF4501C20C7
:1051D800DA6E590EDE5C020EDE58D8B061D00001DE
:1051E8006651020DF3501B24D96EF4501C20DA6E60
:1051F800010EDB5004E17D0EDE5CD8A051D0000129
:105208006651020DF3501B24D96EF4501C20DA6E3F
:10521800590EDE5C020EDE58D8B042D0000166514D
:10522800020DF3501B24D96EF4501C20DA6EC80E00
:10523800DE5CAF0EDE58D8A033D000016651020DF7
:10524800F3501B24D96EF4501C20DA6E510EDE5C2C
:10525800C30EDE58D8B024D0020E120021D00001AF
:105268006651020DF3501B24D96EF4501C20DA6EDF
:10527800D60EDE5C060EDE58D8A00FD000016651AF
:10528800020DF3501B24D96EF4501C20DA6EBF0EA9
:10529800DE5C0A0EDE58D8A003D0000E120000D043
:1052A8000001662B66C065F0630E0001656501D0DC
:1052B800E0D000016651020DF3501B24D96EF45062
:1052C8001C20DA6E010EDB5004E17D0EDE5CD8A0F6
:1052D8002AD000016651020DF3501B24D96EF450F8
:1052E8001C20DA6E590EDE5C020EDE58D8B01BD0D8
:1052F800000164510001D8A402D0010E49D0000E6B
:105308000001646F0001D8906037613762376337F6
:105318001F50D8A4A9D0010E00016027000E6123F8
:1053280062236323A1D000016651020DF3501B24B0
:10533800D96EF4501C20DA6EBC0EDE5C020EDE580C
:10534800D8A02CD000016651020DF3501B24D96E51
:10535800F4501C20DA6EB70EDE5C030EDE58D8B0AF
:105368001DD0000164510001D8B415D00001D890B7
:1053780060376137623763371F50D8B408D0010EE1
:1053880000016027000E61236223632300D0000E12
:105398000001646F69D0000E120066D000016651EA
:1053A800020DF3501B24D96EF4501C20DA6EDE5027
:1053B800DE10D8A413D000016405D8A40FD01DC0F6
:1053C800D9FF1EC0DAFF60C0DEFF61C0DEFF62C029
:1053D800DEFF63C0DEFF21D0120046D00001665117
:1053E800020DF3501B24D96EF4501C20DA6E380ECF
:1053F800DE5C4A0EDE58D8A013D000016651020DBB
:10540800F3501B24D96EF4501C20DA6E090EDE5CB2
:10541800520EDE58D8B004D0D2D7010E120024D0D4
:1054280000016651020DF3501B24D96EF4501C2064
:10543800DA6EC80EDE5CAF0EDE58D8A012D00001BE
:105448006651020DF3501B24D96EF4501C20DA6EFD
:10545800510EDE5CC30EDE58D8B003D0020E120027
:1054680003D0000E120000D00001662B0001652B4E
:105478001BD7000E12001200000E0201976F000EDB
:105488000201936F000E0201946F010E0201966FE4
:10549800000E0201956FAEEC4AF00CEC48F02FECD0
:1054A80044F011EC40F0A2C0DBF0A3C0DCF0A4C0D3
:1054B800DDF0DBC079F0DCC07AF0DDC07BF0CD0E2A
:1054C80000017C6F6C0E00017D6F400E00017E6F45
:1054D80083EC3EF00001D8B002D0220E15D0000EA9
:1054E8000001796FF00E00017A6F410E00017B6FA9
:1054F800DBC07CF0DCC07DF0DDC07EF083EC3EF0EC
:105508000001D8B004D0620E0201966F00D00201EB
:105518009605D8A427D0000E0201976F090E020144
:10552800976501D01DD08B828B94500E0001796F46
:10553800C30E7A6F000E7B6F000E7C6F48EC47F04D
:105548008B928B84500E0001796FC30E7A6F000E18
:105558007B6F000E7C6F48EC47F00201972BDED77B
:105568008B9424D0000E0201976F090E02019765F3
:1055780001D01CD08B82A00E0001796F860E7A6F45
:10558800010E7B6F000E7C6F48EC47F08B92A00EEB
:105598000001796F860E7A6F010E7B6F000E7C6FAB
:1055A80048EC47F00201972BE0D700D0E5C093F212
:1055B800DFC094F211EC40F0A2C0DBF0A3C0DCF035
:1055C800A4C0DDF0220E02019619D8A418D0DBC0C1
:1055D800B8F0DCC0B9F0DDC0BAF0000E0001BB6F56
:1055E800000E0001BC6F3F0E0001BD6F9DEC47F03F
:1055F800B8C0DBF0B9C0DCF0BAC0DDF01DD0620E77
:1056080002019619D8A418D0DBC0ACF0DCC0ADF00C
:10561800DDC0AEF0000E0001AF6F000E0001B06FEC
:105628003F0E0001B16F80EC2DF0ACC0DBF0ADC0D7
:10563800DCF0AEC0DDF000D0DBC079F0DCC07AF081
:10564800DDC07BF0CD0E00017C6F6C0E00017D6F1C
:10565800400E00017E6F83EC3EF00001D8B002D00E
:10566800220E17D0000E0001796FF00E00017A6F3C
:10567800410E00017B6FDBC07CF0DCC07DF0DDC03B
:105688007EF083EC3EF00001D8B002D0620E01D06B
:10569800010E0201966F00D0020193510201D8B4A5
:1056A8001BD00001E1510001E2110001E3110001EA
:1056B800E411D8B411D0E50E0001BA6F000E000154
:1056C800BB6FE1C0BCF0E2C0BDF0E3C0BEF0E4C017
:1056D800BFF0BFEC2EF000D0020194510201D8B403
:1056E80061D0000E0001796F030E00017A6F000E81
:1056F80000017C6F7B6997EC46F0000E0001816F1A
:10570800060E0001826F000E0001836F030E000178
:10571800846FE0C085F0000E0001866FA7EC43F0AF
:10572800E0C095F2000E0001796F060E00017A6F55
:10573800E0C07BF000017C6B97EC46F0000E0001A6
:10574800E06F000E0001DF6F030100510301D8B4C0
:105758000BD0000E0201006F030E0201016F95C20B
:1057680002F2FBEC00F000D0D10E00017A6FF30ECC
:1057780000017B6FC4EC46F03E0EB0EC49F000012E
:10578800E551D8B404D0000E0001E56F00D063ECF9
:105798004AF02E6EF2907D88F2864EEC4AF09E9A80
:1057A8009D8A00D00201CD510201CC1110E1880E72
:1057B8000201CA5D130E0201CB59D8B008D0010E00
:1057C8000201CA27000ECB23CC23CD23EFD6880EA7
:1057D8000201CA1908E1130E0201CB190201CC110A
:1057E8000201CD11D8A4E2D6010E0201CA27000E8B
:1057F800CB23CC23CD23000E0001E16F000EE26F16
:10580800000EE36F000EE46F000E0001E56F63EC1D
:105818004AF02E6EF2907D88F286C8D6F9EF00F035
:105828000001AB6F6D0E0001AB65C4D0000E000126
:105838008A6F030E896F000E0001826F0A0E816F56
:10584800000E00017C6F640E7B6FABC079F0000125
:105858007A6BC8EC40F079C07FF07AC080F01BEC1E
:105868003EF0090E00017F250001876F000E000140
:1058780080210001886FCDEC48F0890E0001872552
:10588800F66EF10E00018821F76EF86A000EF82214
:105898000900F5CF96F00900F5CF97F00A00F5CF8B
:1058A80098F0000E0001826F640E816FABC07FF02C
:1058B8000001806B1BEC3EF0120E00017F250001F9
:1058C800876F000E000180210001886F000E000123
:1058D8008A6F030E896FCDEC48F0890E0001872589
:1058E800F66EF10E00018821F76EF86A000EF822B4
:1058F8000900F5CF93F00900F5CF94F00A00F5CF31
:1059080095F017EC37F093C0A8F094C0A9F095C0B3
:10591800AAF0000E00018A6F030E896F000E0001C5
:105928007C6F0A0E7B6FABC079F000017A6BC8EC14
:1059380040F079C087F07AC088F0CDEC48F0890E45
:1059480000018725F66EF10E00018821F76EF86ACE
:10595800000EF8220900F5CF96F00900F5CF97F070
:105968000A00F5CF98F0A8C093F0A9C094F0AAC097
:1059780095F017EC37F093C0A5F094C0A6F095C049
:10598800A7F0A5C093F0A6C094F0A7C095F0000EAC
:105998000001966F000E0001976F3F0E0001986F8F
:1059A80017EC37F093C0A2F094C0A3F095C0A4F010
:1059B80012007AD00A0E0001AB6576D0000E000105
:1059C8008A6F030E896F000E00017C6F0A0E7B6FD1
:1059D800ABC079F000017A6BC8EC40F079C087F071
:1059E8007AC088F0CDEC48F0890E00018725F66E64
:1059F800F10E00018821F76EF86A000EF8220900FE
:105A0800F5CF96F00900F5CF97F00A00F5CF98F09A
:105A1800000E0001826F0A0E816FABC07FF000019B
:105A2800806B1BEC3EF0090E00017F250001876F9B
:105A3800000E000180210001886F000E00018A6FAE
:105A4800030E896FCDEC48F0890E00018725F66EAC
:105A5800F10E00018821F76EF86A000EF82209009D
:105A6800F5CF93F00900F5CF94F00A00F5CF95F043
:105A780017EC37F093C0A8F094C0A9F095C0AAF02D
:105A8800A8C093F0A9C094F0AAC095F0000E000138
:105A9800966F000E0001976F3F0E0001986F17EC8C
:105AA80037F080D7120000D00001AB51030D890EEA
:105AB800F324F66EF10EF420F76EF86A000EF82261
:105AC8000900F5CF93F00900F5CF94F00A00F5CF5F
:105AD80095F0000E0001966F000E0001976F3F0EC3
