:04000000F9EF00F024
:10000800FACF6BF0FBCF6CF0E9CF6DF05CEF1EF030
:10001800D8CF09F0E8CF0AF0E0CF0BF0FACF0CF018
:10002800FBCF0DF0E9CF0EF0EACF0FF0E1CF10F0E3
:10003800E2CF11F0D9CF12F0DACF13F0F3CF14F0EA
:10004800F4CF15F0F6CF16F0F7CF17F0F8CF18F079
:10005800F5CF19F0000E1A6EF29C9EAA93D047ECC9
:1000680049F01A6EB8EC49F00009D8A40FD0292835
:10007800D8B486D02950010D000EF324D96E050E90
:10008800F420DA6E1AC0DFFF292A7AD00D0E1A186A
:10009800D8B463D00A0E1A18D8B45FD07F0E1A18D5
:1000A800D8B404D0080E1A18D8A41FD00001E05103
:1000B800D8B41BD00001E029CDEC48F00001E007DE
:1000C8000001E051010D000EF324D96E060EF42054
:1000D800DA6E000EDF6E3E0E25EC49F0000E026E61
:1000E800060E036E14EC46F04BD00001E029D8B49C
:1000F8001BD00001DF51D8A443D01A5019EC49F0A5
:100108000009D8B43DD01A5025EC49F00001E0515F
:10011800010D000EF324D96E060EF420DA6E1AC013
:10012800DFFF0001E02B2CD0000E016E060E026EE0
:10013800000E046E0368B3EC47F0000E0001E06F98
:10014800FE0E026EF30E036E14EC46F0770E046E8C
:10015800FE0E056E59EC45F013D00001E051D8B4FD
:100168000FD00001DF51D8A40BD09D9AFE0E026E6D
:10017800F30E036E14EC46F0010E0001DF6F00D0A1
:100188009E9A0FD09EA00BD03B2A030E3B18D8A4F2
:1001980004D08B948B92CD9000D09E9002D000F02A
:1001A80000D0F28C19C0F5FF18C0F8FF17C0F7FF90
:1001B80016C0F6FF15C0F4FF14C0F3FF13C0DAFF32
:1001C80012C0D9FF11C0E2FF10C0E1FF0FC0EAFF63
:1001D8000EC0E9FF0DC0FBFF0CC0FAFF0BC0E0FF2B
:1001E8000AC0E8FF09C0D8FF100095EF3DF0010EE6
:1001F80002017A6F000E0201766F000E776F000E13
:10020800786F000E796F000E02017D6F000E0201FB
:100218007E6F000E02017F6F000E806F000E816FEF
:10022800000E826F000E02016F6F000E706F000EDD
:10023800716F000E726F000E0201736F000E0201E3
:10024800756F000E0201746F000E02016E6F000ED2
:100258000001796F020E00017A6F000E00017C6FB9
:10026800640E7B6FBAEC45F0640E0001796F020EE4
:1002780000017A6F000E00017C6F0A0E7B6FBAECEA
:1002880045F08CC17CF08DC17DF0C60E00017E6FFB
:10029800FF0E00017F6FD4EC39F00009D8B483D089
:1002A8008CC17CF08DC17DF08E0E00017E6FF30E47
:1002B80000017F6F9DEC42F00009D8B412D0C90E3E
:1002C8000001816FF30E0001826F010E0001836F40
:1002D8000C0E0001846F080E0001856F94EC47F046
:1002E80054D08CC17CF08DC17DF09D0E00017E6FD5
:1002F800F30E00017F6F9DEC42F00009D8B412D0D4
:10030800D50E0001816FF30E0001826F010E00010E
:10031800836F0C0E0001846F080E0001856F94EC4A
:1003280047F033D08CC17CF08DC17DF0AC0E00015C
:100338007E6FF30E00017F6F9DEC42F00009D8B488
:1003480012D0E10E0001816FF30E0001826F010EE1
:100358000001836F0C0E0001846F080E0001856F89
:1003680094EC47F012D0BB0E00017A6FF30E000137
:100378007B6FE7EC45F0FE0E00017A6FF30E00018B
:100388007B6FE7EC45F0120000D002017A510201C0
:10039800D8B41200570E00017C6FFB0E00017D6F70
:1003A800F1EC44F012008CC17CF08DC17DF0CC0ED4
:1003B80000017E6FFF0E00017F6FD4EC39F0000959
:1003C800D8B46AD18CC17CF08DC17DF0CA0E000111
:1003D8007E6FF20E00017F6F9DEC42F00009D8B4E9
:1003E80012D0FE0E0001816FF20E0001826F020E24
:1003F8000001836F100E0001846F080E0001856FE5
:1004080094EC47F03BD18CC17CF08DC17DF0A40EFB
:1004180000017E6FF20E00017F6F9DEC42F0000933
:10042800D8B412D0EE0E0001816FF20E0001826F77
:10043800020E0001836F100E0001846F080E000188
:10044800856F94EC47F01AD18CC17CF08DC17DF09A
:10045800DC0E00017E6FF20E00017F6F9DEC42F012
:100468000009D8B412D01E0E0001816FF30E0001EE
:10047800826F020E0001836F100E0001846F080E58
:100488000001856F94EC47F0F9D08CC17CF08DC1E8
:100498007DF0B70E00017E6FF20E00017F6F9DECBC
:1004A80042F00009D8B412D00E0E0001816FF30E8D
:1004B8000001826F020E0001836F100E0001846F2D
:1004C800080E0001856F94EC47F0D8D08CC17CF001
:1004D8008DC17DF0680E00017E6FF20E00017F6F06
:1004E8009DEC42F00009D8B412D03E0E0001816F95
:1004F800F30E0001826F020E0001836F100E0001DF
:10050800846F080E0001856F94EC47F0B7D08CC15A
:100518007CF08DC17DF0290E00017E6FF20E000186
:100528007F6F9DEC42F00009D8B412D02E0E000166
:10053800816FF30E0001826F020E0001836F100EAF
:100548000001846F080E0001856F94EC47F096D087
:100558008CC17CF08DC17DF07C0E00017E6FF20EA7
:1005680000017F6F9DEC42F00009D8B412D05E0EF6
:100578000001816FF30E0001826F020E0001836F8C
:10058800100E0001846F080E0001856F94EC47F08F
:1005980075D08CC17CF08DC17DF03E0E00017E6F60
:1005A800F20E00017F6F9DEC42F00009D8B412D022
:1005B8004E0E0001816FF30E0001826F020E0001E2
:1005C800836F100E0001846F080E0001856F94EC94
:1005D80047F054D08CC17CF08DC17DF0900E0001A5
:1005E8007E6FF20E00017F6F9DEC42F00009D8B4D7
:1005F80012D07E0E0001816FF30E0001826F020E91
:100608000001836F100E0001846F080E0001856FD2
:1006180094EC47F033D08CC17CF08DC17DF0530E43
:1006280000017E6FF20E00017F6F9DEC42F0000921
:10063800D8B412D04E0E0001816FF30E0001826F04
:10064800030E0001836F100E0001846F080E000175
:10065800856F94EC47F012D0BB0E00017A6FF30E51
:1006680000017B6FE7EC45F0FE0E00017A6FF30E98
:1006780000017B6FE7EC45F0120000D002017A51CF
:100688000201D8B41200740E00017C6FFB0E000149
:100698007D6FF1EC44F012008CC17CF08DC17DF0CF
:1006A800EF0E00017E6FFF0E00017F6FD4EC39F072
:1006B8000009D8B4E0D18CC185F08DC186F0020E56
:1006C8000001876F7F0E0001886F020E0001896F9D
:1006D80090EC23F00009D8A4C9D00201825102018C
:1006E800811104E102018005D8A011D0420E000159
:1006F8007C6FFA0E00017D6FF1EC44F0FE0E0001F4
:100708007A6FF30E00017B6FE7EC45F012007FC2B1
:100718007EF28CC185F08DC186F0010E0001876FD5
:100728007F0E0001886F020E0001896F90EC23F0A4
:100738000009D8A492D0020182510201811104E17A
:1007480002018005D8A011D0610E00017C6FFA0E5D
:1007580000017D6FF1EC44F0FE0E00017A6FF30E9C
:1007680000017B6FE7EC45F012007FC27DF2000EBE
:100778000001C76F020E0001C86FE70E0001C96FC4
:10078800FC0E0001CA6F7DC2CBF00001CC6B7BEC84
:1007980010F0000E00017C6F020E00017D6FF1EC7D
:1007A80044F0000E0001C76F020E0001C86FD20EA0
:1007B8000001C96FFC0E0001CA6F7EC2CBF00001B8
:1007C800CC6B7BEC10F0000E00017C6F020E000178
:1007D8007D6FF1EC44F07EC27DF002017D5199EC11
:1007E80038F07DC076F27EC077F27FC078F280C0A4
:1007F80079F276C28EF077C28FF078C290F079C223
:1008080091F0000E0001926F4EEC42F0000E0001D4
:10081800C76F020E0001C86F630E0001C96FFC0E9E
:100828000001CA6F76C2CBF077C2CCF078C2CDF0A7
:1008380079C2CEF07BEC10F0000E00017C6F020E46
:1008480000017D6FF1EC44F0FE0E00017A6FF30EAB
:1008580000017B6FE7EC45F01200220E00017C6F6F
:10086800FA0E00017D6FF1EC44F012008CC185F0A6
:100878008DC186F0010E0001876F760E0001886F2A
:10088800020E0001896F90EC23F00009D8A48AD0E9
:1008980076C28EF077C28FF078C290F079C291F06C
:1008A800000E0001926F4EEC42F0000E0001C76F7F
:1008B800020E0001C86F630E0001C96FFD0E000132
:1008C800CA6F76C2CBF077C2CCF078C2CDF079C2CD
:1008D800CEF07BEC10F0000E00017C6F020E0001E0
:1008E8007D6FF1EC44F076C27DF077C27EF078C27D
:1008F8007FF079C280F07D0E0001816F020E000149
:10090800826F7E0E0001836F020E0001846F03EC7C
:1009180041F00009D8B435D0000E0001C76F020EAF
:100928000001C86FEB0E0001C96FFC0E0001CA6F11
:100938007DC2CBF00001CC6B7BEC10F0000E000107
:100948007C6F020E00017D6FF1EC44F0000E000197
:10095800C76F020E0001C86FF00E0001C96FF70ED5
:100968000001CA6F7EC2CBF00001CC6B7BEC10F0AB
:10097800000E00017C6F020E00017D6FF1EC44F067
:1009880008D0610E00017C6FF90E00017D6FF1EC5B
:1009980044F0FE0E00017A6FF30E00017B6FE7EC66
:1009A80045F01200FE0E00017A6FF30E00017B6F16
:1009B800E7EC45F01B0E00017C6FFB0E00017D6F1C
:1009C800F1EC44F0FE0E00017A6FF30E00017B6F2C
:1009D800E7EC45F0B20E00017C6FFF0E00017D6F61
:1009E800F1EC44F03B0E00017C6FFD0E00017D6FC1
:1009F800F1EC44F0690E00017C6FFF0E00017D6F81
:100A0800F1EC44F0A70E00017C6FFC0E00017D6F35
:100A1800F1EC44F0FE0E00017A6FF30E00017B6FDB
:100A2800E7EC45F0910E00017C6FFF0E00017D6F31
:100A3800F1EC44F0FE0E00017C6FFD0E00017D6FAD
:100A4800F1EC44F06B0E00017C6FFF0E00017D6F2E
:100A5800F1EC44F0560E00017C6FFE0E00017D6F34
:100A6800F1EC44F0FE0E00017A6FF30E00017B6F8B
:100A7800E7EC45F012008CC17CF08DC17DF01A0EB8
:100A880000017E6FFF0E00017F6FD4EC39F0000982
:100A9800D8B4C8D28CC188F08DC189F09BEC32F0F3
:100AA8000009D8B466D201018E2B8CC185F08DC1A6
:100AB80086F0010E0001876F7F0E0001886F020E1D
:100AC8000001896F90EC23F00009D8A452D20201EA
:100AD8008251020181110201801104E1150E020107
:100AE8007F5DD8B02CD202017F5102018011020132
:100AF800811102018211D8B422D28CC17CF08DC13F
:100B08007DF09B0E00017E6FFD0E00017F6FD4EC1F
:100B180039F00009D8A423D1FE0E01018F6FFF0E12
:100B28000101906F7FC291F180C292F1D8900101CA
:100B38009137923701018F5101019127010190519D
:100B480001019223000E0101936F040E0101946FBD
:100B5800050E01019327000E942301019151010113
:100B680093270101925101019423010E010193255C
:100B7800D96E000E01019421DA6EDF5000017D6FFD
:100B8800FE0E0101956FFF0E0101966F7FC297F16E
:100B980080C298F1D8900101973798370101955193
:100BA800010197270101965101019823050E0101C2
:100BB8009725D96E040E01019821DA6EDF5099EC61
:100BC80038F07DC06FF27EC070F27FC071F280C0D5
:100BD80072F202016F2908E1020171290201701104
:100BE80002017211D8B4A9D06FC28EF070C28FF012
:100BF80071C290F072C291F0000E0001926F4EEC3B
:100C080042F0000E0001C76F020E0001C86FFC0E13
:100C18000001C96FFC0E0001CA6F6FC2CBF070C231
:100C2800CCF071C2CDF072C2CEF07BEC10F0000EA9
:100C380000017C6F020E00017D6FF1EC44F0000EA4
:100C48000001C76F020E0001C86FD50E0001C96F01
:100C5800F70E0001CA6FFE0E01018F6FFF0E010132
:100C6800906F7FC291F180C292F1D89001019137C3
:100C7800923701018F510101912701019051010122
:100C88009223050E01019125D96E040E01019221CE
:100C9800DA6EDF500101936F010193510001CB6FB0
:100CA800CC6BFE0E0101946FFF0E0101956F7FC2A0
:100CB80096F180C297F1D8900101963797370101D4
:100CC8009451010196270101955101019723000EC6
:100CD8000101986F040E0101996F050E0101982713
:100CE800000E99230101965101019827010197519E
:100CF80001019923010E01019825D96E000E010109
:100D08009921DA6EDF5001019A6F01019A510001B1
:100D1800CD6FCE6B7BEC10F0000E00017C6F020EE5
:100D280000017D6FF1EC44F0FE0E00017A6FF30EC6
:100D380000017B6FE7EC45F01200FE0E00017A6FB0
:100D4800F30E00017B6FE7EC45F0360E00017C6F77
:100D5800F60E00017D6FF1EC44F012000AD1E7ECC9
:100D680042F00009D8B4120001D01200E1C07DF0B1
:100D7800E2C07EF0E3C07FF0E4C080F07D0E0001A9
:100D8800816F020E0001826F7E0E0001836F020EDA
:100D98000001846F03EC41F0FE0E01018F6FFF0E1E
:100DA8000101906F7FC291F180C292F1D890010148
:100DB8009137923701018F5101019127010190511B
:100DC80001019223050E01019125D96E040E01013E
:100DD8009221DA6E7DC2DFFFFE0E01018F6FFF0EDA
:100DE8000101906F7FC291F180C292F1D890010108
:100DF8009137923701018F510101912701019051DB
:100E080001019223000E0101936F040E0101946FFA
:100E1800050E01019327000E942301019151010150
:100E280093270101925101019423010E0101932599
:100E3800D96E000E01019421DA6E7EC2DFFF0CEC40
:100E480047F0FE0E00017A6FF30E00017B6FE7ECAE
:100E580045F0000E0001C76F020E0001C86F650E55
:100E68000001C96FF60E0001CA6F7FC2CBF080C2C5
:100E7800CCF081C2CDF082C2CEF0E1C0CFF0E2C0AA
:100E8800D0F0E3C0D1F0E4C0D2F07BEC10F0000E5B
:100E980000017C6F020E00017D6FF1EC44F0000E42
:100EA8000001C76F020E0001C86FD50E0001C96F9F
:100EB800F70E0001CA6F7DC2CBF00001CC6B7EC279
:100EC800CDF00001CE6B7BEC10F0000E00017C6FC2
:100ED800020E00017D6FF1EC44F0FE0E00017A6F06
:100EE800F30E00017B6FE7EC45F0000E0201836F03
:100EF800090E0201836502D0120012008B84500E85
:100F08000001796FC30E7A6F000E7B6F000E7C6F45
:100F18006BEC46F08B94500E0001796FC30E7A6F1C
:100F2800000E7B6F000E7C6F6BEC46F00201832B8A
:100F3800090E02018365E2D7120012001AD0FE0ED4
:100F480000017A6FF30E00017B6FE7EC45F0F50EB8
:100F580000017C6FF80E00017D6FF1EC44F0FE0E8D
:100F680000017A6FF30E00017B6FE7EC45F0120089
:100F780000D0FE0E00017A6FF30E00017B6FE7ECE4
:100F880045F03E0E00017C6FF90E00017D6FF1EC1B
:100F980044F0FE0E00017A6FF30E00017B6FE7EC60
:100FA80045F0B20E00017C6FFF0E00017D6FF1EC81
:100FB80044F0670E00017C6FFE0E00017D6FF1ECBE
:100FC80044F08B0E00017C6FFD0E00017D6FF1EC8B
:100FD80044F0FE0E00017A6FF30E00017B6FE7EC20
:100FE80045F0910E00017C6FFF0E00017D6FF1EC62
:100FF80044F0960E00017C6FFE0E00017D6FF1EC4F
:1010080044F0100E00017C6FFE0E00017D6FF1ECC4
:1010180044F0FE0E00017A6FF30E00017B6FE7ECDF
:1010280045F012008CC17CF08DC17DF0B90E000135
:101038007E6FFF0E00017F6FD4EC39F00009D8A451
:1010480010D08CC17CF08DC17DF09A0E00017E6FAE
:10105800FF0E00017F6FD4EC39F00009D8B4A1EF7E
:101068000CF08CC17CF08DC17DF0B90E00017E6F53
:10107800FF0E00017F6FD4EC39F00009D8B402D01C
:10108800010E01D0000E02016E6F00D08CC188F0F5
:101098008DC189F09BEC32F00009D8A411D0AB0EB9
:1010A80000017C6FF80E00017D6FF1EC44F0FE0E3C
:1010B80000017A6FF30E00017B6FE7EC45F0120038
:1010C80001018E2BFE0E00017A6FF30E00017B6F7B
:1010D800E7EC45F08CC185F08DC186F0010E00016A
:1010E800876F7F0E0001886F020E0001896F90ECF8
:1010F80023F00009D8A403D07FC27CF211D0AB0E34
:1011080000017C6FF80E00017D6FF1EC44F0FE0EDB
:1011180000017A6FF30E00017B6FE7EC45F01200D7
:1011280002017C510201D8B405D0020E02017C658F
:1011380012D000D0D00E00017C6FF80E00017D6F38
:10114800F1EC44F0FE0E00017A6FF30E00017B6FA4
:10115800E7EC45F012008CC179F08DC17AF0010EF0
:1011680000017B6F640E00017C6F020E00017D6F31
:1011780086EC3BF00009D8B411D0DD0E00017C6F7D
:10118800FA0E00017D6FF1EC44F0FE0E00017A6F5B
:10119800F30E00017B6FE7EC45F01200640E0001CE
:1011A800796F020E00017A6F52EC47F00201655127
:1011B800D8B405D0200E02016519D8A4ADD3000E0D
:1011C8000201656F02017C05D8A415D0F60E000156
:1011D8007C6FF30E00017D6F640E00017E6F020EBE
:1011E80000017F6FD4EC39F00009D8A419D0000EA3
:1011F80002017A6F15D0020E02017C19D8A410D012
:10120800FA0E00017C6FF30E00017D6F640E000181
:101218007E6F020E00017F6FD4EC39F0E5D700D065
:1012280002017A510201D8A411D0FC0E00017C6F92
:10123800FA0E00017D6FF1EC44F0FE0E00017A6FAA
:10124800F30E00017B6FE7EC45F0120002017C050C
:10125800D8A417D0640E02016419D8A402D0000ED5
:10126800B9D0650E02016419D8A402D0010EB2D01B
:10127800660E02016419D8A41200020EABD0120047
:10128800AED0020E02017C19D8A4A9D0620E0201C8
:101298006419D8A402D0030E9DD0640E020164190B
:1012A800D8A402D0040E96D0680E02016419D8A4FE
:1012B8001200000E0001796F060E00017A6FE0C07F
:1012C8007BF000017C6BBAEC45F0000E0001E06F8A
:1012D800000E0001DF6FA40E00017A6FFE0E000100
:1012E8007B6FE7EC45F0FE0E00017A6FF30E00010C
:1012F8007B6FE7EC45F03E0EF0EC48F0000E020183
:10130800736F8EEC49F09E9A9D8A23D0E00E0001FF
:10131800796F930E7A6F040E7B6F000E7C6F6BEC07
:1013280046F00201732B190E0201736512D0FE0EEE
:1013380000017A6FF30E00017B6FE7EC45F0AC0E0D
:1013480000017C6FF40E00017D6FF1EC44F0120097
:1013580000D00001DF51D8B4D9D79D9A010E0201FF
:101368007A6F300E0601006505D0330E0601006560
:101378000DD000D0DE0E00017C6FF40E00017D6FF1
:10138800F1EC44F0000E02017A6F00D0000E00016B
:10139800796F060E00017A6FE0C07BF000017C6B6C
:1013A800BAEC45F0000E0001E06F000E0001DF6F9F
:1013B80002017A510201D8B4120001D012008CC186
:1013C800D9FF8DC1DAFFDF50D00F0201756F02011E
:1013D8007551040F02017B6F02D0120000D0020188
:1013E8006E510201D8B4D3D1E7EC42F00009D8B469
:1013F800120001D01200FE0E00017A6FF30E0001F8
:101408007B6FE7EC45F0E1C07DF0E2C07EF0E3C021
:101418007FF0E4C080F07D0E0001816F020E0001B4
:10142800826F7E0E0001836F020E0001846F03EC51
:1014380041F0000E02017A6F000E0201836F020E66
:101448000201836501D053D002017B51060D000EC5
:1014580001018F6F040E0101906F2E0E01018F277D
:10146800000E9023F35001018F27F45001019023BF
:1014780002018351020DF35001018F25D96EF450FA
:1014880001019021DA6EDF50D8A42ED002017B51E1
:10149800060D000E01018F6F040E0101906F2E0ED4
:1014A80001018F27000E9023F35001018F27F4507C
:1014B8000101902302018351020DF35001018F278E
:1014C800F45001019023010E01018F25D96E000E01
:1014D80001019021DA6EDF50D8A406D083C274F2DD
:1014E800010E02017A6F03D00201832BA8D70201F3
:1014F8007A510201D8A409D0590E00017C6FF80E68
:1015080000017D6FF1EC44F01200010E02017A6FC8
:10151800020174510201D8B462D0000E0201836F37
:1015280056D002017B51060D000E01018F6F040E8B
:101538000101906F2E0E01018F27000E9023F350AA
:1015480001018F27F4500101902302018351020DFC
:10155800F35001018F25D96EF45001019021DA6E04
:1015680002017D51DE18D8A42FD002017B51060D4F
:10157800000E01018F6F040E0101906F2E0E010104
:101588008F27000E9023F35001018F27F45001019B
:10159800902302018351020DF35001018F27F4506B
:1015A80001019023010E01018F25D96E000E010162
:1015B8009021DA6E02017E51DE18D8A405D0000E03
:1015C80002017A6F0CD000D00201832B00D00201F7
:1015D80074510201835DD8B002D0A3D700D00201B4
:1015E8007A510201D8A409D0A70E00017C6FF70E2A
:1015F80000017D6FF1EC44F0120002017B51060DF1
:10160800000E01018F6F040E0101906F2E0E010173
:101618008F27000E9023F35001018F27F45001010A
:10162800902302017451020DF35001018F25D96EE8
:10163800F45001019021DA6E7DC2DFFF02017B5177
:10164800060D000E01018F6F040E0101906F2E0E22
:1016580001018F27000E9023F35001018F27F450CA
:101668000101902302017451020DF35001018F27EB
:10167800F45001019023010E01018F25D96E000E4F
:1016880001019021DA6E7EC2DFFF0CEC47F0020107
:1016980075510201D8B423D0000E0001C76F020EA5
:1016A8000001C86F010E0001C96FF40E0001CA6F76
:1016B800E1C0CBF0E2C0CCF0E3C0CDF0E4C0CEF0A6
:1016C8007CC2CFF00001D06B64C2D1F00001D26BB4
:1016D80075C2D3F00001D46B7BEC10F01FD0000E64
:1016E8000001C76F020E0001C86F400E0001C96FEC
:1016F800F40E0001CA6FE1C0CBF0E2C0CCF0E3C049
:10170800CDF0E4C0CEF07CC2CFF00001D06B64C253
:10171800D1F00001D26B7BEC10F000D0000E00017C
:101728007C6F020E00017D6FF1EC44F0FE0E0001AB
:101738007A6FF30E00017B6FE7EC45F0000E0201B3
:10174800836F090E0201836502D0120012008B8498
:10175800500E0001796FC30E7A6F000E7B6F000E7A
:101768007C6F6BEC46F08B94500E0001796FC30EC2
:101778007A6F000E7B6F000E7C6F6BEC46F00201F7
:10178800832B090E02018365E2D712001200000EB6
:101798000201836F020E0201836501D04BD0020162
:1017A8007B51060D000E01018F6F040E0101906F31
:1017B8002E0E01018F27000E9023F35001018F2771
:1017C800F4500101902302018351020DF3500101ED
:1017D8008F25D96EF45001019021DA6E000EDF6E6C
:1017E80002017B51060D000E01018F6F040E0101ED
:1017F800906F2E0E01018F27000E9023F3500101E8
:101808008F27F4500101902302018351020DF350F8
:1018180001018F27F45001019023010E01018F254A
:10182800D96E000E01019021DA6E000EDF6E020102
:10183800832BB0D70CEC47F0020175510201D8B4E4
:101848001BD0000E0001C76F020E0001C86F760E94
:101858000001C96FF40E0001CA6F7CC2CBF0000111
:10186800CC6B64C2CDF00001CE6B75C2CFF0000125
:10187800D06B7BEC10F017D0000E0001C76F020E82
:101888000001C86F010E0001C96FF80E0001CA6F90
:101898007CC2CBF00001CC6B64C2CDF00001CE6BF2
:1018A8007BEC10F000D0000E00017C6F020E0001EE
:1018B8007D6FF1EC44F0FE0E00017A6FF30E00012B
:1018C8007B6FE7EC45F0000E0201836F090E020101
:1018D800836502D0120012008B84500E0001796FCC
:1018E800C30E7A6F000E7B6F000E7C6F6BEC46F0B8
:1018F8008B94500E0001796FC30E7A6F000E7B6FC8
:10190800000E7C6F6BEC46F00201832B090E02017E
:101918008365E2D7120012002D0E00017C6FF80ECD
:1019280000017D6FF1EC44F0FE0E00017A6FF30EBA
:1019380000017B6FE7EC45F012008CC17CF08DC193
:101948007DF0D20E00017E6FFF0E00017F6F9DECCF
:1019580042F00009D8B497D0000E0001796F060E46
:1019680000017A6FE0C07BF000017C6BBAEC45F0B7
:10197800000E0001E06F000E0001DF6F020E000193
:101988007A6FFA0E00017B6FE7EC45F0FE0E00015E
:101998007A6FF30E00017B6FE7EC45F03E0EF0EC3A
:1019A80048F0000E0201736F8EEC49F09E9A9D8AF2
:1019B80023D0E00E0001796F930E7A6F040E7B6FCF
:1019C800000E7C6F6BEC46F00201732B190E0201BE
:1019D800736512D0FE0E00017A6FF30E00017B6F63
:1019E800E7EC45F03A0E00017C6FFB0E00017D6FBD
:1019F800F1EC44F0120000D00001DF51D8B4D9D77F
:101A08009D9A590E06010019D8B409D0790E06011D
:101A18000019D8A414D006010151D8A410D0220E60
:101A280000017C6FFE0E00017D6FF1EC44F0000EAA
:101A380004012D6F0CEC47F0FF00120011D0FE0ED0
:101A480000017A6FF30E00017B6FE7EC45F03A0E68
:101A580000017C6FFB0E00017D6FF1EC44F000D0BB
:101A6800000E0001796F060E00017A6FE0C07BF06E
:101A780000017C6BBAEC45F0000E0001E06F000E2F
:101A88000001DF6F12008CC17CF08DC17DF0A30EC8
:101A980000017E6FFF0E00017F6F9DEC42F0000990
:101AA800D8B42FD0FE0E00017A6FF30E00017B6FC1
:101AB800E7EC45F0000E0001C76F020E0001C86F89
:101AC800770E0001C96FFD0E0001CA6F99EC3FF057
:101AD800A2C0CBF0A3C0CCF0A4C0CDF07BEC10F03A
:101AE800000E00017C6F020E00017D6FF1EC44F0E6
:101AF800FE0E00017A6FF30E00017B6FE7EC45F0F4
:101B080012008CC17CF08DC17DF0120E00017E6F39
:101B1800FC0E00017F6F9DEC42F00009D8B42DD077
:101B2800FE0E00017A6FF30E00017B6FE7EC45F0C3
:101B3800000E0001C76F020E0001C86F260E0001DB
:101B4800C96FFD0E0001CA6FED0E0001CB6FF30ED9
:101B58000001CC6F7BEC10F0000E00017C6F020ED0
:101B680000017D6FF1EC44F0FE0E00017A6FF30E78
:101B780000017B6FE7EC45F012008CC179F08DC154
:101B88007AF0EB0E00017B6FFF0E00017C6FB5EC65
:101B980044F00009D8B491D2FE0E00017A6FF30E1A
:101BA80000017B6FE7EC45F0000E0201836F210E08
:101BB8000201836501D006D07E0EF0EC48F00201E8
:101BC800832BF5D7F30E00017A6FFB0E00017B6FB4
:101BD800E7EC45F0000E0201836F210E02018365D8
:101BE80001D006D07E0EF0EC48F00201832BF5D729
:101BF800FE0E00017A6FF30E00017B6FE7EC45F0F3
:101C0800FE0E00017A6FF30E00017B6FE7EC45F0E2
:101C1800450E00017C6FFE0E00017D6FF1EC44F073
:101C2800EB0E00017C6FFF0E00017D6F7E0E000140
:101C38007E6FFF0E00017F6FF7EC3AF0D20E0001C5
:101C48007C6FFF0E00017D6FE20E00017E6FF90EC2
:101C580000017F6FF7EC3AF0120E00017C6FFC0E6A
:101C680000017D6F000E00017E6FFC0E00017F6F8A
:101C7800F7EC3AF0FE0E00017A6FF30E00017B6F6D
:101C8800E7EC45F0110E00017C6FFD0E00017D6F41
:101C9800F1EC44F0A30E00017C6FFF0E00017D6F94
:101CA800AD0E00017E6FFB0E00017F6FF7EC3AF07E
:101CB800FE0E00017A6FF30E00017B6FE7EC45F032
:101CC800BF0E00017C6FFE0E00017D6FF1EC44F049
:101CD800010E0201836F140E0201836501D030D01A
:101CE800000E0001796F020E00017A6F000E0001EC
:101CF8007C6F320E7B6FBAEC45F0000E0001C76FA7
:101D0800020E0001C86F870E0001C96FFE0E0001A8
:101D1800CA6F83C2CBF00001CC6B7BEC10F0000ED5
:101D280000017C6F020E00017D6F1A0E00017E6FAC
:101D3800FC0E00017F6FF7EC3AF00201832BCBD742
:101D4800010E0201836F140E0201836501D030D0A9
:101D5800000E0001796F020E00017A6F000E00017B
:101D68007C6F320E7B6FBAEC45F0000E0001C76F36
:101D7800020E0001C86FEB0E0001C96FFD0E0001D5
:101D8800CA6F83C2CBF00001CC6B7BEC10F0000E65
:101D980000017C6F020E00017D6F4B0E00017E6F0B
:101DA800FC0E00017F6FF7EC3AF00201832BCBD7D2
:101DB800320E00017C6FFF0E00017D6F410E0001A5
:101DC8007E6FF50E00017F6FF7EC3AF0480E0001C8
:101DD8007C6FFF0E00017D6FA30E00017E6FF50E74
:101DE80000017F6FF7EC3AF0530E00017C6FFF0E95
:101DF80000017D6FD40E00017E6FF50E00017F6F2C
:101E0800F7EC3AF0270E00017C6FFF0E00017D6FA2
:101E1800100E00017E6FF50E00017F6FF7EC3AF0AF
:101E28003D0E00017C6FFF0E00017D6F720E0001F8
:101E38007E6FF50E00017F6FF7EC3AF05E0E000141
:101E48007C6FFF0E00017D6F050E00017E6FF60EA0
:101E580000017F6FF7EC3AF0D90E00017C6FFE0E9F
:101E680000017D6FC10E00017E6FF60E00017F6FCD
:101E7800F7EC3AF0F30E00017C6FFE0E00017D6F67
:101E88001D0E00017E6FF70E00017F6FF7EC3AF030
:101E9800000E00017C6FFF0E00017D6F4B0E0001EC
:101EA8007E6FF70E00017F6FF7EC3AF0CC0E000161
:101EB8007C6FFE0E00017D6F930E00017E6FF60EA3
:101EC80000017F6FF7EC3AF0E60E00017C6FFE0E22
:101ED80000017D6FEF0E00017E6FF60E00017F6F2F
:101EE800F7EC3AF00D0E00017C6FFF0E00017D6FDC
:101EF800790E00017E6FF70E00017F6FF7EC3AF064
:101F0800E20E00017C6FFF0E00017D6F830E000161
:101F18007E6FF80E00017F6FF7EC3AF0FE0E0001BD
:101F28007A6FF30E00017B6FE7EC45F0B20E00010B
:101F38007C6FFE0E00017D6FF1EC44F08E0E000107
:101F48007C6FF30E00017D6F9F0E00017E6FFD0E0A
:101F580000017F6FF7EC3AF09D0E00017C6FF30EE5
:101F680000017D6FB20E00017E6FFD0E00017F6FD4
:101F7800F7EC3AF0AC0E00017C6FF30E00017D6FB8
:101F8800C50E00017E6FFD0E00017F6FF7EC3AF081
:101F9800CA0E00017C6FF20E00017D6F910E0001E8
:101FA8007E6FFC0E00017F6FF7EC3AF0A40E000183
:101FB8007C6FF20E00017D6F7A0E00017E6FFC0EC1
:101FC80000017F6FF7EC3AF0DC0E00017C6FF20E37
:101FD80000017D6FD80E00017E6FFD0E00017F6F3E
:101FE800F7EC3AF0B70E00017C6FF20E00017D6F3E
:101FF8004F0E00017E6FFD0E00017F6FF7EC3AF087
:10200800680E00017C6FF20E00017D6F800E0001EA
:102018007E6FFA0E00017F6FF7EC3AF0290E00018F
:102028007C6FF20E00017D6F820E00017E6FF90E4B
:1020380000017F6FF7EC3AF07C0E00017C6FF20E26
:1020480000017D6F9F0E00017E6FFA0E00017F6F09
:10205800F7EC3AF03E0E00017C6FF20E00017D6F46
:10206800A20E00017E6FF90E00017F6FF7EC3AF0C7
:10207800900E00017C6FF20E00017D6FBE0E000114
:102088007E6FFA0E00017F6FF7EC3AF0530E0001F5
:102098007C6FF20E00017D6FC20E00017E6FF90E9B
:1020A80000017F6FF7EC3AF0FE0E00017A6FF30E35
:1020B80000017B6FE7EC45F01200BB0E00017C6F5E
:1020C800F30E00017D6FF1EC44F0E50E00017C6F2A
:1020D800FB0E00017D6FF1EC44F0FE0E00017A6FFB
:1020E800F30E00017B6FE7EC45F012001200CB0EF7
:1020F8000101086F000E0101096F03EF18F0250EAA
:1021080001011D19D8B40BD0C7C0D9FFC8C0DAFF68
:102118001DC1DFFF0001C74BC82B03EF18F0000EED
:1021280001011A6F000E196F000E01011C6F000EDD
:102138001B6F07D001011B850001C94BCA2B01D0B9
:102148000CD0C9C0F6FFCAC0F7FFF86A0800F550FE
:10215800300AD8B4EFD701D0F4D7C9C0F6FFCAC047
:10216800F7FFF86A0800F55075EC48F0D8A00DD1D3
:10217800000E01011A6F000E196F00D019C187F007
:102188001AC188F0000E00018A6F0A0E896F0DECE3
:1021980048F087C019F188C01AF1D00E0001D56F38
:1021A800FF0E0001D66FC9C0F6FFCAC0F7FFF86A74
:1021B8000800F5500001D76FD86B0001D551000118
:1021C800D7270001D6510001D8230001D7510101BA
:1021D80019270001D85101011A230001C94BCA2B44
:1021E800C9C0F6FFCAC0F7FFF86A0800F55075ECD9
:1021F80048F0D8A0CAD0C2D7C8D015EF18F001014E
:102208001B89C3D001011C85EAD000D001011B8FB6
:10221800E6D008C1D9FF09C1DAFFDECF04F1DDCF6E
:1022280005F1020E01010827000E092301010451DE
:1022380001010511D8A407D0AB0E0101046FFF0EF0
:102248000101056F00D0000E0101076F000E066F37
:1022580004D00101064B072B00D0010106510101F2
:1022680004250001D56F0101075101010521000175
:10227800D66FD5C0F6FFD6C0F7FF000EF86E0F0E6A
:10228800F76403D00800F55005D0F6CFE9FFF7CF83
:10229800EAFFEF500009D8B402D0DBD700D0010123
:1022A80019510101065D01011A5101010759D8B000
:1022B80009D0010106510101195F0101075101010E
:1022C8001A5B10D0000E01011A6F000E196F0AD0A8
:1022D800C7C0D9FFC8C0DAFF200EDF6E0001C74BA8
:1022E800C82B00D001011907D8A01A070101192924
:1022F800EFE101011A29D8B41FD0EAD71DD004C1D3
:10230800F6FF05C1F7FF000EF86EC7C0D9FFC8C0B9
:10231800DAFF0F0EF76403D00800F55005D0F6CFAA
:10232800E9FFF7CFEAFFEF50DF6E0101044B052B01
:102338000001C74BC82B00D001010607D8A007072A
:1023480001010629DCE101010729D8B403EF18F0DF
:10235800D6D703EF18F008C1D9FF09C1DAFFDF505B
:1023680001011D6F020E01010827000E092300D08C
:102378001D0E0101046F010E0101056F000E010120
:10238800076F010E066F8BD72AD0C9C0F6FFCAC0E7
:10239800F7FF0001C94BCA2BF86A0800F5CF1DF1F9
:1023A80001011D51000AD8B415EF18F0580AD8B425
:1023B8002DD73B0AD8B4CFD7070AD8B410D0020A11
:1023C800D8B420D70F0AD8B40AD0050AD8B417D77A
:1023D8001F0AD8B41ED70B0AD8B418D7C9D7070E06
:1023E80001011C15D8B4EDD3000E01010B6F060EC8
:1023F8000A6F08C1D9FF09C1DAFFDECF16F1DECFB7
:1024080017F1DDCF18F1030E01010827000E09238B
:10241800010118AF12D016C179F017C17AF018C1AE
:102428007BF05DEC48F079C016F17AC017F17BC0FB
:1024380018F1030E01011B1300D0000E0101116FEA
:10244800000E106F01011651010117110101181139
:10245800D8B49DD0820E0001D56FFF0E0001D66F53
:1024680016C1D7F017C1D8F018C1D9F019C1DAF0E0
:10247800100E06D00001D890DA33D933D833D733C9
:10248800E82EF8D70001D7510001D5250101106FBA
:10249800000E0001D6210101116F01011007D8A01B
:1024A800110710C187F011C188F0000E00018A6F72
:1024B800030E896F0DEC48F087C010F188C011F148
:1024C80010C17FF011C180F0000E0001826F0A0E6A
:1024D800816F03EC3EF07FC010F180C011F1010163
:1024E80011AF05D001011007D8A0110700D00101D4
:1024F800105100080EEC21F0A2C00CF1A3C00DF1A0
:10250800A4C00EF10CC193F00DC194F00EC195F06A
:1025180016C196F017C197F018C198F091EC36F0F3
:1025280093C00CF194C00DF195C00EF10CC179F077
:102538000DC17AF00EC17BF0000E00017C6F800E99
:1025480000017D6F3F0E00017E6F6BEC3EF00001D5
:10255800D8B005D001011007D8A0110718D00CC1B8
:1025680079F00DC17AF00EC17BF0000E00017C6F8E
:10257800200E00017D6F410E00017E6F6BEC3EF076
:102588000001D8A004D00101104B112B00D001018B
:102598000BBF08D001010B511EE10D0E01010A5DB0
:1025A800D8B019D016C1ACF017C1ADF018C1AEF053
:1025B80001010A51B2EC2BF0A2C0AFF0A3C0B0F0F9
:1025C800A4C0B1F01EEC2DF0ACC016F1ADC017F1EF
:1025D800AEC018F100D0010111BF08D0010111519E
:1025E8002CE10A0E0101105DD8B027D00101165167
:1025F8000101171101011811D8B47FD016C1B8F024
:1026080017C1B9F018C1BAF0F0EC37F00001B851B1
:102618000001B9110001BA110001BB11D8A46DD095
:10262800010111BF6AD00101115107E1020E010138
:10263800105DD8B002D061D000D00CC179F00DC1C6
:102648007AF00EC17BF0700E00017C6F890E0001DC
:102658007D6F400E00017E6F6BEC3EF00001D8B03C
:1026680003D00101F70E02D00101F80E1027FF0E6A
:10267800112300D0010110510EEC21F0A2C00CF181
:10268800A3C00DF1A4C00EF117D016C179F017C17F
:102698007AF018C17BF00CC17CF00DC17DF00EC141
:1026A8007EF048EC34F079C012F17AC013F17BC0A7
:1026B80014F17CC015F117D016C179F017C17AF062
:1026C80018C17BF00CC17CF00DC17DF00EC17EF00D
:1026D80075EC33F079C012F17AC013F17BC014F1B4
:1026E8007CC015F100D0000E0101166F000E01012B
:1026F800176F000E0101186F34D016C1B8F017C15A
:10270800B9F018C1BAF0F0EC37F0B8C012F1B9C09E
:1027180013F1BAC014F1BBC015F116C1B8F017C156
:10272800B9F018C1BAF012C181F013C182F014C116
:1027380083F015C184F0FAEC43F081C0BBF082C08D
:10274800BCF083C0BDF0C0EC46F0B8C016F1B9C00B
:1027580017F1BAC018F1000E0101116F000E106FC9
:1027680000D0010E01011D6F0A0E01011D19D8B418
:1027780025D001D023D001011D51040D930EF3245F
:10278800F66EF10EF420F76EF86A000EF8220900D2
:10279800F5500101125D0900F550010113590900B6
:1027A800F550010114590900F55001011559D8A037
:1027B80005D001D003D001011D2BD6D71DC1D5F0FE
:1027C8000001D66BD5BFD60701010A510001D527F4
:1027D80001010B510001D623010110510001D52739
:1027E800010111510001D6230001D5510101195FE2
:1027F8000001D65101011A5B01010A5101010B11B7
:10280800D8B405D001011907D8A01A0700D0030EC3
:1028180001011B150001D56F000E01011C150001F7
:10282800D66F0001D5510001D611D8B405D00101E9
:102838001907D8A01A0700D001011BA543D0030E21
:1028480001011B150001D56F000E01011C150001C7
:10285800D66F0001D5510001D611D8B418D0C7C021
:10286800D9FFC8C0DAFF2D0EDF6E0001C74BC82B99
:102878000ED0C7C0D9FFC8C0DAFF300EDF6E000126
:10288800C74BC82B01011907D8A01A0700D00101AE
:102898001ABF8AD001011A51ECE101011905D8A02B
:1028A80083D0E7D781D00ED0C7C0D9FFC8C0DAFF20
:1028B800200EDF6E0001C74BC82B01011907D8A0F5
:1028C8001A0700D001011ABF07D001011A51ECE123
:1028D80001011905D8B0E8D7030E01011B15000145
:1028E800D56F000E01011C150001D66F0001D551EE
:1028F8000001D611D8B458D0C7C0D9FFC8C0DAFF74
:102908002D0E50D00001C74BC82B4ED012C179F004
:1029180013C17AF014C17BF015C17CF001011D517F
:10292800040D930EF324F66EF10EF420F76EF86A98
:10293800000EF8220900F5CF7DF00900F5CF7EF0F2
:102948000900F5CF7FF00A00F5CF80F036EC3FF0B4
:1029580079C00CF17AC00DF17BC00EF17CC00FF18B
:102968000CC186F00DC187F00EC188F00FC189F047
:102978000A0E00018A6F000E8B6F000E8C6F000E1E
:102988008D6F5AEC41F086C00CF187C00DF188C0FC
:102998000EF189C00FF101010C51300FC7C0D9FFEA
:1029A800C8C0DAFFDF6EAED701011D0701011D297E
:1029B800D8B410D0ABD70ED0C7C0D9FFC8C0DAFF83
:1029C800300EDF6E0001C74BC82B01011007D8A0DD
:1029D800110700D0010111BF07D001011151ECE12D
:1029E80001011005D8B0E8D701010BBF0CD00101D7
:1029F8000B5105E1090E01010A5DD8A004D0080EAB
:102A080001011D6F03D00AC11DF100D001011D5144
:102A180001010A5F000E01011DBFFF0E01010B5BE2
:102A280001011D510101D8B40AD0C7C0D9FFC8C0DF
:102A3800DAFF2E0EDF6E0001C74BC82B00D0010154
:102A48001D510EEC21F0A2C000F1A3C001F1A4C0F9
:102A580002F116C196F017C197F018C198F000C19D
:102A680093F001C194F002C195F091EC36F093C057
:102A7800B8F094C0B9F095C0BAF0F0EC37F0B8C02F
:102A880012F1B9C013F1BAC014F1BBC015F17BD073
:102A980012C179F013C17AF014C17BF015C17CF032
:102AA80001011D51040D930EF324F66EF10EF4206E
:102AB800F76EF86A000EF8220900F5CF7DF00900DC
:102AC800F5CF7EF00900F5CF7FF00A00F5CF80F052
:102AD80036EC3FF079C00CF17AC00DF17BC00EF1F5
:102AE8007CC00FF10CC186F00DC187F00EC188F0D3
:102AF8000FC189F00A0E00018A6F000E8B6F000E5D
:102B08008C6F000E8D6F5AEC41F086C00CF187C0B7
:102B18000DF188C00EF189C00FF101010C51300F81
:102B2800C7C0D9FFC8C0DAFFDF6E0001C74BC82B8A
:102B380012C186F013C187F014C188F015C189F05D
:102B480001011D51040D930EF324F66EF10EF420CD
:102B5800F76EF86A000EF8220900F5CF8AF009002E
:102B6800F5CF8BF00900F5CF8CF00A00F5CF8DF08A
:102B78005AEC41F086C012F187C013F188C014F1F5
:102B880089C015F100D001011D0701011D29D8B424
:102B980010D07ED70ED0C7C0D9FFC8C0DAFF300E1C
:102BA800DF6E0001C74BC82B01010A07D8A00B072D
:102BB80000D001010A5101010B11D8B420D2EBD782
:102BC8001ED201011BBF35D001011BA90ED008C1BF
:102BD800D9FF09C1DAFFDECF12F1DECF13F1DECF64
:102BE80014F1DECF15F1040E0FD008C1D9FF09C1C9
:102BF800DAFFDECF12F1DDCF13F10101000E13BFB2
:102C0800FF0E146F156F020E01010827000E09232D
:102C180000D0010115AF8FD0030E01011B13010174
:102C2800151F141F131F126D000E132314231523D1
:102C380082D001011BA90ED008C1D9FF09C1DAFF52
:102C4800DECF12F1DECF13F1DECF14F1DECF15F1B6
:102C5800040E10D008C1D9FF09C1DAFFDECFD5F0C4
:102C6800DDCFD6F0D5C012F1D6C013F10101146B37
:102C7800156B020E01010827000E09235CD0010E16
:102C880001011D6F0A0E01011D19D8B45ED001D0D3
:102C98005CD001011D51040D930EF324F66EF10E64
:102CA800F420F76EF86A000EF8220900F5500101C9
:102CB800125D0900F550010113590900F550010191
:102CC80014590900F55001011559D8A03ED001D07A
:102CD8003CD001011D2BD6D738D0010E01011D6F44
:102CE800080E01011D19D8B430D001D02ED0010131
:102CF8001D51040D090EF324F66EF20EF420F76E42
:102D0800F86A000EF8220900F5500101125D090069
:102D1800F550010113590900F55001011459090032
:102D2800F55001011559D8A010D001D00ED00101DD
:102D38001D2BD6D70AD001011B51800B000AD8B42D
:102D48009ED7800AD8B4C9D700D001011951010112
:102D58001A11D8B415D0030E01011B150001D56F47
:102D6800000E01011C150001D66F0001D5510001AC
:102D7800D611D8B405D001011907D8A01A0700D078
:102D8800800E01011DBF7F0E0001D56F0101195191
:102D980001011D5D01011A51800A0001D559D8B001
:102DA8000BD001011D510101195F000E01011DBF6A
:102DB800FF0E01011A5B06D0000E01011A6F000E0A
:102DC800196F00D001011BA535D0030E01011B1599
:102DD8000001D56F000E01011C150001D66F00011E
:102DE800D5510001D611D8B40AD0C7C0D9FFC8C080
:102DF800DAFF2D0EDF6E0001C74BC82B00D0010192
:102E0800195101011A11D8B44AD0C7C0D9FFC8C096
:102E1800DAFF300EDF6E0001C74BC82B010119071E
:102E2800D8A01A070101195101011A11D8B437D0D5
:102E3800ECD735D00101195101011A11D8B415D0B8
:102E4800C7C0D9FFC8C0DAFF200EDF6E0001C74B2C
:102E5800C82B01011907D8A01A070101195101014E
:102E68001A11D8B402D0ECD700D0030E01011B15FB
:102E78000001D56F000E01011C150001D66F00017D
:102E8800D5510001D611D8B40AD0C7C0D9FFC8C0DF
:102E9800DAFF2D0EDF6E0001C74BC82B00D00101F1
:102EA8001D5101010A6F0B6B0ABF0B079BD086D01F
:102EB8000AC1D5F00BC1D6F00001D890D537D63766
:102EC8000001D890D537D637930E0001D525F66E78
:102ED800F10ED621F76EF86A000EF8220900F5CF38
:102EE8007DF00900F5CF7EF00900F5CF7FF00A00EC
:102EF800F5CF80F012C179F013C17AF014C17BF0DC
:102F080015C17CF036EC3FF079C086F07AC087F0C6
:102F18007BC088F07CC089F00A0E00018A6F000E21
:102F28008B6F000E8C6F000E8D6F5AEC41F0000114
:102F38008651300F01011D6F4BD012C179F013C1BA
:102F48007AF014C17BF015C17CF00AC1D5F00BC131
:102F5800D6F00001D890D537D6370001D890D537AC
:102F6800D637090E0001D525F66EF20ED621F76E7A
:102F7800F86A000EF8220900F5CF7DF00900F5CFB8
:102F88007EF00900F5CF7FF00A00F5CF80F036EC2F
:102F98003FF0000179510F0B0101036F010103514B
:102FA800010D340EF324F66EFE0EF420F76EF86A67
:102FB800000EF8220800F5CF1DF10AD001011B51BF
:102FC800800B000AD8B474D7800AD8B4B6D700D01A
:102FD800C7C0D9FFC8C0DAFF1DC1DFFF0001C74B5A
:102FE800C82B00D001010A07D8A00B0701010A2944
:102FF800E5E101010B29D8B402D0E0D700D0C9C05F
:10300800F6FFCAC0F7FF0001C94BCA2BF86A0800CF
:10301800F5CF1DF101011D51D8B403D083EF10F095
:1030280000D0C7C0D9FFC8C0DAFF000EDF6E12009B
:103038001200000E0001856F000E866F000E876F6C
:10304800000E886F010E0001791500017D6F000EDA
:1030580000017A1500017E6F000E00017B1500014A
:103068007F6F000E00017C150001806F1F0ED89045
:1030780000017D377E377F378037E82EF8D700018B
:103088007D510001852700017E5100018623000142
:103098007F51000187230001805100018823020E1F
:1030A8000001791500017D6F000E00017A150001FD
:1030B8007E6F000E00017B1500017F6F000E00017E
:1030C8007C150001806F1D0ED89000017D377E377A
:1030D8007F378037E82EF8D700017D51000185271A
:1030E80000017E510001862300017F5100018723E2
:1030F8000001805100018823040E000179150001A8
:103108007D6F000E00017A1500017E6F000E000130
:103118007B1500017F6F000E00017C150001806F98
:103128001B0ED89000017D377E377F378037E82E19
:10313800F8D700017D510001852700017E5100016B
:10314800862300017F51000187230001805100017F
:103158008823080E0001791500017D6F000E00011B
:103168007A1500017E6F000E00017B1500017F6F4C
:10317800000E00017C150001806F190ED890000127
:103188007D377E377F378037E82EF8D700017D51AD
:103198000001852700017E510001862300017F512F
:1031A800000187230001805100018823100E0001CF
:1031B800791500017D6F000E00017A1500017E6F00
:1031C800000E00017B1500017F6F000E00017C15C9
:1031D8000001806F170ED89000017D377E377F374A
:1031E8008037E82EF8D700017D51000185270001BE
:1031F8007E510001862300017F51000187230001D1
:10320800805100018823200E0001791500017D6F8F
:10321800000E00017A1500017E6F000E00017B157B
:1032280000017F6F000E00017C150001806F150EF4
:10323800D89000017D377E377F378037E82EF8D762
:1032480000017D510001852700017E510001862380
:1032580000017F510001872300018051000188236C
:10326800400E0001791500017D6F000E00017A15EE
:1032780000017E6F000E00017B1500017F6F000EBC
:1032880000017C150001806F130ED89000017D3776
:103298007E377F378037E82EF8D700017D5100014F
:1032A800852700017E510001862300017F5100011E
:1032B80087230001805100018823800E00017915C1
:1032C80000017D6F000E00017A1500017E6F000E6F
:1032D80000017B1500017F6F000E00017C150001C5
:1032E800806F110ED89000017D377E377F37803789
:1032F800E82EF8D700017D510001852700017E5195
:103308000001862300017F510001872300018051BD
:1033180000018823000E0001791500017D6F010E60
:1033280000017A1500017E6F000E00017B15000177
:103338007F6F000E00017C150001806F0F0ED89082
:1033480000017D377E377F378037E82EF8D70001B8
:103358007D510001852700017E510001862300016F
:103368007F51000187230001805100018823000E4E
:103378000001791500017D6F020E00017A15000128
:103388007E6F000E00017B1500017F6F000E0001AB
:103398007C150001806F0D0ED89000017D377E37B7
:1033A8007F378037E82EF8D700017D510001852747
:1033B80000017E510001862300017F51000187230F
:1033C8000001805100018823000E000179150001D9
:1033D8007D6F040E00017A1500017E6F000E00015A
:1033E8007B1500017F6F000E00017C150001806FC6
:1033F8000B0ED89000017D377E377F378037E82E57
:10340800F8D700017D510001852700017E51000198
:10341800862300017F5100018723000180510001AC
:103428008823000E0001791500017D6F080E000148
:103438007A1500017E6F000E00017B1500017F6F79
:10344800000E00017C150001806F090ED890000164
:103458007D377E377F378037E82EF8D700017D51DA
:103468000001852700017E510001862300017F515C
:10347800000187230001805100018823000E00010C
:10348800791500017D6F100E00017A1500017E6F1D
:10349800000E00017B1500017F6F000E00017C15F6
:1034A8000001806F070ED89000017D377E377F3787
:1034B8008037E82EF8D700017D51000185270001EB
:1034C8007E510001862300017F51000187230001FE
:1034D800805100018823000E0001791500017D6FDD
:1034E800200E00017A1500017E6F000E00017B1589
:1034F80000017F6F000E00017C150001806F050E32
:10350800D89000017D377E377F378037E82EF8D78F
:1035180000017D510001852700017E5100018623AD
:1035280000017F5100018723000180510001882399
:10353800000E0001791500017D6F400E00017A151B
:1035480000017E6F000E00017B1500017F6F000EE9
:1035580000017C150001806F030ED89000017D37B3
:103568007E377F378037E82EF8D700017D5100017C
:10357800852700017E510001862300017F5100014B
:1035880087230001805100018823000E000179156E
:1035980000017D6F800E00017A1500017E6F000E1C
:1035A80000017B1500017F6F000E00017C150001F2
:1035B800806FD89000017D350001816F00017E3554
:1035C8000001826F00017F350001836F00018035A3
:1035D8000001846F0001815100018527000182519B
:1035E80000018623000183510001872300018451D3
:1035F8000001882379C07DF07AC07EF07BC07FF01F
:103608007CC080F00001D89080337F337E337D33D7
:10361800000E00017D150001816F800E00017E15EE
:103628000001826F000E00017F150001836F000EFC
:10363800000180150001846F000181510001852778
:103648000001825100018623000183510001872374
:10365800000184510001882379C07DF07AC07EF092
:103668007BC07FF07CC080F0040E06D00001D890AB
:1036780080337F337E337D33E82EF8D7000E000188
:103688007D150001816F400E00017E150001826FDB
:10369800000E00017F150001836F000E00018015E8
:1036A8000001846F000181510001852700018251CA
:1036B8000001862300018351000187230001845102
:1036C8000001882379C07DF07AC07EF07BC07FF04E
:1036D8007CC080F0060E06D00001D89080337F337E
:1036E8007E337D33E82EF8D7000E00017D150001EA
:1036F800816F200E00017E150001826F000E00010F
:103708007F150001836F000E000180150001846F92
:1037180000018151000185270001825100018623A3
:10372800000183510001872300018451000188238F
:1037380079C07DF07AC07EF07BC07FF07CC080F0DD
:10374800080E06D00001D89080337F337E337D3356
:10375800E82EF8D7000E00017D150001816F100ECC
:1037680000017E150001826F000E00017F15000127
:10377800836F000E000180150001846F00018151E4
:103788000001852700018251000186230001835131
:1037980000018723000184510001882379C07DF04E
:1037A8007AC07EF07BC07FF07CC080F00A0E06D025
:1037B8000001D89080337F337E337D33E82EF8D7ED
:1037C800000E00017D150001816F080E00017E15B5
:1037D8000001826F000E00017F150001836F000E4B
:1037E800000180150001846F0001815100018527C7
:1037F80000018251000186230001835100018723C3
:10380800000184510001882379C07DF07AC07EF0E0
:103818007BC07FF07CC080F00C0E06D00001D890F1
:1038280080337F337E337D33E82EF8D7000E0001D6
:103838007D150001816F040E00017E150001826F65
:10384800000E00017F150001836F000E0001801536
:103858000001846F00018151000185270001825118
:103868000001862300018351000187230001845150
:103878000001882379C07DF07AC07EF07BC07FF09C
:103888007CC080F00E0E06D00001D89080337F33C4
:103898007E337D33E82EF8D7000E00017D15000138
:1038A800816F020E00017E150001826F000E00017B
:1038B8007F150001836F000E000180150001846FE1
:1038C80000018151000185270001825100018623F2
:1038D80000018351000187230001845100018823DE
:1038E80079C07DF07AC07EF07BC07FF07CC080F02C
:1038F800100E06D00001D89080337F337E337D339D
:10390800E82EF8D7000E00017D150001816F010E29
:1039180000017E150001826F000E00017F15000175
:10392800836F000E000180150001846F0001815132
:10393800000185270001825100018623000183517F
:1039480000018723000184510001882379C07DF09C
:103958007AC07EF07BC07FF07CC080F0120E06D06B
:103968000001D89080337F337E337D33E82EF8D73B
:10397800800E00017D150001816F000E00017E158B
:103988000001826F000E00017F150001836F000E99
:10399800000180150001846F000181510001852715
:1039A8000001825100018623000183510001872311
:1039B800000184510001882379C07DF07AC07EF02F
:1039C8007BC07FF07CC080F0140E06D00001D89038
:1039D80080337F337E337D33E82EF8D7400E0001E5
:1039E8007D150001816F000E00017E150001826FB8
:1039F800000E00017F150001836F000E0001801585
:103A08000001846F00018151000185270001825166
:103A1800000186230001835100018723000184519E
:103A28000001882379C07DF07AC07EF07BC07FF0EA
:103A38007CC080F0160E06D00001D89080337F330A
:103A48007E337D33E82EF8D7200E00017D15000166
:103A5800816F000E00017E150001826F000E0001CB
:103A68007F150001836F000E000180150001846F2F
:103A78000001815100018527000182510001862340
:103A8800000183510001872300018451000188232C
:103A980079C07DF07AC07EF07BC07FF07CC080F07A
:103AA800180E06D00001D89080337F337E337D33E3
:103AB800E82EF8D7100E00017D150001816F000E69
:103AC80000017E150001826F000E00017F150001C4
:103AD800836F000E000180150001846F0001815181
:103AE80000018527000182510001862300018351CE
:103AF80000018723000184510001882379C07DF0EB
:103B08007AC07EF07BC07FF07CC080F01A0E06D0B1
:103B18000001D89080337F337E337D33E82EF8D789
:103B2800080E00017D150001816F000E00017E1551
:103B38000001826F000E00017F150001836F000EE7
:103B4800000180150001846F000181510001852763
:103B5800000182510001862300018351000187235F
:103B6800000184510001882379C07DF07AC07EF07D
:103B78007BC07FF07CC080F01C0E06D00001D8907E
:103B880080337F337E337D33E82EF8D7040E00016F
:103B98007D150001816F000E00017E150001826F06
:103BA800000E00017F150001836F000E00018015D3
:103BB8000001846F000181510001852700018251B5
:103BC80000018623000183510001872300018451ED
:103BD8000001882379C07DF07AC07EF07BC07FF039
:103BE8007CC080F01E0E06D00001D89080337F3351
:103BF8007E337D33E82EF8D7020E00017D150001D3
:103C0800816F000E00017E150001826F000E000119
:103C18007F150001836F000E000180150001846F7D
:103C2800000181510001852700018251000186238E
:103C3800000183510001872300018451000188237A
:103C4800000E0001791500017D6F000E00017A1544
:103C580000017E6F000E00017B1500017F6F800E52
:103C680000017C150001806F200E06D00001D8905D
:103C780080337F337E337D33E82EF8D700017D51C2
:103C88000001852700017E510001862300017F5134
:103C980000018723000180510001882385C079F045
:103CA80086C07AF087C07BF088C07CF012001200D2
:103CB800EACF6EF0E1CF6FF0E2CF70F0D9CF71F0BC
:103CC800DACF72F0F3CF73F0F4CF74F0F6CF75F06B
:103CD800F7CF76F0F8CF77F0F5CF78F0F29EF2A034
:103CE80072D000F000F0000E0201846F000E856FA4
:103CF800000E866F000E876FBFEC49F0226E3150C0
:103D08002218D8B45DD0D58EF28A130E426E000EFA
:103D18000001E56FD6CF23F0246AD7502426480E39
:103D2800326049D03250D8B441D0FE0E0001676FDE
:103D3800FF0E0001686F32500001696F6A6BD890FE
:103D4800000169376A3700016751000169270001DE
:103D5800685100016A23000E00016925D96E070E1B
:103D680000016A21DA6E23C0DEFF24C0DDFF090EE0
:103D7800235C520E2458D8B006D0380E235C4A0E65
:103D88002458D8B00CD0510E235CC30E2458D8B098
:103D98000AD0C80E235CAF0E2458D8A004D07D9852
:103DA800F296F28406D0D5EC49F003D0D5EC49F070
:103DB80000D0322A02D07D98F29622C031F001D08C
:103DC80000F0F29009D2F2A421D0F29AD59E000E0A
:103DD8001B6E070E1C6EE10E1D6E000E1E6E010E90
:103DE8001F6EE5EC27F00001E56F0001E551D8A44E
:103DF80007D0BFEC49F0316EF2907D88F28600D092
:103E0800000E326E0D0E426EF294E6D19EA2D1D112
:103E18003C2A370E4018D8A40CD141503C5CD8A09D
:103E280003D1000E3C6E3750010DD60EF324D96E27
:103E3800010EF420DA6E630EDE18D8B4B3D0395010
:103E4800D8B4F2D03750010DD60EF324D96E010E36
:103E5800F420DA6EDF50D8A43FD03604D8A425D099
:103E68003804D8A407D077D0080ECB6E76D0000ED1
:103E7800CC6EDAD0020E3818D8A404D074D03ED054
:103E8800382AD2D0030E3818D8A402D064D0ECD780
:103E9800040E3818D8A404D08B9A180E51D016D016
:103EA800CA947BD0000E396EBFD0020E3618D8A443
:103EB800F7D73804D8A403D08B8A0B0ED6D7020EB6
:103EC8003818D8A4EDD78B9A1D0E3AD0010E386E4B
:103ED800372AAAD062D0A8D03750010DD60EF324C5
:103EE800D96E010EF420DA6EDE04D8A42ED0360482
:103EF800D8A416D03804D8A404D03CD0180ECB6E61
:103F0800BFD7020E3818D8A431D08B9AADD72ED08F
:103F1800F5D7B6D732D0080ECB6E35D0A8D784D017
:103F2800020E3618D8A4BCD73804D8A403D08B8A7C
:103F38001D0E9BD7020E3818D8A404D08B9A0B0EEE
:103F4800CB6EC4D7CA9429D06FD03604D8A420D059
:103F58003804D8A404D08B8A87D7382A88D7020E89
:103F68003818D8A403D08B9AC9D78AD7030E381823
:103F7800D8A403D08B8AC2D783D7040E3818D8A404
:103F88008FD78B9AC8D7010E386E372A70D74CD086
:103F9800020E3618D8A484D783D7010E0001E66F25
:103FA80081D742D03804D8A416D03604D8A403D078
:103FB8008B8A080E06D0020E3618D8A404D08B9A25
:103FC8000B0ECB6E05D0CA94010E0001E66F00D02F
:103FD800000ECC6E55D7020E3818D8A41CD0360463
:103FE800D8A403D08B9AFA0E05D0020E3618D8A49E
:103FF80003D0BB0ECB6E05D0CA94010E0001E66F4C
:1040080000D0382A3A063A50D8B40ED0010E386E8D
:10401800000E376E09D0DAEC49F0A192000E3D6E21
:10402800B180CA943FD700D03950D8B4C0D0CA8420
:10403800BED041503C5CD8A0BAD0000E3C6E070EF2
:104048003F18D8A40DD0200E3E6E000E0001DE6F82
:104058008B96080E3F6E040E416E4B0ECB6EA7D0AA
:10406800080E3F18D8B404D00A0E3F18D8A411D0AF
:10407800010E0001DE6F010E416E2550010B2F6EFF
:10408800D8902832273226322532260ECB6E090EDA
:104098007AD0090E3F18D8A417D0000E0001DE6FA1
:1040A8008B96010E416E2F50D8B402D0710E01D0FC
:1040B800260ECB6E00D03E063E50D8A402D00B0E82
:1040C80062D00A0E60D073D00B0E3F18D8A407D068
:1040D800010E0001DE6F260ECB6E0C0E54D00C0EB6
:1040E8003F18D8A411D0000E0001DE6F8B96345013
:1040F800D8A403D00D0E3F6E57D00B0E416EF20EB2
:10410800CB6E0E0E40D053D00E0E3F18D8B404D04C
:10411800120E3F18D8A409D0010E0001DE6F040E5C
:10412800416E960ECB6E0F0E2ED00F0E3F18D8A4F0
:104138000AD0000E0001DE6F8B96010E416E950EBF
:10414800CB6E100E20D0100E3F18D8A409D0010E47
:104158000001DE6F010E416E260ECB6E110E13D0DC
:10416800110E3F18D8A411D0000E0001DE6F8B96F7
:104178001A0E416EF60ECB6E33063350D8B402D009
:10418800120E01D00D0E3F6E12D00D0E3F18D8A49E
:1041980005D00AD0010E0001E66F09D0000E00011B
:1041A800DE6F8B96000E3F6ECA94F4D700D09E92B5
:1041B80013D0A1A20FD0B190040E3D6005D0DAEC67
:1041C80049F0B1803D2A04D0010E0001E66F00D00D
:1041D800A19202D000F000D0F28E78C0F5FF77C02F
:1041E800F8FF76C0F7FF75C0F6FF74C0F4FF73C020
:1041F800F3FF72C0DAFF71C0D9FF70C0E2FF6FC071
:10420800E1FF6EC0EAFF6DC0E9FF6CC0FBFF6BC049
:10421800FAFF11000001A86F0001A8AF3FD100010B
:10422800A86D0001A851800A120FD8A0B6D0000EC0
:1042380000018A6F030E896F000E0001826F0A0E5B
:10424800816F000E00017C6F640E7B6F0001A85126
:104258000001796F7A6B79BF7A0750EC40F079C02A
:104268007FF07AC080F003EC3EF0090E00017F2554
:104278000001876F000E000180210001886F0DEC9E
:1042880048F0BB0E00018725F66EF10E000188216B
:10429800F76EF86A000EF8220900F5CF96F00900CB
:1042A800F5CF97F00A00F5CF98F0000E0001826F65
:1042B800640E816F0001A85100017F6F806B7FBF82
:1042C800800703EC3EF0120E00017F250001876F86
:1042D800000E000180210001886F000E00018A6F26
:1042E800030E896F0DEC48F0BB0E00018725F66EB2
:1042F800F10E00018821F76EF86A000EF822090015
:10430800F5CF93F00900F5CF94F00A00F5CF95F0BA
:1043180091EC36F093C0A5F094C0A6F095C0A7F034
:10432800A5C093F0A6C094F0A7C095F0000E0001B8
:104338008A6F030E896F000E00017C6F0A0E7B6F77
:104348000001A8510001796F7A6B79BF7A0750ECA8
:1043580040F079C087F07AC088F00DEC48F0BB0EC9
:1043680000018725F66EF10E00018821F76EF86AC4
:10437800000EF8220900F5CF96F00900F5CF97F066
:104388000A00F5CF98F091EC36F093C0A2F094C0F3
:10439800A3F095C0A4F012006BD00001A851800AC8
:1043A800750FD8A065D0000E0001826F0A0E816FCC
:1043B8000001A85100017F6F806B7FBF800703EC6D
:1043C8003EF0090E00017F250001876F000E0001F5
:1043D80080210001886F000E00018A6F030E896F2B
:1043E8000DEC48F0BB0E00018725F66EF10E0001BA
:1043F8008821F76EF86A000EF8220900F5CF93F0CD
:104408000900F5CF94F00A00F5CF95F0000E0001F1
:104418008A6F030E896F000E00017C6F0A0E7B6F96
:104428000001A8510001796F7A6B79BF7A0750ECC7
:1044380040F079C087F07AC088F00DEC48F0BB0EE8
:1044480000018725F66EF10E00018821F76EF86AE3
:10445800000EF8220900F5CF96F00900F5CF97F085
:104468000A00F5CF98F091EC36F08FD7120000D003
:104478000001A851030DBB0EF324F66EF10EF420D3
:10448800F76EF86A000EF8220900F5CFA2F00900CD
:10449800F5CFA3F00A00F5CFA4F012000001A8514F
:1044A800800A120FD8A0B6D0000E00018A6F030E42
:1044B800896F000E0001826F0A0E816F000E0001E5
:1044C8007C6F640E7B6F0001A8510001796F7A6BD5
:1044D80079BF7A0750EC40F079C07FF07AC080F05D
:1044E80003EC3EF0090E00017F250001876F000EE6
:1044F800000180210001886F0DEC48F0E20E0001F8
:104508008725F66EF10E00018821F76EF86A000E15
:10451800F8220900F5CF96F00900F5CF97F00A00C8
:10452800F5CF98F0000E0001826F640E816F0001D4
:10453800A85100017F6F806B7FBF800703EC3EF0BE
:10454800120E00017F250001876F000E00018021F7
:104558000001886F000E00018A6F030E896F0DEC51
:1045680048F0E20E00018725F66EF10E0001882161
:10457800F76EF86A000EF8220900F5CF93F00900EB
:10458800F5CF94F00A00F5CF95F091EC36F093C092
:10459800A5F094C0A6F095C0A7F0A5C093F0A6C05A
:1045A80094F0A7C095F0000E00018A6F030E896F82
:1045B800000E00017C6F0A0E7B6F0001A8510001FC
:1045C800796F7A6B79BF7A0750EC40F079C087F041
:1045D8007AC088F00DEC48F0E20E00018725F66EEF
:1045E800F10E00018821F76EF86A000EF822090022
:1045F800F5CF96F00900F5CF97F00A00F5CF98F0BF
:1046080091EC36F093C0A2F094C0A3F095C0A4F04A
:1046180012006BD00001A851800A750FD8A065D090
:10462800000E0001826F0A0E816F0001A85100017F
:104638007F6F806B7FBF800703EC3EF0090E00019F
:104648007F250001876F000E000180210001886F1F
:10465800000E00018A6F030E896F0DEC48F0E20E20
:1046680000018725F66EF10E00018821F76EF86AC1
:10467800000EF8220900F5CF93F00900F5CF94F069
:104688000A00F5CF95F0000E00018A6F030E896FBE
:10469800000E00017C6F0A0E7B6F0001A85100011B
:1046A800796F7A6B79BF7A0750EC40F079C087F060
:1046B8007AC088F00DEC48F0E20E00018725F66E0E
:1046C800F10E00018821F76EF86A000EF822090041
:1046D800F5CF96F00900F5CF97F00A00F5CF98F0DE
:1046E80091EC36F08FD7120000D00001A851030DCD
:1046F800E20EF324F66EF10EF420F76EF86A000E5F
:10470800F8220900F5CFA2F00900F5CFA3F00A00BE
:10471800F5CFA4F012001200000E0001936F000EF6
:104728000001956F000E966F000E976F000E986F40
:10473800000E0001906F010E00018F6F000E000146
:10474800916F000E0001926F38D085C0D9FF86C0E6
:10475800DAFF300EDE18D8A42AD00001912B000110
:10476800854B862B85C0D9FF86C0DAFF780EDE1808
:10477800D8B408D085C0D9FF86C0DAFF580EDE1835
:10478800D8A415D00001854B862B85C0D9FF86C0DB
:10479800DAFF2F0EDF640BD085C0D9FF86C0DAFFA1
:1047A8003A0EDF6004D0010E0001926F00D00001C4
:1047B800912B0001854B862B00D085C0D9FF86C080
:1047C800DAFFDF50D8A4C1D700019151010DF35091
:1047D8000001855FF4500001865B01D03BD085C0A5
:1047E800D9FF86C0DAFF3D0EDE18D8B411D085C0D7
:1047F800D9FF86C0DAFF2C0EDE18D8B409D085C0E0
:10480800D9FF86C0DAFFDF50D8B402D023D000D059
:1048180085C0D9FF86C0DAFFDF50D8A403D0010EC7
:1048280012001DD085C0D9FF86C0DAFF3D0EDE1804
:10483800D8A408D085C0D9FF86C0DAFF2C0EDE18B0
:10484800D8B40DD00001875100018F5DD8B007D0D2
:1048580000018F2B0001854B862BC1D700D085C066
:10486800D9FF86C0DAFFDF50D8A402D0010E1200AB
:104878000001854B862B85C0D9FF86C0DAFF200E44
:10488800DE18D8B41ED085C0D9FF86C0DAFF3D0E29
:10489800DE18D8B408D085C0D9FF86C0DAFF2C0E40
:1048A800DE18D8A403D0020E120019D085C0D9FF93
:1048B80086C0DAFF2D0EDE18D8A407D0010E00013D
:1048C800906F0001854B862B0AD085C0D9FF86C022
:1048D800DAFFDF50D8A403D0030E120000D0000185
:1048E80092510001D8B41CD1000E0001906F04D081
:1048F8000001854B862B00D085C0D9FF86C0DAFF22
:10490800780EDE18D8B408D185C0D9FF86C0DAFF82
:10491800580EDE18D8B400D1EBD7FED0FDD000D1A8
:10492800000192510001D8A45BD085C0D9FF86C090
:10493800DAFF2F0EDF64F0D085C0D9FF86C0DAFF1A
:104948003A0EDF60E9D095C079F096C07AF097C04A
:104958007BF098C07CF00A0E00017D6F000E7E6F20
:10496800000E7F6F000E806F78EC44F079C095F0F0
:104978007AC096F07BC097F07CC098F085C0D9FFCC
:1049880086C0DAFFDF5000018A6FD00E00018A2549
:1049980000018B6F00018C6BFF0E8C2300018D6B67
:1049A80000018CBF8D0700018D5100018E6F000141
:1049B8008B510001952700018C51000196230001BD
:1049C8008D510001972300018E51000198230001A9
:1049D800932B200E000193659FD0040E12009CD0EB
:1049E80085C0D9FF86C0DAFF2F0EDF6408D085C0E6
:1049F800D9FF86C0DAFF390EDF641FD000D085C02A
:104A0800D9FF86C0DAFF400EDF6408D085C0D9FF21
:104A180086C0DAFF460EDF6410D000D085C0D9FF0B
:104A280086C0DAFF600EDF6477D085C0D9FF86C004
:104A3800DAFF670EDF6070D000D00001040ED89056
:104A48009537963797379837E82EF9D785C0D9FF25
:104A580086C0DAFFDF500001946F00019451E1EC49
:104A680048F00009D8B429D0940E0001796F000EDF
:104A780000017A6FA2EC48F0A90E0001942500010C
:104A88008A6F00018B6BFF0E8B2300018C6B00017A
:104A98008BBF8C0700018C5100018D6F00018A517A
:104AA8000001952700018B510001962300018C51CC
:104AB8000001972300018D5127D085C0D9FF86C0FA
:104AC800DAFFDF5000018A6FD00E00018A2500014D
:104AD8008B6F00018C6BFF0E8C2300018D6B000126
:104AE8008CBF8D0700018D5100018E6F00018B5125
:104AF8000001952700018C510001962300018D517A
:104B08000001972300018E510001982300D0000175
:104B1800932B5FD7120000D00001854B862B00D065
:104B280085C0D9FF86C0DAFFDF50D8B41AD085C057
:104B3800D9FF86C0DAFF200EDE18D8B412D085C09F
:104B4800D9FF86C0DAFF2C0EDE18D8B40AD085C08B
:104B5800D9FF86C0DAFF3D0EDE18D8B402D0E0D601
:104B680000D0000190510001D8B40AD00001981F6C
:104B7800971F961F956D000E96239723982300D0B4
:104B880088C0D9FF89C0DAFF95C0DEFF96C0DEFF76
:104B980097C0DEFF98C0DEFF000E12001200010E63
:104BA80001015A6F280E0001796F010E00017A6F1A
:104BB800000E00017C6F320E7B6FBAEC45F01E0EC2
:104BC8000001796F010E00017A6F000E00017C6F01
:104BD8000A0E7B6FBAEC45F0D2EC3EF00009D8B46F
:104BE800120001D01200280E0001C76F010E00014B
:104BF800C86F330E0001C96FFC0E0001CA6FD2C125
:104C0800CBF0D3C1CCF0D4C1CDF0D5C1CEF07BEC84
:104C180010F0280E00017A6F010E00017B6FE7EC9F
:104C280045F0500E0001796FC30E7A6F000E7B6F4E
:104C3800000E7C6F6BEC46F0000E0001796F050EDC
:104C480000017A6FFB0E00017B6FFF0E00017C6F85
:104C5800AAEC40F00009D8A404D0000E01015A6F54
:104C680000D0000E0001796F050E00017A6F29C08F
:104C78007BF000017C6BBAEC45F0000E296E010157
:104C88005A510101D8B428D0740E00017A6FFF0E72
:104C980000017B6FE7EC45F0500E0001796FC30E01
:104CA8007A6F000E7B6F000E7C6F6BEC46F0000E87
:104CB8000001796F050E00017A6FFB0E00017B6F12
:104CC800FF0E00017C6FAAEC40F00009D8A404D0C4
:104CD800000E01015A6F00D001015A510101D8B4E8
:104CE80028D0BD0E00017A6FFC0E00017B6FE7EC47
:104CF80045F0500E0001796FC30E7A6F000E7B6F7E
:104D0800000E7C6F6BEC46F0000E0001796F050E0B
:104D180000017A6FFB0E00017B6FFF0E00017C6FB4
:104D2800AAEC40F00009D8A404D0000E01015A6F83
:104D380000D0000E0001796F050E00017A6F29C0BE
:104D48007BF000017C6BBAEC45F0000E296E010186
:104D58005A510101D8B428D0880E00017A6FFF0E8D
:104D680000017B6FE7EC45F0500E0001796FC30E30
:104D78007A6F000E7B6F000E7C6F6BEC46F0000EB6
:104D88000001796F050E00017A6FFB0E00017B6F41
:104D9800FF0E00017C6FAAEC40F00009D8A404D0F3
:104DA800000E01015A6F00D0000E0001796F050E48
:104DB80000017A6F29C07BF000017C6BBAEC45F0EA
:104DC800000E296E01015A510101D8B428D0C00E35
:104DD80000017A6FFF0E00017B6FE7EC45F0500E83
:104DE8000001796FC30E7A6F000E7B6F000E7C6F27
:104DF8006BEC46F0000E0001796F050E00017A6F2A
:104E0800FB0E00017B6FFF0E00017C6FAAEC40F0E7
:104E18000009D8A404D0000E01015A6F00D0000E7A
:104E28000001796F050E00017A6F29C07BF000013F
:104E38007C6BBAEC45F0000E296E01015A51010154
:104E4800D8B428D0C00E00017A6FFF0E00017B6F26
:104E5800E7EC45F0500E0001796FC30E7A6F000E33
:104E68007B6F000E7C6F6BEC46F0000E0001796FD3
:104E7800050E00017A6FFB0E00017B6FFF0E00012B
:104E88007C6FAAEC40F00009D8A404D0000E010100
:104E98005A6F00D0000E0001796F050E00017A6F7D
:104EA80029C07BF000017C6BBAEC45F0000E296E3E
:104EB80001015A510101D8B43ED0DD0E00017A6FCC
:104EC800FF0E00017B6FE7EC45F0500E0001796F93
:104ED800C30E7A6F000E7B6F000E7C6F6BEC46F092
:104EE800280E0001C76F010E0001C86F910E000166
:104EF800C96FFB0E0001CA6FD2C1CBF0D3C1CCF091
:104F0800D4C1CDF0D5C1CEF07BEC10F0000E00017D
:104F1800796F050E00017A6F280E00017B6F010E74
:104F280000017C6FAAEC40F00009D8A404D0000E60
:104F380001015A6F00D0000E0001796F050E0001C3
:104F48007A6F29C07BF000017C6BBAEC45F0000E4B
:104F5800296ED80E00017A6FFF0E00017B6FE7EC17
:104F680045F0500E0001796FC30E7A6F000E7B6F0B
:104F7800000E7C6F6BEC46F0000E0001796F050E99
:104F880000017A6FF70E00017B6FFF0E00017C6F46
:104F9800AAEC40F00009D8A404D0000E01015A6F11
:104FA80000D0000E0001796F050E00017A6F29C04C
:104FB8007BF000017C6BBAEC45F0000E296E120004
:104FC8001200000E0001646F480E0001666F000EAB
:104FD8000001606F000E616F000E626F000E636F5C
:104FE800000E0001656F470E0001656501D046D0CF
:104FF80000016551020DF3501B24D96EF4501C209A
:10500800DA6EC80EDE5CAF0EDE58D8A012D00001F2
:105018006551020DF3501B24D96EF4501C20DA6E32
:10502800510EDE5CC30EDE58D8B003D0020E12005B
:1050380022D000016551020DF3501B24D96EF450A3
:105048001C20DA6EA00EDE5C0F0EDE58D8A013D03E
:1050580000016551020DF3501B24D96EF4501C2039
:10506800DA6E890EDE5C130EDE58D8B004D065C047
:1050780066F004D000D00001652BB5D70001665159
:10508800206E216A201E211E204A212A480E202631
:10509800000E212221BE06D0215006E1480E205CD8
:1050A800D8B002D0000E12000001662B0001665134
:1050B800020DF3501B24D96EF4501C20DA6E9D0E9D
:1050C800DE5C030EDE58D8A06ED000016651020DDA
:1050D800F3501B24D96EF4501C20DA6EE30EDE5C0C
:1050E800040EDE58D8B05FD000016651020DF350AF
:1050F8001B24D96EF4501C20DA6E010EDB5004E13B
:105108007D0EDE5CD8A070D000016651020DF35010
:105118001B24D96EF4501C20DA6E590EDE5C020E88
:10512800DE58D8B061D000016651020DF3501B243F
:10513800D96EF4501C20DA6E010EDB5004E17D0EAE
:10514800DE5CD8A051D000016651020DF3501B243B
:10515800D96EF4501C20DA6E590EDE5C020EDE5851
:10516800D8B042D000016651020DF3501B24D96E0D
:10517800F4501C20DA6EC80EDE5CAF0EDE58D8A0E4
:1051880033D000016651020DF3501B24D96EF45040
:105198001C20DA6E510EDE5CC30EDE58D8B024D067
:1051A800020E120021D000016651020DF3501B249B
:1051B800D96EF4501C20DA6ED60EDE5C060EDE5870
:1051C800D8A00FD000016651020DF3501B24D96EF0
:1051D800F4501C20DA6EBF0EDE5C0A0EDE58D8A032
:1051E80003D0000E120000D00001662B66C065F0E7
:1051F800470E0001656501D0E0D000016651020D3F
:10520800F3501B24D96EF4501C20DA6E010EDB50CB
:1052180004E17D0EDE5CD8A02AD000016651020DA3
:10522800F3501B24D96EF4501C20DA6E590EDE5C44
:10523800020EDE58D8B01BD0000164510001D8A47A
:1052480002D0010E49D0000E0001646F0001D89011
:1052580060376137623763371F50D8A4A9D0010E71
:1052680000016027000E612362236323A1D000019F
:105278006651020DF3501B24D96EF4501C20DA6ECF
:10528800BC0EDE5C020EDE58D8A02CD000016651A0
:10529800020DF3501B24D96EF4501C20DA6EB70EA1
:1052A800DE5C030EDE58D8B01DD000016451000149
:1052B800D8B415D00001D8906037613762376337AA
:1052C8001F50D8B408D0010E00016027000E6123DA
:1052D8006223632300D0000E0001646F69D0000EC2
:1052E800120066D000016651020DF3501B24D96EDE
:1052F800F4501C20DA6EDE50DE10D8A413D0000162
:105308006405D8A40FD01DC0D9FF1EC0DAFF60C045
:10531800DEFF61C0DEFF62C0DEFF63C0DEFF21D0BA
:10532800120046D000016651020DF3501B24D96EBD
:10533800F4501C20DA6E380EDE5C4A0EDE58D8A017
:1053480013D000016651020DF3501B24D96EF4509E
:105358001C20DA6E090EDE5C520EDE58D8B004D07E
:10536800D2D7010E120024D000016651020DF3506D
:105378001B24D96EF4501C20DA6EC80EDE5CAF0E0A
:10538800DE58D8A012D000016651020DF3501B243C
:10539800D96EF4501C20DA6E510EDE5CC30EDE5856
:1053A800D8B003D0020E120003D0000E120000D0B5
:1053B8000001662B0001652B1BD7000E120012009E
:1053C800000E01019F6F000E01019B6F000E01018D
:1053D8009C6F010E01019E6F000E01019D6FE9ECAB
:1053E80049F02FEC47F0B7EC43F099EC3FF0A2C03E
:1053F800DBF0A3C0DCF0A4C0DDF0DBC079F0DCC0DA
:105408007AF0DDC07BF0CD0E00017C6F6C0E0001E0
:105418007D6F400E00017E6F6BEC3EF00001D8B04E
:1054280002D0220E15D0000E0001796FF00E000197
:105438007A6F410E00017B6FDBC07CF0DCC07DF031
:10544800DDC07EF06BEC3EF00001D8B004D0620EF7
:1054580001019E6F00D001019E05D8A427D0000E3F
:1054680001019F6F090E01019F6501D01DD08B823C
:105478008B94500E0001796FC30E7A6F000E7B6F0C
:10548800000E7C6F6BEC46F08B928B84500E000103
:10549800796FC30E7A6F000E7B6F000E7C6F6BEC1A
:1054A80046F001019F2BDED78B9424D0000E01011A
:1054B8009F6F090E01019F6501D01CD08B82A00E41
:1054C8000001796F860E7A6F010E7B6F000E7C6F7C
:1054D8006BEC46F08B92A00E0001796F860E7A6F06
:1054E800010E7B6F000E7C6F6BEC46F001019F2B69
:1054F800E0D700D0E5C09BF1DFC09CF199EC3FF00C
:10550800A2C0DBF0A3C0DCF0A4C0DDF0220E0101D4
:105518009E19D8A418D0DBC0B8F0DCC0B9F0DDC043
:10552800BAF0000E0001BB6F000E0001BC6F3F0E09
:105538000001BD6FC0EC46F0B8C0DBF0B9C0DCF0CC
:10554800BAC0DDF01DD0620E01019E19D8A418D092
:10555800DBC0ACF0DCC0ADF0DDC0AEF0000E000189
:10556800AF6F000E0001B06F3F0E0001B16F1EEC6F
:105578002DF0ACC0DBF0ADC0DCF0AEC0DDF000D08B
:10558800DBC079F0DCC07AF0DDC07BF0CD0E000125
:105598007C6F6C0E00017D6F400E00017E6F6BEC1E
:1055A8003EF00001D8B002D0220E17D0000E000144
:1055B800796FF00E00017A6F410E00017B6FDBC03E
:1055C8007CF0DCC07DF0DDC07EF06BEC3EF00001CD
:1055D800D8B002D0620E01D0010E01019E6F00D03A
:1055E80001019B510101D8B41BD00001E151000118
:1055F800E2110001E3110001E411D8B411D0E50E65
:105608000001B96F000E0001BA6FE1C0BBF0E2C043
:10561800BCF0E3C0BDF0E4C0BEF05DEC2EF000D0FD
:1056280001019C510101D8B45BD0000E0001796FD3
:10563800030E00017A6F000E00017C6F7B69BAECE3
:1056480045F0000E0001816F060E0001826F000E0A
:105658000001836F030E0001846FE0C085F0000E27
:105668000001866F2FEC43F0E0C09DF1000E0001B1
:10567800796F060E00017A6FE0C07BF000017C6B49
:10568800BAEC45F0000E0001E06F000E0001DF6F7C
:10569800000E01018C6F030E01018D6F9DC18EF10B
:1056A800FBEC00F0FE0E00017A6FF30E00017B6F39
:1056B800E7EC45F03E0EF0EC48F00001E551D8B4B7
:1056C80004D0000E0001E56F00D0A3EC49F0316E64
:1056D800F2907D88F2868EEC49F09E9A9D8A00D0E1
:1056E800020187510201861110E1880E0201845DD2
:1056F800130E02018559D8B008D0010E0201842783
:10570800000E852386238723F5D6880E0201841987
:1057180008E1130E020185190201861102018711A1
:10572800D8A4E8D6010E02018427000E852386231B
:105738008723000E0001E16F000EE26F000EE36F99
:10574800000EE46F000E0001E56FA3EC49F0316E26
:10575800F2907D88F286CED6F9EF00F00001AB6FAB
:105768006D0E0001AB65C4D0000E00018A6F030EF8
:10577800896F000E0001826F0A0E816F000E000112
:105788007C6F640E7B6FABC079F000017A6B50ECD4
:1057980040F079C07FF07AC080F003EC3EF0090E4B
:1057A80000017F250001876F000E000180210001A4
:1057B800886F0DEC48F0BB0E00018725F66EF10EE0
:1057C80000018821F76EF86A000EF8220900F5CF6B
:1057D80096F00900F5CF97F00A00F5CF98F0000E83
:1057E8000001826F640E816FABC07FF00001806B97
:1057F80003EC3EF0120E00017F250001876F000EBA
:10580800000180210001886F000E00018A6F030EDD
:10581800896F0DEC48F0BB0E00018725F66EF10E7E
:1058280000018821F76EF86A000EF8220900F5CF0A
:1058380093F00900F5CF94F00A00F5CF95F091ECBC
:1058480036F093C0A8F094C0A9F095C0AAF0000E55
:1058580000018A6F030E896F000E00017C6F0A0E2B
:105868007B6FABC079F000017A6B50EC40F079C0E7
:1058780087F07AC088F00DEC48F0BB0E0001872550
:10588800F66EF10E00018821F76EF86A000EF82214
:105898000900F5CF96F00900F5CF97F00A00F5CF8B
:1058A80098F0A8C093F0A9C094F0AAC095F091EC24
:1058B80036F093C0A5F094C0A6F095C0A7F0A5C097
:1058C80093F0A6C094F0A7C095F0000E0001966F63
:1058D800000E0001976F3F0E0001986F91EC36F0B3
:1058E80093C0A2F094C0A3F095C0A4F012007AD09F
:1058F8000A0E0001AB6576D0000E00018A6F030E18
:10590800896F000E00017C6F0A0E7B6FABC079F0C7
:1059180000017A6B50EC40F079C087F07AC088F0CB
:105928000DEC48F0BB0E00018725F66EF10E000164
:105938008821F76EF86A000EF8220900F5CF96F074
:105948000900F5CF97F00A00F5CF98F0000E000196
:10595800826F0A0E816FABC07FF00001806B03EC91
:105968003EF0090E00017F250001876F000E00013F
:1059780080210001886F000E00018A6F030E896F75
:105988000DEC48F0BB0E00018725F66EF10E000104
:105998008821F76EF86A000EF8220900F5CF93F017
:1059A8000900F5CF94F00A00F5CF95F091EC36F0A8
:1059B80093C0A8F094C0A9F095C0AAF0A8C093F02D
:1059C800A9C094F0AAC095F0000E0001966F000ED1
:1059D8000001976F3F0E0001986F91EC36F080D769
:1059E800120000D00001AB51030DBB0EF324F66E7C
:1059F800F10EF420F76EF86A000EF8220900F5CFD0
:105A080093F00900F5CF94F00A00F5CF95F0000E59
:105A18000001966F000E0001976F3F0E0001986F0E
:105A280091EC36F093C0A2F094C0A3F095C0A4F016
:105A380012001200AEC0B2F00001B36BB46B0001EB
:105A4800AD350001B23701E3B3810001B251000165
:105A5800B76FB1C0B2F00001B36BB46B0001B035E1
:105A68000001B23701E3B3810001B2510001B66F02
:105A78000001B7510001D8B411D00001B65100019E
:105A8800B75DD8B012D00001B75100080001B625A3
:105A98000001B26F180E0001B26507D0AFC0ACF0BC
:105AA800B0C0ADF0B1C0AEF012000001B6510001B7
:105AB800D8B411D00001B7510001B65DD8B012D0EA
:105AC8000001B65100080001B7250001B26F180E99
:105AD8000001B26507D0ACC0ACF0ADC0ADF0AEC04F
