:04000000E6EF00F037
:10000800FACF2FF0FBCF30F0E9CF31F0A9EF2DF088
:10001800D8CF0EF0E8CF0FF0E0CF10F0FACF11F004
:10002800FBCF12F0E9CF13F0EACF14F0E1CF15F0CF
:10003800E2CF16F0D9CF17F0DACF18F0F3CF19F0D6
:10004800F4CF1AF0F6CF1BF0F7CF1CF0F8CF1DF065
:10005800F5CF1EF0000E1F6EF29C9EAA7FD02CECEE
:1000680061F01F6EC4EC61F00009D8A40FD0630ED4
:10007800446072D04450010D000EF324D96E040E72
:10008800F420DA6E1FC0DFFF442A66D00D0E1F1859
:10009800D8B44FD00A0E1F18D8B44BD07F0E1F18F3
:1000A800D8B404D0080E1F18D8A41FD00301EF51EC
:1000B800D8B41BD00301EF29A9EC60F00301EF07C6
:1000C8000301EF51010D640EF324D96E040EF420E0
:1000D800DA6E000EDF6E3E0EF2EC5FF0640E0B6E11
:1000E800040E0C6ED0EC60F037D0620E0301EF61A5
:1000F8001BD00301EE51D8A42FD01F500AEC61F099
:100108000009D8B429D01F5052EC60F00301EF5118
:10011800010D640EF324D96E040EF420DA6E1FC0AC
:10012800DFFF0301EF2B18D09D9A010E0301EC6F3E
:1001380013D00301EF51D8B40FD00301EE51D8A466
:100148000BD09D9A950E0C6EE90E0D6E23EC60F0A7
:10015800010E0301EE6F00D09E9A10D09EA00CD025
:10016800502A020E506406D08B948B92CD90000ECC
:10017800506E00D09E9002D000F000D0F28C1EC0CD
:10018800F5FF1DC0F8FF1CC0F7FF1BC0F6FF1AC023
:10019800F4FF19C0F3FF18C0DAFF17C0D9FF16C063
:1001A800E2FF15C0E1FF14C0EAFF13C0E9FF12C067
:1001B800FBFF11C0FAFF10C0E0FF0FC0E8FF0EC040
:1001C800D8FF100046EF55F0010E02018F6F000EA8
:1001D8000201866F000E876F000E886F000E896F10
:1001E800000E0201926F000E0201936F000E0201D1
:1001F800946F000E956F000E966F000E976F000EAD
:100208000201796F000E7A6F000E7B6F000E7C6F13
:10021800000E02018D6F000E0201846F000E0201B4
:10022800906F000E0201856F000E02017D6F000EB7
:100238007E6F000E7F6F000E806F000E02016E6FE2
:10024800000E02018A6F000E0001606F020E0001AD
:10025800616F000E0001636F640E626FFEEC5CF06C
:10026800640E0001606F020E0001616F000E000154
:10027800636F0A0E626FFEEC5CF06F0E0001606F38
:10028800020E0001616F000E0001636F0A0E626FBB
:10029800FEEC5CF0E1C063F0E2C064F09B0E00018C
:1002A800656FFF0E0001666FF3EC59F00009D8B4D2
:1002B80029D0000E0201996F580E0201996502D0EB
:1002C800120012000201995167EC3BF0B60E0001D2
:1002D8006B6FFF0E00016C6FD9EC5FF00201995152
:1002E8007BEC4AF0950E00016B6FE90E00016C6F14
:1002F800D9EC5FF00201992B580E02019965E2D7FB
:1003080012001200E1C063F0E2C064F0BC0E00010C
:10031800656FFF0E0001666F6DEC44F00009D8B4FC
:1003280080D0000E4B6EE1C063F0E2C064F0FC0EBA
:100338000001656FE80E0001666FF3EC59F00009E3
:10034800D8B412D0550E0001686FE90E0001696F2C
:10035800010E00016A6F0C0E00016B6F070E0001A1
:100368006C6FA5EC5EF054D0E1C063F0E2C064F0BD
:100378000B0E0001656FE90E0001666FF3EC59F092
:100388000009D8B412D0610E0001686FE90E0001AF
:10039800696F010E00016A6F0C0E00016B6F070E8A
:1003A80000016C6FA5EC5EF033D0E1C063F0E2C0F1
:1003B80064F01A0E0001656FE90E0001666FF3EC38
:1003C80059F00009D8B412D06D0E0001686FE90E1B
:1003D8000001696F010E00016A6F0C0E00016B6F5E
:1003E800070E00016C6FA5EC5EF012D0470E0001FD
:1003F8006B6FE90E00016C6FD9EC5FF0950E000190
:100408006B6FE90E00016C6FD9EC5FF0120000D041
:10041800340E00016D6FF70E00016E6F63EC5EF035
:100428001200E1C063F0E2C064F0C20E0001656F23
:10043800FF0E0001666F6DEC44F00009D8B47BD163
:10044800000E4B6EE1C063F0E2C064F0E20E000102
:10045800656FE70E0001666FF3EC59F00009D8B438
:1004680013D06C0E0001686FE80E0001696F020E70
:1004780000016A6F100E00016B6F070E00016C6FB0
:10048800A5EC5EF0010E21D0E1C063F0E2C064F09B
:10049800BC0E0001656FE70E0001666FF3EC59F0C2
:1004A8000009D8B415D05C0E0001686FE80E000191
:1004B800696F020E00016A6F100E00016B6F070E64
:1004C80000016C6FA5EC5EF0000E0001F06F2AD100
:1004D800E1C063F0E2C064F0F40E0001656FE70E5E
:1004E8000001666FF3EC59F00009D8B413D08C0EF4
:1004F8000001686FE80E0001696F020E00016A6F63
:10050800100E00016B6F070E00016C6FA5EC5EF01A
:10051800010E21D0E1C063F0E2C064F0CF0E00010B
:10052800656FE70E0001666FF3EC59F00009D8B467
:1005380015D07C0E0001686FE80E0001696F020E8D
:1005480000016A6F100E00016B6F070E00016C6FDF
:10055800A5EC5EF0000E0001F16FE4D0E1C063F09D
:10056800E2C064F0800E0001656FE70E0001666F5F
:10057800F3EC59F00009D8B413D0AC0E0001686F41
:10058800E80E0001696F020E00016A6F100E00018B
:100598006B6F070E00016C6FA5EC5EF0010E21D0A9
:1005A800E1C063F0E2C064F0410E0001656FE70E40
:1005B8000001666FF3EC59F00009D8B415D09C0E11
:1005C8000001686FE80E0001696F020E00016A6F92
:1005D800100E00016B6F070E00016C6FA5EC5EF04A
:1005E800000E0001F26F9ED0E1C063F0E2C064F03B
:1005F800940E0001656FE70E0001666FF3EC59F089
:100608000009D8B413D0CC0E0001686FE80E0001C1
:10061800696F020E00016A6F100E00016B6F070E02
:1006280000016C6FA5EC5EF0010E21D0E1C063F013
:10063800E2C064F0560E0001656FE70E0001666FB8
:10064800F3EC59F00009D8B415D0BC0E0001686F5E
:10065800E80E0001696F020E00016A6F100E0001BA
:100668006B6F070E00016C6FA5EC5EF0000E0001C9
:10067800F36F58D0E1C063F0E2C064F0A80E000147
:10068800656FE70E0001666FF3EC59F00009D8B406
:1006980013D0EC0E0001686FE80E0001696F020EBE
:1006A80000016A6F100E00016B6F070E00016C6F7E
:1006B800A5EC5EF0010E21D0E1C063F0E2C064F069
:1006C8006B0E0001656FE70E0001666FF3EC59F0E1
:1006D8000009D8B415D0DC0E0001686FE80E0001DF
:1006E800696F030E00016A6F100E00016B6F070E31
:1006F80000016C6FA5EC5EF0000E0001F46F12D0E3
:10070800470E00016B6FE90E00016C6FD9EC5FF0CA
:10071800950E00016B6FE90E00016C6FD9EC5FF06C
:10072800120000D0510E00016D6FF70E00016E6FC0
:1007380063EC5EF01200E1C063F0E2C064F0210EE9
:100748000001656FFE0E0001666F6DEC44F0000954
:10075800D8B407D1000E4B6EE1C074F0E2C075F05A
:10076800000E0001766F020E0001776F7F0E000108
:10077800786FF30E0001796FE1EC46F000C28BF25E
:100788008B0E0001606F020E0001616F7FEC60F05C
:1007980001C283F25F0E02010219D8A4D0D08BC225
:1007A80064F24B0E0001636FE80E0001646F640E83
:1007B8000001656F020E0001666F6DEC44F00009E0
:1007C800D8B4B3D002018B51E3EC60F00009D8B47F
:1007D80004D0300E02018B5F07D0610E02018B5FDF
:1007E8000A0E02018B2700D083C264F2820E000138
:1007F800636FE90E0001646F640E0001656F020EFD
:100808000001666F6DEC44F00009D8B484D0300E56
:100818000201835F02018307E1C063F0E2C064F074
:100828009D0E0001656FFB0E0001666F6DEC44F0D4
:100838000009D8B402D0000E10D0E1C063F0E2C0C5
:1008480064F0990E0001656FFA0E0001666F6DEC99
:1008580044F00009D8B404D0010E0201826F0AD016
:10086800FC0E00016D6FF20E00016E6F63EC5EF01E
:10087800120000D002018B51780DA70E0001E46F21
:10088800DF0E0001E56FF3500001E427F45000018A
:10089800E52302018351180DF3500001E427F450B9
:1008A8000001E523020182510C0DF3500001E425FB
:1008B8000001686FF4500001E5210001696F030E23
:1008C80000016A6F0C0E00016B6F070E00016C6F60
:1008D800A5EC5EF000D002018B51050D000E000161
:1008E800E46F060E0001E56FF3500001E427F450B1
:1008F8000001E52302018351010DF3500001E425B5
:10090800D96EF4500001E521DA6E02018251F2EC51
:1009180060F0DF6E1DD0720E00016D6FF90E0001E0
:100928006E6F63EC5EF0120013D0810E00016D6FE4
:10093800F80E00016E6F63EC5EF0120009D0030E32
:1009480000016D6FF40E00016E6F63EC5EF0120033
:100958006E0E00016D6FF70E00016E6F63EC5EF0B6
:100968001200E1C063F0E2C064F0E90E0001656FB7
:10097800FF0E0001666F6DEC44F00009D8B400D298
:10098800E1C06CF0E2C06DF0010E00016E6F940ED4
:1009980000016F6F020E0001706F38EC39F000092A
:1009A800D8A4D1D0020197510201961104E10201A5
:1009B8009505D8A011D03E0E00016D6FF60E00010E
:1009C8006E6F63EC5EF0950E00016B6FE90E00012F
:1009D8006C6FD9EC5FF0120094C293F2E1C06CF036
:1009E800E2C06DF0000E00016E6F940E00016F6F93
:1009F800020E0001706F38EC39F00009D8A492D0CB
:100A0800020197510201961104E102019505D8A04F
:100A180011D05D0E00016D6FF60E00016E6F63EC74
:100A28005EF0950E00016B6FE90E00016C6FD9EC5A
:100A38005FF0120094C292F2000E0001AE6F020E37
:100A48000001AF6F4D0E0001B06FFB0E0001B16FDA
:100A580092C2B2F00001B36BBAEC1BF0000E0001B9
:100A68006D6F020E00016E6F1FEC5FF0000E00014B
:100A7800AE6F020E0001AF6F380E0001B06FFB0EB3
:100A88000001B16F93C2B2F00001B36BBAEC1BF076
:100A9800000E00016D6F020E00016E6F1FEC5FF01B
:100AA80093C264F00201925179EC4CF064C086F272
:100AB80065C087F266C088F267C089F286C275F0A1
:100AC80087C276F088C277F089C278F0000E0001FC
:100AD800796F55EC59F0000E0001AE6F020E00015F
:100AE800AF6FA20E0001B06FF90E0001B16F86C2A0
:100AF800B2F087C2B3F088C2B4F089C2B5F0BAECDC
:100B08001BF0000E00016D6F020E00016E6F1FECEE
:100B18005FF0950E00016B6FE90E00016C6FD9EC68
:100B28005FF012001E0E00016D6FF60E00016E6F71
:100B380063EC5EF0950E00016B6FE90E00016C6FBF
:100B4800D9EC5FF01200E1C06CF0E2C06DF0000E6D
:100B580000016E6F860E00016F6F020E0001706F4C
:100B680038EC39F00009D8A493D086C275F087C252
:100B780076F088C277F089C278F0000E0001796FAC
:100B880055EC59F0000E0001AE6F020E0001AF6F78
:100B9800460E0001B06FFC0E0001B16F86C2B2F0C4
:100BA80087C2B3F088C2B4F089C2B5F0BAEC1BF0C2
:100BB800000E00016D6F020E00016E6F1FEC5FF0FA
:100BC80086C264F087C265F088C266F089C267F0A1
:100BD800920E0001686F020E0001696F930E00010A
:100BE8006A6F020E00016B6F0AEC58F00009D8B466
:100BF80035D0000E0001AE6F020E0001AF6F510E2E
:100C08000001B06FFB0E0001B16F92C2B2F000019B
:100C1800B36BBAEC1BF0000E00016D6F020E000101
:100C28006E6F1FEC5FF0000E0001AE6F020E000148
:100C3800AF6F430E0001B06FF10E0001B16F93C2A8
:100C4800B2F00001B36BBAEC1BF0000E00016D6F3F
:100C5800020E00016E6F1FEC5FF011D03C0E000118
:100C68006D6FF50E00016E6F63EC5EF0950E00017E
:100C78006B6FE90E00016C6FD9EC5FF01200950EF6
:100C880000016B6FE90E00016C6FD9EC5FF0120088
:100C9800E1C060F0E2C061F0E70E0001626FFF0E94
:100CA8000001636F61EC4EF00009D8A410D0950ED6
:100CB80000016B6FE90E00016C6FD9EC5FF0F80E64
:100CC80000016D6FF60E00016E6F63EC5EF0950E1D
:100CD80000016B6FE90E00016C6FD9EC5FF0940EA8
:100CE80000016D6FFF0E00016E6F63EC5EF01E0E6B
:100CF80000016D6FFC0E00016E6F63EC5EF03B0E41
:100D080000016D6FFF0E00016E6F63EC5EF05A0E0E
:100D180000016D6FFA0E00016E6F63EC5EF0950EC8
:100D280000016B6FE90E00016C6FD9EC5FF06C0E7F
:100D380000016D6FFF0E00016E6F63EC5EF0060E32
:100D480000016D6FFD0E00016E6F63EC5EF03D0EED
:100D580000016D6FFF0E00016E6F63EC5EF05E0EBA
:100D680000016D6FFD0E00016E6F63EC5EF0950E75
:100D780000016B6FE90E00016C6FD9EC5FF0120097
:100D8800E1C063F0E2C064F0B20E0001656FFE0ED0
:100D98000001666F6DEC44F00009D8B4D2D2E1C00E
:100DA8007BF0E2C07CF039EC43F002018A6F02016B
:100DB8008A510201D8B46CD2020E02018A19D8A451
:100DC80003D00001E32B00D0E1C06CF0E2C06DF06D
:100DD800000E00016E6F940E00016F6F020E00018D
:100DE800706F38EC39F00009D8A452D2020197513B
:100DF800020196110201951104E10D0E0201945DA4
:100E0800D8B02CD202019451020195110201961119
:100E180002019711D8B422D2E1C063F0E2C064F0B5
:100E28007E0E0001656FFC0E0001666F6DEC44F0EC
:100E38000009D8A423D1FE0E0001E46FFF0E0001C3
:100E4800E56F94C2E6F095C2E7F0D8900001E63766
:100E5800E7370001E4510001E6270001E5510001F0
:100E6800E723CC0E0001E86F020E0001E96F050EC2
:100E78000001E827000EE9230001E6510001E827F8
:100E88000001E7510001E923010E0001E825D96EB0
:100E9800000E0001E921DA6EDF500001646FFE0EDA
:100EA8000001EA6FFF0E0001EB6F94C2ECF095C2EF
:100EB800EDF0D8900001EC37ED370001EA51000160
:100EC800EC270001EB510001ED23D10E0001EC25C8
:100ED800D96E020E0001ED21DA6EDF5079EC4CF08C
:100EE80064C079F265C07AF266C07BF267C07CF2B2
:100EF8000201792908E102017B2902017A11020124
:100F08007C11D8B4A9D079C275F07AC276F07BC2C8
:100F180077F07CC278F0000E0001796F55EC59F03B
:100F2800000E0001AE6F020E0001AF6F620E0001ED
:100F3800B06FFB0E0001B16F79C2B2F07AC2B3F0A4
:100F48007BC2B4F07CC2B5F0BAEC1BF0000E000115
:100F58006D6F020E00016E6F1FEC5FF0000E000156
:100F6800AE6F020E0001AF6F280E0001B06FF10ED8
:100F78000001B16FFE0E0001E46FFF0E0001E56F86
:100F880094C2E6F095C2E7F0D8900001E637E7375B
:100F98000001E4510001E6270001E5510001E723C3
:100FA800D10E0001E625D96E020E0001E721DA6EA6
:100FB800DF500001E86F0001E8510001B26FB36B28
:100FC800FE0E0001E96FFF0E0001EA6F94C2EBF01C
:100FD80095C2ECF0D8900001EB37EC370001E951ED
:100FE8000001EB270001EA510001EC23CC0E0001BF
:100FF800ED6F020E0001EE6F050E0001ED27000EE9
:10100800EE230001EB510001ED270001EC51000136
:10101800EE23010E0001ED25D96E000E0001EE2130
:10102800DA6EDF500001EF6F0001EF510001B46F7D
:10103800B56BBAEC1BF0000E00016D6F020E0001DB
:101048006E6F1FEC5FF0950E00016B6FE90E0001EB
:101058006C6FD9EC5FF01200950E00016B6FE90E12
:1010680000016C6FD9EC5FF0E50E00016D6FEF0EBB
:1010780000016E6F63EC5EF012000AD13DEC5AF08D
:101088000009D8B4120001D01200F0C364F0F1C313
:1010980065F0F2C366F0F3C367F0920E0001686F63
:1010A800020E0001696F930E00016A6F020E0001C3
:1010B8006B6F0AEC58F0FE0E0001E46FFF0E0001A2
:1010C800E56F94C2E6F095C2E7F0D8900001E637E4
:1010D800E7370001E4510001E6270001E55100016E
:1010E800E723D10E0001E625D96E020E0001E721A3
:1010F800DA6E92C2DFFFFE0E0001E46FFF0E000100
:10110800E56F94C2E6F095C2E7F0D8900001E637A3
:10111800E7370001E4510001E6270001E55100012D
:10112800E723CC0E0001E86F020E0001E96F050EFF
:101138000001E827000EE9230001E6510001E82735
:101148000001E7510001E923010E0001E825D96EED
:10115800000E0001E921DA6E93C2DFFF48EC5BF074
:10116800950E00016B6FE90E00016C6FD9EC5FF012
:10117800000E0001AE6F020E0001AF6F430E0001BA
:10118800B06FF00E0001B16F94C2B2F095C2B3F027
:1011980096C2B4F097C2B5F0F0C3B6F0F1C3B7F099
:1011A800F2C3B8F0F3C3B9F0BAEC1BF0000E0001BB
:1011B8006D6F020E00016E6F1FEC5FF0000E0001F4
:1011C800AE6F020E0001AF6F280E0001B06FF10E76
:1011D8000001B16F92C2B2F00001B36B93C2B4F0D8
:1011E8000001B56BBAEC1BF0000E00016D6F020E2A
:1011F80000016E6F1FEC5FF0950E00016B6FE90E3A
:1012080000016C6FD9EC5FF0000E0201996F090EB6
:101218000201996502D0120012008B84500E000161
:10122800606FC30E616F000E626F000E636F57EC44
:101238005DF08B94500E0001606FC30E616F000E5D
:10124800626F000E636F57EC5DF00201992B090E77
:1012580002019965E2D7120012001AD0950E00011A
:101268006B6FE90E00016C6FD9EC5FF0BA0E0001EC
:101278006D6FF30E00016E6F63EC5EF0950E00016A
:101288006B6FE90E00016C6FD9EC5FF0120000D0B3
:10129800950E00016B6FE90E00016C6FD9EC5FF0E1
:1012A8006D0E00016D6FF40E00016E6F63EC5EF061
:1012B800950E00016B6FE90E00016C6FD9EC5FF0C1
:1012C800940E00016D6FFF0E00016E6F63EC5EF00F
:1012D8006F0E00016D6FFD0E00016E6F63EC5EF026
:1012E8006E0E00016D6FFC0E00016E6F63EC5EF018
:1012F800950E00016B6FE90E00016C6FD9EC5FF081
:101308006C0E00016D6FFF0E00016E6F63EC5EF0F6
:10131800DB0E00016D6FFD0E00016E6F63EC5EF079
:10132800180E00016D6FFD0E00016E6F63EC5EF02C
:10133800950E00016B6FE90E00016C6FD9EC5FF040
:101348001200E1C063F0E2C064F0A90E0001656F0D
:10135800FF0E0001666F6DEC44F00009D8A410D0B0
:10136800E1C063F0E2C064F0750E0001656FFF0E26
:101378000001666F6DEC44F00009D8B444EF12F038
:10138800000E0201816FE1C063F0E2C064F0A90EB3
:101398000001656FFF0E0001666F6DEC44F00009F7
:1013A800D8B404D0010E0201856F16D0000E0201D8
:1013B800856FE1C063F0E2C064F0880E0001656FDC
:1013C800FD0E0001666F6DEC44F00009D8B404D03E
:1013D800010E0201816F00D0E1C063F0E2C064F049
:1013E8009E0E0001656FFF0E0001666F6DEC44F004
:1013F8000009D8B402D33DEC5AF00009D8B4120061
:1014080001D01200950E00016B6FE90E00016C6FA0
:10141800D9EC5FF0F0C364F0F1C365F0F2C366F095
:10142800F3C367F0920E0001686F020E0001696F46
:10143800930E00016A6F020E00016B6F0AEC58F000
:10144800010E0201906F000E0201986F580E020102
:10145800986501D05CD2000E02018F6F000E020168
:10146800996F020199510201D8A44BD001D049D0FB
:1014780002019851020D000E0001E46F050E0001F3
:10148800E56FF3500001E427F4500001E523020161
:101498009951020DF3500001E425D96EF450000172
:1014A800E521DA6EDF50D8A429D002019851020D47
:1014B800000E0001E46F050E0001E56FF350000116
:1014C800E427F4500001E52302019951020DF3507D
:1014D8000001E427F4500001E523010E0001E42592
:1014E800D96E000E0001E521DA6EDF50D8A406D0CF
:1014F80099C290F2010E02018F6F03D00201992B5D
:10150800B0D702018505D8A4D0D002018F510201BD
:10151800D8A415D0270E00016B6FF40E00016C6F74
:10152800D9EC5FF0020198517BEC4AF0950E00016E
:101538006B6FE90E00016C6FD9EC5FF0E5D1020129
:1015480090510201D8B458D0000E0201996F4CD0C6
:1015580002019851020D000E0001E46F050E000112
:10156800E56FF3500001E427F4500001E523020180
:101578009951020DF3500001E425D96EF450000191
:10158800E521DA6E02019251DE18D8A42AD00201B0
:101598009851020D000E0001E46F050E0001E56F81
:1015A800F3500001E427F4500001E52302019951AA
:1015B800020DF3500001E427F4500001E523010E69
:1015C8000001E425D96E000E0001E521DA6E020162
:1015D8009351DE18D8A405D0000E02018F6F0CD0ED
:1015E80000D00201992B00D0020190510201995DAF
:1015F800D8B002D0ADD700D002018F510201D8A4D3
:1016080015D0D60E00016B6FF40E00016C6FD9EC8B
:101618005FF0020198517BEC4AF0950E00016B6F68
:10162800E90E00016C6FD9EC5FF06ED102019851A0
:10163800020D000E0001E46F050E0001E56FF35086
:101648000001E427F4500001E52302019051020D46
:10165800F3500001E425D96EF4500001E521DA6E5B
:1016680092C2DFFF02019851020D000E0001E46FE3
:10167800050E0001E56FF3500001E427F450000166
:10168800E52302019051020DF3500001E427F450C4
:101698000001E523010E0001E425D96E000E0001CA
:1016A800E521DA6E93C2DFFF2FD1020190510201CA
:1016B800D8B42AD1000E0201996F1ED102019851A7
:1016C800020D000E0001E46F050E0001E56FF350F6
:1016D8000001E427F4500001E52302019951020DAD
:1016E800F3500001E425D96EF4500001E521DA6ECB
:1016F80002019251DE18D8A4FCD002019851020DC3
:10170800000E0001E46F050E0001E56FF3500001C3
:10171800E427F4500001E52302019951020DF3502A
:101728000001E427F4500001E523010E0001E4253F
:10173800D96E000E0001E521DA6E02019351DE1820
:10174800D8A4D7D002019851020D000E0001E46F11
:10175800050E0001E56FF3500001E427F450000185
:10176800E52302019951020DF3500001E425D96ED9
:10177800F4500001E521DA6E000EDF6E0201985187
:10178800020D000E0001E46F050E0001E56FF35035
:101798000001E427F4500001E52302019951020DEC
:1017A800F3500001E427F4500001E523010E000185
:1017B800E425D96E000E0001E521DA6E000EDF6E19
:1017C80099C28CF2A1D002019851020D02018C51EC
:1017D8000001E46FE56BD8900001E437E537020EAD
:1017E8000001E427000EE523000E0001E66F050E58
:1017F8000001E76F0001E4510001E6270001E5510F
:101808000001E723F3500001E625D96EF4500001EA
:10181800E721DA6E02019851020D000E0001E86F0F
:10182800050E0001E96FF3500001E827F4500001AC
:10183800E92302018C51020DF3500001E825E16E05
:10184800F4500001E921E26EDFCFE7FF0201985171
:10185800020D02018C510001E46FE56BD890000184
:10186800E437E537020E0001E427000EE523000EF9
:101878000001E66F050E0001E76F0001E451000169
:10188800E6270001E5510001E723F3500001E627B0
:10189800F4500001E723010E0001E625D96E000E81
:1018A8000001E721DA6E02019851020D000E0001D5
:1018B800E86F050E0001E96FF3500001E827F450C6
:1018C8000001E92302018C51020DF3500001E827C1
:1018D800F4500001E923010E0001E825E16E000E35
:1018E8000001E921E26EDFCFE7FF02018C2B0CD06B
:1018F80000D00201992B00D0020190510201995D9C
:10190800D8B002D0DBD600D00201982B9FD548EC86
:101918005BF0000E0201996F090E0201996501D072
:1019280029D002018505D8A402D08B8402D08B82ED
:1019380000D0500E0001606FC30E616F000E626F21
:10194800000E636F57EC5DF002018505D8A402D044
:101958008B9402D08B9200D0500E0001606FC30EA2
:10196800616F000E626F000E636F57EC5DF002014D
:10197800992BD2D702018505D8A417D0000E0001F3
:10198800AE6F020E0001AF6F300E0001B06FF20EA5
:101998000001B16FF0C3B2F0F1C3B3F0F2C3B4F019
:1019A800F3C3B5F0BAEC1BF017D0000E0001AE6F10
:1019B800020E0001AF6F960E0001B06FEC0E000131
:1019C800B16FF0C3B2F0F1C3B3F0F2C3B4F0F3C334
:1019D800B5F0BAEC1BF000D0000E00016D6F020EDE
:1019E80000016E6F1FEC5FF0950E00016B6FE90E42
:1019F80000016C6FD9EC5FF0120002018105D8B4C8
:101A08005AD2E1C07BF0E2C07CF039EC43F002012D
:101A18008A6F02018A510201D8A411D0700E000108
:101A28006D6FF30E00016E6F63EC5EF0950E0001B2
:101A38006B6FE90E00016C6FD9EC5FF01200020EBB
:101A480002018A19D8A403D00001E32B00D0950E17
:101A580000016B6FE90E00016C6FD9EC5FF0E1C01B
:101A68006CF0E2C06DF0000E00016E6F940E000184
:101A78006F6F020E0001706F38EC39F00009D8A4BE
:101A880003D094C291F211D0710E00016D6FF00E67
:101A980000016E6F63EC5EF0950E00016B6FE90E4E
:101AA80000016C6FD9EC5FF0120002019151020144
:101AB800D8B405D0030E0201916512D000D0950E5E
:101AC80000016D6FF30E00016E6F63EC5EF0950E12
:101AD80000016B6FE90E00016C6FD9EC5FF012002A
:101AE800E1C060F0E2C061F0010E0001626F6F0EAC
:101AF8000001636F020E0001646FD1EC51F0000920
:101B0800D8B412D0D40E00016D6FF20E00016E6FC2
:101B180063EC5EF0950E00016B6FE90E00016C6FCF
:101B2800D9EC5FF01200C7D16F0E0001606F020E92
:101B38000001616F41EC5EF002019105D8B405D057
:101B4800020E02019119D8A42AD102017051D8B409
:101B580005D0200E02017019D8A40FD1000E020181
:101B6800706F02019105D8A415D08D0E0001636F26
:101B7800E90E0001646F6F0E0001656F020E00012F
:101B8800666F6DEC44F00009D8A419D0000E02016C
:101B98008F6F15D0020E02019119D8A410D0910EA2
:101BA8000001636FE90E0001646F6F0E0001656F3D
:101BB800020E0001666F6DEC44F0E5D700D002011B
:101BC8008F510201D8A411D0D90E00016D6FF60E05
:101BD80000016E6F63EC5EF0950E00016B6FE90E0D
:101BE80000016C6FD9EC5FF0120002019105D8A4D6
:101BF80017D0640E02016F19D8A402D0000E22D0AB
:101C0800650E02016F19D8A402D0010E1BD0660E12
:101C180002016F19D8A41200020E14D012004BD181
:101C2800020E02019119D8A446D1620E02016F1961
:101C3800D8A402D0030E06D0640E02016F19D8A4EE
:101C480004D0040E02018E6F36D1680E02016F199E
:101C5800D8A41200640E0001606F040E0001616FC9
:101C6800EFC362F00001636BFEEC5CF0000E030151
:101C7800EF6F000E0301EE6F130E00016B6FFE0E87
:101C880000016C6FD9EC5FF0950E00016B6FE90EE7
:101C980000016C6FD9EC5FF03E0E72EC5FF0000E45
:101CA80002018D6F71EC61F09E9A9D8A23D0E00E3F
:101CB8000001606F930E616F040E626F000E636F18
:101CC80057EC5DF002018D2B190E02018D6512D0C3
:101CD800950E00016B6FE90E00016C6FD9EC5FF097
:101CE800290E00016D6FEE0E00016E6F63EC5EF061
:101CF800120000D00301EE51D8B4D9D79D9A010E35
:101D080002018F6F300E0401646505D0330E0401A3
:101D180064650DD000D05B0E00016D6FEE0E000102
:101D28006E6F63EC5EF0000E02018F6F00D004014D
:101D38006451D00F0201846F02018451040F020123
:101D48008E6F640E0001606F040E0001616FEFC3B7
:101D580062F00001636BFEEC5CF0000E0301EF6FB4
:101D6800000E0301EE6F02018F510201D8B4120078
:101D7800A2D01200A0D012009ED0D80E00016D6F24
:101D8800F10E00016E6F63EC5EF0950E00016B6F53
:101D9800E90E00016C6FD9EC5FF012008CD0030ED5
:101DA80002019119D8A487D002017051D8B471D01A
:101DB80002016F510201D8B46CD002017151D8B43C
:101DC80005D0200E02017119D8A463D070C264F244
:101DD800000E0201706F4B0E0001636FE80E0001E8
:101DE800646F6F0E0001656F020E0001666F6DEC87
:101DF80044F00009D8A404D0000E02018F6F00D06F
:101E0800820E0001636FE90E0001646F640E000129
:101E1800656F020E0001666F6DEC44F00009D8A4EE
:101E280003D0000E02018F6F02018F510201D8A466
:101E380011D0830E00016D6FF20E00016E6F63EC1E
:101E48005EF0950E00016B6FE90E00016C6FD9EC26
:101E58005FF0120002016F51E3EC60F00009D8B4A2
:101E680004D0300E02016F5F07D0610E02016F5F70
:101E78000A0E02016F2700D002016F51050DF350C1
:101E8800080F02018E6F02016451CF0F02018E27E5
:101E980012D0FB0E00016D6FF00E00016E6F63EC47
:101EA8005EF0950E00016B6FE90E00016C6FD9ECC6
:101EB8005FF0120000D0020185510201D8B4B4D1FC
:101EC8003DEC5AF00009D8B4120001D01200950E6A
:101ED80000016B6FE90E00016C6FD9EC5FF0F0C385
:101EE80064F0F1C365F0F2C366F0F3C367F0920ED5
:101EF8000001686F020E0001696F930E00016A6F9E
:101F0800020E00016B6F0AEC58F0000E02018F6F91
:101F1800000E0201996F020199510201D8A44BD019
:101F280001D049D002018E51020D000E0001E46F6C
:101F3800050E0001E56FF3500001E427F45000019D
:101F4800E52302019951020DF3500001E425D96EF1
:101F5800F4500001E521DA6EDF50D8A429D002013F
:101F68008E51020D000E0001E46F050E0001E56FB1
:101F7800F3500001E427F4500001E52302019951D0
:101F8800020DF3500001E427F4500001E523010E8F
:101F98000001E425D96E000E0001E521DA6EDF505C
:101FA800D8A406D099C290F2010E02018F6F03D017
:101FB8000201992BB0D702018F510201D8A409D090
:101FC800140E00016D6FF00E00016E6F63EC5EF091
:101FD8001200020190510201D8B458D0000E02013B
:101FE800996F4CD002018E51020D000E0001E46F72
:101FF800050E0001E56FF3500001E427F4500001DD
:10200800E52302019951020DF3500001E425D96E30
:10201800F4500001E521DA6E02019251DE18D8A4CD
:102028002AD002018E51020D000E0001E46F050E48
:102038000001E56FF3500001E427F4500001E523A7
:1020480002019951020DF3500001E427F4500001F8
:10205800E523010E0001E425D96E000E0001E521FB
:10206800DA6E02019351DE18D8A405D0000E0201E1
:102078008F6F0CD000D00201992B00D00201905133
:102088000201995DD8B002D0ADD700D002018F51BE
:102098000201D8A409D09F0E00016D6FF00E000157
:1020A8006E6F63EC5EF0120002018E51020D000E9D
:1020B8000001E46F050E0001E56FF3500001E4270D
:1020C800F4500001E52302019051020DF350000184
:1020D800E425D96EF4500001E521DA6E92C2DFFFE3
:1020E80002018E51020D000E0001E46F050E000181
:1020F800E56FF3500001E427F4500001E5230201E5
:102108009051020DF3500001E427F4500001E5233B
:10211800010E0001E425D96E000E0001E521DA6EFA
:1021280093C2DFFF48EC5BF0020184510201D8B48E
:1021380023D0000E0001AE6F020E0001AF6F180E23
:102148000001B06FEA0E0001B16FF0C3B2F0F1C345
:10215800B3F0F2C3B4F0F3C3B5F091C2B6F0000126
:10216800B76B6FC2B8F00001B96B84C2BAF0000156
:10217800BB6BBAEC1BF01FD0000E0001AE6F020E55
:102188000001AF6FF50E0001B06FEB0E0001B16FEB
:10219800F0C3B2F0F1C3B3F0F2C3B4F0F3C3B5F0D7
:1021A80091C2B6F00001B76B6FC2B8F00001B96B0D
:1021B800BAEC1BF000D0000E00016D6F020E00019A
:1021C8006E6F1FEC5FF0950E00016B6FE90E00015A
:1021D8006C6FD9EC5FF0000E0201996F090E0201D5
:1021E800996502D0120012008B84500E0001606FB6
:1021F800C30E616F000E626F000E636F57EC5DF0E7
:102208008B94500E0001606FC30E616F000E626FF9
:10221800000E636F57EC5DF00201992B090E020165
:102228009965E2D71200120002018105D8A457D09F
:10223800000E0201996F020199510201D8A49BD0A6
:1022480001D099D0000E02018C6F580E02018C65E6
:1022580001D041D002018C51020D000E0001E46F43
:10226800050E0001E56FF3500001E427F45000016A
:10227800E52302019951020DF3500001E425D96EBE
:10228800F4500001E521DA6E000EDF6E02018C5178
:10229800020D000E0001E46F050E0001E56FF3501A
:1022A8000001E427F4500001E52302019951020DD1
:1022B800F3500001E427F4500001E523010E00016A
:1022C800E425D96E000E0001E521DA6E000EDF6EFE
:1022D80002018C2BBAD70201992BADD74CD0000E36
:1022E8000201996F020199510201D8A444D001D08A
:1022F80042D002018E51020D000E0001E46F050E5E
:102308000001E56FF3500001E427F4500001E523D4
:1023180002019951020DF3500001E425D96EF450E1
:102328000001E521DA6E000EDF6E02018E51020D0A
:10233800000E0001E46F050E0001E56FF350000187
:10234800E427F4500001E52302019951020DF350EE
:102358000001E427F4500001E523010E0001E42503
:10236800D96E000E0001E521DA6E000EDF6E020163
:10237800992BB8D700D048EC5BF002018105D8A4AE
:102388000FD0000E0001AE6F020E0001AF6FD80E25
:102398000001B06FE90E0001B16FBAEC1BF037D045
:1023A800020184510201D8B41BD0000E0001AE6FA7
:1023B800020E0001AF6F2B0E0001B06FEC0E000192
:1023C800B16F91C2B2F00001B36B6FC2B4F00001FB
:1023D800B56B84C2B6F00001B76BBAEC1BF017D02E
:1023E800000E0001AE6F020E0001AF6FAC0E0001CF
:1023F800B06FF10E0001B16F91C2B2F00001B36B82
:102408006FC2B4F00001B56BBAEC1BF000D0000E3F
:1024180000016D6F020E00016E6F1FEC5FF0950EEC
:1024280000016B6FE90E00016C6FD9EC5FF0000ED4
:102438000201996F090E0201996502D0120012007B
:102448008B82500E0001606FC30E616F000E626FC9
:10245800000E636F57EC5DF08B92500E0001606FB9
:10246800C30E616F000E626F000E636F57EC5DF074
:102478000201992B090E02019965E2D71200120098
:10248800E1C063F0E2C064F0C80E0001656FFF0EA2
:102498000001666FF3EC59F00009D8B497D0640EC8
:1024A8000001606F040E0001616FEFC362F000016C
:1024B800636BFEEC5CF0000E0301EF6F000E03018E
:1024C800EE6FFE0E00016B6FF50E00016C6FD9EC1C
:1024D8005FF0950E00016B6FE90E00016C6FD9EC8F
:1024E8005FF03E0E02EC5FF0000E02018D6F71ECA2
:1024F80061F09E9A9D8A23D0E00E0001606F930ED2
:10250800616F040E626F000E636F57EC5DF002019D
:102518008D2B190E02018D6512D0950E00016B6F7F
:10252800E90E00016C6FD9EC5FF0170E00016D6FBA
:10253800F70E00016E6F63EC5EF0120000D003012D
:10254800EE51D8B4D9D79D9A590E04016419D8B45C
:1025580009D0790E04016419D8A414D00401655176
:10256800D8A410D02A0E00016D6FFD0E00016E6F09
:1025780063EC5EF0000E0201E96F48EC5BF0FF00CF
:10258800120011D0950E00016B6FE90E00016C6FFF
:10259800D9EC5FF0170E00016D6FF70E00016E6F3A
:1025A80063EC5EF000D0640E0001606F040E000161
:1025B800616FEFC362F00001636BFEEC5CF0000E2C
:1025C8000301EF6F000E0301EE6F1200E1C063F02C
:1025D800E2C064F0460E0001656FFF0E0001666FF1
:1025E800F3EC59F00009D8B498D1640E0001606F7B
:1025F800040E0001616FEFC362F00001636BFEEC33
:102608005CF0000E0301EF6F000E0301EE6F960EF3
:1026180000016B6FEA0E00016C6FD9EC5FF0950E4C
:1026280000016B6FE90E00016C6FD9EC5FF03E0E94
:1026380072EC5FF0000E02018D6F71EC61F09E9AF2
:102648009D8A23D0E00E0001606F930E616F040E27
:10265800626F000E636F57EC5DF002018D2B190E4F
:1026680002018D6512D0950E00016B6FE90E000115
:102678006C6FD9EC5FF0CD0E00016D6FF00E0001AC
:102688006E6F63EC5EF0120000D00301EE51D8B417
:10269800D9D79D9A640E0001606F040E0001616F26
:1026A800D80E0001626FFF0E0001636FC3EC5BF090
:1026B8000009D8B421D1640E0001606F040E000136
:1026C800616FEFC362F00001636BFEEC5CF0000E1B
:1026D8000301EF6F000E0301EE6F420E00016B6FF6
:1026E800F90E00016C6FD9EC5FF0950E00016B6F6D
:1026F800E90E00016C6FD9EC5FF03E0E02EC5FF062
:10270800000E02018D6F71EC61F09E9A9D8A2FD0A8
:10271800E00E0001606F930E616F040E626F000E91
:10272800636F57EC5DF002018D2B02016E510301BE
:10273800EF19D8B404D0000E02018D6F00D0190E25
:1027480002018D6511D0950E00016B6FE90E000135
:102758006C6FD9EC5FF0CD0E00016D6FF00E0001CB
:102768006E6F63EC5EF01200EFC36EF200D00301EF
:10277800EE51D8B4CDD7640E00017B6F040E000172
:102788007C6F39EC43F002018A6F02018A51020121
:10279800D8B4A1D0020E02018A19D8A403D003012B
:1027A800EF2B00D0640E00016C6F040E00016D6FFA
:1027B800010E00016E6F7D0E00016F6F020E0001A9
:1027C800706FF5EC36F00009D8A485D0020180BFFF
:1027D80082D00201805102017F1102017E1104E1C1
:1027E80002017D05D8A077D07DC2B2F57EC2B3F5CF
:1027F8007FC2B4F580C2B5F5020E0001966F000ED7
:10280800976F000E986F000E996FC3EC4DF00001A2
:102818009651000197110001981100019911D8A44F
:1028280048D0D7EC61F0800E00016D6FF10E000109
:102838006E6F63EC5EF0000E0001AE6F020E0001D9
:10284800AF6FFC0E0001B06FF70E0001B16FB2C59B
:10285800B2F0B3C5B3F0B4C5B4F0B5C5B5F0BAECD1
:102868001BF0000E00016D6F020E00016E6F1FEC71
:102878005FF0950E00016B6FE90E00016C6FD9ECEB
:102888005FF02A0E00016D6FFD0E00016E6F63ECA4
:102898005EF0000E0201E96F48EC5BF0950E000156
:1028A8006B6FE90E00016C6FD9EC5FF0FF0012004E
:1028B80012D0540E00016D6FF10E00016E6F63ECC3
:1028C8005EF0950E00016B6FE90E00016C6FD9EC9C
:1028D8005FF0120000D01A0E00016D6FF50E0001B6
:1028E8006E6F63EC5EF0950E00016B6FE90E0001F0
:1028F8006C6FD9EC5FF01200B20E00016D6FF80E2C
:1029080000016E6F63EC5EF0950E00016B6FE90ECF
:1029180000016C6FD9EC5FF01200E1C063F0E2C017
:1029280064F00C0E0001656FFB0E0001666FF3EC9E
:1029380059F00009D8B45FD1640E0001606F040E2D
:102948000001616FEFC362F00001636BFEEC5CF0A5
:10295800000E0301EF6F000E0301EE6F950E0001EC
:102968006B6FE90E00016C6FD9EC5FF04A0E000145
:102978006B6FF30E00016C6FD9EC5FF0950E0001E0
:102988006B6FE90E00016C6FD9EC5FF03E0E72ECD4
:102998005FF0000E02018D6F71EC61F09E9A9D8AC6
:1029A80023D0E00E0001606F930E616F040E626F1A
:1029B800000E636F57EC5DF002018D2B190E0201BA
:1029C8008D6512D0950E00016B6FE90E00016C6FDA
:1029D800D9EC5FF0BC0E00016D6FEB0E00016E6F5D
:1029E80063EC5EF0120000D00301EE51D8B4D9D7E1
:1029F8009D9A590E04016419D8B409D0790E0401BE
:102A08006419D8A4E7D004016551D8A4E3D0640EB2
:102A18000001606F040E0001616FEFC362F00001F6
:102A2800636BFEEC5CF0000E0301EF6F000E030118
:102A3800EE6F950E00016B6FE90E00016C6FD9EC1B
:102A48005FF0900E00016B6FF40E00016C6FD9EC13
:102A58005FF0950E00016B6FE90E00016C6FD9EC09
:102A68005FF03E0E02EC5FF0000E02018D6F71EC1C
:102A780061F09E9A9D8A27D0E00E0001606F930E48
:102A8800616F040E626F000E636F57EC5DF0020118
:102A98008D2B02016E510301EF19D8B404D0000E3A
:102AA80002018D6F00D0190E02018D6509D0BC0E90
:102AB80000016D6FEB0E00016E6F63EC5EF01200AB
:102AC800EFC36EF200D00301EE51D8B4D5D79D9A6A
:102AD800950E00016B6FE90E00016C6FD9EC5FF089
:102AE800950E00016B6FE90E00016C6FD9EC5FF079
:102AF80004016451D8B45DD004017851D8A459D0E8
:102B0800640E0001626F040E0001636F57EC5FF002
:102B18000009D8B43DD0610E00016D6FEC0E0001C4
:102B28006E6F63EC5EF0950E00016B6FE90E0001AD
:102B38006C6FD9EC5FF0640E0001746F040E000135
:102B4800756FEA0E0001766F020E0001776F150EA1
:102B58000001786F000E0001796FE1EC46F0500E2D
:102B68000001606FC30E616F000E626F000E636F2D
:102B780057EC5DF0000EB6EC29F00009D8B404D08B
:102B8800010E0301EB6F1200000E0301EB6F120040
:102B98005A0E00016D6FF20E00016E6F63EC5EF06D
:102BA800950E00016B6FE90E00016C6FD9EC5FF0B8
:102BB8001200980E00016D6FE90E00016E6F63EC54
:102BC8005EF0950E00016B6FE90E00016C6FD9EC99
:102BD8005FF01200BC0E00016D6FEB0E00016E6F0E
:102BE80063EC5EF0950E00016B6FE90E00016C6FEF
:102BF800D9EC5FF01200E1C063F0E2C064F07E0E31
:102C08000001656FFF0E0001666FF3EC59F00009D3
:102C1800D8B42FD0950E00016B6FE90E00016C6FD0
:102C2800D9EC5FF0000E0001AE6F020E0001AF6F2D
:102C38005A0E0001B06FFC0E0001B16FA4EC59F000
:102C480089C0B2F08AC0B3F08BC0B4F0BAEC1BF004
:102C5800000E00016D6F020E00016E6F1FEC5FF039
:102C6800950E00016B6FE90E00016C6FD9EC5FF0F7
:102C78001200E1C063F0E2C064F0CE0E0001656F9F
:102C8800F40E0001666FF3EC59F00009D8B4C3D014
:102C9800950E00016B6FE90E00016C6FD9EC5FF0C7
:102CA800000E0001AE6F020E0001AF6FF50E0001BD
:102CB800B06FFB0E0001B16F790E0001B26FE90E23
:102CC8000001B36FBAEC1BF0000E00016D6F020E2D
:102CD80000016E6F1FEC5FF0950E00016B6FE90E3F
:102CE80000016C6FD9EC5FF08B0E00016D6FF70E71
:102CF80000016E6F63EC5EF0950E00016B6FE90EDC
:102D080000016C6FD9EC5FF0B90E00016D6FF90E20
:102D180000016E6F63EC5EF0AE0E00016D6F020E87
:102D280000016E6F1FEC5FF0C80E00016D6F040E9E
:102D380000016E6F1FEC5FF0950E00016B6FE90EDE
:102D480000016C6FD9EC5FF0000E0001AE6F020E4F
:102D58000001AF6F8F0E0001B06FFD0E0001B16F63
:102D6800880E0001B26FE90E0001B36FBAEC1BF0D8
:102D7800000E00016D6F020E00016E6F1FEC5FF018
:102D8800000E0001AE6F020E0001AF6F320E00019F
:102D9800B06FF80E0001B16F060E0001B26FE80EB9
:102DA8000001B36FBAEC1BF0000E00016A6F020E4F
:102DB80000016B6F95EC60F0950E00016D6FE90EE8
:102DC80000016E6F63EC5EF0000E0001AE6F020E44
:102DD8000001AF6FE10E0001B06FFC0E0001B16F92
:102DE800B2C5B2F0B3C5B3F0B4C5B4F0B5C5B5F06B
:102DF800BAEC1BF0000E00016A6F020E00016B6F47
:102E080095EC60F0950E00016B6FE90E00016C6F98
:102E1800D9EC5FF01200E1C060F0E2C061F0E50EAD
:102E28000001626FFF0E0001636FC3EC5BF00009E5
:102E3800D8B4A0EF1BF0950E00016B6FE90E0001EE
:102E48006C6FD9EC5FF07C0E02EC5FF0000E0201B3
:102E5800996F4F0E0201996501D006D07E0E02ECE3
:102E68005FF00201992BF5D77C0E02EC5FF0950E0E
:102E780000016B6FE90E00016C6FD9EC5FF07C0EFE
:102E880002EC5FF0000E0201996F210E02019965B4
:102E980001D006D07E0E02EC5FF00201992BF5D727
:102EA8005B0E00016B6FF80E00016C6FD9EC5FF0E0
:102EB800000E0201996F210E0201996501D006D01A
:102EC8007E0E02EC5FF00201992BF5D77C0E02EC26
:102ED8005FF0950E00016B6FE90E00016C6FD9EC85
:102EE8005FF07C0E02EC5FF0000E0201996F4F0E4E
:102EF8000201996501D006D07E0E02EC5FF0020156
:102F0800992BF5D77C0E02EC5FF0950E00016B6FE4
:102F1800E90E00016C6FD9EC5FF0950E00016B6F44
:102F2800E90E00016C6FD9EC5FF0950E00016B6F34
:102F3800E90E00016C6FD9EC5FF04D0E00017B6F5C
:102F4800FD0E00017C6FFEEC4EF0E50E00016D6F8A
:102F5800FF0E00016E6F500E00016F6FFF0E000133
:102F6800706F42EC51F0C80E00016D6FFF0E00014A
:102F78006E6FDE0E00016F6FF50E0001706F42EC90
:102F880051F0CE0E00016D6FF40E00016E6FB30E9E
:102F980000016F6FF40E0001706F42EC51F0460EA5
:102FA80000016D6FFF0E00016E6F220E00016F6F42
:102FB800FB0E0001706F42EC51F00C0E00016D6FBA
:102FC800FB0E00016E6F5D0E00016F6FF50E0001C4
:102FD800706F42EC51F0950E00016B6FE90E000125
:102FE8006C6FD9EC5FF0770E00017B6FFB0E000170
:102FF8007C6FFEEC4EF07E0E00016D6FFF0E00013F
:103008006E6FC40E00016F6FF70E0001706F42EC17
:1030180051F0950E00016B6FE90E00016C6FD9EC51
:103028005FF04A0E00017B6FFE0E00017C6FFEEC24
:103038004EF0010E0201996F0C0E0201996501D044
:1030480030D0000E0001606F020E0001616F000EAB
:103058000001636F320E626FFEEC5CF0000E00013F
:10306800AE6F020E0001AF6FAF0E0001B06FFD0E24
:103078000001B16F99C2B2F00001B36BBAEC1BF05A
:10308800000E00016D6F020E00016E6F680E0001E8
:103098006F6FF80E0001706F42EC51F00201992B2E
:1030A800CBD7010E0201996F0C0E0201996501D070
:1030B80030D0000E0001606F020E0001616F000E3B
:1030C8000001636F320E626FFEEC5CF0000E0001CF
:1030D800AE6F020E0001AF6FCE0E0001B06FFC0E96
:1030E8000001B16F99C2B2F00001B36BBAEC1BF0EA
:1030F800000E00016D6F020E00016E6F5A0E000186
:103108006F6FF90E0001706F42EC51F00201992BBC
:10311800CBD7950E00016B6FE90E00016C6FD9ECEF
:103128005FF0050E00016D6FFE0E00016E6F63EC1F
:103138005EF0300E00016D6FFF0E00016E6F570ECE
:1031480000016F6FEA0E0001706F42EC51F0F90E4A
:1031580000016D6FFE0E00016E6FF00E00016F6FC3
:10316800EE0E0001706F42EC51F00F0E00016D6F12
:10317800FF0E00016E6F520E00016F6FEF0E00011F
:10318800706F42EC51F01A0E00016D6FFF0E0001D6
:103198006E6F830E00016F6FEF0E0001706F42ECCF
:1031A80051F0EE0E00016D6FFE0E00016E6FBF0E46
:1031B80000016F6FEE0E0001706F42EC51F0040ECB
:1031C80000016D6FFF0E00016E6F210E00016F6F21
:1031D800EF0E0001706F42EC51F0250E00016D6F8B
:1031E800FF0E00016E6FB40E00016F6FEF0E00014D
:1031F800706F42EC51F0950E00016B6FE90E000103
:103208006C6FD9EC5FF0F70E00016D6FFD0E0001D9
:103218006E6F63EC5EF0BF0E00016D6FFE0E000175
:103228006E6F480E00016F6FEB0E0001706F42EC7D
:1032380051F0D70E00016D6FFE0E00016E6FE10EAA
:1032480000016F6FFF0E0001706F42EC51F0CB0E62
:1032580000016D6FFE0E00016E6F820E00016F6F30
:10326800EB0E0001706F42EC51F0950E00016B6F90
:10327800E90E00016C6FD9EC5FF0A50E00016D6FCF
:10328800FE0E00016E6F230E00016F6FF30E00013A
:10329800706F42EC51F07F0E00016D6FFD0E000162
:1032A8006E6F040E00016F6FF20E0001706F42EC3A
:1032B80051F0950E00016B6FE90E00016C6FD9ECAF
:1032C8005FF0050E00016D6FFE0E00016E6F63EC7E
:1032D8005EF0640E00016D6FFE0E00016E6F2F0E22
:1032E80000016F6FED0E0001706F42EC51F07E0E21
:1032F80000016D6FFE0E00016E6F930E00016F6F7F
:10330800ED0E0001706F42EC51F08B0E00016D6FF5
:10331800FE0E00016E6FC50E00016F6FED0E00010D
:10332800706F42EC51F0570E00016D6FFE0E0001F8
:103338006E6FFD0E00016F6FEC0E0001706F42ECB6
:1033480051F0710E00016D6FFE0E00016E6F610E7F
:1033580000016F6FED0E0001706F42EC51F0980E96
:1033680000016D6FFE0E00016E6FF70E00016F6FAA
:10337800ED0E0001706F42EC51F0950E00016B6F7D
:10338800E90E00016C6FD9EC5FF0F70E00016D6F6C
:10339800FD0E00016E6F63EC5EF0CD0E00016D6FE7
:1033A800FD0E00016E6FD20E00016F6FEA0E000174
:1033B800706F42EC51F02F0E00016D6FFE0E000190
:1033C8006E6FE10E00016F6FFF0E0001706F42EC2F
:1033D80051F0E90E00016D6FFD0E00016E6F0D0ECC
:1033E80000016F6FEB0E0001706F42EC51F0950E0B
:1033F80000016B6FE90E00016C6FD9EC5FF0170EDE
:1034080000016D6FF80E00016E6FAC0E00016F6F5A
:10341800F20E0001706F42EC51F0D30E00016D6F97
:10342800FF0E00016E6FAC0E00016F6FF20E00010F
:10343800706F42EC51F0950E00016B6FE90E0001C0
:103448006C6FD9EC5FF03D0E00017B6FFE0E000142
:103458007C6FFEEC4EF0A20E00016D6FFF0E0001B6
:103468006E6FF80E00016F6FF40E0001706F42EC82
:1034780051F0FC0E00016D6FE80E00016E6F820EB8
:1034880000016F6FFC0E0001706F42EC51F00B0EE3
:1034980000016D6FE90E00016E6F950E00016F6FF0
:1034A800FC0E0001706F42EC51F01A0E00016D6FB6
:1034B800E90E00016E6FA80E00016F6FFC0E00018F
:1034C800706F42EC51F0E20E00016D6FE70E0001E3
:1034D8006E6FF60E00016F6FFA0E0001706F42EC0E
:1034E80051F0BC0E00016D6FE70E00016E6FD00E3B
:1034F80000016F6FF90E0001706F42EC51F0F40E8D
:1035080000016D6FE70E00016E6FBB0E00016F6F5B
:10351800FC0E0001706F42EC51F0CF0E00016D6F90
:10352800E70E00016E6F320E00016F6FFC0E000196
:10353800706F42EC51F0800E00016D6FE70E0001D4
:103548006E6F7C0E00016F6FF60E0001706F42EC1B
:1035580051F0410E00016D6FE70E00016E6F7E0E97
:1035680000016F6FF50E0001706F42EC51F0940E80
:1035780000016D6FE70E00016E6F9B0E00016F6F0B
:10358800F60E0001706F42EC51F0560E00016D6F9F
:10359800E70E00016E6F9E0E00016F6FF50E0001C1
:1035A800706F42EC51F0A80E00016D6FE70E00013C
:1035B8006E6FBA0E00016F6FF60E0001706F42EC6D
:1035C80051F06B0E00016D6FE70E00016E6FBE0EBD
:1035D80000016F6FF50E0001706F42EC51F0950E0F
:1035E80000016B6FE90E00016C6FD9EC5FF04A0EB9
:1035F80000016D6FF40E00016E6F63EC5EF0CA0E91
:1036080000016D6FEC0E00016E6F63EC5EF08C0EC6
:1036180000016D6FFB0E00016E6FE70E00016F6F0A
:10362800F90E0001706F42EC51F0880E00016D6FC9
:10363800FA0E00016E6FCA0E00016F6FF80E0001DE
:10364800706F42EC51F0A10E00016D6FFB0E00018E
:103658006E6FFE0E00016F6FF90E0001706F42EC85
:1036680051F09E0E00016D6FFA0E00016E6FE20EB2
:1036780000016F6FF80E0001706F42EC51F0B60E4A
:1036880000016D6FFB0E00016E6F150E00016F6F6C
:10369800FA0E0001706F42EC51F0B40E00016D6F2C
:1036A800FA0E00016E6FFA0E00016F6FF80E00013E
:1036B800706F42EC51F0CB0E00016D6FFB0E0001F4
:1036C8006E6F2C0E00016F6FFA0E0001706F42ECE6
:1036D80051F0CA0E00016D6FFA0E00016E6F120EE6
:1036E80000016F6FF90E0001706F42EC51F0E00EAF
:1036F80000016D6FFB0E00016E6F430E00016F6FCE
:10370800FA0E0001706F42EC51F0E00E00016D6F8F
:10371800FA0E00016E6F2A0E00016F6FF90E00019C
:10372800706F42EC51F0950E00016B6FE90E0001CD
:103738006C6FD9EC5FF01200470E00016D6FE90E57
:1037480000016E6F63EC5EF04D0E00016D6FF80EB8
:1037580000016E6F63EC5EF0950E00016B6FE90E71
:1037680000016C6FD9EC5FF012001200B20E00017C
:10377800CA6F000E0001CB6F5DEF23F0250E00012C
:10378800DF19D8B40BD0AEC0D9FFAFC0DAFFDFC0A5
:10379800DFFF0001AE4BAF2B5DEF23F0000E000101
:1037A800DC6F000EDB6F000E0001DE6F000EDD6FB8
:1037B80007D00001DD850001B04BB12B01D00CD042
:1037C800B0C0F6FFB1C0F7FFF86A0800F550300A3C
:1037D800D8B4EFD701D0F4D7B0C0F6FFB1C0F7FF27
:1037E800F86A0800F5503BEC60F0D8A010D1000E44
:1037F8000001DC6F000EDB6F00D0DBC06EF0DCC0B8
:103808006FF0000E0001716F0A0E706F3BEC5FF0F5
:103818006EC0DBF06FC0DCF0D00E0001BC6FFF0E95
:103828000001BD6FB0C0F6FFB1C0F7FFF86A08002D
:10383800F5500001BE6FBF6B0001BC510001BE27EF
:103848000001BD510001BF230001BE510001DB276B
:103858000001BF510001DC230001B04BB12BB0C007
:10386800F6FFB1C0F7FFF86A0800F5503BEC60F0CE
:10387800D8A0CDD0C2D7CBD06FEF23F00001DD891F
:10388800C6D00001DE85F0D000D00001DD8FECD07D
:10389800CAC0D9FFCBC0DAFFDECFC6F0DDCFC7F094
:1038A800020E0001CA27000ECB230001C6510001F9
:1038B800C711D8A407D0860E0001C66FFF0E0001FD
:1038C800C76F00D0000E0001C96F000EC86F04D08A
:1038D8000001C84BC92B00D00001C8510001C62502
:1038E8000001BC6F0001C9510001C7210001BD6F73
:1038F800BCC0F6FFBDC0F7FF000EF86E0F0EF764F0
:1039080003D00800F55005D0F6CFE9FFF7CFEAFF5E
:10391800EF500009D8B402D0DBD700D00001DB514A
:103928000001C85D0001DC510001C959D8B009D0B7
:103938000001C8510001DB5F0001C9510001DC5BD7
:1039480010D0000E0001DC6F000EDB6F0AD0AEC095
:10395800D9FFAFC0DAFF200EDF6E0001AE4BAF2BF0
:1039680000D00001DB07D8A0DC070001DB29EFE16C
:103978000001DC29D8B41FD0EAD71DD0C6C0F6FF95
:10398800C7C0F7FF000EF86EAEC0D9FFAFC0DAFFB0
:103998000F0EF76403D00800F55005D0F6CFE9FF05
:1039A800F7CFEAFFEF50DF6E0001C64BC72B0001CF
:1039B800AE4BAF2B00D00001C807D8A0C907000143
:1039C800C829DCE10001C929D8B45DEF23F0D6D7B6
:1039D8005DEF23F0CAC0D9FFCBC0DAFFDF5000018A
:1039E800DF6F020E0001CA27000ECB2300D0DF0EC6
:1039F8000001C66F000E0001C76F000E0001C96FFD
:103A0800010EC86F8BD7C00E0001DD132DD0B0C0DA
:103A1800F6FFB1C0F7FF0001B04BB12BF86A080000
:103A2800F5CFDFF00001DF51000AD8B46FEF23F0C3
:103A3800580AD8B42AD73B0AD8B4CCD7070AD8B47E
:103A480013D0020AD8B41DD70F0AD8B40DD0050A6E
:103A5800D8B414D71F0AD8B41BD7060AD8B4D3D7FA
:103A68000D0AD8B412D7C3D7070E0001DE15D8B493
:103A7800EDD3000E0001CD6F060ECC6FCAC0D9FF82
:103A8800CBC0DAFFDECFD8F0DECFD9F0DDCFDAF069
:103A9800030E0001CA27000ECB230001DAAF12D0B3
:103AA800D8C060F0D9C061F0DAC062F00BEC60F009
:103AB80060C0D8F061C0D9F062C0DAF0030E00012E
:103AC800DD1300D0000E0001D36F000ED26F00018D
:103AD800D8510001D9110001DA11D8B49DD0820E55
:103AE8000001BC6FFF0E0001BD6FD8C0BEF0D9C089
:103AF800BFF0DAC0C0F0DBC0C1F0100E06D0000184
:103B0800D890C133C033BF33BE33E82EF8D7000195
:103B1800BE510001BC250001D26F000E0001BD217D
:103B28000001D36F0001D207D8A0D307D2C06EF02E
:103B3800D3C06FF0000E0001716F030E706F3BEC85
:103B48005FF06EC0D2F06FC0D3F0D2C066F0D3C0C1
:103B580067F0000E0001696F0A0E686F23EC56F0DB
:103B680066C0D2F067C0D3F00001D3AF05D0000122
:103B7800D207D8A0D30700D00001D251000873ECB7
:103B880034F089C0CEF08AC0CFF08BC0D0F0CEC060
:103B98007AF0CFC07BF0D0C07CF0D8C07DF0D9C01F
:103BA8007EF0DAC07FF017EC49F07AC0CEF07BC027
:103BB800CFF07CC0D0F0CEC060F0CFC061F0D0C0F4
:103BC80062F0000E0001636F800E0001646F3F0E0B
:103BD8000001656F8BEC56F00001D8B005D00001EC
:103BE800D207D8A0D30718D0CEC060F0CFC061F0FC
:103BF800D0C062F0000E0001636F200E0001646FF8
:103C0800410E0001656F8BEC56F00001D8A004D07E
:103C18000001D24BD32B00D00001CDBF08D000014A
:103C2800CD511EE10D0E0001CC5DD8B019D0D8C021
:103C380093F0D9C094F0DAC095F00001CC518EEC25
:103C480040F089C096F08AC097F08BC098F0FAECE3
:103C580041F093C0D8F094C0D9F095C0DAF000D004
:103C68000001D3BF08D00001D3512CE10A0E000196
:103C7800D25DD8B027D00001D8510001D911000178
:103C8800DA11D8B47FD0D8C09FF0D9C0A0F0DAC07C
:103C9800A1F0D0EC4BF000019F510001A0110001F0
:103CA800A1110001A211D8A46DD00001D3BF6AD020
:103CB8000001D35107E1020E0001D25DD8B002D055
:103CC80061D000D0CEC060F0CFC061F0D0C062F04B
:103CD800700E0001636F890E0001646F400E0001D1
:103CE800656F8BEC56F00001D8B003D00001F70ED9
:103CF80002D00001F80ED227FF0ED32300D0000116
:103D0800D25173EC34F089C0CEF08AC0CFF08BC0AA
:103D1800D0F017D0D8C060F0D9C061F0DAC062F036
:103D2800CEC063F0CFC064F0D0C065F017EC46F0A9
:103D380060C0D4F061C0D5F062C0D6F063C0D7F0DF
:103D480017D0D8C060F0D9C061F0DAC062F0CEC038
:103D580063F0CFC064F0D0C065F044EC45F060C0BB
:103D6800D4F061C0D5F062C0D6F063C0D7F000D0FF
:103D7800000E0001D86F000E0001D96F000E00017F
:103D8800DA6F34D0D8C09FF0D9C0A0F0DAC0A1F063
:103D9800D0EC4BF09FC0D4F0A0C0D5F0A1C0D6F0B5
:103DA800A2C0D7F0D8C09FF0D9C0A0F0DAC0A1F067
:103DB800D4C068F0D5C069F0D6C06AF0D7C06BF03F
:103DC800CAEC5AF068C0A2F069C0A3F06AC0A4F0B7
:103DD800ACEC5DF09FC0D8F0A0C0D9F0A1C0DAF07B
:103DE800000E0001D36F000ED26F00D0010E00014B
:103DF800DF6F0A0E0001DF19D8B425D001D023D017
:103E08000001DF51040D110EF324F66EDF0EF420CD
:103E1800F76EF86A000EF8220900F5500001D45D2B
:103E28000900F5500001D5590900F5500001D6598F
:103E38000900F5500001D759D8A005D001D003D00A
:103E48000001DF2BD6D7DFC0BCF00001BD6BBCBFC3
:103E5800BD070001CC510001BC270001CD51000174
:103E6800BD230001D2510001BC270001D35100013C
:103E7800BD230001BC510001DB5F0001BD51000101
:103E8800DC5B0001CC510001CD11D8B405D0000194
:103E9800DB07D8A0DC0700D0030E0001DD15000108
:103EA800BC6F000E0001DE150001BD6F0001BC51A2
:103EB8000001BD11D8B405D00001DB07D8A0DC078C
:103EC80000D00001DDA543D0030E0001DD1500017F
:103ED800BC6F000E0001DE150001BD6F0001BC5172
:103EE8000001BD11D8B418D0AEC0D9FFAFC0DAFFF9
:103EF8002D0EDF6E0001AE4BAF2B0ED0AEC0D9FF3A
:103F0800AFC0DAFF300EDF6E0001AE4BAF2B000101
:103F1800DB07D8A0DC0700D00001DCBF8AD0000195
:103F2800DC51ECE10001DB05D8A083D0E7D781D0D4
:103F38000ED0AEC0D9FFAFC0DAFF200EDF6E000191
:103F4800AE4BAF2B0001DB07D8A0DC0700D0000187
:103F5800DCBF07D00001DC51ECE10001DB05D8B083
:103F6800E8D7030E0001DD150001BC6F000E00014B
:103F7800DE150001BD6F0001BC510001BD11D8B4B0
:103F880058D0AEC0D9FFAFC0DAFF2D0E50D0000117
:103F9800AE4BAF2B4ED0D4C060F0D5C061F0D6C0C8
:103FA80062F0D7C063F00001DF51040D110EF32455
:103FB800F66EDF0EF420F76EF86A000EF82209009C
:103FC800F5CF64F00900F5CF65F00900F5CF66F08C
:103FD8000A00F5CF67F0F2EC56F060C0CEF061C091
:103FE800CFF062C0D0F063C0D1F0CEC06DF0CFC0CA
:103FF8006EF0D0C06FF0D1C070F00A0E0001716F82
:10400800000E726F000E736F000E746F61EC58F043
:104018006DC0CEF06EC0CFF06FC0D0F070C0D1F0E0
:104028000001CE51300FAEC0D9FFAFC0DAFFDF6E4E
:10403800AED70001DF070001DF29D8B410D0ABD715
:104048000ED0AEC0D9FFAFC0DAFF300EDF6E000170
:10405800AE4BAF2B0001D207D8A0D30700D0000188
:10406800D3BF07D00001D351ECE10001D205D8B08D
:10407800E8D70001CDBF0CD00001CD5105E1090EF4
:104088000001CC5DD8A004D0080E0001DF6F03D07A
:10409800CCC0DFF000D00001DF510001CC5F000E82
:1040A8000001DFBFFF0E0001CD5B0001DF51000101
:1040B800D8B40AD0AEC0D9FFAFC0DAFF2E0EDF6E7B
:1040C8000001AE4BAF2B00D00001DF5173EC34F090
:1040D80089C0C2F08AC0C3F08BC0C4F0D8C07DF0DC
:1040E800D9C07EF0DAC07FF0C2C07AF0C3C07BF0DE
:1040F800C4C07CF017EC49F07AC09FF07BC0A0F0F8
:104108007CC0A1F0D0EC4BF09FC0D4F0A0C0D5F09B
:10411800A1C0D6F0A2C0D7F07BD0D4C060F0D5C083
:1041280061F0D6C062F0D7C063F00001DF51040D22
:10413800110EF324F66EDF0EF420F76EF86A000E07
:10414800F8220900F5CF64F00900F5CF65F0090001
:10415800F5CF66F00A00F5CF67F0F2EC56F060C0D4
:10416800CEF061C0CFF062C0D0F063C0D1F0CEC055
:104178006DF0CFC06EF0D0C06FF0D1C070F00A0EF5
:104188000001716F000E726F000E736F000E746F76
:1041980061EC58F06DC0CEF06EC0CFF06FC0D0F0BB
:1041A80070C0D1F00001CE51300FAEC0D9FFAFC002
:1041B800DAFFDF6E0001AE4BAF2BD4C06DF0D5C077
:1041C8006EF0D6C06FF0D7C070F00001DF51040D5B
:1041D800110EF324F66EDF0EF420F76EF86A000E67
:1041E800F8220900F5CF71F00900F5CF72F0090047
:1041F800F5CF73F00A00F5CF74F061EC58F06DC09C
:10420800D4F06EC0D5F06FC0D6F070C0D7F000D033
:104218000001DF070001DF29D8B410D07ED70ED007
:10422800AEC0D9FFAFC0DAFF300EDF6E0001AE4B73
:10423800AF2B0001CC07D8A0CD0700D00001CC518E
:104248000001CD11D8B435D2EBD733D2C00E00015E
:10425800DD150001BC6F000E0001DE150001BD6F09
:104268000001BC510001BD11D8A435D00001DDA961
:104278000ED0CAC0D9FFCBC0DAFFDECFD4F0DECF74
:10428800D5F0DECFD6F0DECFD7F0040E0FD0CAC0FF
:10429800D9FFCBC0DAFFDECFD4F0DDCFD5F00001F7
:1042A800000ED5BFFF0ED66FD76F020E0001CA27CA
:1042B800000ECB2300D00001D7AF90D0030E000131
:1042C800DD130001D71FD61FD51FD46D000ED523CF
:1042D800D623D72383D00001DDA90ED0CAC0D9FFC9
:1042E800CBC0DAFFDECFD4F0DECFD5F0DECFD6F00C
:1042F800DECFD7F0040E10D0CAC0D9FFCBC0DAFF8A
:10430800DECFBCF0DDCFBDF0BCC0D4F0BDC0D5F071
:104318000001D66BD76B020E0001CA27000ECB2313
:104328005DD000D0010E0001DF6F0A0E0001DF1919
:10433800D8B461D001D05FD00001DF51040D110E57
:10434800F324F66EDF0EF420F76EF86A000EF822FA
:104358000900F5500001D45D0900F5500001D55958
:104368000900F5500001D6590900F5500001D75948
:10437800D8A041D001D03FD00001DF2BD6D73BD009
:10438800010E0001DF6F080E0001DF19D8B433D029
:1043980001D031D00001DF51040D870EF324F66EF1
:1043A800DF0EF420F76EF86A000EF8220900F550C7
:1043B8000001D45D0900F5500001D5590900F550F8
:1043C8000001D6590900F5500001D759D8A013D0DB
:1043D80001D011D00001DF2BD6D70DD00001DD515F
:1043E800C00B000AD8B49ED7800AD8B4C9D7400AEF
:1043F800D8B498D700D00001DB510001DC11D8B443
:1044080015D0030E0001DD150001BC6F000E000180
:10441800DE150001BD6F0001BC510001BD11D8B40B
:1044280005D00001DB07D8A0DC0700D0800E000112
:10443800DFBF7F0E0001BC6F0001DB510001DF5DB3
:104448000001DC51800A0001BC59D8B00BD0000132
:10445800DF510001DB5F000E0001DFBFFF0E00012E
:10446800DC5B06D0000E0001DC6F000EDB6F00D0B5
:104478000001DDA535D0030E0001DD150001BC6F7C
:10448800000E0001DE150001BD6F0001BC510001E6
:10449800BD11D8B40AD0AEC0D9FFAFC0DAFF2D0E17
:1044A800DF6E0001AE4BAF2B00D00001DB510001E5
:1044B800DC11D8B44AD0AEC0D9FFAFC0DAFF300E95
:1044C800DF6E0001AE4BAF2B0001DB07D8A0DC0785
:1044D8000001DB510001DC11D8B437D0ECD735D05E
:1044E8000001DB510001DC11D8B415D0AEC0D9FFF2
:1044F800AFC0DAFF200EDF6E0001AE4BAF2B00011C
:10450800DB07D8A0DC070001DB510001DC11D8B4BF
:1045180002D0ECD700D0030E0001DD150001BC6FFE
:10452800000E0001DE150001BD6F0001BC51000145
:10453800BD11D8B40AD0AEC0D9FFAFC0DAFF2D0E76
:10454800DF6E0001AE4BAF2B00D00001DF51000140
:10455800CC6FCD6BCCBFCD079FD087D000D0CCC05F
:10456800BCF0CDC0BDF00001D890BC37BD3700010C
:10457800D890BC37BD37110E0001BC25F66EDF0E92
:10458800BD21F76EF86A000EF8220900F5CF64F035
:104598000900F5CF65F00900F5CF66F00A00F5CF00
:1045A80067F0D4C060F0D5C061F0D6C062F0D7C063
:1045B80063F0F2EC56F060C06DF061C06EF062C05E
:1045C8006FF063C070F00A0E0001716F000E726F19
:1045D800000E736F000E746F61EC58F000016D519E
:1045E800300F0001DF6F4ED0D4C060F0D5C061F04D
:1045F800D6C062F0D7C063F0CCC0BCF0CDC0BDF06F
:104608000001D890BC37BD370001D890BC37BD3702
:10461800870E0001BC25F66EDF0EBD21F76EF86A25
:10462800000EF8220900F5CF64F00900F5CF65F017
:104638000900F5CF66F00A00F5CF67F0F2EC56F006
:10464800000160510F0B0001C56F0001C551010D3C
:104658003C0EF324F66EFD0EF420F76EF86A000E99
:10466800F8220800F5CFDFF00DD00001DD51C00BB6
:10467800000AD8B474D7800AD8B4B6D7400AD8B4D8
:104688006ED700D0AEC0D9FFAFC0DAFFDFC0DFFF02
:104698000001AE4BAF2B00D00001CC07D8A0CD074E
:1046A8000001CC29E2E10001CD29D8B402D0DDD740
:1046B80000D0B0C0F6FFB1C0F7FF0001B04BB12B7E
:1046C800F86A0800F5CFDFF00001DF51D8B403D055
:1046D800C2EF1BF000D0AEC0D9FFAFC0DAFF000EAA
:1046E800DF6E12001200000E00016C6F000E6D6F7D
:1046F800000E6E6F000E6F6F010E00016015000155
:10470800646F000E000161150001656F000E000165
:1047180062150001666F000E000163150001676FE6
:104728001F0ED89000016437653766376737E82E63
:10473800F8D70001645100016C27000165510001A0
:104748006D230001665100016E23000167510001CD
:104758006F23020E000160150001646F000E000156
:1047680061150001656F000E000162150001666F9A
:10477800000E000163150001676F1D0ED89000013F
:104788006437653766376737E82EF8D70001645114
:1047980000016C270001655100016D23000166517D
:1047A80000016E230001675100016F23040E000110
:1047B80060150001646F000E000161150001656F4E
:1047C800000E000162150001666F000E00016315FE
:1047D8000001676F1B0ED890000164376537663794
:1047E8006737E82EF8D70001645100016C270001F3
:1047F800655100016D230001665100016E2300011F
:10480800675100016F23080E000160150001646FF5
:10481800000E000161150001656F000E00016215B0
:104828000001666F000E000163150001676F190E25
:10483800D89000016437653766376737E82EF8D7B0
:104848000001645100016C270001655100016D23CE
:104858000001665100016E230001675100016F23BA
:10486800100E000160150001646F000E0001611553
:104878000001656F000E000162150001666F000EF1
:10488800000163150001676F170ED89000016437A7
:10489800653766376737E82EF8D70001645100019D
:1048A8006C270001655100016D230001665100016C
:1048B8006E230001675100016F23200E000160156F
:1048C8000001646F000E000161150001656F000EA4
:1048D800000162150001666F000E000163150001FA
:1048E800676F150ED89000016437653766376737EC
:1048F800E82EF8D70001645100016C2700016551CA
:1049080000016D230001665100016E23000167510B
:1049180000016F23400E000160150001646F000E56
:10492800000161150001656F000E000162150001AC
:10493800666F000E000163150001676F130ED890B3
:1049480000016437653766376737E82EF8D7000106
:10495800645100016C270001655100016D230001BD
:10496800665100016E230001675100016F23800E1C
:10497800000160150001646F000E0001611500015F
:10498800656F000E000162150001666F000E0001E0
:1049980063150001676F110ED89000016437653701
:1049A80066376737E82EF8D70001645100016C2795
:1049B8000001655100016D230001665100016E235D
:1049C8000001675100016F23000E0001601500010E
:1049D800646F010E000161150001656F000E000192
:1049E80062150001666F000E000163150001676F14
:1049F8000F0ED89000016437653766376737E82EA1
:104A0800F8D70001645100016C27000165510001CD
:104A18006D230001665100016E23000167510001FA
:104A28006F23000E000160150001646F020E000183
:104A380061150001656F000E000162150001666FC7
:104A4800000E000163150001676F0D0ED89000017C
:104A58006437653766376737E82EF8D70001645141
:104A680000016C270001655100016D2300016651AA
:104A780000016E230001675100016F23000E000141
:104A880060150001646F040E000161150001656F77
:104A9800000E000162150001666F000E000163152B
:104AA8000001676F0B0ED8900001643765376637D1
:104AB8006737E82EF8D70001645100016C27000120
:104AC800655100016D230001665100016E2300014C
:104AD800675100016F23000E000160150001646F2B
:104AE800080E000161150001656F000E00016215D6
:104AF8000001666F000E000163150001676F090E63
:104B0800D89000016437653766376737E82EF8D7DD
:104B18000001645100016C270001655100016D23FB
:104B28000001665100016E230001675100016F23E7
:104B3800000E000160150001646F100E0001611580
:104B48000001656F000E000162150001666F000E1E
:104B5800000163150001676F070ED89000016437E4
:104B6800653766376737E82EF8D7000164510001CA
:104B78006C270001655100016D2300016651000199
:104B88006E230001675100016F23000E00016015BC
:104B98000001646F200E000161150001656F000EB1
:104BA800000162150001666F000E00016315000127
:104BB800676F050ED8900001643765376637673729
:104BC800E82EF8D70001645100016C2700016551F7
:104BD80000016D230001665100016E230001675139
:104BE80000016F23000E000160150001646F400E84
:104BF800000161150001656F000E000162150001DA
:104C0800666F000E000163150001676F030ED890F0
:104C180000016437653766376737E82EF8D7000133
:104C2800645100016C270001655100016D230001EA
:104C3800665100016E230001675100016F23000EC9
:104C4800000160150001646F800E0001611500010C
:104C5800656F000E000162150001666F000E00010D
:104C680063150001676FD890000164350001686F13
:104C7800000165350001696F0001663500016A6F42
:104C88000001673500016B6F0001685100016C2756
:104C98000001695100016D2300016A5100016E2372
:104CA80000016B5100016F2360C064F061C065F0C2
:104CB80062C066F063C067F00001D890673366335E
:104CC80065336433000E000164150001686F800EBF
:104CD800000165150001696F000E000166150001ED
:104CE8006A6F000E0001671500016B6F00016851C3
:104CF80000016C270001695100016D2300016A5110
:104D080000016E2300016B5100016F2360C064F045
:104D180061C065F062C066F063C067F0040E06D03B
:104D28000001D8906733663365336433E82EF8D7CB
:104D3800000E000164150001686F400E0001651542
:104D48000001696F000E0001661500016A6F000E10
:104D58000001671500016B6F0001685100016C27A5
:104D68000001695100016D2300016A5100016E23A1
:104D780000016B5100016F2360C064F061C065F0F1
:104D880062C066F063C067F0060E06D00001D890D6
:104D98006733663365336433E82EF8D7000E0001B5
:104DA80064150001686F200E000165150001696F28
:104DB800000E0001661500016A6F000E00016715FC
:104DC80000016B6F0001685100016C2700016951F7
:104DD80000016D2300016A5100016E2300016B512F
:104DE80000016F2360C064F061C065F062C066F0C6
:104DF80063C067F0080E06D00001D89067336633A9
:104E080065336433E82EF8D7000E000164150001FD
:104E1800686F100E000165150001696F000E000132
:104E2800661500016A6F000E0001671500016B6FBF
:104E38000001685100016C270001695100016D23D0
:104E480000016A5100016E2300016B5100016F23BC
:104E580060C064F061C065F062C066F063C067F06E
:104E68000A0E06D00001D890673366336533643381
:104E7800E82EF8D7000E000164150001686F080ECF
:104E8800000165150001696F000E0001661500013B
:104E98006A6F000E0001671500016B6F0001685111
:104EA80000016C270001695100016D2300016A515E
:104EB80000016E2300016B5100016F2360C064F094
:104EC80061C065F062C066F063C067F00C0E06D082
:104ED8000001D8906733663365336433E82EF8D71A
:104EE800000E000164150001686F040E00016515CD
:104EF8000001696F000E0001661500016A6F000E5F
:104F08000001671500016B6F0001685100016C27F3
:104F18000001695100016D2300016A5100016E23EF
:104F280000016B5100016F2360C064F061C065F03F
:104F380062C066F063C067F00E0E06D00001D8901C
:104F48006733663365336433E82EF8D7000E000103
:104F580064150001686F020E000165150001696F94
:104F6800000E0001661500016A6F000E000167154A
:104F780000016B6F0001685100016C270001695145
:104F880000016D2300016A5100016E2300016B517D
:104F980000016F2360C064F061C065F062C066F014
:104FA80063C067F0100E06D00001D89067336633EF
:104FB80065336433E82EF8D7000E0001641500014C
:104FC800686F010E000165150001696F000E000190
:104FD800661500016A6F000E0001671500016B6F0E
:104FE8000001685100016C270001695100016D231F
:104FF80000016A5100016E2300016B5100016F230B
:1050080060C064F061C065F062C066F063C067F0BC
:10501800120E06D00001D8906733663365336433C7
:10502800E82EF8D7800E000164150001686F000EA5
:10503800000165150001696F000E00016615000189
:105048006A6F000E0001671500016B6F000168515F
:1050580000016C270001695100016D2300016A51AC
:1050680000016E2300016B5100016F2360C064F0E2
:1050780061C065F062C066F063C067F0140E06D0C8
:105088000001D8906733663365336433E82EF8D768
:10509800400E000164150001686F000E00016515DF
:1050A8000001696F000E0001661500016A6F000EAD
:1050B8000001671500016B6F0001685100016C2742
:1050C8000001695100016D2300016A5100016E233E
:1050D80000016B5100016F2360C064F061C065F08E
:1050E80062C066F063C067F0160E06D00001D89063
:1050F8006733663365336433E82EF8D7200E000132
:1051080064150001686F000E000165150001696FE4
:10511800000E0001661500016A6F000E0001671598
:1051280000016B6F0001685100016C270001695193
:1051380000016D2300016A5100016E2300016B51CB
:1051480000016F2360C064F061C065F062C066F062
:1051580063C067F0180E06D00001D8906733663335
:1051680065336433E82EF8D7100E0001641500018A
:10517800686F000E000165150001696F000E0001DF
:10518800661500016A6F000E0001671500016B6F5C
:105198000001685100016C270001695100016D236D
:1051A80000016A5100016E2300016B5100016F2359
:1051B80060C064F061C065F062C066F063C067F00B
:1051C8001A0E06D00001D89067336633653364330E
:1051D800E82EF8D7080E000164150001686F000E6C
:1051E800000165150001696F000E000166150001D8
:1051F8006A6F000E0001671500016B6F00016851AE
:1052080000016C270001695100016D2300016A51FA
:1052180000016E2300016B5100016F2360C064F030
:1052280061C065F062C066F063C067F01C0E06D00E
:105238000001D8906733663365336433E82EF8D7B6
:10524800040E000164150001686F000E0001651569
:105258000001696F000E0001661500016A6F000EFB
:105268000001671500016B6F0001685100016C2790
:105278000001695100016D2300016A5100016E238C
:1052880000016B5100016F2360C064F061C065F0DC
:1052980062C066F063C067F01E0E06D00001D890A9
:1052A8006733663365336433E82EF8D7020E00019E
:1052B80064150001686F000E000165150001696F33
:1052C800000E0001661500016A6F000E00016715E7
:1052D80000016B6F0001685100016C2700016951E2
:1052E80000016D2300016A5100016E2300016B511A
:1052F80000016F23000E000160150001646F000EAD
:10530800000161150001656F000E000162150001C2
:10531800666F800E000163150001676F200E06D0CE
:105328000001D8906733663365336433E82EF8D7C5
:105338000001645100016C270001655100016D23D3
:105348000001665100016E230001675100016F23BF
:105358006CC060F06DC061F06EC062F06FC063F049
:10536800120012000101B76F010E0101B96F000EA2
:105378000101BA6F000E0101B86F010E0101B66F8D
:10538800840E0001606F010E0001616F000E0001C4
:10539800636F320E626FFEEC5CF06F0E0001606F9F
:1053A800010E0001616F000E0001636F150E626F40
:1053B800FEEC5CF0330E0001606F010E0001616FBE
:1053C800000E0001636F1E0E626FFEEC5CF0510E62
:1053D8000001606F010E0001616F000E0001636F34
:1053E8001E0E626FFEEC5CF0CDEC49F00009D8A40B
:1053F80002D0000E1200000E0001606F040E0001C2
:10540800616F44C062F00001636BFEEC5CF0000E5B
:10541800446E71EC61F09E9A9D8AFC0E00016B6FE0
:10542800FF0E00016C6FD9EC5FF0500E0001606F49
:10543800C30E616F000E626F000E636F57EC5DF074
:105448009D9A000E0101BA6F3B0E0101BA6501D0A9
:105458007AD00101B605D8A437D00101BA51010D9F
:10546800000EF324D96E040EF420DA6E0A0EDE184C
:10547800D8B40DD00101BA51010D000EF324D96E34
:10548800040EF420DA6E0D0EDE18D8A404D0000E37
:105498000101B66F55D01D0E0101BA6151D001014D
:1054A800BA51010D000EF324D96E040EF420DA6E01
:1054B8000101BA51010D330EF324E16E010EF420FF
:1054C800E26EDFCFE7FF3CD00101BA51010D000EBB
:1054D800F324D96E040EF420DA6E0A0EDE18D8B45E
:1054E80029D00101BA51010D000EF324D96E040E22
:1054F800F420DA6E0D0EDE18D8B41CD01D0E010192
:10550800B86115D00101BA51010D000EF324D96E0E
:10551800040EF420DA6E0101B851010D510EF32486
:10552800E16E010EF420E26EDFCFE7FF00D001014B
:10553800B82B06D0020E0101B86502D004D000D005
:105548000101BA2B81D7010133510101D8B405D02B
:10555800010151510101D8A404D0000E0101B96F15
:1055680042D0AE0E0001606F020E0001616F000EA6
:105578000001636F1E0E626FFEEC5CF0C80E000146
:10558800606F040E0001616F000E0001636F1E0E54
:10559800626FFEEC5CF0330E0001746F010E0001C7
:1055A800756FAE0E0001766F020E0001776F1E0E4A
:1055B8000001786F000E0001796FE1EC46F0510EA2
:1055C8000001746F010E0001756FC80E0001766F3F
:1055D800040E0001776F1E0E0001786F000E0001A7
:1055E800796FE1EC46F0000E0001606F040E0001D7
:1055F800616F44C062F00001636BFEEC5CF0000E6A
:10560800446E0101B7510101D8B456D00101B95116
:105618000101D8B4BCD0840E0001AE6F010E0001A8
:10562800AF6F9A0E0001B06FF80E0001B16FB2C5EE
:10563800B2F0B3C5B3F0B4C5B4F0B5C5B5F0BAECC3
:105648001BF071EC61F09E9A9D8A840E00016A6FCE
:10565800010E00016B6F95EC60F0500E0001606F59
:10566800C30E616F000E626F000E636F57EC5DF042
:105678009D9A840E0001AE6F010E0001AF6FF50E0A
:105688000001B06FFF0E0001B16FBAEC1BF0000E05
:105698000001606F040E0001616F840E0001626FEB
:1056A800010E0001636F61EC4EF00009D8A46FD0C1
:1056B800000E0101B96F6BD00101B9510101D8B4D5
:1056C80066D00201FE51D8A45ED0EA0E0001746FC4
:1056D800020E0001756F6F0E0001766F010E00015A
:1056E800776F150E0001786F000E0001796FE1ECFD
:1056F80046F0840E0001AE6F010E0001AF6F8D0EF3
:105708000001B06FFF0E0001B16F6F0E0001B26FA4
:10571800010E0001B36FBAEC1BF071EC61F09E9AB8
:105728009D8A840E00016A6F010E00016B6F95EC73
:1057380060F0500E0001606FC30E616F000E626F63
:10574800000E636F57EC5DF09D9A840E0001AE6FFA
:10575800010E0001AF6FF50E0001B06FFF0E0001E2
:10576800B16FBAEC1BF0000E0001606F040E00016F
:10577800616F840E0001626F010E0001636F61ECBE
:105788004EF093D704D0000E0101B96F00D0000E7F
:105798000001606F040E0001616F44C062F00001F7
:1057A800636BFEEC5CF0000E446E0101B95101011F
:1057B800D8B42DD071EC61F09E9A9D8A630E0001D9
:1057C8006B6FFF0E00016C6FD9EC5FF0500E00019B
:1057D800606FC30E616F000E626F000E636F57EC4F
:1057E8005DF09D9A000E0001606F040E0001616F6C
:1057F800840E0001626F010E0001636F61EC4EF0D0
:105808000009D8A404D0000E0101B96F00D0000E21
:105818000001606F040E0001616F44C062F0000176
:10582800636BFEEC5CF0000E446E0101B95101019E
:10583800D8B42DD071EC61F09E9A9D8A0A0E0001B1
:105848006B6FFC0E00016C6FD9EC5FF0500E00011D
:10585800606FC30E616F000E626F000E636F57ECCE
:105868005DF09D9A000E0001606F040E0001616FEB
:10587800840E0001626F010E0001636F61EC4EF04F
:105888000009D8A404D0000E0101B96F00D0000EA1
:105898000001606F040E0001616F44C062F00001F6
:1058A800636BFEEC5CF0000E446E0101B95101011E
:1058B800D8B42DD071EC61F09E9A9D8A5A0E0001E1
:1058C8006B6FFF0E00016C6FD9EC5FF0500E00019A
:1058D800606FC30E616F000E626F000E636F57EC4E
:1058E8005DF09D9A000E0001606F040E0001616F6B
:1058F800840E0001626F010E0001636F61EC4EF0CF
:105908000009D8A404D0000E0101B96F00D0000E20
:105918000001606F040E0001616F44C062F0000175
:10592800636BFEEC5CF0000E446E0101B95101019D
:10593800D8B42DD071EC61F09E9A9D8AB00E00010A
:105948006B6FFF0E00016C6FD9EC5FF0500E000119
:10595800606FC30E616F000E626F000E636F57ECCD
:105968005DF09D9A000E0001606F040E0001616FEA
:10597800840E0001626F010E0001636F61EC4EF04E
:105988000009D8A404D0000E0101B96F00D0000EA0
:105998000001606F040E0001616F44C062F00001F5
:1059A800636BFEEC5CF0000E446E0101B95101011D
:1059B800D8B46AD071EC61F09E9A9D8AF90E000104
:1059C8006B6FFF0E00016C6FD9EC5FF0500E000199
:1059D800606FC30E616F000E626F000E636F57EC4D
:1059E8005DF09D9A0101B7510101D8B417D0840E1A
:1059F8000001AE6F010E0001AF6FA80E0001B06F7D
:105A0800F70E0001B16FB2C5B2F0B3C5B3F0B4C5BB
:105A1800B4F0B5C5B5F0BAEC1BF014D0840E000193
:105A2800AE6F010E0001AF6FE30E0001B06FFE0E06
:105A38000001B16F6F0E0001B26F010E0001B36F6C
:105A4800BAEC1BF0000E0001636F040E0001646FD6
:105A5800840E0001656F010E0001666F6DEC44F065
:105A68000009D8A411D00501B2290AE10501B3291A
:105A780007E10501B42904E10501B529D8B404D02A
:105A8800000E0101B96F00D0000E0001606F040E16
:105A98000001616F44C062F00001636BFEEC5CF0D2
:105AA800000E446E71EC61F09E9A9D8ACE0E000144
:105AB8006B6FFF0E00016C6FD9EC5FF0500E0001A8
:105AC800606FC30E616F000E626F000E636F57EC5C
:105AD8005DF0840E0001AE6F010E0001AF6FF10E94
