:04000000F4EF00F029
:10000800FACF64F0FBCF65F0E9CF66F062EF18F045
:10001800D8CF09F0E8CF0AF0E0CF0BF0FACF0CF018
:10002800FBCF0DF0E9CF0EF0EACF0FF0E1CF10F0E3
:10003800E2CF11F0D9CF12F0DACF13F0F3CF14F0EA
:10004800F4CF15F0F6CF16F0F7CF17F0F8CF18F079
:10005800F5CF19F0000E1A6EF29C9EAA8ED0CBEC4A
:100068003BF01A6E22EC3CF00009D8A40FD02D28E2
:10007800D8B481D02D50010D000EF324D96E090E8D
:10008800F420DA6E1AC0DFFF2D2A75D00D0E1A186B
:10009800D8B463D00A0E1A18D8B45FD07F0E1A18D5
:1000A800D8B404D0080E1A18D8A41FD00001CD5116
:1000B800D8B41BD00001CD2951EC3BF00001CD078D
:1000C8000001CD51010D000EF324D96E060EF42067
:1000D800DA6E000EDF6E3E0EA9EC3BF0000E026EEB
:1000E800060E036EDDEC38F046D00001CD29D8B4F9
:1000F8001BD00001CC51D8A43ED01A509DEC3BF047
:100108000009D8B438D01A50A9EC3BF00001CD5101
:10011800010D000EF324D96E060EF420DA6E1AC013
:10012800DFFF0001CD2B27D0000E016E060E026EF8
:10013800000E046E036835EC3AF0000E0001CD6F36
:10014800D60E026E000E036EDDEC38F01E0E046E45
:10015800FF0E056E22EC38F00ED00001CD51D8B458
:100168000AD0D60E026E000E036EDDEC38F0010EDA
:100178000001CC6F00D09E9A0FD09EA00BD0382AD9
:10018800030E3818D8A404D08B948B92CD9000D04D
:100198009E9002D000F000D0F28C19C0F5FF18C074
:1001A800F8FF17C0F7FF16C0F6FF15C0F4FF14C01C
:1001B800F3FF13C0DAFF12C0D9FF11C0E2FF10C06D
:1001C800E1FF0FC0EAFF0EC0E9FF0DC0FBFF0CC046
:1001D800FAFF0BC0E0FF0AC0E8FF09C0D8FF100013
:1001E80051EF29F0010E0201436F000E0201446F26
:1001F800000E456F000E466F000E476F000E02019D
:100208004A6F000E02014B6F000E02014C6F000E88
:100218004D6F000E4E6F000E4F6F000E02013D6FC6
:10022800000E3E6F000E3F6F000E406F000E020181
:100238003C6F000E0201416F000E0001756F020E47
:100248000001766F000E0001786F320E776F83EC35
:1002580038F0320E0001756F020E0001766F000E45
:100268000001786F0A0E776F83EC38F0000E0001FA
:10027800786F060E0001796FC50E00017A6FFF0EC8
:1002880000017B6F29EC31F00009D8B48CD0000E46
:100298000001786F060E0001796F900E00017A6FE9
:1002A800040E00017B6F6EEC35F00009D8B412D053
:1002B800BD0E00017B6F040E00017C6F010E000172
:1002C8007D6F0C0E00017E6F080E00017F6F8FECB2
:1002D8003AF058D0000E0001786F060E0001796FD1
:1002E8009F0E00017A6F040E00017B6F6EEC35F0F3
:1002F8000009D8B412D0C90E00017B6F040E0001AA
:100308007C6F010E00017D6F0C0E00017E6F080EE0
:1003180000017F6F8FEC3AF035D0000E0001786F46
:10032800060E0001796FAE0E00017A6F040E00010F
:100338007B6F6EEC35F00009D8B412D0D50E0001F1
:100348007B6F040E00017C6F010E00017D6F0C0EA7
:1003580000017E6F080E00017F6F8FEC3AF012D01B
:10036800000E0001766F050E0001776FB0EC38F0D3
:10037800D60E0001766F000E0001776FB0EC38F0F2
:10038800120000D0020143510201D8B461EF0AF013
:10039800780E0001786FFC0E0001796FBAEC37F027
:1003A800120061EF0AF0000E0001786F060E0001DE
:1003B800796FCB0E00017A6FFF0E00017B6F29EC7D
:1003C80031F00009D8B481D1000E0001786F060E13
:1003D8000001796FBE0E00017A6F050E00017B6F78
:1003E8006EEC35F00009D8B412D0100E00017B6F06
:1003F800040E00017C6F020E00017D6F100E0001DB
:100408007E6F080E00017F6F8FEC3AF04DD1000E21
:100418000001786F060E0001796F980E00017A6F5F
:10042800050E00017B6F6EEC35F00009D8B412D0D0
:10043800000E00017B6F040E00017C6F020E0001AC
:100448007D6F100E00017E6F080E00017F6F8FEC2C
:100458003AF02AD1000E0001786F060E0001796F7C
:10046800D00E00017A6F050E00017B6F6EEC35F03F
:100478000009D8B412D0300E00017B6F040E0001C1
:100488007C6F020E00017D6F100E00017E6F080E5A
:1004980000017F6F8FEC3AF007D1000E0001786FF2
:1004A800060E0001796FAB0E00017A6F050E000190
:1004B8007B6F6EEC35F00009D8B412D0200E000125
:1004C8007B6F040E00017C6F020E00017D6F100E21
:1004D80000017E6F080E00017F6F8FEC3AF0E4D0C8
:1004E800000E0001786F060E0001796F5C0E0001A6
:1004F8007A6F050E00017B6F6EEC35F00009D8B4F9
:1005080012D0500E00017B6F040E00017C6F020EAA
:1005180000017D6F100E00017E6F080E00017F6FD5
:100528008FEC3AF0C1D0000E0001786F060E000182
:10053800796F1D0E00017A6F050E00017B6F6EEC5E
:1005480035F00009D8B412D0400E00017B6F040EBC
:1005580000017C6F020E00017D6F100E00017E6F9E
:10056800080E00017F6F8FEC3AF09ED0000E00015C
:10057800786F060E0001796F700E00017A6F050E14
:1005880000017B6F6EEC35F00009D8B412D0700E04
:1005980000017B6F040E00017C6F020E00017D6F6D
:1005A800100E00017E6F080E00017F6F8FEC3AF08D
:1005B8007BD0000E0001786F060E0001796F320EB5
:1005C80000017A6F050E00017B6F6EEC35F00009B3
:1005D800D8B412D0600E00017B6F040E00017C6F4E
:1005E800020E00017D6F100E00017E6F080E0001E3
:1005F8007F6F8FEC3AF058D0000E0001786F060E2E
:100608000001796F840E00017A6F050E00017B6F7F
:100618006EEC35F00009D8B412D0800E00017B6F63
:10062800040E00017C6F020E00017D6F100E0001A8
:100638007E6F080E00017F6F8FEC3AF035D0000E08
:100648000001786F060E0001796F470E00017A6F7E
:10065800050E00017B6F6EEC35F00009D8B412D09E
:10066800600E00017B6F040E00017C6F030E000119
:100678007D6F100E00017E6F080E00017F6F8FECFA
:100688003AF012D0000E0001766F050E0001776F68
:10069800B0EC38F0D60E0001766F000E0001776FCF
:1006A800B0EC38F0120000D0020143510201D8B476
:1006B80061EF0AF0950E0001786FFC0E0001796F6A
:1006C800BAEC37F0120061EF0AF0000E0001786F03
:1006D800060E0001796FE80E00017A6FFF0E000127
:1006E8007B6F29EC31F00009D8B4B8D1000E0001B5
:1006F800816F060E0001826F020E0001836F4C0E9F
:100708000001846F020E0001856F15EC1BF00009D3
:10071800D8A499D04CC24BF2000E0001816F060E8E
:100728000001826F010E0001836F4C0E0001846F7F
:10073800020E0001856F15EC1BF00009D8A479D0D2
:100748004CC24AF2000E00018B6F020E00018C6F42
:10075800350E00018D6FFE0E00018E6F4AC28FF0BC
:100768000001906B3DEC12F0000E0001786F020E54
:100778000001796FBAEC37F0000E00018B6F020EA2
:1007880000018C6F220E00018D6FFE0E00018E6F2E
:100798004BC28FF00001906B3DEC12F0000E00018F
:1007A800786F020E0001796FBAEC37F04BC279F01E
:1007B80002014A51F6EC2BF079C044F27AC045F2B6
:1007C8007BC046F27CC047F244C28AF045C28BF037
:1007D80046C28CF047C28DF0000E00018E6F1FECF0
:1007E80035F0000E00018B6F020E00018C6F4E0E6B
:1007F80000018D6FFD0E00018E6F44C28FF045C25F
:1008080090F046C291F047C292F03DEC12F0000E13
:100818000001786F020E0001796FBAEC37F0D60E3E
:100828000001766F000E0001776FB0EC38F061EFD1
:100838000AF09E0E0001786FFB0E0001796FBAEC8A
:1008480037F061EF0AF0000E0001816F060E00011B
:10085800826F010E0001836F440E0001846F020E47
:100868000001856F15EC1BF00009D8A48CD044C298
:100878008AF045C28BF046C28CF047C28DF0000E5C
:1008880000018E6F1FEC35F0000E00018B6F020E19
:1008980000018C6FFA0E00018D6FFD0E00018E6F46
:1008A80044C28FF045C290F046C291F047C292F020
:1008B8003DEC12F0000E0001786F020E0001796F16
:1008C800BAEC37F044C279F045C27AF046C27BF000
:1008D80047C27CF04A0E00017D6F020E00017E6F58
:1008E8004B0E00017F6F020E0001806FD4EC33F0D5
:1008F8000009D8B435D0000E00018B6F020E00013C
:100908008C6F390E00018D6FFE0E00018E6F4AC28A
:100918008FF00001906B3DEC12F0000E0001786F33
:10092800020E0001796FBAEC37F0000E00018B6FF0
:10093800020E00018C6F260E00018D6FFE0E000165
:100948008E6F4BC28FF00001906B3DEC12F0000EE1
:100958000001786F020E0001796FBAEC37F008D009
:100968001D0E0001786FFB0E0001796FBAEC37F0AD
:10097800D60E0001766F000E0001776FB0EC38F0EC
:10098800120061EF0AF0D60E0001766F000E00012A
:10099800776FB0EC38F0590E0001786FFC0E00014B
:1009A800796FBAEC37F0D60E0001766F000E0001B1
:1009B800776FB0EC38F0B10E0001786FFF0E0001D0
:1009C800796FBAEC37F0D20E0001786FFD0E000196
:1009D800796FBAEC37F0800E0001786FFF0E0001D6
:1009E800796FBAEC37F0920E0001786FFD0E0001B6
:1009F800796FBAEC37F0D60E0001766F000E000161
:100A0800776FB0EC38F0A80E0001786FFF0E000188
:100A1800796FBAEC37F0A70E0001786FFE0E00016F
:100A2800796FBAEC37F0820E0001786FFF0E000183
:100A3800796FBAEC37F00E0E0001786FFF0E0001E7
:100A4800796FBAEC37F0D60E0001766F000E000110
:100A5800776FB0EC38F0120061EF0AF0000E000179
:100A6800786F060E0001796F730E00017A6FFF0E22
:100A780000017B6F29EC31F00009D8B4A7D2000E31
:100A88000001846F060E0001856F7FEC25F00009D8
:100A9800D8B442D20001CD2B000E0001816F060EA2
:100AA8000001826F010E0001836F4C0E0001846FFC
:100AB800020E0001856F15EC1BF00009D8A42CD29A
:100AC80002014F5102014E1102014D1104E1150EB0
:100AD80002014C5DD8B006D202014C5102014D1101
:100AE80002014E1102014F11D8B4FCD1000E0001D1
:100AF800786F060E0001796F1E0E00017A6FFE0EE8
:100B080000017B6F29EC31F00009D8A423D1FE0E37
:100B18000001B56FFF0E0001B66F4CC2B7F04DC2B1
:100B2800B8F0D8900001B737B8370001B5510001C7
:100B3800B7270001B6510001B823000E0001B96FB4
:100B4800070E0001BA6F050E0001B927000EBA237F
:100B58000001B7510001B9270001B8510001BA23BB
:100B6800010E0001B925D96E000E0001BA21DA6E16
:100B7800DF500001796FFE0E0001BB6FFF0E000110
:100B8800BC6F4CC2BDF04DC2BEF0D8900001BD375D
:100B9800BE370001BB510001BD270001BC51000157
:100BA800BE23050E0001BD25D96E070E0001BE212A
:100BB800DA6EDF50F6EC2BF079C03DF27AC03EF2E7
:100BC8007BC03FF27CC040F202013D2908E10201EE
:100BD8003F2902013E1102014011D8B4A9D03DC2FB
:100BE8008AF03EC28BF03FC28CF040C28DF0000EFE
:100BF80000018E6F1FEC35F0000E00018B6F020EA6
:100C080000018C6FBD0E00018D6FFD0E00018E6F0F
:100C18003DC28FF03EC290F03FC291F040C292F0C8
:100C28003DEC12F0000E0001786F020E0001796FA2
:100C3800BAEC37F0000E00018B6F020E00018C6FCA
:100C4800E60E00018D6FF90E00018E6FFE0E000199
:100C5800B56FFF0E0001B66F4CC2B7F04DC2B8F0C9
:100C6800D8900001B737B8370001B5510001B72750
:100C78000001B6510001B823050E0001B725D96E51
:100C8800070E0001B821DA6EDF500001B96F0001CC
:100C9800B95100018F6F906BFE0E0001BA6FFF0E05
:100CA8000001BB6F4CC2BCF04DC2BDF0D890000132
:100CB800BC37BD370001BA510001BC270001BB5148
:100CC8000001BD23000E0001BE6F070E0001BF6FBB
:100CD800050E0001BE27000EBF230001BC51000114
:100CE800BE270001BD510001BF23010E0001BE2532
:100CF800D96E000E0001BF21DA6EDF500001C06F0F
:100D08000001C0510001916F926B3DEC12F0000E92
:100D18000001786F020E0001796FBAEC37F0D60E39
:100D28000001766F000E0001776FB0EC38F012000A
:100D3800D60E0001766F000E0001776FB0EC38F028
:100D4800890E0001786FF90E0001796FBAEC37F05F
:100D58001200E2D0B4EC35F00009D8B4120001D08A
:100D68001200CEC079F0CFC07AF0D0C07BF0D1C0ED
:100D78007CF04A0E00017D6F020E00017E6F4B0E63
:100D880000017F6F020E0001806FD4EC33F0FE0E7D
:100D98000001B56FFF0E0001B66F4CC2B7F04DC22F
:100DA800B8F0D8900001B737B8370001B551000145
:100DB800B7270001B6510001B823050E0001B72579
:100DC800D96E070E0001B821DA6E4AC2DFFFFE0EA7
:100DD8000001B56FFF0E0001B66F4CC2B7F04DC2EF
:100DE800B8F0D8900001B737B8370001B551000105
:100DF800B7270001B6510001B823000E0001B96FF2
:100E0800070E0001BA6F050E0001B927000EBA23BC
:100E18000001B7510001B9270001B8510001BA23F8
:100E2800010E0001B925D96E000E0001BA21DA6E53
:100E38004BC2DFFFADEC39F0D60E0001766F000E25
:100E48000001776FB0EC38F0000E00018B6F020ED6
:100E580000018C6FB80E00018D6FF90E00018E6FC6
:100E68004CC28FF04DC290F04EC291F04FC292F03A
:100E7800CEC093F0CFC094F0D0C095F0D1C096F01A
:100E88003DEC12F0000E0001786F020E0001796F40
:100E9800BAEC37F0000E00018B6F020E00018C6F68
:100EA800E60E00018D6FF90E00018E6F4AC28FF0B9
:100EB8000001906B4BC291F00001926B3DEC12F077
:100EC800000E0001786F020E0001796FBAEC37F05E
:100ED800D60E0001766F000E0001776FB0EC38F087
:100EE80012001AD0D60E0001766F000E0001776F3F
:100EF800B0EC38F0B10E0001786FFA0E0001796F8E
:100F0800BAEC37F0D60E0001766F000E0001776F4D
:100F1800B0EC38F0120000D0D60E0001766F000E4B
:100F28000001776FB0EC38F0FA0E0001786FFA0E16
:100F38000001796FBAEC37F0D60E0001766F000E1B
:100F48000001776FB0EC38F0B10E0001786FFF0E3A
:100F58000001796FBAEC37F0FE0E0001786FFE0ED3
:100F68000001796FBAEC37F00E0E0001786FFE0EB3
:100F78000001796FBAEC37F0D60E0001766F000EDB
:100F88000001776FB0EC38F0A80E0001786FFF0E03
:100F98000001796FBAEC37F03D0E0001786FFF0E53
:100FA8000001796FBAEC37F0B90E0001786FFE0EC8
:100FB8000001796FBAEC37F0D60E0001766F000E9B
:100FC8000001776FB0EC38F0120077D2000E000104
:100FD800786F060E0001796FB80E00017A6FFF0E68
:100FE80000017B6F29EC31F00009D8B44CD2000E17
:100FF8000001846F060E0001856F7FEC25F0000963
:10100800D8A411D0670E0001786FFA0E0001796F2D
:10101800BAEC37F0D60E0001766F000E0001776F3C
:10102800B0EC38F012000001CD2BD60E0001766F1F
:10103800000E0001776FB0EC38F0000E0001816FF0
:10104800060E0001826F010E0001836F4C0E000135
:10105800846F020E0001856F15EC1BF00009D8A4FF
:1010680003D04CC249F211D0670E0001786FFA0E16
:101078000001796FBAEC37F0D60E0001766F000EDA
:101088000001776FB0EC38F01200020149510201FB
:10109800D8B405D0020E0201496512D000D08C0EDA
:1010A8000001786FFA0E0001796FBAEC37F0D60EAE
:1010B8000001766F000E0001776FB0EC38F0120077
:1010C800000E0001756F060E0001766F010E00011B
:1010D800776F320E0001786F020E0001796F2DECE8
:1010E8002DF00009D8B412D01B0E0001786FFC0E49
:1010F8000001796FBAEC37F0D60E0001766F000E5A
:101108000001776FB0EC38F01200D7D1320E000131
:10111800756F020E0001766FF3EC39F0020133515E
:10112800D8B405D0200E02013319D8A49AD1000EE4
:101138000201336F02014905D8A415D0F90E000148
:10114800786F020E0001796F320E00017A6F020E7D
:1011580000017B6F29EC31F00009D8A419D0000EEA
:101168000201436F15D0020E02014919D8A410D00C
:10117800FA0E0001786F010E0001796F320E00013E
:101188007A6F020E00017B6F29EC31F0E5D700D0B1
:10119800020143510201D8A411D03A0E0001786F20
:1011A800FC0E0001796FBAEC37F0D60E0001766FAD
:1011B800000E0001776FB0EC38F01200B4EC35F097
:1011C8000009D8B4120001D0120002014905D8A4C0
:1011D80017D0640E02013219D8A402D0000E9AD09A
:1011E800650E02013219D8A402D0010E93D0660E02
:1011F80002013219D8A41200020E8CD012008FD02E
:10120800020E02014919D8A48AD0620E02013219CD
:10121800D8A402D0030E7ED0640E02013219D8A4DD
:1012280002D0040E77D0680E02013219D8A4120039
:10123800000E0001756F060E0001766FCDC077F0C5
:101248000001786B83EC38F0000E0001CD6F000EC2
:101258000001CC6FD60E0001766F000E0001776F8B
:10126800B0EC38F04B0E0001766FFF0E0001776F7F
:10127800B0EC38F0D60E0001766F000E0001776FE3
:10128800B0EC38F03E0E74EC3BF0000E02013C6FFF
:1012980023D0E00E0001756F930E766F040E776F02
:1012A800000E786F34EC39F002013C2B190E020164
:1012B8003C6512D0D60E0001766F000E0001776FE4
:1012C800B0EC38F0250E0001786FF90E0001796F47
:1012D800BAEC37F0120000D00001CC51D8B4D9D7FD
:1012E800300E0601006505D0330E060100650AD0F0
:1012F80000D0570E0001786FF90E0001796FBAEC33
:1013080037F000D006010051D00F0201416F0201F1
:101318004151040F0201426F02D0120000D0CEC02A
:1013280079F0CFC07AF0D0C07BF0D1C07CF04A0E03
:1013380000017D6F020E00017E6F4B0E00017F6F72
:10134800020E0001806FD4EC33F002014251020D0D
:101358002E0EF324D96E070EF420DA6E4AC2DFFF90
:1013680002014251020D000E0001B56F070E000187
:10137800B66F2E0E0001B527000EB623F3500001FC
:10138800B527F4500001B623010E0001B525D96E2A
:10139800000E0001B621DA6E4BC2DFFFADEC39F06A
:1013A800D60E0001766F000E0001776FB0EC38F0B2
:1013B800020141510201D8B423D0000E00018B6F05
:1013C800020E00018C6FB00E00018D6FF80E000147
:1013D8008E6FCEC08FF0CFC090F0D0C091F0D1C04A
:1013E80092F049C293F00001946B32C295F000016B
:1013F800966B41C297F00001986B3DEC12F01FD03C
:10140800000E00018B6F020E00018C6FEF0E0001C1
:101418008D6FF80E00018E6FCEC08FF0CFC090F0A8
:10142800D0C091F0D1C092F049C293F00001946B02
:1014380032C295F00001966B3DEC12F000D0000E20
:101448000001786F020E0001796FBAEC37F0D60E02
:101458000001766F000E0001776FB0EC38F01200D3
:101468002CD0120E0001786FFA0E0001796FBAECD9
:1014780037F0D60E0001766F000E0001776FB0ECE2
:1014880038F012001AD0000E0001786F050E000126
:10149800796FBAEC37F0EA0E0001786FFC0E0001A4
:1014A800796FBAEC37F0D60E0001766F000E0001A6
:1014B800776FB0EC38F0120000D0000E0001756FA5
:1014C800060E0001766FE40E0001776FFF0E000133
:1014D800786F81EC37F00009D8B41200D60E0001FD
:1014E800766F000E0001776FB0EC38F0700E0001D7
:1014F800786FF80E0001796FBAEC37F0D60E00015C
:10150800766F000E0001776FB0EC38F0ED0E000139
:10151800786FFE0E0001796FBAEC37F0E40E000127
:10152800786FFF0E0001796F950E00017A6FFF0E3C
:1015380000017B6FBCEC2DF0D60E0001766F000E1B
:101548000001776FB0EC38F0660E0001786FFF0E7F
:101558000001796FBAEC37F0010E0201486F140EE2
:101568000201486501D030D0000E0001756F020EEF
:101578000001766F000E0001786F320E776F83ECF2
:1015880038F0000E00018B6F020E00018C6F2E0EDA
:1015980000018D6FFF0E00018E6F48C28FF00001B1
:1015A800906B3DEC12F0F80E0001786FFF0E000111
:1015B800796F050E00017A6FFD0E00017B6FBCECA0
:1015C8002DF00201482BCBD7010E0201486F140EF3
:1015D8000201486501D030D0000E0001756F020E7F
:1015E8000001766F000E0001786F320E776F83EC82
:1015F80038F0000E00018B6F020E00018C6F940E04
:1016080000018D6FFE0E00018E6F48C28FF0000141
:10161800906B3DEC12F0F80E0001786FFF0E0001A0
:10162800796F360E00017A6FFD0E00017B6FBCECFE
:101638002DF00201482BCBD7DB0E0001786FFF0E8F
:101648000001796F3E0E00017A6FFA0E00017B6F80
:10165800BCEC2DF0D60E0001766F000E0001776FFE
:10166800B0EC38F0590E0001786FFF0E0001796F69
:10167800BAEC37F0900E0001786F040E0001796F14
:10168800480E00017A6FFE0E00017B6FBCEC2DF056
:101698009F0E0001786F040E0001796F5B0E000148
:1016A8007A6FFE0E00017B6FBCEC2DF0AE0E0001D0
:1016B800786F040E0001796F6E0E00017A6FFE0ECE
:1016C80000017B6FBCEC2DF0BE0E0001786F050E9B
:1016D8000001796F7C0E00017A6FFD0E00017B6FAF
:1016E800BCEC2DF0980E0001786F050E0001796FA3
:1016F800650E00017A6FFD0E00017B6FBCEC2DF0CA
:10170800D00E0001786F050E0001796F810E00017F
:101718007A6FFE0E00017B6FBCEC2DF0AB0E000162
:10172800786F050E0001796FE60E00017A6FFD0EE5
:1017380000017B6FBCEC2DF05C0E0001786F050E8C
:101748000001796FBE0E00017A6FFB0E00017B6FFE
:10175800BCEC2DF01D0E0001786F050E0001796FAD
:101768003E0E00017A6FFB0E00017B6FBCEC2DF082
:10177800700E0001786F050E0001796FDD0E000113
:101788007A6FFB0E00017B6FBCEC2DF0320E00016E
:10179800786F050E0001796F5E0E00017A6FFB0EFF
:1017A80000017B6FBCEC2DF0840E0001786F050EF4
:1017B8000001796FFC0E00017A6FFB0E00017B6F50
:1017C800BCEC2DF0470E0001786F050E0001796F13
:1017D8007E0E00017A6FFB0E00017B6FBCEC2DF0D2
:1017E800D60E0001766F000E0001776FB0EC38F06E
:1017F80012001200000E0001816F000E826F000EB1
:10180800836F000E846F010E000175150001796F5A
:10181800000E0001761500017A6F000E00017715A1
:1018280000017B6F000E0001781500017C6F1F0E10
:10183800D890000179377A377B377C37E82EF8D78C
:10184800000179510001812700017A5100018223AA
:1018580000017B510001832300017C510001842396
:10186800020E000175150001796F000E0001761552
:1018780000017A6F000E0001771500017B6F000EE2
:101888000001781500017C6F1D0ED8900001793792
:101898007A377B377C37E82EF8D700017951000179
:1018A800812700017A510001822300017B51000148
:1018B800832300017C5100018423040E0001751567
:1018C8000001796F000E0001761500017A6F000E95
:1018D8000001771500017B6F000E000178150001EB
:1018E8007C6F1B0ED890000179377A377B377C37AD
:1018F800E82EF8D7000179510001812700017A51BB
:101908000001822300017B510001832300017C51E7
:1019180000018423080E000175150001796F000E7F
:101928000001761500017A6F000E0001771500019D
:101938007B6F000E0001781500017C6F190ED8909E
:10194800000179377A377B377C37E82EF8D70001E2
:1019580079510001812700017A5100018223000199
:101968007B510001832300017C5100018423100E68
:10197800000175150001796F000E00017615000150
:101988007A6F000E0001771500017B6F000E0001D1
:10199800781500017C6F170ED890000179377A37D7
:1019A8007B377C37E82EF8D7000179510001812771
:1019B80000017A510001822300017B510001832339
:1019C80000017C5100018423200E000175150001DF
:1019D800796F000E0001761500017A6F000E000184
:1019E800771500017B6F000E0001781500017C6FF0
:1019F800150ED890000179377A377B377C37E82E77
:101A0800F8D7000179510001812700017A510001BE
:101A1800822300017B510001832300017C510001D6
:101A28008423400E000175150001796F000E000136
:101A3800761500017A6F000E0001771500017B6FA3
:101A4800000E0001781500017C6F130ED89000017C
:101A580079377A377B377C37E82EF8D70001795108
:101A68000001812700017A510001822300017B5186
:101A78000001832300017C5100018423800E0001B2
:101A880075150001796F000E0001761500017A6F57
:101A9800000E0001771500017B6F000E000178151C
:101AA80000017C6F110ED890000179377A377B37A7
:101AB8007C37E82EF8D70001795100018127000111
:101AC8007A510001822300017B5100018323000128
:101AD8007C5100018423000E000175150001796F07
:101AE800010E0001761500017A6F000E00017715CE
:101AF80000017B6F000E0001781500017C6F0F0E4E
:101B0800D890000179377A377B377C37E82EF8D7B9
:101B1800000179510001812700017A5100018223D7
:101B280000017B510001832300017C5100018423C3
:101B3800000E000175150001796F020E000176157F
:101B480000017A6F000E0001771500017B6F000E0F
:101B58000001781500017C6F0D0ED89000017937CF
:101B68007A377B377C37E82EF8D7000179510001A6
:101B7800812700017A510001822300017B51000175
:101B8800832300017C5100018423000E0001751598
:101B98000001796F040E0001761500017A6F000EBE
:101BA8000001771500017B6F000E00017815000118
:101BB8007C6F0B0ED890000179377A377B377C37EA
:101BC800E82EF8D7000179510001812700017A51E8
:101BD8000001822300017B510001832300017C5115
:101BE80000018423000E000175150001796F080EAD
:101BF8000001761500017A6F000E000177150001CB
:101C08007B6F000E0001781500017C6F090ED890DB
:101C1800000179377A377B377C37E82EF8D700010F
:101C280079510001812700017A51000182230001C6
:101C38007B510001832300017C5100018423000EA5
:101C4800000175150001796F100E0001761500016D
:101C58007A6F000E0001771500017B6F000E0001FE
:101C6800781500017C6F070ED890000179377A3714
:101C78007B377C37E82EF8D700017951000181279E
:101C880000017A510001822300017B510001832366
:101C980000017C5100018423000E0001751500012C
:101CA800796F200E0001761500017A6F000E000191
:101CB800771500017B6F000E0001781500017C6F1D
:101CC800050ED890000179377A377B377C37E82EB4
:101CD800F8D7000179510001812700017A510001EC
:101CE800822300017B510001832300017C51000104
:101CF8008423000E000175150001796F400E000164
:101D0800761500017A6F000E0001771500017B6FD0
:101D1800000E0001781500017C6F030ED8900001B9
:101D280079377A377B377C37E82EF8D70001795135
:101D38000001812700017A510001822300017B51B3
:101D48000001832300017C5100018423000E00015F
:101D580075150001796F800E0001761500017A6F04
:101D6800000E0001771500017B6F000E0001781549
:101D780000017C6FD8900001793500017D6F00016A
:101D88007A3500017E6F00017B3500017F6F00010D
:101D98007C350001806F00017D5100018127000121
:101DA8007E510001822300017F510001832300013D
:101DB80080510001842375C079F076C07AF077C02D
:101DC8007BF078C07CF00001D8907C337B337A3389
:101DD8007933000E0001791500017D6F800E000136
:101DE8007A1500017E6F000E00017B1500017F6FE0
:101DF800000E00017C150001806F00017D5100017B
:101E0800812700017E510001822300017F510001DA
:101E18008323000180510001842375C079F076C0C6
:101E28007AF077C07BF078C07CF0040E06D0000111
:101E3800D8907C337B337A337933E82EF8D7000E89
:101E48000001791500017D6F400E00017A1500012F
:101E58007E6F000E00017B1500017F6F000E0001F0
:101E68007C150001806F00017D5100018127000170
:101E78007E510001822300017F510001832300016C
:101E880080510001842375C079F076C07AF077C05C
:101E98007BF078C07CF0060E06D00001D8907C3329
:101EA8007B337A337933E82EF8D7000E00017915A1
:101EB80000017D6F200E00017A1500017E6F000E73
:101EC80000017B1500017F6F000E00017C150001E9
:101ED800806F00017D510001812700017E510001C2
:101EE800822300017F5100018323000180510001FA
:101EF800842375C079F076C07AF077C07BF078C01B
:101F08007CF0080E06D00001D8907C337B337A33FE
:101F18007933E82EF8D7000E0001791500017D6F9E
:101F2800100E00017A1500017E6F000E00017B156E
:101F380000017F6F000E00017C150001806F000119
:101F48007D510001812700017E510001822300019B
:101F58007F5100018323000180510001842375C053
:101F680079F076C07AF077C07BF078C07CF00A0E02
:101F780006D00001D8907C337B337A337933E82E4E
:101F8800F8D7000E0001791500017D6F080E0001D9
:101F98007A1500017E6F000E00017B1500017F6F2E
:101FA800000E00017C150001806F00017D510001C9
:101FB800812700017E510001822300017F51000129
:101FC8008323000180510001842375C079F076C015
:101FD8007AF077C07BF078C07CF00C0E06D0000158
:101FE800D8907C337B337A337933E82EF8D7000ED8
:101FF8000001791500017D6F040E00017A150001BA
:102008007E6F000E00017B1500017F6F000E00013E
:102018007C150001806F00017D51000181270001BE
:102028007E510001822300017F51000183230001BA
:1020380080510001842375C079F076C07AF077C0AA
:102048007BF078C07CF00E0E06D00001D8907C336F
:102058007B337A337933E82EF8D7000E00017915EF
:1020680000017D6F020E00017A1500017E6F000EDF
:1020780000017B1500017F6F000E00017C15000137
:10208800806F00017D510001812700017E51000110
:10209800822300017F510001832300018051000148
:1020A800842375C079F076C07AF077C07BF078C069
:1020B8007CF0100E06D00001D8907C337B337A3345
:1020C8007933E82EF8D7000E0001791500017D6FED
:1020D800010E00017A1500017E6F000E00017B15CC
:1020E80000017F6F000E00017C150001806F000168
:1020F8007D510001812700017E51000182230001EA
:102108007F5100018323000180510001842375C0A1
:1021180079F076C07AF077C07BF078C07CF0120E48
:1021280006D00001D8907C337B337A337933E82E9C
:10213800F8D7800E0001791500017D6F000E0001AF
:102148007A1500017E6F000E00017B1500017F6F7C
:10215800000E00017C150001806F00017D51000117
:10216800812700017E510001822300017F51000177
:102178008323000180510001842375C079F076C063
:102188007AF077C07BF078C07CF0140E06D000019E
:10219800D8907C337B337A337933E82EF8D7400EE6
:1021A8000001791500017D6F000E00017A1500010C
:1021B8007E6F000E00017B1500017F6F000E00018D
:1021C8007C150001806F00017D510001812700010D
:1021D8007E510001822300017F5100018323000109
:1021E80080510001842375C079F076C07AF077C0F9
:1021F8007BF078C07CF0160E06D00001D8907C33B6
:102208007B337A337933E82EF8D7200E000179151D
:1022180000017D6F000E00017A1500017E6F000E2F
:1022280000017B1500017F6F000E00017C15000185
:10223800806F00017D510001812700017E5100015E
:10224800822300017F510001832300018051000196
:10225800842375C079F076C07AF077C07BF078C0B7
:102268007CF0180E06D00001D8907C337B337A338B
:102278007933E82EF8D7100E0001791500017D6F2B
:10228800000E00017A1500017E6F000E00017B151B
:1022980000017F6F000E00017C150001806F0001B6
:1022A8007D510001812700017E5100018223000138
:1022B8007F5100018323000180510001842375C0F0
:1022C80079F076C07AF077C07BF078C07CF01A0E8F
:1022D80006D00001D8907C337B337A337933E82EEB
:1022E800F8D7080E0001791500017D6F000E000176
:1022F8007A1500017E6F000E00017B1500017F6FCB
:10230800000E00017C150001806F00017D51000165
:10231800812700017E510001822300017F510001C5
:102328008323000180510001842375C079F076C0B1
:102338007AF077C07BF078C07CF01C0E06D00001E4
:10234800D8907C337B337A337933E82EF8D7040E70
:102358000001791500017D6F000E00017A1500015A
:102368007E6F000E00017B1500017F6F000E0001DB
:102378007C150001806F00017D510001812700015B
:102388007E510001822300017F5100018323000157
:1023980080510001842375C079F076C07AF077C047
:1023A8007BF078C07CF01E0E06D00001D8907C33FC
:1023B8007B337A337933E82EF8D7020E000179158A
:1023C80000017D6F000E00017A1500017E6F000E7E
:1023D80000017B1500017F6F000E00017C150001D4
:1023E800806F00017D510001812700017E510001AD
:1023F800822300017F5100018323000180510001E5
:102408008423000E000175150001796F000E00018C
:10241800761500017A6F000E0001771500017B6FB9
:10242800800E0001781500017C6F200E06D0000197
:10243800D8907C337B337A337933E82EF8D7000190
:1024480079510001812700017A510001822300019E
:102458007B510001832300017C510001842381C04A
:1024680075F082C076F083C077F084C078F01200EF
:1024780012008F0E0001A86F000E0001A96F49EF2E
:1024880018F0250E0001B219D8B40BD08BC0D9FFB3
:102498008CC0DAFFB2C0DFFF00018B4B8C2B49EFF9
:1024A80018F0000E0001B16F000EB06F000E0001B1
:1024B800B46F000EB36F10D00001B38708D00001CD
:1024C800B38105D00001B48702D00001B3850001B3
:1024D8008D4B8E2B01D014D08DC0F6FF8EC0F7FF28
:1024E8000800F550200AD8B4EAD7030AD8B4EAD7C6
:1024F8000E0AD8B4E1D71D0AD8B4E7D701D0ECD773
:102508000001B3A703D00001B39500D08DC0F6FF3A
:102518008EC0F7FF0800F550F9EC3AF0D8A043D088
:10252800000E0001B16F000EB06F00D0B0C075F0A2
:10253800B1C076F0000E0001786F0A0E776FABEC31
:102548003AF075C0B0F076C0B1F0D00E0001996FC6
:10255800FF0E00019A6F8DC0F6FF8EC0F7FF0800CE
:10256800F55000019B6F9C6B0001995100019B275E
:1025780000019A5100019C2300019B510001B027E2
:1025880000019C510001B12300018D4B8E2B8DC0A1
:10259800F6FF8EC0F7FF0800F550F9EC3AF0D8A026
:1025A8001CD0C4D71AD08DC0F6FF8EC0F7FF080024
:1025B800F5502A0AD8A411D0A8C0D9FFA9C0DAFFBB
:1025C800DECFB0F0DDCFB1F0020E0001A827000E7B
:1025D800A92300018D4B8E2B00D08DC0F6FF8EC035
:1025E800F7FF0800F5502E0AD8A455D00001B48D85
:1025F80000018D4B8E2B8DC0F6FF8EC0F7FF0800B3
:10260800F5502A0AD8A411D0A8C0D9FFA9C0DAFF6A
:10261800DECFAEF0DDCFAFF0020E0001A827000E2E
:10262800A92300018D4B8E2BEBD0000E0001AF6F5C
:10263800000EAE6F24D0AEC075F0AFC076F0000EBD
:102648000001786F0A0E776FABEC3AF08DC0F6FF99
:102658008EC0F7FF0800F55000017527000E000135
:102668007623D00E000175250001AE6FFF0E000124
:1026780076210001AF6F00018D4B8E2B00D08DC0ED
:10268800F6FF8EC0F7FF0800F550F9EC3AF0D8A035
:10269800B7D0D1D7B5D0000E0001AF6F000EAE6F26
:1026A800AFD05AEF18F00001B389AAD00001B38D5A
:1026B800D0D00001B38B0001B38FCBD00001AE5155
:1026C8000001AF11D8B40FD00001A6510001AE5DD2
:1026D8000001A7510001AF59D8B005D0AEC0A6F08F
:1026E800AFC0A7F000D00001B0510001A65D000105
:1026F800B1510001A759D8B009D00001A651000175
:10270800B05F0001A7510001B15B06D0000E0001C7
:10271800B16F000EB06F00D00001B3A70CD029D064
:102728000AD08BC0D9FF8CC0DAFF200EDF6E000103
:102738008B4B8C2B00D00001B007D8A0B10700014B
:10274800B029EFE10001B129D8B413D0EAD711D0EC
:102758009EC0D9FF9FC0DAFF8BC0E1FF8CC0E2FFAB
:10276800DFCFE7FF00019E4B9F2B00018B4B8C2B8B
:1027780000D00001A607D8A0A7070001A629E8E114
:102788000001A729D8A4E4D70001B3B70DD049EFB9
:1027980018F00AD08BC0D9FF8CC0DAFF200EDF6E8C
:1027A80000018B4B8C2B00D00001B007D8A0B107DB
:1027B8000001B029EFE10001B129D8B449EF18F0C0
:1027C800E9D749EF18F0A8C0D9FFA9C0DAFFDF5050
:1027D8000001B26F020E0001A827000EA92300D045
:1027E800B20E00019E6F000E00019F6F000E0001E7
:1027F800A76F010EA66F62D7C00E0001B31329D0D0
:102808008DC0F6FF8EC0F7FF00018D4B8E2B0800A0
:10281800F5CFB2F00001B251000AD8B45AEF18F05F
:10282800580AD8B446D73B0AD8B4CDD7070AD8B483
:1028380010D00D0AD8B40DD0050AD8B434D7030A7D
:10284800D8B434D71A0AD8B4D7D70D0AD8B433D7DE
:10285800C7D7C00E0001B3150001996F000E000123
:10286800B41500019A6F0001995100019A11D8A47A
:1028780035D00001B3A90ED0A8C0D9FFA9C0DAFF8E
:10288800DECFAAF0DECFABF0DECFACF0DECFADF01E
:10289800040E0FD0A8C0D9FFA9C0DAFFDECFAAF076
:1028A800DDCFABF00001000EABBFFF0EAC6FAD6F1C
:1028B800020E0001A827000EA92300D00001ADAF29
:1028C80033D0030E0001B3130001AD1FAC1FAB1FC3
:1028D800AA6D000EAB23AC23AD2326D00001B3A90B
:1028E8000ED0A8C0D9FFA9C0DAFFDECFAAF0DECF8C
:1028F800ABF0DECFACF0DECFADF0040E10D0A8C048
:10290800D9FFA9C0DAFFDECF99F0DDCF9AF099C0E0
:10291800AAF09AC0ABF00001AC6BAD6B020E0001DF
:10292800A827000EA92300D00001AE510001AF1165
:10293800D8A490D00001AA510001AB110001AC113C
:102948000001AD11D8A486D00001AE4BAF2B82D0C8
:1029580000D0010E0001B26F0A0E0001B219D8B4FE
:1029680089D001D087D00001B251040D1F0EF32485
:10297800F66EF80EF420F76E0900F5500001AA5D16
:102988000900F5500001AB590900F5500001AC5998
:102998000900F5500001AD59D8A06CD001D06AD01B
:1029A8000001B22BD9D766D0010E0001B26F080E14
:1029B8000001B219D8B45ED001D05CD00001B25188
:1029C800040D470EF324F66EF80EF420F76E090096
:1029D800F5500001AA5D0900F5500001AB59090046
:1029E800F5500001AC590900F5500001AD59D8A0C7
:1029F80041D001D03FD00001B22BD9D73BD0010E36
:102A08000001B26F0C0E0001B219D8B433D001D056
:102A180031D00001B251040DEF0EF324F66EF70E1B
:102A2800F420F76E0900F5500001AA5D0900F55081
:102A38000001AB590900F5500001AC590900F550E7
:102A48000001AD59D8A016D001D014D00001B22B86
:102A5800D9D710D00001B351C00B000AD8B479D728
:102A6800400AD8B4CCD7C00AD8B49ED7400AD8B444
:102A780070D700D0800E0001B2BF7F0E0001996FA1
:102A88000001AE510001B25D0001AF51800A0001A2
:102A98009959D8B003D0AEC0B2F019D00001AF51E7
:102AA800800A0001996F0001B2510001AE5D800EED
:102AB8000001B2BF7F0E00019959D8B008D00001BB
:102AC800B2510001AE6FAF6BAEBFAF0700D00001CF
:102AD800B0510001B111D8B415D0030E0001B315DF
:102AE8000001996F000E0001B41500019A6F0001F2
:102AF800995100019A11D8B405D00001B007D8A0A7
:102B0800B10700D00001B4AD1FD00001B0510001E1
:102B1800AE5D0001AF51800A0001996F0001B1510B
:102B2800800A00019959D8B009D00001AE510001BE
:102B3800B05F0001AF510001B15B06D0000E00018B
:102B4800B16F000EB06F00D0C40E0001996F080E6F
:102B580000019A6FB3C09BF0B4C09CF0000199517A
:102B680000019B1700019A5100019C17400E0001BB
:102B78009B1910E1080E00019C19D8A40BD0000184
:102B8800B0510001B111D8B437D00001B007D8A0B6
:102B9800B10732D0C00E0001996F080E00019A6F7C
:102BA800B3C09BF0B4C09CF00001995100019B1781
:102BB80000019A5100019C17800E00019B191CE12D
:102BC800080E00019C19D8A417D00001B1BF0ED07F
:102BD8000001B15105E1030E0001B05DD8A006D097
:102BE8000001FE0EB027FF0EB12306D0000E000133
:102BF800B16F000EB06F00D0800E0001B2BF7F0E23
:102C08000001996F0001B0510001B25D0001B1519E
:102C1800800A00019959D8B00BD00001B2510001C7
:102C2800B05F000E0001B2BFFF0E0001B15B06D01D
:102C3800000E0001B16F000EB06F00D00001B3A507
:102C480079D0030E0001B3150001996F000E000141
:102C5800B41500019A6F0001995100019A11D8B476
:102C68000AD08BC0D9FF8CC0DAFF2D0E0CD0000122
:102C78008B4B8C2B44D00001B3A107D08BC0D9FF5C
:102C88008CC0DAFF200EDF6EF2D7C00E0001996FFC
:102C9800080E00019A6FB3C09BF0B4C09CF000010D
:102CA800995100019B1700019A5100019C17800E51
:102CB80000019B1924E1080E00019C19D8A41FD01B
:102CC8008BC0D9FF8CC0DAFF300EDF6E00018B4B52
:102CD8008C2B0001B3BB05D0000E0001A16F780E4C
:102CE80004D0000E0001A16F580EA06F00D08BC059
:102CF800D9FF8CC0DAFFA0C0DFFFB9D700D0000130
:102D0800B0510001B111D8B491D18BC0D9FF8CC09A
:102D1800DAFF300EDF6E00018B4B8C2B0001B00701
:102D2800D8A0B1070001B0510001B111D8B47ED1CB
:102D3800ECD77CD10001B0510001B111D8B418D042
:102D48000001B3B715D08BC0D9FF8CC0DAFF200EB5
:102D5800DF6E00018B4B8C2B0001B007D8A0B107A8
:102D68000001B0510001B111D8B402D0ECD700D0A5
:102D7800030E0001B3150001996F000E0001B41590
:102D880000019A6F0001995100019A11D8B40AD034
:102D98008BC0D9FF8CC0DAFF2D0E0CD000018B4BF5
:102DA8008C2B0BD00001B3A108D08BC0D9FF8CC0ED
:102DB800DAFF200EDF6EF2D700D0C00E0001996F47
:102DC800080E00019A6FB3C09BF0B4C09CF00001DC
:102DD800995100019B1700019A5100019C17400E60
:102DE80000019B190CE1080E00019C19D8A407D01A
:102DF8008BC0D9FF8CC0DAFF300EDF6E13D1C00E46
:102E08000001996F080E00019A6FB3C09BF0B4C01F
:102E18009CF00001995100019B1700019A51000193
:102E28009C17800E00019B1904E1080E00019C19F3
:102E3800D8A4FCD08BC0D9FF8CC0DAFF300EDF6E6F
:102E480000018B4B8C2B0001B3BB05D0000E000199
:102E5800A36F780E04D0000E0001A36F580EA26F66
:102E680000D08BC0D9FF8CC0DAFFA2C0DFFFDAD058
:102E7800DDD0C2D000D0AEC099F0AFC09AF000014A
:102E8800D89099379A370001D89099379A371F0EFA
:102E980000019925F66EF80E9A21F76E0900F5CF14
:102EA80079F00900F5CF7AF00900F5CF7BF00A0038
:102EB800F5CF7CF0AAC075F0ABC076F0ACC077F067
:102EC800ADC078F061EC32F075C082F076C083F066
:102ED80077C084F078C085F00A0E0001866F000E76
:102EE800876F000E886F000E896F2BEC34F000019D
:102EF80082517ED0AAC075F0ABC076F0ACC077F036
:102F0800ADC078F0AEC099F0AFC09AF00001D8908B
:102F180099379A370001D89099379A37470E0001A8
:102F28009925F66EF80E9A21F76E0900F5CF79F01B
:102F38000900F5CF7AF00900F5CF7BF00A00F5CF4C
:102F48007CF061EC32F0000175510F0B00019D6FB0
:102F58000001B3BB05D0DC0E0001A46FFE0E04D047
:102F6800CB0E0001A46FFE0E0001A56F00D000017A
:102F78009D51010DA4C099F0A5C09AF0F35000012D
:102F88009927F45000019A2399C0F6FF9AC0F7FFD9
:102F98000800F5CFB2F040D0AAC075F0ABC076F00B
:102FA800ACC077F0ADC078F0AEC099F0AFC09AF081
:102FB8000001D89099379A370001D89099379A37F5
:102FC800EF0E00019925F66EF70E9A21F76E0900AB
:102FD800F5CF79F00900F5CF7AF00900F5CF7BF04D
:102FE8000A00F5CF7CF061EC32F000017551070B57
:102FF800300F0001B26F10D00001B351C00B000AAE
:10300800D8B439D7400AD8B4C7D7C00AD8B472D709
:10301800400AD8B430D700D08BC0D9FF8CC0DAFFB3
:10302800B2C0DFFF00018B4B8C2B00D00001AE0734
:10303800D8A0AF070001AE29DFE10001AF29D8A46D
:10304800DBD70001B3A721D00001B1BF1ED000011A
:10305800B15106E10001B005D8B002D016D000D0B9
:103068008BC0D9FF8CC0DAFF200EDF6E00018B4BBE
:103078008C2B0001B007D8A0B1070001B0510001A6
:10308800B111D8B402D0ECD700D08DC0F6FF8EC0F5
:10309800F7FF00018D4B8E2B0800F5CFB2F0000131
:1030A800B251D8B403D045EF12F000D08BC0D9FF8D
:1030B8008CC0DAFF000EDF6E12001200EACF67F054
:1030C800E1CF68F0E2CF69F0D9CF6AF0DACF6BF0E0
:1030D800F3CF6CF0F4CF6DF0F6CF6EF0F7CF6FF062
:1030E800F8CF70F0F5CF71F0F29EF2A073D029EC12
:1030F8003CF00001726F2F5000017219D8B467D0EC
:10310800D58EF28A130E436E000E0001D26FD6CF11
:1031180073F00001746BD75000017427480E3060BB
:1031280051D03050D8B449D0FE0E0001606FFF0E68
:103138000001616F30500001626F636BD89000012D
:103148006237633700016051000162270001615155
:1031580000016323000E00016225D96E080E0001EC
:103168006321DA6E73C0DEFF74C0DDFF090E000153
:10317800735D520E00017459D8B008D0380E0001A2
:10318800735D4A0E00017459D8B010D0510E000179
:10319800735DC30E00017459D8B00CD0C80E00017D
:1031A800735DAF0E00017459D8A004D07D98F296D3
:1031B800F28406D045EC3CF003D045EC3CF000D05E
:1031C800302A02D07D98F29672C02FF001D000F01C
:1031D800F29009D2F2A421D0F29AD59E000E1B6E6D
:1031E800080E1C6ECE0E1D6E000E1E6E010E1F6E9A
:1031F80042EC1FF00001D26F0001D251D8A407D0D1
:1032080029EC3CF02F6EF2907D88F28600D0000EFB
:10321800306E0D0E436EF294E6D19EA2D1D1392ABA
:10322800370E4118D8A40CD14250395CD8A003D12C
:10323800000E396E3450010DE10EF324D96E040EE0
:10324800F420DA6E630EDE18D8B4B3D03650D8B492
:10325800F2D03450010DE10EF324D96E040EF4209F
:10326800DA6EDF50D8A43FD03304D8A425D0350473
:10327800D8A407D077D0080ECB6E76D0000ECC6ECF
:10328800DAD0020E3518D8A404D074D03ED0352A2E
:10329800D2D0030E3518D8A402D064D0ECD7040ECF
:1032A8003518D8A404D08B9A180E51D016D0CA94C9
:1032B8007BD0000E366EBFD0020E3318D8A4F7D7D5
:1032C8003504D8A403D08B8A0B0ED6D7020E351836
:1032D800D8A4EDD78B9A1D0E3AD0010E356E342A3C
:1032E800AAD062D0A8D03450010DE10EF324D96ED3
:1032F800040EF420DA6EDE04D8A42ED03304D8A449
:1033080016D03504D8A404D03CD0180ECB6EBFD745
:10331800020E3518D8A431D08B9AADD72ED0F5D758
:10332800B6D732D0080ECB6E35D0A8D784D0020ECF
:103338003318D8A4BCD73504D8A403D08B8A1D0E63
:103348009BD7020E3518D8A404D08B9A0B0ECB6EDF
:10335800C4D7CA9429D06FD03304D8A420D0350458
:10336800D8A404D08B8A87D7352A88D7020E351877
:10337800D8A403D08B9AC9D78AD7030E3518D8A4F6
:1033880003D08B8AC2D783D7040E3518D8A48FD719
:103398008B9AC8D7010E356E342A70D74CD0020EDE
:1033A8003318D8A484D783D7010E0001D56F81D7ED
:1033B80042D03504D8A416D03304D8A403D08B8ABD
:1033C800080E06D0020E3318D8A404D08B9A0B0E20
:1033D800CB6E05D0CA94010E0001D56F00D0000E47
:1033E800CC6E55D7020E3518D8A41CD03304D8A4F7
:1033F80003D08B9AFA0E05D0020E3318D8A403D046
:10340800BB0ECB6E05D0CA94010E0001D56F00D05B
:10341800352A37063750D8B40ED0010E356E000E57
:10342800346E09D04AEC3CF0A192000E3A6EB1809D
:10343800CA943FD700D03650D8B4C0D0CA84BED0C2
:103448004250395CD8A0BAD0000E396E070E401829
:10345800D8A40DD0200E3F6E000E0001CA6F8B96C7
:10346800080E406E040E426E4B0ECB6EA7D0080EAF
:103478004018D8B404D00A0E4018D8A411D0010EB0
:103488000001CA6F010E426E2950010B2E6ED890B2
:103498002C322B322A322932260ECB6E090E7AD0E4
:1034A800090E4018D8A417D0000E0001CA6F8B96D9
:1034B800010E426E2E50D8B402D0710E01D0260EE5
:1034C800CB6E00D03F063F50D8A402D00B0E62D07E
:1034D8000A0E60D073D00B0E4018D8A407D0010E86
:1034E8000001CA6F260ECB6E0C0E54D00C0E40187D
:1034F800D8A411D0000E0001CA6F8B963250D8A400
:1035080003D00D0E406E57D00B0E426EF20ECB6EEE
:103518000E0E40D053D00E0E4018D8B404D0120E60
:103528004018D8A409D0010E0001CA6F040E426EDB
:10353800960ECB6E0F0E2ED00F0E4018D8A40AD0C0
:10354800000E0001CA6F8B96010E426E950ECB6E6F
:10355800100E20D0100E4018D8A409D0010E00017A
:10356800CA6F010E426E260ECB6E110E13D0110ECD
:103578004018D8A411D0000E0001CA6F8B961A0EFD
:10358800426EF60ECB6E31063150D8B402D0120E10
:1035980001D00D0E406E12D00D0E4018D8A405D0E3
:1035A8000AD0010E0001D56F09D0000E0001CA6FC4
:1035B8008B96000E406ECA94F4D700D09E9213D01A
:1035C800A1A20FD0B190060E3A6005D04AEC3CF0AB
:1035D800B1803A2A04D0010E0001D56F00D0A19223
:1035E80002D000F000D0F28E71C0F5FF70C0F8FF75
:1035F8006FC0F7FF6EC0F6FF6DC0F4FF6CC0F3FF3D
:103608006BC0DAFF6AC0D9FF69C0E2FF68C0E1FF9A
:1036180067C0EAFF66C0E9FF65C0FBFF64C0FAFF48
:103628001100000E00018F6F000E0001916F000E57
:10363800926F000E936F000E946F000E00018D6F55
:10364800010E00018B6F000E00018E6F000E00014D
:103658008C6F27D081C0D9FF82C0DAFF300EDE1808
:10366800D8A419D000018E2B0001814B822B81C078
:10367800D9FF82C0DAFF780EDE18D8B408D081C02E
:10368800D9FF82C0DAFF580EDE18D8A404D0010E84
:1036980000018C6F00D000018E2B0001814B822B22
:1036A80000D081C0D9FF82C0DAFFDF50D8A4D2D7BA
:1036B80000018E51010DF3500001815FF4500001AB
:1036C800825B01D03BD081C0D9FF82C0DAFF3D0EBA
:1036D800DE18D8B411D081C0D9FF82C0DAFF2C0E11
:1036E800DE18D8B409D081C0D9FF82C0DAFFDF5014
:1036F800D8B402D023D000D081C0D9FF82C0DAFF6D
:10370800DF50D8A403D0010E12001DD081C0D9FF0C
:1037180082C0DAFF3D0EDE18D8A408D081C0D9FFD8
:1037280082C0DAFF2C0EDE18D8B40DD00001835108
:1037380000018B5DD8B007D000018B2B0001814BB5
:10374800822BC1D700D081C0D9FF82C0DAFFDF50F9
:10375800D8A402D0010E12000001814B822B81C037
:10376800D9FF82C0DAFF200EDE18D8B442D181C05A
:10377800D9FF82C0DAFF3D0EDE18D8B408D081C068
:10378800D9FF82C0DAFF2C0EDE18D8A403D0020EAF
:10379800120033D181C0D9FF82C0DAFF2D0EDE18A6
:1037A800D8A404D0010E00018D6F23D181C0D9FFA8
:1037B80082C0DAFFDF50D8A420D1030E12001DD139
:1037C80000018C510001D8A45BD081C0D9FF82C010
:1037D800DAFF2F0EDF640DD181C0D9FF82C0DAFF76
:1037E8003A0EDF6006D191C075F092C076F093C0B2
:1037F80077F094C078F00A0E0001796F000E7A6FA6
:10380800000E7B6F000E7C6F44EC37F075C091F0B2
:1038180076C092F077C093F078C094F081C0D9FF59
:1038280082C0DAFFDF500001866FD00E00018625C6
:103838000001876F0001886BFF0E88230001896BE8
:10384800000188BF89070001895100018A6F0001C2
:10385800875100019127000188510001922300013E
:1038680089510001932300018A510001942300012A
:103878008F2B200E00018F65BCD0040E1200B9D02A
:10388800000E00018D6F04D00001814B822B00D007
:1038980081C0D9FF82C0DAFF780EDE18D8B40AD00A
:1038A80081C0D9FF82C0DAFF580EDE18D8B402D022
:1038B800EBD700D00001814B822B81C0D9FF82C099
:1038C800DAFF2F0EDF6408D081C0D9FF82C0DAFF8B
:1038D800390EDF641FD000D081C0D9FF82C0DAFF63
:1038E800400EDF6408D081C0D9FF82C0DAFF460EDF
:1038F800DF6410D000D081C0D9FF82C0DAFF600E2B
:10390800DF6477D081C0D9FF82C0DAFF670EDF603D
:1039180070D000D00001040ED890913792379337B9
:103928009437E82EF9D781C0D9FF82C0DAFFDF507B
:103938000001906F0001905165EC3BF00009D8B48C
:1039480029D0900E0001756F000E0001766F10EC03
:103958003BF0A90E000190250001866F0001876BDE
:10396800FF0E87230001886B000187BF88070001CD
:1039780088510001896F00018651000191270001DB
:10398800875100019223000188510001932300010F
:10399800895127D081C0D9FF82C0DAFFDF500001EA
:1039A800866FD00E000186250001876F0001886BA5
:1039B800FF0E88230001896B000188BF8907000179
:1039C800895100018A6F0001875100019127000188
:1039D80088510001922300018951000193230001BD
:1039E8008A510001942300D000018F2B42D7120086
:1039F80000D00001814B822B00D081C0D9FF82C04A
:103A0800DAFFDF50D8B40AD081C0D9FF82C0DAFF0C
:103A1800200EDE18D8B402D0D3D600D000018D51C4
:103A28000001D8B40AD00001941F931F921F916D12
:103A3800000E92239323942300D084C0D9FF85C01D
:103A4800DAFF91C0DEFF92C0DEFF93C0DEFF94C0B4
:103A5800DEFF000E12001200010E01013C6F0A0E7B
:103A68000001756F010E0001766F000E0001786F7E
:103A7800320E776F83EC38F0000E0001756F010E7F
:103A88000001766F000E0001786F0A0E776F83ECE5
:103A980038F0FDEC31F00009D8B4120001D0120062
:103AA8000A0E00018B6F010E00018C6F1E0E0001C3
:103AB8008D6FFD0E00018E6F3BC08FF03CC090F003
:103AC8003DC091F03EC092F03DEC12F00A0E0001AC
:103AD800766F010E0001776FB0EC38F0500E0001E0
:103AE800756FC30E766F000E776F000E786F34EC2B
:103AF80039F0000E0001756F090E0001766FF40EA3
:103B08000001776FFF0E0001786F7BEC33F000093E
:103B1800D8A404D0000E01013C6F00D0000E0001B3
:103B2800756F090E0001766F2DC077F00001786B74
:103B380083EC38F0000E2D6E01013C510101D8B420
:103B480028D08B0E0001766FFF0E0001776FB0EC66
:103B580038F0500E0001756FC30E766F000E776F48
:103B6800000E786F34EC39F0000E0001756F090E05
:103B78000001766FF40E0001776FFF0E0001786F79
:103B88007BEC33F00009D8A404D0000E01013C6F8F
:103B980000D001013C510101D8B428D0A80E000181
:103BA800766FFD0E0001776FB0EC38F0500E000113
:103BB800756FC30E766F000E776F000E786F34EC5A
:103BC80039F0000E0001756F090E0001766FF40ED2
:103BD8000001776FFF0E0001786F7BEC33F000096E
:103BE800D8A404D0000E01013C6F00D0000E0001E3
:103BF800756F090E0001766F2DC077F00001786BA4
:103C080083EC38F0000E2D6E01013C510101D8B44F
:103C180028D09F0E0001766FFF0E0001776FB0EC81
:103C280038F0500E0001756FC30E766F000E776F77
:103C3800000E786F34EC39F0000E0001756F090E34
:103C48000001766FF40E0001776FFF0E0001786FA8
:103C58007BEC33F00009D8A404D0000E01013C6FBE
:103C680000D0000E0001756F090E0001766F2DC09F
:103C780077F00001786B83EC38F0000E2D6E0101AF
:103C88003C510101D8B428D0BF0E0001766FFF0E59
:103C98000001776FB0EC38F0500E0001756FC30E5D
:103CA800766F000E776F000E786F34EC39F0000EE7
:103CB8000001756F090E0001766FF40E0001776F31
:103CC800FF0E0001786F7BEC33F00009D8A404D014
:103CD800000E01013C6F00D0000E0001756F090E47
:103CE8000001766F2DC077F00001786B83EC38F017
:103CF800000E2D6E01013C510101D8B428D0BF0E31
:103D08000001766FFF0E0001776FB0EC38F0500EAF
:103D18000001756FC30E766F000E776F000E786F17
:103D280034EC39F0000E0001756F090E0001766F52
:103D3800F40E0001776FFF0E0001786F7BEC33F013
:103D48000009D8A404D0000E01013C6F00D0000E79
:103D58000001756F090E0001766F2DC077F0000124
:103D6800786B83EC38F0000E2D6E01013C51010197
:103D7800D8B43ED0D60E0001766FFF0E0001776FE3
:103D8800B0EC38F0500E0001756FC30E766F000E60
:103D9800776F000E786F34EC39F00A0E00018B6FE4
:103DA800010E00018C6FB20E00018D6FFC0E000138
:103DB8008E6F3BC08FF03CC090F03DC091F03EC08C
:103DC80092F03DEC12F0000E0001756F090E000133
:103DD800766F0A0E0001776F010E0001786F7BEC99
:103DE80033F00009D8A404D0000E01013C6F00D0C4
:103DF800000E0001756F090E0001766F2DC077F077
:103E08000001786B83EC38F0000E2D6ED10E0001A6
:103E1800766FFF0E0001776FB0EC38F0500E00019E
:103E2800756FC30E766F000E776F000E786F34ECE7
:103E380039F0000E0001756F090E0001766FF00E63
:103E48000001776FFF0E0001786F7BEC33F00009FB
:103E5800D8A404D0000E01013C6F00D0000E000170
:103E6800756F090E0001766F2DC077F00001786B31
:103E780083EC38F0000E2D6E12001200000E266E34
:103E8800480E286E000E226E000E236E000E246E61
:103E9800000E256E000E276E470E276401D041D014
:103EA8002750020DF3501B24D96EF4501C20DA6EF3
:103EB800C80EDE5CAF0EDE58D8A011D02750020D18
:103EC800F3501B24D96EF4501C20DA6E510EDE5CC0
:103ED800C30EDE58D8B003D0020E120020D02750EF
:103EE800020DF3501B24D96EF4501C20DA6EA00E7C
:103EF800DE5C0F0EDE58D8A012D02750020DF3500A
:103F08001B24D96EF4501C20DA6E890EDE5C130E69
:103F1800DE58D8B004D027C028F003D000D0272A14
:103F2800BBD72850206E216A201E211E204A212A34
:103F3800480E2026000E212221BE06D0215006E17F
:103F4800480E205CD8B002D0000E1200282A285053
:103F5800020DF3501B24D96EF4501C20DA6E9D0E0E
:103F6800DE5C030EDE58D8A067D02850020DF3504F
:103F78001B24D96EF4501C20DA6EE30EDE5C040EAE
:103F8800DE58D8B059D02850020DF3501B24D96EF2
:103F9800F4501C20DA6E010EDB5004E17D0EDE5C6D
:103FA800D8A069D02850020DF3501B24D96EF450C4
:103FB8001C20DA6E590EDE5C020EDE58D8B05BD0DB
:103FC8002850020DF3501B24D96EF4501C20DA6ED1
:103FD800010EDB5004E17D0EDE5CD8A04CD02850E9
:103FE800020DF3501B24D96EF4501C20DA6E590EC2
:103FF800DE5C020EDE58D8B03ED02850020DF350D9
:104008001B24D96EF4501C20DA6EC80EDE5CAF0E8D
:10401800DE58D8A030D02850020DF3501B24D96E9A
:10402800F4501C20DA6E510EDE5CC30EDE58D8B098
:1040380022D0020E12001FD02850020DF3501B246C
:10404800D96EF4501C20DA6ED60EDE5C060EDE58F1
:10405800D8A00ED02850020DF3501B24D96EF4506E
:104068001C20DA6EBF0EDE5C0A0EDE58D8A003D024
:10407800000E120000D0282A28C027F0470E276417
:1040880001D0CAD02850020DF3501B24D96EF45029
:104098001C20DA6E010EDB5004E17D0EDE5CD8A038
:1040A80024D02850020DF3501B24D96EF4501C2044
:1040B800DA6E590EDE5C020EDE58D8B016D02650E5
:1040C800D8A402D0010E40D0000E266ED890223619
:1040D8002336243625361F50D8A49BD0010E22261D
:1040E800000E23222422252294D02850020DF350BA
:1040F8001B24D96EF4501C20DA6EBC0EDE5C020E56
:10410800DE58D8A026D02850020DF3501B24D96EB3
:10411800F4501C20DA6EB70EDE5C030EDE58D8B001
:1041280018D02650D8B412D0D89022362336243648
:1041380025361F50D8B407D0010E2226000E2322A0
:104148002422252200D0000E266E63D0000E120015
:1041580060D02850020DF3501B24D96EF4501C2057
:10416800DA6EDE50DE10D8A412D02604D8A40FD000
:104178001DC0D9FF1EC0DAFF22C0DEFF23C0DEFF4C
:1041880024C0DEFF25C0DEFF1FD0120042D0285019
:10419800020DF3501B24D96EF4501C20DA6E380E31
:1041A800DE5C4A0EDE58D8A012D02850020DF3501B
:1041B8001B24D96EF4501C20DA6E090EDE5C520EF8
:1041C800DE58D8B004D0D4D7010E120022D028501F
:1041D800020DF3501B24D96EF4501C20DA6EC80E61
:1041E800DE5CAF0EDE58D8A011D02850020DF35077
:1041F8001B24D96EF4501C20DA6E510EDE5CC30EFF
:10420800DE58D8B003D0020E120003D0000E120000
:1042180000D0282A272A32D7000E120012000001E7
:10422800806F21D1BD0E00017B6F040E00017C6FF1
:10423800010E00017D6F0C0E00017E6F080E00015B
:104248007F6F8FEC3AF01200C90E00017B6F040EED
:1042580000017C6F010E00017D6F0C0E00017E6F66
:10426800080E00017F6F8FEC3AF01200D50E0001A6
:104278007B6F040E00017C6F010E00017D6F0C0E38
:1042880000017E6F080E00017F6F8FEC3AF012007C
:104298000001C4510001D8B415D0000E00017B6F95
:1042A800040E00017C6F020E00017D6F100E0001EC
:1042B8007E6F080E00017F6F8FEC3AF0000E000150
:1042C800C46F1200100E00017B6F040E00017C6F9A
:1042D800020E00017D6F100E00017E6F080E0001B6
:1042E8007F6F8FEC3AF0010E0001C46F12000001DD
:1042F800C5510001D8B415D0200E00017B6F040E03
:1043080000017C6F020E00017D6F100E00017E6FB0
:10431800080E00017F6F8FEC3AF0000E0001C56FA8
:104328001200300E00017B6F040E00017C6F020E3C
:1043380000017D6F100E00017E6F080E00017F6F77
:104348008FEC3AF0010E0001C56F12000001C65152
:104358000001D8B415D0500E00017B6F040E000187
:104368007C6F020E00017D6F100E00017E6F080E3B
:1043780000017F6F8FEC3AF0000E0001C66F12004B
:10438800400E00017B6F040E00017C6F020E0001DD
:104398007D6F100E00017E6F080E00017F6F8FEC9D
:1043A8003AF0010E0001C66F12000001C75100016A
:1043B800D8B415D0700E00017B6F040E00017C6F1D
:1043C800020E00017D6F100E00017E6F080E0001C5
:1043D8007F6F8FEC3AF0000E0001C76F1200600E7D
:1043E80000017B6F040E00017C6F020E00017D6FDF
:1043F800100E00017E6F080E00017F6F8FEC3AF0FF
:10440800010E0001C76F12000001C8510001D8B4A5
:1044180015D0800E00017B6F040E00017C6F020E28
:1044280000017D6F100E00017E6F080E00017F6F86
:104438008FEC3AF0000E0001C86F1200E20E000186
:104448007B6F050E00017C6F020E00017D6F100E60
:1044580000017E6F080E00017F6F8FEC3AF0010EAD
:104468000001C86F120000018051000AD8B4DAD6E2
:10447800010AD8B4E9D6030AD8B4F8D6010AD8B4E0
:1044880007D7070AD8B433D7010AD8B45FD7030AC5
:10449800D8B48BD7010AD8A41200B6D712007FC0AF
:1044A80083F00001846B856B00017E350001833742
:1044B80001E38481000183510001886F82C083F089
:1044C8000001846B856B000181350001833701E3AE
:1044D8008481000183510001876F00018851000128
:1044E800D8B411D0000187510001885DD8B012D02E
:1044F800000188510008000187250001836F180E0C
:104508000001836507D080C07DF081C07EF082C045
:104518007FF01200000187510001D8B411D00001CA
:1045280088510001875DD8B012D00001875100087A
:10453800000188250001836F180E0001836507D0EC
:104548007DC07DF07EC07EF07FC07FF01200060E39
:104558000001866F00017FAF03D00001868F00D075
:10456800000182AF02D00001868D00017E8FFF0E10
:1045780000017D17FF0E00017E17000E00017F1756
:104588000001818FFF0E00018017FF0E00018117C7
:10459800000E00018217000187510001885DD8B024
:1045A80028D00001D89080378137823700018707EB
:1045B8000001885100018719D8B413D0000186077B
:1045C80086C083F0070E00018317D8B40AD0E9D754
:1045D80008D00001D8907F337E337D330001882BCB
:1045E80000D00001875100018819D8B430D0F1D724
:1045F8002ED0000188510001875DD8B028D0000175
:10460800D8907D377E377F370001880700018851B1
:1046180000018719D8B413D00001860786C083F03B
:10462800070E00018317D8B40AD0E9D708D00001D3
:10463800D8908233813380330001872B00D000016A
:10464800875100018819D8B402D0F1D700D00001F1
:1046580086AF12D0FF0E00017D1BFF0E00017E1BEE
:10466800FF0E00017F1B010E00017D27000E0001D7
:104678007E23000E00017F23000186AD13D0FF0EBC
:104688000001801BFF0E0001811BFF0E0001821B31
:10469800010E00018027000E00018123000E000199
:1046A800822300D0000E0001866F00017D510001B9
:1046B800802700017E510001812300017F51000104
:1046C8008223000182AF16D0FF0E0001801BFF0E6F
:1046D8000001811BFF0E0001821B010E00018027D3
:1046E800000E00018123000E00018223010E00014B
:1046F800866F00D080C075F081C076F082C077F0F8
:1047080088C078F086C079F09DEC2CF075C07DF0FB
:1047180076C07EF077C07FF012001200000E000114
:10472800BD6FB4C0D9FFB5C0DAFF020EDE18D8B429
:1047380007D0B4C0D9FFB5C0DAFFDE04D8A4ECD0E6
:10474800B6C079F0B7C07AF0B8C07BF0B9C07CF0D9
:10475800D30E00017D6F000E00017E6FD40E0001A4
:104768007F6F000E0001806FD4EC33F0F1EC3BF06A
:104778000009D8B455D0B6C001F7B7C002F7B8C021
:1047880003F7B9C004F7ADEC39F00009D8B424D068
:10479800000E0001BE6F090E0001BE6501D0BCD03D
:1047A8008B84500E0001756FC30E766F000E776F05
:1047B800000E786F34EC39F08B94500E0001756F51
:1047C800C30E766F000E776F000E786F34EC39F0F9
:1047D8000001BE2BE0D7A0D0000E0001BE6F090E6D
:1047E8000001BE6501D098D08B82500E0001756F14
:1047F800C30E766F000E776F000E786F34EC39F0C9
:104808008B92500E0001756FC30E766F000E776F96
:10481800000E786F34EC39F00001BE2BE0D77CD065
:104828000001B6510701011921E10001B751070143
:1048380002191CE10001B8510701031917E1000131
:10484800B95107010419D8A411D0B4C0D9FFB5C013
:10485800DAFF020EDE18D8B48B828B845FEC39F055
:1048680013EC21F0010E0001BD6F4CD0000E0001C9
:10487800BE6F130E0001BE6501D044D00001BE51C9
:10488800020D2E0EF324D96E070EF420DA6E000105
:10489800D351DE18D8A432D00001BE51020D000E4B
:1048A8000001BA6F070E0001BB6F2E0E0001BA2778
:1048B800000EBB23F3500001BA27F4500001BB23BC
:1048C800010E0001BA25D96E000E0001BB21DA6E77
:1048D8000001D451DE18D8A411D0B4C0D9FFB5C096
:1048E800DAFF020EDE18D8B48B828B840001BE5129
:1048F80013EC21F0010E0001BD6F00D00001BE2BAA
:10490800B8D700D00001BD510001D8A402D08B82D5
:1049180000D030EC3CF000D0B4C0D9FFB5C0DAFF0D
:10492800000EDF6E0DEC3CF02F6EF2907D88F28663
:104938001200000E0001AC6F000EAD6F000EAE6FDE
:10494800000EAF6F050E0001B16F0101F6A10DD089
:10495800000E00017E6F0101005172EC3AF000096F
:10496800D8A403D00001AC8100D00101F6A313D074
:1049780001C199F002C19AF003C19BF004C19CF0F7
:10498800010E00019D6F52EC2FF00009D8A403D04E
:104998000001AC8300D00101F6A547D0000E00014C
:1049A800B26F130E0001B26501D03FD0000E0001B6
:1049B800B36F010E0001B36501D034D00001B251CC
:1049C800020D000E0001AA6F010E0001AB6FF3503B
:1049D8000001AA27F4500001AB230001B351010DD7
:1049E800F3500001AA27F4500001AB23050E000183
:1049F800AA25D96E000E0001AB21DA6EDF50000146
:104A0800B06F0001B12BB10500017E6F0001B051FC
:104A180072EC3AF00009D8A402D00001AC8500017C
:104A2800B32BC7D70001B22BBCD70101F6A70DD015
:104A38002D0E00017E6F01012D5172EC3AF0000934
:104A4800D8A403D00001AC8700D00101F6A94AD050
:104A58002F0E0001B16F000E0001B26F130E00019E
:104A6800B26501D03FD0000E0001B36F010E000106
:104A7800B36501D034D00001B251020D000E00011F
:104A8800AA6F010E0001AB6FF3500001AA27F45082
:104A98000001AB230001B351010DF3500001AA2717
:104AA800F4500001AB232E0E0001AA25D96E000E8A
:104AB8000001AB21DA6EDF500001B06F0001B12BAD
:104AC800B10500017E6F0001B05172EC3AF00009A7
:104AD800D8A402D00001AC890001B32BC7D70001CC
:104AE800B22BBCD7ACC000F1ADC001F1AEC002F131
:104AF800AFC003F11200000E0101656F000E010145
:104B0800666FC80E0101646F000E0001756F010E1B
:104B18000001766F000E0001786F640E776F83ECEA
:104B280038F032D001016551010DF35000018425A0
:104B3800D96EF45000018521DA6E2F0EDF640FD094
:104B480001016551010DF35000018425D96EF4501F
:104B580000018521DA6E390EDF6410D000D0010122
:104B68006551010DF35000018425D96EF450000100
:104B78008521DA6E2D0EDE18D8A403D065C164F144
:104B880011D00101652B00D001016551010DF350D1
:104B980000018425D96EF45000018521DA6EDF50BA
:104BA800D8A4C0D7C80E01016419D8A402D0000E39
:104BB8001200000E0101666F19D001016651010D46
:104BC800F35000018425D96EF45000018521DA6E76
:104BD80001016651010D000EF324E16E010EF4206F
:104BE800E26EDFCFE7FF0101662B00D001016451BF
:104BF8000101665DD8A0E1D701016451010D000EE5
:104C0800F324D96E010EF420DA6E3D0EDF6E64C116
:104C180066F1620E0101666501D032D0010166516C
:104C2800010DF35000018425D96EF450000185214F
:104C3800DA6E010166510001866F876B010E000173
:104C48008627000E8723000E00018625E16E010EDF
:104C580000018721E26EDFCFE7FF01016651010DF8
:104C6800F35000018425D96EF45000018521DA6ED5
:104C7800DF50D8B405D001D003D00101662BC9D7C5
:104C8800000E00017D6F010E00017E6F84C07FF071
:104C980085C080F0640E0001816F000E0001826FF4
:104CA800F9EC35F0010E120012004EEC2BF023EE59
:104CB80000F0F50EEBCFDBFFE806FCE200C300F7DF
:104CC80001C301F702C302F703C303F704C304F7E0
:104CD8002DC32DF7000E0301F66F4FD052D0000EF2
:104CE8000301F76F010E0301F76501D044D00301FA
:104CF800F651020D000E00019B6F030E00019C6F20
:104D0800F35000019B27F45000019C230301F75145
:104D1800010DF35000019B27F45000019C23050E60
:104D280000019B25D96E000E00019C21DA6E03015B
:104D3800F651020D000E00019D6F070E00019E6FD7
:104D4800050E00019D27000E9E23F35000019D27AC
:104D5800F45000019E230301F751010DF3500001A7
:104D68009D25E16EF45000019E21E26EDFCFE7FF42
:104D78000301F72BB7D70301F62B130E0301F665D2
:104D8800AED72DC32DF7000E0301F66F130E0301E6
:104D9800F66502D012001200000E0301F76F010E33
:104DA8000301F76501D044D00301F651020D000E4E
:104DB80000019B6F030E00019C6FF35000019B27BD
:104DC800F45000019C230301F751010DF350000139
:104DD8009B27F45000019C232E0E00019B25D96EC1
:104DE800000E00019C21DA6E0301F651020D000E3F
:104DF80000019D6F070E00019E6F2E0E00019D277A
:104E0800000E9E23F35000019D27F45000019E23BD
:104E18000301F751010DF35000019D25E16EF45097
:104E280000019E21E26EDFCFE7FF0301F72BB7D722
:104E38000301F62B130E0301F665AED7120012001C
:104E4800000E0001C36F000E0001C16F000E0001CB
:104E5800C26F5FEC3CF0D0EC39F083EC36F0000E1A
:104E68000001C36F090E0001C36501D01DD08B82FC
:104E78008B94500E0001756FC30E766F000E776F1E
:104E8800000E786F34EC39F08B928B84500E000151
:104E9800756FC30E766F000E776F000E786F34EC67
:104EA80039F00001C32BDED78B94C4EC32F09EC0DE
:104EB800FDF29FC0FEF2A0C0FFF2FDC275F0FEC277
:104EC80076F0FFC277F0CD0E0001786F6C0E00010E
:104ED800796F400E00017A6F96EC31F00001D8A08E
:104EE80014D0000E0001756FF00E0001766F410EB0
:104EF8000001776FFDC278F0FEC279F0FFC27AF048
:104F080096EC31F00001D8B002D000F000D0D2C049
:104F1800C1F0CCC0C2F00001C1510001D8B411D019
:104F2800D20E0001B46F000E0001B56FCEC0B6F00E
:104F3800CFC0B7F0D0C0B8F0D1C0B9F092EC23F030
:104F480000D00001C205D8A4E2D700F0F6EC00F0CA
:104F58000001CD51D8A404D00001CC51D8B41ED042
:104F6800000E0001756F060E0001766FCDC077F058
:104F78000001786B83EC38F0000E0001CD6F000E55
:104F88000001CC6FD60E0001766F000E0001776F1E
:104F9800B0EC38F03E0E74EC3BF000D00001D2517A
:104FA800D8B404D0000E0001D26F00D00DEC3CF054
:104FB8002F6EF2907D88F286AAD7F4EF00F00001F8
:104FC800986F000E0001906F000E916F000E926FA7
:104FD800000E936F98C075F00001766B54EC3AF0B0
:104FE800000175510001946F010E00019825000120
:104FF800756F0001766B000E762354EC3AF00001D1
:1050080075510001956F020E000198250001756F1A
:105018000001766B000E762354EC3AF000017551CE
:105028000001966F030E000198250001756F0001BD
:10503800766B000E762354EC3AF0000175510001AE
:10504800976F96C07CF000017D6B7E6B7F6B7EC096
:105058007FF07DC07EF07CC07DF000017C6B95C048
:1050680080F00001816B826B836B81C083F080C00C
:1050780082F00001816B806B94C084F00001856B25
:10508800866B876B84C087F00001866B856B846BA9
:1050980000018051000184250001886F00018151C1
:1050A800000185210001896F0001825100018621DC
:1050B80000018A6F000183510001872100018B6F75
:1050C80000017C510001882500018C6F00017D5191
:1050D8000001892100018D6F00017E5100018A21A4
:1050E80000018E6F00017F5100018B2100018F6F3D
:1050F8000001975100018C250001906F000E0001FE
:105108008D210001916F000E00018E210001926F28
:10511800000E00018F210001936F90C078F091C0BC
:1051280079F092C07AF093C07BF01200120091C01F
:1051380095F00001966B976B00019035000195374B
:1051480001E39681000195510001986F0001985183
:10515800D8A40AD0000E00018F6F000E0001906FD6
:10516800000E0001916F120094C095F00001966B3B
:10517800976B000193350001953701E39681000193
:10518800955100019D6F00019D51D8A40AD0000ED1
:1051980000018F6F000E0001906F000E0001916FEB
:1051A800120000019D517B0F0001982791C09DF0CE
:1051B8000001945100019D1B800E00019D17000104
:1051C800908F0001938FFF0E00019217FF0E0001D0
:1051D8009317000E00019417000E0001996F000E3E
:1051E80000019A6F000E00019B6F070E00019C6F73
:1051F80000D000018FA10DD0000192510001992724
:105208000001935100019A230001945100019B234E
:1052180000D00001D890913390338F330001D8909B
:1052280092379337943700019C2FE3D700D0090EAB
:1052380000019C6F00D000018FA10DD00001925198
:10524800000199270001935100019A23000194510C
:1052580000019B2300D00001D890913390338F3305
:105268000001D8909B339A33993300019C2FE3D7E0
:1052780000D099C075F09AC076F09BC077F098C0BE
:1052880078F09DC079F09DEC2CF075C08FF076C059
:1052980090F077C091F01200120009EE00F010EEC5
:1052A800FFF0EE6AE550E150FCE1E250FAE108EE69
:1052B80000F0900EEE6AE806FDE107EE00F0F60E4B
:1052C800EE6AE806FDE106EE00F010EEFFF0EE6A89
:1052D800E550E150FCE1E250FAE104EEE1F0140E91
:1052E800EE6AE806FDE10201FF6BFE6BFD6B00EE66
:1052F800C4F0110EEE6AE806FDE100EE29F0120E88
:10530800EE6AE806FDE18E0EF66E750EF76E000E7B
:10531800F86E08EE90F010EE32F00900F5CFEEFFCF
:10532800E550E150FAE19E0EF66E5F0EF76E000E44
:10533800F86E05EE00F010EEF2F00900F5CFEEFF82
:10534800E550E150FAE1900EF66E600EF76E000E31
:10535800F86E04EE00F010EEE1F00900F5CFEEFF74
:10536800E550E150FAE1B60EF66E780EF76E000ED3
:10537800F86E02EEF9F010EE04F00900F5CFEEFF3A
:10538800E550E150FAE1B20EF66E780EF76E000EB7
:10539800F86E01EEFAF010EE04F00900F5CFEEFF1A
:1053A800E550E150FAE1AE0EF66E780EF76E000E9B
:1053B800F86E00EED5F010EE04F00900F5CFEEFF20
:1053C800E550E150FAE19E0EF66E780EF76E000E8B
:1053D800F86E00EE3BF010EE09F00900F5CFEEFF95
:1053E800E550E150FAE1000EF86E000124EF27F0D5
:1053F80082C086F00001876B886B0001813500014F
:10540800863701E387810001865100018D6F000115
:105418008D51D8A40AD0000E0001806F000E000143
:10542800816F000E0001826F120085C086F00001B6
:10543800876B886B000184350001863701E387811B
:105448000001865100018E6F00018E51D8A40AD048
:10545800000E0001806F000E0001816F000E000138
:10546800826F1200000E00018A6F000E00018B6F20
:10547800000E00018C6F00018E51890F00018D5FB5
:1054880082C08EF00001855100018E1B800E000144
:105498008E170001818FFF0E00018017FF0E00019B
:1054A8008117000E000182170001848FFF0E000192
:1054B8008317FF0E00018417000E00018517180ED0
:1054C8000001896F00D00001D8908A378B378C375C
:1054D800000183510001805D000184510001815960
:1054E8000001855100018259D8A00ED000018351D6
:1054F8000001805F000184510001815B000185513A
:105508000001825B00018A810001D89080378137D1
:1055180082370001892FD7D700D08AC075F08BC099
:1055280076F08CC077F08DC078F08EC079F09DEC65
:105538002CF075C080F076C081F077C082F0120040
:1055480012008BC08DF000018E6B8F6B00018A35C5
:1055580000018D3701E38E8100018D510001976FA5
:1055680000019751D8A40AD0000E0001896F000EDF
:105578008A6F000E8B6F000E8C6F1200170E0001E1
:105588008D6F89C08EF08AC08FF08BC090F00001BB
:105598008D290001916F05D00001D89090338F3389
:1055A8008E330001912FF8D700018E510001926FC0
:1055B80000018A8FFF0E00018917FF0E00018A176C
:1055C800000E00018B17000189510001936F000143
:1055D8008A510001946F00018B510001956F000101
:1055E800966B8E0E0001975F000197AF1BD00001EC
:1055F8009751800A8F0FD8B00BD0000E0001896F29
:10560800000E8A6F000E8B6F000E8C6F120000D098
:105618000001D89096339533943393330001973F24
:10562800F7D71FD0170E0001976514D0000E0001A0
:10563800896F000E8A6F000E8B6F000E8C6F120040
:1056480009D00001D89093379437953796370001E1
:10565800970700D0000197510001D8B402D0F1D7C4
:1056680000D0000192510001D8B40AD00001961F61
:10567800951F941F936D000E94239523962300D0B5
:1056880093C089F094C08AF095C08BF096C08CF0D6
:1056980012001200050E0201006F000E3CEC3BF0F8
:1056A800000178510201016F010EE3EC27F078C088
:1056B80002F279C003F27AC004F27BC005F2000E50
:1056C8000201F76F130E0201F76501D037D0000E03
:1056D8000201F86F010E0201F86501D02CD0020119
:1056E800F751020D010E0001996F020E00019A6F29
:1056F800F35000019927F45000019A230201F85150
:10570800010DF35000019927F45000019A23050E6A
:1057180000019925D96E000E00019A21DA6E020166
:1057280000513CEC3BF000017851DF6E0201002B88
:105738000201F82BCFD70201F72BC4D72D0E3CEC72
:105748003BF00001785102012E6F2F0E0201006F0D
:10575800000E0201F76F130E0201F76501D037D072
:10576800000E0201F86F010E0201F86501D02CD07D
:105778000201F751020D010E0001996F020E00019E
:105788009A6FF35000019927F45000019A230201FF
:10579800F851010DF35000019927F45000019A23A4
:1057A8002E0E00019925D96E000E00019A21DA6E9D
:1057B800020100513CEC3BF000017851DF6E020120
:1057C800002B0201F82BCFD70201F72BC4D722EE0A
:1057D80001F001EE00F0F50EDBCFEBFFE806FCE28E
:1057E800120012000001A16F0001A15120EC33F05A
:1057F80000017D6F00017D510001916F926B936BE9
:10580800946B0001A151FF0A20EC33F000017D6F79
:1058180000017D510001956F966B976B986B0001A5
:10582800795120EC33F000017D6F00017D510001BA
:10583800996F9A6B9B6B9C6B00017951FF0A20EC66
:1058480033F000017D6F00017D5100019D6F9E6B5B
:105858009F6BA06B99C07EF09AC07FF09BC080F0D0
:1058680000017D6B95C081F096C082F097C083F0EF
:1058780098C084F082C084F081C083F00001826BFC
:10588800816B91C085F092C086F093C087F094C078
:1058980088F085C088F00001876B866B856B0001F6
:1058A8008151000185250001896F000182510001A5
:1058B800862100018A6F00018351000187210001C0
:1058C8008B6F000184510001882100018C6F000159
:1058D8007D510001892500018D6F00017E51000175
:1058E8008A2100018E6F00017F5100018B21000188
:1058F8008F6F0001805100018C210001906F000121
:105908009D5100018D250001796F00019E51000114
:105918008E2100017A6F00019F5100018F21000143
:105928007B6F0001A0510001902100017C6F1200E3
:105938001200000178510001D8B408D00001755157
:105948000001761100017711D8A413D0000E0001D0
:10595800756F000E0001766F000E0001776F120060
:1059680008D00001782B0001D8907733763375334F
:1059780000D0000E0001751500017A6F000E0001BD
:10598800761500017B6FFE0E0001771500017C6F14
:1059980000017A5100017B1100017C11D8B413D0A9
:1059A800E0D711D00001782B010E00017527000EF9
:1059B80000017623000E000177230001D890773389
:1059C8007633753300D0000E0001751500017A6F2B
:1059D800000E0001761500017B6FFF0E00017715A0
:1059E80000017C6F00017A5100017B1100017C11DC
:1059F800D8B40AD0D7D708D0000178070001D890CA
:105A080075377637773700D0000176BF05D0020E9C
:105A180000017861F1D700D0000178B103D000010E
:105A2800769F00D00001D8907833000178510001AA
:105A38007713000179510001D8B403D00001778FA2
:105A480000D075C075F076C076F077C077F0120098
:105A58001200010E00017B6F000E00017C6F01D067
:105A68002BD075C0D9FF76C0DAFF2C0EDE18D8B45B
:105A780009D075C0D9FF76C0DAFFDF50D8B402D09C
:105A88001BD000D075C0D9FF76C0DAFFDF50D8A48C
:105A980003D0010E120015D075C0D9FF76C0DAFF09
:105AA8002C0EDE18D8B40DD00001775100017B5DB3
:105AB800D8B007D000017B2B0001754B762BD1D7CE
:105AC80000D075C0D9FF76C0DAFFDF50D8A402D065
:105AD800010E12000001754B762B75C0D9FF76C0F8
