:04000000E5EF00F038
:10000800FACF32F0FBCF33F0E9CF34F0E4EF23F04E
:10001800D8CF0EF0E8CF0FF0E0CF10F0FACF11F004
:10002800FBCF12F0E9CF13F0EACF14F0E1CF15F0CF
:10003800E2CF16F0D9CF17F0DACF18F0F3CF19F0D6
:10004800F4CF1AF0F6CF1BF0F7CF1CF0F8CF1DF065
:10005800F5CF1EF0000E1F6EF29C9EAA7FD0F0EC2A
:1000680051F01F6E6CEC52F00009D8A40FD0630E4B
:10007800436072D04350010D180EF324D96E030E5D
:10008800F420DA6E1FC0DFFF432A66D00D0E1F185A
:10009800D8B44FD00A0E1F18D8B44BD07F0E1F18F3
:1000A800D8B404D0080E1F18D8A41FD00201FF51DD
:1000B800D8B41BD00201FF298CEC51F00201FF07D4
:1000C8000201FF51010D000EF324D96E040EF42035
:1000D800DA6E000EDF6E3E0EF2EC50F0000E0B6E84
:1000E800040E0C6EA0EC51F037D0620E0201FF61D5
:1000F8001BD00001F951D8A42FD01F50CEEC51F0DD
:100108000009D8B429D01F504DEC51F00201FF511D
:10011800010D000EF324D96E040EF420DA6E1FC010
:10012800DFFF0201FF2B18D09D9A010E0101FF6F1E
:1001380013D00201FF51D8B40FD00001F951D8A44F
:100148000BD09D9A050E0C6EF20E0D6EDAEC50F087
:10015800010E0001F96F00D09E9A0FD09EA00BD01F
:10016800522A030E5218D8A404D08B948B92CD90A7
:1001780000D09E9002D000F000D0F28C1EC0F5FF97
:100188001DC0F8FF1CC0F7FF1BC0F6FF1AC0F4FF24
:1001980019C0F3FF18C0DAFF17C0D9FF16C0E2FF75
:1001A80015C0E1FF14C0EAFF13C0E9FF12C0FBFF4E
:1001B80011C0FAFF10C0E0FF0FC0E8FF0EC0D8FF63
:1001C800100010EF48F0010E02018A6F000E0201C4
:1001D800866F000E876F000E886F000E896F000E05
:1001E80002018D6F000E02018E6F000E02018F6FEB
:1001F800000E906F000E916F000E926F000E0201BC
:100208007B6F000E7C6F000E7D6F000E7E6F000E00
:100218000201856F000E0201846F000E0201836FD8
:10022800000E02017A6F000E02017F6F000E806FD0
:10023800000E816F000E826F0C0E0001636F020EBC
:100248000001646F000E0001666F640E656F47EC75
:100258004EF0700E0001636F020E0001646F000E15
:100268000001666F0A0E656F47EC4EF0F5C066F048
:10027800F6C067F0BB0E0001686FFF0E0001696FE2
:10028800D4EC38F00009D8B483D0F5C066F0F6C0D5
:1002980067F08C0E0001686FF10E0001696F6CEC5D
:1002A8004BF00009D8B412D0C70E00016B6FF10EE5
:1002B80000016C6F010E00016D6F0C0E00016E6F76
:1002C800080E00016F6FC7EC4FF054D0F5C066F010
:1002D800F6C067F09B0E0001686FF10E0001696FB0
:1002E8006CEC4BF00009D8B412D0D30E00016B6F40
:1002F800F10E00016C6F010E00016D6F0C0E000114
:100308006E6F080E00016F6FC7EC4FF033D0F5C069
:1003180066F0F6C067F0AA0E0001686FF10E0001E2
:10032800696F6CEC4BF00009D8B412D0DF0E0001F5
:100338006B6FF10E00016C6F010E00016D6F0C0EFA
:1003480000016E6F080E00016F6FC7EC4FF012D0FE
:10035800B90E00016E6FF10E00016F6FA9EC50F03D
:10036800050E00016E6FF20E00016F6FA9EC50F0E0
:10037800120000D002018A510201D8B41200650EA1
:100388000001706FFA0E0001716F85EC4FF01200DA
:10039800F5C066F0F6C067F0C10E0001686FFF0E89
:1003A8000001696FD4EC38F00009D8B46AD1F5C0FF
:1003B80066F0F6C067F0C80E0001686FF00E000125
:1003C800696F6CEC4BF00009D8B412D0FC0E000138
:1003D8006B6FF00E00016C6F020E00016D6F100E56
:1003E80000016E6F080E00016F6FC7EC4FF03BD134
:1003F800F5C066F0F6C067F0A20E0001686FF00E57
:100408000001696F6CEC4BF00009D8B412D0EC0E07
:1004180000016B6FF00E00016C6F020E00016D6F32
:10042800100E00016E6F080E00016F6FC7EC4FF0E1
:100438001AD1F5C066F0F6C067F0DA0E0001686FF1
:10044800F00E0001696F6CEC4BF00009D8B412D0C3
:100458001C0E00016B6FF10E00016C6F020E0001A3
:100468006D6F100E00016E6F080E00016F6FC7EC04
:100478004FF0F9D0F5C066F0F6C067F0B50E000190
:10048800686FF00E0001696F6CEC4BF00009D8B48E
:1004980012D00C0E00016B6FF10E00016C6F020E92
:1004A80000016D6F100E00016E6F080E00016F6F76
:1004B800C7EC4FF0D8D0F5C066F0F6C067F0660E0E
:1004C8000001686FF00E0001696F6CEC4BF00009D9
:1004D800D8B412D03C0E00016B6FF10E00016C6FA6
:1004E800020E00016D6F100E00016E6F080E000104
:1004F8006F6FC7EC4FF0B7D0F5C066F0F6C067F085
:10050800270E0001686FF00E0001696F6CEC4BF06C
:100518000009D8B412D02C0E00016B6FF10E000147
:100528006C6F020E00016D6F100E00016E6F080EE9
:1005380000016F6FC7EC4FF096D0F5C066F0F6C0BB
:1005480067F07A0E0001686FF00E0001696F6CECBD
:100558004BF00009D8B412D05C0E00016B6FF10E9D
:1005680000016C6F020E00016D6F100E00016E6FBE
:10057800080E00016F6FC7EC4FF075D0F5C066F03C
:10058800F6C067F03C0E0001686FF00E0001696F5D
:100598006CEC4BF00009D8B412D04C0E00016B6F14
:1005A800F10E00016C6F020E00016D6F100E00015C
:1005B8006E6F080E00016F6FC7EC4FF054D0F5C096
:1005C80066F0F6C067F08E0E0001686FF00E00014D
:1005D800696F6CEC4BF00009D8B412D07C0E0001A6
:1005E8006B6FF10E00016C6F020E00016D6F100E43
:1005F80000016E6F080E00016F6FC7EC4FF033D02B
:10060800F5C066F0F6C067F0510E0001686FF00E95
:100618000001696F6CEC4BF00009D8B412D04C0E95
:1006280000016B6FF10E00016C6F030E00016D6F1E
:10063800100E00016E6F080E00016F6FC7EC4FF0CF
:1006480012D0B90E00016E6FF10E00016F6FA9ECA8
:1006580050F0050E00016E6FF20E00016F6FA9ECED
:1006680050F0120000D002018A510201D8B41200E1
:10067800820E0001706FFA0E0001716F85EC4FF069
:100688001200F5C066F0F6C067F0E90E0001686F69
:10069800FF0E0001696FD4EC38F00009D8B4EFD12F
:1006A800F5C06FF0F6C070F0020E0001716F8F0E8A
:1006B8000001726F020E0001736F29EC2EF0000921
:1006C800D8A4C9D0020192510201911104E102019A
:1006D8009005D8A011D0500E0001706FF90E0001DE
:1006E800716F85EC4FF0050E00016E6FF20E000180
:1006F8006F6FA9EC50F012008FC28EF2F5C06FF048
:10070800F6C070F0010E0001716F8F0E0001726F5C
:10071800020E0001736F29EC2EF00009D8A492D0C4
:10072800020192510201911104E102019005D8A041
:1007380011D06F0E0001706FF90E0001716F85EC1A
:100748004FF0050E00016E6FF20E00016F6FA9ECFD
:1007580050F012008FC28DF20C0E0001B16F020E24
:100768000001B26F8D0E0001B36FFC0E0001B46F73
:100778008DC2B5F00001B66B9CEC12F00C0E0001B6
:10078800706F020E0001716F22EC50F00C0E000128
:10079800B16F020E0001B26F780E0001B36FFC0E4C
:1007A8000001B46F8EC2B5F00001B66B9CEC12F07C
:1007B8000C0E0001706F020E0001716F22EC50F0F8
:1007C8008EC267F002018D517AEC3FF067C086F265
:1007D80068C087F269C088F26AC089F286C278F078
:1007E80087C279F088C27AF089C27BF0000E0001D6
:1007F8007C6F1EEC4BF00C0E0001B16F020E000175
:10080800B26FDA0E0001B36FFB0E0001B46F86C23F
:10081800B5F087C2B6F088C2B7F089C2B8F09CECD0
:1008280012F00C0E0001706F020E0001716F22ECC5
:1008380050F0050E00016E6FF20E00016F6FA9EC0B
:1008480050F01200300E0001706FF90E0001716F48
:1008580085EC4FF01200F5C06FF0F6C070F0010E95
:100868000001716F860E0001726F020E0001736F36
:1008780029EC2EF00009D8A48AD086C278F087C265
:1008880079F088C27AF089C27BF0000E00017C6F93
:100898001EEC4BF00C0E0001B16F020E0001B26F9E
:1008A8001D0E0001B36FFD0E0001B46F86C2B5F0D6
:1008B80087C2B6F088C2B7F089C2B8F09CEC12F0D3
:1008C8000C0E0001706F020E0001716F22EC50F0E7
:1008D80086C267F087C268F088C269F089C26AF088
:1008E8008D0E00016B6F020E00016C6F8E0E000101
:1008F8006D6F020E00016E6F83EC49F00009D8B4E9
:1009080035D00C0E0001B16F020E0001B26F910ECE
:100918000001B36FFC0E0001B46F8DC2B5F0000189
:10092800B66B9CEC12F00C0E0001706F020E000109
:10093800716F22EC50F00C0E0001B16F020E000135
:10094800B26F610E0001B36FF60E0001B46F8EC274
:10095800B5F00001B66B9CEC12F00C0E0001706F44
:10096800020E0001716F22EC50F008D06F0E0001EA
:10097800706FF80E0001716F85EC4FF0050E0001E5
:100988006E6FF20E00016F6FA9EC50F01200F5C007
:1009980063F0F6C064F0E70E0001656FFF0E00011A
:1009A800666F21EC40F00009D8A410D0050E0001B4
:1009B8006E6FF20E00016F6FA9EC50F0290E000166
:1009C800706FFA0E0001716F85EC4FF0050E000193
:1009D8006E6FF20E00016F6FA9EC50F0A70E0001C8
:1009E800706FFF0E0001716F85EC4FF0F50E00017E
:1009F800706FFC0E0001716F85EC4FF0550E000111
:100A0800706FFF0E0001716F85EC4FF04C0E000106
:100A1800706FFC0E0001716F85EC4FF0050E000140
:100A28006E6FF20E00016F6FA9EC50F0860E000198
:100A3800706FFF0E0001716F85EC4FF0CB0E000157
:100A4800706FFD0E0001716F85EC4FF0570E0001BD
:100A5800706FFF0E0001716F85EC4FF0230E0001DF
:100A6800706FFE0E0001716F85EC4FF0050E0001EE
:100A78006E6FF20E00016F6FA9EC50F01200F5C016
:100A880066F0F6C067F0060E0001686FFF0E000101
:100A9800696FD4EC38F00009D8B4C8D2F5C072F048
:100AA800F6C073F0EDEC36F00009D8B466D2000158
:100AB800F72BF5C06FF0F6C070F0010E0001716FF2
:100AC8008F0E0001726F020E0001736F29EC2EF079
:100AD8000009D8A452D202019251020191110201D7
:100AE800901104E10D0E02018F5DD8B02CD20201E5
:100AF8008F51020190110201911102019211D8B493
:100B080022D2F5C066F0F6C067F0550E0001686F96
:100B1800FD0E0001696FD4EC38F00009D8A423D188
:100B2800FE0E0201006FFF0E0201016F8FC202F27A
:100B380090C203F2D8900201023703370201005134
:100B4800020102270201015102010323DA0E020108
:100B5800046F030E0201056F050E02010427000E43
:100B68000523020102510201042702010351020177
:100B78000523010E02010425D96E000E020105218C
:100B8800DA6EDF500001676FFE0E0201066FFF0E7E
:100B98000201076F8FC208F290C209F2D8900201D1
:100BA80008370937020106510201082702010751D7
:100BB80002010923DF0E02010825D96E030E020186
:100BC8000921DA6EDF507AEC3FF067C07BF268C02B
:100BD8007CF269C07DF26AC07EF202017B2908E1DD
:100BE80002017D2902017C1102017E11D8B4A9D02D
:100BF8007BC278F07CC279F07DC27AF07EC27BF04D
:100C0800000E00017C6F1EEC4BF00C0E0001B16F62
:100C1800020E0001B26FA20E0001B36FFC0E0001BC
:100C2800B46F7BC2B5F07CC2B6F07DC2B7F07EC2AD
:100C3800B8F09CEC12F00C0E0001706F020E00016F
:100C4800716F22EC50F00C0E0001B16F020E000122
:100C5800B26F460E0001B36FF60E0001B46FFE0EC0
:100C68000201006FFF0E0201016F8FC202F290C2F3
:100C780003F2D89002010237033702010051020142
:100C880002270201015102010323DF0E020102259E
:100C9800D96E030E02010321DA6EDF500201046FE0
:100CA800020104510001B56FB66BFE0E0201056F1B
:100CB800FF0E0201066F8FC207F290C208F2D890A9
:100CC800020107370837020105510201072702010F
:100CD800065102010823DA0E0201096F030E020110
:100CE8000A6F050E02010927000E0A2302010751A7
:100CF800020109270201085102010A23010E02011B
:100D08000925D96E000E02010A21DA6EDF500201B0
:100D18000B6F02010B510001B76FB86B9CEC12F01E
:100D28000C0E0001706F020E0001716F22EC50F082
:100D3800050E00016E6FF20E00016F6FA9EC50F006
:100D48001200050E00016E6FF20E00016F6FA9EC24
:100D580050F0790E0001706FF40E0001716F85EC90
:100D68004FF012000AD1B6EC4BF00009D8B41200CB
:100D780001D0120055C067F056C068F057C069F03E
:100D880058C06AF08D0E00016B6F020E00016C6F87
:100D98008E0E00016D6F020E00016E6F83EC49F03C
:100DA800FE0E0201006FFF0E0201016F8FC202F2F8
:100DB80090C203F2D89002010237033702010051B2
:100DC800020102270201015102010323DF0E020181
:100DD8000225D96E030E02010321DA6E8DC2DFFFF0
:100DE800FE0E0201006FFF0E0201016F8FC202F2B8
:100DF80090C203F2D8900201023703370201005172
:100E0800020102270201015102010323DA0E020145
:100E1800046F030E0201056F050E02010427000E80
:100E280005230201025102010427020103510201B4
:100E38000523010E02010425D96E000E02010521C9
:100E4800DA6E8EC2DFFFCEEC4AF0050E00016E6F3F
:100E5800F20E00016F6FA9EC50F00C0E0001B16F9B
:100E6800020E0001B26FA80E0001B36FF40E00016C
:100E7800B46F8FC2B5F090C2B6F091C2B7F092C20B
:100E8800B8F055C0B9F056C0BAF057C0BBF058C05A
:100E9800BCF09CEC12F00C0E0001706F020E000109
:100EA800716F22EC50F00C0E0001B16F020E0001C0
:100EB800B26F460E0001B36FF60E0001B46F8DC21B
:100EC800B5F00001B66B8EC2B7F00001B86B9CECB0
:100ED80012F00C0E0001706F020E0001716F22EC0F
:100EE80050F0050E00016E6FF20E00016F6FA9EC55
:100EF80050F0000E0201936F090E0201936502D0B3
:100F0800120012008B84500E0001636FC30E646FD1
:100F1800000E656F000E666FA0EC4EF08B94500EBD
:100F28000001636FC30E646F000E656F000E666F7D
:100F3800A0EC4EF00201932B090E02019365E2D753
:100F4800120012001AD0050E00016E6FF20E000199
:100F58006F6FA9EC50F0BE0E0001706FF70E000124
:100F6800716F85EC4FF0050E00016E6FF20E0001F7
:100F78006F6FA9EC50F0120000D0050E00016E6FE3
:100F8800F20E00016F6FA9EC50F0070E0001706FB0
:100F9800F80E0001716F85EC4FF0050E00016E6FC1
:100FA800F20E00016F6FA9EC50F0A70E0001706FF0
:100FB800FF0E0001716F85EC4FF0340E0001706F69
:100FC800FE0E0001716F85EC4FF0450E0001706F49
:100FD800FD0E0001716F85EC4FF0050E00016E6F7C
:100FE800F20E00016F6FA9EC50F0860E0001706FD1
:100FF800FF0E0001716F85EC4FF0820E0001706FDB
:10100800FE0E0001716F85EC4FF0DD0E0001706F70
:10101800FD0E0001716F85EC4FF0050E00016E6F3B
:10102800F20E00016F6FA9EC50F01200F5C066F0E7
:10103800F6C067F0AE0E0001686FFF0E0001696F21
:10104800D4EC38F00009D8A410D0F5C066F0F6C08A
:1010580067F08F0E0001686FFF0E0001696FD4EC16
:1010680038F00009D8B47CEF0CF0F5C066F0F6C093
:1010780067F0AE0E0001686FFF0E0001696FD4ECD7
:1010880038F00009D8B402D0010E01D0000E0201D8
:101098007A6F00D0F5C072F0F6C073F0EDEC36F060
:1010A8000009D8A411D0740E0001706FF70E00016A
:1010B800716F85EC4FF0050E00016E6FF20E0001A6
:1010C8006F6FA9EC50F012000001F72B050E00011C
:1010D8006E6FF20E00016F6FA9EC50F0F5C06FF063
:1010E800F6C070F0010E0001716F8F0E0001726F73
:1010F800020E0001736F29EC2EF00009D8A403D06A
:101108008FC28CF211D0740E0001706FF70E0001BF
:10111800716F85EC4FF0050E00016E6FF20E000145
:101128006F6FA9EC50F0120002018C510201D8B483
:1011380005D0020E02018C6512D000D0990E000174
:10114800706FF70E0001716F85EC4FF0050E00010E
:101158006E6FF20E00016F6FA9EC50F01200F5C02F
:1011680063F0F6C064F0010E0001656F700E0001B7
:10117800666F020E0001676F73EC42F00009D8B485
:1011880011D0EB0E0001706FF90E0001716F85EC44
:101198004FF0050E00016E6FF20E00016F6FA9ECA3
:1011A80050F01200700E0001636F020E0001646FB0
:1011B80063EC4FF002017151D8B405D0200E020142
:1011C8007119D8A484D3000E0201716F02018C0535
:1011D800D8A415D0F90E0001666FF10E0001676FF3
:1011E800700E0001686F020E0001696FD4EC38F0D0
:1011F8000009D8A419D0000E02018A6F15D0020E7A
:1012080002018C19D8A410D0FD0E0001666FF10EF2
:101218000001676F700E0001686F020E0001696FB0
:10122800D4EC38F0E5D700D002018A510201D8A4E5
:1012380011D00A0E0001706FFA0E0001716F85EC73
:101248004FF0050E00016E6FF20E00016F6FA9ECF2
:1012580050F0120002018C05D8A417D0640E0201C8
:101268007019D8A402D0000E22D0650E02017019A0
:10127800D8A402D0010E1BD0660E02017019D8A4A2
:101288001200020E14D01200ADD0020E02018C1909
:10129800D8A4A8D0620E02017019D8A402D0030EF7
:1012A80006D0640E02017019D8A404D0040E0201FD
:1012B8008B6F98D0680E02017019D8A41200000E26
:1012C8000001636F040E0001646FFFC265F0000146
:1012D800666B47EC4EF0000E0201FF6F000E000136
:1012E800F96F900E00016E6FFE0E00016F6FA9EC92
:1012F80050F0050E00016E6FF20E00016F6FA9EC41
:1013080050F03E0E76EC50F0000E0201856F21EC95
:1013180052F09E9A9D8A23D0E00E0001636F930ECF
:10132800646F040E656F000E666FA0EC4EF002014C
:10133800852B190E0201856512D0050E00016E6F0E
:10134800F20E00016F6FA9EC50F0EF0E0001706F04
:10135800F20E0001716F85EC4FF0120000D0000111
:10136800F951D8B4D9D79D9A010E02018A6F300E6F
:101378000401006505D0330E040100650DD000D0CE
:10138800210E0001706FF30E0001716F85EC4FF0B4
:10139800000E02018A6F00D004010051D00F020133
:1013A800846F02018451040F02018B6F000E00014B
:1013B800636F040E0001646FFFC265F00001666B85
:1013C80047EC4EF0000E0201FF6F000E0001F96FAE
:1013D80002018A510201D8B4120004D0120002D0CE
:1013E800120000D002017A510201D8B4B5D1B6EC8E
:1013F8004BF00009D8B4120001D01200050E00010C
:101408006E6FF20E00016F6FA9EC50F055C067F0D7
:1014180056C068F057C069F058C06AF08D0E0001D8
:101428006B6F020E00016C6F8E0E00016D6F020E65
:1014380000016E6F83EC49F0000E02018A6F000E06
:101448000201936F020E0201936501D049D0020197
:101458008B51060D7C0E0201006F030E0201016F15
:10146800F35002010027F4500201012302019351B5
:10147800020DF35002010025D96EF450020101213A
:10148800DA6EDF50D8A429D002018B51060D7C0EEC
:101498000201006F030E0201016FF35002010027E1
:1014A800F4500201012302019351020DF35002018D
:1014B8000027F45002010123010E02010025D96E14
:1014C800000E02010121DA6EDF50D8A406D093C2C3
:1014D80083F2010E02018A6F03D00201932BB2D767
:1014E80002018A510201D8A409D0220E0001706FAE
:1014F800F70E0001716F85EC4FF01200010E02012A
:101508008A6F020183510201D8B458D0000E02013B
:10151800936F4CD002018B51060D7C0E0201006FB7
:10152800030E0201016FF35002010027F45002017B
:10153800012302019351020DF35002010025D96ED7
:10154800F45002010121DA6E02018D51DE18D8A48F
:101558002AD002018B51060D7C0E0201006F030E8A
:101568000201016FF35002010027F4500201012328
:1015780002019351020DF35002010027F4500201B9
:101588000123010E02010025D96E000E020101217E
:10159800DA6E02018E51DE18D8A405D0000E0201C1
:1015A8008A6F0CD000D00201932B00D00201835126
:1015B8000201935DD8B002D0ADD700D002018A51A4
:1015C8000201D8A409D0EA0E0001706FF50E0001DF
:1015D800716F85EC4FF0120002018B51060D7C0EE5
:1015E8000201006F030E0201016FF3500201002790
:1015F800F4500201012302018351020DF35002014C
:101608000025D96EF45002010121DA6E8DC2DFFF88
:1016180002018B51060D7C0E0201006F030E0201C0
:10162800016FF35002010027F45002010123020167
:101638008351020DF35002010027F45002010123E7
:10164800010E02010025D96E000E02010121DA6E99
:101658008EC2DFFFCEEC4AF0020184510201D8B4F9
:1016680023D00C0E0001B16F020E0001B26F080EFC
:101678000001B36FF20E0001B46F55C0B5F056C04B
:10168800B6F057C0B7F058C0B8F08CC2B9F0000136
:10169800BA6B70C2BBF00001BC6B84C2BDF0000124
:1016A800BE6B9CEC12F01FD00C0E0001B16F020E45
:1016B8000001B26F830E0001B36FF20E0001B46F28
:1016C80055C0B5F056C0B6F057C0B7F058C0B8F01E
:1016D8008CC2B9F00001BA6B70C2BBF00001BC6BE0
:1016E8009CEC12F000D00C0E0001706F020E00018D
:1016F800716F22EC50F0050E00016E6FF20E0001C2
:101708006F6FA9EC50F0000E0201936F090E0201F1
:10171800936502D0120012008B84500E0001636F93
:10172800C30E646F000E656F000E666FA0EC4EF07E
:101738008B94500E0001636FC30E646F000E656FCB
:10174800000E666FA0EC4EF00201932B090E020109
:101758009365E2D712001200000E0201936F020E89
:101768000201936501D041D002018B51060D7C0E18
:101778000201006F030E0201016FF35002010027FE
:10178800F4500201012302019351020DF3500201AA
:101798000025D96EF45002010121DA6E000EDF6EC9
:1017A80002018B51060D7C0E0201006F030E02012F
:1017B800016FF35002010027F450020101230201D6
:1017C8009351020DF35002010027F4500201012346
:1017D800010E02010025D96E000E02010121DA6E08
:1017E800000EDF6E0201932BBAD7CEEC4AF002014D
:1017F80084510201D8B41BD00C0E0001B16F020E47
:101808000001B26FB90E0001B36FF20E0001B46FA0
:101818008CC2B5F00001B66B70C2B7F00001B86BAE
:1018280084C2B9F00001BA6B9CEC12F017D00C0E10
:101838000001B16F020E0001B26FCA0E0001B36F52
:10184800F60E0001B46F8CC2B5F00001B66B70C221
:10185800B7F00001B86B9CEC12F000D00C0E000140
:10186800706F020E0001716F22EC50F0050E00013E
:101878006E6FF20E00016F6FA9EC50F0000E0201BE
:10188800936F090E0201936502D0120012008B8437
:10189800500E0001636FC30E646F000E656F000E7B
:1018A800666FA0EC4EF08B94500E0001636FC30E70
:1018B800646F000E656F000E666FA0EC4EF00201BB
:1018C800932B090E02019365E2D712001200F60E5F
:1018D8000001706FF60E0001716F85EC4FF0050E78
:1018E80000016E6FF20E00016F6FA9EC50F012004C
:1018F800F5C066F0F6C067F0C70E0001686FFF0E0E
:101908000001696F6CEC4BF00009D8B497D0000E59
:101918000001636F040E0001646FFFC265F00001EF
:10192800666B47EC4EF0000E0201FF6F000E0001DF
:10193800F96F100E00016E6FF90E00016F6FA9ECC0
:1019480050F0050E00016E6FF20E00016F6FA9ECEA
:1019580050F03E0E5AEC50F0000E0201856F21EC5B
:1019680052F09E9A9D8A23D0E00E0001636F930E79
:10197800646F040E656F000E666FA0EC4EF00201F6
:10198800852B190E0201856512D0050E00016E6FB8
:10199800F20E00016F6FA9EC50F0480E0001706F55
:1019A800FA0E0001716F85EC4FF0120000D00001B3
:1019B800F951D8B4D9D79D9A590E04010019D8B451
:1019C80009D0790E04010019D8A414D004010151DA
:1019D800D8A410D0EF0E0001706FFD0E0001716FDA
:1019E80085EC4FF0000E0301F76FCEEC4AF0FF00D4
:1019F800120011D0050E00016E6FF20E00016F6F1C
:101A0800A9EC50F0480E0001706FFA0E0001716FDA
:101A180085EC4FF000D0000E0001636F040E00014A
:101A2800646FFFC265F00001666B47EC4EF0000E74
:101A38000201FF6F000E0001F96F1200F5C066F099
:101A4800F6C067F0600E0001686FFF0E0001696F55
:101A58006CEC4BF00009D8B48BD1000E0001636F19
:101A6800040E0001646FFFC265F00001666B47EC6D
:101A78004EF0000E0201FF6F000E0001F96F470ED5
:101A880000016E6FF20E00016F6FA9EC50F0050EA9
:101A980000016E6FF20E00016F6FA9EC50F03E0E60
:101AA80076EC50F0000E0201856F21EC52F09E9A00
:101AB8009D8A23D0E00E0001636F930E646F040EBD
:101AC800656F000E666FA0EC4EF00201852B190EB3
:101AD8000201856512D0050E00016E6FF20E00013D
:101AE8006F6FA9EC50F0180E0001706FF60E000130
:101AF800716F85EC4FF0120000D00001F951D8B495
:101B0800D9D79D9A000E0001636F040E0001646F1F
:101B1800D70E0001656FFF0E0001666F41EC4DF0B6
:101B28000009D8B414D1000E0001636F040E00013F
:101B3800646FFFC265F00001666B47EC4EF0000E63
:101B48000201FF6F000E0001F96FAA0E00016E6F0F
:101B5800FB0E00016F6FA9EC50F0050E00016E6FCF
:101B6800F20E00016F6FA9EC50F03E0E5AEC50F0E7
:101B7800000E0201856F21EC52F09E9A9D8A23D0B7
:101B8800E00E0001636F930E646F040E656F000E24
:101B9800666FA0EC4EF00201852B190E02018565D7
:101BA80012D0050E00016E6FF20E00016F6FA9ECE6
:101BB80050F0180E0001706FF60E0001716F85EC81
:101BC8004FF0120000D00001F951D8B4D9D7000E57
:101BD8000001726F040E0001736FEDEC36F000091E
:101BE800D8B4A4D00201FF2B000E00016F6F040EC1
:101BF8000001706F010E0001716F7F0E0001726F9E
:101C0800020E0001736FE6EC2BF00009D8A48ED009
:101C1800020182BF8BD002018251020181110201AF
:101C2800801104E102017F05D8A080D07FC2B8F3FB
:101C380080C2B9F381C2BAF382C2BBF323EE7CF04F
:101C480000EE99F03F0EDBCFEBFFE806FCE2020E58
:101C58000001D96F000EDA6F000EDB6F000EDC6F2B
:101C68001CEC44F00001995100019A1100019B11EC
:101C780000019C11D8A448D0EDEC37F09E0E00016D
:101C8800706FF60E0001716F85EC4FF00C0E0001BD
:101C9800B16F020E0001B26F100E0001B36FFB0EA0
:101CA8000001B46FB8C3B5F0B9C3B6F0BAC3B7F0A2
:101CB800BBC3B8F09CEC12F00C0E0001706F020E62
:101CC8000001716F22EC50F0050E00016E6FF20EEC
:101CD80000016F6FA9EC50F0EF0E0001706FFD0E60
:101CE8000001716F85EC4FF0000E0301F76FCEEC29
:101CF8004AF0050E00016E6FF20E00016F6FA9EC3D
:101D080050F0FF00120012D0720E0001706FF60E34
:101D18000001716F85EC4FF0050E00016E6FF20E39
:101D280000016F6FA9EC50F0120000D04D0E0001B9
:101D3800706FF80E0001716F85EC4FF0050E000111
:101D48006E6FF20E00016F6FA9EC50F01200920E48
:101D58000001706FFB0E0001716F85EC4FF0050EEE
:101D680000016E6FF20E00016F6FA9EC50F01200C7
:101D7800F5C066F0F6C067F0980E0001686FFF0EB8
:101D88000001696F6CEC4BF00009D8B42FD0050E38
:101D980000016E6FF20E00016F6FA9EC50F00C0E8F
:101DA8000001B16F020E0001B26F310E0001B36F76
:101DB800FD0E0001B46F72EC48F08CC0B5F08DC018
:101DC800B6F08EC0B7F09CEC12F00C0E0001706FEC
:101DD800020E0001716F22EC50F0050E00016E6FCB
:101DE800F20E00016F6FA9EC50F01200F5C066F01A
:101DF800F6C067F0450E0001686FF80E0001696FC4
:101E08006CEC4BF00009D8B4CBD0050E00016E6F16
:101E1800F20E00016F6FA9EC50F00C0E0001B16FCB
:101E2800020E0001B26FCC0E0001B36FFC0E000170
:101E3800B46FEB0E0001B56FF10E0001B66F9CECAC
:101E480012F00C0E0001706F020E0001716F22EC8F
:101E580050F0050E00016E6FF20E00016F6FA9ECD5
:101E680050F09F0E0001706FFA0E0001716F85EC43
:101E78004FF0050E00016E6FF20E00016F6FA9ECB6
:101E880050F0F10E0001706FFB0E0001716F85ECD0
:101E98004FF0BC0E0001706F030E0001716F22EC51
:101EA80050F0640E0001706F040E0001716F22EC97
:101EB80050F0050E00016E6FF20E00016F6FA9EC75
:101EC80050F00C0E0001B16F020E0001B26F440E0B
:101ED8000001B36FFE0E0001B46FF40E0001B56F80
:101EE800F10E0001B66F9CEC12F00C0E0001706F41
:101EF800020E0001716F22EC50F00C0E0001B16F60
:101F0800020E0001B26F2B0E0001B36FFB0E000131
:101F1800B46F010E0001B56FF20E0001B66F9CECB4
:101F280012F00C0E00016D6F020E00016E6F78EC5E
:101F380051F0DC0E0001706FFF0E0001716F85EC2F
:101F48004FF0050E00016E6FF20E00016F6FA9ECE5
:101F580050F00C0E0001B16F020E0001B26FB80E06
:101F68000001B36FFD0E0001B46FB8C3B5F0B9C37B
:101F7800B6F0BAC3B7F0BBC3B8F09CEC12F00C0EC5
:101F880000016D6F020E00016E6F78EC51F0050EC6
:101F980000016E6FF20E00016F6FA9EC50F0120095
:101FA800F5C063F0F6C064F0E50E0001656FFF0E42
:101FB8000001666F41EC4DF00009D8B49FD2050EC0
:101FC80000016E6FF20E00016F6FA9EC50F0000E69
:101FD8000201936F210E0201936501D006D07E0E97
:101FE8005AEC50F00201932BF5D7540E00016E6F96
:101FF800FB0E00016F6FA9EC50F0000E0201936F09
:10200800210E0201936501D006D07E0E5AEC50F0E5
:102018000201932BF5D7050E00016E6FF20E000139
:102028006F6FA9EC50F0050E00016E6FF20E000103
:102038006F6FA9EC50F0120E0001706FFE0E0001D8
:10204800716F85EC4FF0E50E0001706FFF0E000117
:10205800716F6A0E0001726FFF0E0001736FE4EC7E
:1020680041F0C70E0001706FFF0E0001716FF00E96
:102078000001726FF80E0001736FE4EC41F0450E39
:102088000001706FF80E0001716F2A0E0001726F67
:10209800F80E0001736FE4EC41F0600E0001706F00
:1020A800FF0E0001716F620E0001726FFC0E0001DD
:1020B800736FE4EC41F0050E00016E6FF20E000143
:1020C8006F6FA9EC50F0B70E0001706FFC0E0001A5
:1020D800716F85EC4FF0980E0001706FFF0E0001D4
:1020E800716FD80E0001726FFA0E0001736FE4EC85
:1020F80041F0050E00016E6FF20E00016F6FA9EC42
:1021080050F0AB0E0001706FFE0E0001716F85EC90
:102118004FF0010E0201936F0C0E0201936501D07E
:1021280030D00C0E0001636F020E0001646F000EC8
:102138000001666F320E656F47EC4EF00C0E000121
:10214800B16F020E0001B26F640E0001B36FFE0E94
:102158000001B46F93C2B5F00001B66B9CEC12F0AD
:102168000C0E0001706F020E0001716F610E00010C
:10217800726FFB0E0001736FE4EC41F00201932BC8
:10218800CBD7010E0201936F0C0E0201936501D0AB
:1021980030D00C0E0001636F020E0001646F000E58
:1021A8000001666F320E656F47EC4EF00C0E0001B1
:1021B800B16F020E0001B26FA50E0001B36FFD0EE4
:1021C8000001B46F93C2B5F00001B66B9CEC12F03D
:1021D8000C0E0001706F020E0001716FC20E00013B
:1021E800726FFB0E0001736FE4EC41F00201932B58
:1021F800CBD71E0E0001706FFF0E0001716F840EA9
:102208000001726FF30E0001736FE4EC41F0340EBD
:102218000001706FFF0E0001716FE60E0001726F12
:10222800F30E0001736FE4EC41F03F0E0001706F94
:10223800FF0E0001716F170E0001726FF40E00019E
:10224800736FE4EC41F0130E0001706FFF0E000194
:10225800716F530E0001726FF30E0001736FE4EC9F
:1022680041F0290E0001706FFF0E0001716FB50E6D
:102278000001726FF30E0001736FE4EC41F04A0E37
:102288000001706FFF0E0001716F480E0001726F40
:10229800F40E0001736FE4EC41F0C50E0001706F9D
:1022A800FE0E0001716F040E0001726FF50E000141
:1022B800736FE4EC41F0DF0E0001706FFE0E000159
:1022C800716F600E0001726FF50E0001736FE4EC20
:1022D80041F0EC0E0001706FFE0E0001716F8E0E62
:1022E8000001726FF50E0001736FE4EC41F0B80E57
:1022F8000001706FFE0E0001716FD60E0001726F43
:10230800F40E0001736FE4EC41F0D20E0001706F1F
:10231800FE0E0001716F320E0001726FF50E0001A2
:10232800736FE4EC41F0F90E0001706FFE0E0001CE
:10233800716FBC0E0001726FF50E0001736FE4EC53
:1023480041F0D20E0001706FFF0E0001716F4C0E4C
:102358000001726FF70E0001736FE4EC41F0050E97
:1023680000016E6FF20E00016F6FA9EC50F09E0E27
:102378000001706FFE0E0001716F85EC4FF08C0E3E
:102388000001706FF10E0001716F590E0001726F3C
:10239800FD0E0001736FE4EC41F09B0E0001706FBD
:1023A800F10E0001716F6C0E0001726FFD0E0001DD
:1023B800736FE4EC41F0AA0E0001706FF10E00019A
:1023C800716F7F0E0001726FFD0E0001736FE4ECF8
:1023D80041F0C80E0001706FF00E0001716F360EEB
:1023E8000001726FFC0E0001736FE4EC41F0A20E65
:1023F8000001706FF00E0001716F080E0001726F1E
:10240800FC0E0001736FE4EC41F0DA0E0001706F0E
:10241800F00E0001716F920E0001726FFD0E000147
:10242800736FE4EC41F0B50E0001706FF00E00011F
:10243800716F090E0001726FFD0E0001736FE4ECFD
:1024480041F0660E0001706FF00E0001716F8E0E84
:102458000001726FF90E0001736FE4EC41F0270E72
:102468000001706FF00E0001716F900E0001726F25
:10247800F80E0001736FE4EC41F07A0E0001706F02
:10248800F00E0001716FAD0E0001726FF90E0001C0
:10249800736FE4EC41F03C0E0001706FF00E000128
:1024A800716FB00E0001726FF80E0001736FE4ECEB
:1024B80041F08E0E0001706FF00E0001716FCC0EAE
:1024C8000001726FF90E0001736FE4EC41F0510ED8
:1024D8000001706FF00E0001716FD00E0001726F75
:1024E800F80E0001736FE4EC41F0050E00016E6F09
:1024F800F20E00016F6FA9EC50F01200B90E000146
:10250800706FF10E0001716F85EC4FF0460E0001FF
:10251800706FFB0E0001716F85EC4FF0050E000126
:102528006E6FF20E00016F6FA9EC50F012001200EE
:10253800B50E0001CD6F000E0001CE6F3FEF1AF00F
:10254800250E0001E219D8B40BD0B1C0D9FFB2C032
:10255800DAFFE2C0DFFF0001B14BB22B3FEF1AF008
:10256800000E0001DF6F000EDE6F000E0001E16F4C
:10257800000EE06F07D00001E0850001B34BB42BDB
:1025880001D00CD0B3C0F6FFB4C0F7FFF86A08005A
:10259800F550300AD8B4EFD701D0F4D7B3C0F6FF5E
:1025A800B4C0F7FFF86A0800F5500AEC51F0D8A05B
:1025B80010D1000E0001DF6F000EDE6F00D0DEC00C
:1025C80071F0DFC072F0000E0001746F0A0E736FB5
:1025D8003EEC50F071C0DEF072C0DFF0D00E0001AA
:1025E800BF6FFF0E0001C06FB3C0F6FFB4C0F7FFA6
:1025F800F86A0800F5500001C16FC26B0001BF51B5
:102608000001C1270001C0510001C2230001C151CE
:102618000001DE270001C2510001DF230001B34B96
:10262800B42BB3C0F6FFB4C0F7FFF86A0800F55042
:102638000AEC51F0D8A0CDD0C2D7CBD051EF1AF0C8
:102648000001E089C6D00001E185F0D000D000018A
:10265800E08FECD0CDC0D9FFCEC0DAFFDECFC9F015
:10266800DDCFCAF0020E0001CD27000ECE230001F7
:10267800C9510001CA11D8A407D0A00E0001C96F22
:10268800FF0E0001CA6F00D0000E0001CC6F000ED3
:10269800CB6F04D00001CB4BCC2B00D00001CB5129
:1026A8000001C9250001BF6F0001CC510001CA21FA
:1026B8000001C06FBFC0F6FFC0C0F7FF000EF86E84
:1026C8000F0EF76403D00800F55005D0F6CFE9FFE8
:1026D800F7CFEAFFEF500009D8B402D0DBD700D01B
:1026E8000001DE510001CB5D0001DF510001CC5932
:1026F800D8B009D00001CB510001DE5F0001CC51F8
:102708000001DF5B10D0000E0001DF6F000EDE6FEE
:102718000AD0B1C0D9FFB2C0DAFF200EDF6E0001C7
:10272800B14BB22B00D00001DE07D8A0DF070001B3
:10273800DE29EFE10001DF29D8B41FD0EAD71DD088
:10274800C9C0F6FFCAC0F7FF000EF86EB1C0D9FFC6
:10275800B2C0DAFF0F0EF76403D00800F55005D0B9
:10276800F6CFE9FFF7CFEAFFEF50DF6E0001C94B64
:10277800CA2B0001B14BB22B00D00001CB07D8A067
:10278800CC070001CB29DCE10001CC29D8B43FEF0C
:102798001AF0D6D73FEF1AF0CDC0D9FFCEC0DAFF76
:1027A800DF500001E26F020E0001CD27000ECE239C
:1027B80000D0E20E0001C96F000E0001CA6F000EC2
:1027C8000001CC6F010ECB6F8BD7C00E0001E01358
:1027D8002DD0B3C0F6FFB4C0F7FF0001B34BB42B44
:1027E800F86A0800F5CFE2F00001E251000AD8B417
:1027F80051EF1AF0580AD8B42AD73B0AD8B4CCD724
:10280800070AD8B413D0020AD8B41DD70F0AD8B40F
:102818000DD0050AD8B414D71F0AD8B41BD7060A96
:10282800D8B4D3D70D0AD8B412D7C3D7070E00012E
:10283800E115D8B4EDD3000E0001D06F060ECF6FAE
:10284800CDC0D9FFCEC0DAFFDECFDBF0DECFDCF0C3
:10285800DDCFDDF0030E0001CD27000ECE230001F1
:10286800DDAF12D0DBC063F0DCC064F0DDC065F022
:10287800C2EC50F063C0DBF064C0DCF065C0DDF092
:10288800030E0001E01300D0000E0001D66F000E09
:10289800D56F0001DB510001DC110001DD11D8B456
:1028A8009DD0820E0001BF6FFF0E0001C06FDBC01C
:1028B800C1F0DCC0C2F0DDC0C3F0DEC0C4F0100E51
:1028C80006D00001D890C433C333C233C133E82ED5
:1028D800F8D70001C1510001BF250001D56F000ED6
:1028E8000001C0210001D66F0001D507D8A0D60786
:1028F800D5C071F0D6C072F0000E0001746F030EDF
:10290800736F3EEC50F071C0D5F072C0D6F0D5C0F0
:1029180069F0D6C06AF0000E00016C6F0A0E6B6F8A
:1029280079EC46F069C0D5F06AC0D6F00001D6AFA0
:1029380005D00001D507D8A0D60700D00001D55191
:102948000008EBEC26F08CC0D1F08DC0D2F08EC020
:10295800D3F0D1C07DF0D2C07EF0D3C07FF0DBC011
:1029680080F0DCC081F0DDC082F0C4EC3CF07DC0BA
:10297800D1F07EC0D2F07FC0D3F0D1C063F0D2C016
:1029880064F0D3C065F0000E0001666F800E000190
:10299800676F3F0E0001686FE1EC46F00001D8B0A8
:1029A80005D00001D507D8A0D60718D0D1C063F04C
:1029B800D2C064F0D3C065F0000E0001666F200E2F
:1029C8000001676F410E0001686FE1EC46F00001FD
:1029D800D8A004D00001D54BD62B00D00001D0BF21
:1029E80008D00001D0511EE10D0E0001CF5DD8B016
:1029F80019D0DBC096F0DCC097F0DDC098F000017C
:102A0800CF51EEEC31F08CC099F08DC09AF08EC0A9
:102A18009BF05AEC33F096C0DBF097C0DCF098C01E
:102A2800DDF000D00001D6BF08D00001D6512CE15E
:102A38000A0E0001D55DD8B027D00001DB51000196
:102A4800DC110001DD11D8B47FD0DBC0A2F0DCC0FE
:102A5800A3F0DDC0A4F0D1EC3EF00001A2510001CA
:102A6800A3110001A4110001A511D8A46DD0000183
:102A7800D6BF6AD00001D65107E1020E0001D55D2C
:102A8800D8B002D061D000D0D1C063F0D2C064F019
:102A9800D3C065F0700E0001666F890E0001676F84
:102AA800400E0001686FE1EC46F00001D8B003D099
:102AB8000001F70E02D00001F80ED527FF0ED6232D
:102AC80000D00001D551EBEC26F08CC0D1F08DC0C0
:102AD800D2F08EC0D3F017D0DBC063F0DCC064F056
:102AE800DDC065F0D1C066F0D2C067F0D3C068F031
:102AF8007EEC3AF063C0D7F064C0D8F065C0D9F076
:102B080066C0DAF017D0DBC063F0DCC064F0DDC06B
:102B180065F0D1C066F0D2C067F0D3C068F0ABEC06
:102B280039F063C0D7F064C0D8F065C0D9F066C08A
:102B3800DAF000D0000E0001DB6F000E0001DC6F40
:102B4800000E0001DD6F34D0DBC0A2F0DCC0A3F0C2
:102B5800DDC0A4F0D1EC3EF0A2C0D7F0A3C0D8F0FD
:102B6800A4C0D9F0A5C0DAF0DBC0A2F0DCC0A3F0A5
:102B7800DDC0A4F0D7C06BF0D8C06CF0D9C06DF040
:102B8800DAC06EF086EC4CF06BC0A5F06CC0A6F015
:102B98006DC0A7F0F5EC4EF0A2C0DBF0A3C0DCF0EE
:102BA800A4C0DDF0000E0001D66F000ED56F00D076
:102BB800010E0001E26F0A0E0001E219D8B425D017
:102BC80001D023D00001E251040D770EF324F66EF4
:102BD800EF0EF420F76EF86A000EF8220900F5509F
:102BE8000001D75D0900F5500001D8590900F550DA
:102BF8000001D9590900F5500001DA59D8A005D0CB
:102C080001D003D00001E22BD6D7E2C0BFF000010B
:102C1800C06BBFBFC0070001CF510001BF27000133
:102C2800D0510001C0230001D5510001BF27000188
:102C3800D6510001C0230001BF510001DE5F000131
:102C4800C0510001DF5B0001CF510001D011D8B4A1
:102C580005D00001DE07D8A0DF0700D0030E000171
:102C6800E0150001BF6F000E0001E1150001C06F03
:102C78000001BF510001C011D8B405D00001DE0722
:102C8800D8A0DF0700D00001E0A543D0030E000163
:102C9800E0150001BF6F000E0001E1150001C06FD3
:102CA8000001BF510001C011D8B418D0B1C0D9FF7C
:102CB800B2C0DAFF2D0EDF6E0001B14BB22B0ED081
:102CC800B1C0D9FFB2C0DAFF300EDF6E0001B14BE0
:102CD800B22B0001DE07D8A0DF0700D00001DFBF5C
:102CE8008AD00001DF51ECE10001DE05D8A083D0D5
:102CF800E7D781D00ED0B1C0D9FFB2C0DAFF200E1D
:102D0800DF6E0001B14BB22B0001DE07D8A0DF0750
:102D180000D00001DFBF07D00001DF51ECE1000166
:102D2800DE05D8B0E8D7030E0001E0150001BF6F3B
:102D3800000E0001E1150001C06F0001BF51000144
:102D4800C011D8B458D0B1C0D9FFB2C0DAFF2D0E27
:102D580050D00001B14BB22B4ED0D7C063F0D8C0D1
:102D680064F0D9C065F0DAC066F00001E251040DE4
:102D7800770EF324F66EEF0EF420F76EF86A000E65
:102D8800F8220900F5CF67F00900F5CF68F00900CF
:102D9800F5CF69F00A00F5CF6AF0ADEC47F063C0F3
:102DA800D1F064C0D2F065C0D3F066C0D4F0D1C011
:102DB80070F0D2C071F0D3C072F0D4C073F00A0EB4
:102DC8000001746F000E756F000E766F000E776F3E
:102DD800DAEC49F070C0D1F071C0D2F072C0D3F013
:102DE80073C0D4F00001D151300FB1C0D9FFB2C0C7
:102DF800DAFFDF6EAED70001E2070001E229D8B49E
:102E080010D0ABD70ED0B1C0D9FFB2C0DAFF300EA8
:102E1800DF6E0001B14BB22B0001D507D8A0D60751
:102E280000D00001D6BF07D00001D651ECE1000167
:102E3800D505D8B0E8D70001D0BF0CD00001D051DB
:102E480005E1090E0001CF5DD8A004D0080E0001ED
:102E5800E26F03D0CFC0E2F000D00001E2510001E0
:102E6800CF5F000E0001E2BFFF0E0001D05B000142
:102E7800E2510001D8B40AD0B1C0D9FFB2C0DAFF1C
:102E88002E0EDF6E0001B14BB22B00D00001E251D3
:102E9800EBEC26F08CC0C5F08DC0C6F08EC0C7F034
:102EA800DBC080F0DCC081F0DDC082F0C5C07DF001
:102EB800C6C07EF0C7C07FF0C4EC3CF07DC0A2F075
:102EC8007EC0A3F07FC0A4F0D1EC3EF0A2C0D7F042
:102ED800A3C0D8F0A4C0D9F0A5C0DAF07BD0D7C081
:102EE80063F0D8C064F0D9C065F0DAC066F00001BC
:102EF800E251040D770EF324F66EEF0EF420F76E10
:102F0800F86A000EF8220900F5CF67F00900F5CF3E
:102F180068F00900F5CF69F00A00F5CF6AF0ADEC6A
:102F280047F063C0D1F064C0D2F065C0D3F066C08A
:102F3800D4F0D1C070F0D2C071F0D3C072F0D4C058
:102F480073F00A0E0001746F000E756F000E766F35
:102F5800000E776FDAEC49F070C0D1F071C0D2F092
:102F680072C0D3F073C0D4F00001D151300FB1C09A
:102F7800D9FFB2C0DAFFDF6E0001B14BB22BD7C068
:102F880070F0D8C071F0D9C072F0DAC073F00001E7
:102F9800E251040D770EF324F66EEF0EF420F76E6F
:102FA800F86A000EF8220900F5CF74F00900F5CF91
:102FB80075F00900F5CF76F00A00F5CF77F0DAEC76
:102FC80049F070C0D7F071C0D8F072C0D9F073C0A2
:102FD800DAF000D00001E2070001E229D8B410D0ED
:102FE8007ED70ED0B1C0D9FFB2C0DAFF300EDF6E87
:102FF8000001B14BB22B0001CF07D8A0D00700D0F9
:103008000001CF510001D011D8B435D2EBD733D25B
:10301800C00E0001E0150001BF6F000E0001E115B0
:103028000001C06F0001BF510001C011D8A435D004
:103038000001E0A90ED0CDC0D9FFCEC0DAFFDECFA7
:10304800D7F0DECFD8F0DECFD9F0DECFDAF0040E3D
:103058000FD0CDC0D9FFCEC0DAFFDECFD7F0DDCF9D
:10306800D8F00001000ED8BFFF0ED96FDA6F020E3C
:103078000001CD27000ECE2300D00001DAAF90D09A
:10308800030E0001E0130001DA1FD91FD81FD76D06
:10309800000ED823D923DA2383D00001E0A90ED06B
:1030A800CDC0D9FFCEC0DAFFDECFD7F0DECFD8F063
:1030B800DECFD9F0DECFDAF0040E10D0CDC0D9FFC4
:1030C800CEC0DAFFDECFBFF0DDCFC0F0BFC0D7F093
:1030D800C0C0D8F00001D96BDA6B020E0001CD2711
:1030E800000ECE235DD000D0010E0001E26F0A0E63
:1030F8000001E219D8B461D001D05FD00001E251DB
:10310800040D770EF324F66EEF0EF420F76EF86ACE
:10311800000EF8220900F5500001D75D0900F550AE
:103128000001D8590900F5500001D9590900F55096
:103138000001DA59D8A041D001D03FD00001E22BDC
:10314800D6D73BD0010E0001E26F080E0001E2194C
:10315800D8B433D001D031D00001E251040DED0EC6
:10316800F324F66EEF0EF420F76EF86A000EF822DC
:103178000900F5500001D75D0900F5500001D85944
:103188000900F5500001D9590900F5500001DA5934
:10319800D8A013D001D011D00001E22BD6D70DD082
:1031A8000001E051C00B000AD8B49ED7800AD8B4F9
:1031B800C9D7400AD8B498D700D00001DE51000121
:1031C800DF11D8B415D0030E0001E0150001BF6F60
:1031D800000E0001E1150001C06F0001BF510001A0
:1031E800C011D8B405D00001DE07D8A0DF0700D091
:1031F800800E0001E2BF7F0E0001BF6F0001DE51AB
:103208000001E25D0001DF51800A0001BF59D8B01A
:103218000BD00001E2510001DE5F000E0001E2BFA9
:10322800FF0E0001DF5B06D0000E0001DF6F000E0D
:10323800DE6F00D00001E0A535D0030E0001E015D7
:103248000001BF6F000E0001E1150001C06F000111
:10325800BF510001C011D8B40AD0B1C0D9FFB2C063
:10326800DAFF2D0EDF6E0001B14BB22B00D000014A
:10327800DE510001DF11D8B44AD0B1C0D9FFB2C0C5
:10328800DAFF300EDF6E0001B14BB22B0001DE0712
:10329800D8A0DF070001DE510001DF11D8B437D014
:1032A800ECD735D00001DE510001DF11D8B415D0BC
:1032B800B1C0D9FFB2C0DAFF200EDF6E0001B14BFA
:1032C800B22B0001DE07D8A0DF070001DE510001A4
:1032D800DF11D8B402D0ECD700D0030E0001E015FE
:1032E8000001BF6F000E0001E1150001C06F000171
:1032F800BF510001C011D8B40AD0B1C0D9FFB2C0C3
:10330800DAFF2D0EDF6E0001B14BB22B00D00001A9
:10331800E2510001CF6FD06BCFBFD0079FD087D0CD
:1033280000D0CFC0BFF0D0C0C0F00001D890BF37E8
:10333800C0370001D890BF37C037770E0001BF25CE
:10334800F66EEF0EC021F76EF86A000EF82209003B
:10335800F5CF67F00900F5CF68F00900F5CF69F0FF
:103368000A00F5CF6AF0D7C063F0D8C064F0D9C0BE
:1033780065F0DAC066F0ADEC47F063C070F064C089
:1033880071F065C072F066C073F00A0E0001746FC8
:10339800000E756F000E766F000E776FDAEC49F04D
:1033A80000017051300F0001E26F4ED0D7C063F0BA
:1033B800D8C064F0D9C065F0DAC066F0CFC0BFF0FD
:1033C800D0C0C0F00001D890BF37C0370001D890F6
:1033D800BF37C037ED0E0001BF25F66EEF0EC021D6
:1033E800F76EF86A000EF8220900F5CF67F00900B9
:1033F800F5CF68F00900F5CF69F00A00F5CF6AF05B
:10340800ADEC47F0000163510F0B0001C86F0001DC
:10341800C851010D010EF324F66EFE0EF420F76E6E
:10342800F86A000EF8220800F5CFE2F00DD000018E
:10343800E051C00B000AD8B474D7800AD8B4B6D704
:10344800400AD8B46ED700D0B1C0D9FFB2C0DAFFF5
:10345800E2C0DFFF0001B14BB22B00D00001CF0763
:10346800D8A0D0070001CF29E2E10001D029D8B4C3
:1034780002D0DDD700D0B3C0F6FFB4C0F7FF00011B
:10348800B34BB42BF86A0800F5CFE2F00001E25123
:10349800D8B403D0A4EF12F000D0B1C0D9FFB2C0A5
:1034A800DAFF000EDF6E12001200000E00016F6FCF
:1034B800000E706F000E716F000E726F010E00012A
:1034C80063150001676F000E000164150001686F45
:1034D800000E000165150001696F000E00016615F8
:1034E80000016A6F1F0ED890000167376837693787
:1034F8006A37E82EF8D70001675100016F270001ED
:103508006851000170230001695100017123000115
:103518006A5100017223020E000163150001676FF2
:10352800000E000164150001686F000E00016515AA
:103538000001696F000E0001661500016A6F1D0E1B
:10354800D89000016737683769376A37E82EF8D7A7
:103558000001675100016F270001685100017023C5
:10356800000169510001712300016A5100017223B1
:10357800040E000163150001676F000E0001641559
:103588000001686F000E000165150001696F000EEB
:103598000001661500016A6F1B0ED890000167379D
:1035A800683769376A37E82EF8D700016751000194
:1035B8006F27000168510001702300016951000163
:1035C800712300016A5100017223080E000163157E
:1035D8000001676F000E000164150001686F000E9E
:1035E800000165150001696F000E000166150001F4
:1035F8006A6F190ED89000016737683769376A37DC
:10360800E82EF8D70001675100016F2700016851C3
:1036180000017023000169510001712300016A5102
:1036280000017223100E000163150001676F000E80
:10363800000164150001686F000E000165150001A6
:10364800696F000E0001661500016A6F170ED890A9
:1036580000016737683769376A37E82EF8D70001FD
:10366800675100016F2700016851000170230001B4
:1036780069510001712300016A5100017223200E73
:10368800000163150001676F000E00016415000159
:10369800686F000E000165150001696F000E0001DA
:1036A800661500016A6F150ED890000167376837F4
:1036B80069376A37E82EF8D70001675100016F278C
:1036C8000001685100017023000169510001712354
:1036D80000016A5100017223400E000163150001C8
:1036E800676F000E000164150001686F000E00018D
:1036F80065150001696F000E0001661500016A6F0B
:10370800130ED89000016737683769376A37E82E93
:10371800F8D70001675100016F27000168510001C7
:103728007023000169510001712300016A510001F1
:103738007223800E000163150001676F000E0001FF
:1037480064150001686F000E000165150001696FBE
:10375800000E0001661500016A6F110ED890000175
:103768006737683769376A37E82EF8D70001675135
:1037780000016F27000168510001702300016951A1
:103788000001712300016A5100017223000E00013B
:1037980063150001676F010E000164150001686F71
:1037A800000E000165150001696F000E0001661525
:1037B80000016A6F0F0ED8900001673768376937C4
:1037C8006A37E82EF8D70001675100016F2700011A
:1037D8006851000170230001695100017123000143
:1037E8006A5100017223000E000163150001676F22
:1037F800020E000164150001686F000E00016515D6
:103808000001696F000E0001661500016A6F0D0E58
:10381800D89000016737683769376A37E82EF8D7D4
:103828000001675100016F270001685100017023F2
:10383800000169510001712300016A5100017223DE
:10384800000E000163150001676F040E0001641586
:103858000001686F000E000165150001696F000E18
:103868000001661500016A6F0B0ED89000016737DA
:10387800683769376A37E82EF8D7000167510001C1
:103888006F27000168510001702300016951000190
:10389800712300016A5100017223000E00016315B3
:1038A8000001676F080E000164150001686F000EC3
:1038B800000165150001696F000E00016615000121
:1038C8006A6F090ED89000016737683769376A3719
:1038D800E82EF8D70001675100016F2700016851F1
:1038E80000017023000169510001712300016A5130
:1038F80000017223000E000163150001676F100EAE
:10390800000164150001686F000E000165150001D3
:10391800696F000E0001661500016A6F070ED890E6
:1039280000016737683769376A37E82EF8D700012A
:10393800675100016F2700016851000170230001E1
:1039480069510001712300016A5100017223000EC0
:10395800000163150001676F200E00016415000166
:10396800686F000E000165150001696F000E000107
:10397800661500016A6F050ED89000016737683731
:1039880069376A37E82EF8D70001675100016F27B9
:103998000001685100017023000169510001712381
:1039A80000016A5100017223000E00016315000135
:1039B800676F400E000164150001686F000E00017A
:1039C80065150001696F000E0001661500016A6F38
:1039D800030ED89000016737683769376A37E82ED1
:1039E800F8D70001675100016F27000168510001F5
:1039F8007023000169510001712300016A5100011F
:103A08007223000E000163150001676F800E00012C
:103A180064150001686F000E000165150001696FEB
:103A2800000E0001661500016A6FD8900001673525
:103A380000016B6F0001683500016C6F000169358A
:103A480000016D6F00016A3500016E6F00016B5156
:103A580000016F2700016C510001702300016D51B6
:103A68000001712300016E510001722363C067F0E9
:103A780064C068F065C069F066C06AF00001D8905B
:103A88006A33693368336733000E00016715000134
:103A98006B6F800E0001681500016C6F000E00014D
:103AA800691500016D6F000E00016A1500016E6F47
:103AB80000016B5100016F2700016C510001702358
:103AC80000016D510001712300016E510001722344
:103AD80063C067F064C068F065C069F066C06AF0EA
:103AE800040E06D00001D8906A336933683367330F
:103AF800E82EF8D7000E0001671500016B6F400E25
:103B08000001681500016C6F000E000169150001C5
:103B18006D6F000E00016A1500016E6F00016B5198
:103B280000016F2700016C510001702300016D51E5
:103B38000001712300016E510001722363C067F018
:103B480064C068F065C069F066C06AF0060E06D009
:103B58000001D8906A33693368336733E82EF8D7A1
:103B6800000E0001671500016B6F200E000168153B
:103B780000016C6F000E0001691500016D6F000EE9
:103B880000016A1500016E6F00016B5100016F277B
:103B980000016C510001702300016D510001712377
:103BA80000016E510001722363C067F064C068F0C1
:103BB80065C069F066C06AF0080E06D00001D890AA
:103BC8006A33693368336733E82EF8D7000E00018B
:103BD800671500016B6F100E0001681500016C6F0E
:103BE800000E0001691500016D6F000E00016A15D5
:103BF80000016E6F00016B5100016F2700016C51CD
:103C08000001702300016D510001712300016E5104
:103C18000001722363C067F064C068F065C069F092
:103C280066C06AF00A0E06D00001D8906A3369337C
:103C380068336733E82EF8D7000E000167150001D6
:103C48006B6F080E0001681500016C6F000E000113
:103C5800691500016D6F000E00016A1500016E6F95
:103C680000016B5100016F2700016C5100017023A6
:103C780000016D510001712300016E510001722392
:103C880063C067F064C068F065C069F066C06AF038
:103C98000C0E06D00001D8906A3369336833673355
:103CA800E82EF8D7000E0001671500016B6F040EAF
:103CB8000001681500016C6F000E00016915000114
:103CC8006D6F000E00016A1500016E6F00016B51E7
:103CD80000016F2700016C510001702300016D5134
:103CE8000001712300016E510001722363C067F067
:103CF80064C068F065C069F066C06AF00E0E06D050
:103D08000001D8906A33693368336733E82EF8D7EF
:103D1800000E0001671500016B6F020E00016815A7
:103D280000016C6F000E0001691500016D6F000E37
:103D380000016A1500016E6F00016B5100016F27C9
:103D480000016C510001702300016D5100017123C5
:103D580000016E510001722363C067F064C068F00F
:103D680065C069F066C06AF0100E06D00001D890F0
:103D78006A33693368336733E82EF8D7000E0001D9
:103D8800671500016B6F010E0001681500016C6F6B
:103D9800000E0001691500016D6F000E00016A1523
:103DA80000016E6F00016B5100016F2700016C511B
:103DB8000001702300016D510001712300016E5153
:103DC8000001722363C067F064C068F065C069F0E1
:103DD80066C06AF0120E06D00001D8906A336933C3
:103DE80068336733E82EF8D7800E000167150001A5
:103DF8006B6F000E0001681500016C6F000E00016A
:103E0800691500016D6F000E00016A1500016E6FE3
:103E180000016B5100016F2700016C5100017023F4
:103E280000016D510001712300016E5100017223E0
:103E380063C067F064C068F065C069F066C06AF086
:103E4800140E06D00001D8906A336933683367339B
:103E5800E82EF8D7400E0001671500016B6F000EC1
:103E68000001681500016C6F000E00016915000162
:103E78006D6F000E00016A1500016E6F00016B5135
:103E880000016F2700016C510001702300016D5182
:103E98000001712300016E510001722363C067F0B5
:103EA80064C068F065C069F066C06AF0160E06D096
:103EB8000001D8906A33693368336733E82EF8D73E
:103EC800200E0001671500016B6F000E00016815D8
:103ED80000016C6F000E0001691500016D6F000E86
:103EE80000016A1500016E6F00016B5100016F2718
:103EF80000016C510001702300016D510001712314
:103F080000016E510001722363C067F064C068F05D
:103F180065C069F066C06AF0180E06D00001D89036
:103F28006A33693368336733E82EF8D7100E000117
:103F3800671500016B6F000E0001681500016C6FBA
:103F4800000E0001691500016D6F000E00016A1571
:103F580000016E6F00016B5100016F2700016C5169
:103F68000001702300016D510001712300016E51A1
:103F78000001722363C067F064C068F065C069F02F
:103F880066C06AF01A0E06D00001D8906A33693309
:103F980068336733E82EF8D7080E0001671500016B
:103FA8006B6F000E0001681500016C6F000E0001B8
:103FB800691500016D6F000E00016A1500016E6F32
:103FC80000016B5100016F2700016C510001702343
:103FD80000016D510001712300016E51000172232F
:103FE80063C067F064C068F065C069F066C06AF0D5
:103FF8001C0E06D00001D8906A33693368336733E2
:10400800E82EF8D7040E0001671500016B6F000E4B
:104018000001681500016C6F000E000169150001B0
:104028006D6F000E00016A1500016E6F00016B5183
:1040380000016F2700016C510001702300016D51D0
:104048000001712300016E510001722363C067F003
:1040580064C068F065C069F066C06AF01E0E06D0DC
:104068000001D8906A33693368336733E82EF8D78C
:10407800020E0001671500016B6F000E0001681544
:1040880000016C6F000E0001691500016D6F000ED4
:1040980000016A1500016E6F00016B5100016F2766
:1040A80000016C510001702300016D510001712362
:1040B80000016E5100017223000E0001631500011A
:1040C800676F000E000164150001686F000E0001A3
:1040D80065150001696F800E0001661500016A6FA1
:1040E800200E06D00001D8906A33693368336733ED
:1040F800E82EF8D70001675100016F2700016851C9
:1041080000017023000169510001712300016A5107
:10411800000172236FC063F070C064F071C065F075
:1041280072C066F012001200010E0101A36F000EAA
:104138000101A46F000E0101A26F010E0101A16F20
:104148006F0E0001636F010E0001646F000E000125
:10415800666F320E656F47EC4EF0330E0001636FE9
:10416800010E0001646F000E0001666F1E0E656F80
:1041780047EC4EF0510E0001636F010E0001646FB1
:10418800000E0001666F1E0E656F47EC4EF07AEC6C
:104198003DF00009D8A402D0000E120021EC52F024
:1041A8009E9A9D8AFC0E00016E6FFF0E00016F6FD4
:1041B800A9EC50F0500E0001636FC30E646F000E3F
:1041C800656F000E666FA0EC4EF09D9A000E01011F
:1041D800A46F3B0E0101A46501D07AD00101A105AD
:1041E800D8A437D00101A451010D180EF324D96EBB
:1041F800030EF420DA6E0A0EDE18D8B40DD00101D1
:10420800A451010D180EF324D96E030EF420DA6EB2
:104218000D0EDE18D8A404D0000E0101A16F55D0F0
:104228001D0E0101A46151D00101A451010D180E08
:10423800F324D96E030EF420DA6E0101A451010DA6
:10424800330EF324E16E010EF420E26EDFCFE7FFB8
:104258003CD00101A451010D180EF324D96E030EB0
:10426800F420DA6E0A0EDE18D8B429D00101A45160
:10427800010D180EF324D96E030EF420DA6E0D0E1C
:10428800DE18D8B41CD01D0E0101A26115D00101A1
:10429800A451010D180EF324D96E030EF420DA6E22
:1042A8000101A251010D510EF324E16E010EF4201B
:1042B800E26EDFCFE7FF00D00101A22B06D0020E8D
:1042C8000101A26502D004D000D00101A42B81D73E
:1042D800010133510101D8B405D001015151010147
:1042E800D8A404D0000E0101A36F42D0BC0E000177
:1042F800636F030E0001646F000E0001666F1E0EEF
:10430800656F47EC4EF0640E0001636F040E000108
:10431800646F000E0001666F1E0E656F47EC4EF06D
:10432800330E00016B6F010E00016C6FBC0E0001B3
:104338006D6F030E00016E6F1E0E00016F6F000E91
:104348000001706FFEEC4BF0510E00016B6F010E17
:1043580000016C6F640E00016D6F040E00016E6F3A
:104368001E0E00016F6F000E0001706FFEEC4BF027
:10437800180E0001636F030E0001646F43C065F0FF
:104388000001666B47EC4EF0000E436E0101A3512D
:104398000101D8B451D06F0E0001B16F010E0001B8
:1043A800B26F7A0E0001B36FFB0E0001B46FB8C391
:1043B800B5F0B9C3B6F0BAC3B7F0BBC3B8F09CEC5C
:1043C80012F021EC52F09E9A9D8A6F0E00016D6FDB
:1043D800010E00016E6F78EC51F0500E0001636F12
:1043E800C30E646F000E656F000E666FA0EC4EF092
:1043F8009D9A6F0E0001B16F010E0001B26FF50EAC
:104408000001B36FFF0E0001B46F9CEC12F0180EA0
:104418000001636F030E0001646F6F0E0001656F8A
:10442800010E0001666F21EC40F00009D8A404D009
:10443800000E0101A36F00D0180E0001636F030E78
:104448000001646F43C065F00001666B47EC4EF0F5
:10445800000E436E0101A3510101D8B42DD021EC07
:1044680052F09E9A9D8A7D0E00016E6FFF0E00012C
:104478006F6FA9EC50F0500E0001636FC30E646FAC
:10448800000E656F000E666FA0EC4EF09D9A180E38
:104498000001636F030E0001646F6F0E0001656F0A
:1044A800010E0001666F21EC40F00009D8A404D089
:1044B800000E0101A36F00D0180E0001636F030EF8
:1044C8000001646F43C065F00001666B47EC4EF075
:1044D800000E436E0101A3510101D8B42DD021EC87
:1044E80052F09E9A9D8AE10E00016E6FFC0E00014B
:1044F8006F6FA9EC50F0500E0001636FC30E646F2C
:10450800000E656F000E666FA0EC4EF09D9A180EB7
:104518000001636F030E0001646F6F0E0001656F89
:10452800010E0001666F21EC40F00009D8A404D008
:10453800000E0101A36F00D0180E0001636F030E77
:104548000001646F43C065F00001666B47EC4EF0F4
:10455800000E436E0101A3510101D8B42DD021EC06
:1045680052F09E9A9D8A740E00016E6FFF0E000134
:104578006F6FA9EC50F0500E0001636FC30E646FAB
:10458800000E656F000E666FA0EC4EF09D9A180E37
:104598000001636F030E0001646F6F0E0001656F09
:1045A800010E0001666F21EC40F00009D8A404D088
:1045B800000E0101A36F00D0180E0001636F030EF7
:1045C8000001646F43C065F00001666B47EC4EF074
:1045D800000E436E0101A3510101D8B42DD021EC86
:1045E80052F09E9A9D8AB50E00016E6FFF0E000173
:1045F8006F6FA9EC50F0500E0001636FC30E646F2B
:10460800000E656F000E666FA0EC4EF09D9A180EB6
:104618000001636F030E0001646F6F0E0001656F88
:10462800010E0001666F21EC40F00009D8A404D007
:10463800000E0101A36F00D0180E0001636F030E76
:104648000001646F43C065F00001666B47EC4EF0F3
:10465800000E436E0101A3510101D8B450D021ECE2
:1046680052F09E9A9D8AF90E00016E6FFF0E0001AE
:104678006F6FA9EC50F0500E0001636FC30E646FAA
:10468800000E656F000E666FA0EC4EF09D9A6F0EDF
:104698000001B16F010E0001B26FBC0E0001B36FD3
:1046A800FA0E0001B46FB8C3B5F0B9C3B6F0BAC317
:1046B800B7F0BBC3B8F09CEC12F0180E0001666F9F
:1046C800030E0001676F6F0E0001686F010E000195
:1046D800696FD4EC38F00009D8A411D00301B829C7
:1046E8000AE10301B92907E10301BA2904E1030139
:1046F800BB29D8B404D0000E0101A36F00D0180E56
:104708000001636F030E0001646F43C065F0000190
:10471800666B47EC4EF0000E436E21EC52F09E9A09
:104728009D8ACD0E00016E6FFF0E00016F6FA9EC20
:1047380050F0500E0001636FC30E646F000E656F7A
:10474800000E666FA0EC4EF06F0E0001B16F010E07
:104758000001B26FF10E0001B36FFF0E0001B46FDC
:104768009CEC12F09D9A180E0001636F030E000175
:10477800646F6F0E0001656F010E0001666F21EC1A
:1047880040F00009D8A404D0000E0101A36F00D0A6
:10479800180E0001636F030E0001646F43C065F0DB
:1047A8000001666B47EC4EF0000E436E0101A35109
:1047B8000101D8B402D0010E1200000E120012003E
:1047C800EACF35F0E1CF36F0E2CF37F0D9CF38F085
:1047D800DACF39F0F3CF3AF0F4CF3BF0F6CF3CF034
:1047E800F7CF3DF0F8CF3EF0F5CF3FF0F29EF2A0C4
:1047F8008BD000F000F0000E0301F86F000EF96F87
:10480800000EFA6F000EFB6F73EC52F00001606F40
:104818004C5000016019D8B471D0D58EF28A130EAD
:104828005E6E000E0001FD6FD6CF61F00001626B75
:10483800D75000016227640E0001F8615AD00001C8
:10484800F851D8B44CD0650E0001F86148D0FE0E7E
:104858002E6EFF0E2F6E0001F851306E316AD8901F
:10486800303631362E5030262F503122000E30246B
:10487800D96E050E3120DA6E61C0DEFF62C0DDFF41
:10488800090E0001615D520E00016259D8B00CD0CA
:10489800380E0001615D4A0E00016259D8A004D0AB
:1048A8007D98F296F2841ED0510E0001615DC30E10
:1048B80000016259D8B010D0C80E0001615DAF0E7A
:1048C80000016259D8A008D07D98F2968F0E216E0B
:1048D80020688EEC52F006D089EC52F003D089ECB7
:1048E80052F000D0650E0001F86105D00001F82BE8
:1048F80002D07D98F29660C04CF002D000F000D053
:1049080073EC52F0F29045D2F2A432D0F29AD59ECE
:10491800030E0001F8650ED0000E206E050E216E04
:10492800550E226E000E236E010E246E58EC30F0E8
:104938000001FD6F000E206E050E216E000E236E25
:10494800640E226EA6EC4FF0000E0001F86F000115
:10495800FD51D8A409D073EC52F073EC52F04C6EB0
:10496800F2907D88F28600D00D0E5E6EF29411D220
:104978009EA2FCD1532A370E5C18D8A42FD15D50C3
:10498800535CD8A025D1000E536E5050010D000E77
:10499800F324D96E030EF420DA6E630EDE18D8B451
:1049A800CDD00001FC51D8B413D15050010D000EE8
:1049B800F324D96E030EF420DA6EDF50D8A44AD05F
:1049C8000001FA05D8A42BD00001FB05D8A407D014
:1049D80088D0080ECB6E87D0000ECC6EF9D0020EB0
:1049E8000001FB19D8A405D086D048D00001FB2BC4
:1049F800EFD0030E0001FB19D8A402D072D0E9D77A
:104A0800040E0001FB19D8A404D08B9A180E5CD0B0
:104A18001AD0CA948ED0000E0001FC6FD9D0020EB5
:104A28000001FA19D8A4F5D70001FB05D8A403D0D2
:104A38008B8A0B0ECFD7020E0001FB19D8A4E9D739
:104A48008B9A1D0E41D0010E0001FB6F502AC0D079
:104A580070D0BED05050010D000EF324D96E030E55
:104A6800F420DA6EDE04D8A434D00001FA05D8A404
:104A780018D00001FB05D8A404D045D0180ECB6E81
:104A8800B5D7020E0001FB19D8A438D08B9AA1D74C
:104A980035D0F4D7ABD73AD0080ECB6E3ED09CD7E2
:104AA80097D0020E0001FA19D8A4B3D70001FB056C
:104AB800D8A403D08B8A1D0E8DD7020E0001FB19D6
:104AC800D8A404D08B9A0B0ECB6EBDD7CA9431D024
:104AD8007FD00001FA05D8A426D00001FB05D8A490
:104AE80005D08B8A76D70001FB2B76D7020E000102
:104AF800FB19D8A403D08B9AC1D778D7030E00012D
:104B0800FB19D8A403D08B8AB9D770D7040E00013B
:104B1800FB19D8A47ED78B9ABFD7010E0001FB6F73
:104B2800502A5AD755D0020E0001FA19D8A471D7C5
:104B380070D7010E0001FF6F6ED74AD00001FB0548
:104B4800D8A418D00001FA05D8A403D08B8A080E7F
:104B580007D0020E0001FA19D8A404D08B9A0B0EC4
:104B6800CB6E05D0CA94010E0001FF6F00D0000E75
:104B7800CC6E3CD7020E0001FB19D8A420D000014E
:104B8800FA05D8A403D08B9AFA0E06D0020E0001BB
:104B9800FA19D8A403D0950ECB6E05D0CA94010E8D
:104BA8000001FF6F00D00001FB2B51065150D8B413
:104BB8000FD0010E0001FB6F000E506E09D093EC70
:104BC80052F0A192000E546EB180CA9424D700D03E
:104BD8000001FC51D8B4C8D0CA84C6D05D50535C1B
:104BE800D8A0C2D0000E536E070E0001FE19D8A43B
:104BF8000DD0200E5B6E000E4B6E8B96080E0001DA
:104C0800FE6F040E5D6E4B0ECB6EAED0080E00012B
:104C1800FE19D8B405D00A0E0001FE19D8A412D086
:104C2800010E4B6E010E5D6E03011451010B496EAE
:104C38000301D8901733163315331433260ECB6E71
:104C4800090E7CD0090E0001FE19D8A416D0000E5A
:104C58004B6E8B96010E5D6E4950D8B402D0710E22
:104C680001D0260ECB6E00D05B065B50D8A402D0D4
:104C78000B0E64D00A0E62D077D00B0E0001FE191D
:104C8800D8A406D0010E4B6E260ECB6E0C0E56D055
:104C98000C0E0001FE19D8A411D0000E4B6E8B9695
:104CA8004E50D8A404D00D0E0001FE6F5AD00B0E42
:104CB8005D6EF20ECB6E0E0E41D056D00E0E000178
:104CC800FE19D8B405D0120E0001FE19D8A408D0D8
:104CD800010E4B6E040E5D6E960ECB6E0F0E2ED02F
:104CE8000F0E0001FE19D8A409D0000E4B6E8B964A
:104CF800010E5D6E950ECB6E100E20D0100E0001C9
:104D0800FE19D8A408D0010E4B6E010E5D6E260E5A
:104D1800CB6E110E13D0110E0001FE19D8A411D0BC
:104D2800000E4B6E8B961A0E5D6EF60ECB6E4D0610
:104D38004D50D8B402D0120E01D00D0E0001FE6FF6
:104D480013D00D0E0001FE19D8A405D00AD0010E0B
:104D58000001FF6F09D0000E4B6E8B96000E00010C
:104D6800FE6FCA94F4D700D09E9213D0A1A20FD0A0
:104D7800B190030E546005D093EC52F0B180542AE0
:104D880004D0010E0001FF6F00D0A19202D000F004
:104D980000D0F28E3FC0F5FF3EC0F8FF3DC0F7FFE0
:104DA8003CC0F6FF3BC0F4FF3AC0F3FF39C0DAFF5E
:104DB80038C0D9FF37C0E2FF36C0E1FF35C0EAFF8F
:104DC80034C0E9FF33C0FBFF32C0FAFF1100000115
:104DD800926F000192AF3FD10001926D0001925194
:104DE800800A120FD8A0B6D0000E0001746F030E0F
:104DF800736F000E00016C6F0A0E6B6F000E0001DE
:104E0800666F640E656F000192510001636F646BF9
:104E180063BF640729EC49F063C069F064C06AF0B5
:104E280079EC46F0090E000169250001716F000E4A
:104E380000016A210001726F3EEC50F09F0E0001E4
:104E48007125F66EEF0E00017221F76EF86A000EFA
:104E5800F8220900F5CF80F00900F5CF81F00A00AB
:104E6800F5CF82F0000E00016C6F640E6B6F0001CD
:104E780092510001696F6A6B69BF6A0779EC46F065
:104E8800120E000169250001716F000E00016A21F0
:104E98000001726F000E0001746F030E736F3EEC19
:104EA80050F09F0E00017125F66EEF0E0001722181
:104EB800F76EF86A000EF8220900F5CF7DF00900B8
:104EC800F5CF7EF00A00F5CF7FF0C4EC3CF07DC052
:104ED8008FF07EC090F07FC091F08FC07DF090C0C1
:104EE8007EF091C07FF0000E0001746F030E736FA7
:104EF800000E0001666F0A0E656F000192510001F5
:104F0800636F646B63BF640729EC49F063C071F099
:104F180064C072F03EEC50F09F0E00017125F66EF1
:104F2800EF0E00017221F76EF86A000EF8220900F0
:104F3800F5CF80F00900F5CF81F00A00F5CF82F0B7
:104F4800C4EC3CF07DC08CF07EC08DF07FC08EF04C
:104F580012006BD000019251800A750FD8A065D05D
:104F6800000E00016C6F0A0E6B6F00019251000178
:104F7800696F6A6B69BF6A0779EC46F0090E000130
:104F880069250001716F000E00016A210001726F2E
:104F9800000E0001746F030E736F3EEC50F09F0E0D
:104FA80000017125F66EEF0E00017221F76EF86AA6
:104FB800000EF8220900F5CF7DF00900F5CF7EF04C
:104FC8000A00F5CF7FF0000E0001746F030E736FB7
:104FD800000E0001666F0A0E656F00019251000114
:104FE800636F646B63BF640729EC49F063C071F0B9
:104FF80064C072F03EEC50F09F0E00017125F66E11
:10500800EF0E00017221F76EF86A000EF82209000F
:10501800F5CF80F00900F5CF81F00A00F5CF82F0D6
:10502800C4EC3CF08FD7120000D000019251030D60
:105038009F0EF324F66EEF0EF420F76EF86A000E5A
:10504800F8220900F5CF8CF00900F5CF8DF00A00A1
:10505800F5CF8EF0120000019251800A120FD8A0ED
:10506800B6D0000E0001746F030E736F000E0001BE
:105078006C6F0A0E6B6F000E0001666F640E656F31
:10508800000192510001636F646B63BF640729ECF0
:1050980049F063C069F064C06AF079EC46F0090E23
:1050A800000169250001716F000E00016A210001ED
:1050B800726F3EEC50F0C60E00017125F66EEF0ED1
:1050C80000017221F76EF86A000EF8220900F5CF88
:1050D80080F00900F5CF81F00A00F5CF82F0000ECC
:1050E80000016C6F640E6B6F000192510001696FD3
:1050F8006A6B69BF6A0779EC46F0120E00016925F0
:105108000001716F000E00016A210001726F000E2C
:105118000001746F030E736F3EEC50F0C60E000171
:105128007125F66EEF0E00017221F76EF86A000E17
:10513800F8220900F5CF7DF00900F5CF7EF00A00CE
:10514800F5CF7FF0C4EC3CF07DC08FF07EC090F0CE
:105158007FC091F08FC07DF090C07EF091C07FF04D
:10516800000E0001746F030E736F000E0001666F6E
:105178000A0E656F000192510001636F646B63BF93
:10518800640729EC49F063C071F064C072F03EEC2A
:1051980050F0C60E00017125F66EEF0E0001722167
:1051A800F76EF86A000EF8220900F5CF80F00900C2
:1051B800F5CF81F00A00F5CF82F0C4EC3CF07DC059
:1051C8008CF07EC08DF07FC08EF012006BD0000195
:1051D8009251800A750FD8A065D0000E00016C6F3F
:1051E8000A0E6B6F000192510001696F6A6B69BF0B
:1051F8006A0779EC46F0090E000169250001716F14
:10520800000E00016A210001726F000E0001746F28
:10521800030E736F3EEC50F0C60E00017125F66E5A
:10522800EF0E00017221F76EF86A000EF8220900ED
:10523800F5CF7DF00900F5CF7EF00A00F5CF7FF0BD
:10524800000E0001746F030E736F000E0001666F8D
:105258000A0E656F000192510001636F646B63BFB2
:10526800640729EC49F063C071F064C072F03EEC49
:1052780050F0C60E00017125F66EEF0E0001722186
:10528800F76EF86A000EF8220900F5CF80F00900E1
:10529800F5CF81F00A00F5CF82F0C4EC3CF08FD74F
:1052A800120000D000019251030DC60EF324F66ED1
:1052B800EF0EF420F76EF86A000EF8220900F5CF19
:1052C8008CF00900F5CF8DF00A00F5CF8EF01200B2
:1052D8001200000E0201FE6F000E0201F86F000EB0
:1052E8000201F96F010E0201FC6F000E0201FA6F54
:1052F800940E0001636F020E0001646F000E00013E
:10530800666F640E656F47EC4EF0A2EC52F040EC0D
:105318004FF048EC3BF072EC48F08CC040F08DC088
:1053280041F08EC042F040C063F041C064F042C01A
:1053380065F0CD0E0001666F6C0E0001676F400EC0
:105348000001686FE1EC46F00001D8B002D0220EEF
:1053580015D0000E0001636FF00E0001646F410E5E
:105368000001656F40C066F041C067F042C068F058
:10537800E1EC46F00001D8B004D0620E0201FC6FE7
:1053880000D00201FC05D8A427D0000E0201FE6F50
:10539800090E0201FE6501D01DD08B828B94500E40
:1053A8000001636FC30E646F000E656F000E666FB9
:1053B800A0EC4EF08B928B84500E0001636FC30EED
:1053C800646F000E656F000E666FA0EC4EF0020170
:1053D800FE2BDED78B9424D0000E0201FE6F090E3F
:1053E8000201FE6501D01CD08B82A00E0001636F04
:1053F800860E646F010E656F000E666FA0EC4EF0AE
:105408008B92A00E0001636F860E646F010E656FAC
:10541800000E666FA0EC4EF00201FE2BE0D700D024
:105428005EEC52F00201FD6F000E0201FB6F00D02E
:10543800FDC0F8F2F9C0F9F272EC48F08CC040F007
:105448008DC041F08EC042F0220E0201FC19D8A492
:1054580018D040C0A2F041C0A3F042C0A4F0000E92
:105468000001A56F000E0001A66F3F0E0001A76F97
:10547800F5EC4EF0A2C040F0A3C041F0A4C042F049
:105488001DD0620E0201FC19D8A418D040C096F0B5
:1054980041C097F042C098F0000E0001996F000ECD
:1054A80000019A6F3F0E00019B6F5AEC33F096C0D3
:1054B80040F097C041F098C042F000D040C063F07F
:1054C80041C064F042C065F0CD0E0001666F6C0EFD
:1054D8000001676F400E0001686FE1EC46F00001C3
:1054E800D8B002D0220E17D0000E0001636FF00E64
:1054F8000001646F410E0001656F40C066F041C055
:1055080067F042C068F0E1EC46F00001D8B002D084
:10551800620E01D0010E0201FC6F00D00201F851A9
:105528000201D8B417D05550561057105810D8B497
:1055380011D0FD0E0001E96F000E0001EA6F55C0A1
:10554800EBF056C0ECF057C0EDF058C0EEF0C5ECEB
:1055580035F000D05EEC52F00201FD6F0201FB5104
:105568000201FD19D8B439D00201FD510201D8B4A5
:1055780032D0000E0001636F040E0001646FFFC299
:1055880065F00001666B47EC4EF0000E0201FF6FFC
:10559800400E0001636F420E646F0F0E656F000EC0
:1055A800666FA0EC4EF00D0E0001706FF00E00015A
:1055B800716F85EC4FF0050E00016E6FF20E000161
:1055C8006F6FA9EC50F03E0E5AEC50F021EC52F0FF
:1055D8009E9A9D8A02D09D9A00D00201F95102013B
:1055E800D8B479D00201FD510201D8B474D0940E18
:1055F8000001636F020E0001646F000E0001666F08
:10560800640E656F47EC4EF0000E00016B6F040EE0
:1056180000016C6F940E00016D6F020E00016E6F39
:10562800FFC26FF0000E0001706FFEEC4BF0FFC27E
:10563800FAF2000E0001636F040E0001646FFFC2EE
:1056480065F00001666B47EC4EF0000E0201FF6F3B
:10565800000E0001F96F020194510201D8B40BD079
:10566800940E0001F56F020E0001F66FFAC2F7F012
:10567800E7EC00F000D0000E0001636F040E00019B
:10568800646FFFC265F00001666B47EC4EF0000ED8
:105698000201FF6F000E0001F96F050E00016E6F29
:1056A800F20E00016F6FA9EC50F03E0E5AEC50F06C
:1056B8000001FD51D8B404D0000E0001FD6F00D0E8
:1056C80057EC52F04C6EF2907D88F28621EC52F045
:1056D8009E9A9D8A00D00301FB510301FA1110E143
:1056E800880E0301F85D130E0301F959D8B008D0EC
:1056F800010E0301F827000EF923FA23FB2326D015
:10570800880E0301F81922E1130E0301F9190301A8
:10571800FA110301FB11D8A419D0010E0301F827CF
:10572800000EF923FA23FB23000E556E000E566E69
:10573800000E576E000E586E000E0001FD6F57ECFC
:1057480052F04C6EF2907D88F28600D00101FF5134
:10575800D8B433D0000E0001636F040E0001646FEB
:10576800000E0001666F640E656F47EC4EF0000E88
:105778000201FF6F050E00016E6FF20E00016F6FE0
:10578800A9EC50F0540E0001706FFE0E0001716F0D
:1057980085EC4FF0050E00016E6FF20E00016F6F81
:1057A800A9EC50F03E0E76EC50F0000E0101FF6FB0
:1057B80021EC52F09E9A9D8A00D0FDC2FBF238D6A9
:1057C800E5EF00F0000E00017D6F000E00017F6F15
:1057D800000E806F000E816F000E826F000E0001B8
:1057E8007A6F010E0001796F000E00017B6F000EC9
:1057F80000017C6F38D06FC0D9FF70C0DAFF300E5F
:10580800DE18D8A42AD000017B2B00016F4B702B27
:105818006FC0D9FF70C0DAFF780EDE18D8B408D090
:105828006FC0D9FF70C0DAFF580EDE18D8A415D0A3
:1058380000016F4B702B6FC0D9FF70C0DAFF2F0EBD
:10584800DF640BD06FC0D9FF70C0DAFF3A0EDF609B
:1058580004D0010E00017C6F00D000017B2B0001F9
:105868006F4B702B00D06FC0D9FF70C0DAFFDF50CC
:10587800D8A4C1D700017B51010DF35000016F5F1F
:10588800F4500001705B01D03BD06FC0D9FF70C0ED
:10589800DAFF3D0EDE18D8B411D06FC0D9FF70C042
:1058A800DAFF2C0EDE18D8B409D06FC0D9FF70C04B
:1058B800DAFFDF50D8B402D023D000D06FC0D9FFB0
:1058C80070C0DAFFDF50D8A403D0010E12001DD03B
:1058D8006FC0D9FF70C0DAFF3D0EDE18D8A408D01B
:1058E8006FC0D9FF70C0DAFF2C0EDE18D8B40DD007
:1058F800000171510001795DD8B007D00001792B02
:1059080000016F4B702BC1D700D06FC0D9FF70C09A
:10591800DAFFDF50D8A402D0010E120000016F4B4D
:10592800702B6FC0D9FF70C0DAFF200EDE18D8B414
:105938001ED06FC0D9FF70C0DAFF3D0EDE18D8B494
:1059480008D06FC0D9FF70C0DAFF2C0EDE18D8A4BB
:1059580003D0020E120019D06FC0D9FF70C0DAFF51
:105968002D0EDE18D8A407D0010E00017A6F0001B1
:105978006F4B702B0AD06FC0D9FF70C0DAFFDF50B1
:10598800D8A403D0030E120000D000017C510001FE
:10599800D8B41CD1000E00017A6F04D000016F4BFF
:1059A800702B00D06FC0D9FF70C0DAFF780EDE18F8
:1059B800D8B408D16FC0D9FF70C0DAFF580EDE180E
:1059C800D8B400D1EBD7FED0FDD000D100017C5176
:1059D8000001D8A45BD06FC0D9FF70C0DAFF2F0ECA
:1059E800DF64F0D06FC0D9FF70C0DAFF3A0EDF6015
:1059F800E9D07FC063F080C064F081C065F082C0E8
:105A080066F00A0E0001676F000E686F000E696F7E
:105A1800000E6A6F04EC4DF063C07FF064C080F044
:105A280065C081F066C082F06FC0D9FF70C0DAFF30
:105A3800DF500001746FD00E000174250001756FEE
:105A48000001766BFF0E76230001776B000176BFAD
:105A58007707000177510001786F00017551000147
:105A68007F27000176510001802300017751000152
:105A78008123000178510001822300017D2B200E33
:105A880000017D659FD0040E12009CD06FC0D9FF25
:105A980070C0DAFF2F0EDF6408D06FC0D9FF70C066
:105AA800DAFF390EDF641FD000D06FC0D9FF70C095
:105AB800DAFF400EDF6408D06FC0D9FF70C0DAFF8C
:105AC800460EDF6410D000D06FC0D9FF70C0DAFF77
:105AD800600EDF6477D06FC0D9FF70C0DAFF670E41
