:04000000EAEF00F033
:10000800FACF29F0FBCF2AF0E9CF2BF03BEF2EF007
:10001800D8CF05F0E8CF06F0E0CF07F0FACF08F028
:10002800FBCF09F0E9CF0AF0EACF0BF0E1CF0CF0F3
:10003800E2CF0DF0D9CF0EF0DACF0FF0F3CF10F0FA
:10004800F4CF11F0F6CF12F0F7CF13F0F8CF14F089
:10005800F5CF15F0000E166EF29C9EAA86D098EC8D
:1000680058F0166E16EC59F00009D8A412D0630E99
:100078003E5CD8B078D03E50010D0401140EF32434
:10008800D96E0401040EF420DA6E16C0DFFF3E2A92
:100098006AD016500D0AD8B455D016500A0AD8B4EA
:1000A80051D016507F0AD8B404D01650080AD8A4E4
:1000B80023D00301EB51D8B41FD00301EB290BEC7B
:1000C80058F00301EB070301EB51010D0401780E11
:1000D800F324D96E0401040EF420DA6E000EDF6EEC
:1000E8003E0E79EC58F00401040E036E0401780EFC
:1000F800026E1EEC58F037D0620E0301EB5DD8B0EB
:100108001CD00301EA672FD016504CEC58F00009B8
:10011800D8B429D01650C7EC58F00301EB51010DA3
:100128000401780EF324D96E0401040EF420DA6E6B
:1001380016C0DFFF0301EB2B16D09D9A010E0301B9
:10014800E96F11D00301EB51D8B40DD00301EA6770
:100158000AD09D9AF00E046E510E036ECBEC57F048
:10016800010E0301EA6F9E9A0DD09EA00AD0512A73
:100178005150030AD8A403D08B948B92CD909E90B3
:1001880001D000F0F28C15C0F5FF14C0F8FF13C0C1
:10019800F7FF12C0F6FF11C0F4FF10C0F3FF0FC045
:1001A800DAFF0EC0D9FF0DC0E2FF0CC0E1FF0BC0A3
:1001B800EAFF0AC0E9FF09C0FBFF08C0FAFF07C051
:1001C800E0FF06C0E8FF05C0D8FF1000CFEF50F0F1
:1001D800010E02018A6F000E0201866F000E0201F5
:1001E800876F000E0201886F000E0201896F000EF2
:1001F80002018E6F000E02018F6F000E0201906FD8
:10020800000E0201916F000E0201926F000E0201B2
:10021800936F000E02017C6F000E02017D6F000ECD
:1002280002017E6F000E02017F6F000E02018C6FCB
:10023800000E0201856F000E0201846F000E02019C
:100248007A6F000E0201806F000E0201816F000EAE
:100258000201826F000E0201836F000E02017B6FA4
:100268000201020E0001616F02010C0E0001606FB5
:10027800000E0001636F640E0001626F49EC55F0D7
:100288000201020E0001616F0201700E0001606F31
:10029800000E0001636F0A0E0001626F49EC55F011
:1002A8000001FAC064F00001F9C063F0FF0E00011C
:1002B800666FBA0E0001656F5AEC3FF00009D8B4BA
:1002C80087D00001FAC064F00001F9C063F0EF0EB6
:1002D8000001666FD80E0001656F16EC52F0000938
:1002E800D8B412D0F00E0001696F130E0001686FC8
:1002F800010E00016A6F0C0E00016B6F080E000101
:100308006C6F78EC56F057D00001FAC064F0000129
:10031800F9C063F0EF0E0001666FE70E0001656F2C
:1003280016EC52F00009D8B412D0F00E0001696F33
:100338001F0E0001686F010E00016A6F0C0E0001AC
:100348006B6F080E00016C6F78EC56F034D000012A
:10035800FAC064F00001F9C063F0EF0E0001666FA7
:10036800F60E0001656F16EC52F00009D8B412D0F1
:10037800F00E0001696F2B0E0001686F010E00017D
:100388006A6F0C0E00016B6F080E00016C6F78EC41
:1003980056F011D0F00E0001636F050E0001626F78
:1003A800B5EC56F0F00E0001636F510E0001626F5C
:1003B800B5EC56F0120002018A51D8B41200FA0EB8
:1003C8000001656F240E0001646FEDEC55F012001A
:1003D8000001FAC064F00001F9C063F0FF0E0001EB
:1003E800666FC00E0001656F5AEC3FF00009D8B483
:1003F8007CD10001FAC064F00001F9C063F0EF0E8F
:100408000001666F140E0001656F16EC52F00009CA
:10041800D8B412D0EF0E0001696F480E0001686F62
:10042800020E00016A6F100E00016B6F080E0001CA
:100438006C6F78EC56F04CD10001FAC064F0000102
:10044800F9C063F0EE0E0001666FEE0E0001656FF5
:1004580016EC52F00009D8B412D0EF0E0001696F03
:10046800380E0001686F020E00016A6F100E00015D
:100478006B6F080E00016C6F78EC56F029D1000103
:10048800FAC064F00001F9C063F0EF0E0001666F76
:10049800260E0001656F16EC52F00009D8B412D090
:1004A800EF0E0001696F680E0001686F020E00010F
:1004B8006A6F100E00016B6F080E00016C6F78EC0C
:1004C80056F006D10001FAC064F00001F9C063F0EB
:1004D800EF0E0001666F010E0001656F16EC52F019
:1004E8000009D8B412D0EF0E0001696F580E000150
:1004F800686F020E00016A6F100E00016B6F080E24
:1005080000016C6F78EC56F0E3D00001FAC064F09B
:100518000001F9C063F0EE0E0001666FB20E000133
:10052800656F16EC52F00009D8B412D0EF0E000136
:10053800696F880E0001686F020E00016A6F100E65
:1005480000016B6F080E00016C6F78EC56F0C0D09C
:100558000001FAC064F00001F9C063F0EE0E00017A
:10056800666F730E0001656F16EC52F00009D8B47F
:1005780012D0EF0E0001696F780E0001686F020E4D
:1005880000016A6F100E00016B6F080E00016C6F9E
:1005980078EC56F09DD00001FAC064F00001F9C073
:1005A80063F0EE0E0001666FC60E0001656F16EC73
:1005B80052F00009D8B412D0EF0E0001696FA80EEE
:1005C8000001686F020E00016A6F100E00016B6F68
:1005D800080E00016C6F78EC56F07AD00001FAC072
:1005E80064F00001F9C063F0EE0E0001666F880E3A
:1005F8000001656F16EC52F00009D8B412D0EF0E66
:100608000001696F980E0001686F020E00016A6FA1
:10061800100E00016B6F080E00016C6F78EC56F03D
:1006280057D00001FAC064F00001F9C063F0EE0E83
:100638000001666FDA0E0001656F16EC52F00009D2
:10064800D8B412D0EF0E0001696FC80E0001686FB0
:10065800020E00016A6F100E00016B6F080E000198
:100668006C6F78EC56F034D00001FAC064F00001E9
:10067800F9C063F0EE0E0001666F9D0E0001656F14
:1006880016EC52F00009D8B412D0EF0E0001696FD1
:10069800980E0001686F030E00016A6F100E0001CA
:1006A8006B6F080E00016C6F78EC56F011D0F00EED
:1006B8000001636F050E0001626FB5EC56F0F00E95
:1006C8000001636F510E0001626FB5EC56F0120025
:1006D80002018A51D8B41200FA0E0001656F410E6A
:1006E8000001646FEDEC55F012000001FAC064F0EF
:1006F8000001F9C063F0FF0E0001666FE80E00010B
:10070800656F5AEC3FF00009D8B42BD20001FAC04B
:100718006DF00001F9C06CF0020E00016E6F02016D
:10072800020E0001706F0201900E00016F6F25EC40
:1007380033F00009D8A4E7D0000E0201905D010E45
:1007480002019159000E02019259000E02019359BB
:10075800D8A011D0F90E0001656F0F0E0001646F6B
:10076800EDEC55F0F00E0001636F510E0001626F61
:10077800B5EC56F0120090C28FF20001FAC06DF08D
:100788000001F9C06CF0010E00016E6F0201020E4B
:100798000001706F0201900E00016F6F25EC33F0BD
:1007A8000009D8A4A7D0000E0201905D010E020135
:1007B8009159000E02019259000E02019359D8A0D6
:1007C80011D0F90E0001656F2E0E0001646FEDEC7B
:1007D80055F0F00E0001636F510E0001626FB5EC29
:1007E80056F0120090C28EF20201020E0001AF6FA5
:1007F80002010C0E0001AE6FFC0E0001B16F7A0E03
:100808000001B06F020100018EC2B2F00001B36BAB
:1008180047EC15F00201020E0001656F02010C0E93
:100828000001646FD1EC56F00201020E0001AF6FB7
:1008380002010C0E0001AE6FFC0E0001B16F650ED7
:100848000001B06F020100018FC2B2F00001B36B6A
:1008580047EC15F00201020E0001656F02010C0E53
:100868000001646FD1EC56F08FC264F002018E5122
:100878003DEC44F064C086F265C087F266C088F239
:1008880067C089F286C275F087C276F088C277F0B1
:1008980089C278F0000E0001796F78EC51F00201FE
:1008A800020E0001AF6F02010C0E0001AE6FFB0ECD
:1008B8000001B16FB10E0001B06F86C2B2F087C2FD
:1008C800B3F088C2B4F089C2B5F047EC15F0020164
:1008D800020E0001656F02010C0E0001646FD1EC7D
:1008E80056F0F00E0001636F510E0001626FB5EC17
:1008F80056F01200F80E0001656FEF0E0001646FEC
:10090800EDEC55F012000001FAC06DF00001F9C0DD
:100918006CF0010E00016E6F0201020E0001706F93
:100928000201860E00016F6F25EC33F00009D8A490
:100938009ED086C275F087C276F088C277F089C2E9
:1009480078F0000E0001796F78EC51F00201020E88
:100958000001AF6F02010C0E0001AE6FFD0E000129
:10096800B16F0A0E0001B06F86C2B2F087C2B3F051
:1009780088C2B4F089C2B5F047EC15F00201020E46
:100988000001656F02010C0E0001646FD1EC56F096
:1009980086C264F087C265F088C266F089C267F0D3
:1009A8000201020E0001696F02018E0E0001686FDC
:1009B8000201020E00016B6F02018F0E00016A6FC7
:1009C80077EC50F00009D8B441D00201020E0001C2
:1009D800AF6F02010C0E0001AE6FFC0E0001B16F8B
:1009E8007E0E0001B06F020100018EC2B2F000015C
:1009F800B36B47EC15F00201020E0001656F0201AE
:100A08000C0E0001646FD1EC56F00201020E0001D9
:100A1800AF6F02010C0E0001AE6FF50E0001B16F51
:100A28008D0E0001B06F020100018FC2B2F000010B
:100A3800B36B47EC15F00201020E0001656F02016D
:100A48000C0E0001646FD1EC56F008D0F80E0001CE
:100A5800656F0D0E0001646FEDEC55F0F00E0001AE
:100A6800636F510E0001626FB5EC56F01200000181
:100A7800FAC061F00001F9C060F0FF0E0001636F79
:100A8800E60E0001626F03EC47F00009D8A410D00D
:100A9800F00E0001636F510E0001626FB5EC56F065
:100AA800F90E0001656FE80E0001646FEDEC55F07A
:100AB800F00E0001636F510E0001626FB5EC56F045
:100AC800FF0E0001656FA60E0001646FEDEC55F096
:100AD800FC0E0001656FE20E0001646FEDEC55F04D
:100AE800FF0E0001656F4D0E0001646FEDEC55F0CF
:100AF800FC0E0001656F230E0001646FEDEC55F0EC
:100B0800F00E0001636F510E0001626FB5EC56F0F4
:100B1800FF0E0001656F7E0E0001646FEDEC55F06D
:100B2800FD0E0001656FB80E0001646FEDEC55F025
:100B3800FF0E0001656F4F0E0001646FEDEC55F07C
:100B4800FE0E0001656F100E0001646FEDEC55F0AC
:100B5800F00E0001636F510E0001626FB5EC56F0A4
:100B680012000001FAC064F00001F9C063F0FE0E43
:100B78000001666FF30E0001656F5AEC3FF0000943
:100B8800D8B4EBD20001FAC070F00001F9C06FF0E0
:100B980069EC3DF00009D8B487D20001FB2B0001B5
:100BA800FAC06DF00001F9C06CF0010E00016E6F23
:100BB8000201020E0001706F0201900E00016F6FBA
:100BC80025EC33F00009D8A46FD20D0E0201006F96
:100BD800016B026B036B020100510201905D02017F
:100BE8000151020191590201025102019259020177
:100BF800035102019359D8B03ED20201935190118A
:100C080091119211D8B437D20001FAC064F00001F2
:100C1800F9C063F0FD0E0001666F420E0001656FBA
:100C28005AEC3FF00009D8A425D1FE0E0201006F4E
:100C3800FF0E016F020190C202F2020191C203F29B
:100C4800D89002010237033702010051020102273E
:100C58000201015102010323DA0E0201046F020EA0
:100C6800056F02010251020104270201035102012A
:100C78000523010E02010425D96E000E020105218B
:100C8800DA6EDF500001646FFE0E0201066FFF0E80
:100C9800076F020190C208F2020191C209F2D890CE
:100CA800020108370937020106510201082702012B
:100CB8000751020109230201DA0E02010825D96E43
:100CC8000201020E02010921DA6EDF503DEC44F008
:100CD80064C07CF265C07DF266C07EF267C07FF2B8
:100CE80002017C29D8B47E297D117F11D8B4B1D0F6
:100CF8007CC275F07DC276F07EC277F07FC278F054
:100D0800000E0001796F78EC51F00201020E00012B
:100D1800AF6F02010C0E0001AE6FFC0E0001B16F47
:100D28008F0E0001B06F7CC2B2F07DC2B3F07EC2FC
:100D3800B4F07FC2B5F047EC15F00201020E0001D5
:100D4800656F02010C0E0001646FD1EC56F00201D0
:100D5800020E0001AF6F02010C0E0001AE6FF50E1E
:100D68000001B16F720E0001B06FFE0E0201006F3C
:100D7800FF0E016F020190C202F2020191C203F25A
:100D8800D8900201023703370201005102010227FD
:100D980002010151020103230201DA0E02010225B8
:100DA800D96E0201020E02010321DA6EDF50020140
:100DB800046F020104510001B26F0001B36BFE0E13
:100DC8000201056FFF0E066F020190C207F20201D1
:100DD80091C208F2D890020107370837020105517D
:100DE800020107270201065102010823DA0E020157
:100DF800096F020E0A6F0201075102010927020159
:100E0800085102010A23010E02010925D96E000EBC
:100E180002010A21DA6EDF5002010B6F02010B5149
:100E28000001B46F0001B56B47EC15F00201020E2A
:100E38000001656F02010C0E0001646FD1EC56F0E1
:100E4800F00E0001636F510E0001626FB5EC56F0B1
:100E58001200F00E0001636F510E0001626FB5ECD5
:100E680056F0F30E0001656FA50E0001646FEDECFE
:100E780055F0120064EC52F00009D8B41200ECC32B
:100E880064F0EDC365F0EEC366F0EFC367F00201EE
:100E9800020E0001696F02018E0E0001686F0201E7
:100EA800020E00016B6F02018F0E00016A6F77EC72
:100EB80050F0FE0E0201006FFF0E016F020190C29A
:100EC80002F2020191C203F2D890020102370337FD
:100ED800020100510201022702010151020103230C
:100EE8000201DA0E02010225D96E0201020E020188
:100EF8000321DA6E02018EC2DFFFFE0E0201006FCF
:100F0800FF0E016F020190C202F2020191C203F2C8
:100F1800D89002010237033702010051020102276B
:100F28000201015102010323DA0E0201046F020ECD
:100F3800056F020102510201042702010351020157
:100F48000523010E02010425D96E000E02010521B8
:100F5800DA6E02018FC2DFFFC0EC4FF0F00E000125
:100F6800636F510E0001626FB5EC56F00201020E7C
:100F78000001AF6F02010C0E0001AE6FF30E00010D
:100F8800B16FD40E0001B06F90C2B2F091C2B3F04D
:100F980092C2B4F093C2B5F0ECC3B6F0EDC3B7F0AB
:100FA800EEC3B8F0EFC3B9F047EC15F00201020E3A
:100FB8000001656F02010C0E0001646FD1EC56F060
:100FC8000201020E0001AF6F02010C0E0001AE6FAC
:100FD800F50E0001B16F720E0001B06F0201000141
:100FE8008EC2B2F00001B36B020100018FC2B4F0EF
:100FF8000001B56B47EC15F00201020E0001656FA8
:1010080002010C0E0001646FD1EC56F0F00E0001E5
:10101800636F510E0001626FB5EC56F0000E0201CD
:10102800946F090E0201946501D012008B84500E52
:101038000001606FC30E0001616F000E0001626F56
:10104800000E0001636F8CEC54F08B94500E00017D
:10105800606FC30E0001616F000E0001626F000E29
:101068000001636F8CEC54F00201942B090E02010D
:101078009465DCD71200F00E0001636F510E000179
:10108800626FB5EC56F0F70E0001656F390E00017E
:10109800646FEDEC55F0F00E0001636F510E000126
:1010A800626FB5EC56F01200F00E0001636F510E3E
:1010B8000001626FB5EC56F0F70E0001656F820E05
:1010C8000001646FEDEC55F0F00E0001636F510EF6
:1010D8000001626FB5EC56F0FF0E0001656FA60EB9
:1010E8000001646FEDEC55F0FE0E0001656F210EF6
:1010F8000001646FEDEC55F0FD0E0001656F320ED6
:101108000001646FEDEC55F0F00E0001636F510EB5
:101118000001626FB5EC56F0FF0E0001656F7E0EA0
:101128000001646FEDEC55F0FE0E0001656F6F0E67
:101138000001646FEDEC55F0FD0E0001656FCA0EFD
:101148000001646FEDEC55F0F00E0001636F510E75
:101158000001626FB5EC56F012000001FAC064F0AD
:101168000001F9C063F0FF0E0001666FAD0E0001CB
:10117800656F5AEC3FF00009D8A412D00001FAC0FC
:1011880064F00001F9C063F0FF0E0001666F870E7E
:101198000001656F5AEC3FF00009D8B434EF0DF048
:1011A8000001FAC064F00001F9C063F0FF0E00010D
:1011B800666FAD0E0001656F5AEC3FF00009D8B4B8
:1011C80002D0010E01D0000E02017A6F0001FAC0B0
:1011D80070F00001F9C06FF069EC3DF00009D8A487
:1011E80011D0F60E0001656FEF0E0001646FEDEC93
:1011F80055F0F00E0001636F510E0001626FB5ECFF
:1012080056F012000001FB2BF00E0001636F510E27
:101218000001626FB5EC56F00001FAC06DF00001F4
:10122800F9C06CF0010E00016E6F0201020E0001A0
:10123800706F0201900E00016F6F25EC33F000090A
:10124800D8A403D090C28DF211D0F60E0001656FBC
:10125800EF0E0001646FEDEC55F0F00E0001636FC6
:10126800510E0001626FB5EC56F0120002018D516B
:10127800D8B404D0020E02018D6511D0F70E00011A
:10128800656F140E0001646FEDEC55F0F00E00016F
:10129800636F510E0001626FB5EC56F01200000149
:1012A800FAC061F00001F9C060F0010E0001626F40
:1012B8000201020E0001646F0201700E0001636FEB
:1012C8006EEC4BF00009D8B411D0F90E0001656F2F
:1012D800AA0E0001646FEDEC55F0F00E0001636F8B
:1012E800510E0001626FB5EC56F012000201020EB9
:1012F8000001616F0201700E0001606FC8EC55F0CB
:1013080002017151D8B405D002017151200AD8A444
:1013180096D3000E0201716F02018D05D8A411D079
:10132800F00E0001646F450E0001636F0201020EAA
:101338000001666F0201700E0001656F5AEC3FF004
:1013480015D002018D51020AD8A416D0F00E000162
:10135800646F490E0001636F0201020E0001666F9F
:101368000201700E0001656F5AEC3FF00009D8A425
:1013780003D0000E02018A6F02018A6711D0F90EAC
:101388000001656FC90E0001646FEDEC55F0F00EB9
:101398000001636F510E0001626FB5EC56F0120048
:1013A80002018D05D8A415D002017051640AD8A491
:1013B80002D0000E20D002017051650AD8A402D0D4
:1013C800010E19D002017051660AD8A41200020E4B
:1013D80012D002018D51020AD8A4AAD0020170517C
:1013E800620AD8A402D0030E06D002017051640A22
:1013F800D8A404D0040E02018B6F9AD00201705158
:10140800680AD8A412000401040E0001616F0401E7
:10141800780E0001606F03010001EBC362F0000168
:10142800636B49EC55F0000E0301EB6F000E0301EE
:10143800EA6FFE0E0001636F7D0E0001626FB5EC6E
:1014480056F0F00E0001636F510E0001626FB5ECAB
:1014580056F03E0E58EC58F0000E02018C6FB5ECB9
:1014680058F09E9A9D8A25D0E00E0001606F930E79
:101478000001616F040E0001626F000E0001636FCE
:101488008CEC54F002018C2B190E02018C6511D0E2
:10149800F00E0001636F510E0001626FB5EC56F05B
:1014A800F10E0001656FE90E0001646FEDEC55F077
:1014B80012000301EA51D8B4D7D79D9A010E020150
:1014C8008A6F300E0401786504D0330E0401786504
:1014D8000BD0F20E0001656F1B0E0001646FEDEC7E
:1014E80055F0000E02018A6F04017851D00F0201F5
:1014F800856F02018551040F02018B6F0401040EF0
:101508000001616F0401780E0001606F03010001A2
:10151800EBC362F00001636B49EC55F0000E030168
:10152800EB6F000E0301EA6F02018A6701D0120017
:1015380002017A51D8B4B9D164EC52F00009D8B498
:101548001200F00E0001636F510E0001626FB5ECDE
:1015580056F0ECC364F0EDC365F0EEC366F0EFC37C
:1015680067F00201020E0001696F02018E0E000190
:10157800686F0201020E00016B6F02018F0E0001FD
:101588006A6F77EC50F0000E02018A6F000E0201BC
:10159800946F46D002018B51060D950E0201006F23
:1015A800020E016FF35002010027F45002010123DB
:1015B80002019451020DF35002010025D96EF45036
:1015C80002010121DA6EDF50D8A428D002018B5124
:1015D800060D950E0201006F020E016FF350020115
:1015E8000027F4500201012302019451020DF35027
:1015F80002010027F45002010123010E0201002517
:10160800D96E000E02010121DA6EDF50D8A406D08F
:1016180094C284F2010E02018A6F06D00201942B53
:10162800020E02019465B6D702018A6709D0F60E48
:101638000001656F4E0E0001646FEDEC55F012006D
:10164800010E02018A6F02018451D8B450D0000EF5
:101658000201946F46D002018B51060D950E0201CE
:10166800006F020E016FF35002010027F4500201CF
:10167800012302019451020DF35002010025D96E95
:10168800F45002010121DA6E02018E51DF6227D087
:1016980002018B51060D950E0201006F020E016FBB
:1016A800F35002010027F450020101230201945172
:1016B800020DF35002010027F45002010123010E2C
:1016C80002010025D96E000E02010121DA6E020125
:1016D8008F51DF6204D0000E02018A6F08D0020128
:1016E800942B020184510201945DD8A0B4D7020161
:1016F8008A6709D0F50E0001656F160E0001646F48
:10170800EDEC55F0120002018B51060D950E020109
:10171800006F020E016FF35002010027F45002011E
:10172800012302018451020DF35002010025D96EF4
:10173800F45002010121DA6E02018EC2DFFF0201BC
:101748008B51060D950E0201006F020E016FF350CA
:1017580002010027F4500201012302018451020D05
:10176800F35002010027F45002010123010E020187
:101778000025D96E000E02010121DA6E02018FC226
:10178800DFFFC0EC4FF002018551D8B42BD0020125
:10179800020E0001AF6F02010C0E0001AE6FF00ED9
:1017A8000001B16F940E0001B06FECC3B2F0EDC34D
:1017B800B3F0EEC3B4F0EFC3B5F0020100018DC27F
:1017C800B6F00001B76B0201000170C2B8F0000169
:1017D800B96B0201000185C2BAF00001BB6B47EC8E
:1017E80015F024D00201020E0001AF6F02010C0EA9
:1017F8000001AE6FF10E0001B16F480E0001B06F2D
:10180800ECC3B2F0EDC3B3F0EEC3B4F0EFC3B5F080
:10181800020100018DC2B6F00001B76B02010001A0
:1018280070C2B8F00001B96B47EC15F00201020E66
:101838000001656F02010C0E0001646FD1EC56F0D7
:10184800F00E0001636F510E0001626FB5EC56F0A7
:10185800000E0201946F090E0201946501D0120076
:101868008B84500E0001606FC30E0001616F000E83
:101878000001626F000E0001636F8CEC54F08B94D2
:10188800500E0001606FC30E0001616F000E000171
:10189800626F000E0001636F8CEC54F00201942B10
:1018A800090E02019465DCD71200000E0201946F44
:1018B8003ED002018B51060D950E0201006F020EFB
:1018C800016FF35002010027F450020101230201C5
:1018D8009451020DF35002010025D96EF450020113
:1018E8000121DA6E000EDF6E02018B51060D950E96
:1018F8000201006F020E016FF35002010027F4503D
:101908000201012302019451020DF3500201002744
:10191800F45002010123010E02010025D96E000EC8
:1019280002010121DA6E000EDF6E0201942B020E15
:1019380002019465BED7C0EC4FF002018551D8B4BE
:1019480023D00201020E0001AF6F02010C0E00014C
:10195800AE6FF10E0001B16F7E0E0001B06F020193
:1019680000018DC2B2F00001B36B0201000170C228
:10197800B4F00001B56B0201000185C2B6F00001A8
:10198800B76B47EC15F01CD00201020E0001AF6FD7
:1019980002010C0E0001AE6FF50E0001B16FF60EDC
:1019A8000001B06F020100018DC2B2F00001B36BFB
:1019B8000201000170C2B4F00001B56B47EC15F0EC
:1019C8000201020E0001656F02010C0E0001646F36
:1019D800D1EC56F0F00E0001636F510E0001626FFA
:1019E800B5EC56F0000E0201946F090E02019465E1
:1019F80001D012008B84500E0001606FC30E0001ED
:101A0800616F000E0001626F000E0001636F8CECC5
:101A180054F08B94500E0001606FC30E0001616F8B
:101A2800000E0001626F000E0001636F8CEC54F031
:101A38000201942B090E02019465DCD71200F60E00
:101A48000001656F220E0001646FEDEC55F0F00E99
:101A58000001636F510E0001626FB5EC56F0120081
:101A68000001FAC064F00001F9C063F0FF0E000144
:101A7800666FC60E0001656F16EC52F00009D8B407
:101A88009ED00401040E0001616F0401780E00016C
:101A9800606F03010001EBC362F00001636B49EC66
:101AA80055F0000E0301EB6F000E0301EA6FF80E0C
:101AB8000001636FCF0E0001626FB5EC56F0F00EB7
:101AC8000001636F510E0001626FB5EC56F03E0ED7
:101AD8003FEC58F0000E02018C6FB5EC58F09E9A5E
:101AE8009D8A25D0E00E0001606F930E0001616FA2
:101AF800040E0001626F000E0001636F8CEC54F05D
:101B080002018C2B190E02018C6511D0F00E000118
:101B1800636F510E0001626FB5EC56F0FA0E0001CA
:101B2800656F070E0001646FEDEC55F012000301BC
:101B3800EA51D8B4D7D79D9A04017851590AD8B434
:101B480008D004017851790AD8A412D00401796721
:101B58000FD0FD0E0001656FDC0E0001646FEDEC27
:101B680055F0000E0201F26FC0EC4FF0FF001200BA
:101B7800F00E0001636F510E0001626FB5EC56F074
:101B8800FA0E0001656F070E0001646FEDEC55F069
:101B98000401040E0001616F0401780E0001606FFA
:101BA80003010001EBC362F00001636B49EC55F0DF
:101BB800000E0301EB6F000E0301EA6F1200000133
:101BC800FAC064F00001F9C063F0FF0E0001666F0F
:101BD800580E0001656F16EC52F00009D8B4B8D160
:101BE8000401040E0001616F0401780E0001606FAA
:101BF80003010001EBC362F00001636B49EC55F08F
:101C0800000E0301EB6F000E0301EA6FF00E0001F6
:101C1800636FD30E0001626FB5EC56F0F00E000151
:101C2800636F510E0001626FB5EC56F03E0E58EC32
:101C380058F0000E02018C6FB5EC58F09E9A9D8A00
:101C480025D0E00E0001606F930E0001616F040E55
:101C58000001626F000E0001636F8CEC54F002010A
:101C68008C2B190E02018C6511D0F00E0001636FE8
:101C7800510E0001626FB5EC56F0F50E0001656F6C
:101C8800440E0001646FEDEC55F012000301EA51B7
:101C9800D8B4D7D79D9A0401040E0001616F0401DE
:101CA800780E0001606FFF0E0001636FD60E000111
:101CB800626FADEC53F00009D8B439D10401040EB9
:101CC8000001616F0401780E0001606F03010001DB
:101CD800EBC362F00001636B49EC55F0000E0301A1
:101CE800EB6F000E0301EA6FFB0E0001636F690ED4
:101CF8000001626FB5EC56F0F00E0001636F510EF3
:101D08000001626FB5EC56F03E0E3FEC58F0000E45
:101D180002018C6FB5EC58F09E9A9D8A30D0E00E87
:101D28000001606F930E0001616F040E0001626F85
:101D3800000E0001636F8CEC54F002018C2B030140
:101D4800EB5102017B19D8B403D0000E02018C6F4D
:101D5800190E02018C6511D0F00E0001636F510E4F
:101D68000001626FB5EC56F0F50E0001656F440E88
:101D78000001646FEDEC55F01200EBC37BF2030138
:101D8800EA51D8B4CCD70401040E0001706F0401E5
:101D9800780E00016F6F69EC3DF00009D8B4B6D039
:101DA8000301EB2B0401040E00016D6F0401780E92
:101DB80000016C6F010E00016E6F0201020E00013E
:101DC800706F0201800E00016F6FDCEC30F00009CB
:101DD800D8A49CD002018351800A800F0BE1000E29
:101DE8000201825D07E1000E0201815D03E1010E3F
:101DF8000201805DD8A08AD080C2D1F281C2D2F21D
:101E080082C2D3F283C2D4F222EE95F010EE99F09A
:101E1800400EDECFE6FFE82EFCD7020E0001D96F98
:101E2800000E0001DA6F000E0001DB6F000E0001EA
:101E3800DC6F64EC4AF099C000F29AC001F29BC0D2
:101E480002F29CC003F202010351001101110211B8
:101E5800D8A44BD017EC41F0F50E0001656FCA0EFF
:101E68000001646FEDEC55F00201020E0001AF6F46
:101E780002010C0E0001AE6FFA0E0001B16FCF0E19
:101E88000001B06FD1C2B2F0D2C2B3F0D3C2B4F085
:101E9800D4C2B5F047EC15F00201020E0001656FDF
:101EA80002010C0E0001646FD1EC56F0F00E000137
:101EB800636F510E0001626FB5EC56F0FD0E000124
:101EC800656FDC0E0001646FEDEC55F0000E020149
:101ED800F26FC0EC4FF0F00E0001636F510E00017D
:101EE800626FB5EC56F0FF001200F50E0001656F49
:101EF8009E0E0001646FEDEC55F0F00E0001636F6B
:101F0800510E0001626FB5EC56F01200F70E000199
:101F1800656FEB0E0001646FEDEC55F0F00E0001FB
:101F2800636F510E0001626FB5EC56F01200FB0EA4
:101F38000001656F510E0001646FEDEC55F0F00E75
:101F48000001636F510E0001626FB5EC56F012008C
:101F58000001FAC064F00001F9C063F0FC0E000152
:101F6800666F390E0001656F16EC52F00009D8B49F
:101F780071D10401040E0001616F0401780E0001A3
:101F8800606F03010001EBC362F00001636B49EC71
:101F980055F0000E0301EB6F000E0301EA6FF00E1F
:101FA8000001636F510E0001626FB5EC56F0F60E3A
:101FB8000001636FC90E0001626FB5EC56F0F00EB8
:101FC8000001636F510E0001626FB5EC56F03E0ED2
:101FD80058EC58F0000E02018C6FB5EC58F09E9A40
:101FE8009D8A25D0E00E0001606F930E0001616F9D
:101FF800040E0001626F000E0001636F8CEC54F058
:1020080002018C2B190E02018C6511D0F00E000113
:10201800636F510E0001626FB5EC56F0F10E0001CE
:10202800656F0F0E0001646FEDEC55F012000301AF
:10203800EA51D8B4D7D79D9A04017851590AD8B42F
:1020480008D004017851790AD8A4F3D0040179673B
:10205800F0D00401040E0001616F0401780E000144
:10206800606F03010001EBC362F00001636B49EC90
:1020780055F0000E0301EB6F000E0301EA6FF00E3E
:102088000001636F510E0001626FB5EC56F0F70E58
:102098000001636FA50E0001626FB5EC56F0F00EFB
:1020A8000001636F510E0001626FB5EC56F03E0EF1
:1020B8003FEC58F0000E02018C6FB5EC58F09E9A78
:1020C8009D8A28D0E00E0001606F930E0001616FB9
:1020D800040E0001626F000E0001636F8CEC54F077
:1020E80002018C2B0301EB5102017B19D8B403D0F8
:1020F800000E02018C6F190E02018C6509D0F10ED9
:102108000001656F0F0E0001646FEDEC55F01200D1
:10211800EBC37BF20301EA51D8B4D4D79D9AF00EF1
:102128000001636F510E0001626FB5EC56F0F00EBE
:102138000001636F510E0001626FB5EC56F00401A7
:102148007851D8B465D004018C6762D00401040EBC
:102158000001636F0401780E0001626F3AEC57F0DA
:102168000009D8B444D0F10E0001656FB40E000127
:10217800646FEDEC55F0F00E0001636F510E000135
:10218800626FB5EC56F00401040E0001696F04019A
:10219800780E0001686F0401040E00016B6F0401E2
:1021A800DC0E00016A6F150E00016C6F000E000155
:1021B8006D6F6EEC53F0500E0001606FC30E00019E
:1021C800616F000E0001626F000E0001636F8CECFE
:1021D80054F0000EB6EC23F00009D8B404D0010E78
:1021E8000301E86F1200000E0301E86F1200F60EFB
:1021F8000001656F780E0001646FEDEC55F0F00E8C
:102208000001636F510E0001626FB5EC56F01200C9
:10221800F00E0001656F540E0001646FEDEC55F08F
:10222800F00E0001636F510E0001626FB5EC56F0BD
:102238001200F10E0001656F0F0E0001646FEDECE6
:1022480055F0F00E0001636F510E0001626FB5EC9E
:1022580056F012000001FAC064F00001F9C063F002
:10226800FF0E0001666F900E0001656F16EC52F0CC
:102278000009D8B433D0F00E0001636F510E00018D
:10228800626FB5EC56F00201020E0001AF6F020159
:102298000C0E0001AE6FFD0E0001B16F1E0E0001A5
:1022A800B06F61EC4FF089C0B2F08AC0B3F08BC058
:1022B800B4F047EC15F00201020E0001656F02014F
:1022C8000C0E0001646FD1EC56F0F00E0001636F44
:1022D800510E0001626FB5EC56F012000001FAC011
:1022E80064F00001F9C063F0F70E0001666FE30EB9
:1022F8000001656F16EC52F00009D8B4DFD0F00E7B
:102308000001636F510E0001626FB5EC56F00201D7
:10231800020E0001AF6F02010C0E0001AE6FFC0E41
:102328000001B16FB90E0001B06FF00E0001B36F7C
:10233800370E0001B26F47EC15F00201020E0001E2
:10234800656F02010C0E0001646FD1EC56F0F00EBF
:102358000001636F510E0001626FB5EC56F0FA0E82
:102368000001656F5E0E0001646FEDEC55F0F00E34
:102378000001636F510E0001626FB5EC56F0FB0E61
:102388000001656FC80E0001646FEDEC55F00501A2
:10239800050E0001656F0501000E0001646FD1ECA8
:1023A80056F00501050E0001656F05011E0E0001BE
:1023B800646FD1EC56F0F00E0001636F510E00010E
:1023C800626FB5EC56F00201020E0001AF6F020118
:1023D8000C0E0001AE6FFE0E0001B16F310E000150
:1023E800B06FF00E0001B36F400E0001B26F47EC02
:1023F80015F00201020E0001656F02010C0E0001CA
:10240800646FD1EC56F00201020E0001AF6F0201B9
:102418000C0E0001AE6FFA0E0001B16FEA0E00015A
:10242800B06FF00E0001B36F4D0E0001B26F47ECB4
:1024380015F00201020E0001626F02010C0E00018C
:10244800616FF8EC57F0FF0E0001656FDB0E0001BD
:10245800646FEDEC55F0F00E0001636F510E000152
:10246800626FB5EC56F00201020E0001AF6F020177
:102478000C0E0001AE6FFD0E0001B16FA50E00013C
:10248800B06FD1C2B2F0D2C2B3F0D3C2B4F0D4C2EA
:10249800B5F047EC15F00201020E0001626F02016F
:1024A8000C0E0001616FF8EC57F0F00E0001636F3D
:1024B800510E0001626FB5EC56F012000001FAC02F
:1024C80061F00001F9C060F0FF0E0001636FE40ED7
:1024D8000001626FADEC53F00009D8B4BBD2F00E26
:1024E8000001636F510E0001626FB5EC56F0000EEB
:1024F8000201946F05D07E0E3FEC58F00201942B38
:10250800210E02019465F7D7FB0E0001636F130ECD
:102518000001626FB5EC56F0000E0201946F05D011
:102528007E0E3FEC58F00201942B210E02019465B7
:10253800F7D7F00E0001636F510E0001626FB5EC22
:1025480056F0F00E0001636F510E0001626FB5EC9A
:1025580056F0FD0E0001656FFF0E0001646FEDEC93
:1025680055F0FF0E0001656FE40E0001646FFF0E69
:102578000001676F620E0001666F2EEC48F0FF0ED7
:102588000001656FC60E0001646FF80E0001676FE9
:10259800AF0E0001666F2EEC48F0F70E0001656F74
:1025A800E30E0001646FF70E0001676FC80E0001AB
:1025B800666F2EEC48F0FF0E0001656F580E0001A3
:1025C800646FFC0E0001676F4F0E0001666F2EEC02
:1025D80048F0FC0E0001656F390E0001646FF80EBB
:1025E8000001676F2E0E0001666F2EEC48F0F00EAA
:1025F8000001636F510E0001626FB5EC56F0FC0EDE
:102608000001656FA40E0001646FEDEC55F0FF0E3C
:102618000001656F900E0001646FFA0E0001676F8C
:10262800970E0001666F2EEC48F0F00E0001636F04
:10263800510E0001626FB5EC56F0FE0E0001656F99
:10264800980E0001646FEDEC55F0010E0201946FD5
:1026580038D00201020E0001616F02010C0E000168
:10266800606F000E0001636F320E0001626F49EC6B
:1026780055F00201020E0001AF6F02010C0E0001BD
:10268800AE6FFE0E0001B16F510E0001B06F020176
:10269800000194C2B2F00001B36B47EC15F00201DF
:1026A800020E0001656F02010C0E0001646FFB0E43
:1026B8000001676F200E0001666F2EEC48F00201E2
:1026C800942B0C0E02019465C4D7010E0201946F7D
:1026D80038D00201020E0001616F02010C0E0001E8
:1026E800606F000E0001636F320E0001626F49ECEB
:1026F80055F00201020E0001AF6F02010C0E00013D
:10270800AE6FFD0E0001B16F920E0001B06F0201B5
:10271800000194C2B2F00001B36B47EC15F002015E
:10272800020E0001656F02010C0E0001646FFB0EC2
:102738000001676F810E0001666F2EEC48F0020100
:10274800942B0C0E02019465C4D7FF0E0001656F2F
:10275800160E0001646FF20E0001676FB00E0001E3
:10276800666F2EEC48F0FF0E0001656F2C0E00011D
:10277800646FF30E0001676F120E0001666F2EEC96
:1027880048F0FF0E0001656F370E0001646FF30E0D
:102798000001676F430E0001666F2EEC48F0FF0ED4
:1027A8000001656F0B0E0001646FF20E0001676F88
:1027B8007F0E0001666F2EEC48F0FF0E0001656F7A
:1027C800210E0001646FF20E0001676FE10E000137
:1027D800666F2EEC48F0FF0E0001656F420E000197
:1027E800646FF30E0001676F740E0001666F2EECC4
:1027F80048F0FE0E0001656FB20E0001646FF40E22
:102808000001676F300E0001666F2EEC48F0FE0E77
:102818000001656FCC0E0001646FF40E0001676F54
:102828008C0E0001666F2EEC48F0FE0E0001656FFD
:10283800D90E0001646FF40E0001676FBA0E000133
:10284800666F2EEC48F0FE0E0001656FA50E0001C4
:10285800646FF40E0001676F020E0001666F2EECC4
:1028680048F0FE0E0001656FBF0E0001646FF40EA4
:102878000001676F5E0E0001666F2EEC48F0FE0ED9
:102888000001656FE60E0001646FF40E0001676FCA
:10289800E80E0001666F2EEC48F0FF0E0001656F30
:1028A800D10E0001646FF60E0001676FA10E0001E2
:1028B800666F2EEC48F0F00E0001636F510E0001B8
:1028C800626FB5EC56F0FE0E0001656F8B0E0001CD
:1028D800646FEDEC55F0EF0E0001656FD80E000146
:1028E800646FFD0E0001676F460E0001666F2EECE7
:1028F80048F0EF0E0001656FE70E0001646FFD0EF2
:102908000001676F590E0001666F2EEC48F0EF0E5C
:102918000001656FF60E0001646FFD0E0001676F20
:102928006C0E0001666F2EEC48F0EF0E0001656F2B
:10293800140E0001646FFC0E0001676F0D0E00019C
:10294800666F2EEC48F0EE0E0001656FEE0E00018A
:10295800646FFB0E0001676FDF0E0001666F2EECDF
:1029680048F0EF0E0001656F260E0001646FFD0E42
:102978000001676F7F0E0001666F2EEC48F0EF0EC6
:102988000001656F010E0001646FFC0E0001676FA6
:10299800F60E0001666F2EEC48F0EE0E0001656F32
:1029A800B20E0001646FF90E0001676F4D0E000151
:1029B800666F2EEC48F0EE0E0001656F730E000195
:1029C800646FF80E0001676F4F0E0001666F2EEC02
:1029D80048F0EE0E0001656FC60E0001646FF90E37
:1029E8000001676F6C0E0001666F2EEC48F0EE0E6A
:1029F8000001656F880E0001646FF80E0001676FB3
:102A08006F0E0001666F2EEC48F0EE0E0001656F48
:102A1800DA0E0001646FF90E0001676F8B0E00017A
:102A2800666F2EEC48F0EE0E0001656F9D0E0001FA
:102A3800646FF80E0001676F8F0E0001666F2EEC51
:102A480048F0F00E0001636F510E0001626FB5ECA3
:102A580056F01200F00E0001656F050E0001646F5C
:102A6800EDEC55F0FB0E0001656F050E0001646F7B
:102A7800EDEC55F0F00E0001636F510E0001626F2E
:102A8800B5EC56F012000001000E0001D66F0001EF
:102A9800B20E0001D56F20EF1DF00001E651250AA6
:102AA800D8B40CD0AEC0D9FFAFC0DAFF0001E6C081
:102AB800DFFF0001AE4BAF2B20EF1DF0000E000131
:102AC800DF6F000E0001DE6F000E0001E16F000EE7
:102AD8000001E06F05D00001E0850001B04BB12B8B
:102AE8000001B0C0F6FF0001B1C0F7FFF86A0800A6
:102AF800F550300AD8B4EFD70001B0C0F6FF000196
:102B0800B1C0F7FFF86A0800F550E2EC57F0D8A01A
:102B180013D1000E0001DF6F000E0001DE6FDEC072
:102B28006EF0DFC06FF0000E0001716F0A0E000139
:102B3800706FECEC56F000016EC0DEF000016FC063
:102B4800DFF0D00E0001BC6FFF0EBD6F0001B0C0FA
:102B5800F6FF0001B1C0F7FFF86A0800F550000160
:102B6800BE6FBF6B0001BC510001BE270001BD5103
:102B78000001BF230001BE510001DE270001BF5143
:102B88000001DF230001B04BB12B0001B0C0F6FFFC
:102B98000001B1C0F7FFF86A0800F550E2EC57F001
:102BA800D8A0CAD0BCD70001E089C6D00001E18511
:102BB800F3D00001E08FF0D0D5C0D9FFD6C0DAFF3E
:102BC8000001DECFE2F00001DDCFE3F0020E0001EC
:102BD800D527000E0001D6230001E351E211D8A445
:102BE80006D0FF0E0001E36F980E0001E26F000EA1
:102BF8000001E56F000E0001E46F03D00001E44B13
:102C0800E52B0001E2C0BCF00001E3C0BDF000010B
:102C1800E4510001BC270001E5510001BD23BCC0FF
:102C2800F6FFBDC0F7FF000EF86E0F0EF76403D075
:102C38000800F55005D0F6CFE1FFF7CFE2FFE750E7
:102C48000009D8A4DBD70001DE510001E45D0001D2
:102C5800DF510001E559D8B00AD0000120EEE4F0B8
:102C6800DE500001DE5FDD500001DF5B10D0000E9A
:102C78000001DF6F000E0001DE6F09D0AEC0D9FF82
:102C8800AFC0DAFF200EDF6E0001AE4BAF2B0001A4
:102C9800DE07D8A0DF070001DE29D8B4DF29D8B4C1
:102CA8001FD0ECD70001E2C0F6FF0001E3C0F7FF38
:102CB800000EF86EAEC0D9FFAFC0DAFF0F0EF76492
:102CC80003D00800F55005D0F6CFE1FFF7CFE2FFBB
:102CD800E750DF6E0001E24BE32B0001AE4BAF2B58
:102CE8000001E407D8A0E5070001E429D8B4E529E4
:102CF800D8B420EF1DF0D6D7D5C0D9FFD6C0DAFF9B
:102D0800DF500001E66F020E0001D527000E00011A
:102D1800D6230001000E0001E36F0001E60E00015A
:102D2800E26F000E0001E56F010E0001E46F8BD722
:102D3800C00E0001E01330D00001B0C0F6FF000162
:102D4800B1C0F7FF0001B04BB12BF86A08000001D1
:102D5800F5CFE6F00001E651000AD8B432EF1DF0D5
:102D6800580AD8B426D73B0AD8B4C6D7070AD8B465
:102D780013D0020AD8B41AD70F0AD8B40DD0050A4E
:102D8800D8B411D71F0AD8B417D7060AD8B4D0D7E1
:102D98000D0AD8B40ED7BDD7070E0001E115D8B477
:102DA800F5D3000E0001D86F060E0001D76FD5C00D
:102DB800D9FFD6C0DAFF0001DECFDBF00001DECF9D
:102DC800DCF00001DDCFDDF0030E0001D527000E99
:102DD8000001D6230001DD51800A800F07E1000EB3
:102DE8000001DC5D03E1000E0001DB5DD8B011D00D
:102DF800DBC060F0DCC061F0DDC062F06CEC57F065
:102E080060C0DBF061C0DCF062C0DDF0030E0001E1
:102E1800E013000E0001DA6F000E0001D96F7F0E7B
:102E28000001DD150001DC110001DB11D8B4AAD0C6
:102E3800820E0001BC6FFF0EBD6F0001DBC0BEF04B
:102E48000001DCC0BFF00001DDC0C0F00001DEC041
:102E5800C1F0100E06D00001D890C133C033BF3383
:102E6800BE33E82EF8D70001BE510001BC25000191
:102E7800D96F000E0001BD210001DA6F0001D907EA
:102E8800D8A0DA07D9C06EF0DAC06FF0000E0001E2
:102E9800716F030E0001706FECEC56F000016EC00C
:102EA800D9F000016FC0DAF0D9C066F0DAC067F077
:102EB800000E0001696F0A0E0001686F55EC4DF0B5
:102EC800000166C0D9F0000167C0DAF00001DA51EC
:102ED800800AF36E800EF35C000ED8B4D95DD8B0CA
:102EE80004D00001D907D8A0DA070001D951000899
:102EF8005AEC2BF089C0D2F08AC0D3F08BC0D4F042
:102F0800D2C07AF0D3C07BF0D4C07CF0DBC07DF0B7
:102F1800DCC07EF0DDC07FF0FAEC44F07AC0D2F07D
:102F28007BC0D3F07CC0D4F0D2C060F0D3C061F0D5
:102F3800D4C062F0000E0001636F800E0001646F60
:102F48003F0E0001656F30EC4EF0D8B005D000019F
:102F5800D907D8A0DA0716D0D2C060F0D3C061F084
:102F6800D4C062F0000E0001636F200E0001646F90
:102F7800410E0001656F30EC4EF0D8A003D000017F
:102F8800D94BDA2B0001D851800AF36E800EF35C1E
:102F98000D0ED8B4D75DD8B018D0DBC093F0DCC024
:102FA80094F0DDC095F00001D7512FEC37F089C0BF
:102FB80096F08AC097F08BC098F0C5EC38F093C0B3
:102FC800DBF094C0DCF095C0DDF00001DA51800A36
:102FD800F36E800EF35C0A0ED8B4D95DD8B029D050
:102FE8007F0E0001DD150001DC110001DB11D8B4F2
:102FF8006FD0DBC09FF0DCC0A0F0DDC0A1F07FEC9B
:1030080043F09FC0BCF0A0C0BDF0A1C0BEF0A2C0FC
:10301800BFF00001BF51BC11BD11BE11D8A458D0DA
:103028000001DA51800A800F020ED8B4D95DD8A009
:103038004FD0D2C060F0D3C061F0D4C062F0700E3F
:103048000001636F890E0001646F400E0001656F17
:1030580030EC4EF0D8B003D00001F70E02D00001DA
:10306800F80E0001D927FF0E0001DA230001D9511B
:103078005AEC2BF089C0D2F08AC0D3F08BC0D4F0C0
:10308800DBC060F0DCC061F0DDC062F0D2C063F08C
:10309800D3C064F0D4C065F06AEC3EF060C0C5F0FF
:1030A80061C0C6F062C0C7F063C0C8F0C5C0E2F036
:1030B800C6C0E3F0C7C0E4F0C8C0E5F0000E0001E8
:1030C800DB6F000E0001DC6F000E0001DD6F34D0F5
:1030D800DBC09FF0DCC0A0F0DDC0A1F07FEC43F0C6
:1030E8009FC0E2F0A0C0E3F0A1C0E4F0A2C0E5F008
:1030F800DBC09FF0DCC0A0F0DDC0A1F0E2C068F04A
:10310800E3C069F0E4C06AF0E5C06BF02FEC53F05F
:1031180068C0A2F069C0A3F06AC0A4F097EC56F0AA
:103128009FC0DBF0A0C0DCF0A1C0DDF0000E000104
:10313800DA6F000E0001D96F010E0001E66F000181
:10314800E6510A0AD8B421D00001E651040DC30E95
:10315800F324F66EED0EF420F76EF86A000EF822EE
:103168000900F5500001E25D0900F5500001E3593E
:103178000900F5500001E4590900F5500001E5592E
:10318800D8A003D00001E62BDAD70001E6C0BCF0D6
:103198000001BD6BBCBFBD070001D7510001BC27B2
:1031A8000001D8510001BD230001D9510001BC27FD
:1031B8000001DA510001BD230001BC510001DE5FAE
:1031C8000001BD510001DF5B0001D851D711D8B40F
:1031D80004D00001DE07D8A0DF07030E0001E015C8
:1031E8000001BC6F000E0001E1150001BD6F000178
:1031F800BD51BC11D8B404D00001DE07D8A0DF0748
:103208000001E0A53FD0030E0001E0150001BC6FEE
:10321800000E0001E1150001BD6F0001BD51BC1198
:10322800D8B417D0AEC0D9FFAFC0DAFF2D0EDF6E0D
:103238000001AE4BAF2B0DD0AEC0D9FFAFC0DAFF47
:10324800300EDF6E0001AE4BAF2B0001DE07D8A0B9
:10325800DF070001DF51800AF36E800EF35C010E78
:10326800D8B4DE5DD8A085D0E7D7AEC0D9FFAFC04F
:10327800DAFF200EDF6E0001AE4BAF2B0001DE0738
:10328800D8A0DF070001DF51800AF36E800EF35CDF
:10329800010ED8B4DE5DD8B0E8D7030E0001E01502
:1032A8000001BC6F000E0001E1150001BD6F0001B7
:1032B800BD51BC11D8B45DD0AEC0D9FFAFC0DAFFE4
:1032C8002D0E53D0E2C060F0E3C061F0E4C062F0BC
:1032D800E5C063F00001E651040DC30EF324F66E59
:1032E800ED0EF420F76EF86A000EF82209000001CE
:1032F800F5CF64F009000001F5CF65F00900000181
:10330800F5CF66F00A000001F5CF67F0C6EC4DF086
:1033180060C0CAF061C0CBF062C0CCF063C0CDF031
:10332800CAC06DF0CBC06EF0CCC06FF0CDC070F0ED
:103338000A0E0001716F000E0001726F000E00018D
:10334800736F000E0001746F26EC51F06DC0CAF067
:103358006EC0CBF06FC0CCF070C0CDF00001CA5188
:10336800300FAEC0D9FFAFC0DAFFDF6E0001AE4B41
:10337800AF2B0001E6070001E629D8B40ED0A2D78A
:10338800AEC0D9FFAFC0DAFF300EDF6E0001AE4B22
:10339800AF2B0001D907D8A0DA070001DA51800A5B
:1033A800F36E800EF35C010ED8B4D95DD8B0E8D7BF
:1033B8000001D851800A800F090ED8B4D75DD8A073
:1033C80004D0080E0001E66F02D0D7C0E6F0000175
:1033D800E6510001D75F000E0001E6BFFF0E0001B5
:1033E800D85B0001E651D8B409D0AEC0D9FFAFC050
:1033F800DAFF2E0EDF6E0001AE4BAF2B0001E65157
:103408005AEC2BF089C0C2F08AC0C3F08BC0C4F05C
:10341800DBC07DF0DCC07EF0DDC07FF0C2C07AF09A
:10342800C3C07BF0C4C07CF0FAEC44F07AC09FF0D3
:103438007BC0A0F07CC0A1F07FEC43F09FC0E2F01D
:10344800A0C0E3F0A1C0E4F0A2C0E5F085D0E2C0DE
:1034580060F0E3C061F0E4C062F0E5C063F0000131
:10346800E651040DC30EF324F66EED0EF420F76E4C
:10347800F86A000EF82209000001F5CF64F009008F
:103488000001F5CF65F009000001F5CF66F00A00EC
:103498000001F5CF67F0C6EC4DF060C0CEF061C01A
:1034A800CFF062C0D0F063C0D1F0CEC06DF0CFC015
:1034B8006EF0D0C06FF0D1C070F00A0E0001716FCD
:1034C800000E0001726F000E0001736F000E000104
:1034D800746F26EC51F06DC0CEF06EC0CFF06FC0A7
:1034E800D0F070C0D1F00001CE51300FAEC0D9FF7E
:1034F800AFC0DAFFDF6E0001AE4BAF2BE2C06DF05C
:10350800E3C06EF0E4C06FF0E5C070F00001E65172
:10351800040DC30EF324F66EED0EF420F76EF86A70
:10352800000EF82209000001F5CF71F00900000132
:10353800F5CF72F009000001F5CF73F00A00000121
:10354800F5CF74F026EC51F06DC0E2F06EC0E3F0F8
:103558006FC0E4F070C0E5F00001E6070001E6295D
:10356800D8B40ED074D7AEC0D9FFAFC0DAFF300ED2
:10357800DF6E0001AE4BAF2B0001D707D8A0D807EC
:103588000001D851D711D8B457D2EDD7C00E0001D9
:10359800E0150001BC6F000E0001E1150001BD6FD0
:1035A8000001BD51BC11D8A453D00001E0A912D02C
:1035B800D5C0D9FFD6C0DAFF0001DECFE2F00001A6
:1035C800DECFE3F00001DECFE4F00001DECFE5F06E
:1035D800040E14D0D5C0D9FFD6C0DAFF0001DECF63
:1035E800E2F00001DDCFE3F00001000E0001E3BFCF
:1035F800FF0E0001E46F0001E56F020E0001D52700
:10360800000E0001D6230001E551800A800F0BE16E
:10361800000E0001E45D07E1000E0001E35D03E137
:10362800000E0001E25DD8B093D0030E0001E01354
:103638000001E51F0001E41F0001E31F0001E26D26
:10364800000E0001E3230001E4230001E52380D0FC
:103658000001E0A912D0D5C0D9FFD6C0DAFF000119
:10366800DECFE2F00001DECFE3F00001DECFE4F0D0
:103678000001DECFE5F0040E13D0D5C0D9FFD6C0C7
:10368800DAFFDECFBCF0DDCFBDF00001BCC0E2F058
:103698000001BDC0E3F00001E46B0001E56B020E20
:1036A8000001D527000E0001D62352D0010E0001DB
:1036B800E66F0001E6510A0AD8B456D00001E65177
:1036C800040DC30EF324F66EED0EF420F76EF86ABF
:1036D800000EF8220900F5500001E25D0900F550DE
:1036E8000001E3590900F5500001E4590900F550BB
:1036F8000001E559D8A038D00001E62BDAD7010E31
:103708000001E66F0001E651080AD8B42DD0000187
:10371800E651040D390EF324F66EEE0EF420F76E22
:10372800F86A000EF8220900F5500001E25D090070
:10373800F5500001E3590900F5500001E45909006A
:10374800F5500001E559D8A00FD00001E62BDAD7D3
:103758000001E051C00B000AD8B4A8D7800AD8B439
:10376800CED7400AD8B4A2D70001DF51DE11D8B4B1
:1037780013D0030E0001E0150001BC6F000E00011C
:10378800E1150001BD6F0001BD51BC11D8B404D0D2
:103798000001DE07D8A0DF07800E0001E6BF7F0E1C
:1037A8000001BC6F0001DE510001E65D0001DF5140
:1037B800800A0001BC59D8B00BD00001E6510001C5
:1037C800DE5F000E0001E6BFFF0E0001DF5B06D0E2
:1037D800000E0001DF6F000E0001DE6F0001E0A5A2
:1037E8002CD0030E0001E0150001BC6F000E000193
:1037F800E1150001BD6F0001BD51BC11D8B409D05D
:10380800AEC0D9FFAFC0DAFF2D0EDF6E0001AE4BA0
:10381800AF2B00010001DF51DE11D8B43DD0AEC09E
:10382800D9FFAFC0DAFF300EDF6E0001AE4BAF2B11
:103838000001DE07D8A0DF07EDD70001DF51DE1158
:10384800D8B412D0AEC0D9FFAFC0DAFF200EDF6EF9
:103858000001AE4BAF2B0001DE07D8A0DF07000147
:10386800DF51DE11D8A4EED7030E0001E0150001E8
:10387800BC6F000E0001E1150001BD6F0001BD51D4
:10388800BC11D8B409D0AEC0D9FFAFC0DAFF2D0E35
:10389800DF6E0001AE4BAF2B0001E6510001D76F80
:1038A8000001D86B0001D7BFD807BCD00001D7C032
:1038B800BCF00001D8C0BDF00001D890BC37BD37BE
:1038C8000001D890BC37BD37C30E0001BC25F66E89
:1038D800ED0EBD21F76EF86A000EF822090000010E
:1038E800F5CF64F009000001F5CF65F0090000018B
:1038F800F5CF66F00A000001F5CF67F0E2C060F08E
:10390800E3C061F0E4C062F0E5C063F0C6EC4DF0DE
:1039180060C06DF061C06EF062C06FF063C070F09F
:103928000A0E0001716F000E0001726F000E000197
:10393800736F000E0001746F26EC51F06DC0BEF07D
:103948006EC0BFF06FC0C0F070C0C1F00001BE51C2
:10395800300F0001E66F5CD0E2C060F0E3C061F0B8
:10396800E4C062F0E5C063F00001D7C0BCF000011C
:10397800D8C0BDF00001D890BC37BD370001D89041
:10398800BC37BD37390E0001BC25F66EEE0EBD21E1
:10399800F76EF86A000EF82209000001F5CF64F00E
:1039A80009000001F5CF65F009000001F5CF66F0C8
:1039B8000A000001F5CF67F0C6EC4DF060C0BEF01C
:1039C80061C0BFF062C0C0F063C0C1F00001BE5169
:1039D8000F0B0001C96F0001C951010DEE0EF32450
:1039E800F66EFD0EF420F76EF86A000EF822080055
:1039F8000001F5CFE6F00CD00001E051C00B000A41
:103A0800D8B454D7800AD8B4A7D7400AD8B44ED768
:103A1800AEC0D9FFAFC0DAFF0001E6C0DFFF00018A
:103A2800AE4BAF2B0001D707D8A0D8070001D72984
:103A3800D8B4D829D8A4E0D70001B0C0F6FF000157
:103A4800B1C0F7FF0001B04BB12BF86A08000001C4
:103A5800F5CFE6F00001E66751EF15F0AEC0D9FFEB
:103A6800AFC0DAFF000EDF6E1200000E00016C6FAF
:103A7800000E00016D6F000E00016E6F000E000158
:103A88006F6F010E000160150001646F000E0001E8
:103A980061150001656F000E000162150001666F77
:103AA800000E000163150001676F1F0ED89000011A
:103AB8006437653766376737E82EF8D700016451F1
:103AC80000016C270001655100016D23000166515A
:103AD80000016E230001675100016F23020E0001EF
:103AE80060150001646F000E000161150001656F2B
:103AF800000E000162150001666F000E00016315DB
:103B08000001676F1D0ED89000016437653766376E
:103B18006737E82EF8D70001645100016C270001CF
:103B2800655100016D230001665100016E230001FB
:103B3800675100016F23040E000160150001646FD6
:103B4800000E000161150001656F000E000162158D
:103B58000001666F000E000163150001676F1B0E00
:103B6800D89000016437653766376737E82EF8D78D
:103B78000001645100016C270001655100016D23AB
:103B88000001665100016E230001675100016F2397
:103B9800080E000160150001646F000E0001611538
:103BA8000001656F000E000162150001666F000ECE
:103BB800000163150001676F190ED8900001643782
:103BC800653766376737E82EF8D70001645100017A
:103BD8006C270001655100016D2300016651000149
:103BE8006E230001675100016F23100E000160155C
:103BF8000001646F000E000161150001656F000E81
:103C0800000162150001666F000E000163150001D6
:103C1800676F170ED89000016437653766376737C6
:103C2800E82EF8D70001645100016C2700016551A6
:103C380000016D230001665100016E2300016751E8
:103C480000016F23200E000160150001646F000E53
:103C5800000161150001656F000E00016215000189
:103C6800666F000E000163150001676F150ED8908E
:103C780000016437653766376737E82EF8D70001E3
:103C8800645100016C270001655100016D2300019A
:103C9800665100016E230001675100016F23400E39
:103CA800000160150001646F000E0001611500013C
:103CB800656F000E000162150001666F000E0001BD
:103CC80063150001676F130ED890000164376537DC
:103CD80066376737E82EF8D70001645100016C2772
:103CE8000001655100016D230001665100016E233A
:103CF8000001675100016F23800E0001601500016B
:103D0800646F000E000161150001656F000E00016F
:103D180062150001666F000E000163150001676FF0
:103D2800110ED89000016437653766376737E82E7B
:103D3800F8D70001645100016C27000165510001AA
:103D48006D230001665100016E23000167510001D7
:103D58006F23000E000160150001646F010E000161
:103D680061150001656F000E000162150001666FA4
:103D7800000E000163150001676F0F0ED890000157
:103D88006437653766376737E82EF8D7000164511E
:103D980000016C270001655100016D230001665187
:103DA80000016E230001675100016F23000E00011E
:103DB80060150001646F020E000161150001656F56
:103DC800000E000162150001666F000E0001631508
:103DD8000001676F0D0ED8900001643765376637AC
:103DE8006737E82EF8D70001645100016C270001FD
:103DF800655100016D230001665100016E23000129
:103E0800675100016F23000E000160150001646F07
:103E1800040E000161150001656F000E00016215B6
:103E28000001666F000E000163150001676F0B0E3D
:103E3800D89000016437653766376737E82EF8D7BA
:103E48000001645100016C270001655100016D23D8
:103E58000001665100016E230001675100016F23C4
:103E6800000E000160150001646F080E0001611565
:103E78000001656F000E000162150001666F000EFB
:103E8800000163150001676F090ED89000016437BF
:103E9800653766376737E82EF8D7000164510001A7
:103EA8006C270001655100016D2300016651000176
:103EB8006E230001675100016F23000E0001601599
:103EC8000001646F100E000161150001656F000E9E
:103ED800000162150001666F000E00016315000104
:103EE800676F070ED8900001643765376637673704
:103EF800E82EF8D70001645100016C2700016551D4
:103F080000016D230001665100016E230001675115
:103F180000016F23000E000160150001646F200E80
:103F2800000161150001656F000E000162150001B6
:103F3800666F000E000163150001676F050ED890CB
:103F480000016437653766376737E82EF8D7000110
:103F5800645100016C270001655100016D230001C7
:103F6800665100016E230001675100016F23000EA6
:103F7800000160150001646F400E00016115000129
:103F8800656F000E000162150001666F000E0001EA
:103F980063150001676F030ED89000016437653719
:103FA80066376737E82EF8D70001645100016C279F
:103FB8000001655100016D230001665100016E2367
:103FC8000001675100016F23000E00016015000118
:103FD800646F800E000161150001656F000E00011D
:103FE80062150001666F000E000163150001676F1E
:103FF800D890000164350001686F00016535000143
:10400800696F0001663500016A6F000167350001BC
:104018006B6F0001685100016C27000169510001B4
:104028006D2300016A5100016E2300016B510001EC
:104038006F23000160C064F0000161C065F00001F9
:1040480062C066F0000163C067F00001D890673372
:10405800663365336433000E000164150001686F30
:10406800800E000165150001696F000E00016615DC
:1040780000016A6F000E0001671500016B6F0001F7
:10408800685100016C270001695100016D2300018E
:104098006A5100016E2300016B5100016F2300017A
:1040A80060C064F0000161C065F0000162C066F0A4
:1040B800000163C067F0040E06D00001D890673392
:1040C800663365336433E82EF8D7000E00016415B3
:1040D8000001686F400E000165150001696F000E50
:1040E8000001661500016A6F000E000167150001E6
:1040F8006B6F0001685100016C27000169510001D4
:104108006D2300016A5100016E2300016B5100010B
:104118006F23000160C064F0000161C065F0000118
:1041280062C066F0000163C067F0060E06D00001A9
:10413800D8906733663365336433E82EF8D7000EBA
:10414800000164150001686F200E0001651500016B
:10415800696F000E0001661500016A6F000E00010C
:10416800671500016B6F0001685100016C270001A1
:10417800695100016D2300016A5100016E2300019D
:104188006B5100016F23000160C064F0000161C041
:1041980065F0000162C066F0000163C067F0080EB8
:1041A80006D00001D8906733663365336433E82E50
:1041B800F8D7000E000164150001686F100E0001A9
:1041C80065150001696F000E0001661500016A6F30
:1041D800000E0001671500016B6F000168510001B6
:1041E8006C270001695100016D2300016A5100012B
:1041F8006E2300016B5100016F23000160C064F061
:10420800000161C065F0000162C066F0000163C092
:1042180067F00A0E06D00001D8906733663365331D
:104228006433E82EF8D7000E000164150001686FAA
:10423800080E000165150001696F000E0001661582
:1042480000016A6F000E0001671500016B6F000125
:10425800685100016C270001695100016D230001BC
:104268006A5100016E2300016B5100016F230001A8
:1042780060C064F0000161C065F0000162C066F0D2
:10428800000163C067F00C0E06D00001D8906733B8
:10429800663365336433E82EF8D7000E00016415E1
:1042A8000001686F040E000165150001696F000EBA
:1042B8000001661500016A6F000E00016715000114
:1042C8006B6F0001685100016C2700016951000102
:1042D8006D2300016A5100016E2300016B5100013A
:1042E8006F23000160C064F0000161C065F0000147
:1042F80062C066F0000163C067F00E0E06D00001D0
:10430800D8906733663365336433E82EF8D7000EE8
:10431800000164150001686F020E000165150001B7
:10432800696F000E0001661500016A6F000E00013A
:10433800671500016B6F0001685100016C270001CF
:10434800695100016D2300016A5100016E230001CB
:104358006B5100016F23000160C064F0000161C06F
:1043680065F0000162C066F0000163C067F0100EDE
:1043780006D00001D8906733663365336433E82E7E
:10438800F8D7000E000164150001686F010E0001E6
:1043980065150001696F000E0001661500016A6F5E
:1043A800000E0001671500016B6F000168510001E4
:1043B8006C270001695100016D2300016A51000159
:1043C8006E2300016B5100016F23000160C064F08F
:1043D800000161C065F0000162C066F0000163C0C1
:1043E80067F0120E06D00001D89067336633653344
:1043F8006433E82EF8D7800E000164150001686F59
:10440800000E000165150001696F000E00016615B8
:1044180000016A6F000E0001671500016B6F000153
:10442800685100016C270001695100016D230001EA
:104438006A5100016E2300016B5100016F230001D6
:1044480060C064F0000161C065F0000162C066F000
:10445800000163C067F0140E06D00001D8906733DE
:10446800663365336433E82EF8D7400E00016415CF
:104478000001686F000E000165150001696F000EEC
:104488000001661500016A6F000E00016715000142
:104498006B6F0001685100016C2700016951000130
:1044A8006D2300016A5100016E2300016B51000168
:1044B8006F23000160C064F0000161C065F0000175
:1044C80062C066F0000163C067F0160E06D00001F6
:1044D800D8906733663365336433E82EF8D7200EF7
:1044E800000164150001686F000E000165150001E8
:1044F800696F000E0001661500016A6F000E000169
:10450800671500016B6F0001685100016C270001FD
:10451800695100016D2300016A5100016E230001F9
:104528006B5100016F23000160C064F0000161C09D
:1045380065F0000162C066F0000163C067F0180E04
:1045480006D00001D8906733663365336433E82EAC
:10455800F8D7100E000164150001686F000E000105
:1045680065150001696F000E0001661500016A6F8C
:10457800000E0001671500016B6F00016851000112
:104588006C270001695100016D2300016A51000187
:104598006E2300016B5100016F23000160C064F0BD
:1045A800000161C065F0000162C066F0000163C0EF
:1045B80067F01A0E06D00001D8906733663365336A
:1045C8006433E82EF8D7080E000164150001686FFF
:1045D800000E000165150001696F000E00016615E7
:1045E80000016A6F000E0001671500016B6F000182
:1045F800685100016C270001695100016D23000119
:104608006A5100016E2300016B5100016F23000104
:1046180060C064F0000161C065F0000162C066F02E
:10462800000163C067F01C0E06D00001D890673304
:10463800663365336433E82EF8D7040E0001641539
:104648000001686F000E000165150001696F000E1A
:104658000001661500016A6F000E00016715000170
:104668006B6F0001685100016C270001695100015E
:104678006D2300016A5100016E2300016B51000196
:104688006F23000160C064F0000161C065F00001A3
:1046980062C066F0000163C067F01E0E06D000011C
:1046A800D8906733663365336433E82EF8D7020E43
:1046B800000164150001686F000E00016515000116
:1046C800696F000E0001661500016A6F000E000197
:1046D800671500016B6F0001685100016C2700012C
:1046E800695100016D2300016A5100016E23000128
:1046F8006B5100016F23000E000160150001646F0B
:10470800000E000161150001656F000E00016215C1
:104718000001666F800E000163150001676F200EAF
:1047280006D00001D8906733663365336433E82ECA
:10473800F8D70001645100016C27000165510001A0
:104748006D230001665100016E23000167510001CD
:104758006F236CC060F06DC061F06EC062F06FC016
:1047680063F012000101B76F010E0101B96F000E6D
:104778000101BA6F000E0101B86F010E0101B66F99
:104788000101010E0001616F0101840E0001606FDB
:10479800000E0001636F320E0001626F49EC55F0A4
:1047A8000101010E0001616F01016F0E0001606FD0
:1047B800000E0001636F150E0001626F49EC55F0A1
:1047C8000101010E0001616F0101330E0001606FEC
:1047D800000E0001636F1E0E0001626F49EC55F078
:1047E8000101010E0001616F0101510E0001606FAE
:1047F800000E0001636F1E0E0001626F49EC55F058
:10480800F4EC41F00009D8A402D0000E1200040113
:10481800040E0001616F0401140E0001606F0001B5
:104828003EC062F00001636B49EC55F0000E3E6E2D
:10483800B5EC58F09E9A9D8AFF0E0001636FFB0E3F
:104848000001626FB5EC56F0500E0001606FC30EA8
:104858000001616F000E0001626F000E0001636FBE
:104868008CEC54F09D9A000E0101BA6F88D00101BA
:10487800B605D8A43FD00101BA51010D0401140EA8
:10488800F324D96E0401040EF420DA6EDF500A0A0C
:10489800D8B40ED00101BA51010D0401140EF3244D
:1048A800D96E0401040EF420DA6E0D0EDF6204D016
:1048B800000E0101B66F61D01D0E0101BA5DD8B0BE
:1048C8005CD00101BA51010D0401140EF324D96E14
:1048D8000401040EF420DA6E0101BA51010D010140
:1048E800330EF324E16E0101010EF420E26EDFCFF6
:1048F800E7FF43D00101BA51010D0401140EF3245E
:10490800D96E0401040EF420DA6EDF500A0AD8B416
:104918002FD00101BA51010D0401140EF324D96EF0
:104928000401040EF420DA6EDF500D0AD8B420D04A
:104938001D0E0101B85DD8B018D00101BA51010DA2
:104948000401140EF324D96E0401040EF420DA6E67
:104958000101B851010D0101510EF324E16E01016D
:10496800010EF420E26EDFCFE7FF0101B82B05D07E
:10497800020E0101B86501D006D00101BA2B3B0E29
:104988000101BA6574D701013351D8B403D00101CC
:10499800516704D0000E0101B96F50D00501050E12
:1049A8000001616F0501000E0001606F000E00013B
:1049B800636F1E0E0001626F49EC55F00501050E8C
:1049C8000001616F05011E0E0001606F000E0001FD
:1049D800636F1E0E0001626F49EC55F00101010E74
:1049E8000001696F0101330E0001686F0501050EB2
:1049F80000016B6F0501000E00016A6F1E0E0001B9
:104A08006C6F000E00016D6F6EEC53F00101010E2A
:104A18000001696F0101510E0001686F0501050E63
:104A280000016B6F05011E0E00016A6F1E0E00016A
:104A38006C6F000E00016D6F6EEC53F00401040EF4
:104A48000001616F0401140E0001606F00013EC097
:104A580062F00001636B49EC55F0000E3E6E0101F7
:104A6800B751D8B45CD00101B951D8B4D4D0010140
:104A7800010E0001AF6F0101840E0001AE6FFB0E45
:104A88000001B16F390E0001B06FD1C2B2F0D2C2CD
:104A9800B3F0D3C2B4F0D4C2B5F047EC15F0B5EC1E
:104AA80058F09E9A9D8A0101010E0001626F010172
:104AB800840E0001616FF8EC57F0500E0001606F32
:104AC800C30E0001616F000E0001626F000E00014D
:104AD800636F8CEC54F09D9A0101010E0001AF6FD9
:104AE8000101840E0001AE6FFF0E0001B16FF40EDC
:104AF8000001B06F47EC15F00401040E0001616F6E
:104B08000401140E0001606F0101010E0001636FC2
:104B18000101840E0001626F03EC47F076D00101B9
:104B2800B951D8B478D00401F06772D00401040EEA
:104B38000001696F0401DC0E0001686F0101010EBC
:104B480000016B6F01016F0E00016A6F150E000105
:104B58006C6F000E00016D6F6EEC53F00101010ED9
:104B68000001AF6F0101840E0001AE6FFF0E00015E
:104B7800B16F9F0E0001B06F0101010E0001B36F0C
:104B880001016F0E0001B26F47EC15F0B5EC58F05B
:104B98009E9A9D8A0101010E0001626F0101840E37
:104BA8000001616FF8EC57F0500E0001606FC30E02
:104BB8000001616F000E0001626F000E0001636F5B
:104BC8008CEC54F09D9A0101010E0001AF6F0101B8
:104BD800840E0001AE6FFF0E0001B16FF40E0001EC
:104BE800B06F47EC15F00401040E0001616F040179
:104BF800140E0001606F0101010E0001636F0101D5
:104C0800840E0001626F03EC47F00009D8A403D0BA
:104C1800000E0101B96F0401040E0001616F040167
:104C2800140E0001606F00013EC062F00001636B6A
:104C380049EC55F0000E3E6E0101B951D8B433D09D
:104C4800B5EC58F09E9A9D8AFF0E0001636F750EB1
:104C58000001626FB5EC56F0500E0001606FC30E94
:104C68000001616F000E0001626F000E0001636FAA
:104C78008CEC54F09D9A0401040E0001616F04014C
:104C8800140E0001606F0101010E0001636F010144
:104C9800840E0001626F03EC47F00009D8A403D02A
:104CA800000E0101B96F0401040E0001616F0401D7
:104CB800140E0001606F00013EC062F00001636BDA
:104CC80049EC55F0000E3E6E0101B951D8B433D00D
:104CD800B5EC58F09E9A9D8AFC0E0001636FCE0ECB
:104CE8000001626FB5EC56F0500E0001606FC30E04
:104CF8000001616F000E0001626F000E0001636F1A
:104D08008CEC54F09D9A0401040E0001616F0401BB
:104D1800140E0001606F0101010E0001636F0101B3
:104D2800840E0001626F03EC47F00009D8A403D099
:104D3800000E0101B96F0401040E0001616F040146
:104D4800140E0001606F00013EC062F00001636B49
:104D580049EC55F0000E3E6E0101B951D8B433D07C
:104D6800B5EC58F09E9A9D8AFF0E0001636F6C0E99
:104D78000001626FB5EC56F0500E0001606FC30E73
:104D88000001616F000E0001626F000E0001636F89
:104D98008CEC54F09D9A0401040E0001616F04012B
:104DA800140E0001606F0101010E0001636F010123
:104DB800840E0001626F03EC47F00009D8A403D009
:104DC800000E0101B96F0401040E0001616F0401B6
:104DD800140E0001606F00013EC062F00001636BB9
:104DE80049EC55F0000E3E6E0101B951D8B433D0EC
:104DF800B5EC58F09E9A9D8AFF0E0001636FB40EC1
:104E08000001626FB5EC56F0500E0001606FC30EE2
:104E18000001616F000E0001626F000E0001636FF8
:104E28008CEC54F09D9A0401040E0001616F04019A
:104E3800140E0001606F0101010E0001636F010192
:104E4800840E0001626F03EC47F00009D8A403D078
:104E5800000E0101B96F0401040E0001616F040125
:104E6800140E0001606F00013EC062F00001636B28
:104E780049EC55F0000E3E6E0101B951D8B472D01C
:104E8800B5EC58F09E9A9D8AFF0E0001636FF80EEC
:104E98000001626FB5EC56F0500E0001606FC30E52
:104EA8000001616F000E0001626F000E0001636F68
:104EB8008CEC54F09D9A0101B751D8B419D0010176
:104EC800010E0001AF6F0101840E0001AE6FFA0EF2
:104ED8000001B16F7B0E0001B06FD1C2B2F0D2C237
:104EE800B3F0D3C2B4F0D4C2B5F047EC15F018D083
:104EF8000101010E0001AF6F0101840E0001AE6FC8
:104F0800FF0E0001B16F000E0001B06F0101010E2C
:104F18000001B36F01016F0E0001B26F47EC15F08D
:104F28000401040E0001646F0401140E0001636F94
:104F38000101010E0001666F0101840E0001656F19
:104F48005AEC3FF00009D8A40DD00201D129D8B4F9
:104F5800D229D8B4D329D8B4D429D8B403D0000ED0
:104F68000101B96F0401040E0001616F0401140E00
:104F78000001606F00013EC062F00001636B49EC04
:104F880055F0000E3E6EB5EC58F09E9A9D8AFF0EC5
:104F98000001636FCC0E0001626FB5EC56F0500E45
:104FA8000001606FC30E0001616F000E0001626FA7
:104FB800000E0001636F8CEC54F00101010E00013A
:104FC800AF6F0101840E0001AE6FFF0E0001B16FDB
:104FD800F00E0001B06F47EC15F09D9A0401040E25
:104FE8000001616F0401140E0001606F0101010EE0
:104FF8000001636F0101840E0001626F03EC47F04A
:105008000009D8A403D0000E0101B96F0401040EF1
:105018000001616F0401140E0001606F00013EC0C1
:1050280062F00001636B49EC55F0000E3E6E010121
:10503800B951D8B402D0010E1200000E1200000EB1
:105048000301E36F000E0301DD6F000E0301DE6F45
:10505800010E0301E46F000E0301DF6F0301030E6D
:105068000001616F0301000E0001606F000E000176
:10507800636F640E0001626F49EC55F00301030E83
:105088000001616F0301640E0001606F000E0001F2
:10509800636F640E0001626F49EC55F00301030E63
:1050A8000001616F0301C80E0001606F000E00016E
:1050B800636F150E0001626F49EC55F045EC59F02D
:1050C80035EC56F03AEC40F061EC4FF089C0E5F36E
:1050D8008AC0E6F38BC0E7F3E5C360F0E6C361F08E
:1050E800E7C362F09A0E0001636FC90E0001646F96
:1050F800400E0001656F30EC4EF0D8B002D0220EA1
:1051080014D0000E0001606F840E0001616F410E23
:105118000001626FE5C363F0E6C364F0E7C365F0BE
:1051280030EC4EF0D8B003D0620E0301E46F0301F7
:10513800E405D8A42CD0000E0301E36F22D08B82A3
:105148008B94500E0001606FC30E0001616F000E5A
:105158000001626F000E0001636F8CEC54F08B92BB
:105168008B84500E0001606FC30E0001616F000E4A
:105178000001626F000E0001636F8CEC54F00301B4
:10518800E32B090E0301E365DAD78B9428D0000ED0
:105198000301E36F20D08B82A00E0001606F860EA2
:1051A8000001616F010E0001626F000E0001636F64
:1051B8008CEC54F08B92A00E0001606F860E0001FB
:1051C800616F010E0001626F000E0001636F8CECCD
:1051D80054F00301E32B090E0301E365DCD710EC5F
:1051E80059F00301E26F000E0301E06FE4C3E1F33D
:1051F800F0C3DDF3EAC3DEF361EC4FF089C0E5F3F9
:105208008AC0E6F38BC0E7F30301E451220AD8A46D
:1052180018D0E5C39FF0E6C3A0F0E7C3A1F0000EE5
:105228000001A26F000E0001A36F3F0E0001A46FE2
:1052380097EC56F09FC0E5F3A0C0E6F3A1C0E7F3F2
:105248001CD00301E451620AD8A417D0E5C393F037
:10525800E6C394F0E7C395F0000E0001966F000EC8
:105268000001976F3F0E0001986FC5EC38F093C0AE
:10527800E5F394C0E6F395C0E7F3E5C360F0E6C351
:1052880061F0E7C362F09A0E0001636FC90E000176
:10529800646F400E0001656F30EC4EF0D8B002D05C
:1052A800220E16D0000E0001606F840E0001616F9F
:1052B800410E0001626FE5C363F0E6C364F0E7C323
:1052C80065F030EC4EF0D8B002D0620E01D0010E7D
:1052D8000301E46F0301E405D8A48B820301E4050C
:1052E800D8A405D00301E105D8A4ACEC58F003011B
:1052F800DD51D8B419D00301EF51EC11ED11EE11C5
:10530800D8B412D00301030E0001EE6F0301F00EB2
:105318000001ED6FECC3EFF0EDC3F0F0EEC3F1F078
:10532800EFC3F2F030EC3BF010EC59F00301E26F00
:105338000301E2510301E019D8B4A4D00301E251FA
:10534800D8B49FD00401040E0001616F0401780EE7
:105358000001606F03010001EBC362F00001636BA1
:1053680049EC55F0000E0301EB6F400E0001606F31
:10537800420E0001616F0F0E0001626F000E000106
:10538800636F8CEC54F0EE0E0001656F590E00014E
:10539800646FEDEC55F0F00E0001636F510E0001E3
:1053A800626FB5EC56F00301E851D8B44AD0F00E5C
:1053B8000001636F510E0001626FB5EC56F00401F5
:1053C800040E0001696F0401DC0E0001686F03011F
:1053D800030E00016B6F0301C80E00016A6F150E02
:1053E80000016C6F000E00016D6F6EEC53F003014D
:1053F800030E0001AF6F0301000E0001AE6FF20E45
:105408000001B16F4D0E0001B06F0301030E0001E2
:10541800B36F0301C80E0001B26F47EC15F003012A
:10542800030E0001656F0301000E0001646FD1ECEB
:1054380056F0F00E0001636F510E0001626FB5EC7B
:1054480056F00301E405D8B414D00301E105D8B43B
:1054580010D0FB0E0001656F990E0001646FEDEC32
:1054680055F0F00E0001636F510E0001626FB5EC4C
:1054780056F0B5EC58F09E9A9D8A3E0E3FEC58F0D7
:1054880001D09D9A0301DE51D8B485D00301E251C1
:10549800D8B481D00301030E0001616F0301640ECB
:1054A8000001606F000E0001636F640E0001626FFF
:1054B80049EC55F00401040E0001696F0401780EEF
:1054C8000001686F0301030E00016B6F0301640E96
:1054D80000016A6FEBC36CF0000E00016D6F6EEC9B
:1054E80053F0EBC3DFF30401040E0001616F040104
:1054F800780E0001606F03010001EBC362F0000148
:10550800636B49EC55F0000E0301EB6F000E0301CD
:10551800EA6F03016451D8B40CD00301030E0001F3
:10552800FA6F0301640E0001F96FDFC3FBF0ECECC6
:1055380000F00401040E0001616F0401780E0001FF
:10554800606F03010001EBC362F00001636B49EC7B
:1055580055F0000E0301EB6F000E0301EA6FF00E29
:105568000001636F510E0001626FB5EC56F03E0EFC
:105578003FEC58F00301F051D8B403D0000E0301FA
:10558800F06F0AEC59F0476EF2907D88F286B5EC20
:1055980058F09E9A9D8A880E0001FC6F130EFD6FCD
:1055A800000EFE6F000EFF6F0001FC510301F15D5C
:1055B8000001FD510301F2590001FE510301F359A5
:1055C8000001FF510301F459D8B00BD0010E0301BB
:1055D800F127000E0301F2230301F3230301F4234F
:1055E80029D00301F251130A880ED8B4F119F31126
:1055F800F411D8A41FD0010E0301F127000E0301F6
:10560800F2230301F3230301F423000E0301EC6FDB
:10561800000E0301ED6F000E0301EE6F000E030193
:10562800EF6F000E0301F06F0AEC59F0476EF2902D
:105638007D88F2860301E951D8B435D00401040EFF
:105648000001616F0401780E0001606F000E000117
:10565800636F640E0001626F49EC55F0000E0301A0
:10566800EB6FF00E0001636F510E0001626FB5EC35
:1056780056F0FE0E0001656F410E0001646FEDECFF
:1056880055F0F00E0001636F510E0001626FB5EC2A
:1056980056F03E0E58EC58F0000E0301E96FB5ECD9
:1056A80058F09E9A9D8AE2C3E0F3A0D500018F6F5F
:1056B80000018FAF6FD100018F6D00018F51800AFB
:1056C800120FD8A0CFD0000E0001716F030E000199
:1056D800706F000E0001696F0A0E0001686F000EFE
:1056E8000001636F640E0001626F00018F510001B9
:1056F800606F0001616B000160BF6107FFEC4EF055
:10570800000160C066F0000161C067F055EC4DF023
:10571800090E0001662500016E6F000E0001672169
:1057280000016F6FECEC56F0EB0E00016E25F66E83
:10573800ED0E00016F21F76EF86A000EF8220900DD
:105748000001F5CF7DF009000001F5CF7EF00A00D9
:105758000001F5CF7FF0000E0001696F640E0001B3
:10576800686F00018F510001666F0001676B0001CF
:1057780066BF670755EC4DF0120E00016625000163
:105788006E6F000E0001672100016F6F000E0001AF
:10579800716F030E0001706FECEC56F0EB0E000118
:1057A8006E25F66EED0E00016F21F76EF86A000E99
:1057B800F82209000001F5CF7AF009000001F5CFC1
:1057C8007BF00A000001F5CF7CF0FAEC44F07AC0D7
:1057D8008CF07BC08DF07CC08EF08CC07AF08DC0D0
:1057E8007BF08EC07CF0000E0001716F030E00018B
:1057F800706F000E0001636F0A0E0001626F0001F6
:105808008F510001606F0001616B000160BF61078B
:10581800FFEC4EF0000160C06EF0000161C06FF057
:10582800ECEC56F0EB0E00016E25F66EED0E000165
:105838006F21F76EF86A000EF82209000001F5CF13
:105848007DF009000001F5CF7EF00A000001F5CFD8
:105858007FF0FAEC44F07AC089F07BC08AF07CC013
:105868008BF0120000018F51800A750FD8A079D0F3
:10587800000E0001696F0A0E0001686F00018F5168
:105888000001666F0001676B000166BF670755EC92
:105898004DF0090E0001662500016E6F000E000133
:1058A800672100016F6F000E0001716F030E000188
:1058B800706FECEC56F0EB0E00016E25F66EED0EF7
:1058C80000016F21F76EF86A000EF8220900000146
:1058D800F5CF7AF009000001F5CF7BF00A0000014E
:1058E800F5CF7CF0000E0001716F030E0001706FA0
:1058F800000E0001636F0A0E0001626F00018F51F4
:105908000001606F0001616B000160BF6107FFEC7F
:105918004EF0000160C06EF0000161C06FF0ECEC69
:1059280056F0EB0E00016E25F66EED0E00016F21AC
:10593800F76EF86A000EF82209000001F5CF7DF035
:1059480009000001F5CF7EF00A000001F5CF7FF0D5
:10595800FAEC44F07AC089F07BC08AF07CC08BF006
:10596800120000018F51030DEB0EF324F66EED0EBD
:10597800F420F76EF86A000EF82209000001F5CF4E
:1059880089F009000001F5CF8AF00A000001F5CF7F
:105998008BF0120000018F51800A120FD8A0CFD0CF
:1059A800000E0001716F030E0001706F000E000100
:1059B800696F0A0E0001686F000E0001636F640EC4
:1059C8000001626F00018F510001606F0001616B7F
:1059D800000160BF6107FFEC4EF0000160C066F097
:1059E800000161C067F055EC4DF0090E0001662515
:1059F80000016E6F000E0001672100016F6FECEC73
:105A080056F0120E00016E25F66EEE0E00016F21A3
:105A1800F76EF86A000EF82209000001F5CF7DF054
:105A280009000001F5CF7EF00A000001F5CF7FF0F4
:105A3800000E0001696F640E0001686F00018F514C
:105A48000001666F0001676B000166BF670755ECD0
:105A58004DF0120E0001662500016E6F000E000168
:105A6800672100016F6F000E0001716F030E0001C6
:105A7800706FECEC56F0120E00016E25F66EEE0E0D
:105A880000016F21F76EF86A000EF8220900000184
:105A9800F5CF7AF009000001F5CF7BF00A0000018C
:105AA800F5CF7CF0FAEC44F07AC08CF07BC08DF036
:105AB8007CC08EF08CC07AF08DC07BF08EC07CF0FC
:105AC800000E0001716F030E0001706F000E0001DF
:105AD800636F0A0E0001626F00018F510001606F51
