:04000000E6EF00F037
:10000800FACF29F0FBCF2AF0E9CF2BF01AEF2BF02B
:10001800D8CF05F0E8CF06F0E0CF07F0FACF08F028
:10002800FBCF09F0E9CF0AF0EACF0BF0E1CF0CF0F3
:10003800E2CF0DF0D9CF0EF0DACF0FF0F3CF10F0FA
:10004800F4CF11F0F6CF12F0F7CF13F0F8CF14F089
:10005800F5CF15F0000E166EF29C9EAA7FD0DCEC50
:1000680056F0166E63EC57F00009D8A40FD0630E53
:100078003E6072D03E50010D000EF324D96E040E7E
:10008800F420DA6E16C0DFFF3E2A66D00D0E161871
:10009800D8B44FD00A0E1618D8B44BD07F0E161805
:1000A800D8B404D0080E1618D8A41FD00301EB51F9
:1000B800D8B41BD00301EB294DEC56F00301EB0734
:1000C8000301EB51010D640EF324D96E040EF420E4
:1000D800DA6E000EDF6E3E0EA1EC56F0640E026E74
:1000E800040E036E61EC56F037D0620E0301EB612B
:1000F8001BD00301EA51D8A42FD01650BAEC56F001
:100108000009D8B429D01650E7EC56F00301EB519A
:10011800010D640EF324D96E040EF420DA6E16C0B5
:10012800DFFF0301EB2B18D09D9A010E0301E96F45
:1001380013D00301EB51D8B40FD00301EA51D8A46E
:100148000BD09D9A5E0E036EEF0E046EC9EC55F04F
:10015800010E0301EA6F00D09E9A10D09EA00CD029
:10016800492A020E496406D08B948B92CD90000EDA
:10017800496E00D09E9002D000F000D0F28C15C0DD
:10018800F5FF14C0F8FF13C0F7FF12C0F6FF11C047
:10019800F4FF10C0F3FF0FC0DAFF0EC0D9FF0DC087
:1001A800E2FF0CC0E1FF0BC0EAFF0AC0E9FF09C08B
:1001B800FBFF08C0FAFF07C0E0FF06C0E8FF05C064
:1001C800D8FF100043EF4CF0010E02017D6F000EC6
:1001D8000201796F000E7A6F000E7B6F000E7C6F44
:1001E800000E0201836F000E0201846F000E0201EF
:1001F800856F000E866F000E876F000E886F000EE9
:100208000201706F000E716F000E726F000E736F37
:10021800000E0201806F000E0201786F000E0201CD
:100228007E6F000E02016E6F000E0201746F000EE9
:10023800756F000E766F000E776F000E02016F6FFC
:10024800000E0001606F020E0001616F000E0001D8
:10025800636F640E626F3DEC53F0640E0001606FD3
:10026800020E0001616F000E0001636F0A0E626FDB
:100278003DEC53F0E6C063F0E7C064F09A0E00016D
:10028800656FFF0E0001666F5FEC50F00009D8B48F
:1002980029D0000E0201896F070E0201896502D07C
:1002A8001200120002018951D8EC37F0B50E000196
:1002B800626FFF0E0001636F98EC55F002018951DF
:1002C80075EC4BF05E0E0001626FEF0E0001636F7C
:1002D80098EC55F00201892B070E02018965E2D7D7
:1002E80012001200E6C063F0E7C064F0BB0E000124
:1002F800656FFF0E0001666F6AEC3DF00009D8B427
:100308007ED0E6C063F0E7C064F0C70E0001656FF9
:10031800EE0E0001666F5FEC50F00009D8B412D001
:10032800200E0001686FEF0E0001696F010E0001D9
:100338006A6F0C0E00016B6F080E00016C6FBDEC4C
:1003480054F054D0E6C063F0E7C064F0D60E000164
:10035800656FEE0E0001666F5FEC50F00009D8B4CF
:1003680012D02C0E0001686FEF0E0001696F010EAC
:1003780000016A6F0C0E00016B6F080E00016C6FB4
:10038800BDEC54F033D0E6C063F0E7C064F0E50E8E
:100398000001656FEE0E0001666F5FEC50F000091A
:1003A800D8B412D0380E0001686FEF0E0001696FE3
:1003B800010E00016A6F0C0E00016B6F080E000140
:1003C8006C6FBDEC54F012D0120E0001626FEF0E8C
:1003D8000001636F98EC55F05E0E0001626FEF0E3E
:1003E8000001636F98EC55F0120000D0060E000172
:1003F800646FFA0E0001656F7BEC54F01200E6C0E2
:1004080063F0E7C064F0C10E0001656FFF0E0001E4
:10041800666F6AEC3DF00009D8B465D1E6C063F0B8
:10042800E7C064F0D00E0001656FED0E0001666F45
:100438005FEC50F00009D8B412D0370E0001686F95
:10044800EE0E0001696F020E00016A6F100E0001C6
:100458006B6F080E00016C6FBDEC54F03BD1E6C029
:1004680063F0E7C064F0AA0E0001656FED0E0001AD
:10047800666F5FEC50F00009D8B412D0270E000167
:10048800686FEE0E0001696F020E00016A6F100EB0
:1004980000016B6F080E00016C6FBDEC54F01AD1AF
:1004A800E6C063F0E7C064F0E20E0001656FED0E90
:1004B8000001666F5FEC50F00009D8B412D0570EF7
:1004C8000001686FEE0E0001696F020E00016A6F8D
:1004D800100E00016B6F080E00016C6FBDEC54F03C
:1004E800F9D0E6C063F0E7C064F0BD0E0001656FA7
:1004F800ED0E0001666F5FEC50F00009D8B412D021
:10050800470E0001686FEE0E0001696F020E0001D0
:100518006A6F100E00016B6F080E00016C6FBDEC66
:1005280054F0D8D0E6C063F0E7C064F06E0E000166
:10053800656FED0E0001666F5FEC50F00009D8B4EE
:1005480012D0770E0001686FEE0E0001696F020E7F
:1005580000016A6F100E00016B6F080E00016C6FCE
:10056800BDEC54F0B7D0E6C063F0E7C064F02F0EDE
:100578000001656FED0E0001666F5FEC50F0000939
:10058800D8B412D0670E0001686FEE0E0001696FD3
:10059800020E00016A6F100E00016B6F080E000159
:1005A8006C6FBDEC54F096D0E6C063F0E7C064F021
:1005B800820E0001656FED0E0001666F5FEC50F072
:1005C8000009D8B412D0970E0001686FEE0E000132
:1005D800696F020E00016A6F100E00016B6F080E42
:1005E80000016C6FBDEC54F075D0E6C063F0E7C055
:1005F80064F0440E0001656FED0E0001666F5FEC5C
:1006080050F00009D8B412D0870E0001686FEE0EC2
:100618000001696F020E00016A6F100E00016B6F16
:10062800080E00016C6FBDEC54F054D0E6C063F0C6
:10063800E7C064F0960E0001656FED0E0001666F6D
:100648005FEC50F00009D8B412D0B70E0001686F03
:10065800EE0E0001696F020E00016A6F100E0001B4
:100668006B6F080E00016C6FBDEC54F033D0E6C020
:1006780063F0E7C064F0590E0001656FED0E0001EC
:10068800666F5FEC50F00009D8B412D0870E0001F5
:10069800686FEE0E0001696F030E00016A6F100E9D
:1006A80000016B6F080E00016C6FBDEC54F012D0A6
:1006B800120E0001626FEF0E0001636F98EC55F0A7
:1006C8005E0E0001626FEF0E0001636F98EC55F04B
:1006D800120000D0230E0001646FFA0E0001656F4E
:1006E8007BEC54F01200E6C063F0E7C064F0E90E5A
:1006F8000001656FFF0E0001666F6AEC3DF00009AE
:10070800D8B400D2E6C06CF0E7C06DF0020E00016C
:100718006E6F850E00016F6F020E0001706FA7ECFF
:1007280032F00009D8A4D1D0020188510201871102
:1007380004E102018605D8A011D0F10E0001646F12
:10074800F80E0001656F7BEC54F05E0E0001626FDD
:10075800EF0E0001636F98EC55F0120085C284F229
:10076800E6C06CF0E7C06DF0010E00016E6F850EFB
:1007780000016F6F020E0001706FA7EC32F00009E4
:10078800D8A492D0020188510201871104E1020124
:100798008605D8A011D0100E0001646FF90E000173
:1007A800656F7BEC54F05E0E0001626FEF0E000186
:1007B800636F98EC55F0120085C283F2000E0001B9
:1007C800AE6F020E0001AF6F5C0E0001B06FFC0E41
:1007D8000001B16F83C2B2F00001B36B22EC16F0D6
:1007E800000E0001646F020E0001656FF9EC54F011
:1007F800000E0001AE6F020E0001AF6F470E000140
:10080800B06FFC0E0001B16F84C2B2F00001B36B8F
:1008180022EC16F0000E0001646F020E0001656FF5
:10082800F9EC54F084C264F00201835110EC44F0F6
:1008380064C079F265C07AF266C07BF267C07CF268
:1008480079C275F07AC276F07BC277F07CC278F014
:10085800000E0001796FC1EC4FF0000E0001AE6F81
:10086800020E0001AF6F930E0001B06FFB0E000186
:10087800B16F79C2B2F07AC2B3F07BC2B4F07CC275
:10088800B5F022EC16F0000E0001646F020E0001B4
:10089800656FF9EC54F05E0E0001626FEF0E000117
:1008A800636F98EC55F01200D10E0001646FF80EDA
:1008B8000001656F7BEC54F05E0E0001626FEF0E75
:1008C8000001636F98EC55F01200E6C06CF0E7C0C9
:1008D8006DF0010E00016E6F790E00016F6F020E50
:1008E8000001706FA7EC32F00009D8A493D079C248
:1008F80075F07AC276F07BC277F07CC278F0000E91
:100908000001796FC1EC4FF0000E0001AE6F020ECE
:100918000001AF6FEC0E0001B06FFC0E0001B16F6B
:1009280079C2B2F07AC2B3F07BC2B4F07CC2B5F03F
:1009380022EC16F0000E0001646F020E0001656FD4
:10094800F9EC54F079C264F07AC265F07BC266F0C3
:100958007CC267F0830E0001686F020E0001696FA8
:10096800840E00016A6F020E00016B6F26EC4EF0D8
:100978000009D8B435D0000E0001AE6F020E000198
:10098800AF6F600E0001B06FFC0E0001B16F83C243
:10099800B2F00001B36B22EC16F0000E0001646F98
:1009A800020E0001656FF9EC54F0000E0001AE6F05
:1009B800020E0001AF6F080E0001B06FF50E0001C6
:1009C800B16F84C2B2F00001B36B22EC16F0000ED6
:1009D8000001646F020E0001656FF9EC54F011D04C
:1009E800EF0E0001646FF70E0001656F7BEC54F0A9
:1009F8005E0E0001626FEF0E0001636F98EC55F018
:100A080012005E0E0001626FEF0E0001636F98EC3A
:100A180055F01200E6C060F0E7C061F0E70E000193
:100A2800626FFF0E0001636FB7EC44F00009D8A4B1
:100A380010D05E0E0001626FEF0E0001636F98EC3C
:100A480055F0CA0E0001646FF90E0001656F7BEC6A
:100A580054F05E0E0001626FEF0E0001636F98ECB8
:100A680055F0930E0001646FFF0E0001656F7BEC7B
:100A780054F0C40E0001646FFC0E0001656F7BEC3E
:100A880054F03A0E0001646FFF0E0001656F7BECB5
:100A980054F0050E0001646FFC0E0001656F7BECDD
:100AA80054F05E0E0001626FEF0E0001636F98EC68
:100AB80055F06B0E0001646FFF0E0001656F7BEC53
:100AC80054F09A0E0001646FFD0E0001656F7BEC17
:100AD80054F03C0E0001646FFF0E0001656F7BEC63
:100AE80054F0F20E0001646FFD0E0001656F7BEC9F
:100AF80054F05E0E0001626FEF0E0001636F98EC18
:100B080055F01200E6C063F0E7C064F0D50E0001AE
:100B1800656FFE0E0001666F6AEC3DF00009D8B4FF
:100B2800C8D2E6C06FF0E7C070F083EC3BF0000974
:100B3800D8B466D20001E82BE6C06CF0E7C06DF0CF
:100B4800010E00016E6F850E00016F6F020E00012D
:100B5800706FA7EC32F00009D8A452D20201885174
:100B6800020187110201861104E10D0E0201855D63
:100B7800D8B02CD2020185510201861102018711D9
:100B880002018811D8B422D2E6C063F0E7C064F04D
:100B9800240E0001656FFD0E0001666F6AEC3DF0E2
:100BA8000009D8A423D1FE0E0001E96FFF0E000151
:100BB800EA6F85C2EBF086C2ECF0D8900001EB3703
:100BC800EC370001E9510001EB270001EA5100016F
:100BD800EC23D20E0001ED6F020E0001EE6F050E40
:100BE8000001ED27000EEE230001EB510001ED2777
:100BF8000001EC510001EE23010E0001ED25D96E34
:100C0800000E0001EE21DA6EDF500001646FFE0E67
:100C18000001EF6FFF0E0001F06F85C2F1F086C290
:100C2800F2F0D8900001F137F2370001EF510001DE
:100C3800F1270001F0510001F223D70E0001F12540
:100C4800D96E020E0001F221DA6EDF5010EC44F08A
:100C580064C070F265C071F266C072F267C073F268
:100C68000201702908E102017229020171110201D1
:100C78007311D8B4A9D070C275F071C276F072C27F
:100C880077F073C278F0000E0001796FC1EC4FF075
:100C9800000E0001AE6F020E0001AF6F710E000171
:100CA800B06FFC0E0001B16F70C2B2F071C2B3F048
:100CB80072C2B4F073C2B5F022EC16F0000E000157
:100CC800646F020E0001656FF9EC54F0000E00012C
:100CD800AE6F020E0001AF6FED0E0001B06FF40EA3
:100CE8000001B16FFE0E0001E96FFF0E0001EA6F0F
:100CF80085C2EBF086C2ECF0D8900001EB37EC37F8
:100D08000001E9510001EB270001EA510001EC2341
:100D1800D70E0001EB25D96E020E0001EC21DA6E28
:100D2800DF500001ED6F0001ED510001B26FB36BB0
:100D3800FE0E0001EE6FFF0E0001EF6F85C2F0F0AE
:100D480086C2F1F0D8900001F037F1370001EE517A
:100D58000001F0270001EF510001F123D20E00013C
:100D6800F26F020E0001F36F050E0001F227000E6C
:100D7800F3230001F0510001F2270001F1510001B5
:100D8800F323010E0001F225D96E000E0001F321B4
:100D9800DA6EDF500001F46F0001F4510001B46F06
:100DA800B56B22EC16F0000E0001646F020E000114
:100DB800656FF9EC54F05E0E0001626FEF0E0001F2
:100DC800636F98EC55F012005E0E0001626FEF0E33
:100DD8000001636F98EC55F0F10E0001646FF20E9C
:100DE8000001656F7BEC54F012000AD1A9EC50F0B9
:100DF8000009D8B4120001D01200ECC364F0EDC3AE
:100E080065F0EEC366F0EFC367F0830E0001686F0C
:100E1800020E0001696F840E00016A6F020E000164
:100E28006B6F26EC4EF0FE0E0001E96FFF0E00011D
:100E3800EA6F85C2EBF086C2ECF0D8900001EB3780
:100E4800EC370001E9510001EB270001EA510001EC
:100E5800EC23D70E0001EB25D96E020E0001EC2120
:100E6800DA6E83C2DFFFFE0E0001E96FFF0E00019C
:100E7800EA6F85C2EBF086C2ECF0D8900001EB3740
:100E8800EC370001E9510001EB270001EA510001AC
:100E9800EC23D20E0001ED6F020E0001EE6F050E7D
:100EA8000001ED27000EEE230001EB510001ED27B4
:100EB8000001EC510001EE23010E0001ED25D96E71
:100EC800000E0001EE21DA6E84C2DFFF71EC4FF0F4
:100ED8005E0E0001626FEF0E0001636F98EC55F033
:100EE800000E0001AE6F020E0001AF6F4F0E000141
:100EF800B06FF30E0001B16F85C2B2F086C2B3F0D5
:100F080087C2B4F088C2B5F0ECC3B6F0EDC3B7F051
:100F1800EEC3B8F0EFC3B9F022EC16F0000E0001F2
:100F2800646F020E0001656FF9EC54F0000E0001C9
:100F3800AE6F020E0001AF6FED0E0001B06FF40E40
:100F48000001B16F83C2B2F00001B36B84C2B4F088
:100F58000001B56B22EC16F0000E0001646F020E62
:100F68000001656FF9EC54F05E0E0001626FEF0E40
:100F78000001636F98EC55F0000E0201896F090EAD
:100F88000201896502D0120012008B84500E000104
:100F9800606FC30E616F000E626F000E636F96EC98
:100FA80053F08B94500E0001606FC30E616F000EFA
:100FB800626F000E636F96EC53F00201892B090EE5
:100FC80002018965E2D7120012001AD05E0E0001F4
:100FD800626FEF0E0001636F98EC55F0B40E0001DC
:100FE800646FF60E0001656F7BEC54F05E0E000135
:100FF800626FEF0E0001636F98EC55F0120000D09D
:101008005E0E0001626FEF0E0001636F98EC55F001
:10101800200E0001646FF70E0001656F7BEC54F041
:101028005E0E0001626FEF0E0001636F98EC55F0E1
:10103800930E0001646FFF0E0001656F7BEC54F0A6
:10104800030E0001646FFE0E0001656F7BEC54F027
:10105800140E0001646FFD0E0001656F7BEC54F007
:101068005E0E0001626FEF0E0001636F98EC55F0A1
:101078006B0E0001646FFF0E0001656F7BEC54F08E
:10108800510E0001646FFE0E0001656F7BEC54F099
:10109800AC0E0001646FFD0E0001656F7BEC54F02F
:1010A8005E0E0001626FEF0E0001636F98EC55F061
:1010B8001200E6C063F0E7C064F0A80E0001656F97
:1010C800FF0E0001666F6AEC3DF00009D8A410D04D
:1010D800E6C063F0E7C064F0740E0001656FFF0EB0
:1010E8000001666F6AEC3DF00009D8B45EEF0EF0BF
:1010F800E6C063F0E7C064F0A80E0001656FFF0E5C
:101108000001666F6AEC3DF00009D8B4A4D1010E65
:1011180002016E6FA9EC50F00009D8B4120001D09A
:1011280012005E0E0001626FEF0E0001636F98EC13
:1011380055F0ECC364F0EDC365F0EEC366F0EFC3A1
:1011480067F0830E0001686F020E0001696F840E5C
:1011580000016A6F020E00016B6F26EC4EF0000E64
:101168000201826F070E0201826501D027D1000EAD
:1011780002017D6F000E0201896F020E020189656E
:1011880001D049D002018251060D9E0E0001E96F7F
:10119800020E0001EA6FF3500001E927F450000144
:1011A800EA2302018951020DF3500001E925D96EA5
:1011B800F4500001EA21DA6EDF50D8A429D00201E8
:1011C8008251060D9E0E0001E96F020E0001EA6FC2
:1011D800F3500001E927F4500001EA230201895184
:1011E800020DF3500001E927F4500001EA23010E33
:1011F8000001E925D96E000E0001EA21DA6EDF5000
:10120800D8A406D089C27EF2010E02017D6F03D0F8
:101218000201892BB2D702017D510201D8A415D051
:10122800FD0E0001626FF60E0001636F98EC55F039
:101238000201825175EC4BF05E0E0001626FEF0EF9
:101248000001636F98EC55F0B6D002017E5102019F
:10125800D8B458D0000E0201896F4CD002018251D7
:10126800060D9E0E0001E96F020E0001EA6FF350B1
:101278000001E927F4500001EA2302018951020D17
:10128800F3500001E925D96EF4500001EA21DA6E25
:1012980002018351DE18D8A42AD002018251060D1A
:1012A8009E0E0001E96F020E0001EA6FF350000183
:1012B800E927F4500001EA2302018951020DF35095
:1012C8000001E927F4500001EA23010E0001E92595
:1012D800D96E000E0001EA21DA6E02018451DE188F
:1012E800D8A405D0000E02017D6F0CD000D00201F9
:1012F800892B00D002017E510201895DD8B002D04D
:10130800ADD700D002017D510201D8A415D0890EB5
:101318000001626FF70E0001636F98EC55F002014F
:10132800825175EC4BF05E0E0001626FEF0E00010A
:10133800636F98EC55F03FD002018251060D9E0E66
:101348000001E96F020E0001EA6FF3500001E9277E
:10135800F4500001EA2302017E51020DF35000010E
:10136800E925D96EF4500001EA21DA6E83C2DFFF65
:1013780002018251060D9E0E0001E96F020E000166
:10138800EA6FF3500001E927F4500001EA23020153
:101398007E51020DF3500001E927F4500001EA23C1
:1013A800010E0001E925D96E000E0001EA21DA6E6E
:1013B80084C2DFFF00D00201822BD4D671EC4FF03B
:1013C800000E0201896F090E0201896501D01BD048
:1013D8008B84500E0001606FC30E616F000E626F48
:1013E800000E636F96EC53F08B94500E0001606F03
:1013F800C30E616F000E626F000E636F96EC53F0C0
:101408000201892BE0D7000E0001AE6F020E000129
:10141800AF6FC90E0001B06FF50E0001B16FECC3DC
:10142800B2F0EDC3B3F0EEC3B4F0EFC3B5F022EC05
:1014380016F0000E0001646F020E0001656FF9ECF2
:1014480054F05E0E0001626FEF0E0001636F98ECBE
:1014580055F0120004D0000E02016E6F00D0E6C0F5
:101468006FF0E7C070F083EC3BF00009D8A411D00E
:101478006A0E0001646FF60E0001656F7BEC54F094
:101488005E0E0001626FEF0E0001636F98EC55F07D
:1014980012000001E82B5E0E0001626FEF0E0001E2
:1014A800636F98EC55F0E6C06CF0E7C06DF0010E84
:1014B80000016E6F850E00016F6F020E0001706FE4
:1014C800A7EC32F00009D8A403D085C281F211D06C
:1014D8006A0E0001646FF60E0001656F7BEC54F034
:1014E8005E0E0001626FEF0E0001636F98EC55F01D
:1014F8001200020181510201D8B405D0020E020186
:10150800816512D000D08F0E0001646FF60E0001C5
:10151800656F7BEC54F05E0E0001626FEF0E000108
:10152800636F98EC55F01200E6C060F0E7C061F018
:10153800010E0001626F640E0001636F020E00016C
:10154800646F09EC47F00009D8B411D08C0E000183
:10155800646FF90E0001656F7BEC54F05E0E0001BC
:10156800626FEF0E0001636F98EC55F01200640E85
:101578000001606F020E0001616F37EC54F0020148
:101588006551D8B405D0200E02016519D8A481D3BD
:10159800000E0201656F02018105D8A415D0520E14
:1015A8000001636FEF0E0001646F640E0001656F48
:1015B800020E0001666F6AEC3DF00009D8A419D04C
:1015C800000E02017D6F15D0020E02018119D8A408
:1015D80010D0560E0001636FEF0E0001646F640EA9
:1015E8000001656F020E0001666F6AEC3DF0E5D7F9
:1015F80000D002017D510201D8A411D0AB0E000128
:10160800646FF90E0001656F7BEC54F05E0E00010B
:10161800626FEF0E0001636F98EC55F01200020143
:101628008105D8A417D0640E02016419D8A402D089
:10163800000E22D0650E02016419D8A402D0010E52
:101648001BD0660E02016419D8A41200020E14D031
:101658001200ADD0020E02018119D8A4A8D0620EE2
:1016680002016419D8A402D0030E06D0640E020148
:101678006419D8A404D0040E02017F6F98D0680EB4
:1016880002016419D8A41200640E0001606F040EF0
:101698000001616FEBC362F00001636B3DEC53F036
:1016A800000E0301EB6F000E0301EA6F5F0E0001ED
:1016B800626FFE0E0001636F98EC55F05E0E00013C
:1016C800626FEF0E0001636F98EC55F03E0E93ECDD
:1016D80056F0000E0201806F18EC57F09E9A9D8A12
:1016E80023D0E00E0001606F930E616F040E626FED
:1016F800000E636F96EC53F00201802B190E020165
:10170800806512D05E0E0001626FEF0E0001636FFC
:1017180098EC55F0350E0001646FF10E0001656F0D
:101728007BEC54F0120000D00301EA51D8B4D9D7A9
:101738009D9A010E02017D6F300E0401646505D08B
:10174800330E040164650DD000D0670E0001646F8C
:10175800F10E0001656F7BEC54F0000E02017D6F05
:1017680000D004016451D00F0201786F0201785152
:10177800040F02017F6F640E0001606F040E000108
:10178800616FEBC362F00001636B3DEC53F0000E38
:101798000301EB6F000E0301EA6F02017D510201A4
:1017A800D8B4120004D0120002D0120000D00201F6
:1017B8006E510201D8B4B2D1A9EC50F00009D8B4E6
:1017C800120001D012005E0E0001626FEF0E0001E0
:1017D800636F98EC55F0ECC364F0EDC365F0EEC3AD
:1017E80066F0EFC367F0830E0001686F020E000118
:1017F800696F840E00016A6F020E00016B6F26ECA0
:101808004EF0000E02017D6F000E0201896F020E7C
:101818000201896501D049D002017F51060D9E0E53
:101828000001E96F020E0001EA6FF3500001E92799
:10183800F4500001EA2302018951020DF35000011E
:10184800E925D96EF4500001EA21DA6EDF50D8A4F8
:1018580029D002017F51060D9E0E0001E96F020E8C
:101868000001EA6FF3500001E927F4500001EA2370
:1018780002018951020DF3500001E927F4500001DB
:10188800EA23010E0001E925D96E000E0001EA21C4
:10189800DA6EDF50D8A406D089C27EF2010E0201AA
:1018A8007D6F03D00201892BB2D702017D5102015D
:1018B800D8A409D0200E0001646FF30E0001656FF3
:1018C8007BEC54F0120002017E510201D8B458D0CA
:1018D800000E0201896F4CD002017F51060D9E0E49
:1018E8000001E96F020E0001EA6FF3500001E927D9
:1018F800F4500001EA2302018951020DF35000015E
:10190800E925D96EF4500001EA21DA6E020183510B
:10191800DE18D8A42AD002017F51060D9E0E0001C0
:10192800E96F020E0001EA6FF3500001E927F45055
:101938000001EA2302018951020DF3500001E92751
:10194800F4500001EA23010E0001E925D96E000ECA
:101958000001EA21DA6E02018451DE18D8A405D00C
:10196800000E02017D6F0CD000D00201892B00D03F
:1019780002017E510201895DD8B002D0ADD700D0F6
:1019880002017D510201D8A409D0910E0001646FB3
:10199800F40E0001656F7BEC54F0120002017F51D8
:1019A800060D9E0E0001E96F020E0001EA6FF3506A
:1019B8000001E927F4500001EA2302017E51020DDB
:1019C800F3500001E925D96EF4500001EA21DA6EDE
:1019D80083C2DFFF02017F51060D9E0E0001E96FF1
:1019E800020E0001EA6FF3500001E927F4500001EC
:1019F800EA2302017E51020DF3500001E927F45059
:101A08000001EA23010E0001E925D96E000E00014C
:101A1800EA21DA6E84C2DFFF71EC4FF002017851DF
:101A28000201D8B423D0000E0001AE6F020E0001EF
:101A3800AF6FA10E0001B06FEF0E0001B16FECC3E4
:101A4800B2F0EDC3B3F0EEC3B4F0EFC3B5F081C2AA
:101A5800B6F00001B76B64C2B8F00001B96B78C288
:101A6800BAF00001BB6B22EC16F01FD0000E00018B
:101A7800AE6F020E0001AF6F940E0001B06FF00E52
:101A88000001B16FECC3B2F0EDC3B3F0EEC3B4F034
:101A9800EFC3B5F081C2B6F00001B76B64C2B8F00D
:101AA8000001B96B22EC16F000D0000E0001646F43
:101AB800020E0001656FF9EC54F05E0E0001626FD2
:101AC800EF0E0001636F98EC55F0000E0201896F6C
:101AD800090E0201896502D0120012008B84500E93
:101AE8000001606FC30E616F000E626F000E636FBE
:101AF80096EC53F08B94500E0001606FC30E616F2B
:101B0800000E626F000E636F96EC53F00201892B92
:101B1800090E02018965E2D712001200000E0201C7
:101B2800896F020E0201896501D041D002017F51FF
:101B3800060D9E0E0001E96F020E0001EA6FF350D8
:101B48000001E927F4500001EA2302018951020D3E
:101B5800F3500001E925D96EF4500001EA21DA6E4C
:101B6800000EDF6E02017F51060D9E0E0001E96F27
:101B7800020E0001EA6FF3500001E927F45000015A
:101B8800EA2302018951020DF3500001E927F450BC
:101B98000001EA23010E0001E925D96E000E0001BB
:101BA800EA21DA6E000EDF6E0201892BBAD771ECDA
:101BB8004FF0020178510201D8B41BD0000E000189
:101BC800AE6F020E0001AF6FCA0E0001B06FF00ECB
:101BD8000001B16F81C2B2F00001B36B64C2B4F00E
:101BE8000001B56B78C2B6F00001B76B22EC16F0B5
:101BF80017D0000E0001AE6F020E0001AF6F710E1C
:101C08000001B06FF50E0001B16F81C2B2F00001A2
:101C1800B36B64C2B4F00001B56B22EC16F000D0CF
:101C2800000E0001646F020E0001656FF9EC54F0BC
:101C38005E0E0001626FEF0E0001636F98EC55F0C5
:101C4800000E0201896F090E0201896502D0120097
:101C580012008B84500E0001606FC30E616F000E7E
:101C6800626F000E636F96EC53F08B94500E000178
:101C7800606FC30E616F000E626F000E636F96ECAB
:101C880053F00201892B090E02018965E2D712007F
:101C980012009D0E0001646FF50E0001656F7BEC6C
:101CA80054F05E0E0001626FEF0E0001636F98EC56
:101CB80055F01200E6C063F0E7C064F0C70E0001FB
:101CC800656FFF0E0001666F5FEC50F00009D8B435
:101CD80097D0640E0001606F040E0001616FEBC3C2
:101CE80062F00001636B3DEC53F0000E0301EB6FF3
:101CF800000E0301EA6FB10E0001626FF80E0001D9
:101D0800636F98EC55F05E0E0001626FEF0E0001F4
:101D1800636F98EC55F03E0E74EC56F0000E02011D
:101D2800806F18EC57F09E9A9D8A23D0E00E000130
:101D3800606F930E616F040E626F000E636F96EC16
:101D480053F00201802B190E0201806512D05E0E3D
:101D58000001626FEF0E0001636F98EC55F0E90E19
:101D68000001646FF90E0001656F7BEC54F01200FE
:101D780000D00301EA51D8B4D9D79D9A590E04016D
:101D88006419D8B409D0790E04016419D8A414D000
:101D980004016551D8A410D0BE0E0001646FFD0E79
:101DA8000001656F7BEC54F0000E0201EF6F71ECDF
:101DB8004FF0FF00120011D05E0E0001626FEF0EAF
:101DC8000001636F98EC55F0E90E0001646FF90E9D
:101DD8000001656F7BEC54F000D0640E0001606F69
:101DE800040E0001616FEBC362F00001636B3DEC10
:101DF80053F0000E0301EB6F000E0301EA6F1200AF
:101E0800E6C063F0E7C064F0450E0001656FFF0EA1
:101E18000001666F5FEC50F00009D8B497D1640EEA
:101E28000001606F040E0001616FEBC362F00001F6
:101E3800636B3DEC53F0000E0301EB6F000E0301E2
:101E4800EA6F1F0E0001626FF00E0001636F98ECDD
:101E580055F05E0E0001626FEF0E0001636F98ECA3
:101E680055F03E0E93EC56F0000E0201806F18EC10
:101E780057F09E9A9D8A23D0E00E0001606F930E62
:101E8800616F040E626F000E636F96EC53F00201EF
:101E9800802B190E0201806512D05E0E0001626F60
:101EA800EF0E0001636F98EC55F0BF0E0001646FF0
:101EB800F40E0001656F7BEC54F0120000D00301B2
:101EC800EA51D8B4D9D79D9A640E0001606F040E08
:101ED8000001616FD70E0001626FFF0E0001636F92
:101EE80036EC52F00009D8B420D1640E0001606FBE
:101EF800040E0001616FEBC362F00001636B3DECFF
:101F080053F0000E0301EB6F000E0301EA6F4B0E56
:101F18000001626FFB0E0001636F98EC55F05E0ED6
:101F28000001626FEF0E0001636F98EC55F03E0EF2
:101F380074EC56F0000E0201806F18EC57F09E9A70
:101F48009D8A2FD0E00E0001606F930E616F040E22
:101F5800626F000E636F96EC53F00201802B020152
:101F68006F510301EB19D8B404D0000E0201806F41
:101F780000D0190E0201806511D05E0E0001626F5B
:101F8800EF0E0001636F98EC55F0BF0E0001646F0F
:101F9800F40E0001656F7BEC54F01200EBC36FF296
:101FA80000D00301EA51D8B4CDD7640E00016F6F99
:101FB800040E0001706F83EC3BF00009D8B4A4D084
:101FC8000301EB2B640E00016C6F040E00016D6FB2
:101FD800010E00016E6F740E00016F6F020E00019A
:101FE800706F64EC30F00009D8A48ED0020177BF7E
:101FF8008BD002017751020176110201751104E1BB
:1020080002017405D8A080D074C2CEF275C2CFF296
:1020180076C2D0F277C2D1F222EE9EF000EE96F0B0
:10202800330EDBCFEBFFE806FCE2020E0001CA6FBD
:10203800000ECB6F000ECC6F000ECD6FB2EC48F0E7
:1020480000019651000197110001981100019911A2
:10205800D8A448D083EC3CF0450E0001646FF50E1F
:102068000001656F7BEC54F0000E0001AE6F020EAC
:102078000001AF6FB10E0001B06FFA0E0001B16F31
:10208800CEC2B2F0CFC2B3F0D0C2B4F0D1C2B5F074
:1020980022EC16F0000E0001646F020E0001656F5D
:1020A800F9EC54F05E0E0001626FEF0E0001636FF1
:1020B80098EC55F0BE0E0001646FFD0E0001656FCF
:1020C8007BEC54F0000E0201EF6F71EC4FF05E0EE6
:1020D8000001626FEF0E0001636F98EC55F0FF008E
:1020E800120012D0190E0001646FF50E0001656F21
:1020F8007BEC54F05E0E0001626FEF0E0001636F1F
:1021080098EC55F0120000D0CD0E0001646FF70E68
:102118000001656F7BEC54F05E0E0001626FEF0EFC
:102128000001636F98EC55F01200330E0001646FE4
:10213800FB0E0001656F7BEC54F05E0E0001626FD0
:10214800EF0E0001636F98EC55F01200E6C063F0E3
:10215800E7C064F01B0E0001656FFC0E0001666F9E
:102168005FEC50F00009D8B45FD1640E0001606FD5
:10217800040E0001616FEBC362F00001636B3DEC7C
:1021880053F0000E0301EB6F000E0301EA6F5E0EC1
:102198000001626FEF0E0001636F98EC55F0440E7A
:1021A8000001626FF60E0001636F98EC55F05E0E49
:1021B8000001626FEF0E0001636F98EC55F03E0E60
:1021C80093EC56F0000E0201806F18EC57F09E9ABF
:1021D8009D8A23D0E00E0001606F930E616F040E9C
:1021E800626F000E636F96EC53F00201802B190E9C
:1021F8000201806512D05E0E0001626FEF0E0001D1
:10220800636F98EC55F05B0E0001646FF00E0001EF
:10221800656F7BEC54F0120000D00301EA51D8B48A
:10222800D9D79D9A590E04016419D8B409D0790EEA
:1022380004016419D8A4E7D004016551D8A4E3D0F7
:10224800640E0001606F040E0001616FEBC362F061
:102258000001636B3DEC53F0000E0301EB6F000EC1
:102268000301EA6F5E0E0001626FEF0E0001636FFB
:1022780098EC55F0430E0001626FF70E0001636F92
:1022880098EC55F05E0E0001626FEF0E0001636F6F
:1022980098EC55F03E0E74EC56F0000E0201806F7B
:1022A80018EC57F09E9A9D8A27D0E00E0001606FC7
:1022B800930E616F040E626F000E636F96EC53F01D
:1022C8000201802B02016F510301EB19D8B404D02D
:1022D800000E0201806F00D0190E0201806509D03E
:1022E8005B0E0001646FF00E0001656F7BEC54F02B
:1022F8001200EBC36FF200D00301EA51D8B4D5D76E
:102308009D9A5E0E0001626FEF0E0001636F98ECFC
:1023180055F05E0E0001626FEF0E0001636F98ECDE
:1023280055F004016451D8B45DD004017851D8A4A3
:1023380059D0640E0001626F040E0001636F31EC26
:1023480055F00009D8B43DD0000E0001646FF10EBD
:102358000001656F7BEC54F05E0E0001626FEF0EBA
:102368000001636F98EC55F0640E0001686F040E6D
:102378000001696FE60E00016A6F040E00016B6FC1
:10238800150E00016C6F000E00016D6F36EC51F0F8
:10239800500E0001606FC30E616F000E626F000E79
:1023A800636F96EC53F0000E1EEC24F00009D8B4CD
:1023B80004D0010E0301E86F1200000E0301E86F5C
:1023C8001200F30E0001646FF50E0001656F7BECDF
:1023D80054F05E0E0001626FEF0E0001636F98EC1F
:1023E80055F01200610E0001646FEF0E0001656F79
:1023F8007BEC54F05E0E0001626FEF0E0001636F1C
:1024080098EC55F012005B0E0001646FF00E0001AD
:10241800656F7BEC54F05E0E0001626FEF0E0001F9
:10242800636F98EC55F01200E6C063F0E7C064F003
:102438007D0E0001656FFF0E0001666F5FEC50F0C6
:102448000009D8B42FD05E0E0001626FEF0E0001B4
:10245800636F98EC55F0000E0001AE6F020E00019C
:10246800AF6F000E0001B06FFD0E0001B16F10ECF0
:1024780050F089C0B2F08AC0B3F08BC0B4F022EC3F
:1024880016F0000E0001646F020E0001656FF9EC92
:1024980054F05E0E0001626FEF0E0001636F98EC5E
:1024A80055F01200E6C063F0E7C064F0810E000149
:1024B800656FF70E0001666F5FEC50F00009D8B445
:1024C800CBD05E0E0001626FEF0E0001636F98ECD7
:1024D80055F0000E0001AE6F020E0001AF6F9B0EAB
:1024E8000001B06FFC0E0001B16F440E0001B26F25
:1024F800EF0E0001B36F22EC16F0000E0001646FBE
:10250800020E0001656FF9EC54F05E0E0001626F77
:10251800EF0E0001636F98EC55F0400E0001646FF8
:10252800FA0E0001656F7BEC54F05E0E0001626FDD
:10253800EF0E0001636F98EC55F0AA0E0001646F6E
:10254800FB0E0001656F7BEC54F0C80E0001646F50
:10255800040E0001656FF9EC54F0320E0001646F4F
:10256800050E0001656FF9EC54F05E0E0001626F14
:10257800EF0E0001636F98EC55F0000E0001AE6F8E
:10258800020E0001AF6F130E0001B06FFE0E0001C6
:10259800B16F4D0E0001B26FEF0E0001B36F22EC68
:1025A80016F0000E0001646F020E0001656FF9EC71
:1025B80054F0000E0001AE6F020E0001AF6FCC0E9A
:1025C8000001B06FFA0E0001B16F5A0E0001B26F30
:1025D800EF0E0001B36F22EC16F0000E0001616FE0
:1025E800020E0001626F39EC56F0DC0E0001646FD8
:1025F800FF0E0001656F7BEC54F05E0E0001626F08
:10260800EF0E0001636F98EC55F0000E0001AE6FFD
:10261800020E0001AF6F870E0001B06FFD0E0001C2
:10262800B16FCEC2B2F0CFC2B3F0D0C2B4F0D1C253
:10263800B5F022EC16F0000E0001616F020E0001E9
:10264800626F39EC56F05E0E0001626FEF0E00010A
:10265800636F98EC55F01200E6C060F0E7C061F0D7
:10266800E50E0001626FFF0E0001636F36EC52F059
:102678000009D8B4C9D25E0E0001626FEF0E0001E6
:10268800636F98EC55F0000E0201896F210E02016C
:10269800896501D006D07E0E74EC56F00201892BB4
:1026A800F5D7F50E0001626FFA0E0001636F98EC22
:1026B80055F0000E0201896F210E0201896501D0D3
:1026C80006D07E0E74EC56F00201892BF5D75E0E0B
:1026D8000001626FEF0E0001636F98EC55F05E0E1B
:1026E8000001626FEF0E0001636F98EC55F0E10E88
:1026F8000001646FFD0E0001656F7BEC54F0E50E80
:102708000001646FFF0E0001656F4F0E0001666FD8
:10271800FF0E0001676F7AEC46F0C70E0001646F88
:10272800FF0E0001656F910E0001666FF80E000143
:10273800676F7AEC46F0810E0001646FF70E0001B6
:10274800656F660E0001666FF70E0001676F7AEC21
:1027580046F0450E0001646FFF0E0001656F310EF3
:102768000001666FFC0E0001676F7AEC46F01B0EE5
:102778000001646FFC0E0001656F100E0001666FAA
:10278800F80E0001676F7AEC46F05E0E0001626F8A
:10279800EF0E0001636F98EC55F0860E0001646F30
:1027A800FC0E0001656F7BEC54F07D0E0001646F38
:1027B800FF0E0001656F790E0001666FFA0E0001C9
:1027C800676F7AEC46F05E0E0001626FEF0E000153
:1027D800636F98EC55F07A0E0001646FFE0E0001ED
:1027E800656F7BEC54F0010E0201896F0C0E02013B
:1027F800896501D030D0000E0001606F020E000123
:10280800616F000E0001636F320E626F3DEC53F092
:10281800000E0001AE6F020E0001AF6F330E000113
:10282800B06FFE0E0001B16F89C2B2F00001B36B48
:1028380022EC16F0000E0001646F020E0001656FB5
:10284800020E0001666FFB0E0001676F7AEC46F01E
:102858000201892BCBD7010E0201896F0C0E0201F0
:10286800896501D030D0000E0001606F020E0001B2
:10287800616F000E0001636F320E626F3DEC53F022
:10288800000E0001AE6F020E0001AF6F740E000162
:10289800B06FFD0E0001B16F89C2B2F00001B36BD9
:1028A80022EC16F0000E0001646F020E0001656F45
:1028B800630E0001666FFB0E0001676F7AEC46F04D
:1028C8000201892BCBD72F0E0001646FFF0E000188
:1028D800656FE00E0001666FEF0E0001676F7AEC1E
:1028E80046F0F80E0001646FFE0E0001656FFC0EE5
:1028F8000001666FF10E0001676F7AEC46F00E0E6C
:102908000001646FFF0E0001656F5E0E0001666FC7
:10291800F20E0001676F7AEC46F0190E0001646F41
:10292800FF0E0001656F8F0E0001666FF20E000149
:10293800676F7AEC46F0ED0E0001646FFE0E000141
:10294800656FCB0E0001666FF10E0001676F7AECC0
:1029580046F0030E0001646FFF0E0001656F2D0E37
:102968000001666FF20E0001676F7AEC46F0240EE4
:102978000001646FFF0E0001656FC00E0001666FF5
:10298800F20E0001676F7AEC46F0940E0001646F56
:10299800FE0E0001656FAB0E0001666FF30E0001BD
:1029A800676F7AEC46F0AE0E0001646FFE0E000110
:1029B800656F070E0001666FF40E0001676F7AEC11
:1029C80046F0BB0E0001646FFE0E0001656F350E08
:1029D8000001666FF40E0001676F7AEC46F0870E0F
:1029E8000001646FFE0E0001656F7D0E0001666FC9
:1029F800F30E0001676F7AEC46F0A10E0001646FD8
:102A0800FE0E0001656FD90E0001666FF30E00011E
:102A1800676F7AEC46F0C80E0001646FFE0E000185
:102A2800656F630E0001666FF40E0001676F7AEC44
:102A380046F0D20E0001646FFF0E0001656F1C0E98
:102A48000001666FF60E0001676F7AEC46F05E0EC5
:102A58000001626FEF0E0001636F98EC55F06D0E88
:102A68000001646FFE0E0001656F7BEC54F0A10E4F
:102A78000001646FFF0E0001656FAB0E0001666F09
:102A8800F70E0001676F7AEC46F0C70E0001646F1D
:102A9800EE0E0001656F280E0001666FFD0E000145
:102AA800676F7AEC46F0D60E0001646FEE0E0001F7
:102AB800656F3B0E0001666FFD0E0001676F7AECD3
:102AC80046F0E50E0001646FEE0E0001656F4E0ED4
:102AD8000001666FFD0E0001676F7AEC46F0D00EBC
:102AE8000001646FED0E0001656FEF0E0001666F67
:102AF800FB0E0001676F7AEC46F0AA0E0001646FC6
:102B0800ED0E0001656FC10E0001666FFB0E00013E
:102B1800676F7AEC46F0E20E0001646FED0E00017B
:102B2800656F610E0001666FFD0E0001676F7AEC3C
:102B380046F0BD0E0001646FED0E0001656FD80E02
:102B48000001666FFC0E0001676F7AEC46F06E0EAE
:102B58000001646FED0E0001656F2F0E0001666FB6
:102B6800F90E0001676F7AEC46F02F0E0001646FD2
:102B7800ED0E0001656F310E0001666FF80E000161
:102B8800676F7AEC46F0820E0001646FED0E00016B
:102B9800656F4E0E0001666FF90E0001676F7AECE3
:102BA80046F0440E0001646FED0E0001656F510E92
:102BB8000001666FF80E0001676F7AEC46F0960E1A
:102BC8000001646FED0E0001656F6D0E0001666F08
:102BD800F90E0001676F7AEC46F0590E0001646F38
:102BE800ED0E0001656F710E0001666FF80E0001B1
:102BF800676F7AEC46F05E0E0001626FEF0E00011F
:102C0800636F98EC55F01200120E0001646FEF0E1E
:102C18000001656F7BEC54F0E70E0001646FFA0E5B
:102C28000001656F7BEC54F05E0E0001626FEF0EE1
:102C38000001636F98EC55F012001200B20E00010B
:102C4800CA6F000E0001CB6FC5EF1DF0250E000105
:102C5800DF19D8B40BD0AEC0D9FFAFC0DAFFDFC0E0
:102C6800DFFF0001AE4BAF2BC5EF1DF0000E0001DA
:102C7800DC6F000EDB6F000E0001DE6F000EDD6FF3
:102C880007D00001DD850001B04BB12B01D00CD07D
:102C9800B0C0F6FFB1C0F7FFF86A0800F550300A77
:102CA800D8B4EFD701D0F4D7B0C0F6FFB1C0F7FF62
:102CB800F86A0800F550E1EC55F0D8A010D1000EE4
:102CC8000001DC6F000EDB6F00D0DBC06EF0DCC0F3
:102CD8006FF0000E0001716F0A0E706F15EC55F061
:102CE8006EC0DBF06FC0DCF0D00E0001BC6FFF0ED1
:102CF8000001BD6FB0C0F6FFB1C0F7FFF86A080069
:102D0800F5500001BE6FBF6B0001BC510001BE272A
:102D18000001BD510001BF230001BE510001DB27A6
:102D28000001BF510001DC230001B04BB12BB0C042
:102D3800F6FFB1C0F7FFF86A0800F550E1EC55F06E
:102D4800D8A0CDD0C2D7CBD0D7EF1DF00001DD89F8
:102D5800C6D00001DE85F0D000D00001DD8FECD0B8
:102D6800CAC0D9FFCBC0DAFFDECFC6F0DDCFC7F0CF
:102D7800020E0001CA27000ECB230001C651000134
:102D8800C711D8A407D0850E0001C66FFF0E000139
:102D9800C76F00D0000E0001C96F000EC86F04D0C5
:102DA8000001C84BC92B00D00001C8510001C6253D
:102DB8000001BC6F0001C9510001C7210001BD6FAE
:102DC800BCC0F6FFBDC0F7FF000EF86E0F0EF7642B
:102DD80003D00800F55005D0F6CFE9FFF7CFEAFF9A
:102DE800EF500009D8B402D0DBD700D00001DB5186
:102DF8000001C85D0001DC510001C959D8B009D0F3
:102E08000001C8510001DB5F0001C9510001DC5B12
:102E180010D0000E0001DC6F000EDB6F0AD0AEC0D0
:102E2800D9FFAFC0DAFF200EDF6E0001AE4BAF2B2B
:102E380000D00001DB07D8A0DC070001DB29EFE1A7
:102E48000001DC29D8B41FD0EAD71DD0C6C0F6FFD0
:102E5800C7C0F7FF000EF86EAEC0D9FFAFC0DAFFEB
:102E68000F0EF76403D00800F55005D0F6CFE9FF40
:102E7800F7CFEAFFEF50DF6E0001C64BC72B00010A
:102E8800AE4BAF2B00D00001C807D8A0C90700017E
:102E9800C829DCE10001C929D8B4C5EF1DF0D6D78F
:102EA800C5EF1DF0CAC0D9FFCBC0DAFFDF50000163
:102EB800DF6F020E0001CA27000ECB2300D0DF0E01
:102EC8000001C66F000E0001C76F000E0001C96F38
:102ED800010EC86F8BD7C00E0001DD132DD0B0C016
:102EE800F6FFB1C0F7FF0001B04BB12BF86A08003C
:102EF800F5CFDFF00001DF51000AD8B4D7EF1DF09D
:102F0800580AD8B42AD73B0AD8B4CCD7070AD8B4B9
:102F180013D0020AD8B41DD70F0AD8B40DD0050AA9
:102F2800D8B414D71F0AD8B41BD7060AD8B4D3D735
:102F38000D0AD8B412D7C3D7070E0001DE15D8B4CE
:102F4800EDD3000E0001CD6F060ECC6FCAC0D9FFBD
:102F5800CBC0DAFFDECFD8F0DECFD9F0DDCFDAF0A4
:102F6800030E0001CA27000ECB230001DAAF12D0EE
:102F7800D8C060F0D9C061F0DAC062F0B1EC55F0A9
:102F880060C0D8F061C0D9F062C0DAF0030E000169
:102F9800DD1300D0000E0001D36F000ED26F0001C8
:102FA800D8510001D9110001DA11D8B49DD0820E90
:102FB8000001BC6FFF0E0001BD6FD8C0BEF0D9C0C4
:102FC800BFF0DAC0C0F0DBC0C1F0100E06D00001BF
:102FD800D890C133C033BF33BE33E82EF8D70001D1
:102FE800BE510001BC250001D26F000E0001BD21B9
:102FF8000001D36F0001D207D8A0D307D2C06EF06A
:10300800D3C06FF0000E0001716F030E706F15ECE6
:1030180055F06EC0D2F06FC0D3F0D2C066F0D3C006
:1030280067F0000E0001696F0A0E686F0DEC4BF037
:1030380066C0D2F067C0D3F00001D3AF05D000015D
:10304800D207D8A0D30700D00001D2510008E2EC83
:103058002DF089C0CEF08AC0CFF08BC0D0F0CEC0A2
:103068007AF0CFC07BF0D0C07CF0D8C07DF0D9C05A
:103078007EF0DAC07FF05AEC41F07AC0CEF07BC027
:10308800CFF07CC0D0F0CEC060F0CFC061F0D0C02F
:1030980062F0000E0001636F800E0001646F3F0E46
:1030A8000001656FDCEC4BF00001D8B005D00001E1
:1030B800D207D8A0D30718D0CEC060F0CFC061F037
:1030C800D0C062F0000E0001636F200E0001646F33
:1030D800410E0001656FDCEC4BF00001D8A004D074
:1030E8000001D24BD32B00D00001CDBF08D0000186
:1030F800CD511EE10D0E0001CC5DD8B019D0D8C05D
:1031080093F0D9C094F0DAC095F00001CC516CEC82
:1031180036F089C096F08AC097F08BC098F018EC0A
:1031280039F093C0D8F094C0D9F095C0DAF000D047
:103138000001D3BF08D00001D3512CE10A0E0001D1
:10314800D25DD8B027D00001D8510001D9110001B3
:10315800DA11D8B47FD0D8C09FF0D9C0A0F0DAC0B7
:10316800A1F067EC43F000019F510001A01100019C
:10317800A1110001A211D8A46DD00001D3BF6AD05B
:103188000001D35107E1020E0001D25DD8B002D090
:1031980061D000D0CEC060F0CFC061F0D0C062F086
:1031A800700E0001636F890E0001646F400E00010C
:1031B800656FDCEC4BF00001D8B003D00001F70ECE
:1031C80002D00001F80ED227FF0ED32300D0000151
:1031D800D251E2EC2DF089C0CEF08AC0CFF08BC07E
:1031E800D0F017D0D8C060F0D9C061F0DAC062F072
:1031F800CEC063F0CFC064F0D0C065F014EC3FF0EF
:1032080060C0D4F061C0D5F062C0D6F063C0D7F01A
:1032180017D0D8C060F0D9C061F0DAC062F0CEC073
:1032280063F0CFC064F0D0C065F041EC3EF060C000
:10323800D4F061C0D5F062C0D6F063C0D7F000D03A
:10324800000E0001D86F000E0001D96F000E0001BA
:10325800DA6F34D0D8C09FF0D9C0A0F0DAC0A1F09E
:1032680067EC43F09FC0D4F0A0C0D5F0A1C0D6F061
:10327800A2C0D7F0D8C09FF0D9C0A0F0DAC0A1F0A2
:10328800D4C068F0D5C069F0D6C06AF0D7C06BF07A
:103298007BEC51F068C0A2F069C0A3F06AC0A4F04A
:1032A800EBEC53F09FC0D8F0A0C0D9F0A1C0DAF081
:1032B800000E0001D36F000ED26F00D0010E000186
:1032C800DF6F0A0E0001DF19D8B425D001D023D052
:1032D8000001DF51040D7F0EF324F66EEC0EF4208E
:1032E800F76EF86A000EF8220900F5500001D45D67
:1032F8000900F5500001D5590900F5500001D659CB
:103308000900F5500001D759D8A005D001D003D045
:103318000001DF2BD6D7DFC0BCF00001BD6BBCBFFE
:10332800BD070001CC510001BC270001CD510001AF
:10333800BD230001D2510001BC270001D351000177
:10334800BD230001BC510001DB5F0001BD5100013C
:10335800DC5B0001CC510001CD11D8B405D00001CF
:10336800DB07D8A0DC0700D0030E0001DD15000143
:10337800BC6F000E0001DE150001BD6F0001BC51DD
:103388000001BD11D8B405D00001DB07D8A0DC07C7
:1033980000D00001DDA543D0030E0001DD150001BA
:1033A800BC6F000E0001DE150001BD6F0001BC51AD
:1033B8000001BD11D8B418D0AEC0D9FFAFC0DAFF34
:1033C8002D0EDF6E0001AE4BAF2B0ED0AEC0D9FF75
:1033D800AFC0DAFF300EDF6E0001AE4BAF2B00013D
:1033E800DB07D8A0DC0700D00001DCBF8AD00001D1
:1033F800DC51ECE10001DB05D8A083D0E7D781D010
:103408000ED0AEC0D9FFAFC0DAFF200EDF6E0001CC
:10341800AE4BAF2B0001DB07D8A0DC0700D00001C2
:10342800DCBF07D00001DC51ECE10001DB05D8B0BE
:10343800E8D7030E0001DD150001BC6F000E000186
:10344800DE150001BD6F0001BC510001BD11D8B4EB
:1034580058D0AEC0D9FFAFC0DAFF2D0E50D0000152
:10346800AE4BAF2B4ED0D4C060F0D5C061F0D6C003
:1034780062F0D7C063F00001DF51040D7F0EF32422
:10348800F66EEC0EF420F76EF86A000EF8220900CA
:10349800F5CF64F00900F5CF65F00900F5CF66F0C7
:1034A8000A00F5CF67F00EEC4DF060C0CEF061C0B9
:1034B800CFF062C0D0F063C0D1F0CEC06DF0CFC005
:1034C8006EF0D0C06FF0D1C070F00A0E0001716FBD
:1034D800000E726F000E736F000E746F7DEC4EF06D
:1034E8006DC0CEF06EC0CFF06FC0D0F070C0D1F01C
:1034F8000001CE51300FAEC0D9FFAFC0DAFFDF6E8A
:10350800AED70001DF070001DF29D8B410D0ABD750
:103518000ED0AEC0D9FFAFC0DAFF300EDF6E0001AB
:10352800AE4BAF2B0001D207D8A0D30700D00001C3
:10353800D3BF07D00001D351ECE10001D205D8B0C8
:10354800E8D70001CDBF0CD00001CD5105E1090E2F
:103558000001CC5DD8A004D0080E0001DF6F03D0B5
:10356800CCC0DFF000D00001DF510001CC5F000EBD
:103578000001DFBFFF0E0001CD5B0001DF5100013C
:10358800D8B40AD0AEC0D9FFAFC0DAFF2E0EDF6EB6
:103598000001AE4BAF2B00D00001DF51E2EC2DF063
:1035A80089C0C2F08AC0C3F08BC0C4F0D8C07DF017
:1035B800D9C07EF0DAC07FF0C2C07AF0C3C07BF019
:1035C800C4C07CF05AEC41F07AC09FF07BC0A0F0F8
:1035D8007CC0A1F067EC43F09FC0D4F0A0C0D5F048
:1035E800A1C0D6F0A2C0D7F07BD0D4C060F0D5C0BF
:1035F80061F0D6C062F0D7C063F00001DF51040D5E
:103608007F0EF324F66EEC0EF420F76EF86A000EC7
:10361800F8220900F5CF64F00900F5CF65F009003C
:10362800F5CF66F00A00F5CF67F00EEC4DF060C0FC
:10363800CEF061C0CFF062C0D0F063C0D1F0CEC090
:103648006DF0CFC06EF0D0C06FF0D1C070F00A0E30
:103658000001716F000E726F000E736F000E746FB1
:103668007DEC4EF06DC0CEF06EC0CFF06FC0D0F0E4
:1036780070C0D1F00001CE51300FAEC0D9FFAFC03D
:10368800DAFFDF6E0001AE4BAF2BD4C06DF0D5C0B2
:103698006EF0D6C06FF0D7C070F00001DF51040D96
:1036A8007F0EF324F66EEC0EF420F76EF86A000E27
:1036B800F8220900F5CF71F00900F5CF72F0090082
:1036C800F5CF73F00A00F5CF74F07DEC4EF06DC0C5
:1036D800D4F06EC0D5F06FC0D6F070C0D7F000D06F
:1036E8000001DF070001DF29D8B410D07ED70ED043
:1036F800AEC0D9FFAFC0DAFF300EDF6E0001AE4BAF
:10370800AF2B0001CC07D8A0CD0700D00001CC51C9
:103718000001CD11D8B435D2EBD733D2C00E000199
:10372800DD150001BC6F000E0001DE150001BD6F44
:103738000001BC510001BD11D8A435D00001DDA99C
:103748000ED0CAC0D9FFCBC0DAFFDECFD4F0DECFAF
:10375800D5F0DECFD6F0DECFD7F0040E0FD0CAC03A
:10376800D9FFCBC0DAFFDECFD4F0DDCFD5F0000132
:10377800000ED5BFFF0ED66FD76F020E0001CA2705
:10378800000ECB2300D00001D7AF90D0030E00016C
:10379800DD130001D71FD61FD51FD46D000ED5230A
:1037A800D623D72383D00001DDA90ED0CAC0D9FF04
:1037B800CBC0DAFFDECFD4F0DECFD5F0DECFD6F047
:1037C800DECFD7F0040E10D0CAC0D9FFCBC0DAFFC5
:1037D800DECFBCF0DDCFBDF0BCC0D4F0BDC0D5F0AD
:1037E8000001D66BD76B020E0001CA27000ECB234F
:1037F8005DD000D0010E0001DF6F0A0E0001DF1955
:10380800D8B461D001D05FD00001DF51040D7F0E24
:10381800F324F66EEC0EF420F76EF86A000EF82228
:103828000900F5500001D45D0900F5500001D55993
:103838000900F5500001D6590900F5500001D75983
:10384800D8A041D001D03FD00001DF2BD6D73BD044
:10385800010E0001DF6F080E0001DF19D8B433D064
:1038680001D031D00001DF51040DF50EF324F66EBE
:10387800EC0EF420F76EF86A000EF8220900F550F5
:103888000001D45D0900F5500001D5590900F55033
:103898000001D6590900F5500001D759D8A013D016
:1038A80001D011D00001DF2BD6D70DD00001DD519A
:1038B800C00B000AD8B49ED7800AD8B4C9D7400A2A
:1038C800D8B498D700D00001DB510001DC11D8B47E
:1038D80015D0030E0001DD150001BC6F000E0001BC
:1038E800DE150001BD6F0001BC510001BD11D8B447
:1038F80005D00001DB07D8A0DC0700D0800E00014E
:10390800DFBF7F0E0001BC6F0001DB510001DF5DEE
:103918000001DC51800A0001BC59D8B00BD000016D
:10392800DF510001DB5F000E0001DFBFFF0E000169
:10393800DC5B06D0000E0001DC6F000EDB6F00D0F0
:103948000001DDA535D0030E0001DD150001BC6FB7
:10395800000E0001DE150001BD6F0001BC51000121
:10396800BD11D8B40AD0AEC0D9FFAFC0DAFF2D0E52
:10397800DF6E0001AE4BAF2B00D00001DB51000120
:10398800DC11D8B44AD0AEC0D9FFAFC0DAFF300ED0
:10399800DF6E0001AE4BAF2B0001DB07D8A0DC07C0
:1039A8000001DB510001DC11D8B437D0ECD735D099
:1039B8000001DB510001DC11D8B415D0AEC0D9FF2D
:1039C800AFC0DAFF200EDF6E0001AE4BAF2B000157
:1039D800DB07D8A0DC070001DB510001DC11D8B4FB
:1039E80002D0ECD700D0030E0001DD150001BC6F3A
:1039F800000E0001DE150001BD6F0001BC51000181
:103A0800BD11D8B40AD0AEC0D9FFAFC0DAFF2D0EB1
:103A1800DF6E0001AE4BAF2B00D00001DF5100017B
:103A2800CC6FCD6BCCBFCD079FD087D000D0CCC09A
:103A3800BCF0CDC0BDF00001D890BC37BD37000147
:103A4800D890BC37BD377F0E0001BC25F66EEC0E52
:103A5800BD21F76EF86A000EF8220900F5CF64F070
:103A68000900F5CF65F00900F5CF66F00A00F5CF3B
:103A780067F0D4C060F0D5C061F0D6C062F0D7C09E
:103A880063F00EEC4DF060C06DF061C06EF062C086
:103A98006FF063C070F00A0E0001716F000E726F54
:103AA800000E736F000E746F7DEC4EF000016D51C7
:103AB800300F0001DF6F4ED0D4C060F0D5C061F088
:103AC800D6C062F0D7C063F0CCC0BCF0CDC0BDF0AA
:103AD8000001D890BC37BD370001D890BC37BD373E
:103AE800F50E0001BC25F66EEC0EBD21F76EF86AE6
:103AF800000EF8220900F5CF64F00900F5CF65F053
:103B08000900F5CF66F00A00F5CF67F00EEC4DF02E
:103B1800000160510F0B0001C56F0001C551010D77
:103B2800D00EF324F66EFD0EF420F76EF86A000E40
:103B3800F8220800F5CFDFF00DD00001DD51C00BF1
:103B4800000AD8B474D7800AD8B4B6D7400AD8B413
:103B58006ED700D0AEC0D9FFAFC0DAFFDFC0DFFF3D
:103B68000001AE4BAF2B00D00001CC07D8A0CD0789
:103B78000001CC29E2E10001CD29D8B402D0DDD77B
:103B880000D0B0C0F6FFB1C0F7FF0001B04BB12BB9
:103B9800F86A0800F5CFDFF00001DF51D8B403D090
:103BA8002AEF16F000D0AEC0D9FFAFC0DAFF000E82
:103BB800DF6E12001200000E00016C6F000E6D6FB8
:103BC800000E6E6F000E6F6F010E00016015000190
:103BD800646F000E000161150001656F000E0001A1
:103BE80062150001666F000E000163150001676F22
:103BF8001F0ED89000016437653766376737E82E9F
:103C0800F8D70001645100016C27000165510001DB
:103C18006D230001665100016E2300016751000108
:103C28006F23020E000160150001646F000E000191
:103C380061150001656F000E000162150001666FD5
:103C4800000E000163150001676F1D0ED89000017A
:103C58006437653766376737E82EF8D7000164514F
:103C680000016C270001655100016D2300016651B8
:103C780000016E230001675100016F23040E00014B
:103C880060150001646F000E000161150001656F89
:103C9800000E000162150001666F000E0001631539
:103CA8000001676F1B0ED8900001643765376637CF
:103CB8006737E82EF8D70001645100016C2700012E
:103CC800655100016D230001665100016E2300015A
:103CD800675100016F23080E000160150001646F31
:103CE800000E000161150001656F000E00016215EC
:103CF8000001666F000E000163150001676F190E61
:103D0800D89000016437653766376737E82EF8D7EB
:103D18000001645100016C270001655100016D2309
:103D28000001665100016E230001675100016F23F5
:103D3800100E000160150001646F000E000161158E
:103D48000001656F000E000162150001666F000E2C
:103D5800000163150001676F170ED89000016437E2
:103D6800653766376737E82EF8D7000164510001D8
:103D78006C270001655100016D23000166510001A7
:103D88006E230001675100016F23200E00016015AA
:103D98000001646F000E000161150001656F000EDF
:103DA800000162150001666F000E00016315000135
:103DB800676F150ED8900001643765376637673727
:103DC800E82EF8D70001645100016C270001655105
:103DD80000016D230001665100016E230001675147
:103DE80000016F23400E000160150001646F000E92
:103DF800000161150001656F000E000162150001E8
:103E0800666F000E000163150001676F130ED890EE
:103E180000016437653766376737E82EF8D7000141
:103E2800645100016C270001655100016D230001F8
:103E3800665100016E230001675100016F23800E57
:103E4800000160150001646F000E0001611500019A
:103E5800656F000E000162150001666F000E00011B
:103E680063150001676F110ED8900001643765373C
:103E780066376737E82EF8D70001645100016C27D0
:103E88000001655100016D230001665100016E2398
:103E98000001675100016F23000E00016015000149
:103EA800646F010E000161150001656F000E0001CD
:103EB80062150001666F000E000163150001676F4F
:103EC8000F0ED89000016437653766376737E82EDC
:103ED800F8D70001645100016C2700016551000109
:103EE8006D230001665100016E2300016751000136
:103EF8006F23000E000160150001646F020E0001BF
:103F080061150001656F000E000162150001666F02
:103F1800000E000163150001676F0D0ED8900001B7
:103F28006437653766376737E82EF8D7000164517C
:103F380000016C270001655100016D2300016651E5
:103F480000016E230001675100016F23000E00017C
:103F580060150001646F040E000161150001656FB2
:103F6800000E000162150001666F000E0001631566
:103F78000001676F0B0ED89000016437653766370C
:103F88006737E82EF8D70001645100016C2700015B
:103F9800655100016D230001665100016E23000187
:103FA800675100016F23000E000160150001646F66
:103FB800080E000161150001656F000E0001621511
:103FC8000001666F000E000163150001676F090E9E
:103FD800D89000016437653766376737E82EF8D719
:103FE8000001645100016C270001655100016D2337
:103FF8000001665100016E230001675100016F2323
:10400800000E000160150001646F100E00016115BB
:104018000001656F000E000162150001666F000E59
:10402800000163150001676F070ED890000164371F
:10403800653766376737E82EF8D700016451000105
:104048006C270001655100016D23000166510001D4
:104058006E230001675100016F23000E00016015F7
:104068000001646F200E000161150001656F000EEC
:10407800000162150001666F000E00016315000162
:10408800676F050ED8900001643765376637673764
:10409800E82EF8D70001645100016C270001655132
:1040A80000016D230001665100016E230001675174
:1040B80000016F23000E000160150001646F400EBF
:1040C800000161150001656F000E00016215000115
:1040D800666F000E000163150001676F030ED8902C
:1040E80000016437653766376737E82EF8D700016F
:1040F800645100016C270001655100016D23000126
:10410800665100016E230001675100016F23000E04
:10411800000160150001646F800E00016115000147
:10412800656F000E000162150001666F000E000148
:1041380063150001676FD890000164350001686F4E
:10414800000165350001696F0001663500016A6F7D
:104158000001673500016B6F0001685100016C2791
:104168000001695100016D2300016A5100016E23AD
:1041780000016B5100016F2360C064F061C065F0FD
:1041880062C066F063C067F00001D8906733663399
:1041980065336433000E000164150001686F800EFA
:1041A800000165150001696F000E00016615000128
:1041B8006A6F000E0001671500016B6F00016851FE
:1041C80000016C270001695100016D2300016A514B
:1041D80000016E2300016B5100016F2360C064F081
:1041E80061C065F062C066F063C067F0040E06D077
:1041F8000001D8906733663365336433E82EF8D707
:10420800000E000164150001686F400E000165157D
:104218000001696F000E0001661500016A6F000E4B
:104228000001671500016B6F0001685100016C27E0
:104238000001695100016D2300016A5100016E23DC
:1042480000016B5100016F2360C064F061C065F02C
:1042580062C066F063C067F0060E06D00001D89011
:104268006733663365336433E82EF8D7000E0001F0
:1042780064150001686F200E000165150001696F63
:10428800000E0001661500016A6F000E0001671537
:1042980000016B6F0001685100016C270001695132
:1042A80000016D2300016A5100016E2300016B516A
:1042B80000016F2360C064F061C065F062C066F001
:1042C80063C067F0080E06D00001D89067336633E4
:1042D80065336433E82EF8D7000E00016415000139
:1042E800686F100E000165150001696F000E00016E
:1042F800661500016A6F000E0001671500016B6FFB
:104308000001685100016C270001695100016D230B
:1043180000016A5100016E2300016B5100016F23F7
:1043280060C064F061C065F062C066F063C067F0A9
:104338000A0E06D00001D8906733663365336433BC
:10434800E82EF8D7000E000164150001686F080E0A
:10435800000165150001696F000E00016615000176
:104368006A6F000E0001671500016B6F000168514C
:1043780000016C270001695100016D2300016A5199
:1043880000016E2300016B5100016F2360C064F0CF
:1043980061C065F062C066F063C067F00C0E06D0BD
:1043A8000001D8906733663365336433E82EF8D755
:1043B800000E000164150001686F040E0001651508
:1043C8000001696F000E0001661500016A6F000E9A
:1043D8000001671500016B6F0001685100016C272F
:1043E8000001695100016D2300016A5100016E232B
:1043F80000016B5100016F2360C064F061C065F07B
:1044080062C066F063C067F00E0E06D00001D89057
:104418006733663365336433E82EF8D7000E00013E
:1044280064150001686F020E000165150001696FCF
:10443800000E0001661500016A6F000E0001671585
:1044480000016B6F0001685100016C270001695180
:1044580000016D2300016A5100016E2300016B51B8
:1044680000016F2360C064F061C065F062C066F04F
:1044780063C067F0100E06D00001D890673366332A
:1044880065336433E82EF8D7000E00016415000187
:10449800686F010E000165150001696F000E0001CB
:1044A800661500016A6F000E0001671500016B6F49
:1044B8000001685100016C270001695100016D235A
:1044C80000016A5100016E2300016B5100016F2346
:1044D80060C064F061C065F062C066F063C067F0F8
:1044E800120E06D00001D890673366336533643303
:1044F800E82EF8D7800E000164150001686F000EE1
:10450800000165150001696F000E000166150001C4
:104518006A6F000E0001671500016B6F000168519A
:1045280000016C270001695100016D2300016A51E7
:1045380000016E2300016B5100016F2360C064F01D
:1045480061C065F062C066F063C067F0140E06D003
:104558000001D8906733663365336433E82EF8D7A3
:10456800400E000164150001686F000E000165151A
:104578000001696F000E0001661500016A6F000EE8
:104588000001671500016B6F0001685100016C277D
:104598000001695100016D2300016A5100016E2379
:1045A80000016B5100016F2360C064F061C065F0C9
:1045B80062C066F063C067F0160E06D00001D8909E
:1045C8006733663365336433E82EF8D7200E00016D
:1045D80064150001686F000E000165150001696F20
:1045E800000E0001661500016A6F000E00016715D4
:1045F80000016B6F0001685100016C2700016951CF
:1046080000016D2300016A5100016E2300016B5106
:1046180000016F2360C064F061C065F062C066F09D
:1046280063C067F0180E06D00001D8906733663370
:1046380065336433E82EF8D7100E000164150001C5
:10464800686F000E000165150001696F000E00011A
:10465800661500016A6F000E0001671500016B6F97
:104668000001685100016C270001695100016D23A8
:1046780000016A5100016E2300016B5100016F2394
:1046880060C064F061C065F062C066F063C067F046
:104698001A0E06D00001D890673366336533643349
:1046A800E82EF8D7080E000164150001686F000EA7
:1046B800000165150001696F000E00016615000113
:1046C8006A6F000E0001671500016B6F00016851E9
:1046D80000016C270001695100016D2300016A5136
:1046E80000016E2300016B5100016F2360C064F06C
:1046F80061C065F062C066F063C067F01C0E06D04A
:104708000001D8906733663365336433E82EF8D7F1
:10471800040E000164150001686F000E00016515A4
:104728000001696F000E0001661500016A6F000E36
:104738000001671500016B6F0001685100016C27CB
:104748000001695100016D2300016A5100016E23C7
:1047580000016B5100016F2360C064F061C065F017
:1047680062C066F063C067F01E0E06D00001D890E4
:104778006733663365336433E82EF8D7020E0001D9
:1047880064150001686F000E000165150001696F6E
:10479800000E0001661500016A6F000E0001671522
:1047A80000016B6F0001685100016C27000169511D
:1047B80000016D2300016A5100016E2300016B5155
:1047C80000016F23000E000160150001646F000EE8
:1047D800000161150001656F000E000162150001FE
:1047E800666F800E000163150001676F200E06D00A
:1047F8000001D8906733663365336433E82EF8D701
:104808000001645100016C270001655100016D230E
:104818000001665100016E230001675100016F23FA
:104828006CC060F06DC061F06EC062F06FC063F084
:10483800120012000101B76F010E0101B96F000EDD
:104848000101BA6F000E0101B86F010E0101B66FC8
:10485800840E0001606F010E0001616F000E0001FF
:10486800636F320E626F3DEC53F06F0E0001606FA4
:10487800010E0001616F000E0001636F150E626F7B
:104888003DEC53F0330E0001606F010E0001616FC3
:10489800000E0001636F1E0E626F3DEC53F0510E67
:1048A8000001606F010E0001616F000E0001636F6F
:1048B8001E0E626F3DEC53F010EC42F00009D8A4D4
:1048C80002D0000E1200000E0001606F040E0001FD
:1048D800616F3EC062F00001636B3DEC53F0000E67
:1048E8003E6E18EC57F09E9A9D8AFC0E0001626F8E
:1048F800FF0E0001636F98EC55F0500E0001606FD9
:10490800C30E616F000E626F000E636F96EC53F07A
:104918009D9A000E0101BA6F3B0E0101BA6501D0E4
:104928007AD00101B605D8A437D00101BA51010DDA
:10493800000EF324D96E040EF420DA6E0A0EDE1887
:10494800D8B40DD00101BA51010D000EF324D96E6F
:10495800040EF420DA6E0D0EDE18D8A404D0000E72
:104968000101B66F55D01D0E0101BA6151D0010188
:10497800BA51010D000EF324D96E040EF420DA6E3C
:104988000101BA51010D330EF324E16E010EF4203A
:10499800E26EDFCFE7FF3CD00101BA51010D000EF6
:1049A800F324D96E040EF420DA6E0A0EDE18D8B499
:1049B80029D00101BA51010D000EF324D96E040E5D
:1049C800F420DA6E0D0EDE18D8B41CD01D0E0101CD
:1049D800B86115D00101BA51010D000EF324D96E4A
:1049E800040EF420DA6E0101B851010D510EF324C2
:1049F800E16E010EF420E26EDFCFE7FF00D0010187
:104A0800B82B06D0020E0101B86502D004D000D040
:104A18000101BA2B81D7010133510101D8B405D066
:104A2800010151510101D8A404D0000E0101B96F50
:104A380042D0C80E0001606F040E0001616F000EC5
:104A48000001636F1E0E626F3DEC53F0320E0001E1
:104A5800606F050E0001616F000E0001636F1E0E8E
:104A6800626F3DEC53F0330E0001686F010E0001D8
:104A7800696FC80E00016A6F040E00016B6F1E0E8D
:104A880000016C6F000E00016D6F36EC51F0510E95
:104A98000001686F010E0001696F320E00016A6F34
:104AA800050E00016B6F1E0E00016C6F000E0001F9
:104AB8006D6F36EC51F0000E0001606F040E0001BE
:104AC800616F3EC062F00001636B3DEC53F0000E75
:104AD8003E6E0101B7510101D8B456D00101B95158
:104AE8000101D8B4BCD0840E0001AE6F010E0001E4
:104AF800AF6F1B0E0001B06FFB0E0001B16FCEC28D
:104B0800B2F0CFC2B3F0D0C2B4F0D1C2B5F022EC4B
:104B180016F018EC57F09E9A9D8A840E0001616F7A
:104B2800010E0001626F39EC56F0500E0001606F03
:104B3800C30E616F000E626F000E636F96EC53F048
:104B48009D9A840E0001AE6F010E0001AF6FF50E45
:104B58000001B06FFF0E0001B16F22EC16F0000EDD
:104B68000001606F040E0001616F840E0001626F26
:104B7800010E0001636FB7EC44F00009D8A46FD0B0
:104B8800000E0101B96F6BD00101B9510101D8B410
:104B980066D00401FA51D8A45ED0E60E0001686F11
:104BA800040E0001696F6F0E00016A6F010E0001AB
:104BB8006B6F150E00016C6F000E00016D6F36EC07
:104BC80051F0840E0001AE6F010E0001AF6F8C0E24
:104BD8000001B06FFF0E0001B16F6F0E0001B26FE0
:104BE800010E0001B36F22EC16F018EC57F09E9AF4
:104BF8009D8A840E0001616F010E0001626F39EC1D
:104C080056F0500E0001606FC30E616F000E626FA8
:104C1800000E636F96EC53F09D9A840E0001AE6F00
:104C2800010E0001AF6FF50E0001B06FFF0E00011D
:104C3800B16F22EC16F0000E0001606F040E000147
:104C4800616F840E0001626F010E0001636FB7ECA3
:104C580044F093D704D0000E0101B96F00D0000EC4
:104C68000001606F040E0001616F3EC062F0000138
:104C7800636B3DEC53F0000E3E6E0101B95101012A
:104C8800D8B42DD018EC57F09E9A9D8A620E000178
:104C9800626FFF0E0001636F98EC55F0500E000133
:104CA800606FC30E616F000E626F000E636F96EC4B
:104CB80053F09D9A000E0001606F040E0001616FB1
:104CC800840E0001626F010E0001636FB7EC44F0BF
:104CD8000009D8A404D0000E0101B96F00D0000E5D
:104CE8000001606F040E0001616F3EC062F00001B8
:104CF800636B3DEC53F0000E3E6E0101B9510101AA
:104D0800D8B42DD018EC57F09E9A9D8AB00E0001A9
:104D1800626FFC0E0001636F98EC55F0500E0001B5
:104D2800606FC30E616F000E626F000E636F96ECCA
:104D380053F09D9A000E0001606F040E0001616F30
:104D4800840E0001626F010E0001636FB7EC44F03E
:104D58000009D8A404D0000E0101B96F00D0000EDC
:104D68000001606F040E0001616F3EC062F0000137
:104D7800636B3DEC53F0000E3E6E0101B951010129
:104D8800D8B42DD018EC57F09E9A9D8A590E000180
:104D9800626FFF0E0001636F98EC55F0500E000132
:104DA800606FC30E616F000E626F000E636F96EC4A
:104DB80053F09D9A000E0001606F040E0001616FB0
:104DC800840E0001626F010E0001636FB7EC44F0BE
:104DD8000009D8A404D0000E0101B96F00D0000E5C
:104DE8000001606F040E0001616F3EC062F00001B7
:104DF800636B3DEC53F0000E3E6E0101B9510101A9
:104E0800D8B42DD018EC57F09E9A9D8AAF0E0001A9
:104E1800626FFF0E0001636F98EC55F0500E0001B1
:104E2800606FC30E616F000E626F000E636F96ECC9
:104E380053F09D9A000E0001606F040E0001616F2F
:104E4800840E0001626F010E0001636FB7EC44F03D
:104E58000009D8A404D0000E0101B96F00D0000EDB
:104E68000001606F040E0001616F3EC062F0000136
:104E7800636B3DEC53F0000E3E6E0101B951010128
:104E8800D8B46AD018EC57F09E9A9D8AF90E0001A2
:104E9800626FFF0E0001636F98EC55F0500E000131
:104EA800606FC30E616F000E626F000E636F96EC49
:104EB80053F09D9A0101B7510101D8B417D0840E5F
:104EC8000001AE6F010E0001AF6F5D0E0001B06F03
:104ED800FA0E0001B16FCEC2B2F0CFC2B3F0D0C2A9
:104EE800B4F0D1C2B5F022EC16F014D0840E000153
:104EF800AE6F010E0001AF6FE20E0001B06FFE0E43
:104F08000001B16F6F0E0001B26F010E0001B36FA7
:104F180022EC16F0000E0001636F040E0001646FAE
:104F2800840E0001656F010E0001666F6AEC3DF0AA
:104F38000009D8A411D00201CE290AE10201CF2923
:104F480007E10201D02904E10201D129D8B404D033
:104F5800000E0101B96F00D0000E0001606F040E51
:104F68000001616F3EC062F00001636B3DEC53F0DD
:104F7800000E3E6E18EC57F09E9A9D8ACD0E0001E9
:104F8800626FFF0E0001636F98EC55F0500E000140
:104F9800606FC30E616F000E626F000E636F96EC58
:104FA80053F0840E0001AE6F010E0001AF6FF10ED9
:104FB8000001B06FFF0E0001B16F22EC16F09D9A50
:104FC800000E0001606F040E0001616F840E000185
:104FD800626F010E0001636FB7EC44F00009D8A4BA
:104FE80004D0000E0101B96F00D0000E0001606FFF
:104FF800040E0001616F3EC062F00001636B3DEC7E
:1050080053F0000E3E6E0101B9510101D8B402D02F
:10501800010E1200000E12001200000E0301E36FD1
:10502800000E0301DD6F000E0301DE6F010E0301A8
:10503800E46F000E0301DF6F000E0001606F030EC6
:105048000001616F000E0001636F640E626F3DEC3A
:1050580053F0640E0001606F030E0001616F000ED3
:105068000001636F640E626F3DEC53F0C80E0001DF
:10507800606F030E0001616F000E0001636F150E73
:10508800626F3DEC53F095EC57F059EC54F0DEECC0
:105098003FF010EC50F089C0E5F38AC0E6F38BC00E
:1050A800E7F3E5C360F0E6C361F0E7C362F0CD0E55
:1050B8000001636F8C0E0001646F400E0001656F84
:1050C800DCEC4BF00001D8B002D0220E15D0CD0E8A
:1050D8000001606F940E0001616F410E0001626F64
:1050E800E5C363F0E6C364F0E7C365F0DCEC4BF0BE
:1050F8000001D8B004D0620E0301E46F00D00301B0
:10510800E405D8A427D0000E0301E36F090E0301BC
:10511800E36501D01DD08B828B94500E0001606F27
:10512800C30E616F000E626F000E636F96EC53F052
:105138008B928B84500E0001606FC30E616F000E5E
:10514800626F000E636F96EC53F00301E32BDED71A
:105158008B9424D0000E0301E36F090E0301E3656D
:1051680001D01CD08B82A00E0001606F860E616F8B
:10517800010E626F000E636F96EC53F08B92A00ED7
:105188000001606F860E616F010E626F000E636F23
:1051980096EC53F00301E32BE0D700D055EC57F021
:1051A8000301E26F000E0301E06F3BD2F0C3DDF3B1
:1051B800EAC3DEF310EC50F089C0E5F38AC0E6F3E9
:1051C8008BC0E7F3220E0301E419D8A418D0E5C375
:1051D8009FF0E6C3A0F0E7C3A1F0000E0001A26FA4
:1051E800000E0001A36F3F0E0001A46FEBEC53F01B
:1051F8009FC0E5F3A0C0E6F3A1C0E7F31DD0620E9F
:105208000301E419D8A418D0E5C393F0E6C394F0D9
:10521800E7C395F0000E0001966F000E0001976F2E
:105228003F0E0001986F18EC39F093C0E5F394C075
:10523800E6F395C0E7F300D0E5C360F0E6C361F09C
:10524800E7C362F0CD0E0001636F8C0E0001646F3E
:10525800400E0001656FDCEC4BF00001D8B002D0C5
:10526800220E17D0CD0E0001606F940E0001616F01
:10527800410E0001626FE5C363F0E6C364F0E7C363
:1052880065F0DCEC4BF00001D8B002D0620E01D022
:10529800010E0301E46F00D00301E405D8B402D085
:1052A8008B8200D00301E405D8A407D00301E105EF
:1052B800D8B403D006EC57F000D00301DD51030148
:1052C800D8B41BD00301EC510301ED110301EE1119
:1052D8000301EF11D8B411D0F00E0001DA6F030EFC
:1052E8000001DB6FECC3DCF0EDC3DDF0EEC3DEF0F4
:1052F800EFC3DFF057EC3AF000D055EC57F003015C
:10530800E26F0301E0510301E219D8B497D0030119
:10531800E2510301D8B490D0640E0001606F040E0E
:105328000001616FEBC362F00001636B3DEC53F069
:10533800000E0301EB6F400E0001606F420E616FBB
:105348000F0E626F000E636F96EC53F0150E00019E
:10535800646FED0E0001656F7BEC54F05E0E00018A
:10536800626FEF0E0001636F98EC55F00301E8518E
:10537800D8B441D05E0E0001626FEF0E0001636F7A
:1053880098EC55F0E60E0001686F040E0001696F95
:10539800C80E00016A6F030E00016B6F150E000145
:1053A8006C6F000E00016D6F36EC51F0000E0001BD
:1053B800AE6F030E0001AF6F990E0001B06FF10ED2
:1053C8000001B16FC80E0001B26F030E0001B36F88
:1053D80022EC16F0000E0001646F030E0001656FE9
:1053E800F9EC54F05E0E0001626FEF0E0001636F7E
:1053F80098EC55F000D00301E405D8B415D00301AA
:10540800E105D8B411D07B0E0001646FFB0E0001DA
:10541800656F7BEC54F05E0E0001626FEF0E0001C9
:10542800636F98EC55F000D018EC57F09E9A9D8A5F
:105438003E0E74EC56F002D09D9A00D00301DE5166
:105448000301D8B479D00301E2510301D8B474D070
:10545800640E0001606F030E0001616F000E000111
:10546800636F640E626F3DEC53F0640E0001686F69
:10547800040E0001696F640E00016A6F030E0001DB
:105488006B6FEBC36CF0000E00016D6F36EC51F0E2
:10549800EBC3DFF3640E0001606F040E0001616F5F
:1054A800EBC362F00001636B3DEC53F0000E0301A7
:1054B800EB6F000E0301EA6F030164510301D8B4D6
:1054C8000BD0640E0001E66F030E0001E76FDFC327
:1054D800E8F0E8EC00F000D0640E0001606F040E04
:1054E8000001616FEBC362F00001636B3DEC53F0A8
:1054F800000E0301EB6F000E0301EA6F5E0E000160
:10550800626FEF0E0001636F98EC55F03E0E74EC7D
:1055180056F00301F051D8B404D0000E0301F06F27
:1055280000D04EEC57F0406EF2907D88F28618EC71
:1055380057F09E9A9D8A00D00301F4510301F3119C
:1055480010E1880E0301F15D130E0301F259D8B082
:1055580008D0010E0301F127000EF223F323F423F0
:1055680027D0880E0301F11923E1130E0301F21964
:105578000301F3110301F411D8A41AD0010E030199
:10558800F127000EF223F323F423000E0301EC6F3E
:10559800000EED6F000EEE6F000EEF6F000E0301B0
:1055A800F06F4EEC57F0406EF2907D88F28600D096
:1055B8000301E951D8B433D0640E0001606F040EC2
:1055C8000001616F000E0001636F640E626F3DECB5
:1055D80053F0000E0301EB6F5E0E0001626FEF0ED9
:1055E8000001636F98EC55F0230E0001646FFE0E06
:1055F8000001656F7BEC54F05E0E0001626FEF0EE8
:105608000001636F98EC55F03E0E93EC56F0000ED7
:105618000301E96F18EC57F09E9A9D8A00D0E2C307
:10562800E0F3E4C3E1F3C2D5E6EF00F0EACF2CF0F3
:10563800E1CF2DF0E2CF2EF0D9CF2FF0DACF30F036
:10564800F3CF31F0F4CF32F0F6CF33F0F7CF34F0B8
:10565800F8CF35F0F5CF36F0F29EF2A079D000F011
:1056680000F0000E0301F16F000EF26F000EF36FF1
:10567800000EF46F6AEC57F0376E40503718D8B404
:1056880061D0D58EF28A130E506E000E0301F06FB2
:10569800D6CF38F0396AD7503926640E41604DD0DC
:1056A8004150D8B442D0650E41603FD0FE0E256E01
:1056B800FF0E266E4150276E286AD8902736283666
:1056C8002550272626502822000E2724D96E060E9C
:1056D8002820DA6E38C0DEFF39C0DDFF090E385CDD
:1056E800520E3958D8B00AD0380E385C4A0E39589C
:1056F800D8A004D07D98F296F2841AD0510E385C66
:10570800C30E3958D8B00ED0C80E385CAF0E395811
:10571800D8A008D07D98F2968F0E186E176885EC81
:1057280057F006D080EC57F003D080EC57F000D04B
:10573800650E416004D0412A02D07D98F29637C0A8
:1057480040F002D000F000D06AEC57F0F29018D286
:10575800F2A430D0F29AD59E030E41640ED0000E0A
:10576800176E060E186EEC0E196E030E1A6E010EE9
:105778001B6ED6EC34F00301F06F000E176E060EA8
:10578800186E000E1A6E640E196E9CEC54F0000E22
:10579800416E0301F051D8A409D06AEC57F06AECC5
:1057A80057F0406EF2907D88F28600D00D0E506E54
:1057B800F294E6D19EA2D1D14A2A370E4E18D8A427
:1057C8000CD14F504A5CD8A003D1000E4A6E455008
:1057D800010D8A0EF324D96E020EF420DA6E630EE0
:1057E800DE18D8B4B3D04750D8B4F2D04550010D24
:1057F8008A0EF324D96E020EF420DA6EDF50D8A494
:105808003FD04404D8A425D04604D8A407D077D0E4
:10581800080ECB6E76D0000ECC6EDAD0020E46188B
:10582800D8A404D074D03ED0462AD2D0030E46184D
:10583800D8A402D064D0ECD7040E4618D8A404D05B
:105848008B9A180E51D016D0CA947BD0000E476E92
:10585800BFD0020E4418D8A4F7D74604D8A403D062
:105868008B8A0B0ED6D7020E4618D8A4EDD78B9A82
:105878001D0E3AD0010E466E452AAAD062D0A8D095
:105888004550010D8A0EF324D96E020EF420DA6E0B
:10589800DE04D8A42ED04404D8A416D04604D8A434
:1058A80004D03CD0180ECB6EBFD7020E4618D8A431
:1058B80031D08B9AADD72ED0F5D7B6D732D0080EC7
:1058C800CB6E35D0A8D784D0020E4418D8A4BCD744
:1058D8004604D8A403D08B8A1D0E9BD7020E461807
:1058E800D8A404D08B9A0B0ECB6EC4D7CA9429D0F7
:1058F8006FD04404D8A420D04604D8A404D08B8AFE
:1059080087D7462A88D7020E4618D8A403D08B9A80
:10591800C9D78AD7030E4618D8A403D08B8AC2D712
:1059280083D7040E4618D8A48FD78B9AC8D7010EF0
:10593800466E452A70D74CD0020E4418D8A484D796
:1059480083D7010E0001FF6F81D742D04604D8A447
:1059580016D04404D8A403D08B8A080E06D0020EB1
:105968004418D8A404D08B9A0B0ECB6E05D0CA94D9
:10597800010E0001FF6F00D0000ECC6E55D7020E4D
:105988004618D8A41CD04404D8A403D08B9AFA0E85
:1059980005D0020E4418D8A403D0950ECB6E05D0BE
:1059A800CA94010E0001FF6F00D0462A48064850ED
:1059B800D8B40ED0010E466E000E456E09D08AECA2
:1059C80057F0A192000E4B6EB180CA943FD700D019
:1059D8004750D8B4C0D0CA84BED04F504A5CD8A073
:1059E800BAD0000E4A6E070E4D18D8A40DD0200E5E
:1059F8004C6E000E0001FB6F8B96080E4D6E040E68
:105A08004F6E4B0ECB6EA7D0080E4D18D8B404D0ED
:105A18000A0E4D18D8A411D0010E0001FB6F010E1B
:105A28004F6E3A50010B3F6ED8903D323C323B32BC
:105A38003A32260ECB6E090E7AD0090E4D18D8A42C
:105A480017D0000E0001FB6F8B96010E4F6E3F5072
:105A5800D8B402D0710E01D0260ECB6E00D04C0601
:105A68004C50D8A402D00B0E62D00A0E60D073D06E
:105A78000B0E4D18D8A407D0010E0001FB6F260E9F
:105A8800CB6E0C0E54D00C0E4D18D8A411D0000EAD
:105A98000001FB6F8B964350D8A403D00D0E4D6EBA
:105AA80057D00B0E4F6EF20ECB6E0E0E40D053D069
:105AB8000E0E4D18D8B404D0120E4D18D8A409D023
:105AC800010E0001FB6F040E4F6E960ECB6E0F0E8B
:105AD8002ED00F0E4D18D8A40AD0000E0001FB6F6F
